{
	"contracts/marketplace.sol": {
		"TaskMarketplace": {
			"abi": [
				{
					"inputs": [
						{
							"internalType": "address",
							"name": "_governanceToken",
							"type": "address"
						}
					],
					"stateMutability": "nonpayable",
					"type": "constructor"
				},
				{
					"anonymous": false,
					"inputs": [
						{
							"indexed": false,
							"internalType": "uint256",
							"name": "taskId",
							"type": "uint256"
						},
						{
							"indexed": false,
							"internalType": "address",
							"name": "objector",
							"type": "address"
						},
						{
							"indexed": false,
							"internalType": "uint256",
							"name": "deposit",
							"type": "uint256"
						},
						{
							"indexed": false,
							"internalType": "uint256",
							"name": "startTime",
							"type": "uint256"
						}
					],
					"name": "DisputeCreated",
					"type": "event"
				},
				{
					"anonymous": false,
					"inputs": [
						{
							"indexed": false,
							"internalType": "uint256",
							"name": "taskId",
							"type": "uint256"
						},
						{
							"indexed": false,
							"internalType": "bool",
							"name": "finalDecision",
							"type": "bool"
						}
					],
					"name": "DisputeFinalized",
					"type": "event"
				},
				{
					"anonymous": false,
					"inputs": [
						{
							"indexed": false,
							"internalType": "uint256",
							"name": "taskId",
							"type": "uint256"
						},
						{
							"indexed": false,
							"internalType": "address",
							"name": "juror",
							"type": "address"
						},
						{
							"indexed": false,
							"internalType": "bool",
							"name": "supportsSolution",
							"type": "bool"
						},
						{
							"indexed": false,
							"internalType": "uint256",
							"name": "weight",
							"type": "uint256"
						}
					],
					"name": "JurorVoted",
					"type": "event"
				},
				{
					"anonymous": false,
					"inputs": [
						{
							"indexed": false,
							"internalType": "uint256",
							"name": "taskId",
							"type": "uint256"
						},
						{
							"indexed": false,
							"internalType": "address",
							"name": "solver",
							"type": "address"
						},
						{
							"indexed": false,
							"internalType": "string",
							"name": "solutionHash",
							"type": "string"
						}
					],
					"name": "SolutionSubmitted",
					"type": "event"
				},
				{
					"anonymous": false,
					"inputs": [
						{
							"indexed": false,
							"internalType": "uint256",
							"name": "taskId",
							"type": "uint256"
						},
						{
							"indexed": false,
							"internalType": "address",
							"name": "verifier",
							"type": "address"
						},
						{
							"indexed": false,
							"internalType": "bool",
							"name": "approved",
							"type": "bool"
						}
					],
					"name": "SolutionVerified",
					"type": "event"
				},
				{
					"anonymous": false,
					"inputs": [
						{
							"indexed": false,
							"internalType": "uint256",
							"name": "taskId",
							"type": "uint256"
						},
						{
							"indexed": false,
							"internalType": "bool",
							"name": "success",
							"type": "bool"
						}
					],
					"name": "TaskFinalized",
					"type": "event"
				},
				{
					"anonymous": false,
					"inputs": [
						{
							"indexed": false,
							"internalType": "uint256",
							"name": "taskId",
							"type": "uint256"
						},
						{
							"indexed": false,
							"internalType": "address",
							"name": "creator",
							"type": "address"
						},
						{
							"indexed": false,
							"internalType": "uint256",
							"name": "bounty",
							"type": "uint256"
						},
						{
							"indexed": false,
							"internalType": "string",
							"name": "descriptionHash",
							"type": "string"
						}
					],
					"name": "TaskPosted",
					"type": "event"
				},
				{
					"inputs": [
						{
							"internalType": "uint256",
							"name": "_taskId",
							"type": "uint256"
						}
					],
					"name": "createDispute",
					"outputs": [],
					"stateMutability": "payable",
					"type": "function"
				},
				{
					"inputs": [],
					"name": "disputePeriod",
					"outputs": [
						{
							"internalType": "uint256",
							"name": "",
							"type": "uint256"
						}
					],
					"stateMutability": "view",
					"type": "function"
				},
				{
					"inputs": [
						{
							"internalType": "uint256",
							"name": "_taskId",
							"type": "uint256"
						}
					],
					"name": "finalizeDispute",
					"outputs": [],
					"stateMutability": "nonpayable",
					"type": "function"
				},
				{
					"inputs": [
						{
							"internalType": "uint256",
							"name": "_taskId",
							"type": "uint256"
						}
					],
					"name": "finalizeTask",
					"outputs": [],
					"stateMutability": "nonpayable",
					"type": "function"
				},
				{
					"inputs": [
						{
							"internalType": "uint256",
							"name": "_taskId",
							"type": "uint256"
						}
					],
					"name": "getRemainingDisputeTime",
					"outputs": [
						{
							"internalType": "uint256",
							"name": "Seconds",
							"type": "uint256"
						}
					],
					"stateMutability": "view",
					"type": "function"
				},
				{
					"inputs": [
						{
							"internalType": "uint256",
							"name": "_taskId",
							"type": "uint256"
						}
					],
					"name": "getRemainingTime",
					"outputs": [
						{
							"internalType": "uint256",
							"name": "Seconds",
							"type": "uint256"
						}
					],
					"stateMutability": "view",
					"type": "function"
				},
				{
					"inputs": [
						{
							"internalType": "uint256",
							"name": "_taskId",
							"type": "uint256"
						}
					],
					"name": "getTask",
					"outputs": [
						{
							"internalType": "address",
							"name": "creator",
							"type": "address"
						},
						{
							"internalType": "address",
							"name": "solver",
							"type": "address"
						},
						{
							"internalType": "address",
							"name": "verifier",
							"type": "address"
						},
						{
							"internalType": "uint256",
							"name": "bounty",
							"type": "uint256"
						},
						{
							"internalType": "string",
							"name": "descriptionHash",
							"type": "string"
						},
						{
							"internalType": "string",
							"name": "solutionHash",
							"type": "string"
						},
						{
							"internalType": "bool",
							"name": "approved",
							"type": "bool"
						},
						{
							"internalType": "uint256",
							"name": "deadline",
							"type": "uint256"
						},
						{
							"internalType": "enum TaskMarketplace.TaskStatus",
							"name": "status",
							"type": "uint8"
						}
					],
					"stateMutability": "view",
					"type": "function"
				},
				{
					"inputs": [],
					"name": "getTaskCount",
					"outputs": [
						{
							"internalType": "uint256",
							"name": "",
							"type": "uint256"
						}
					],
					"stateMutability": "view",
					"type": "function"
				},
				{
					"inputs": [],
					"name": "governanceToken",
					"outputs": [
						{
							"internalType": "contract IERC20",
							"name": "",
							"type": "address"
						}
					],
					"stateMutability": "view",
					"type": "function"
				},
				{
					"inputs": [
						{
							"internalType": "uint256",
							"name": "_taskId",
							"type": "uint256"
						},
						{
							"internalType": "uint256",
							"name": "_tokenAmount",
							"type": "uint256"
						},
						{
							"internalType": "bool",
							"name": "supportsSolution",
							"type": "bool"
						}
					],
					"name": "jurorVote",
					"outputs": [],
					"stateMutability": "nonpayable",
					"type": "function"
				},
				{
					"inputs": [],
					"name": "minJurorStake",
					"outputs": [
						{
							"internalType": "uint256",
							"name": "",
							"type": "uint256"
						}
					],
					"stateMutability": "view",
					"type": "function"
				},
				{
					"inputs": [
						{
							"internalType": "string",
							"name": "_descriptionHash",
							"type": "string"
						}
					],
					"name": "postTask",
					"outputs": [],
					"stateMutability": "payable",
					"type": "function"
				},
				{
					"inputs": [
						{
							"internalType": "uint256",
							"name": "_taskId",
							"type": "uint256"
						},
						{
							"internalType": "string",
							"name": "_solutionHash",
							"type": "string"
						}
					],
					"name": "submitSolution",
					"outputs": [],
					"stateMutability": "payable",
					"type": "function"
				},
				{
					"inputs": [
						{
							"internalType": "uint256",
							"name": "_taskId",
							"type": "uint256"
						},
						{
							"internalType": "bool",
							"name": "_approved",
							"type": "bool"
						}
					],
					"name": "verifySolution",
					"outputs": [],
					"stateMutability": "payable",
					"type": "function"
				}
			],
			"devdoc": {
				"kind": "dev",
				"methods": {},
				"version": 1
			},
			"evm": {
				"assembly": "    /* \"contracts/marketplace.sol\":253:13021  contract TaskMarketplace {... */\n  mstore(0x40, 0x80)\n    /* \"contracts/marketplace.sol\":1452:1462  0.01 ether */\n  0x2386f26fc10000\n    /* \"contracts/marketplace.sol\":1431:1462  uint256 submitCost = 0.01 ether */\n  0x03\n  sstore\n    /* \"contracts/marketplace.sol\":1489:1499  0.01 ether */\n  0x2386f26fc10000\n    /* \"contracts/marketplace.sol\":1468:1499  uint256 verifyCost = 0.01 ether */\n  0x04\n  sstore\n    /* \"contracts/marketplace.sol\":1536:1539  100 */\n  0x64\n    /* \"contracts/marketplace.sol\":1505:1539  uint256 public minJurorStake = 100 */\n  0x05\n  sstore\n    /* \"contracts/marketplace.sol\":1576:1585  3 minutes */\n  0xb4\n    /* \"contracts/marketplace.sol\":1545:1585  uint256 public disputePeriod = 3 minutes */\n  0x06\n  sstore\n    /* \"contracts/marketplace.sol\":2190:2287  constructor(address _governanceToken) {... */\n  callvalue\n  dup1\n  iszero\n  tag_1\n  jumpi\n  revert(0x00, 0x00)\ntag_1:\n  pop\n  mload(0x40)\n  sub(codesize, bytecodeSize)\n  dup1\n  bytecodeSize\n  dup4\n  codecopy\n  dup2\n  dup2\n  add\n  0x40\n  mstore\n  dup2\n  add\n  swap1\n  tag_2\n  swap2\n  swap1\n  tag_3\n  jump\t// in\ntag_2:\n    /* \"contracts/marketplace.sol\":2263:2279  _governanceToken */\n  dup1\n    /* \"contracts/marketplace.sol\":2238:2253  governanceToken */\n  0x07\n  0x00\n    /* \"contracts/marketplace.sol\":2238:2280  governanceToken = IERC20(_governanceToken) */\n  0x0100\n  exp\n  dup2\n  sload\n  dup2\n  0xffffffffffffffffffffffffffffffffffffffff\n  mul\n  not\n  and\n  swap1\n  dup4\n  0xffffffffffffffffffffffffffffffffffffffff\n  and\n  mul\n  or\n  swap1\n  sstore\n  pop\n    /* \"contracts/marketplace.sol\":2190:2287  constructor(address _governanceToken) {... */\n  pop\n    /* \"contracts/marketplace.sol\":253:13021  contract TaskMarketplace {... */\n  jump(tag_6)\n    /* \"#utility.yul\":88:205   */\ntag_8:\n    /* \"#utility.yul\":197:198   */\n  0x00\n    /* \"#utility.yul\":194:195   */\n  0x00\n    /* \"#utility.yul\":187:199   */\n  revert\n    /* \"#utility.yul\":334:460   */\ntag_10:\n    /* \"#utility.yul\":371:378   */\n  0x00\n    /* \"#utility.yul\":411:453   */\n  0xffffffffffffffffffffffffffffffffffffffff\n    /* \"#utility.yul\":404:409   */\n  dup3\n    /* \"#utility.yul\":400:454   */\n  and\n    /* \"#utility.yul\":389:454   */\n  swap1\n  pop\n    /* \"#utility.yul\":334:460   */\n  swap2\n  swap1\n  pop\n  jump\t// out\n    /* \"#utility.yul\":466:562   */\ntag_11:\n    /* \"#utility.yul\":503:510   */\n  0x00\n    /* \"#utility.yul\":532:556   */\n  tag_20\n    /* \"#utility.yul\":550:555   */\n  dup3\n    /* \"#utility.yul\":532:556   */\n  tag_10\n  jump\t// in\ntag_20:\n    /* \"#utility.yul\":521:556   */\n  swap1\n  pop\n    /* \"#utility.yul\":466:562   */\n  swap2\n  swap1\n  pop\n  jump\t// out\n    /* \"#utility.yul\":568:690   */\ntag_12:\n    /* \"#utility.yul\":641:665   */\n  tag_22\n    /* \"#utility.yul\":659:664   */\n  dup2\n    /* \"#utility.yul\":641:665   */\n  tag_11\n  jump\t// in\ntag_22:\n    /* \"#utility.yul\":634:639   */\n  dup2\n    /* \"#utility.yul\":631:666   */\n  eq\n    /* \"#utility.yul\":621:684   */\n  tag_23\n  jumpi\n    /* \"#utility.yul\":680:681   */\n  0x00\n    /* \"#utility.yul\":677:678   */\n  0x00\n    /* \"#utility.yul\":670:682   */\n  revert\n    /* \"#utility.yul\":621:684   */\ntag_23:\n    /* \"#utility.yul\":568:690   */\n  pop\n  jump\t// out\n    /* \"#utility.yul\":696:839   */\ntag_13:\n    /* \"#utility.yul\":753:758   */\n  0x00\n    /* \"#utility.yul\":784:790   */\n  dup2\n    /* \"#utility.yul\":778:791   */\n  mload\n    /* \"#utility.yul\":769:791   */\n  swap1\n  pop\n    /* \"#utility.yul\":800:833   */\n  tag_25\n    /* \"#utility.yul\":827:832   */\n  dup2\n    /* \"#utility.yul\":800:833   */\n  tag_12\n  jump\t// in\ntag_25:\n    /* \"#utility.yul\":696:839   */\n  swap3\n  swap2\n  pop\n  pop\n  jump\t// out\n    /* \"#utility.yul\":845:1196   */\ntag_3:\n    /* \"#utility.yul\":915:921   */\n  0x00\n    /* \"#utility.yul\":964:966   */\n  0x20\n    /* \"#utility.yul\":952:961   */\n  dup3\n    /* \"#utility.yul\":943:950   */\n  dup5\n    /* \"#utility.yul\":939:962   */\n  sub\n    /* \"#utility.yul\":935:967   */\n  slt\n    /* \"#utility.yul\":932:1051   */\n  iszero\n  tag_27\n  jumpi\n    /* \"#utility.yul\":970:1049   */\n  tag_28\n  tag_8\n  jump\t// in\ntag_28:\n    /* \"#utility.yul\":932:1051   */\ntag_27:\n    /* \"#utility.yul\":1090:1091   */\n  0x00\n    /* \"#utility.yul\":1115:1179   */\n  tag_29\n    /* \"#utility.yul\":1171:1178   */\n  dup5\n    /* \"#utility.yul\":1162:1168   */\n  dup3\n    /* \"#utility.yul\":1151:1160   */\n  dup6\n    /* \"#utility.yul\":1147:1169   */\n  add\n    /* \"#utility.yul\":1115:1179   */\n  tag_13\n  jump\t// in\ntag_29:\n    /* \"#utility.yul\":1105:1179   */\n  swap2\n  pop\n    /* \"#utility.yul\":1061:1189   */\n  pop\n    /* \"#utility.yul\":845:1196   */\n  swap3\n  swap2\n  pop\n  pop\n  jump\t// out\n    /* \"contracts/marketplace.sol\":253:13021  contract TaskMarketplace {... */\ntag_6:\n  dataSize(sub_0)\n  dup1\n  dataOffset(sub_0)\n  0x00\n  codecopy\n  0x00\n  return\nstop\n\nsub_0: assembly {\n        /* \"contracts/marketplace.sol\":253:13021  contract TaskMarketplace {... */\n      mstore(0x40, 0x80)\n      jumpi(tag_1, lt(calldatasize, 0x04))\n      shr(0xe0, calldataload(0x00))\n      dup1\n      0x83b0474d\n      gt\n      tag_16\n      jumpi\n      dup1\n      0xc17a340e\n      gt\n      tag_17\n      jumpi\n      dup1\n      0xc17a340e\n      eq\n      tag_12\n      jumpi\n      dup1\n      0xc4ca280d\n      eq\n      tag_13\n      jumpi\n      dup1\n      0xd3b5c016\n      eq\n      tag_14\n      jumpi\n      dup1\n      0xf96dae0a\n      eq\n      tag_15\n      jumpi\n      jump(tag_1)\n    tag_17:\n      dup1\n      0x83b0474d\n      eq\n      tag_9\n      jumpi\n      dup1\n      0x88488c33\n      eq\n      tag_10\n      jumpi\n      dup1\n      0x88860835\n      eq\n      tag_11\n      jumpi\n      jump(tag_1)\n    tag_16:\n      dup1\n      0x276ae811\n      gt\n      tag_18\n      jumpi\n      dup1\n      0x276ae811\n      eq\n      tag_5\n      jumpi\n      dup1\n      0x4ac8a529\n      eq\n      tag_6\n      jumpi\n      dup1\n      0x56989a83\n      eq\n      tag_7\n      jumpi\n      dup1\n      0x5bf31d4d\n      eq\n      tag_8\n      jumpi\n      jump(tag_1)\n    tag_18:\n      dup1\n      0x181e0124\n      eq\n      tag_2\n      jumpi\n      dup1\n      0x1d65e77e\n      eq\n      tag_3\n      jumpi\n      dup1\n      0x1df97777\n      eq\n      tag_4\n      jumpi\n    tag_1:\n      revert(0x00, 0x00)\n        /* \"contracts/marketplace.sol\":12133:12499  function getRemainingTime(uint256 _taskId) external view returns (uint256 Seconds) {... */\n    tag_2:\n      callvalue\n      dup1\n      iszero\n      tag_19\n      jumpi\n      revert(0x00, 0x00)\n    tag_19:\n      pop\n      tag_20\n      0x04\n      dup1\n      calldatasize\n      sub\n      dup2\n      add\n      swap1\n      tag_21\n      swap2\n      swap1\n      tag_22\n      jump\t// in\n    tag_21:\n      tag_23\n      jump\t// in\n    tag_20:\n      mload(0x40)\n      tag_24\n      swap2\n      swap1\n      tag_25\n      jump\t// in\n    tag_24:\n      mload(0x40)\n      dup1\n      swap2\n      sub\n      swap1\n      return\n        /* \"contracts/marketplace.sol\":11563:12127  function getTask(uint256 _taskId) external view returns (... */\n    tag_3:\n      callvalue\n      dup1\n      iszero\n      tag_26\n      jumpi\n      revert(0x00, 0x00)\n    tag_26:\n      pop\n      tag_27\n      0x04\n      dup1\n      calldatasize\n      sub\n      dup2\n      add\n      swap1\n      tag_28\n      swap2\n      swap1\n      tag_22\n      jump\t// in\n    tag_28:\n      tag_29\n      jump\t// in\n    tag_27:\n      mload(0x40)\n      tag_30\n      swap10\n      swap9\n      swap8\n      swap7\n      swap6\n      swap5\n      swap4\n      swap3\n      swap2\n      swap1\n      tag_31\n      jump\t// in\n    tag_30:\n      mload(0x40)\n      dup1\n      swap2\n      sub\n      swap1\n      return\n        /* \"contracts/marketplace.sol\":4978:6178  function jurorVote(uint256 _taskId, uint256 _tokenAmount, bool supportsSolution) external {... */\n    tag_4:\n      callvalue\n      dup1\n      iszero\n      tag_32\n      jumpi\n      revert(0x00, 0x00)\n    tag_32:\n      pop\n      tag_33\n      0x04\n      dup1\n      calldatasize\n      sub\n      dup2\n      add\n      swap1\n      tag_34\n      swap2\n      swap1\n      tag_35\n      jump\t// in\n    tag_34:\n      tag_36\n      jump\t// in\n    tag_33:\n      stop\n        /* \"contracts/marketplace.sol\":1505:1539  uint256 public minJurorStake = 100 */\n    tag_5:\n      callvalue\n      dup1\n      iszero\n      tag_37\n      jumpi\n      revert(0x00, 0x00)\n    tag_37:\n      pop\n      tag_38\n      tag_39\n      jump\t// in\n    tag_38:\n      mload(0x40)\n      tag_40\n      swap2\n      swap1\n      tag_25\n      jump\t// in\n    tag_40:\n      mload(0x40)\n      dup1\n      swap2\n      sub\n      swap1\n      return\n        /* \"contracts/marketplace.sol\":4105:4971  function createDispute(uint256 _taskId) external payable {... */\n    tag_6:\n      tag_41\n      0x04\n      dup1\n      calldatasize\n      sub\n      dup2\n      add\n      swap1\n      tag_42\n      swap2\n      swap1\n      tag_22\n      jump\t// in\n    tag_42:\n      tag_43\n      jump\t// in\n    tag_41:\n      stop\n        /* \"contracts/marketplace.sol\":6184:8097  function finalizeDispute(uint256 _taskId) external {... */\n    tag_7:\n      callvalue\n      dup1\n      iszero\n      tag_44\n      jumpi\n      revert(0x00, 0x00)\n    tag_44:\n      pop\n      tag_45\n      0x04\n      dup1\n      calldatasize\n      sub\n      dup2\n      add\n      swap1\n      tag_46\n      swap2\n      swap1\n      tag_22\n      jump\t// in\n    tag_46:\n      tag_47\n      jump\t// in\n    tag_45:\n      stop\n        /* \"contracts/marketplace.sol\":1545:1585  uint256 public disputePeriod = 3 minutes */\n    tag_8:\n      callvalue\n      dup1\n      iszero\n      tag_48\n      jumpi\n      revert(0x00, 0x00)\n    tag_48:\n      pop\n      tag_49\n      tag_50\n      jump\t// in\n    tag_49:\n      mload(0x40)\n      tag_51\n      swap2\n      swap1\n      tag_25\n      jump\t// in\n    tag_51:\n      mload(0x40)\n      dup1\n      swap2\n      sub\n      swap1\n      return\n        /* \"contracts/marketplace.sol\":12504:12924  function getRemainingDisputeTime(uint256 _taskId) external view returns (uint256 Seconds) {... */\n    tag_9:\n      callvalue\n      dup1\n      iszero\n      tag_52\n      jumpi\n      revert(0x00, 0x00)\n    tag_52:\n      pop\n      tag_53\n      0x04\n      dup1\n      calldatasize\n      sub\n      dup2\n      add\n      swap1\n      tag_54\n      swap2\n      swap1\n      tag_22\n      jump\t// in\n    tag_54:\n      tag_55\n      jump\t// in\n    tag_53:\n      mload(0x40)\n      tag_56\n      swap2\n      swap1\n      tag_25\n      jump\t// in\n    tag_56:\n      mload(0x40)\n      dup1\n      swap2\n      sub\n      swap1\n      return\n        /* \"contracts/marketplace.sol\":10414:11557  function finalizeTask(uint256 _taskId) external {... */\n    tag_10:\n      callvalue\n      dup1\n      iszero\n      tag_57\n      jumpi\n      revert(0x00, 0x00)\n    tag_57:\n      pop\n      tag_58\n      0x04\n      dup1\n      calldatasize\n      sub\n      dup2\n      add\n      swap1\n      tag_59\n      swap2\n      swap1\n      tag_22\n      jump\t// in\n    tag_59:\n      tag_60\n      jump\t// in\n    tag_58:\n      stop\n        /* \"contracts/marketplace.sol\":3469:4099  function verifySolution(uint256 _taskId, bool _approved) external payable {... */\n    tag_11:\n      tag_61\n      0x04\n      dup1\n      calldatasize\n      sub\n      dup2\n      add\n      swap1\n      tag_62\n      swap2\n      swap1\n      tag_63\n      jump\t// in\n    tag_62:\n      tag_64\n      jump\t// in\n    tag_61:\n      stop\n        /* \"contracts/marketplace.sol\":12930:13019  function getTaskCount() external view returns (uint256) {... */\n    tag_12:\n      callvalue\n      dup1\n      iszero\n      tag_65\n      jumpi\n      revert(0x00, 0x00)\n    tag_65:\n      pop\n      tag_66\n      tag_67\n      jump\t// in\n    tag_66:\n      mload(0x40)\n      tag_68\n      swap2\n      swap1\n      tag_25\n      jump\t// in\n    tag_68:\n      mload(0x40)\n      dup1\n      swap2\n      sub\n      swap1\n      return\n        /* \"contracts/marketplace.sol\":2347:2790  function postTask(string calldata _descriptionHash) external payable {... */\n    tag_13:\n      tag_69\n      0x04\n      dup1\n      calldatasize\n      sub\n      dup2\n      add\n      swap1\n      tag_70\n      swap2\n      swap1\n      tag_71\n      jump\t// in\n    tag_70:\n      tag_72\n      jump\t// in\n    tag_69:\n      stop\n        /* \"contracts/marketplace.sol\":2824:3436  function submitSolution(uint256 _taskId, string calldata _solutionHash) external payable {... */\n    tag_14:\n      tag_73\n      0x04\n      dup1\n      calldatasize\n      sub\n      dup2\n      add\n      swap1\n      tag_74\n      swap2\n      swap1\n      tag_75\n      jump\t// in\n    tag_74:\n      tag_76\n      jump\t// in\n    tag_73:\n      stop\n        /* \"contracts/marketplace.sol\":1592:1621  IERC20 public governanceToken */\n    tag_15:\n      callvalue\n      dup1\n      iszero\n      tag_77\n      jumpi\n      revert(0x00, 0x00)\n    tag_77:\n      pop\n      tag_78\n      tag_79\n      jump\t// in\n    tag_78:\n      mload(0x40)\n      tag_80\n      swap2\n      swap1\n      tag_81\n      jump\t// in\n    tag_80:\n      mload(0x40)\n      dup1\n      swap2\n      sub\n      swap1\n      return\n        /* \"contracts/marketplace.sol\":12133:12499  function getRemainingTime(uint256 _taskId) external view returns (uint256 Seconds) {... */\n    tag_23:\n        /* \"contracts/marketplace.sol\":12199:12214  uint256 Seconds */\n      0x00\n        /* \"contracts/marketplace.sol\":12244:12245  0 */\n      0x00\n        /* \"contracts/marketplace.sol\":12234:12241  _taskId */\n      dup3\n        /* \"contracts/marketplace.sol\":12234:12245  _taskId > 0 */\n      gt\n        /* \"contracts/marketplace.sol\":12234:12269  _taskId > 0 && _taskId <= taskCount */\n      dup1\n      iszero\n      tag_83\n      jumpi\n      pop\n        /* \"contracts/marketplace.sol\":12260:12269  taskCount */\n      sload(0x00)\n        /* \"contracts/marketplace.sol\":12249:12256  _taskId */\n      dup3\n        /* \"contracts/marketplace.sol\":12249:12269  _taskId <= taskCount */\n      gt\n      iszero\n        /* \"contracts/marketplace.sol\":12234:12269  _taskId > 0 && _taskId <= taskCount */\n    tag_83:\n        /* \"contracts/marketplace.sol\":12226:12289  require(_taskId > 0 && _taskId <= taskCount, \"Invalid task id\") */\n      tag_84\n      jumpi\n      mload(0x40)\n      0x08c379a000000000000000000000000000000000000000000000000000000000\n      dup2\n      mstore\n      0x04\n      add\n      tag_85\n      swap1\n      tag_86\n      jump\t// in\n    tag_85:\n      mload(0x40)\n      dup1\n      swap2\n      sub\n      swap1\n      revert\n    tag_84:\n        /* \"contracts/marketplace.sol\":12331:12332  0 */\n      0x00\n        /* \"contracts/marketplace.sol\":12304:12309  tasks */\n      0x01\n        /* \"contracts/marketplace.sol\":12304:12318  tasks[_taskId] */\n      0x00\n        /* \"contracts/marketplace.sol\":12310:12317  _taskId */\n      dup5\n        /* \"contracts/marketplace.sol\":12304:12318  tasks[_taskId] */\n      dup2\n      mstore\n      0x20\n      add\n      swap1\n      dup2\n      mstore\n      0x20\n      add\n      0x00\n      keccak256\n        /* \"contracts/marketplace.sol\":12304:12327  tasks[_taskId].deadline */\n      0x07\n      add\n      sload\n        /* \"contracts/marketplace.sol\":12304:12332  tasks[_taskId].deadline == 0 */\n      eq\n        /* \"contracts/marketplace.sol\":12304:12377  tasks[_taskId].deadline == 0 || tasks[_taskId].deadline < block.timestamp */\n      dup1\n      tag_87\n      jumpi\n      pop\n        /* \"contracts/marketplace.sol\":12362:12377  block.timestamp */\n      timestamp\n        /* \"contracts/marketplace.sol\":12336:12341  tasks */\n      0x01\n        /* \"contracts/marketplace.sol\":12336:12350  tasks[_taskId] */\n      0x00\n        /* \"contracts/marketplace.sol\":12342:12349  _taskId */\n      dup5\n        /* \"contracts/marketplace.sol\":12336:12350  tasks[_taskId] */\n      dup2\n      mstore\n      0x20\n      add\n      swap1\n      dup2\n      mstore\n      0x20\n      add\n      0x00\n      keccak256\n        /* \"contracts/marketplace.sol\":12336:12359  tasks[_taskId].deadline */\n      0x07\n      add\n      sload\n        /* \"contracts/marketplace.sol\":12336:12377  tasks[_taskId].deadline < block.timestamp */\n      lt\n        /* \"contracts/marketplace.sol\":12304:12377  tasks[_taskId].deadline == 0 || tasks[_taskId].deadline < block.timestamp */\n    tag_87:\n        /* \"contracts/marketplace.sol\":12300:12493  if (tasks[_taskId].deadline == 0 || tasks[_taskId].deadline < block.timestamp) {... */\n      iszero\n      tag_88\n      jumpi\n        /* \"contracts/marketplace.sol\":12400:12401  0 */\n      0x00\n        /* \"contracts/marketplace.sol\":12393:12401  return 0 */\n      swap1\n      pop\n      jump(tag_82)\n        /* \"contracts/marketplace.sol\":12300:12493  if (tasks[_taskId].deadline == 0 || tasks[_taskId].deadline < block.timestamp) {... */\n    tag_88:\n        /* \"contracts/marketplace.sol\":12466:12481  block.timestamp */\n      timestamp\n        /* \"contracts/marketplace.sol\":12440:12445  tasks */\n      0x01\n        /* \"contracts/marketplace.sol\":12440:12454  tasks[_taskId] */\n      0x00\n        /* \"contracts/marketplace.sol\":12446:12453  _taskId */\n      dup5\n        /* \"contracts/marketplace.sol\":12440:12454  tasks[_taskId] */\n      dup2\n      mstore\n      0x20\n      add\n      swap1\n      dup2\n      mstore\n      0x20\n      add\n      0x00\n      keccak256\n        /* \"contracts/marketplace.sol\":12440:12463  tasks[_taskId].deadline */\n      0x07\n      add\n      sload\n        /* \"contracts/marketplace.sol\":12440:12481  tasks[_taskId].deadline - block.timestamp */\n      tag_90\n      swap2\n      swap1\n      tag_91\n      jump\t// in\n    tag_90:\n        /* \"contracts/marketplace.sol\":12432:12482  return (tasks[_taskId].deadline - block.timestamp) */\n      swap1\n      pop\n        /* \"contracts/marketplace.sol\":12133:12499  function getRemainingTime(uint256 _taskId) external view returns (uint256 Seconds) {... */\n    tag_82:\n      swap2\n      swap1\n      pop\n      jump\t// out\n        /* \"contracts/marketplace.sol\":11563:12127  function getTask(uint256 _taskId) external view returns (... */\n    tag_29:\n        /* \"contracts/marketplace.sol\":11629:11644  address creator */\n      0x00\n        /* \"contracts/marketplace.sol\":11654:11668  address solver */\n      0x00\n        /* \"contracts/marketplace.sol\":11678:11694  address verifier */\n      0x00\n        /* \"contracts/marketplace.sol\":11704:11718  uint256 bounty */\n      0x00\n        /* \"contracts/marketplace.sol\":11728:11757  string memory descriptionHash */\n      0x60\n        /* \"contracts/marketplace.sol\":11767:11793  string memory solutionHash */\n      dup1\n        /* \"contracts/marketplace.sol\":11803:11816  bool approved */\n      0x00\n        /* \"contracts/marketplace.sol\":11826:11842  uint256 deadline */\n      0x00\n        /* \"contracts/marketplace.sol\":11852:11869  TaskStatus status */\n      0x00\n        /* \"contracts/marketplace.sol\":11904:11905  0 */\n      0x00\n        /* \"contracts/marketplace.sol\":11894:11901  _taskId */\n      dup11\n        /* \"contracts/marketplace.sol\":11894:11905  _taskId > 0 */\n      gt\n        /* \"contracts/marketplace.sol\":11894:11929  _taskId > 0 && _taskId <= taskCount */\n      dup1\n      iszero\n      tag_93\n      jumpi\n      pop\n        /* \"contracts/marketplace.sol\":11920:11929  taskCount */\n      sload(0x00)\n        /* \"contracts/marketplace.sol\":11909:11916  _taskId */\n      dup11\n        /* \"contracts/marketplace.sol\":11909:11929  _taskId <= taskCount */\n      gt\n      iszero\n        /* \"contracts/marketplace.sol\":11894:11929  _taskId > 0 && _taskId <= taskCount */\n    tag_93:\n        /* \"contracts/marketplace.sol\":11886:11949  require(_taskId > 0 && _taskId <= taskCount, \"Invalid task id\") */\n      tag_94\n      jumpi\n      mload(0x40)\n      0x08c379a000000000000000000000000000000000000000000000000000000000\n      dup2\n      mstore\n      0x04\n      add\n      tag_95\n      swap1\n      tag_86\n      jump\t// in\n    tag_95:\n      mload(0x40)\n      dup1\n      swap2\n      sub\n      swap1\n      revert\n    tag_94:\n        /* \"contracts/marketplace.sol\":11960:11974  Task storage t */\n      0x00\n        /* \"contracts/marketplace.sol\":11977:11982  tasks */\n      0x01\n        /* \"contracts/marketplace.sol\":11977:11991  tasks[_taskId] */\n      0x00\n        /* \"contracts/marketplace.sol\":11983:11990  _taskId */\n      dup13\n        /* \"contracts/marketplace.sol\":11977:11991  tasks[_taskId] */\n      dup2\n      mstore\n      0x20\n      add\n      swap1\n      dup2\n      mstore\n      0x20\n      add\n      0x00\n      keccak256\n        /* \"contracts/marketplace.sol\":11960:11991  Task storage t = tasks[_taskId] */\n      swap1\n      pop\n        /* \"contracts/marketplace.sol\":12009:12010  t */\n      dup1\n        /* \"contracts/marketplace.sol\":12009:12018  t.creator */\n      0x00\n      add\n      0x00\n      swap1\n      sload\n      swap1\n      0x0100\n      exp\n      swap1\n      div\n      0xffffffffffffffffffffffffffffffffffffffff\n      and\n        /* \"contracts/marketplace.sol\":12020:12021  t */\n      dup2\n        /* \"contracts/marketplace.sol\":12020:12028  t.solver */\n      0x01\n      add\n      0x00\n      swap1\n      sload\n      swap1\n      0x0100\n      exp\n      swap1\n      div\n      0xffffffffffffffffffffffffffffffffffffffff\n      and\n        /* \"contracts/marketplace.sol\":12030:12031  t */\n      dup3\n        /* \"contracts/marketplace.sol\":12030:12040  t.verifier */\n      0x02\n      add\n      0x00\n      swap1\n      sload\n      swap1\n      0x0100\n      exp\n      swap1\n      div\n      0xffffffffffffffffffffffffffffffffffffffff\n      and\n        /* \"contracts/marketplace.sol\":12042:12043  t */\n      dup4\n        /* \"contracts/marketplace.sol\":12042:12050  t.bounty */\n      0x03\n      add\n      sload\n        /* \"contracts/marketplace.sol\":12052:12053  t */\n      dup5\n        /* \"contracts/marketplace.sol\":12052:12069  t.descriptionHash */\n      0x04\n      add\n        /* \"contracts/marketplace.sol\":12071:12072  t */\n      dup6\n        /* \"contracts/marketplace.sol\":12071:12085  t.solutionHash */\n      0x05\n      add\n        /* \"contracts/marketplace.sol\":12087:12088  t */\n      dup7\n        /* \"contracts/marketplace.sol\":12087:12097  t.approved */\n      0x06\n      add\n      0x00\n      swap1\n      sload\n      swap1\n      0x0100\n      exp\n      swap1\n      div\n      0xff\n      and\n        /* \"contracts/marketplace.sol\":12099:12100  t */\n      dup8\n        /* \"contracts/marketplace.sol\":12099:12109  t.deadline */\n      0x07\n      add\n      sload\n        /* \"contracts/marketplace.sol\":12111:12112  t */\n      dup9\n        /* \"contracts/marketplace.sol\":12111:12119  t.status */\n      0x08\n      add\n      0x00\n      swap1\n      sload\n      swap1\n      0x0100\n      exp\n      swap1\n      div\n      0xff\n      and\n        /* \"contracts/marketplace.sol\":12001:12120  return (t.creator, t.solver, t.verifier, t.bounty, t.descriptionHash, t.solutionHash, t.approved, t.deadline, t.status) */\n      dup5\n      dup1\n      sload\n      tag_96\n      swap1\n      tag_97\n      jump\t// in\n    tag_96:\n      dup1\n      0x1f\n      add\n      0x20\n      dup1\n      swap2\n      div\n      mul\n      0x20\n      add\n      mload(0x40)\n      swap1\n      dup2\n      add\n      0x40\n      mstore\n      dup1\n      swap3\n      swap2\n      swap1\n      dup2\n      dup2\n      mstore\n      0x20\n      add\n      dup3\n      dup1\n      sload\n      tag_98\n      swap1\n      tag_97\n      jump\t// in\n    tag_98:\n      dup1\n      iszero\n      tag_99\n      jumpi\n      dup1\n      0x1f\n      lt\n      tag_100\n      jumpi\n      0x0100\n      dup1\n      dup4\n      sload\n      div\n      mul\n      dup4\n      mstore\n      swap2\n      0x20\n      add\n      swap2\n      jump(tag_99)\n    tag_100:\n      dup3\n      add\n      swap2\n      swap1\n      0x00\n      mstore\n      keccak256(0x00, 0x20)\n      swap1\n    tag_101:\n      dup2\n      sload\n      dup2\n      mstore\n      swap1\n      0x01\n      add\n      swap1\n      0x20\n      add\n      dup1\n      dup4\n      gt\n      tag_101\n      jumpi\n      dup3\n      swap1\n      sub\n      0x1f\n      and\n      dup3\n      add\n      swap2\n    tag_99:\n      pop\n      pop\n      pop\n      pop\n      pop\n      swap5\n      pop\n      dup4\n      dup1\n      sload\n      tag_102\n      swap1\n      tag_97\n      jump\t// in\n    tag_102:\n      dup1\n      0x1f\n      add\n      0x20\n      dup1\n      swap2\n      div\n      mul\n      0x20\n      add\n      mload(0x40)\n      swap1\n      dup2\n      add\n      0x40\n      mstore\n      dup1\n      swap3\n      swap2\n      swap1\n      dup2\n      dup2\n      mstore\n      0x20\n      add\n      dup3\n      dup1\n      sload\n      tag_103\n      swap1\n      tag_97\n      jump\t// in\n    tag_103:\n      dup1\n      iszero\n      tag_104\n      jumpi\n      dup1\n      0x1f\n      lt\n      tag_105\n      jumpi\n      0x0100\n      dup1\n      dup4\n      sload\n      div\n      mul\n      dup4\n      mstore\n      swap2\n      0x20\n      add\n      swap2\n      jump(tag_104)\n    tag_105:\n      dup3\n      add\n      swap2\n      swap1\n      0x00\n      mstore\n      keccak256(0x00, 0x20)\n      swap1\n    tag_106:\n      dup2\n      sload\n      dup2\n      mstore\n      swap1\n      0x01\n      add\n      swap1\n      0x20\n      add\n      dup1\n      dup4\n      gt\n      tag_106\n      jumpi\n      dup3\n      swap1\n      sub\n      0x1f\n      and\n      dup3\n      add\n      swap2\n    tag_104:\n      pop\n      pop\n      pop\n      pop\n      pop\n      swap4\n      pop\n      swap10\n      pop\n      swap10\n      pop\n      swap10\n      pop\n      swap10\n      pop\n      swap10\n      pop\n      swap10\n      pop\n      swap10\n      pop\n      swap10\n      pop\n      swap10\n      pop\n      pop\n        /* \"contracts/marketplace.sol\":11563:12127  function getTask(uint256 _taskId) external view returns (... */\n      swap2\n      swap4\n      swap6\n      swap8\n      swap10\n      swap1\n      swap3\n      swap5\n      swap7\n      swap9\n      pop\n      jump\t// out\n        /* \"contracts/marketplace.sol\":4978:6178  function jurorVote(uint256 _taskId, uint256 _tokenAmount, bool supportsSolution) external {... */\n    tag_36:\n        /* \"contracts/marketplace.sol\":5096:5097  0 */\n      0x00\n        /* \"contracts/marketplace.sol\":5086:5093  _taskId */\n      dup4\n        /* \"contracts/marketplace.sol\":5086:5097  _taskId > 0 */\n      gt\n        /* \"contracts/marketplace.sol\":5086:5121  _taskId > 0 && _taskId <= taskCount */\n      dup1\n      iszero\n      tag_108\n      jumpi\n      pop\n        /* \"contracts/marketplace.sol\":5112:5121  taskCount */\n      sload(0x00)\n        /* \"contracts/marketplace.sol\":5101:5108  _taskId */\n      dup4\n        /* \"contracts/marketplace.sol\":5101:5121  _taskId <= taskCount */\n      gt\n      iszero\n        /* \"contracts/marketplace.sol\":5086:5121  _taskId > 0 && _taskId <= taskCount */\n    tag_108:\n        /* \"contracts/marketplace.sol\":5078:5141  require(_taskId > 0 && _taskId <= taskCount, \"Invalid task id\") */\n      tag_109\n      jumpi\n      mload(0x40)\n      0x08c379a000000000000000000000000000000000000000000000000000000000\n      dup2\n      mstore\n      0x04\n      add\n      tag_110\n      swap1\n      tag_86\n      jump\t// in\n    tag_110:\n      mload(0x40)\n      dup1\n      swap2\n      sub\n      swap1\n      revert\n    tag_109:\n        /* \"contracts/marketplace.sol\":5151:5168  Dispute storage d */\n      0x00\n        /* \"contracts/marketplace.sol\":5171:5179  disputes */\n      0x02\n        /* \"contracts/marketplace.sol\":5171:5188  disputes[_taskId] */\n      0x00\n        /* \"contracts/marketplace.sol\":5180:5187  _taskId */\n      dup6\n        /* \"contracts/marketplace.sol\":5171:5188  disputes[_taskId] */\n      dup2\n      mstore\n      0x20\n      add\n      swap1\n      dup2\n      mstore\n      0x20\n      add\n      0x00\n      keccak256\n        /* \"contracts/marketplace.sol\":5151:5188  Dispute storage d = disputes[_taskId] */\n      swap1\n      pop\n        /* \"contracts/marketplace.sol\":5206:5207  d */\n      dup1\n        /* \"contracts/marketplace.sol\":5206:5214  d.exists */\n      0x00\n      add\n      0x00\n      swap1\n      sload\n      swap1\n      0x0100\n      exp\n      swap1\n      div\n      0xff\n      and\n        /* \"contracts/marketplace.sol\":5206:5230  d.exists && !d.finalized */\n      dup1\n      iszero\n      tag_111\n      jumpi\n      pop\n        /* \"contracts/marketplace.sol\":5219:5220  d */\n      dup1\n        /* \"contracts/marketplace.sol\":5219:5230  d.finalized */\n      0x05\n      add\n      0x00\n      swap1\n      sload\n      swap1\n      0x0100\n      exp\n      swap1\n      div\n      0xff\n      and\n        /* \"contracts/marketplace.sol\":5218:5230  !d.finalized */\n      iszero\n        /* \"contracts/marketplace.sol\":5206:5230  d.exists && !d.finalized */\n    tag_111:\n        /* \"contracts/marketplace.sol\":5198:5252  require(d.exists && !d.finalized, \"No active dispute\") */\n      tag_112\n      jumpi\n      mload(0x40)\n      0x08c379a000000000000000000000000000000000000000000000000000000000\n      dup2\n      mstore\n      0x04\n      add\n      tag_113\n      swap1\n      tag_114\n      jump\t// in\n    tag_113:\n      mload(0x40)\n      dup1\n      swap2\n      sub\n      swap1\n      revert\n    tag_112:\n        /* \"contracts/marketplace.sol\":5303:5316  disputePeriod */\n      sload(0x06)\n        /* \"contracts/marketplace.sol\":5289:5290  d */\n      dup2\n        /* \"contracts/marketplace.sol\":5289:5300  d.startTime */\n      0x01\n      add\n      sload\n        /* \"contracts/marketplace.sol\":5289:5316  d.startTime + disputePeriod */\n      tag_115\n      swap2\n      swap1\n      tag_116\n      jump\t// in\n    tag_115:\n        /* \"contracts/marketplace.sol\":5270:5285  block.timestamp */\n      timestamp\n        /* \"contracts/marketplace.sol\":5270:5316  block.timestamp <= d.startTime + disputePeriod */\n      gt\n      iszero\n        /* \"contracts/marketplace.sol\":5262:5340  require(block.timestamp <= d.startTime + disputePeriod, \"Voting period ended\") */\n      tag_117\n      jumpi\n      mload(0x40)\n      0x08c379a000000000000000000000000000000000000000000000000000000000\n      dup2\n      mstore\n      0x04\n      add\n      tag_118\n      swap1\n      tag_119\n      jump\t// in\n    tag_118:\n      mload(0x40)\n      dup1\n      swap2\n      sub\n      swap1\n      revert\n    tag_117:\n        /* \"contracts/marketplace.sol\":5374:5387  minJurorStake */\n      sload(0x05)\n        /* \"contracts/marketplace.sol\":5358:5370  _tokenAmount */\n      dup4\n        /* \"contracts/marketplace.sol\":5358:5387  _tokenAmount >= minJurorStake */\n      lt\n      iszero\n        /* \"contracts/marketplace.sol\":5350:5407  require(_tokenAmount >= minJurorStake, \"Stake too small\") */\n      tag_120\n      jumpi\n      mload(0x40)\n      0x08c379a000000000000000000000000000000000000000000000000000000000\n      dup2\n      mstore\n      0x04\n      add\n      tag_121\n      swap1\n      tag_122\n      jump\t// in\n    tag_121:\n      mload(0x40)\n      dup1\n      swap2\n      sub\n      swap1\n      revert\n    tag_120:\n        /* \"contracts/marketplace.sol\":5453:5454  0 */\n      0x00\n        /* \"contracts/marketplace.sol\":5425:5426  d */\n      dup2\n        /* \"contracts/marketplace.sol\":5425:5437  d.jurorStake */\n      0x07\n      add\n        /* \"contracts/marketplace.sol\":5425:5449  d.jurorStake[msg.sender] */\n      0x00\n        /* \"contracts/marketplace.sol\":5438:5448  msg.sender */\n      caller\n        /* \"contracts/marketplace.sol\":5425:5449  d.jurorStake[msg.sender] */\n      0xffffffffffffffffffffffffffffffffffffffff\n      and\n      0xffffffffffffffffffffffffffffffffffffffff\n      and\n      dup2\n      mstore\n      0x20\n      add\n      swap1\n      dup2\n      mstore\n      0x20\n      add\n      0x00\n      keccak256\n      sload\n        /* \"contracts/marketplace.sol\":5425:5454  d.jurorStake[msg.sender] == 0 */\n      eq\n        /* \"contracts/marketplace.sol\":5417:5477  require(d.jurorStake[msg.sender] == 0, \"Already registered\") */\n      tag_123\n      jumpi\n      mload(0x40)\n      0x08c379a000000000000000000000000000000000000000000000000000000000\n      dup2\n      mstore\n      0x04\n      add\n      tag_124\n      swap1\n      tag_125\n      jump\t// in\n    tag_124:\n      mload(0x40)\n      dup1\n      swap2\n      sub\n      swap1\n      revert\n    tag_123:\n        /* \"contracts/marketplace.sol\":5496:5497  d */\n      dup1\n        /* \"contracts/marketplace.sol\":5496:5503  d.voted */\n      0x06\n      add\n        /* \"contracts/marketplace.sol\":5496:5515  d.voted[msg.sender] */\n      0x00\n        /* \"contracts/marketplace.sol\":5504:5514  msg.sender */\n      caller\n        /* \"contracts/marketplace.sol\":5496:5515  d.voted[msg.sender] */\n      0xffffffffffffffffffffffffffffffffffffffff\n      and\n      0xffffffffffffffffffffffffffffffffffffffff\n      and\n      dup2\n      mstore\n      0x20\n      add\n      swap1\n      dup2\n      mstore\n      0x20\n      add\n      0x00\n      keccak256\n      0x00\n      swap1\n      sload\n      swap1\n      0x0100\n      exp\n      swap1\n      div\n      0xff\n      and\n        /* \"contracts/marketplace.sol\":5495:5515  !d.voted[msg.sender] */\n      iszero\n        /* \"contracts/marketplace.sol\":5487:5533  require(!d.voted[msg.sender], \"Already voted\") */\n      tag_126\n      jumpi\n      mload(0x40)\n      0x08c379a000000000000000000000000000000000000000000000000000000000\n      dup2\n      mstore\n      0x04\n      add\n      tag_127\n      swap1\n      tag_128\n      jump\t// in\n    tag_127:\n      mload(0x40)\n      dup1\n      swap2\n      sub\n      swap1\n      revert\n    tag_126:\n        /* \"contracts/marketplace.sol\":5594:5601  bool ok */\n      0x00\n        /* \"contracts/marketplace.sol\":5604:5619  governanceToken */\n      0x07\n      0x00\n      swap1\n      sload\n      swap1\n      0x0100\n      exp\n      swap1\n      div\n      0xffffffffffffffffffffffffffffffffffffffff\n      and\n        /* \"contracts/marketplace.sol\":5604:5632  governanceToken.transferFrom */\n      0xffffffffffffffffffffffffffffffffffffffff\n      and\n      0x23b872dd\n        /* \"contracts/marketplace.sol\":5633:5643  msg.sender */\n      caller\n        /* \"contracts/marketplace.sol\":5653:5657  this */\n      address\n        /* \"contracts/marketplace.sol\":5660:5672  _tokenAmount */\n      dup8\n        /* \"contracts/marketplace.sol\":5604:5673  governanceToken.transferFrom(msg.sender, address(this), _tokenAmount) */\n      mload(0x40)\n      dup5\n      0xffffffff\n      and\n      0xe0\n      shl\n      dup2\n      mstore\n      0x04\n      add\n      tag_129\n      swap4\n      swap3\n      swap2\n      swap1\n      tag_130\n      jump\t// in\n    tag_129:\n      0x20\n      mload(0x40)\n      dup1\n      dup4\n      sub\n      dup2\n      0x00\n      dup8\n      gas\n      call\n      iszero\n      dup1\n      iszero\n      tag_132\n      jumpi\n      returndatacopy(0x00, 0x00, returndatasize)\n      revert(0x00, returndatasize)\n    tag_132:\n      pop\n      pop\n      pop\n      pop\n      mload(0x40)\n      returndatasize\n      not(0x1f)\n      0x1f\n      dup3\n      add\n      and\n      dup3\n      add\n      dup1\n      0x40\n      mstore\n      pop\n      dup2\n      add\n      swap1\n      tag_133\n      swap2\n      swap1\n      tag_134\n      jump\t// in\n    tag_133:\n        /* \"contracts/marketplace.sol\":5594:5673  bool ok = governanceToken.transferFrom(msg.sender, address(this), _tokenAmount) */\n      swap1\n      pop\n        /* \"contracts/marketplace.sol\":5691:5693  ok */\n      dup1\n        /* \"contracts/marketplace.sol\":5683:5719  require(ok, \"Token transfer failed\") */\n      tag_135\n      jumpi\n      mload(0x40)\n      0x08c379a000000000000000000000000000000000000000000000000000000000\n      dup2\n      mstore\n      0x04\n      add\n      tag_136\n      swap1\n      tag_137\n      jump\t// in\n    tag_136:\n      mload(0x40)\n      dup1\n      swap2\n      sub\n      swap1\n      revert\n    tag_135:\n        /* \"contracts/marketplace.sol\":5761:5777  supportsSolution */\n      dup3\n        /* \"contracts/marketplace.sol\":5738:5739  d */\n      dup3\n        /* \"contracts/marketplace.sol\":5738:5746  d.choice */\n      0x08\n      add\n        /* \"contracts/marketplace.sol\":5738:5758  d.choice[msg.sender] */\n      0x00\n        /* \"contracts/marketplace.sol\":5747:5757  msg.sender */\n      caller\n        /* \"contracts/marketplace.sol\":5738:5758  d.choice[msg.sender] */\n      0xffffffffffffffffffffffffffffffffffffffff\n      and\n      0xffffffffffffffffffffffffffffffffffffffff\n      and\n      dup2\n      mstore\n      0x20\n      add\n      swap1\n      dup2\n      mstore\n      0x20\n      add\n      0x00\n      keccak256\n      0x00\n        /* \"contracts/marketplace.sol\":5738:5777  d.choice[msg.sender] = supportsSolution */\n      0x0100\n      exp\n      dup2\n      sload\n      dup2\n      0xff\n      mul\n      not\n      and\n      swap1\n      dup4\n      iszero\n      iszero\n      mul\n      or\n      swap1\n      sstore\n      pop\n        /* \"contracts/marketplace.sol\":5814:5826  _tokenAmount */\n      dup4\n        /* \"contracts/marketplace.sol\":5787:5788  d */\n      dup3\n        /* \"contracts/marketplace.sol\":5787:5799  d.jurorStake */\n      0x07\n      add\n        /* \"contracts/marketplace.sol\":5787:5811  d.jurorStake[msg.sender] */\n      0x00\n        /* \"contracts/marketplace.sol\":5800:5810  msg.sender */\n      caller\n        /* \"contracts/marketplace.sol\":5787:5811  d.jurorStake[msg.sender] */\n      0xffffffffffffffffffffffffffffffffffffffff\n      and\n      0xffffffffffffffffffffffffffffffffffffffff\n      and\n      dup2\n      mstore\n      0x20\n      add\n      swap1\n      dup2\n      mstore\n      0x20\n      add\n      0x00\n      keccak256\n        /* \"contracts/marketplace.sol\":5787:5826  d.jurorStake[msg.sender] = _tokenAmount */\n      dup2\n      swap1\n      sstore\n      pop\n        /* \"contracts/marketplace.sol\":5858:5870  _tokenAmount */\n      dup4\n        /* \"contracts/marketplace.sol\":5836:5837  d */\n      dup3\n        /* \"contracts/marketplace.sol\":5836:5854  d.totalJurorWeight */\n      0x04\n      add\n      0x00\n        /* \"contracts/marketplace.sol\":5836:5870  d.totalJurorWeight += _tokenAmount */\n      dup3\n      dup3\n      sload\n      tag_138\n      swap2\n      swap1\n      tag_116\n      jump\t// in\n    tag_138:\n      swap3\n      pop\n      pop\n      dup2\n      swap1\n      sstore\n      pop\n        /* \"contracts/marketplace.sol\":5880:5881  d */\n      dup2\n        /* \"contracts/marketplace.sol\":5880:5888  d.jurors */\n      0x09\n      add\n        /* \"contracts/marketplace.sol\":5894:5904  msg.sender */\n      caller\n        /* \"contracts/marketplace.sol\":5880:5905  d.jurors.push(msg.sender) */\n      swap1\n      dup1\n      0x01\n      dup2\n      sload\n      add\n      dup1\n      dup3\n      sstore\n      dup1\n      swap2\n      pop\n      pop\n      0x01\n      swap1\n      sub\n      swap1\n      0x00\n      mstore\n      keccak256(0x00, 0x20)\n      add\n      0x00\n      swap1\n      swap2\n      swap1\n      swap2\n      swap1\n      swap2\n      0x0100\n      exp\n      dup2\n      sload\n      dup2\n      0xffffffffffffffffffffffffffffffffffffffff\n      mul\n      not\n      and\n      swap1\n      dup4\n      0xffffffffffffffffffffffffffffffffffffffff\n      and\n      mul\n      or\n      swap1\n      sstore\n      pop\n        /* \"contracts/marketplace.sol\":5937:5941  true */\n      0x01\n        /* \"contracts/marketplace.sol\":5915:5916  d */\n      dup3\n        /* \"contracts/marketplace.sol\":5915:5922  d.voted */\n      0x06\n      add\n        /* \"contracts/marketplace.sol\":5915:5934  d.voted[msg.sender] */\n      0x00\n        /* \"contracts/marketplace.sol\":5923:5933  msg.sender */\n      caller\n        /* \"contracts/marketplace.sol\":5915:5934  d.voted[msg.sender] */\n      0xffffffffffffffffffffffffffffffffffffffff\n      and\n      0xffffffffffffffffffffffffffffffffffffffff\n      and\n      dup2\n      mstore\n      0x20\n      add\n      swap1\n      dup2\n      mstore\n      0x20\n      add\n      0x00\n      keccak256\n      0x00\n        /* \"contracts/marketplace.sol\":5915:5941  d.voted[msg.sender] = true */\n      0x0100\n      exp\n      dup2\n      sload\n      dup2\n      0xff\n      mul\n      not\n      and\n      swap1\n      dup4\n      iszero\n      iszero\n      mul\n      or\n      swap1\n      sstore\n      pop\n        /* \"contracts/marketplace.sol\":5956:5972  supportsSolution */\n      dup3\n        /* \"contracts/marketplace.sol\":5952:6093  if (supportsSolution) {... */\n      iszero\n      tag_140\n      jumpi\n        /* \"contracts/marketplace.sol\":6008:6020  _tokenAmount */\n      dup4\n        /* \"contracts/marketplace.sol\":5988:5989  d */\n      dup3\n        /* \"contracts/marketplace.sol\":5988:6004  d.totalYesWeight */\n      0x02\n      add\n      0x00\n        /* \"contracts/marketplace.sol\":5988:6020  d.totalYesWeight += _tokenAmount */\n      dup3\n      dup3\n      sload\n      tag_141\n      swap2\n      swap1\n      tag_116\n      jump\t// in\n    tag_141:\n      swap3\n      pop\n      pop\n      dup2\n      swap1\n      sstore\n      pop\n        /* \"contracts/marketplace.sol\":5952:6093  if (supportsSolution) {... */\n      jump(tag_142)\n    tag_140:\n        /* \"contracts/marketplace.sol\":6070:6082  _tokenAmount */\n      dup4\n        /* \"contracts/marketplace.sol\":6051:6052  d */\n      dup3\n        /* \"contracts/marketplace.sol\":6051:6066  d.totalNoWeight */\n      0x03\n      add\n      0x00\n        /* \"contracts/marketplace.sol\":6051:6082  d.totalNoWeight += _tokenAmount */\n      dup3\n      dup3\n      sload\n      tag_143\n      swap2\n      swap1\n      tag_116\n      jump\t// in\n    tag_143:\n      swap3\n      pop\n      pop\n      dup2\n      swap1\n      sstore\n      pop\n        /* \"contracts/marketplace.sol\":5952:6093  if (supportsSolution) {... */\n    tag_142:\n        /* \"contracts/marketplace.sol\":6108:6171  JurorVoted(_taskId, msg.sender, supportsSolution, _tokenAmount) */\n      0x804cb3f45e5253ac34847987d4d9ae8cfa21a176f777acb99b5988a4e01f8cfd\n        /* \"contracts/marketplace.sol\":6119:6126  _taskId */\n      dup6\n        /* \"contracts/marketplace.sol\":6128:6138  msg.sender */\n      caller\n        /* \"contracts/marketplace.sol\":6140:6156  supportsSolution */\n      dup6\n        /* \"contracts/marketplace.sol\":6158:6170  _tokenAmount */\n      dup8\n        /* \"contracts/marketplace.sol\":6108:6171  JurorVoted(_taskId, msg.sender, supportsSolution, _tokenAmount) */\n      mload(0x40)\n      tag_144\n      swap5\n      swap4\n      swap3\n      swap2\n      swap1\n      tag_145\n      jump\t// in\n    tag_144:\n      mload(0x40)\n      dup1\n      swap2\n      sub\n      swap1\n      log1\n        /* \"contracts/marketplace.sol\":5068:6178  {... */\n      pop\n      pop\n        /* \"contracts/marketplace.sol\":4978:6178  function jurorVote(uint256 _taskId, uint256 _tokenAmount, bool supportsSolution) external {... */\n      pop\n      pop\n      pop\n      jump\t// out\n        /* \"contracts/marketplace.sol\":1505:1539  uint256 public minJurorStake = 100 */\n    tag_39:\n      sload(0x05)\n      dup2\n      jump\t// out\n        /* \"contracts/marketplace.sol\":4105:4971  function createDispute(uint256 _taskId) external payable {... */\n    tag_43:\n        /* \"contracts/marketplace.sol\":4190:4191  0 */\n      0x00\n        /* \"contracts/marketplace.sol\":4180:4187  _taskId */\n      dup2\n        /* \"contracts/marketplace.sol\":4180:4191  _taskId > 0 */\n      gt\n        /* \"contracts/marketplace.sol\":4180:4215  _taskId > 0 && _taskId <= taskCount */\n      dup1\n      iszero\n      tag_147\n      jumpi\n      pop\n        /* \"contracts/marketplace.sol\":4206:4215  taskCount */\n      sload(0x00)\n        /* \"contracts/marketplace.sol\":4195:4202  _taskId */\n      dup2\n        /* \"contracts/marketplace.sol\":4195:4215  _taskId <= taskCount */\n      gt\n      iszero\n        /* \"contracts/marketplace.sol\":4180:4215  _taskId > 0 && _taskId <= taskCount */\n    tag_147:\n        /* \"contracts/marketplace.sol\":4172:4235  require(_taskId > 0 && _taskId <= taskCount, \"Invalid task id\") */\n      tag_148\n      jumpi\n      mload(0x40)\n      0x08c379a000000000000000000000000000000000000000000000000000000000\n      dup2\n      mstore\n      0x04\n      add\n      tag_149\n      swap1\n      tag_86\n      jump\t// in\n    tag_149:\n      mload(0x40)\n      dup1\n      swap2\n      sub\n      swap1\n      revert\n    tag_148:\n        /* \"contracts/marketplace.sol\":4245:4259  Task storage t */\n      0x00\n        /* \"contracts/marketplace.sol\":4262:4267  tasks */\n      0x01\n        /* \"contracts/marketplace.sol\":4262:4276  tasks[_taskId] */\n      0x00\n        /* \"contracts/marketplace.sol\":4268:4275  _taskId */\n      dup4\n        /* \"contracts/marketplace.sol\":4262:4276  tasks[_taskId] */\n      dup2\n      mstore\n      0x20\n      add\n      swap1\n      dup2\n      mstore\n      0x20\n      add\n      0x00\n      keccak256\n        /* \"contracts/marketplace.sol\":4245:4276  Task storage t = tasks[_taskId] */\n      swap1\n      pop\n        /* \"contracts/marketplace.sol\":4307:4326  TaskStatus.Verified */\n      0x02\n        /* \"contracts/marketplace.sol\":4295:4326  t.status == TaskStatus.Verified */\n      0x05\n      dup2\n      gt\n      iszero\n      tag_150\n      jumpi\n      tag_151\n      tag_152\n      jump\t// in\n    tag_151:\n    tag_150:\n        /* \"contracts/marketplace.sol\":4295:4296  t */\n      dup2\n        /* \"contracts/marketplace.sol\":4295:4303  t.status */\n      0x08\n      add\n      0x00\n      swap1\n      sload\n      swap1\n      0x0100\n      exp\n      swap1\n      div\n      0xff\n      and\n        /* \"contracts/marketplace.sol\":4295:4326  t.status == TaskStatus.Verified */\n      0x05\n      dup2\n      gt\n      iszero\n      tag_153\n      jumpi\n      tag_154\n      tag_152\n      jump\t// in\n    tag_154:\n    tag_153:\n      eq\n        /* \"contracts/marketplace.sol\":4287:4355  require(t.status == TaskStatus.Verified, \"Task not in review (yet)\") */\n      tag_155\n      jumpi\n      mload(0x40)\n      0x08c379a000000000000000000000000000000000000000000000000000000000\n      dup2\n      mstore\n      0x04\n      add\n      tag_156\n      swap1\n      tag_157\n      jump\t// in\n    tag_156:\n      mload(0x40)\n      dup1\n      swap2\n      sub\n      swap1\n      revert\n    tag_155:\n        /* \"contracts/marketplace.sol\":4391:4392  t */\n      dup1\n        /* \"contracts/marketplace.sol\":4391:4401  t.deadline */\n      0x07\n      add\n      sload\n        /* \"contracts/marketplace.sol\":4373:4388  block.timestamp */\n      timestamp\n        /* \"contracts/marketplace.sol\":4373:4401  block.timestamp < t.deadline */\n      lt\n        /* \"contracts/marketplace.sol\":4365:4421  require(block.timestamp < t.deadline, \"Deadline passed\") */\n      tag_158\n      jumpi\n      mload(0x40)\n      0x08c379a000000000000000000000000000000000000000000000000000000000\n      dup2\n      mstore\n      0x04\n      add\n      tag_159\n      swap1\n      tag_160\n      jump\t// in\n    tag_159:\n      mload(0x40)\n      dup1\n      swap2\n      sub\n      swap1\n      revert\n    tag_158:\n        /* \"contracts/marketplace.sol\":4452:4462  verifyCost */\n      sload(0x04)\n        /* \"contracts/marketplace.sol\":4439:4448  msg.value */\n      callvalue\n        /* \"contracts/marketplace.sol\":4439:4462  msg.value == verifyCost */\n      eq\n        /* \"contracts/marketplace.sol\":4431:4492  require(msg.value == verifyCost, \"Incorrect dispute deposit\") */\n      tag_161\n      jumpi\n      mload(0x40)\n      0x08c379a000000000000000000000000000000000000000000000000000000000\n      dup2\n      mstore\n      0x04\n      add\n      tag_162\n      swap1\n      tag_163\n      jump\t// in\n    tag_162:\n      mload(0x40)\n      dup1\n      swap2\n      sub\n      swap1\n      revert\n    tag_161:\n        /* \"contracts/marketplace.sol\":4511:4519  disputes */\n      0x02\n        /* \"contracts/marketplace.sol\":4511:4528  disputes[_taskId] */\n      0x00\n        /* \"contracts/marketplace.sol\":4520:4527  _taskId */\n      dup4\n        /* \"contracts/marketplace.sol\":4511:4528  disputes[_taskId] */\n      dup2\n      mstore\n      0x20\n      add\n      swap1\n      dup2\n      mstore\n      0x20\n      add\n      0x00\n      keccak256\n        /* \"contracts/marketplace.sol\":4511:4535  disputes[_taskId].exists */\n      0x00\n      add\n      0x00\n      swap1\n      sload\n      swap1\n      0x0100\n      exp\n      swap1\n      div\n      0xff\n      and\n        /* \"contracts/marketplace.sol\":4510:4535  !disputes[_taskId].exists */\n      iszero\n        /* \"contracts/marketplace.sol\":4510:4566  !disputes[_taskId].exists || disputes[_taskId].finalized */\n      dup1\n      tag_164\n      jumpi\n      pop\n        /* \"contracts/marketplace.sol\":4539:4547  disputes */\n      0x02\n        /* \"contracts/marketplace.sol\":4539:4556  disputes[_taskId] */\n      0x00\n        /* \"contracts/marketplace.sol\":4548:4555  _taskId */\n      dup4\n        /* \"contracts/marketplace.sol\":4539:4556  disputes[_taskId] */\n      dup2\n      mstore\n      0x20\n      add\n      swap1\n      dup2\n      mstore\n      0x20\n      add\n      0x00\n      keccak256\n        /* \"contracts/marketplace.sol\":4539:4566  disputes[_taskId].finalized */\n      0x05\n      add\n      0x00\n      swap1\n      sload\n      swap1\n      0x0100\n      exp\n      swap1\n      div\n      0xff\n      and\n        /* \"contracts/marketplace.sol\":4510:4566  !disputes[_taskId].exists || disputes[_taskId].finalized */\n    tag_164:\n        /* \"contracts/marketplace.sol\":4502:4594  require(!disputes[_taskId].exists || disputes[_taskId].finalized, \"Existing dispute active\") */\n      tag_165\n      jumpi\n      mload(0x40)\n      0x08c379a000000000000000000000000000000000000000000000000000000000\n      dup2\n      mstore\n      0x04\n      add\n      tag_166\n      swap1\n      tag_167\n      jump\t// in\n    tag_166:\n      mload(0x40)\n      dup1\n      swap2\n      sub\n      swap1\n      revert\n    tag_165:\n        /* \"contracts/marketplace.sol\":4646:4665  TaskStatus.Disputed */\n      0x03\n        /* \"contracts/marketplace.sol\":4635:4636  t */\n      dup2\n        /* \"contracts/marketplace.sol\":4635:4643  t.status */\n      0x08\n      add\n      0x00\n        /* \"contracts/marketplace.sol\":4635:4665  t.status = TaskStatus.Disputed */\n      0x0100\n      exp\n      dup2\n      sload\n      dup2\n      0xff\n      mul\n      not\n      and\n      swap1\n      dup4\n      0x05\n      dup2\n      gt\n      iszero\n      tag_168\n      jumpi\n      tag_169\n      tag_152\n      jump\t// in\n    tag_169:\n    tag_168:\n      mul\n      or\n      swap1\n      sstore\n      pop\n        /* \"contracts/marketplace.sol\":4675:4692  Dispute storage d */\n      0x00\n        /* \"contracts/marketplace.sol\":4695:4703  disputes */\n      0x02\n        /* \"contracts/marketplace.sol\":4695:4712  disputes[_taskId] */\n      0x00\n        /* \"contracts/marketplace.sol\":4704:4711  _taskId */\n      dup5\n        /* \"contracts/marketplace.sol\":4695:4712  disputes[_taskId] */\n      dup2\n      mstore\n      0x20\n      add\n      swap1\n      dup2\n      mstore\n      0x20\n      add\n      0x00\n      keccak256\n        /* \"contracts/marketplace.sol\":4675:4712  Dispute storage d = disputes[_taskId] */\n      swap1\n      pop\n        /* \"contracts/marketplace.sol\":4733:4737  true */\n      0x01\n        /* \"contracts/marketplace.sol\":4722:4723  d */\n      dup2\n        /* \"contracts/marketplace.sol\":4722:4730  d.exists */\n      0x00\n      add\n      0x00\n        /* \"contracts/marketplace.sol\":4722:4737  d.exists = true */\n      0x0100\n      exp\n      dup2\n      sload\n      dup2\n      0xff\n      mul\n      not\n      and\n      swap1\n      dup4\n      iszero\n      iszero\n      mul\n      or\n      swap1\n      sstore\n      pop\n        /* \"contracts/marketplace.sol\":4760:4770  msg.sender */\n      caller\n        /* \"contracts/marketplace.sol\":4747:4748  d */\n      dup2\n        /* \"contracts/marketplace.sol\":4747:4757  d.objector */\n      0x00\n      add\n      0x01\n        /* \"contracts/marketplace.sol\":4747:4770  d.objector = msg.sender */\n      0x0100\n      exp\n      dup2\n      sload\n      dup2\n      0xffffffffffffffffffffffffffffffffffffffff\n      mul\n      not\n      and\n      swap1\n      dup4\n      0xffffffffffffffffffffffffffffffffffffffff\n      and\n      mul\n      or\n      swap1\n      sstore\n      pop\n        /* \"contracts/marketplace.sol\":4794:4809  block.timestamp */\n      timestamp\n        /* \"contracts/marketplace.sol\":4780:4781  d */\n      dup2\n        /* \"contracts/marketplace.sol\":4780:4791  d.startTime */\n      0x01\n      add\n        /* \"contracts/marketplace.sol\":4780:4809  d.startTime = block.timestamp */\n      dup2\n      swap1\n      sstore\n      pop\n        /* \"contracts/marketplace.sol\":4833:4838  false */\n      0x00\n        /* \"contracts/marketplace.sol\":4819:4820  d */\n      dup2\n        /* \"contracts/marketplace.sol\":4819:4830  d.finalized */\n      0x05\n      add\n      0x00\n        /* \"contracts/marketplace.sol\":4819:4838  d.finalized = false */\n      0x0100\n      exp\n      dup2\n      sload\n      dup2\n      0xff\n      mul\n      not\n      and\n      swap1\n      dup4\n      iszero\n      iszero\n      mul\n      or\n      swap1\n      sstore\n      pop\n        /* \"contracts/marketplace.sol\":4905:4964  DisputeCreated(_taskId, msg.sender, msg.value, d.startTime) */\n      0x1d2f4ade11fcea3a321eb215e6561c2f95d30d0f1bcf7ad3d715932b61d0da9a\n        /* \"contracts/marketplace.sol\":4920:4927  _taskId */\n      dup4\n        /* \"contracts/marketplace.sol\":4929:4939  msg.sender */\n      caller\n        /* \"contracts/marketplace.sol\":4941:4950  msg.value */\n      callvalue\n        /* \"contracts/marketplace.sol\":4952:4953  d */\n      dup5\n        /* \"contracts/marketplace.sol\":4952:4963  d.startTime */\n      0x01\n      add\n      sload\n        /* \"contracts/marketplace.sol\":4905:4964  DisputeCreated(_taskId, msg.sender, msg.value, d.startTime) */\n      mload(0x40)\n      tag_170\n      swap5\n      swap4\n      swap3\n      swap2\n      swap1\n      tag_171\n      jump\t// in\n    tag_170:\n      mload(0x40)\n      dup1\n      swap2\n      sub\n      swap1\n      log1\n        /* \"contracts/marketplace.sol\":4162:4971  {... */\n      pop\n      pop\n        /* \"contracts/marketplace.sol\":4105:4971  function createDispute(uint256 _taskId) external payable {... */\n      pop\n      jump\t// out\n        /* \"contracts/marketplace.sol\":6184:8097  function finalizeDispute(uint256 _taskId) external {... */\n    tag_47:\n        /* \"contracts/marketplace.sol\":6263:6264  0 */\n      0x00\n        /* \"contracts/marketplace.sol\":6253:6260  _taskId */\n      dup2\n        /* \"contracts/marketplace.sol\":6253:6264  _taskId > 0 */\n      gt\n        /* \"contracts/marketplace.sol\":6253:6288  _taskId > 0 && _taskId <= taskCount */\n      dup1\n      iszero\n      tag_173\n      jumpi\n      pop\n        /* \"contracts/marketplace.sol\":6279:6288  taskCount */\n      sload(0x00)\n        /* \"contracts/marketplace.sol\":6268:6275  _taskId */\n      dup2\n        /* \"contracts/marketplace.sol\":6268:6288  _taskId <= taskCount */\n      gt\n      iszero\n        /* \"contracts/marketplace.sol\":6253:6288  _taskId > 0 && _taskId <= taskCount */\n    tag_173:\n        /* \"contracts/marketplace.sol\":6245:6308  require(_taskId > 0 && _taskId <= taskCount, \"Invalid task id\") */\n      tag_174\n      jumpi\n      mload(0x40)\n      0x08c379a000000000000000000000000000000000000000000000000000000000\n      dup2\n      mstore\n      0x04\n      add\n      tag_175\n      swap1\n      tag_86\n      jump\t// in\n    tag_175:\n      mload(0x40)\n      dup1\n      swap2\n      sub\n      swap1\n      revert\n    tag_174:\n        /* \"contracts/marketplace.sol\":6318:6335  Dispute storage d */\n      0x00\n        /* \"contracts/marketplace.sol\":6338:6346  disputes */\n      0x02\n        /* \"contracts/marketplace.sol\":6338:6355  disputes[_taskId] */\n      0x00\n        /* \"contracts/marketplace.sol\":6347:6354  _taskId */\n      dup4\n        /* \"contracts/marketplace.sol\":6338:6355  disputes[_taskId] */\n      dup2\n      mstore\n      0x20\n      add\n      swap1\n      dup2\n      mstore\n      0x20\n      add\n      0x00\n      keccak256\n        /* \"contracts/marketplace.sol\":6318:6355  Dispute storage d = disputes[_taskId] */\n      swap1\n      pop\n        /* \"contracts/marketplace.sol\":6365:6379  Task storage t */\n      0x00\n        /* \"contracts/marketplace.sol\":6382:6387  tasks */\n      0x01\n        /* \"contracts/marketplace.sol\":6382:6396  tasks[_taskId] */\n      0x00\n        /* \"contracts/marketplace.sol\":6388:6395  _taskId */\n      dup5\n        /* \"contracts/marketplace.sol\":6382:6396  tasks[_taskId] */\n      dup2\n      mstore\n      0x20\n      add\n      swap1\n      dup2\n      mstore\n      0x20\n      add\n      0x00\n      keccak256\n        /* \"contracts/marketplace.sol\":6365:6396  Task storage t = tasks[_taskId] */\n      swap1\n      pop\n        /* \"contracts/marketplace.sol\":6415:6416  d */\n      dup2\n        /* \"contracts/marketplace.sol\":6415:6423  d.exists */\n      0x00\n      add\n      0x00\n      swap1\n      sload\n      swap1\n      0x0100\n      exp\n      swap1\n      div\n      0xff\n      and\n        /* \"contracts/marketplace.sol\":6407:6438  require(d.exists, \"No dispute\") */\n      tag_176\n      jumpi\n      mload(0x40)\n      0x08c379a000000000000000000000000000000000000000000000000000000000\n      dup2\n      mstore\n      0x04\n      add\n      tag_177\n      swap1\n      tag_178\n      jump\t// in\n    tag_177:\n      mload(0x40)\n      dup1\n      swap2\n      sub\n      swap1\n      revert\n    tag_176:\n        /* \"contracts/marketplace.sol\":6457:6458  d */\n      dup2\n        /* \"contracts/marketplace.sol\":6457:6468  d.finalized */\n      0x05\n      add\n      0x00\n      swap1\n      sload\n      swap1\n      0x0100\n      exp\n      swap1\n      div\n      0xff\n      and\n        /* \"contracts/marketplace.sol\":6456:6468  !d.finalized */\n      iszero\n        /* \"contracts/marketplace.sol\":6448:6490  require(!d.finalized, \"Already finalized\") */\n      tag_179\n      jumpi\n      mload(0x40)\n      0x08c379a000000000000000000000000000000000000000000000000000000000\n      dup2\n      mstore\n      0x04\n      add\n      tag_180\n      swap1\n      tag_181\n      jump\t// in\n    tag_180:\n      mload(0x40)\n      dup1\n      swap2\n      sub\n      swap1\n      revert\n    tag_179:\n        /* \"contracts/marketplace.sol\":6540:6553  disputePeriod */\n      sload(0x06)\n        /* \"contracts/marketplace.sol\":6526:6527  d */\n      dup3\n        /* \"contracts/marketplace.sol\":6526:6537  d.startTime */\n      0x01\n      add\n      sload\n        /* \"contracts/marketplace.sol\":6526:6553  d.startTime + disputePeriod */\n      tag_182\n      swap2\n      swap1\n      tag_116\n      jump\t// in\n    tag_182:\n        /* \"contracts/marketplace.sol\":6508:6523  block.timestamp */\n      timestamp\n        /* \"contracts/marketplace.sol\":6508:6553  block.timestamp > d.startTime + disputePeriod */\n      gt\n        /* \"contracts/marketplace.sol\":6500:6582  require(block.timestamp > d.startTime + disputePeriod, \"Voting window still open\") */\n      tag_183\n      jumpi\n      mload(0x40)\n      0x08c379a000000000000000000000000000000000000000000000000000000000\n      dup2\n      mstore\n      0x04\n      add\n      tag_184\n      swap1\n      tag_185\n      jump\t// in\n    tag_184:\n      mload(0x40)\n      dup1\n      swap2\n      sub\n      swap1\n      revert\n    tag_183:\n        /* \"contracts/marketplace.sol\":6607:6611  true */\n      0x01\n        /* \"contracts/marketplace.sol\":6593:6594  d */\n      dup3\n        /* \"contracts/marketplace.sol\":6593:6604  d.finalized */\n      0x05\n      add\n      0x00\n        /* \"contracts/marketplace.sol\":6593:6611  d.finalized = true */\n      0x0100\n      exp\n      dup2\n      sload\n      dup2\n      0xff\n      mul\n      not\n      and\n      swap1\n      dup4\n      iszero\n      iszero\n      mul\n      or\n      swap1\n      sstore\n      pop\n        /* \"contracts/marketplace.sol\":6622:6633  uint256 yes */\n      0x00\n        /* \"contracts/marketplace.sol\":6636:6637  d */\n      dup3\n        /* \"contracts/marketplace.sol\":6636:6652  d.totalYesWeight */\n      0x02\n      add\n      sload\n        /* \"contracts/marketplace.sol\":6622:6652  uint256 yes = d.totalYesWeight */\n      swap1\n      pop\n        /* \"contracts/marketplace.sol\":6662:6672  uint256 no */\n      0x00\n        /* \"contracts/marketplace.sol\":6675:6676  d */\n      dup4\n        /* \"contracts/marketplace.sol\":6675:6690  d.totalNoWeight */\n      0x03\n      add\n      sload\n        /* \"contracts/marketplace.sol\":6662:6690  uint256 no = d.totalNoWeight */\n      swap1\n      pop\n        /* \"contracts/marketplace.sol\":6713:6715  no */\n      dup1\n        /* \"contracts/marketplace.sol\":6706:6709  yes */\n      dup3\n        /* \"contracts/marketplace.sol\":6706:6715  yes >= no */\n      lt\n        /* \"contracts/marketplace.sol\":6702:6878  if (yes >= no) {... */\n      tag_186\n      jumpi\n        /* \"contracts/marketplace.sol\":6731:6764  _distributeRewards(_taskId, true) */\n      tag_187\n        /* \"contracts/marketplace.sol\":6750:6757  _taskId */\n      dup6\n        /* \"contracts/marketplace.sol\":6759:6763  true */\n      0x01\n        /* \"contracts/marketplace.sol\":6731:6749  _distributeRewards */\n      tag_188\n        /* \"contracts/marketplace.sol\":6731:6764  _distributeRewards(_taskId, true) */\n      jump\t// in\n    tag_187:\n        /* \"contracts/marketplace.sol\":6778:6802  _payoutAccepted(_taskId) */\n      tag_189\n        /* \"contracts/marketplace.sol\":6794:6801  _taskId */\n      dup6\n        /* \"contracts/marketplace.sol\":6778:6793  _payoutAccepted */\n      tag_190\n        /* \"contracts/marketplace.sol\":6778:6802  _payoutAccepted(_taskId) */\n      jump\t// in\n    tag_189:\n        /* \"contracts/marketplace.sol\":6702:6878  if (yes >= no) {... */\n      jump(tag_191)\n    tag_186:\n        /* \"contracts/marketplace.sol\":6833:6867  _distributeRewards(_taskId, false) */\n      tag_192\n        /* \"contracts/marketplace.sol\":6852:6859  _taskId */\n      dup6\n        /* \"contracts/marketplace.sol\":6861:6866  false */\n      0x00\n        /* \"contracts/marketplace.sol\":6833:6851  _distributeRewards */\n      tag_188\n        /* \"contracts/marketplace.sol\":6833:6867  _distributeRewards(_taskId, false) */\n      jump\t// in\n    tag_192:\n        /* \"contracts/marketplace.sol\":6702:6878  if (yes >= no) {... */\n    tag_191:\n        /* \"contracts/marketplace.sol\":6934:6943  uint256 i */\n      0x00\n        /* \"contracts/marketplace.sol\":6946:6947  0 */\n      0x00\n        /* \"contracts/marketplace.sol\":6934:6947  uint256 i = 0 */\n      swap1\n      pop\n        /* \"contracts/marketplace.sol\":6929:7199  for (uint256 i = 0; i < d.jurors.length; i++) {... */\n    tag_193:\n        /* \"contracts/marketplace.sol\":6953:6954  d */\n      dup5\n        /* \"contracts/marketplace.sol\":6953:6961  d.jurors */\n      0x09\n      add\n        /* \"contracts/marketplace.sol\":6953:6968  d.jurors.length */\n      dup1\n      sload\n      swap1\n      pop\n        /* \"contracts/marketplace.sol\":6949:6950  i */\n      dup2\n        /* \"contracts/marketplace.sol\":6949:6968  i < d.jurors.length */\n      lt\n        /* \"contracts/marketplace.sol\":6929:7199  for (uint256 i = 0; i < d.jurors.length; i++) {... */\n      iszero\n      tag_194\n      jumpi\n        /* \"contracts/marketplace.sol\":6989:7000  address jur */\n      0x00\n        /* \"contracts/marketplace.sol\":7003:7004  d */\n      dup6\n        /* \"contracts/marketplace.sol\":7003:7011  d.jurors */\n      0x09\n      add\n        /* \"contracts/marketplace.sol\":7012:7013  i */\n      dup3\n        /* \"contracts/marketplace.sol\":7003:7014  d.jurors[i] */\n      dup2\n      sload\n      dup2\n      lt\n      tag_196\n      jumpi\n      tag_197\n      tag_198\n      jump\t// in\n    tag_197:\n    tag_196:\n      swap1\n      0x00\n      mstore\n      keccak256(0x00, 0x20)\n      add\n      0x00\n      swap1\n      sload\n      swap1\n      0x0100\n      exp\n      swap1\n      div\n      0xffffffffffffffffffffffffffffffffffffffff\n      and\n        /* \"contracts/marketplace.sol\":6989:7014  address jur = d.jurors[i] */\n      swap1\n      pop\n        /* \"contracts/marketplace.sol\":7028:7038  uint256 st */\n      0x00\n        /* \"contracts/marketplace.sol\":7041:7042  d */\n      dup7\n        /* \"contracts/marketplace.sol\":7041:7053  d.jurorStake */\n      0x07\n      add\n        /* \"contracts/marketplace.sol\":7041:7058  d.jurorStake[jur] */\n      0x00\n        /* \"contracts/marketplace.sol\":7054:7057  jur */\n      dup4\n        /* \"contracts/marketplace.sol\":7041:7058  d.jurorStake[jur] */\n      0xffffffffffffffffffffffffffffffffffffffff\n      and\n      0xffffffffffffffffffffffffffffffffffffffff\n      and\n      dup2\n      mstore\n      0x20\n      add\n      swap1\n      dup2\n      mstore\n      0x20\n      add\n      0x00\n      keccak256\n      sload\n        /* \"contracts/marketplace.sol\":7028:7058  uint256 st = d.jurorStake[jur] */\n      swap1\n      pop\n        /* \"contracts/marketplace.sol\":7081:7082  0 */\n      0x00\n        /* \"contracts/marketplace.sol\":7076:7078  st */\n      dup2\n        /* \"contracts/marketplace.sol\":7076:7082  st > 0 */\n      gt\n        /* \"contracts/marketplace.sol\":7072:7189  if (st > 0) {... */\n      iszero\n      tag_200\n      jumpi\n        /* \"contracts/marketplace.sol\":7122:7123  0 */\n      0x00\n        /* \"contracts/marketplace.sol\":7102:7103  d */\n      dup8\n        /* \"contracts/marketplace.sol\":7102:7114  d.jurorStake */\n      0x07\n      add\n        /* \"contracts/marketplace.sol\":7102:7119  d.jurorStake[jur] */\n      0x00\n        /* \"contracts/marketplace.sol\":7115:7118  jur */\n      dup5\n        /* \"contracts/marketplace.sol\":7102:7119  d.jurorStake[jur] */\n      0xffffffffffffffffffffffffffffffffffffffff\n      and\n      0xffffffffffffffffffffffffffffffffffffffff\n      and\n      dup2\n      mstore\n      0x20\n      add\n      swap1\n      dup2\n      mstore\n      0x20\n      add\n      0x00\n      keccak256\n        /* \"contracts/marketplace.sol\":7102:7123  d.jurorStake[jur] = 0 */\n      dup2\n      swap1\n      sstore\n      pop\n        /* \"contracts/marketplace.sol\":7141:7156  governanceToken */\n      0x07\n      0x00\n      swap1\n      sload\n      swap1\n      0x0100\n      exp\n      swap1\n      div\n      0xffffffffffffffffffffffffffffffffffffffff\n      and\n        /* \"contracts/marketplace.sol\":7141:7165  governanceToken.transfer */\n      0xffffffffffffffffffffffffffffffffffffffff\n      and\n      0xa9059cbb\n        /* \"contracts/marketplace.sol\":7166:7169  jur */\n      dup4\n        /* \"contracts/marketplace.sol\":7171:7173  st */\n      dup4\n        /* \"contracts/marketplace.sol\":7141:7174  governanceToken.transfer(jur, st) */\n      mload(0x40)\n      dup4\n      0xffffffff\n      and\n      0xe0\n      shl\n      dup2\n      mstore\n      0x04\n      add\n      tag_201\n      swap3\n      swap2\n      swap1\n      tag_202\n      jump\t// in\n    tag_201:\n      0x20\n      mload(0x40)\n      dup1\n      dup4\n      sub\n      dup2\n      0x00\n      dup8\n      gas\n      call\n      iszero\n      dup1\n      iszero\n      tag_204\n      jumpi\n      returndatacopy(0x00, 0x00, returndatasize)\n      revert(0x00, returndatasize)\n    tag_204:\n      pop\n      pop\n      pop\n      pop\n      mload(0x40)\n      returndatasize\n      not(0x1f)\n      0x1f\n      dup3\n      add\n      and\n      dup3\n      add\n      dup1\n      0x40\n      mstore\n      pop\n      dup2\n      add\n      swap1\n      tag_205\n      swap2\n      swap1\n      tag_134\n      jump\t// in\n    tag_205:\n      pop\n        /* \"contracts/marketplace.sol\":7072:7189  if (st > 0) {... */\n    tag_200:\n        /* \"contracts/marketplace.sol\":6975:7199  {... */\n      pop\n      pop\n        /* \"contracts/marketplace.sol\":6970:6973  i++ */\n      dup1\n      dup1\n      0x01\n      add\n      swap2\n      pop\n      pop\n        /* \"contracts/marketplace.sol\":6929:7199  for (uint256 i = 0; i < d.jurors.length; i++) {... */\n      jump(tag_193)\n    tag_194:\n      pop\n        /* \"contracts/marketplace.sol\":7218:7220  no */\n      dup1\n        /* \"contracts/marketplace.sol\":7212:7215  yes */\n      dup3\n        /* \"contracts/marketplace.sol\":7212:7220  yes < no */\n      lt\n        /* \"contracts/marketplace.sol\":7208:8040  if (yes < no) {... */\n      iszero\n      tag_206\n      jumpi\n        /* \"contracts/marketplace.sol\":7318:7337  TaskStatus.Rejected */\n      0x05\n        /* \"contracts/marketplace.sol\":7307:7308  t */\n      dup4\n        /* \"contracts/marketplace.sol\":7307:7315  t.status */\n      0x08\n      add\n      0x00\n        /* \"contracts/marketplace.sol\":7307:7337  t.status = TaskStatus.Rejected */\n      0x0100\n      exp\n      dup2\n      sload\n      dup2\n      0xff\n      mul\n      not\n      and\n      swap1\n      dup4\n      0x05\n      dup2\n      gt\n      iszero\n      tag_207\n      jumpi\n      tag_208\n      tag_152\n      jump\t// in\n    tag_208:\n    tag_207:\n      mul\n      or\n      swap1\n      sstore\n      pop\n        /* \"contracts/marketplace.sol\":7364:7373  taskCount */\n      0x00\n      0x00\n        /* \"contracts/marketplace.sol\":7364:7375  taskCount++ */\n      dup2\n      sload\n      dup1\n      swap3\n      swap2\n      swap1\n      tag_209\n      swap1\n      tag_210\n      jump\t// in\n    tag_209:\n      swap2\n      swap1\n      pop\n      sstore\n      pop\n        /* \"contracts/marketplace.sol\":7389:7404  Task storage t2 */\n      0x00\n        /* \"contracts/marketplace.sol\":7407:7412  tasks */\n      0x01\n        /* \"contracts/marketplace.sol\":7407:7423  tasks[taskCount] */\n      0x00\n        /* \"contracts/marketplace.sol\":7413:7422  taskCount */\n      sload(0x00)\n        /* \"contracts/marketplace.sol\":7407:7423  tasks[taskCount] */\n      dup2\n      mstore\n      0x20\n      add\n      swap1\n      dup2\n      mstore\n      0x20\n      add\n      0x00\n      keccak256\n        /* \"contracts/marketplace.sol\":7389:7423  Task storage t2 = tasks[taskCount] */\n      swap1\n      pop\n        /* \"contracts/marketplace.sol\":7450:7451  t */\n      dup4\n        /* \"contracts/marketplace.sol\":7450:7459  t.creator */\n      0x00\n      add\n      0x00\n      swap1\n      sload\n      swap1\n      0x0100\n      exp\n      swap1\n      div\n      0xffffffffffffffffffffffffffffffffffffffff\n      and\n        /* \"contracts/marketplace.sol\":7437:7439  t2 */\n      dup2\n        /* \"contracts/marketplace.sol\":7437:7447  t2.creator */\n      0x00\n      add\n      0x00\n        /* \"contracts/marketplace.sol\":7437:7459  t2.creator = t.creator */\n      0x0100\n      exp\n      dup2\n      sload\n      dup2\n      0xffffffffffffffffffffffffffffffffffffffff\n      mul\n      not\n      and\n      swap1\n      dup4\n      0xffffffffffffffffffffffffffffffffffffffff\n      and\n      mul\n      or\n      swap1\n      sstore\n      pop\n        /* \"contracts/marketplace.sol\":7485:7486  t */\n      dup4\n        /* \"contracts/marketplace.sol\":7485:7493  t.bounty */\n      0x03\n      add\n      sload\n        /* \"contracts/marketplace.sol\":7473:7475  t2 */\n      dup2\n        /* \"contracts/marketplace.sol\":7473:7482  t2.bounty */\n      0x03\n      add\n        /* \"contracts/marketplace.sol\":7473:7493  t2.bounty = t.bounty */\n      dup2\n      swap1\n      sstore\n      pop\n        /* \"contracts/marketplace.sol\":7528:7529  t */\n      dup4\n        /* \"contracts/marketplace.sol\":7528:7545  t.descriptionHash */\n      0x04\n      add\n        /* \"contracts/marketplace.sol\":7507:7509  t2 */\n      dup2\n        /* \"contracts/marketplace.sol\":7507:7525  t2.descriptionHash */\n      0x04\n      add\n        /* \"contracts/marketplace.sol\":7507:7545  t2.descriptionHash = t.descriptionHash */\n      swap1\n      dup2\n      tag_211\n      swap2\n      swap1\n      tag_212\n      jump\t// in\n    tag_211:\n      pop\n        /* \"contracts/marketplace.sol\":7573:7578  false */\n      0x00\n        /* \"contracts/marketplace.sol\":7559:7561  t2 */\n      dup2\n        /* \"contracts/marketplace.sol\":7559:7570  t2.approved */\n      0x06\n      add\n      0x00\n        /* \"contracts/marketplace.sol\":7559:7578  t2.approved = false */\n      0x0100\n      exp\n      dup2\n      sload\n      dup2\n      0xff\n      mul\n      not\n      and\n      swap1\n      dup4\n      iszero\n      iszero\n      mul\n      or\n      swap1\n      sstore\n      pop\n        /* \"contracts/marketplace.sol\":7604:7619  TaskStatus.Open */\n      0x00\n        /* \"contracts/marketplace.sol\":7592:7594  t2 */\n      dup2\n        /* \"contracts/marketplace.sol\":7592:7601  t2.status */\n      0x08\n      add\n      0x00\n        /* \"contracts/marketplace.sol\":7592:7619  t2.status = TaskStatus.Open */\n      0x0100\n      exp\n      dup2\n      sload\n      dup2\n      0xff\n      mul\n      not\n      and\n      swap1\n      dup4\n      0x05\n      dup2\n      gt\n      iszero\n      tag_213\n      jumpi\n      tag_214\n      tag_152\n      jump\t// in\n    tag_214:\n    tag_213:\n      mul\n      or\n      swap1\n      sstore\n      pop\n        /* \"contracts/marketplace.sol\":7222:8040  {... */\n      pop\n        /* \"contracts/marketplace.sol\":7208:8040  if (yes < no) {... */\n    tag_206:\n        /* \"contracts/marketplace.sol\":8054:8090  DisputeFinalized(_taskId, yes >= no) */\n      0x6094caf45c2924da34dd706c33f09ec619587bac9144486d8f82b0316e47e7b3\n        /* \"contracts/marketplace.sol\":8071:8078  _taskId */\n      dup6\n        /* \"contracts/marketplace.sol\":8087:8089  no */\n      dup3\n        /* \"contracts/marketplace.sol\":8080:8083  yes */\n      dup5\n        /* \"contracts/marketplace.sol\":8080:8089  yes >= no */\n      lt\n      iszero\n        /* \"contracts/marketplace.sol\":8054:8090  DisputeFinalized(_taskId, yes >= no) */\n      mload(0x40)\n      tag_215\n      swap3\n      swap2\n      swap1\n      tag_216\n      jump\t// in\n    tag_215:\n      mload(0x40)\n      dup1\n      swap2\n      sub\n      swap1\n      log1\n        /* \"contracts/marketplace.sol\":6235:8097  {... */\n      pop\n      pop\n      pop\n      pop\n        /* \"contracts/marketplace.sol\":6184:8097  function finalizeDispute(uint256 _taskId) external {... */\n      pop\n      jump\t// out\n        /* \"contracts/marketplace.sol\":1545:1585  uint256 public disputePeriod = 3 minutes */\n    tag_50:\n      sload(0x06)\n      dup2\n      jump\t// out\n        /* \"contracts/marketplace.sol\":12504:12924  function getRemainingDisputeTime(uint256 _taskId) external view returns (uint256 Seconds) {... */\n    tag_55:\n        /* \"contracts/marketplace.sol\":12577:12592  uint256 Seconds */\n      0x00\n        /* \"contracts/marketplace.sol\":12622:12623  0 */\n      0x00\n        /* \"contracts/marketplace.sol\":12612:12619  _taskId */\n      dup3\n        /* \"contracts/marketplace.sol\":12612:12623  _taskId > 0 */\n      gt\n        /* \"contracts/marketplace.sol\":12612:12647  _taskId > 0 && _taskId <= taskCount */\n      dup1\n      iszero\n      tag_218\n      jumpi\n      pop\n        /* \"contracts/marketplace.sol\":12638:12647  taskCount */\n      sload(0x00)\n        /* \"contracts/marketplace.sol\":12627:12634  _taskId */\n      dup3\n        /* \"contracts/marketplace.sol\":12627:12647  _taskId <= taskCount */\n      gt\n      iszero\n        /* \"contracts/marketplace.sol\":12612:12647  _taskId > 0 && _taskId <= taskCount */\n    tag_218:\n        /* \"contracts/marketplace.sol\":12604:12667  require(_taskId > 0 && _taskId <= taskCount, \"Invalid task id\") */\n      tag_219\n      jumpi\n      mload(0x40)\n      0x08c379a000000000000000000000000000000000000000000000000000000000\n      dup2\n      mstore\n      0x04\n      add\n      tag_220\n      swap1\n      tag_86\n      jump\t// in\n    tag_220:\n      mload(0x40)\n      dup1\n      swap2\n      sub\n      swap1\n      revert\n    tag_219:\n        /* \"contracts/marketplace.sol\":12713:12714  0 */\n      0x00\n        /* \"contracts/marketplace.sol\":12682:12690  disputes */\n      0x02\n        /* \"contracts/marketplace.sol\":12682:12699  disputes[_taskId] */\n      0x00\n        /* \"contracts/marketplace.sol\":12691:12698  _taskId */\n      dup5\n        /* \"contracts/marketplace.sol\":12682:12699  disputes[_taskId] */\n      dup2\n      mstore\n      0x20\n      add\n      swap1\n      dup2\n      mstore\n      0x20\n      add\n      0x00\n      keccak256\n        /* \"contracts/marketplace.sol\":12682:12709  disputes[_taskId].startTime */\n      0x01\n      add\n      sload\n        /* \"contracts/marketplace.sol\":12682:12714  disputes[_taskId].startTime == 0 */\n      eq\n        /* \"contracts/marketplace.sol\":12682:12780  disputes[_taskId].startTime == 0 || disputes[_taskId].startTime + disputePeriod >= block.timestamp */\n      dup1\n      tag_221\n      jumpi\n      pop\n        /* \"contracts/marketplace.sol\":12765:12780  block.timestamp */\n      timestamp\n        /* \"contracts/marketplace.sol\":12748:12761  disputePeriod */\n      sload(0x06)\n        /* \"contracts/marketplace.sol\":12718:12726  disputes */\n      0x02\n        /* \"contracts/marketplace.sol\":12718:12735  disputes[_taskId] */\n      0x00\n        /* \"contracts/marketplace.sol\":12727:12734  _taskId */\n      dup6\n        /* \"contracts/marketplace.sol\":12718:12735  disputes[_taskId] */\n      dup2\n      mstore\n      0x20\n      add\n      swap1\n      dup2\n      mstore\n      0x20\n      add\n      0x00\n      keccak256\n        /* \"contracts/marketplace.sol\":12718:12745  disputes[_taskId].startTime */\n      0x01\n      add\n      sload\n        /* \"contracts/marketplace.sol\":12718:12761  disputes[_taskId].startTime + disputePeriod */\n      tag_222\n      swap2\n      swap1\n      tag_116\n      jump\t// in\n    tag_222:\n        /* \"contracts/marketplace.sol\":12718:12780  disputes[_taskId].startTime + disputePeriod >= block.timestamp */\n      lt\n      iszero\n        /* \"contracts/marketplace.sol\":12682:12780  disputes[_taskId].startTime == 0 || disputes[_taskId].startTime + disputePeriod >= block.timestamp */\n    tag_221:\n        /* \"contracts/marketplace.sol\":12678:12918  if (disputes[_taskId].startTime == 0 || disputes[_taskId].startTime + disputePeriod >= block.timestamp) {... */\n      iszero\n      tag_223\n      jumpi\n        /* \"contracts/marketplace.sol\":12803:12804  0 */\n      0x00\n        /* \"contracts/marketplace.sol\":12796:12804  return 0 */\n      swap1\n      pop\n      jump(tag_217)\n        /* \"contracts/marketplace.sol\":12678:12918  if (disputes[_taskId].startTime == 0 || disputes[_taskId].startTime + disputePeriod >= block.timestamp) {... */\n    tag_223:\n        /* \"contracts/marketplace.sol\":12892:12905  disputePeriod */\n      sload(0x06)\n        /* \"contracts/marketplace.sol\":12862:12870  disputes */\n      0x02\n        /* \"contracts/marketplace.sol\":12862:12879  disputes[_taskId] */\n      0x00\n        /* \"contracts/marketplace.sol\":12871:12878  _taskId */\n      dup5\n        /* \"contracts/marketplace.sol\":12862:12879  disputes[_taskId] */\n      dup2\n      mstore\n      0x20\n      add\n      swap1\n      dup2\n      mstore\n      0x20\n      add\n      0x00\n      keccak256\n        /* \"contracts/marketplace.sol\":12862:12889  disputes[_taskId].startTime */\n      0x01\n      add\n      sload\n        /* \"contracts/marketplace.sol\":12862:12905  disputes[_taskId].startTime + disputePeriod */\n      tag_225\n      swap2\n      swap1\n      tag_116\n      jump\t// in\n    tag_225:\n        /* \"contracts/marketplace.sol\":12843:12858  block.timestamp */\n      timestamp\n        /* \"contracts/marketplace.sol\":12843:12906  block.timestamp - (disputes[_taskId].startTime + disputePeriod) */\n      tag_226\n      swap2\n      swap1\n      tag_91\n      jump\t// in\n    tag_226:\n        /* \"contracts/marketplace.sol\":12835:12907  return (block.timestamp - (disputes[_taskId].startTime + disputePeriod)) */\n      swap1\n      pop\n        /* \"contracts/marketplace.sol\":12504:12924  function getRemainingDisputeTime(uint256 _taskId) external view returns (uint256 Seconds) {... */\n    tag_217:\n      swap2\n      swap1\n      pop\n      jump\t// out\n        /* \"contracts/marketplace.sol\":10414:11557  function finalizeTask(uint256 _taskId) external {... */\n    tag_60:\n        /* \"contracts/marketplace.sol\":10490:10491  0 */\n      0x00\n        /* \"contracts/marketplace.sol\":10480:10487  _taskId */\n      dup2\n        /* \"contracts/marketplace.sol\":10480:10491  _taskId > 0 */\n      gt\n        /* \"contracts/marketplace.sol\":10480:10515  _taskId > 0 && _taskId <= taskCount */\n      dup1\n      iszero\n      tag_228\n      jumpi\n      pop\n        /* \"contracts/marketplace.sol\":10506:10515  taskCount */\n      sload(0x00)\n        /* \"contracts/marketplace.sol\":10495:10502  _taskId */\n      dup2\n        /* \"contracts/marketplace.sol\":10495:10515  _taskId <= taskCount */\n      gt\n      iszero\n        /* \"contracts/marketplace.sol\":10480:10515  _taskId > 0 && _taskId <= taskCount */\n    tag_228:\n        /* \"contracts/marketplace.sol\":10472:10535  require(_taskId > 0 && _taskId <= taskCount, \"Invalid task id\") */\n      tag_229\n      jumpi\n      mload(0x40)\n      0x08c379a000000000000000000000000000000000000000000000000000000000\n      dup2\n      mstore\n      0x04\n      add\n      tag_230\n      swap1\n      tag_86\n      jump\t// in\n    tag_230:\n      mload(0x40)\n      dup1\n      swap2\n      sub\n      swap1\n      revert\n    tag_229:\n        /* \"contracts/marketplace.sol\":10546:10560  Task storage t */\n      0x00\n        /* \"contracts/marketplace.sol\":10563:10568  tasks */\n      0x01\n        /* \"contracts/marketplace.sol\":10563:10577  tasks[_taskId] */\n      0x00\n        /* \"contracts/marketplace.sol\":10569:10576  _taskId */\n      dup4\n        /* \"contracts/marketplace.sol\":10563:10577  tasks[_taskId] */\n      dup2\n      mstore\n      0x20\n      add\n      swap1\n      dup2\n      mstore\n      0x20\n      add\n      0x00\n      keccak256\n        /* \"contracts/marketplace.sol\":10546:10577  Task storage t = tasks[_taskId] */\n      swap1\n      pop\n        /* \"contracts/marketplace.sol\":10607:10626  TaskStatus.Verified */\n      0x02\n        /* \"contracts/marketplace.sol\":10595:10626  t.status == TaskStatus.Verified */\n      0x05\n      dup2\n      gt\n      iszero\n      tag_231\n      jumpi\n      tag_232\n      tag_152\n      jump\t// in\n    tag_232:\n    tag_231:\n        /* \"contracts/marketplace.sol\":10595:10596  t */\n      dup2\n        /* \"contracts/marketplace.sol\":10595:10603  t.status */\n      0x08\n      add\n      0x00\n      swap1\n      sload\n      swap1\n      0x0100\n      exp\n      swap1\n      div\n      0xff\n      and\n        /* \"contracts/marketplace.sol\":10595:10626  t.status == TaskStatus.Verified */\n      0x05\n      dup2\n      gt\n      iszero\n      tag_233\n      jumpi\n      tag_234\n      tag_152\n      jump\t// in\n    tag_234:\n    tag_233:\n      eq\n        /* \"contracts/marketplace.sol\":10587:10654  require(t.status == TaskStatus.Verified, \"Task not verified (yet)\") */\n      tag_235\n      jumpi\n      mload(0x40)\n      0x08c379a000000000000000000000000000000000000000000000000000000000\n      dup2\n      mstore\n      0x04\n      add\n      tag_236\n      swap1\n      tag_237\n      jump\t// in\n    tag_236:\n      mload(0x40)\n      dup1\n      swap2\n      sub\n      swap1\n      revert\n    tag_235:\n        /* \"contracts/marketplace.sol\":10690:10691  t */\n      dup1\n        /* \"contracts/marketplace.sol\":10690:10700  t.deadline */\n      0x07\n      add\n      sload\n        /* \"contracts/marketplace.sol\":10672:10687  block.timestamp */\n      timestamp\n        /* \"contracts/marketplace.sol\":10672:10700  block.timestamp > t.deadline */\n      gt\n        /* \"contracts/marketplace.sol\":10664:10732  require(block.timestamp > t.deadline, \"Waiting time not passed yet\") */\n      tag_238\n      jumpi\n      mload(0x40)\n      0x08c379a000000000000000000000000000000000000000000000000000000000\n      dup2\n      mstore\n      0x04\n      add\n      tag_239\n      swap1\n      tag_240\n      jump\t// in\n    tag_239:\n      mload(0x40)\n      dup1\n      swap2\n      sub\n      swap1\n      revert\n    tag_238:\n        /* \"contracts/marketplace.sol\":10772:10773  0 */\n      0x00\n        /* \"contracts/marketplace.sol\":10750:10774  t.verifier != address(0) */\n      0xffffffffffffffffffffffffffffffffffffffff\n      and\n        /* \"contracts/marketplace.sol\":10750:10751  t */\n      dup2\n        /* \"contracts/marketplace.sol\":10750:10760  t.verifier */\n      0x02\n      add\n      0x00\n      swap1\n      sload\n      swap1\n      0x0100\n      exp\n      swap1\n      div\n      0xffffffffffffffffffffffffffffffffffffffff\n      and\n        /* \"contracts/marketplace.sol\":10750:10774  t.verifier != address(0) */\n      0xffffffffffffffffffffffffffffffffffffffff\n      and\n      sub\n        /* \"contracts/marketplace.sol\":10742:10794  require(t.verifier != address(0), \"No verifier yet\") */\n      tag_241\n      jumpi\n      mload(0x40)\n      0x08c379a000000000000000000000000000000000000000000000000000000000\n      dup2\n      mstore\n      0x04\n      add\n      tag_242\n      swap1\n      tag_243\n      jump\t// in\n    tag_242:\n      mload(0x40)\n      dup1\n      swap2\n      sub\n      swap1\n      revert\n    tag_241:\n        /* \"contracts/marketplace.sol\":10826:10834  disputes */\n      0x02\n        /* \"contracts/marketplace.sol\":10826:10843  disputes[_taskId] */\n      0x00\n        /* \"contracts/marketplace.sol\":10835:10842  _taskId */\n      dup4\n        /* \"contracts/marketplace.sol\":10826:10843  disputes[_taskId] */\n      dup2\n      mstore\n      0x20\n      add\n      swap1\n      dup2\n      mstore\n      0x20\n      add\n      0x00\n      keccak256\n        /* \"contracts/marketplace.sol\":10826:10850  disputes[_taskId].exists */\n      0x00\n      add\n      0x00\n      swap1\n      sload\n      swap1\n      0x0100\n      exp\n      swap1\n      div\n      0xff\n      and\n        /* \"contracts/marketplace.sol\":10825:10850  !disputes[_taskId].exists */\n      iszero\n        /* \"contracts/marketplace.sol\":10817:10863  require(!disputes[_taskId].exists, \"disputed\") */\n      tag_244\n      jumpi\n      mload(0x40)\n      0x08c379a000000000000000000000000000000000000000000000000000000000\n      dup2\n      mstore\n      0x04\n      add\n      tag_245\n      swap1\n      tag_246\n      jump\t// in\n    tag_245:\n      mload(0x40)\n      dup1\n      swap2\n      sub\n      swap1\n      revert\n    tag_244:\n        /* \"contracts/marketplace.sol\":10878:10879  t */\n      dup1\n        /* \"contracts/marketplace.sol\":10878:10888  t.approved */\n      0x06\n      add\n      0x00\n      swap1\n      sload\n      swap1\n      0x0100\n      exp\n      swap1\n      div\n      0xff\n      and\n        /* \"contracts/marketplace.sol\":10874:11502  if (t.approved) {... */\n      iszero\n      tag_247\n      jumpi\n        /* \"contracts/marketplace.sol\":10915:10934  TaskStatus.Accepted */\n      0x04\n        /* \"contracts/marketplace.sol\":10904:10905  t */\n      dup2\n        /* \"contracts/marketplace.sol\":10904:10912  t.status */\n      0x08\n      add\n      0x00\n        /* \"contracts/marketplace.sol\":10904:10934  t.status = TaskStatus.Accepted */\n      0x0100\n      exp\n      dup2\n      sload\n      dup2\n      0xff\n      mul\n      not\n      and\n      swap1\n      dup4\n      0x05\n      dup2\n      gt\n      iszero\n      tag_248\n      jumpi\n      tag_249\n      tag_152\n      jump\t// in\n    tag_249:\n    tag_248:\n      mul\n      or\n      swap1\n      sstore\n      pop\n        /* \"contracts/marketplace.sol\":10948:10968  uint256 solverReward */\n      0x00\n        /* \"contracts/marketplace.sol\":10989:10992  100 */\n      0x64\n        /* \"contracts/marketplace.sol\":10983:10985  90 */\n      0x5a\n        /* \"contracts/marketplace.sol\":10972:10973  t */\n      dup4\n        /* \"contracts/marketplace.sol\":10972:10980  t.bounty */\n      0x03\n      add\n      sload\n        /* \"contracts/marketplace.sol\":10972:10985  t.bounty * 90 */\n      tag_250\n      swap2\n      swap1\n      tag_251\n      jump\t// in\n    tag_250:\n        /* \"contracts/marketplace.sol\":10971:10992  (t.bounty * 90) / 100 */\n      tag_252\n      swap2\n      swap1\n      tag_253\n      jump\t// in\n    tag_252:\n        /* \"contracts/marketplace.sol\":10948:10992  uint256 solverReward = (t.bounty * 90) / 100 */\n      swap1\n      pop\n        /* \"contracts/marketplace.sol\":11006:11027  uint256 verifierBonus */\n      0x00\n        /* \"contracts/marketplace.sol\":11048:11051  100 */\n      0x64\n        /* \"contracts/marketplace.sol\":11042:11044  10 */\n      0x0a\n        /* \"contracts/marketplace.sol\":11031:11032  t */\n      dup5\n        /* \"contracts/marketplace.sol\":11031:11039  t.bounty */\n      0x03\n      add\n      sload\n        /* \"contracts/marketplace.sol\":11031:11044  t.bounty * 10 */\n      tag_254\n      swap2\n      swap1\n      tag_251\n      jump\t// in\n    tag_254:\n        /* \"contracts/marketplace.sol\":11030:11051  (t.bounty * 10) / 100 */\n      tag_255\n      swap2\n      swap1\n      tag_253\n      jump\t// in\n    tag_255:\n        /* \"contracts/marketplace.sol\":11006:11051  uint256 verifierBonus = (t.bounty * 10) / 100 */\n      swap1\n      pop\n        /* \"contracts/marketplace.sol\":11073:11074  t */\n      dup3\n        /* \"contracts/marketplace.sol\":11073:11081  t.solver */\n      0x01\n      add\n      0x00\n      swap1\n      sload\n      swap1\n      0x0100\n      exp\n      swap1\n      div\n      0xffffffffffffffffffffffffffffffffffffffff\n      and\n        /* \"contracts/marketplace.sol\":11065:11091  payable(t.solver).transfer */\n      0xffffffffffffffffffffffffffffffffffffffff\n      and\n        /* \"contracts/marketplace.sol\":11065:11118  payable(t.solver).transfer(solverReward + submitCost) */\n      0x08fc\n        /* \"contracts/marketplace.sol\":11107:11117  submitCost */\n      sload(0x03)\n        /* \"contracts/marketplace.sol\":11092:11104  solverReward */\n      dup5\n        /* \"contracts/marketplace.sol\":11092:11117  solverReward + submitCost */\n      tag_256\n      swap2\n      swap1\n      tag_116\n      jump\t// in\n    tag_256:\n        /* \"contracts/marketplace.sol\":11065:11118  payable(t.solver).transfer(solverReward + submitCost) */\n      swap1\n      dup2\n      iszero\n      mul\n      swap1\n      mload(0x40)\n      0x00\n      mload(0x40)\n      dup1\n      dup4\n      sub\n      dup2\n      dup6\n      dup9\n      dup9\n      call\n      swap4\n      pop\n      pop\n      pop\n      pop\n      iszero\n      dup1\n      iszero\n      tag_258\n      jumpi\n      returndatacopy(0x00, 0x00, returndatasize)\n      revert(0x00, returndatasize)\n    tag_258:\n      pop\n        /* \"contracts/marketplace.sol\":11140:11141  t */\n      dup3\n        /* \"contracts/marketplace.sol\":11140:11150  t.verifier */\n      0x02\n      add\n      0x00\n      swap1\n      sload\n      swap1\n      0x0100\n      exp\n      swap1\n      div\n      0xffffffffffffffffffffffffffffffffffffffff\n      and\n        /* \"contracts/marketplace.sol\":11132:11160  payable(t.verifier).transfer */\n      0xffffffffffffffffffffffffffffffffffffffff\n      and\n        /* \"contracts/marketplace.sol\":11132:11188  payable(t.verifier).transfer(verifierBonus + verifyCost) */\n      0x08fc\n        /* \"contracts/marketplace.sol\":11177:11187  verifyCost */\n      sload(0x04)\n        /* \"contracts/marketplace.sol\":11161:11174  verifierBonus */\n      dup4\n        /* \"contracts/marketplace.sol\":11161:11187  verifierBonus + verifyCost */\n      tag_259\n      swap2\n      swap1\n      tag_116\n      jump\t// in\n    tag_259:\n        /* \"contracts/marketplace.sol\":11132:11188  payable(t.verifier).transfer(verifierBonus + verifyCost) */\n      swap1\n      dup2\n      iszero\n      mul\n      swap1\n      mload(0x40)\n      0x00\n      mload(0x40)\n      dup1\n      dup4\n      sub\n      dup2\n      dup6\n      dup9\n      dup9\n      call\n      swap4\n      pop\n      pop\n      pop\n      pop\n      iszero\n      dup1\n      iszero\n      tag_261\n      jumpi\n      returndatacopy(0x00, 0x00, returndatasize)\n      revert(0x00, returndatasize)\n    tag_261:\n      pop\n        /* \"contracts/marketplace.sol\":10890:11199  {... */\n      pop\n      pop\n        /* \"contracts/marketplace.sol\":10874:11502  if (t.approved) {... */\n      jump(tag_262)\n    tag_247:\n        /* \"contracts/marketplace.sol\":11228:11229  t */\n      dup1\n        /* \"contracts/marketplace.sol\":11228:11238  t.verifier */\n      0x02\n      add\n      0x00\n      swap1\n      sload\n      swap1\n      0x0100\n      exp\n      swap1\n      div\n      0xffffffffffffffffffffffffffffffffffffffff\n      and\n        /* \"contracts/marketplace.sol\":11220:11248  payable(t.verifier).transfer */\n      0xffffffffffffffffffffffffffffffffffffffff\n      and\n        /* \"contracts/marketplace.sol\":11220:11273  payable(t.verifier).transfer(submitCost + verifyCost) */\n      0x08fc\n        /* \"contracts/marketplace.sol\":11262:11272  verifyCost */\n      sload(0x04)\n        /* \"contracts/marketplace.sol\":11249:11259  submitCost */\n      sload(0x03)\n        /* \"contracts/marketplace.sol\":11249:11272  submitCost + verifyCost */\n      tag_263\n      swap2\n      swap1\n      tag_116\n      jump\t// in\n    tag_263:\n        /* \"contracts/marketplace.sol\":11220:11273  payable(t.verifier).transfer(submitCost + verifyCost) */\n      swap1\n      dup2\n      iszero\n      mul\n      swap1\n      mload(0x40)\n      0x00\n      mload(0x40)\n      dup1\n      dup4\n      sub\n      dup2\n      dup6\n      dup9\n      dup9\n      call\n      swap4\n      pop\n      pop\n      pop\n      pop\n      iszero\n      dup1\n      iszero\n      tag_265\n      jumpi\n      returndatacopy(0x00, 0x00, returndatasize)\n      revert(0x00, returndatasize)\n    tag_265:\n      pop\n        /* \"contracts/marketplace.sol\":11311:11326  TaskStatus.Open */\n      0x00\n        /* \"contracts/marketplace.sol\":11300:11301  t */\n      dup2\n        /* \"contracts/marketplace.sol\":11300:11308  t.status */\n      0x08\n      add\n      0x00\n        /* \"contracts/marketplace.sol\":11300:11326  t.status = TaskStatus.Open */\n      0x0100\n      exp\n      dup2\n      sload\n      dup2\n      0xff\n      mul\n      not\n      and\n      swap1\n      dup4\n      0x05\n      dup2\n      gt\n      iszero\n      tag_266\n      jumpi\n      tag_267\n      tag_152\n      jump\t// in\n    tag_267:\n    tag_266:\n      mul\n      or\n      swap1\n      sstore\n      pop\n        /* \"contracts/marketplace.sol\":11359:11360  0 */\n      0x00\n        /* \"contracts/marketplace.sol\":11340:11341  t */\n      dup2\n        /* \"contracts/marketplace.sol\":11340:11348  t.solver */\n      0x01\n      add\n      0x00\n        /* \"contracts/marketplace.sol\":11340:11361  t.solver = address(0) */\n      0x0100\n      exp\n      dup2\n      sload\n      dup2\n      0xffffffffffffffffffffffffffffffffffffffff\n      mul\n      not\n      and\n      swap1\n      dup4\n      0xffffffffffffffffffffffffffffffffffffffff\n      and\n      mul\n      or\n      swap1\n      sstore\n      pop\n        /* \"contracts/marketplace.sol\":11396:11397  0 */\n      0x00\n        /* \"contracts/marketplace.sol\":11375:11376  t */\n      dup2\n        /* \"contracts/marketplace.sol\":11375:11385  t.verifier */\n      0x02\n      add\n      0x00\n        /* \"contracts/marketplace.sol\":11375:11398  t.verifier = address(0) */\n      0x0100\n      exp\n      dup2\n      sload\n      dup2\n      0xffffffffffffffffffffffffffffffffffffffff\n      mul\n      not\n      and\n      swap1\n      dup4\n      0xffffffffffffffffffffffffffffffffffffffff\n      and\n      mul\n      or\n      swap1\n      sstore\n      pop\n        /* \"contracts/marketplace.sol\":11412:11431  t.solutionHash = \"\" */\n      mload(0x40)\n      dup1\n      0x20\n      add\n      0x40\n      mstore\n      dup1\n      0x00\n      dup2\n      mstore\n      pop\n        /* \"contracts/marketplace.sol\":11412:11413  t */\n      dup2\n        /* \"contracts/marketplace.sol\":11412:11426  t.solutionHash */\n      0x05\n      add\n        /* \"contracts/marketplace.sol\":11412:11431  t.solutionHash = \"\" */\n      swap1\n      dup2\n      tag_268\n      swap2\n      swap1\n      tag_269\n      jump\t// in\n    tag_268:\n      pop\n        /* \"contracts/marketplace.sol\":11458:11459  0 */\n      0x00\n        /* \"contracts/marketplace.sol\":11445:11446  t */\n      dup2\n        /* \"contracts/marketplace.sol\":11445:11455  t.deadline */\n      0x07\n      add\n        /* \"contracts/marketplace.sol\":11445:11459  t.deadline = 0 */\n      dup2\n      swap1\n      sstore\n      pop\n        /* \"contracts/marketplace.sol\":11486:11491  false */\n      0x00\n        /* \"contracts/marketplace.sol\":11473:11474  t */\n      dup2\n        /* \"contracts/marketplace.sol\":11473:11483  t.approved */\n      0x06\n      add\n      0x00\n        /* \"contracts/marketplace.sol\":11473:11491  t.approved = false */\n      0x0100\n      exp\n      dup2\n      sload\n      dup2\n      0xff\n      mul\n      not\n      and\n      swap1\n      dup4\n      iszero\n      iszero\n      mul\n      or\n      swap1\n      sstore\n      pop\n        /* \"contracts/marketplace.sol\":10874:11502  if (t.approved) {... */\n    tag_262:\n        /* \"contracts/marketplace.sol\":11516:11550  TaskFinalized(_taskId, t.approved) */\n      0x9deada0165c5e1eac62423dbf1dd30115314b076a9d6d3868daf316f1cb285e9\n        /* \"contracts/marketplace.sol\":11530:11537  _taskId */\n      dup3\n        /* \"contracts/marketplace.sol\":11539:11540  t */\n      dup3\n        /* \"contracts/marketplace.sol\":11539:11549  t.approved */\n      0x06\n      add\n      0x00\n      swap1\n      sload\n      swap1\n      0x0100\n      exp\n      swap1\n      div\n      0xff\n      and\n        /* \"contracts/marketplace.sol\":11516:11550  TaskFinalized(_taskId, t.approved) */\n      mload(0x40)\n      tag_270\n      swap3\n      swap2\n      swap1\n      tag_216\n      jump\t// in\n    tag_270:\n      mload(0x40)\n      dup1\n      swap2\n      sub\n      swap1\n      log1\n        /* \"contracts/marketplace.sol\":10462:11557  {... */\n      pop\n        /* \"contracts/marketplace.sol\":10414:11557  function finalizeTask(uint256 _taskId) external {... */\n      pop\n      jump\t// out\n        /* \"contracts/marketplace.sol\":3469:4099  function verifySolution(uint256 _taskId, bool _approved) external payable {... */\n    tag_64:\n        /* \"contracts/marketplace.sol\":3571:3572  0 */\n      0x00\n        /* \"contracts/marketplace.sol\":3561:3568  _taskId */\n      dup3\n        /* \"contracts/marketplace.sol\":3561:3572  _taskId > 0 */\n      gt\n        /* \"contracts/marketplace.sol\":3561:3596  _taskId > 0 && _taskId <= taskCount */\n      dup1\n      iszero\n      tag_272\n      jumpi\n      pop\n        /* \"contracts/marketplace.sol\":3587:3596  taskCount */\n      sload(0x00)\n        /* \"contracts/marketplace.sol\":3576:3583  _taskId */\n      dup3\n        /* \"contracts/marketplace.sol\":3576:3596  _taskId <= taskCount */\n      gt\n      iszero\n        /* \"contracts/marketplace.sol\":3561:3596  _taskId > 0 && _taskId <= taskCount */\n    tag_272:\n        /* \"contracts/marketplace.sol\":3553:3616  require(_taskId > 0 && _taskId <= taskCount, \"Invalid task id\") */\n      tag_273\n      jumpi\n      mload(0x40)\n      0x08c379a000000000000000000000000000000000000000000000000000000000\n      dup2\n      mstore\n      0x04\n      add\n      tag_274\n      swap1\n      tag_86\n      jump\t// in\n    tag_274:\n      mload(0x40)\n      dup1\n      swap2\n      sub\n      swap1\n      revert\n    tag_273:\n        /* \"contracts/marketplace.sol\":3627:3641  Task storage t */\n      0x00\n        /* \"contracts/marketplace.sol\":3644:3649  tasks */\n      0x01\n        /* \"contracts/marketplace.sol\":3644:3658  tasks[_taskId] */\n      0x00\n        /* \"contracts/marketplace.sol\":3650:3657  _taskId */\n      dup5\n        /* \"contracts/marketplace.sol\":3644:3658  tasks[_taskId] */\n      dup2\n      mstore\n      0x20\n      add\n      swap1\n      dup2\n      mstore\n      0x20\n      add\n      0x00\n      keccak256\n        /* \"contracts/marketplace.sol\":3627:3658  Task storage t = tasks[_taskId] */\n      swap1\n      pop\n        /* \"contracts/marketplace.sol\":3688:3708  TaskStatus.Submitted */\n      0x01\n        /* \"contracts/marketplace.sol\":3676:3708  t.status == TaskStatus.Submitted */\n      0x05\n      dup2\n      gt\n      iszero\n      tag_275\n      jumpi\n      tag_276\n      tag_152\n      jump\t// in\n    tag_276:\n    tag_275:\n        /* \"contracts/marketplace.sol\":3676:3677  t */\n      dup2\n        /* \"contracts/marketplace.sol\":3676:3684  t.status */\n      0x08\n      add\n      0x00\n      swap1\n      sload\n      swap1\n      0x0100\n      exp\n      swap1\n      div\n      0xff\n      and\n        /* \"contracts/marketplace.sol\":3676:3708  t.status == TaskStatus.Submitted */\n      0x05\n      dup2\n      gt\n      iszero\n      tag_277\n      jumpi\n      tag_278\n      tag_152\n      jump\t// in\n    tag_278:\n    tag_277:\n      eq\n        /* \"contracts/marketplace.sol\":3668:3737  require(t.status == TaskStatus.Submitted, \"Task not submitted (yet)\") */\n      tag_279\n      jumpi\n      mload(0x40)\n      0x08c379a000000000000000000000000000000000000000000000000000000000\n      dup2\n      mstore\n      0x04\n      add\n      tag_280\n      swap1\n      tag_281\n      jump\t// in\n    tag_280:\n      mload(0x40)\n      dup1\n      swap2\n      sub\n      swap1\n      revert\n    tag_279:\n        /* \"contracts/marketplace.sol\":3768:3778  verifyCost */\n      sload(0x04)\n        /* \"contracts/marketplace.sol\":3755:3764  msg.value */\n      callvalue\n        /* \"contracts/marketplace.sol\":3755:3778  msg.value == verifyCost */\n      eq\n        /* \"contracts/marketplace.sol\":3747:3797  require(msg.value == verifyCost, \"Stake required\") */\n      tag_282\n      jumpi\n      mload(0x40)\n      0x08c379a000000000000000000000000000000000000000000000000000000000\n      dup2\n      mstore\n      0x04\n      add\n      tag_283\n      swap1\n      tag_284\n      jump\t// in\n    tag_283:\n      mload(0x40)\n      dup1\n      swap2\n      sub\n      swap1\n      revert\n    tag_282:\n        /* \"contracts/marketplace.sol\":3837:3838  0 */\n      0x00\n        /* \"contracts/marketplace.sol\":3815:3839  t.verifier == address(0) */\n      0xffffffffffffffffffffffffffffffffffffffff\n      and\n        /* \"contracts/marketplace.sol\":3815:3816  t */\n      dup2\n        /* \"contracts/marketplace.sol\":3815:3825  t.verifier */\n      0x02\n      add\n      0x00\n      swap1\n      sload\n      swap1\n      0x0100\n      exp\n      swap1\n      div\n      0xffffffffffffffffffffffffffffffffffffffff\n      and\n        /* \"contracts/marketplace.sol\":3815:3839  t.verifier == address(0) */\n      0xffffffffffffffffffffffffffffffffffffffff\n      and\n      eq\n        /* \"contracts/marketplace.sol\":3807:3860  require(t.verifier == address(0), \"Already verified\") */\n      tag_285\n      jumpi\n      mload(0x40)\n      0x08c379a000000000000000000000000000000000000000000000000000000000\n      dup2\n      mstore\n      0x04\n      add\n      tag_286\n      swap1\n      tag_287\n      jump\t// in\n    tag_286:\n      mload(0x40)\n      dup1\n      swap2\n      sub\n      swap1\n      revert\n    tag_285:\n        /* \"contracts/marketplace.sol\":3897:3907  msg.sender */\n      caller\n        /* \"contracts/marketplace.sol\":3884:3885  t */\n      dup2\n        /* \"contracts/marketplace.sol\":3884:3894  t.verifier */\n      0x02\n      add\n      0x00\n        /* \"contracts/marketplace.sol\":3884:3907  t.verifier = msg.sender */\n      0x0100\n      exp\n      dup2\n      sload\n      dup2\n      0xffffffffffffffffffffffffffffffffffffffff\n      mul\n      not\n      and\n      swap1\n      dup4\n      0xffffffffffffffffffffffffffffffffffffffff\n      and\n      mul\n      or\n      swap1\n      sstore\n      pop\n        /* \"contracts/marketplace.sol\":3930:3939  _approved */\n      dup2\n        /* \"contracts/marketplace.sol\":3917:3918  t */\n      dup2\n        /* \"contracts/marketplace.sol\":3917:3927  t.approved */\n      0x06\n      add\n      0x00\n        /* \"contracts/marketplace.sol\":3917:3939  t.approved = _approved */\n      0x0100\n      exp\n      dup2\n      sload\n      dup2\n      0xff\n      mul\n      not\n      and\n      swap1\n      dup4\n      iszero\n      iszero\n      mul\n      or\n      swap1\n      sstore\n      pop\n        /* \"contracts/marketplace.sol\":3980:3989  1 minutes */\n      0x3c\n        /* \"contracts/marketplace.sol\":3962:3977  block.timestamp */\n      timestamp\n        /* \"contracts/marketplace.sol\":3962:3989  block.timestamp + 1 minutes */\n      tag_288\n      swap2\n      swap1\n      tag_116\n      jump\t// in\n    tag_288:\n        /* \"contracts/marketplace.sol\":3949:3950  t */\n      dup2\n        /* \"contracts/marketplace.sol\":3949:3959  t.deadline */\n      0x07\n      add\n        /* \"contracts/marketplace.sol\":3949:3989  t.deadline = block.timestamp + 1 minutes */\n      dup2\n      swap1\n      sstore\n      pop\n        /* \"contracts/marketplace.sol\":4010:4029  TaskStatus.Verified */\n      0x02\n        /* \"contracts/marketplace.sol\":3999:4000  t */\n      dup2\n        /* \"contracts/marketplace.sol\":3999:4007  t.status */\n      0x08\n      add\n      0x00\n        /* \"contracts/marketplace.sol\":3999:4029  t.status = TaskStatus.Verified */\n      0x0100\n      exp\n      dup2\n      sload\n      dup2\n      0xff\n      mul\n      not\n      and\n      swap1\n      dup4\n      0x05\n      dup2\n      gt\n      iszero\n      tag_289\n      jumpi\n      tag_290\n      tag_152\n      jump\t// in\n    tag_290:\n    tag_289:\n      mul\n      or\n      swap1\n      sstore\n      pop\n        /* \"contracts/marketplace.sol\":4044:4092  SolutionVerified(_taskId, msg.sender, _approved) */\n      0x28f0202dcb9c68cb7b1c95a88074daa5de2f0f8f6e1c69d9d509140a3228871b\n        /* \"contracts/marketplace.sol\":4061:4068  _taskId */\n      dup4\n        /* \"contracts/marketplace.sol\":4070:4080  msg.sender */\n      caller\n        /* \"contracts/marketplace.sol\":4082:4091  _approved */\n      dup5\n        /* \"contracts/marketplace.sol\":4044:4092  SolutionVerified(_taskId, msg.sender, _approved) */\n      mload(0x40)\n      tag_291\n      swap4\n      swap3\n      swap2\n      swap1\n      tag_292\n      jump\t// in\n    tag_291:\n      mload(0x40)\n      dup1\n      swap2\n      sub\n      swap1\n      log1\n        /* \"contracts/marketplace.sol\":3543:4099  {... */\n      pop\n        /* \"contracts/marketplace.sol\":3469:4099  function verifySolution(uint256 _taskId, bool _approved) external payable {... */\n      pop\n      pop\n      jump\t// out\n        /* \"contracts/marketplace.sol\":12930:13019  function getTaskCount() external view returns (uint256) {... */\n    tag_67:\n        /* \"contracts/marketplace.sol\":12977:12984  uint256 */\n      0x00\n        /* \"contracts/marketplace.sol\":13003:13012  taskCount */\n      sload(0x00)\n        /* \"contracts/marketplace.sol\":12996:13012  return taskCount */\n      swap1\n      pop\n        /* \"contracts/marketplace.sol\":12930:13019  function getTaskCount() external view returns (uint256) {... */\n      swap1\n      jump\t// out\n        /* \"contracts/marketplace.sol\":2347:2790  function postTask(string calldata _descriptionHash) external payable {... */\n    tag_72:\n        /* \"contracts/marketplace.sol\":2446:2447  0 */\n      0x00\n        /* \"contracts/marketplace.sol\":2434:2443  msg.value */\n      callvalue\n        /* \"contracts/marketplace.sol\":2434:2447  msg.value > 0 */\n      gt\n        /* \"contracts/marketplace.sol\":2426:2468  require(msg.value > 0, \"Must send bounty\") */\n      tag_295\n      jumpi\n      mload(0x40)\n      0x08c379a000000000000000000000000000000000000000000000000000000000\n      dup2\n      mstore\n      0x04\n      add\n      tag_296\n      swap1\n      tag_297\n      jump\t// in\n    tag_296:\n      mload(0x40)\n      dup1\n      swap2\n      sub\n      swap1\n      revert\n    tag_295:\n        /* \"contracts/marketplace.sol\":2479:2488  taskCount */\n      0x00\n      0x00\n        /* \"contracts/marketplace.sol\":2479:2490  taskCount++ */\n      dup2\n      sload\n      dup1\n      swap3\n      swap2\n      swap1\n      tag_298\n      swap1\n      tag_210\n      jump\t// in\n    tag_298:\n      swap2\n      swap1\n      pop\n      sstore\n      pop\n        /* \"contracts/marketplace.sol\":2500:2514  Task storage t */\n      0x00\n        /* \"contracts/marketplace.sol\":2517:2522  tasks */\n      0x01\n        /* \"contracts/marketplace.sol\":2517:2533  tasks[taskCount] */\n      0x00\n        /* \"contracts/marketplace.sol\":2523:2532  taskCount */\n      sload(0x00)\n        /* \"contracts/marketplace.sol\":2517:2533  tasks[taskCount] */\n      dup2\n      mstore\n      0x20\n      add\n      swap1\n      dup2\n      mstore\n      0x20\n      add\n      0x00\n      keccak256\n        /* \"contracts/marketplace.sol\":2500:2533  Task storage t = tasks[taskCount] */\n      swap1\n      pop\n        /* \"contracts/marketplace.sol\":2555:2565  msg.sender */\n      caller\n        /* \"contracts/marketplace.sol\":2543:2544  t */\n      dup2\n        /* \"contracts/marketplace.sol\":2543:2552  t.creator */\n      0x00\n      add\n      0x00\n        /* \"contracts/marketplace.sol\":2543:2565  t.creator = msg.sender */\n      0x0100\n      exp\n      dup2\n      sload\n      dup2\n      0xffffffffffffffffffffffffffffffffffffffff\n      mul\n      not\n      and\n      swap1\n      dup4\n      0xffffffffffffffffffffffffffffffffffffffff\n      and\n      mul\n      or\n      swap1\n      sstore\n      pop\n        /* \"contracts/marketplace.sol\":2586:2595  msg.value */\n      callvalue\n        /* \"contracts/marketplace.sol\":2575:2576  t */\n      dup2\n        /* \"contracts/marketplace.sol\":2575:2583  t.bounty */\n      0x03\n      add\n        /* \"contracts/marketplace.sol\":2575:2595  t.bounty = msg.value */\n      dup2\n      swap1\n      sstore\n      pop\n        /* \"contracts/marketplace.sol\":2625:2641  _descriptionHash */\n      dup3\n      dup3\n        /* \"contracts/marketplace.sol\":2605:2606  t */\n      dup3\n        /* \"contracts/marketplace.sol\":2605:2622  t.descriptionHash */\n      0x04\n      add\n        /* \"contracts/marketplace.sol\":2605:2641  t.descriptionHash = _descriptionHash */\n      swap2\n      dup3\n      tag_299\n      swap3\n      swap2\n      swap1\n      tag_300\n      jump\t// in\n    tag_299:\n      pop\n        /* \"contracts/marketplace.sol\":2664:2669  false */\n      0x00\n        /* \"contracts/marketplace.sol\":2651:2652  t */\n      dup2\n        /* \"contracts/marketplace.sol\":2651:2661  t.approved */\n      0x06\n      add\n      0x00\n        /* \"contracts/marketplace.sol\":2651:2669  t.approved = false */\n      0x0100\n      exp\n      dup2\n      sload\n      dup2\n      0xff\n      mul\n      not\n      and\n      swap1\n      dup4\n      iszero\n      iszero\n      mul\n      or\n      swap1\n      sstore\n      pop\n        /* \"contracts/marketplace.sol\":2690:2705  TaskStatus.Open */\n      0x00\n        /* \"contracts/marketplace.sol\":2679:2680  t */\n      dup2\n        /* \"contracts/marketplace.sol\":2679:2687  t.status */\n      0x08\n      add\n      0x00\n        /* \"contracts/marketplace.sol\":2679:2705  t.status = TaskStatus.Open */\n      0x0100\n      exp\n      dup2\n      sload\n      dup2\n      0xff\n      mul\n      not\n      and\n      swap1\n      dup4\n      0x05\n      dup2\n      gt\n      iszero\n      tag_301\n      jumpi\n      tag_302\n      tag_152\n      jump\t// in\n    tag_302:\n    tag_301:\n      mul\n      or\n      swap1\n      sstore\n      pop\n        /* \"contracts/marketplace.sol\":2721:2783  TaskPosted(taskCount, msg.sender, msg.value, _descriptionHash) */\n      0x05fddf931b4d1e3b95f2b6fb12ab475fe9555ce60fd2bfe66b84060f2dc22a2e\n        /* \"contracts/marketplace.sol\":2732:2741  taskCount */\n      sload(0x00)\n        /* \"contracts/marketplace.sol\":2743:2753  msg.sender */\n      caller\n        /* \"contracts/marketplace.sol\":2755:2764  msg.value */\n      callvalue\n        /* \"contracts/marketplace.sol\":2766:2782  _descriptionHash */\n      dup7\n      dup7\n        /* \"contracts/marketplace.sol\":2721:2783  TaskPosted(taskCount, msg.sender, msg.value, _descriptionHash) */\n      mload(0x40)\n      tag_303\n      swap6\n      swap5\n      swap4\n      swap3\n      swap2\n      swap1\n      tag_304\n      jump\t// in\n    tag_303:\n      mload(0x40)\n      dup1\n      swap2\n      sub\n      swap1\n      log1\n        /* \"contracts/marketplace.sol\":2416:2790  {... */\n      pop\n        /* \"contracts/marketplace.sol\":2347:2790  function postTask(string calldata _descriptionHash) external payable {... */\n      pop\n      pop\n      jump\t// out\n        /* \"contracts/marketplace.sol\":2824:3436  function submitSolution(uint256 _taskId, string calldata _solutionHash) external payable {... */\n    tag_76:\n        /* \"contracts/marketplace.sol\":2941:2942  0 */\n      0x00\n        /* \"contracts/marketplace.sol\":2931:2938  _taskId */\n      dup4\n        /* \"contracts/marketplace.sol\":2931:2942  _taskId > 0 */\n      gt\n        /* \"contracts/marketplace.sol\":2931:2966  _taskId > 0 && _taskId <= taskCount */\n      dup1\n      iszero\n      tag_306\n      jumpi\n      pop\n        /* \"contracts/marketplace.sol\":2957:2966  taskCount */\n      sload(0x00)\n        /* \"contracts/marketplace.sol\":2946:2953  _taskId */\n      dup4\n        /* \"contracts/marketplace.sol\":2946:2966  _taskId <= taskCount */\n      gt\n      iszero\n        /* \"contracts/marketplace.sol\":2931:2966  _taskId > 0 && _taskId <= taskCount */\n    tag_306:\n        /* \"contracts/marketplace.sol\":2923:2986  require(_taskId > 0 && _taskId <= taskCount, \"Invalid task id\") */\n      tag_307\n      jumpi\n      mload(0x40)\n      0x08c379a000000000000000000000000000000000000000000000000000000000\n      dup2\n      mstore\n      0x04\n      add\n      tag_308\n      swap1\n      tag_86\n      jump\t// in\n    tag_308:\n      mload(0x40)\n      dup1\n      swap2\n      sub\n      swap1\n      revert\n    tag_307:\n        /* \"contracts/marketplace.sol\":3005:3019  Task storage t */\n      0x00\n        /* \"contracts/marketplace.sol\":3022:3027  tasks */\n      0x01\n        /* \"contracts/marketplace.sol\":3022:3036  tasks[_taskId] */\n      0x00\n        /* \"contracts/marketplace.sol\":3028:3035  _taskId */\n      dup6\n        /* \"contracts/marketplace.sol\":3022:3036  tasks[_taskId] */\n      dup2\n      mstore\n      0x20\n      add\n      swap1\n      dup2\n      mstore\n      0x20\n      add\n      0x00\n      keccak256\n        /* \"contracts/marketplace.sol\":3005:3036  Task storage t = tasks[_taskId] */\n      swap1\n      pop\n        /* \"contracts/marketplace.sol\":3066:3081  TaskStatus.Open */\n      0x00\n        /* \"contracts/marketplace.sol\":3054:3081  t.status == TaskStatus.Open */\n      0x05\n      dup2\n      gt\n      iszero\n      tag_309\n      jumpi\n      tag_310\n      tag_152\n      jump\t// in\n    tag_310:\n    tag_309:\n        /* \"contracts/marketplace.sol\":3054:3055  t */\n      dup2\n        /* \"contracts/marketplace.sol\":3054:3062  t.status */\n      0x08\n      add\n      0x00\n      swap1\n      sload\n      swap1\n      0x0100\n      exp\n      swap1\n      div\n      0xff\n      and\n        /* \"contracts/marketplace.sol\":3054:3081  t.status == TaskStatus.Open */\n      0x05\n      dup2\n      gt\n      iszero\n      tag_311\n      jumpi\n      tag_312\n      tag_152\n      jump\t// in\n    tag_312:\n    tag_311:\n      eq\n        /* \"contracts/marketplace.sol\":3046:3105  require(t.status == TaskStatus.Open, \"Task not open (yet)\") */\n      tag_313\n      jumpi\n      mload(0x40)\n      0x08c379a000000000000000000000000000000000000000000000000000000000\n      dup2\n      mstore\n      0x04\n      add\n      tag_314\n      swap1\n      tag_315\n      jump\t// in\n    tag_314:\n      mload(0x40)\n      dup1\n      swap2\n      sub\n      swap1\n      revert\n    tag_313:\n        /* \"contracts/marketplace.sol\":3136:3146  submitCost */\n      sload(0x03)\n        /* \"contracts/marketplace.sol\":3123:3132  msg.value */\n      callvalue\n        /* \"contracts/marketplace.sol\":3123:3146  msg.value == submitCost */\n      eq\n        /* \"contracts/marketplace.sol\":3115:3165  require(msg.value == submitCost, \"Stake required\") */\n      tag_316\n      jumpi\n      mload(0x40)\n      0x08c379a000000000000000000000000000000000000000000000000000000000\n      dup2\n      mstore\n      0x04\n      add\n      tag_317\n      swap1\n      tag_284\n      jump\t// in\n    tag_317:\n      mload(0x40)\n      dup1\n      swap2\n      sub\n      swap1\n      revert\n    tag_316:\n        /* \"contracts/marketplace.sol\":3203:3204  0 */\n      0x00\n        /* \"contracts/marketplace.sol\":3183:3205  t.solver == address(0) */\n      0xffffffffffffffffffffffffffffffffffffffff\n      and\n        /* \"contracts/marketplace.sol\":3183:3184  t */\n      dup2\n        /* \"contracts/marketplace.sol\":3183:3191  t.solver */\n      0x01\n      add\n      0x00\n      swap1\n      sload\n      swap1\n      0x0100\n      exp\n      swap1\n      div\n      0xffffffffffffffffffffffffffffffffffffffff\n      and\n        /* \"contracts/marketplace.sol\":3183:3205  t.solver == address(0) */\n      0xffffffffffffffffffffffffffffffffffffffff\n      and\n      eq\n        /* \"contracts/marketplace.sol\":3175:3247  require(t.solver == address(0), \"A solution has already been submitted\") */\n      tag_318\n      jumpi\n      mload(0x40)\n      0x08c379a000000000000000000000000000000000000000000000000000000000\n      dup2\n      mstore\n      0x04\n      add\n      tag_319\n      swap1\n      tag_320\n      jump\t// in\n    tag_319:\n      mload(0x40)\n      dup1\n      swap2\n      sub\n      swap1\n      revert\n    tag_318:\n        /* \"contracts/marketplace.sol\":3275:3288  _solutionHash */\n      dup3\n      dup3\n        /* \"contracts/marketplace.sol\":3258:3259  t */\n      dup3\n        /* \"contracts/marketplace.sol\":3258:3272  t.solutionHash */\n      0x05\n      add\n        /* \"contracts/marketplace.sol\":3258:3288  t.solutionHash = _solutionHash */\n      swap2\n      dup3\n      tag_321\n      swap3\n      swap2\n      swap1\n      tag_300\n      jump\t// in\n    tag_321:\n      pop\n        /* \"contracts/marketplace.sol\":3309:3319  msg.sender */\n      caller\n        /* \"contracts/marketplace.sol\":3298:3299  t */\n      dup2\n        /* \"contracts/marketplace.sol\":3298:3306  t.solver */\n      0x01\n      add\n      0x00\n        /* \"contracts/marketplace.sol\":3298:3319  t.solver = msg.sender */\n      0x0100\n      exp\n      dup2\n      sload\n      dup2\n      0xffffffffffffffffffffffffffffffffffffffff\n      mul\n      not\n      and\n      swap1\n      dup4\n      0xffffffffffffffffffffffffffffffffffffffff\n      and\n      mul\n      or\n      swap1\n      sstore\n      pop\n        /* \"contracts/marketplace.sol\":3340:3360  TaskStatus.Submitted */\n      0x01\n        /* \"contracts/marketplace.sol\":3329:3330  t */\n      dup2\n        /* \"contracts/marketplace.sol\":3329:3337  t.status */\n      0x08\n      add\n      0x00\n        /* \"contracts/marketplace.sol\":3329:3360  t.status = TaskStatus.Submitted */\n      0x0100\n      exp\n      dup2\n      sload\n      dup2\n      0xff\n      mul\n      not\n      and\n      swap1\n      dup4\n      0x05\n      dup2\n      gt\n      iszero\n      tag_322\n      jumpi\n      tag_323\n      tag_152\n      jump\t// in\n    tag_323:\n    tag_322:\n      mul\n      or\n      swap1\n      sstore\n      pop\n        /* \"contracts/marketplace.sol\":3376:3429  SolutionSubmitted(_taskId, msg.sender, _solutionHash) */\n      0xa90ae9720245855cd0178118b70cc1ee497003d06d996ee5c304a19e5b25d915\n        /* \"contracts/marketplace.sol\":3394:3401  _taskId */\n      dup5\n        /* \"contracts/marketplace.sol\":3403:3413  msg.sender */\n      caller\n        /* \"contracts/marketplace.sol\":3415:3428  _solutionHash */\n      dup6\n      dup6\n        /* \"contracts/marketplace.sol\":3376:3429  SolutionSubmitted(_taskId, msg.sender, _solutionHash) */\n      mload(0x40)\n      tag_324\n      swap5\n      swap4\n      swap3\n      swap2\n      swap1\n      tag_325\n      jump\t// in\n    tag_324:\n      mload(0x40)\n      dup1\n      swap2\n      sub\n      swap1\n      log1\n        /* \"contracts/marketplace.sol\":2913:3436  {... */\n      pop\n        /* \"contracts/marketplace.sol\":2824:3436  function submitSolution(uint256 _taskId, string calldata _solutionHash) external payable {... */\n      pop\n      pop\n      pop\n      jump\t// out\n        /* \"contracts/marketplace.sol\":1592:1621  IERC20 public governanceToken */\n    tag_79:\n      0x07\n      0x00\n      swap1\n      sload\n      swap1\n      0x0100\n      exp\n      swap1\n      div\n      0xffffffffffffffffffffffffffffffffffffffff\n      and\n      dup2\n      jump\t// out\n        /* \"contracts/marketplace.sol\":8203:9767  function _distributeRewards(uint256 _taskId, bool majoritySaysCorrect) internal {... */\n    tag_188:\n        /* \"contracts/marketplace.sol\":8293:8310  Dispute storage d */\n      0x00\n        /* \"contracts/marketplace.sol\":8313:8321  disputes */\n      0x02\n        /* \"contracts/marketplace.sol\":8313:8330  disputes[_taskId] */\n      0x00\n        /* \"contracts/marketplace.sol\":8322:8329  _taskId */\n      dup5\n        /* \"contracts/marketplace.sol\":8313:8330  disputes[_taskId] */\n      dup2\n      mstore\n      0x20\n      add\n      swap1\n      dup2\n      mstore\n      0x20\n      add\n      0x00\n      keccak256\n        /* \"contracts/marketplace.sol\":8293:8330  Dispute storage d = disputes[_taskId] */\n      swap1\n      pop\n        /* \"contracts/marketplace.sol\":8340:8354  Task storage t */\n      0x00\n        /* \"contracts/marketplace.sol\":8357:8362  tasks */\n      0x01\n        /* \"contracts/marketplace.sol\":8357:8371  tasks[_taskId] */\n      0x00\n        /* \"contracts/marketplace.sol\":8363:8370  _taskId */\n      dup6\n        /* \"contracts/marketplace.sol\":8357:8371  tasks[_taskId] */\n      dup2\n      mstore\n      0x20\n      add\n      swap1\n      dup2\n      mstore\n      0x20\n      add\n      0x00\n      keccak256\n        /* \"contracts/marketplace.sol\":8340:8371  Task storage t = tasks[_taskId] */\n      swap1\n      pop\n        /* \"contracts/marketplace.sol\":8382:8406  uint256 refundToObjector */\n      0x00\n        /* \"contracts/marketplace.sol\":8417:8434  uint256 jurorPool */\n      0x00\n        /* \"contracts/marketplace.sol\":8457:8460  100 */\n      0x64\n        /* \"contracts/marketplace.sol\":8451:8453  40 */\n      0x28\n        /* \"contracts/marketplace.sol\":8438:8448  verifyCost */\n      sload(0x04)\n        /* \"contracts/marketplace.sol\":8438:8453  verifyCost * 40 */\n      tag_327\n      swap2\n      swap1\n      tag_251\n      jump\t// in\n    tag_327:\n        /* \"contracts/marketplace.sol\":8437:8460  (verifyCost * 40) / 100 */\n      tag_328\n      swap2\n      swap1\n      tag_253\n      jump\t// in\n    tag_328:\n        /* \"contracts/marketplace.sol\":8417:8460  uint256 jurorPool = (verifyCost * 40) / 100 */\n      swap1\n      pop\n        /* \"contracts/marketplace.sol\":8497:8498  t */\n      dup3\n        /* \"contracts/marketplace.sol\":8497:8507  t.approved */\n      0x06\n      add\n      0x00\n      swap1\n      sload\n      swap1\n      0x0100\n      exp\n      swap1\n      div\n      0xff\n      and\n        /* \"contracts/marketplace.sol\":8474:8507  majoritySaysCorrect == t.approved */\n      iszero\n      iszero\n        /* \"contracts/marketplace.sol\":8474:8493  majoritySaysCorrect */\n      dup6\n        /* \"contracts/marketplace.sol\":8474:8507  majoritySaysCorrect == t.approved */\n      iszero\n      iszero\n      sub\n        /* \"contracts/marketplace.sol\":8470:8689  if (majoritySaysCorrect == t.approved) {... */\n      tag_329\n      jumpi\n        /* \"contracts/marketplace.sol\":8542:8543  0 */\n      0x00\n        /* \"contracts/marketplace.sol\":8523:8543  refundToObjector = 0 */\n      swap2\n      pop\n        /* \"contracts/marketplace.sol\":8470:8689  if (majoritySaysCorrect == t.approved) {... */\n      jump(tag_330)\n    tag_329:\n        /* \"contracts/marketplace.sol\":8613:8616  100 */\n      0x64\n        /* \"contracts/marketplace.sol\":8607:8609  50 */\n      0x32\n        /* \"contracts/marketplace.sol\":8594:8604  verifyCost */\n      sload(0x04)\n        /* \"contracts/marketplace.sol\":8594:8609  verifyCost * 50 */\n      tag_331\n      swap2\n      swap1\n      tag_251\n      jump\t// in\n    tag_331:\n        /* \"contracts/marketplace.sol\":8593:8616  (verifyCost * 50) / 100 */\n      tag_332\n      swap2\n      swap1\n      tag_253\n      jump\t// in\n    tag_332:\n        /* \"contracts/marketplace.sol\":8574:8616  refundToObjector = (verifyCost * 50) / 100 */\n      swap2\n      pop\n        /* \"contracts/marketplace.sol\":8640:8641  d */\n      dup4\n        /* \"contracts/marketplace.sol\":8640:8650  d.objector */\n      0x00\n      add\n      0x01\n      swap1\n      sload\n      swap1\n      0x0100\n      exp\n      swap1\n      div\n      0xffffffffffffffffffffffffffffffffffffffff\n      and\n        /* \"contracts/marketplace.sol\":8632:8660  payable(d.objector).transfer */\n      0xffffffffffffffffffffffffffffffffffffffff\n      and\n        /* \"contracts/marketplace.sol\":8632:8678  payable(d.objector).transfer(refundToObjector) */\n      0x08fc\n        /* \"contracts/marketplace.sol\":8661:8677  refundToObjector */\n      dup4\n        /* \"contracts/marketplace.sol\":8632:8678  payable(d.objector).transfer(refundToObjector) */\n      swap1\n      dup2\n      iszero\n      mul\n      swap1\n      mload(0x40)\n      0x00\n      mload(0x40)\n      dup1\n      dup4\n      sub\n      dup2\n      dup6\n      dup9\n      dup9\n      call\n      swap4\n      pop\n      pop\n      pop\n      pop\n      iszero\n      dup1\n      iszero\n      tag_334\n      jumpi\n      returndatacopy(0x00, 0x00, returndatasize)\n      revert(0x00, returndatasize)\n    tag_334:\n      pop\n        /* \"contracts/marketplace.sol\":8470:8689  if (majoritySaysCorrect == t.approved) {... */\n    tag_330:\n        /* \"contracts/marketplace.sol\":8712:8731  uint256 platformFee */\n      0x00\n        /* \"contracts/marketplace.sol\":8766:8775  jurorPool */\n      dup2\n        /* \"contracts/marketplace.sol\":8747:8763  refundToObjector */\n      dup4\n        /* \"contracts/marketplace.sol\":8734:8744  verifyCost */\n      sload(0x04)\n        /* \"contracts/marketplace.sol\":8734:8763  verifyCost - refundToObjector */\n      tag_335\n      swap2\n      swap1\n      tag_91\n      jump\t// in\n    tag_335:\n        /* \"contracts/marketplace.sol\":8734:8775  verifyCost - refundToObjector - jurorPool */\n      tag_336\n      swap2\n      swap1\n      tag_91\n      jump\t// in\n    tag_336:\n        /* \"contracts/marketplace.sol\":8712:8775  uint256 platformFee = verifyCost - refundToObjector - jurorPool */\n      swap1\n      pop\n        /* \"contracts/marketplace.sol\":8790:8809  majoritySaysCorrect */\n      dup6\n        /* \"contracts/marketplace.sol\":8785:8988  if (!majoritySaysCorrect) {... */\n      tag_337\n      jumpi\n        /* \"contracts/marketplace.sol\":8829:8830  t */\n      dup4\n        /* \"contracts/marketplace.sol\":8829:8839  t.approved */\n      0x06\n      add\n      0x00\n      swap1\n      sload\n      swap1\n      0x0100\n      exp\n      swap1\n      div\n      0xff\n      and\n        /* \"contracts/marketplace.sol\":8825:8978  if (t.approved) {... */\n      iszero\n      tag_338\n      jumpi\n        /* \"contracts/marketplace.sol\":8874:8884  submitCost */\n      sload(0x03)\n        /* \"contracts/marketplace.sol\":8859:8884  platformFee += submitCost */\n      dup2\n      tag_339\n      swap2\n      swap1\n      tag_116\n      jump\t// in\n    tag_339:\n      swap1\n      pop\n        /* \"contracts/marketplace.sol\":8825:8978  if (t.approved) {... */\n      jump(tag_340)\n    tag_338:\n        /* \"contracts/marketplace.sol\":8931:8932  t */\n      dup4\n        /* \"contracts/marketplace.sol\":8931:8941  t.verifier */\n      0x02\n      add\n      0x00\n      swap1\n      sload\n      swap1\n      0x0100\n      exp\n      swap1\n      div\n      0xffffffffffffffffffffffffffffffffffffffff\n      and\n        /* \"contracts/marketplace.sol\":8923:8951  payable(t.verifier).transfer */\n      0xffffffffffffffffffffffffffffffffffffffff\n      and\n        /* \"contracts/marketplace.sol\":8923:8963  payable(t.verifier).transfer(submitCost) */\n      0x08fc\n        /* \"contracts/marketplace.sol\":8952:8962  submitCost */\n      sload(0x03)\n        /* \"contracts/marketplace.sol\":8923:8963  payable(t.verifier).transfer(submitCost) */\n      swap1\n      dup2\n      iszero\n      mul\n      swap1\n      mload(0x40)\n      0x00\n      mload(0x40)\n      dup1\n      dup4\n      sub\n      dup2\n      dup6\n      dup9\n      dup9\n      call\n      swap4\n      pop\n      pop\n      pop\n      pop\n      iszero\n      dup1\n      iszero\n      tag_342\n      jumpi\n      returndatacopy(0x00, 0x00, returndatasize)\n      revert(0x00, returndatasize)\n    tag_342:\n      pop\n        /* \"contracts/marketplace.sol\":8825:8978  if (t.approved) {... */\n    tag_340:\n        /* \"contracts/marketplace.sol\":8785:8988  if (!majoritySaysCorrect) {... */\n    tag_337:\n        /* \"contracts/marketplace.sol\":8998:9020  uint256 majorityWeight */\n      0x00\n        /* \"contracts/marketplace.sol\":9023:9042  majoritySaysCorrect */\n      dup7\n        /* \"contracts/marketplace.sol\":9023:9079  majoritySaysCorrect ? d.totalYesWeight : d.totalNoWeight */\n      tag_343\n      jumpi\n        /* \"contracts/marketplace.sol\":9064:9065  d */\n      dup6\n        /* \"contracts/marketplace.sol\":9064:9079  d.totalNoWeight */\n      0x03\n      add\n      sload\n        /* \"contracts/marketplace.sol\":9023:9079  majoritySaysCorrect ? d.totalYesWeight : d.totalNoWeight */\n      jump(tag_344)\n    tag_343:\n        /* \"contracts/marketplace.sol\":9045:9046  d */\n      dup6\n        /* \"contracts/marketplace.sol\":9045:9061  d.totalYesWeight */\n      0x02\n      add\n      sload\n        /* \"contracts/marketplace.sol\":9023:9079  majoritySaysCorrect ? d.totalYesWeight : d.totalNoWeight */\n    tag_344:\n        /* \"contracts/marketplace.sol\":8998:9079  uint256 majorityWeight = majoritySaysCorrect ? d.totalYesWeight : d.totalNoWeight */\n      swap1\n      pop\n        /* \"contracts/marketplace.sol\":9148:9149  0 */\n      0x00\n        /* \"contracts/marketplace.sol\":9130:9144  majorityWeight */\n      dup2\n        /* \"contracts/marketplace.sol\":9130:9149  majorityWeight == 0 */\n      sub\n        /* \"contracts/marketplace.sol\":9126:9220  if (majorityWeight == 0) {... */\n      tag_345\n      jumpi\n        /* \"contracts/marketplace.sol\":9180:9189  jurorPool */\n      dup3\n        /* \"contracts/marketplace.sol\":9165:9189  platformFee += jurorPool */\n      dup3\n      tag_346\n      swap2\n      swap1\n      tag_116\n      jump\t// in\n    tag_346:\n      swap2\n      pop\n        /* \"contracts/marketplace.sol\":9203:9210  return; */\n      pop\n      pop\n      pop\n      pop\n      pop\n      pop\n      jump(tag_326)\n        /* \"contracts/marketplace.sol\":9126:9220  if (majorityWeight == 0) {... */\n    tag_345:\n        /* \"contracts/marketplace.sol\":9271:9280  uint256 i */\n      0x00\n        /* \"contracts/marketplace.sol\":9283:9284  0 */\n      0x00\n        /* \"contracts/marketplace.sol\":9271:9284  uint256 i = 0 */\n      swap1\n      pop\n        /* \"contracts/marketplace.sol\":9266:9761  for (uint256 i = 0; i < d.jurors.length; i++) {... */\n    tag_347:\n        /* \"contracts/marketplace.sol\":9290:9291  d */\n      dup7\n        /* \"contracts/marketplace.sol\":9290:9298  d.jurors */\n      0x09\n      add\n        /* \"contracts/marketplace.sol\":9290:9305  d.jurors.length */\n      dup1\n      sload\n      swap1\n      pop\n        /* \"contracts/marketplace.sol\":9286:9287  i */\n      dup2\n        /* \"contracts/marketplace.sol\":9286:9305  i < d.jurors.length */\n      lt\n        /* \"contracts/marketplace.sol\":9266:9761  for (uint256 i = 0; i < d.jurors.length; i++) {... */\n      iszero\n      tag_348\n      jumpi\n        /* \"contracts/marketplace.sol\":9326:9337  address jur */\n      0x00\n        /* \"contracts/marketplace.sol\":9340:9341  d */\n      dup8\n        /* \"contracts/marketplace.sol\":9340:9348  d.jurors */\n      0x09\n      add\n        /* \"contracts/marketplace.sol\":9349:9350  i */\n      dup3\n        /* \"contracts/marketplace.sol\":9340:9351  d.jurors[i] */\n      dup2\n      sload\n      dup2\n      lt\n      tag_350\n      jumpi\n      tag_351\n      tag_198\n      jump\t// in\n    tag_351:\n    tag_350:\n      swap1\n      0x00\n      mstore\n      keccak256(0x00, 0x20)\n      add\n      0x00\n      swap1\n      sload\n      swap1\n      0x0100\n      exp\n      swap1\n      div\n      0xffffffffffffffffffffffffffffffffffffffff\n      and\n        /* \"contracts/marketplace.sol\":9326:9351  address jur = d.jurors[i] */\n      swap1\n      pop\n        /* \"contracts/marketplace.sol\":9369:9370  d */\n      dup8\n        /* \"contracts/marketplace.sol\":9369:9376  d.voted */\n      0x06\n      add\n        /* \"contracts/marketplace.sol\":9369:9381  d.voted[jur] */\n      0x00\n        /* \"contracts/marketplace.sol\":9377:9380  jur */\n      dup3\n        /* \"contracts/marketplace.sol\":9369:9381  d.voted[jur] */\n      0xffffffffffffffffffffffffffffffffffffffff\n      and\n      0xffffffffffffffffffffffffffffffffffffffff\n      and\n      dup2\n      mstore\n      0x20\n      add\n      swap1\n      dup2\n      mstore\n      0x20\n      add\n      0x00\n      keccak256\n      0x00\n      swap1\n      sload\n      swap1\n      0x0100\n      exp\n      swap1\n      div\n      0xff\n      and\n        /* \"contracts/marketplace.sol\":9365:9751  if (d.voted[jur]) {... */\n      iszero\n      tag_353\n      jumpi\n        /* \"contracts/marketplace.sol\":9401:9417  uint256 jurStake */\n      0x00\n        /* \"contracts/marketplace.sol\":9420:9421  d */\n      dup9\n        /* \"contracts/marketplace.sol\":9420:9432  d.jurorStake */\n      0x07\n      add\n        /* \"contracts/marketplace.sol\":9420:9437  d.jurorStake[jur] */\n      0x00\n        /* \"contracts/marketplace.sol\":9433:9436  jur */\n      dup4\n        /* \"contracts/marketplace.sol\":9420:9437  d.jurorStake[jur] */\n      0xffffffffffffffffffffffffffffffffffffffff\n      and\n      0xffffffffffffffffffffffffffffffffffffffff\n      and\n      dup2\n      mstore\n      0x20\n      add\n      swap1\n      dup2\n      mstore\n      0x20\n      add\n      0x00\n      keccak256\n      sload\n        /* \"contracts/marketplace.sol\":9401:9437  uint256 jurStake = d.jurorStake[jur] */\n      swap1\n      pop\n        /* \"contracts/marketplace.sol\":9455:9471  bool jurVotedYes */\n      0x00\n        /* \"contracts/marketplace.sol\":9474:9475  d */\n      dup10\n        /* \"contracts/marketplace.sol\":9474:9482  d.choice */\n      0x08\n      add\n        /* \"contracts/marketplace.sol\":9474:9487  d.choice[jur] */\n      0x00\n        /* \"contracts/marketplace.sol\":9483:9486  jur */\n      dup5\n        /* \"contracts/marketplace.sol\":9474:9487  d.choice[jur] */\n      0xffffffffffffffffffffffffffffffffffffffff\n      and\n      0xffffffffffffffffffffffffffffffffffffffff\n      and\n      dup2\n      mstore\n      0x20\n      add\n      swap1\n      dup2\n      mstore\n      0x20\n      add\n      0x00\n      keccak256\n      0x00\n      swap1\n      sload\n      swap1\n      0x0100\n      exp\n      swap1\n      div\n      0xff\n      and\n        /* \"contracts/marketplace.sol\":9455:9487  bool jurVotedYes = d.choice[jur] */\n      swap1\n      pop\n        /* \"contracts/marketplace.sol\":9510:9529  majoritySaysCorrect */\n      dup11\n        /* \"contracts/marketplace.sol\":9510:9544  majoritySaysCorrect && jurVotedYes */\n      dup1\n      iszero\n      tag_354\n      jumpi\n      pop\n        /* \"contracts/marketplace.sol\":9533:9544  jurVotedYes */\n      dup1\n        /* \"contracts/marketplace.sol\":9510:9544  majoritySaysCorrect && jurVotedYes */\n    tag_354:\n        /* \"contracts/marketplace.sol\":9509:9587  (majoritySaysCorrect && jurVotedYes) || (!majoritySaysCorrect && !jurVotedYes) */\n      dup1\n      tag_355\n      jumpi\n      pop\n        /* \"contracts/marketplace.sol\":9551:9570  majoritySaysCorrect */\n      dup11\n        /* \"contracts/marketplace.sol\":9550:9570  !majoritySaysCorrect */\n      iszero\n        /* \"contracts/marketplace.sol\":9550:9586  !majoritySaysCorrect && !jurVotedYes */\n      dup1\n      iszero\n      tag_356\n      jumpi\n      pop\n        /* \"contracts/marketplace.sol\":9575:9586  jurVotedYes */\n      dup1\n        /* \"contracts/marketplace.sol\":9574:9586  !jurVotedYes */\n      iszero\n        /* \"contracts/marketplace.sol\":9550:9586  !majoritySaysCorrect && !jurVotedYes */\n    tag_356:\n        /* \"contracts/marketplace.sol\":9509:9587  (majoritySaysCorrect && jurVotedYes) || (!majoritySaysCorrect && !jurVotedYes) */\n    tag_355:\n        /* \"contracts/marketplace.sol\":9505:9737  if ((majoritySaysCorrect && jurVotedYes) || (!majoritySaysCorrect && !jurVotedYes)) {... */\n      iszero\n      tag_357\n      jumpi\n        /* \"contracts/marketplace.sol\":9611:9625  uint256 reward */\n      0x00\n        /* \"contracts/marketplace.sol\":9653:9667  majorityWeight */\n      dup6\n        /* \"contracts/marketplace.sol\":9640:9649  jurorPool */\n      dup9\n        /* \"contracts/marketplace.sol\":9629:9637  jurStake */\n      dup5\n        /* \"contracts/marketplace.sol\":9629:9649  jurStake * jurorPool */\n      tag_358\n      swap2\n      swap1\n      tag_251\n      jump\t// in\n    tag_358:\n        /* \"contracts/marketplace.sol\":9628:9667  (jurStake * jurorPool) / majorityWeight */\n      tag_359\n      swap2\n      swap1\n      tag_253\n      jump\t// in\n    tag_359:\n        /* \"contracts/marketplace.sol\":9611:9667  uint256 reward = (jurStake * jurorPool) / majorityWeight */\n      swap1\n      pop\n        /* \"contracts/marketplace.sol\":9697:9700  jur */\n      dup4\n        /* \"contracts/marketplace.sol\":9689:9710  payable(jur).transfer */\n      0xffffffffffffffffffffffffffffffffffffffff\n      and\n        /* \"contracts/marketplace.sol\":9689:9718  payable(jur).transfer(reward) */\n      0x08fc\n        /* \"contracts/marketplace.sol\":9711:9717  reward */\n      dup3\n        /* \"contracts/marketplace.sol\":9689:9718  payable(jur).transfer(reward) */\n      swap1\n      dup2\n      iszero\n      mul\n      swap1\n      mload(0x40)\n      0x00\n      mload(0x40)\n      dup1\n      dup4\n      sub\n      dup2\n      dup6\n      dup9\n      dup9\n      call\n      swap4\n      pop\n      pop\n      pop\n      pop\n      iszero\n      dup1\n      iszero\n      tag_361\n      jumpi\n      returndatacopy(0x00, 0x00, returndatasize)\n      revert(0x00, returndatasize)\n    tag_361:\n      pop\n        /* \"contracts/marketplace.sol\":9589:9737  {... */\n      pop\n        /* \"contracts/marketplace.sol\":9505:9737  if ((majoritySaysCorrect && jurVotedYes) || (!majoritySaysCorrect && !jurVotedYes)) {... */\n    tag_357:\n        /* \"contracts/marketplace.sol\":9383:9751  {... */\n      pop\n      pop\n        /* \"contracts/marketplace.sol\":9365:9751  if (d.voted[jur]) {... */\n    tag_353:\n        /* \"contracts/marketplace.sol\":9312:9761  {... */\n      pop\n        /* \"contracts/marketplace.sol\":9307:9310  i++ */\n      dup1\n      dup1\n      0x01\n      add\n      swap2\n      pop\n      pop\n        /* \"contracts/marketplace.sol\":9266:9761  for (uint256 i = 0; i < d.jurors.length; i++) {... */\n      jump(tag_347)\n    tag_348:\n      pop\n        /* \"contracts/marketplace.sol\":8283:9767  {... */\n      pop\n      pop\n      pop\n      pop\n      pop\n      pop\n        /* \"contracts/marketplace.sol\":8203:9767  function _distributeRewards(uint256 _taskId, bool majoritySaysCorrect) internal {... */\n    tag_326:\n      pop\n      pop\n      jump\t// out\n        /* \"contracts/marketplace.sol\":9773:10367  function _payoutAccepted(uint256 _taskId) internal {... */\n    tag_190:\n        /* \"contracts/marketplace.sol\":9834:9848  Task storage t */\n      0x00\n        /* \"contracts/marketplace.sol\":9851:9856  tasks */\n      0x01\n        /* \"contracts/marketplace.sol\":9851:9865  tasks[_taskId] */\n      0x00\n        /* \"contracts/marketplace.sol\":9857:9864  _taskId */\n      dup4\n        /* \"contracts/marketplace.sol\":9851:9865  tasks[_taskId] */\n      dup2\n      mstore\n      0x20\n      add\n      swap1\n      dup2\n      mstore\n      0x20\n      add\n      0x00\n      keccak256\n        /* \"contracts/marketplace.sol\":9834:9865  Task storage t = tasks[_taskId] */\n      swap1\n      pop\n        /* \"contracts/marketplace.sol\":9875:9892  Dispute storage d */\n      0x00\n        /* \"contracts/marketplace.sol\":9895:9903  disputes */\n      0x02\n        /* \"contracts/marketplace.sol\":9895:9912  disputes[_taskId] */\n      0x00\n        /* \"contracts/marketplace.sol\":9904:9911  _taskId */\n      dup5\n        /* \"contracts/marketplace.sol\":9895:9912  disputes[_taskId] */\n      dup2\n      mstore\n      0x20\n      add\n      swap1\n      dup2\n      mstore\n      0x20\n      add\n      0x00\n      keccak256\n        /* \"contracts/marketplace.sol\":9875:9912  Dispute storage d = disputes[_taskId] */\n      swap1\n      pop\n        /* \"contracts/marketplace.sol\":9933:9952  TaskStatus.Accepted */\n      0x04\n        /* \"contracts/marketplace.sol\":9922:9923  t */\n      dup3\n        /* \"contracts/marketplace.sol\":9922:9930  t.status */\n      0x08\n      add\n      0x00\n        /* \"contracts/marketplace.sol\":9922:9952  t.status = TaskStatus.Accepted */\n      0x0100\n      exp\n      dup2\n      sload\n      dup2\n      0xff\n      mul\n      not\n      and\n      swap1\n      dup4\n      0x05\n      dup2\n      gt\n      iszero\n      tag_363\n      jumpi\n      tag_364\n      tag_152\n      jump\t// in\n    tag_364:\n    tag_363:\n      mul\n      or\n      swap1\n      sstore\n      pop\n        /* \"contracts/marketplace.sol\":9962:9982  uint256 solverReward */\n      0x00\n        /* \"contracts/marketplace.sol\":10003:10006  100 */\n      0x64\n        /* \"contracts/marketplace.sol\":9997:9999  90 */\n      0x5a\n        /* \"contracts/marketplace.sol\":9986:9987  t */\n      dup5\n        /* \"contracts/marketplace.sol\":9986:9994  t.bounty */\n      0x03\n      add\n      sload\n        /* \"contracts/marketplace.sol\":9986:9999  t.bounty * 90 */\n      tag_365\n      swap2\n      swap1\n      tag_251\n      jump\t// in\n    tag_365:\n        /* \"contracts/marketplace.sol\":9985:10006  (t.bounty * 90) / 100 */\n      tag_366\n      swap2\n      swap1\n      tag_253\n      jump\t// in\n    tag_366:\n        /* \"contracts/marketplace.sol\":9962:10006  uint256 solverReward = (t.bounty * 90) / 100 */\n      swap1\n      pop\n        /* \"contracts/marketplace.sol\":10016:10037  uint256 verifierBonus */\n      0x00\n        /* \"contracts/marketplace.sol\":10058:10061  100 */\n      0x64\n        /* \"contracts/marketplace.sol\":10052:10054  10 */\n      0x0a\n        /* \"contracts/marketplace.sol\":10041:10042  t */\n      dup6\n        /* \"contracts/marketplace.sol\":10041:10049  t.bounty */\n      0x03\n      add\n      sload\n        /* \"contracts/marketplace.sol\":10041:10054  t.bounty * 10 */\n      tag_367\n      swap2\n      swap1\n      tag_251\n      jump\t// in\n    tag_367:\n        /* \"contracts/marketplace.sol\":10040:10061  (t.bounty * 10) / 100 */\n      tag_368\n      swap2\n      swap1\n      tag_253\n      jump\t// in\n    tag_368:\n        /* \"contracts/marketplace.sol\":10016:10061  uint256 verifierBonus = (t.bounty * 10) / 100 */\n      swap1\n      pop\n        /* \"contracts/marketplace.sol\":10079:10080  t */\n      dup4\n        /* \"contracts/marketplace.sol\":10079:10087  t.solver */\n      0x01\n      add\n      0x00\n      swap1\n      sload\n      swap1\n      0x0100\n      exp\n      swap1\n      div\n      0xffffffffffffffffffffffffffffffffffffffff\n      and\n        /* \"contracts/marketplace.sol\":10071:10097  payable(t.solver).transfer */\n      0xffffffffffffffffffffffffffffffffffffffff\n      and\n        /* \"contracts/marketplace.sol\":10071:10124  payable(t.solver).transfer(solverReward + submitCost) */\n      0x08fc\n        /* \"contracts/marketplace.sol\":10113:10123  submitCost */\n      sload(0x03)\n        /* \"contracts/marketplace.sol\":10098:10110  solverReward */\n      dup5\n        /* \"contracts/marketplace.sol\":10098:10123  solverReward + submitCost */\n      tag_369\n      swap2\n      swap1\n      tag_116\n      jump\t// in\n    tag_369:\n        /* \"contracts/marketplace.sol\":10071:10124  payable(t.solver).transfer(solverReward + submitCost) */\n      swap1\n      dup2\n      iszero\n      mul\n      swap1\n      mload(0x40)\n      0x00\n      mload(0x40)\n      dup1\n      dup4\n      sub\n      dup2\n      dup6\n      dup9\n      dup9\n      call\n      swap4\n      pop\n      pop\n      pop\n      pop\n      iszero\n      dup1\n      iszero\n      tag_371\n      jumpi\n      returndatacopy(0x00, 0x00, returndatasize)\n      revert(0x00, returndatasize)\n    tag_371:\n      pop\n        /* \"contracts/marketplace.sol\":10138:10139  t */\n      dup4\n        /* \"contracts/marketplace.sol\":10138:10148  t.approved */\n      0x06\n      add\n      0x00\n      swap1\n      sload\n      swap1\n      0x0100\n      exp\n      swap1\n      div\n      0xff\n      and\n        /* \"contracts/marketplace.sol\":10134:10318  if (t.approved) {... */\n      iszero\n      tag_372\n      jumpi\n        /* \"contracts/marketplace.sol\":10172:10173  t */\n      dup4\n        /* \"contracts/marketplace.sol\":10172:10182  t.verifier */\n      0x02\n      add\n      0x00\n      swap1\n      sload\n      swap1\n      0x0100\n      exp\n      swap1\n      div\n      0xffffffffffffffffffffffffffffffffffffffff\n      and\n        /* \"contracts/marketplace.sol\":10164:10192  payable(t.verifier).transfer */\n      0xffffffffffffffffffffffffffffffffffffffff\n      and\n        /* \"contracts/marketplace.sol\":10164:10220  payable(t.verifier).transfer(verifierBonus + verifyCost) */\n      0x08fc\n        /* \"contracts/marketplace.sol\":10209:10219  verifyCost */\n      sload(0x04)\n        /* \"contracts/marketplace.sol\":10193:10206  verifierBonus */\n      dup4\n        /* \"contracts/marketplace.sol\":10193:10219  verifierBonus + verifyCost */\n      tag_373\n      swap2\n      swap1\n      tag_116\n      jump\t// in\n    tag_373:\n        /* \"contracts/marketplace.sol\":10164:10220  payable(t.verifier).transfer(verifierBonus + verifyCost) */\n      swap1\n      dup2\n      iszero\n      mul\n      swap1\n      mload(0x40)\n      0x00\n      mload(0x40)\n      dup1\n      dup4\n      sub\n      dup2\n      dup6\n      dup9\n      dup9\n      call\n      swap4\n      pop\n      pop\n      pop\n      pop\n      iszero\n      dup1\n      iszero\n      tag_375\n      jumpi\n      returndatacopy(0x00, 0x00, returndatasize)\n      revert(0x00, returndatasize)\n    tag_375:\n      pop\n        /* \"contracts/marketplace.sol\":10134:10318  if (t.approved) {... */\n      jump(tag_376)\n    tag_372:\n        /* \"contracts/marketplace.sol\":10259:10260  d */\n      dup3\n        /* \"contracts/marketplace.sol\":10259:10269  d.objector */\n      0x00\n      add\n      0x01\n      swap1\n      sload\n      swap1\n      0x0100\n      exp\n      swap1\n      div\n      0xffffffffffffffffffffffffffffffffffffffff\n      and\n        /* \"contracts/marketplace.sol\":10251:10279  payable(d.objector).transfer */\n      0xffffffffffffffffffffffffffffffffffffffff\n      and\n        /* \"contracts/marketplace.sol\":10251:10307  payable(d.objector).transfer(verifierBonus + verifyCost) */\n      0x08fc\n        /* \"contracts/marketplace.sol\":10296:10306  verifyCost */\n      sload(0x04)\n        /* \"contracts/marketplace.sol\":10280:10293  verifierBonus */\n      dup4\n        /* \"contracts/marketplace.sol\":10280:10306  verifierBonus + verifyCost */\n      tag_377\n      swap2\n      swap1\n      tag_116\n      jump\t// in\n    tag_377:\n        /* \"contracts/marketplace.sol\":10251:10307  payable(d.objector).transfer(verifierBonus + verifyCost) */\n      swap1\n      dup2\n      iszero\n      mul\n      swap1\n      mload(0x40)\n      0x00\n      mload(0x40)\n      dup1\n      dup4\n      sub\n      dup2\n      dup6\n      dup9\n      dup9\n      call\n      swap4\n      pop\n      pop\n      pop\n      pop\n      iszero\n      dup1\n      iszero\n      tag_379\n      jumpi\n      returndatacopy(0x00, 0x00, returndatasize)\n      revert(0x00, returndatasize)\n    tag_379:\n      pop\n        /* \"contracts/marketplace.sol\":10134:10318  if (t.approved) {... */\n    tag_376:\n        /* \"contracts/marketplace.sol\":10332:10360  TaskFinalized(_taskId, true) */\n      0x9deada0165c5e1eac62423dbf1dd30115314b076a9d6d3868daf316f1cb285e9\n        /* \"contracts/marketplace.sol\":10346:10353  _taskId */\n      dup6\n        /* \"contracts/marketplace.sol\":10355:10359  true */\n      0x01\n        /* \"contracts/marketplace.sol\":10332:10360  TaskFinalized(_taskId, true) */\n      mload(0x40)\n      tag_380\n      swap3\n      swap2\n      swap1\n      tag_216\n      jump\t// in\n    tag_380:\n      mload(0x40)\n      dup1\n      swap2\n      sub\n      swap1\n      log1\n        /* \"contracts/marketplace.sol\":9824:10367  {... */\n      pop\n      pop\n      pop\n      pop\n        /* \"contracts/marketplace.sol\":9773:10367  function _payoutAccepted(uint256 _taskId) internal {... */\n      pop\n      jump\t// out\n        /* \"#utility.yul\":88:205   */\n    tag_382:\n        /* \"#utility.yul\":197:198   */\n      0x00\n        /* \"#utility.yul\":194:195   */\n      0x00\n        /* \"#utility.yul\":187:199   */\n      revert\n        /* \"#utility.yul\":211:328   */\n    tag_383:\n        /* \"#utility.yul\":320:321   */\n      0x00\n        /* \"#utility.yul\":317:318   */\n      0x00\n        /* \"#utility.yul\":310:322   */\n      revert\n        /* \"#utility.yul\":334:411   */\n    tag_384:\n        /* \"#utility.yul\":371:378   */\n      0x00\n        /* \"#utility.yul\":400:405   */\n      dup2\n        /* \"#utility.yul\":389:405   */\n      swap1\n      pop\n        /* \"#utility.yul\":334:411   */\n      swap2\n      swap1\n      pop\n      jump\t// out\n        /* \"#utility.yul\":417:539   */\n    tag_385:\n        /* \"#utility.yul\":490:514   */\n      tag_491\n        /* \"#utility.yul\":508:513   */\n      dup2\n        /* \"#utility.yul\":490:514   */\n      tag_384\n      jump\t// in\n    tag_491:\n        /* \"#utility.yul\":483:488   */\n      dup2\n        /* \"#utility.yul\":480:515   */\n      eq\n        /* \"#utility.yul\":470:533   */\n      tag_492\n      jumpi\n        /* \"#utility.yul\":529:530   */\n      0x00\n        /* \"#utility.yul\":526:527   */\n      0x00\n        /* \"#utility.yul\":519:531   */\n      revert\n        /* \"#utility.yul\":470:533   */\n    tag_492:\n        /* \"#utility.yul\":417:539   */\n      pop\n      jump\t// out\n        /* \"#utility.yul\":545:684   */\n    tag_386:\n        /* \"#utility.yul\":591:596   */\n      0x00\n        /* \"#utility.yul\":629:635   */\n      dup2\n        /* \"#utility.yul\":616:636   */\n      calldataload\n        /* \"#utility.yul\":607:636   */\n      swap1\n      pop\n        /* \"#utility.yul\":645:678   */\n      tag_494\n        /* \"#utility.yul\":672:677   */\n      dup2\n        /* \"#utility.yul\":645:678   */\n      tag_385\n      jump\t// in\n    tag_494:\n        /* \"#utility.yul\":545:684   */\n      swap3\n      swap2\n      pop\n      pop\n      jump\t// out\n        /* \"#utility.yul\":690:1019   */\n    tag_22:\n        /* \"#utility.yul\":749:755   */\n      0x00\n        /* \"#utility.yul\":798:800   */\n      0x20\n        /* \"#utility.yul\":786:795   */\n      dup3\n        /* \"#utility.yul\":777:784   */\n      dup5\n        /* \"#utility.yul\":773:796   */\n      sub\n        /* \"#utility.yul\":769:801   */\n      slt\n        /* \"#utility.yul\":766:885   */\n      iszero\n      tag_496\n      jumpi\n        /* \"#utility.yul\":804:883   */\n      tag_497\n      tag_382\n      jump\t// in\n    tag_497:\n        /* \"#utility.yul\":766:885   */\n    tag_496:\n        /* \"#utility.yul\":924:925   */\n      0x00\n        /* \"#utility.yul\":949:1002   */\n      tag_498\n        /* \"#utility.yul\":994:1001   */\n      dup5\n        /* \"#utility.yul\":985:991   */\n      dup3\n        /* \"#utility.yul\":974:983   */\n      dup6\n        /* \"#utility.yul\":970:992   */\n      add\n        /* \"#utility.yul\":949:1002   */\n      tag_386\n      jump\t// in\n    tag_498:\n        /* \"#utility.yul\":939:1002   */\n      swap2\n      pop\n        /* \"#utility.yul\":895:1012   */\n      pop\n        /* \"#utility.yul\":690:1019   */\n      swap3\n      swap2\n      pop\n      pop\n      jump\t// out\n        /* \"#utility.yul\":1025:1143   */\n    tag_387:\n        /* \"#utility.yul\":1112:1136   */\n      tag_500\n        /* \"#utility.yul\":1130:1135   */\n      dup2\n        /* \"#utility.yul\":1112:1136   */\n      tag_384\n      jump\t// in\n    tag_500:\n        /* \"#utility.yul\":1107:1110   */\n      dup3\n        /* \"#utility.yul\":1100:1137   */\n      mstore\n        /* \"#utility.yul\":1025:1143   */\n      pop\n      pop\n      jump\t// out\n        /* \"#utility.yul\":1149:1371   */\n    tag_25:\n        /* \"#utility.yul\":1242:1246   */\n      0x00\n        /* \"#utility.yul\":1280:1282   */\n      0x20\n        /* \"#utility.yul\":1269:1278   */\n      dup3\n        /* \"#utility.yul\":1265:1283   */\n      add\n        /* \"#utility.yul\":1257:1283   */\n      swap1\n      pop\n        /* \"#utility.yul\":1293:1364   */\n      tag_502\n        /* \"#utility.yul\":1361:1362   */\n      0x00\n        /* \"#utility.yul\":1350:1359   */\n      dup4\n        /* \"#utility.yul\":1346:1363   */\n      add\n        /* \"#utility.yul\":1337:1343   */\n      dup5\n        /* \"#utility.yul\":1293:1364   */\n      tag_387\n      jump\t// in\n    tag_502:\n        /* \"#utility.yul\":1149:1371   */\n      swap3\n      swap2\n      pop\n      pop\n      jump\t// out\n        /* \"#utility.yul\":1377:1503   */\n    tag_388:\n        /* \"#utility.yul\":1414:1421   */\n      0x00\n        /* \"#utility.yul\":1454:1496   */\n      0xffffffffffffffffffffffffffffffffffffffff\n        /* \"#utility.yul\":1447:1452   */\n      dup3\n        /* \"#utility.yul\":1443:1497   */\n      and\n        /* \"#utility.yul\":1432:1497   */\n      swap1\n      pop\n        /* \"#utility.yul\":1377:1503   */\n      swap2\n      swap1\n      pop\n      jump\t// out\n        /* \"#utility.yul\":1509:1605   */\n    tag_389:\n        /* \"#utility.yul\":1546:1553   */\n      0x00\n        /* \"#utility.yul\":1575:1599   */\n      tag_505\n        /* \"#utility.yul\":1593:1598   */\n      dup3\n        /* \"#utility.yul\":1575:1599   */\n      tag_388\n      jump\t// in\n    tag_505:\n        /* \"#utility.yul\":1564:1599   */\n      swap1\n      pop\n        /* \"#utility.yul\":1509:1605   */\n      swap2\n      swap1\n      pop\n      jump\t// out\n        /* \"#utility.yul\":1611:1729   */\n    tag_390:\n        /* \"#utility.yul\":1698:1722   */\n      tag_507\n        /* \"#utility.yul\":1716:1721   */\n      dup2\n        /* \"#utility.yul\":1698:1722   */\n      tag_389\n      jump\t// in\n    tag_507:\n        /* \"#utility.yul\":1693:1696   */\n      dup3\n        /* \"#utility.yul\":1686:1723   */\n      mstore\n        /* \"#utility.yul\":1611:1729   */\n      pop\n      pop\n      jump\t// out\n        /* \"#utility.yul\":1735:1834   */\n    tag_391:\n        /* \"#utility.yul\":1787:1793   */\n      0x00\n        /* \"#utility.yul\":1821:1826   */\n      dup2\n        /* \"#utility.yul\":1815:1827   */\n      mload\n        /* \"#utility.yul\":1805:1827   */\n      swap1\n      pop\n        /* \"#utility.yul\":1735:1834   */\n      swap2\n      swap1\n      pop\n      jump\t// out\n        /* \"#utility.yul\":1840:2009   */\n    tag_392:\n        /* \"#utility.yul\":1924:1935   */\n      0x00\n        /* \"#utility.yul\":1958:1964   */\n      dup3\n        /* \"#utility.yul\":1953:1956   */\n      dup3\n        /* \"#utility.yul\":1946:1965   */\n      mstore\n        /* \"#utility.yul\":1998:2002   */\n      0x20\n        /* \"#utility.yul\":1993:1996   */\n      dup3\n        /* \"#utility.yul\":1989:2003   */\n      add\n        /* \"#utility.yul\":1974:2003   */\n      swap1\n      pop\n        /* \"#utility.yul\":1840:2009   */\n      swap3\n      swap2\n      pop\n      pop\n      jump\t// out\n        /* \"#utility.yul\":2015:2154   */\n    tag_393:\n        /* \"#utility.yul\":2104:2110   */\n      dup3\n        /* \"#utility.yul\":2099:2102   */\n      dup2\n        /* \"#utility.yul\":2094:2097   */\n      dup4\n        /* \"#utility.yul\":2088:2111   */\n      mcopy\n        /* \"#utility.yul\":2145:2146   */\n      0x00\n        /* \"#utility.yul\":2136:2142   */\n      dup4\n        /* \"#utility.yul\":2131:2134   */\n      dup4\n        /* \"#utility.yul\":2127:2143   */\n      add\n        /* \"#utility.yul\":2120:2147   */\n      mstore\n        /* \"#utility.yul\":2015:2154   */\n      pop\n      pop\n      pop\n      jump\t// out\n        /* \"#utility.yul\":2160:2262   */\n    tag_394:\n        /* \"#utility.yul\":2201:2207   */\n      0x00\n        /* \"#utility.yul\":2252:2254   */\n      0x1f\n        /* \"#utility.yul\":2248:2255   */\n      not\n        /* \"#utility.yul\":2243:2245   */\n      0x1f\n        /* \"#utility.yul\":2236:2241   */\n      dup4\n        /* \"#utility.yul\":2232:2246   */\n      add\n        /* \"#utility.yul\":2228:2256   */\n      and\n        /* \"#utility.yul\":2218:2256   */\n      swap1\n      pop\n        /* \"#utility.yul\":2160:2262   */\n      swap2\n      swap1\n      pop\n      jump\t// out\n        /* \"#utility.yul\":2268:2645   */\n    tag_395:\n        /* \"#utility.yul\":2356:2359   */\n      0x00\n        /* \"#utility.yul\":2384:2423   */\n      tag_513\n        /* \"#utility.yul\":2417:2422   */\n      dup3\n        /* \"#utility.yul\":2384:2423   */\n      tag_391\n      jump\t// in\n    tag_513:\n        /* \"#utility.yul\":2439:2510   */\n      tag_514\n        /* \"#utility.yul\":2503:2509   */\n      dup2\n        /* \"#utility.yul\":2498:2501   */\n      dup6\n        /* \"#utility.yul\":2439:2510   */\n      tag_392\n      jump\t// in\n    tag_514:\n        /* \"#utility.yul\":2432:2510   */\n      swap4\n      pop\n        /* \"#utility.yul\":2519:2584   */\n      tag_515\n        /* \"#utility.yul\":2577:2583   */\n      dup2\n        /* \"#utility.yul\":2572:2575   */\n      dup6\n        /* \"#utility.yul\":2565:2569   */\n      0x20\n        /* \"#utility.yul\":2558:2563   */\n      dup7\n        /* \"#utility.yul\":2554:2570   */\n      add\n        /* \"#utility.yul\":2519:2584   */\n      tag_393\n      jump\t// in\n    tag_515:\n        /* \"#utility.yul\":2609:2638   */\n      tag_516\n        /* \"#utility.yul\":2631:2637   */\n      dup2\n        /* \"#utility.yul\":2609:2638   */\n      tag_394\n      jump\t// in\n    tag_516:\n        /* \"#utility.yul\":2604:2607   */\n      dup5\n        /* \"#utility.yul\":2600:2639   */\n      add\n        /* \"#utility.yul\":2593:2639   */\n      swap2\n      pop\n        /* \"#utility.yul\":2360:2645   */\n      pop\n        /* \"#utility.yul\":2268:2645   */\n      swap3\n      swap2\n      pop\n      pop\n      jump\t// out\n        /* \"#utility.yul\":2651:2741   */\n    tag_396:\n        /* \"#utility.yul\":2685:2692   */\n      0x00\n        /* \"#utility.yul\":2728:2733   */\n      dup2\n        /* \"#utility.yul\":2721:2734   */\n      iszero\n        /* \"#utility.yul\":2714:2735   */\n      iszero\n        /* \"#utility.yul\":2703:2735   */\n      swap1\n      pop\n        /* \"#utility.yul\":2651:2741   */\n      swap2\n      swap1\n      pop\n      jump\t// out\n        /* \"#utility.yul\":2747:2856   */\n    tag_397:\n        /* \"#utility.yul\":2828:2849   */\n      tag_519\n        /* \"#utility.yul\":2843:2848   */\n      dup2\n        /* \"#utility.yul\":2828:2849   */\n      tag_396\n      jump\t// in\n    tag_519:\n        /* \"#utility.yul\":2823:2826   */\n      dup3\n        /* \"#utility.yul\":2816:2850   */\n      mstore\n        /* \"#utility.yul\":2747:2856   */\n      pop\n      pop\n      jump\t// out\n        /* \"#utility.yul\":2862:3042   */\n    tag_152:\n        /* \"#utility.yul\":2910:2987   */\n      0x4e487b7100000000000000000000000000000000000000000000000000000000\n        /* \"#utility.yul\":2907:2908   */\n      0x00\n        /* \"#utility.yul\":2900:2988   */\n      mstore\n        /* \"#utility.yul\":3007:3011   */\n      0x21\n        /* \"#utility.yul\":3004:3005   */\n      0x04\n        /* \"#utility.yul\":2997:3012   */\n      mstore\n        /* \"#utility.yul\":3031:3035   */\n      0x24\n        /* \"#utility.yul\":3028:3029   */\n      0x00\n        /* \"#utility.yul\":3021:3036   */\n      revert\n        /* \"#utility.yul\":3048:3166   */\n    tag_398:\n        /* \"#utility.yul\":3134:3135   */\n      0x06\n        /* \"#utility.yul\":3127:3132   */\n      dup2\n        /* \"#utility.yul\":3124:3136   */\n      lt\n        /* \"#utility.yul\":3114:3160   */\n      tag_522\n      jumpi\n        /* \"#utility.yul\":3140:3158   */\n      tag_523\n      tag_152\n      jump\t// in\n    tag_523:\n        /* \"#utility.yul\":3114:3160   */\n    tag_522:\n        /* \"#utility.yul\":3048:3166   */\n      pop\n      jump\t// out\n        /* \"#utility.yul\":3172:3309   */\n    tag_399:\n        /* \"#utility.yul\":3222:3229   */\n      0x00\n        /* \"#utility.yul\":3251:3256   */\n      dup2\n        /* \"#utility.yul\":3240:3256   */\n      swap1\n      pop\n        /* \"#utility.yul\":3257:3303   */\n      tag_525\n        /* \"#utility.yul\":3297:3302   */\n      dup3\n        /* \"#utility.yul\":3257:3303   */\n      tag_398\n      jump\t// in\n    tag_525:\n        /* \"#utility.yul\":3172:3309   */\n      swap2\n      swap1\n      pop\n      jump\t// out\n        /* \"#utility.yul\":3315:3452   */\n    tag_400:\n        /* \"#utility.yul\":3376:3385   */\n      0x00\n        /* \"#utility.yul\":3409:3446   */\n      tag_527\n        /* \"#utility.yul\":3440:3445   */\n      dup3\n        /* \"#utility.yul\":3409:3446   */\n      tag_399\n      jump\t// in\n    tag_527:\n        /* \"#utility.yul\":3396:3446   */\n      swap1\n      pop\n        /* \"#utility.yul\":3315:3452   */\n      swap2\n      swap1\n      pop\n      jump\t// out\n        /* \"#utility.yul\":3458:3611   */\n    tag_401:\n        /* \"#utility.yul\":3556:3604   */\n      tag_529\n        /* \"#utility.yul\":3598:3603   */\n      dup2\n        /* \"#utility.yul\":3556:3604   */\n      tag_400\n      jump\t// in\n    tag_529:\n        /* \"#utility.yul\":3551:3554   */\n      dup3\n        /* \"#utility.yul\":3544:3605   */\n      mstore\n        /* \"#utility.yul\":3458:3611   */\n      pop\n      pop\n      jump\t// out\n        /* \"#utility.yul\":3617:4917   */\n    tag_31:\n        /* \"#utility.yul\":3979:3983   */\n      0x00\n        /* \"#utility.yul\":4017:4020   */\n      0x0120\n        /* \"#utility.yul\":4006:4015   */\n      dup3\n        /* \"#utility.yul\":4002:4021   */\n      add\n        /* \"#utility.yul\":3994:4021   */\n      swap1\n      pop\n        /* \"#utility.yul\":4031:4102   */\n      tag_531\n        /* \"#utility.yul\":4099:4100   */\n      0x00\n        /* \"#utility.yul\":4088:4097   */\n      dup4\n        /* \"#utility.yul\":4084:4101   */\n      add\n        /* \"#utility.yul\":4075:4081   */\n      dup13\n        /* \"#utility.yul\":4031:4102   */\n      tag_390\n      jump\t// in\n    tag_531:\n        /* \"#utility.yul\":4112:4184   */\n      tag_532\n        /* \"#utility.yul\":4180:4182   */\n      0x20\n        /* \"#utility.yul\":4169:4178   */\n      dup4\n        /* \"#utility.yul\":4165:4183   */\n      add\n        /* \"#utility.yul\":4156:4162   */\n      dup12\n        /* \"#utility.yul\":4112:4184   */\n      tag_390\n      jump\t// in\n    tag_532:\n        /* \"#utility.yul\":4194:4266   */\n      tag_533\n        /* \"#utility.yul\":4262:4264   */\n      0x40\n        /* \"#utility.yul\":4251:4260   */\n      dup4\n        /* \"#utility.yul\":4247:4265   */\n      add\n        /* \"#utility.yul\":4238:4244   */\n      dup11\n        /* \"#utility.yul\":4194:4266   */\n      tag_390\n      jump\t// in\n    tag_533:\n        /* \"#utility.yul\":4276:4348   */\n      tag_534\n        /* \"#utility.yul\":4344:4346   */\n      0x60\n        /* \"#utility.yul\":4333:4342   */\n      dup4\n        /* \"#utility.yul\":4329:4347   */\n      add\n        /* \"#utility.yul\":4320:4326   */\n      dup10\n        /* \"#utility.yul\":4276:4348   */\n      tag_387\n      jump\t// in\n    tag_534:\n        /* \"#utility.yul\":4396:4405   */\n      dup2\n        /* \"#utility.yul\":4390:4394   */\n      dup2\n        /* \"#utility.yul\":4386:4406   */\n      sub\n        /* \"#utility.yul\":4380:4383   */\n      0x80\n        /* \"#utility.yul\":4369:4378   */\n      dup4\n        /* \"#utility.yul\":4365:4384   */\n      add\n        /* \"#utility.yul\":4358:4407   */\n      mstore\n        /* \"#utility.yul\":4424:4502   */\n      tag_535\n        /* \"#utility.yul\":4497:4501   */\n      dup2\n        /* \"#utility.yul\":4488:4494   */\n      dup9\n        /* \"#utility.yul\":4424:4502   */\n      tag_395\n      jump\t// in\n    tag_535:\n        /* \"#utility.yul\":4416:4502   */\n      swap1\n      pop\n        /* \"#utility.yul\":4550:4559   */\n      dup2\n        /* \"#utility.yul\":4544:4548   */\n      dup2\n        /* \"#utility.yul\":4540:4560   */\n      sub\n        /* \"#utility.yul\":4534:4537   */\n      0xa0\n        /* \"#utility.yul\":4523:4532   */\n      dup4\n        /* \"#utility.yul\":4519:4538   */\n      add\n        /* \"#utility.yul\":4512:4561   */\n      mstore\n        /* \"#utility.yul\":4578:4656   */\n      tag_536\n        /* \"#utility.yul\":4651:4655   */\n      dup2\n        /* \"#utility.yul\":4642:4648   */\n      dup8\n        /* \"#utility.yul\":4578:4656   */\n      tag_395\n      jump\t// in\n    tag_536:\n        /* \"#utility.yul\":4570:4656   */\n      swap1\n      pop\n        /* \"#utility.yul\":4666:4733   */\n      tag_537\n        /* \"#utility.yul\":4728:4731   */\n      0xc0\n        /* \"#utility.yul\":4717:4726   */\n      dup4\n        /* \"#utility.yul\":4713:4732   */\n      add\n        /* \"#utility.yul\":4704:4710   */\n      dup7\n        /* \"#utility.yul\":4666:4733   */\n      tag_397\n      jump\t// in\n    tag_537:\n        /* \"#utility.yul\":4743:4816   */\n      tag_538\n        /* \"#utility.yul\":4811:4814   */\n      0xe0\n        /* \"#utility.yul\":4800:4809   */\n      dup4\n        /* \"#utility.yul\":4796:4815   */\n      add\n        /* \"#utility.yul\":4787:4793   */\n      dup6\n        /* \"#utility.yul\":4743:4816   */\n      tag_387\n      jump\t// in\n    tag_538:\n        /* \"#utility.yul\":4826:4910   */\n      tag_539\n        /* \"#utility.yul\":4905:4908   */\n      0x0100\n        /* \"#utility.yul\":4894:4903   */\n      dup4\n        /* \"#utility.yul\":4890:4909   */\n      add\n        /* \"#utility.yul\":4881:4887   */\n      dup5\n        /* \"#utility.yul\":4826:4910   */\n      tag_401\n      jump\t// in\n    tag_539:\n        /* \"#utility.yul\":3617:4917   */\n      swap11\n      swap10\n      pop\n      pop\n      pop\n      pop\n      pop\n      pop\n      pop\n      pop\n      pop\n      pop\n      jump\t// out\n        /* \"#utility.yul\":4923:5039   */\n    tag_402:\n        /* \"#utility.yul\":4993:5014   */\n      tag_541\n        /* \"#utility.yul\":5008:5013   */\n      dup2\n        /* \"#utility.yul\":4993:5014   */\n      tag_396\n      jump\t// in\n    tag_541:\n        /* \"#utility.yul\":4986:4991   */\n      dup2\n        /* \"#utility.yul\":4983:5015   */\n      eq\n        /* \"#utility.yul\":4973:5033   */\n      tag_542\n      jumpi\n        /* \"#utility.yul\":5029:5030   */\n      0x00\n        /* \"#utility.yul\":5026:5027   */\n      0x00\n        /* \"#utility.yul\":5019:5031   */\n      revert\n        /* \"#utility.yul\":4973:5033   */\n    tag_542:\n        /* \"#utility.yul\":4923:5039   */\n      pop\n      jump\t// out\n        /* \"#utility.yul\":5045:5178   */\n    tag_403:\n        /* \"#utility.yul\":5088:5093   */\n      0x00\n        /* \"#utility.yul\":5126:5132   */\n      dup2\n        /* \"#utility.yul\":5113:5133   */\n      calldataload\n        /* \"#utility.yul\":5104:5133   */\n      swap1\n      pop\n        /* \"#utility.yul\":5142:5172   */\n      tag_544\n        /* \"#utility.yul\":5166:5171   */\n      dup2\n        /* \"#utility.yul\":5142:5172   */\n      tag_402\n      jump\t// in\n    tag_544:\n        /* \"#utility.yul\":5045:5178   */\n      swap3\n      swap2\n      pop\n      pop\n      jump\t// out\n        /* \"#utility.yul\":5184:5797   */\n    tag_35:\n        /* \"#utility.yul\":5258:5264   */\n      0x00\n        /* \"#utility.yul\":5266:5272   */\n      0x00\n        /* \"#utility.yul\":5274:5280   */\n      0x00\n        /* \"#utility.yul\":5323:5325   */\n      0x60\n        /* \"#utility.yul\":5311:5320   */\n      dup5\n        /* \"#utility.yul\":5302:5309   */\n      dup7\n        /* \"#utility.yul\":5298:5321   */\n      sub\n        /* \"#utility.yul\":5294:5326   */\n      slt\n        /* \"#utility.yul\":5291:5410   */\n      iszero\n      tag_546\n      jumpi\n        /* \"#utility.yul\":5329:5408   */\n      tag_547\n      tag_382\n      jump\t// in\n    tag_547:\n        /* \"#utility.yul\":5291:5410   */\n    tag_546:\n        /* \"#utility.yul\":5449:5450   */\n      0x00\n        /* \"#utility.yul\":5474:5527   */\n      tag_548\n        /* \"#utility.yul\":5519:5526   */\n      dup7\n        /* \"#utility.yul\":5510:5516   */\n      dup3\n        /* \"#utility.yul\":5499:5508   */\n      dup8\n        /* \"#utility.yul\":5495:5517   */\n      add\n        /* \"#utility.yul\":5474:5527   */\n      tag_386\n      jump\t// in\n    tag_548:\n        /* \"#utility.yul\":5464:5527   */\n      swap4\n      pop\n        /* \"#utility.yul\":5420:5537   */\n      pop\n        /* \"#utility.yul\":5576:5578   */\n      0x20\n        /* \"#utility.yul\":5602:5655   */\n      tag_549\n        /* \"#utility.yul\":5647:5654   */\n      dup7\n        /* \"#utility.yul\":5638:5644   */\n      dup3\n        /* \"#utility.yul\":5627:5636   */\n      dup8\n        /* \"#utility.yul\":5623:5645   */\n      add\n        /* \"#utility.yul\":5602:5655   */\n      tag_386\n      jump\t// in\n    tag_549:\n        /* \"#utility.yul\":5592:5655   */\n      swap3\n      pop\n        /* \"#utility.yul\":5547:5665   */\n      pop\n        /* \"#utility.yul\":5704:5706   */\n      0x40\n        /* \"#utility.yul\":5730:5780   */\n      tag_550\n        /* \"#utility.yul\":5772:5779   */\n      dup7\n        /* \"#utility.yul\":5763:5769   */\n      dup3\n        /* \"#utility.yul\":5752:5761   */\n      dup8\n        /* \"#utility.yul\":5748:5770   */\n      add\n        /* \"#utility.yul\":5730:5780   */\n      tag_403\n      jump\t// in\n    tag_550:\n        /* \"#utility.yul\":5720:5780   */\n      swap2\n      pop\n        /* \"#utility.yul\":5675:5790   */\n      pop\n        /* \"#utility.yul\":5184:5797   */\n      swap3\n      pop\n      swap3\n      pop\n      swap3\n      jump\t// out\n        /* \"#utility.yul\":5803:6271   */\n    tag_63:\n        /* \"#utility.yul\":5868:5874   */\n      0x00\n        /* \"#utility.yul\":5876:5882   */\n      0x00\n        /* \"#utility.yul\":5925:5927   */\n      0x40\n        /* \"#utility.yul\":5913:5922   */\n      dup4\n        /* \"#utility.yul\":5904:5911   */\n      dup6\n        /* \"#utility.yul\":5900:5923   */\n      sub\n        /* \"#utility.yul\":5896:5928   */\n      slt\n        /* \"#utility.yul\":5893:6012   */\n      iszero\n      tag_552\n      jumpi\n        /* \"#utility.yul\":5931:6010   */\n      tag_553\n      tag_382\n      jump\t// in\n    tag_553:\n        /* \"#utility.yul\":5893:6012   */\n    tag_552:\n        /* \"#utility.yul\":6051:6052   */\n      0x00\n        /* \"#utility.yul\":6076:6129   */\n      tag_554\n        /* \"#utility.yul\":6121:6128   */\n      dup6\n        /* \"#utility.yul\":6112:6118   */\n      dup3\n        /* \"#utility.yul\":6101:6110   */\n      dup7\n        /* \"#utility.yul\":6097:6119   */\n      add\n        /* \"#utility.yul\":6076:6129   */\n      tag_386\n      jump\t// in\n    tag_554:\n        /* \"#utility.yul\":6066:6129   */\n      swap3\n      pop\n        /* \"#utility.yul\":6022:6139   */\n      pop\n        /* \"#utility.yul\":6178:6180   */\n      0x20\n        /* \"#utility.yul\":6204:6254   */\n      tag_555\n        /* \"#utility.yul\":6246:6253   */\n      dup6\n        /* \"#utility.yul\":6237:6243   */\n      dup3\n        /* \"#utility.yul\":6226:6235   */\n      dup7\n        /* \"#utility.yul\":6222:6244   */\n      add\n        /* \"#utility.yul\":6204:6254   */\n      tag_403\n      jump\t// in\n    tag_555:\n        /* \"#utility.yul\":6194:6254   */\n      swap2\n      pop\n        /* \"#utility.yul\":6149:6264   */\n      pop\n        /* \"#utility.yul\":5803:6271   */\n      swap3\n      pop\n      swap3\n      swap1\n      pop\n      jump\t// out\n        /* \"#utility.yul\":6277:6394   */\n    tag_404:\n        /* \"#utility.yul\":6386:6387   */\n      0x00\n        /* \"#utility.yul\":6383:6384   */\n      0x00\n        /* \"#utility.yul\":6376:6388   */\n      revert\n        /* \"#utility.yul\":6400:6517   */\n    tag_405:\n        /* \"#utility.yul\":6509:6510   */\n      0x00\n        /* \"#utility.yul\":6506:6507   */\n      0x00\n        /* \"#utility.yul\":6499:6511   */\n      revert\n        /* \"#utility.yul\":6523:6640   */\n    tag_406:\n        /* \"#utility.yul\":6632:6633   */\n      0x00\n        /* \"#utility.yul\":6629:6630   */\n      0x00\n        /* \"#utility.yul\":6622:6634   */\n      revert\n        /* \"#utility.yul\":6660:7213   */\n    tag_407:\n        /* \"#utility.yul\":6718:6726   */\n      0x00\n        /* \"#utility.yul\":6728:6734   */\n      0x00\n        /* \"#utility.yul\":6778:6781   */\n      dup4\n        /* \"#utility.yul\":6771:6775   */\n      0x1f\n        /* \"#utility.yul\":6763:6769   */\n      dup5\n        /* \"#utility.yul\":6759:6776   */\n      add\n        /* \"#utility.yul\":6755:6782   */\n      slt\n        /* \"#utility.yul\":6745:6867   */\n      tag_560\n      jumpi\n        /* \"#utility.yul\":6786:6865   */\n      tag_561\n      tag_404\n      jump\t// in\n    tag_561:\n        /* \"#utility.yul\":6745:6867   */\n    tag_560:\n        /* \"#utility.yul\":6899:6905   */\n      dup3\n        /* \"#utility.yul\":6886:6906   */\n      calldataload\n        /* \"#utility.yul\":6876:6906   */\n      swap1\n      pop\n        /* \"#utility.yul\":6929:6947   */\n      0xffffffffffffffff\n        /* \"#utility.yul\":6921:6927   */\n      dup2\n        /* \"#utility.yul\":6918:6948   */\n      gt\n        /* \"#utility.yul\":6915:7032   */\n      iszero\n      tag_562\n      jumpi\n        /* \"#utility.yul\":6951:7030   */\n      tag_563\n      tag_405\n      jump\t// in\n    tag_563:\n        /* \"#utility.yul\":6915:7032   */\n    tag_562:\n        /* \"#utility.yul\":7065:7069   */\n      0x20\n        /* \"#utility.yul\":7057:7063   */\n      dup4\n        /* \"#utility.yul\":7053:7070   */\n      add\n        /* \"#utility.yul\":7041:7070   */\n      swap2\n      pop\n        /* \"#utility.yul\":7119:7122   */\n      dup4\n        /* \"#utility.yul\":7111:7115   */\n      0x01\n        /* \"#utility.yul\":7103:7109   */\n      dup3\n        /* \"#utility.yul\":7099:7116   */\n      mul\n        /* \"#utility.yul\":7089:7097   */\n      dup4\n        /* \"#utility.yul\":7085:7117   */\n      add\n        /* \"#utility.yul\":7082:7123   */\n      gt\n        /* \"#utility.yul\":7079:7207   */\n      iszero\n      tag_564\n      jumpi\n        /* \"#utility.yul\":7126:7205   */\n      tag_565\n      tag_406\n      jump\t// in\n    tag_565:\n        /* \"#utility.yul\":7079:7207   */\n    tag_564:\n        /* \"#utility.yul\":6660:7213   */\n      swap3\n      pop\n      swap3\n      swap1\n      pop\n      jump\t// out\n        /* \"#utility.yul\":7219:7748   */\n    tag_71:\n        /* \"#utility.yul\":7290:7296   */\n      0x00\n        /* \"#utility.yul\":7298:7304   */\n      0x00\n        /* \"#utility.yul\":7347:7349   */\n      0x20\n        /* \"#utility.yul\":7335:7344   */\n      dup4\n        /* \"#utility.yul\":7326:7333   */\n      dup6\n        /* \"#utility.yul\":7322:7345   */\n      sub\n        /* \"#utility.yul\":7318:7350   */\n      slt\n        /* \"#utility.yul\":7315:7434   */\n      iszero\n      tag_567\n      jumpi\n        /* \"#utility.yul\":7353:7432   */\n      tag_568\n      tag_382\n      jump\t// in\n    tag_568:\n        /* \"#utility.yul\":7315:7434   */\n    tag_567:\n        /* \"#utility.yul\":7501:7502   */\n      0x00\n        /* \"#utility.yul\":7490:7499   */\n      dup4\n        /* \"#utility.yul\":7486:7503   */\n      add\n        /* \"#utility.yul\":7473:7504   */\n      calldataload\n        /* \"#utility.yul\":7531:7549   */\n      0xffffffffffffffff\n        /* \"#utility.yul\":7523:7529   */\n      dup2\n        /* \"#utility.yul\":7520:7550   */\n      gt\n        /* \"#utility.yul\":7517:7634   */\n      iszero\n      tag_569\n      jumpi\n        /* \"#utility.yul\":7553:7632   */\n      tag_570\n      tag_383\n      jump\t// in\n    tag_570:\n        /* \"#utility.yul\":7517:7634   */\n    tag_569:\n        /* \"#utility.yul\":7666:7731   */\n      tag_571\n        /* \"#utility.yul\":7723:7730   */\n      dup6\n        /* \"#utility.yul\":7714:7720   */\n      dup3\n        /* \"#utility.yul\":7703:7712   */\n      dup7\n        /* \"#utility.yul\":7699:7721   */\n      add\n        /* \"#utility.yul\":7666:7731   */\n      tag_407\n      jump\t// in\n    tag_571:\n        /* \"#utility.yul\":7648:7731   */\n      swap3\n      pop\n      swap3\n      pop\n        /* \"#utility.yul\":7444:7741   */\n      pop\n        /* \"#utility.yul\":7219:7748   */\n      swap3\n      pop\n      swap3\n      swap1\n      pop\n      jump\t// out\n        /* \"#utility.yul\":7754:8428   */\n    tag_75:\n        /* \"#utility.yul\":7834:7840   */\n      0x00\n        /* \"#utility.yul\":7842:7848   */\n      0x00\n        /* \"#utility.yul\":7850:7856   */\n      0x00\n        /* \"#utility.yul\":7899:7901   */\n      0x40\n        /* \"#utility.yul\":7887:7896   */\n      dup5\n        /* \"#utility.yul\":7878:7885   */\n      dup7\n        /* \"#utility.yul\":7874:7897   */\n      sub\n        /* \"#utility.yul\":7870:7902   */\n      slt\n        /* \"#utility.yul\":7867:7986   */\n      iszero\n      tag_573\n      jumpi\n        /* \"#utility.yul\":7905:7984   */\n      tag_574\n      tag_382\n      jump\t// in\n    tag_574:\n        /* \"#utility.yul\":7867:7986   */\n    tag_573:\n        /* \"#utility.yul\":8025:8026   */\n      0x00\n        /* \"#utility.yul\":8050:8103   */\n      tag_575\n        /* \"#utility.yul\":8095:8102   */\n      dup7\n        /* \"#utility.yul\":8086:8092   */\n      dup3\n        /* \"#utility.yul\":8075:8084   */\n      dup8\n        /* \"#utility.yul\":8071:8093   */\n      add\n        /* \"#utility.yul\":8050:8103   */\n      tag_386\n      jump\t// in\n    tag_575:\n        /* \"#utility.yul\":8040:8103   */\n      swap4\n      pop\n        /* \"#utility.yul\":7996:8113   */\n      pop\n        /* \"#utility.yul\":8180:8182   */\n      0x20\n        /* \"#utility.yul\":8169:8178   */\n      dup5\n        /* \"#utility.yul\":8165:8183   */\n      add\n        /* \"#utility.yul\":8152:8184   */\n      calldataload\n        /* \"#utility.yul\":8211:8229   */\n      0xffffffffffffffff\n        /* \"#utility.yul\":8203:8209   */\n      dup2\n        /* \"#utility.yul\":8200:8230   */\n      gt\n        /* \"#utility.yul\":8197:8314   */\n      iszero\n      tag_576\n      jumpi\n        /* \"#utility.yul\":8233:8312   */\n      tag_577\n      tag_383\n      jump\t// in\n    tag_577:\n        /* \"#utility.yul\":8197:8314   */\n    tag_576:\n        /* \"#utility.yul\":8346:8411   */\n      tag_578\n        /* \"#utility.yul\":8403:8410   */\n      dup7\n        /* \"#utility.yul\":8394:8400   */\n      dup3\n        /* \"#utility.yul\":8383:8392   */\n      dup8\n        /* \"#utility.yul\":8379:8401   */\n      add\n        /* \"#utility.yul\":8346:8411   */\n      tag_407\n      jump\t// in\n    tag_578:\n        /* \"#utility.yul\":8328:8411   */\n      swap3\n      pop\n      swap3\n      pop\n        /* \"#utility.yul\":8123:8421   */\n      pop\n        /* \"#utility.yul\":7754:8428   */\n      swap3\n      pop\n      swap3\n      pop\n      swap3\n      jump\t// out\n        /* \"#utility.yul\":8434:8494   */\n    tag_408:\n        /* \"#utility.yul\":8462:8465   */\n      0x00\n        /* \"#utility.yul\":8483:8488   */\n      dup2\n        /* \"#utility.yul\":8476:8488   */\n      swap1\n      pop\n        /* \"#utility.yul\":8434:8494   */\n      swap2\n      swap1\n      pop\n      jump\t// out\n        /* \"#utility.yul\":8500:8642   */\n    tag_409:\n        /* \"#utility.yul\":8550:8559   */\n      0x00\n        /* \"#utility.yul\":8583:8636   */\n      tag_581\n        /* \"#utility.yul\":8601:8635   */\n      tag_582\n        /* \"#utility.yul\":8610:8634   */\n      tag_583\n        /* \"#utility.yul\":8628:8633   */\n      dup5\n        /* \"#utility.yul\":8610:8634   */\n      tag_388\n      jump\t// in\n    tag_583:\n        /* \"#utility.yul\":8601:8635   */\n      tag_408\n      jump\t// in\n    tag_582:\n        /* \"#utility.yul\":8583:8636   */\n      tag_388\n      jump\t// in\n    tag_581:\n        /* \"#utility.yul\":8570:8636   */\n      swap1\n      pop\n        /* \"#utility.yul\":8500:8642   */\n      swap2\n      swap1\n      pop\n      jump\t// out\n        /* \"#utility.yul\":8648:8774   */\n    tag_410:\n        /* \"#utility.yul\":8698:8707   */\n      0x00\n        /* \"#utility.yul\":8731:8768   */\n      tag_585\n        /* \"#utility.yul\":8762:8767   */\n      dup3\n        /* \"#utility.yul\":8731:8768   */\n      tag_409\n      jump\t// in\n    tag_585:\n        /* \"#utility.yul\":8718:8768   */\n      swap1\n      pop\n        /* \"#utility.yul\":8648:8774   */\n      swap2\n      swap1\n      pop\n      jump\t// out\n        /* \"#utility.yul\":8780:8919   */\n    tag_411:\n        /* \"#utility.yul\":8843:8852   */\n      0x00\n        /* \"#utility.yul\":8876:8913   */\n      tag_587\n        /* \"#utility.yul\":8907:8912   */\n      dup3\n        /* \"#utility.yul\":8876:8913   */\n      tag_410\n      jump\t// in\n    tag_587:\n        /* \"#utility.yul\":8863:8913   */\n      swap1\n      pop\n        /* \"#utility.yul\":8780:8919   */\n      swap2\n      swap1\n      pop\n      jump\t// out\n        /* \"#utility.yul\":8925:9082   */\n    tag_412:\n        /* \"#utility.yul\":9025:9075   */\n      tag_589\n        /* \"#utility.yul\":9069:9074   */\n      dup2\n        /* \"#utility.yul\":9025:9075   */\n      tag_411\n      jump\t// in\n    tag_589:\n        /* \"#utility.yul\":9020:9023   */\n      dup3\n        /* \"#utility.yul\":9013:9076   */\n      mstore\n        /* \"#utility.yul\":8925:9082   */\n      pop\n      pop\n      jump\t// out\n        /* \"#utility.yul\":9088:9336   */\n    tag_81:\n        /* \"#utility.yul\":9194:9198   */\n      0x00\n        /* \"#utility.yul\":9232:9234   */\n      0x20\n        /* \"#utility.yul\":9221:9230   */\n      dup3\n        /* \"#utility.yul\":9217:9235   */\n      add\n        /* \"#utility.yul\":9209:9235   */\n      swap1\n      pop\n        /* \"#utility.yul\":9245:9329   */\n      tag_591\n        /* \"#utility.yul\":9326:9327   */\n      0x00\n        /* \"#utility.yul\":9315:9324   */\n      dup4\n        /* \"#utility.yul\":9311:9328   */\n      add\n        /* \"#utility.yul\":9302:9308   */\n      dup5\n        /* \"#utility.yul\":9245:9329   */\n      tag_412\n      jump\t// in\n    tag_591:\n        /* \"#utility.yul\":9088:9336   */\n      swap3\n      swap2\n      pop\n      pop\n      jump\t// out\n        /* \"#utility.yul\":9342:9507   */\n    tag_413:\n        /* \"#utility.yul\":9482:9499   */\n      0x496e76616c6964207461736b2069640000000000000000000000000000000000\n        /* \"#utility.yul\":9478:9479   */\n      0x00\n        /* \"#utility.yul\":9470:9476   */\n      dup3\n        /* \"#utility.yul\":9466:9480   */\n      add\n        /* \"#utility.yul\":9459:9500   */\n      mstore\n        /* \"#utility.yul\":9342:9507   */\n      pop\n      jump\t// out\n        /* \"#utility.yul\":9513:9879   */\n    tag_414:\n        /* \"#utility.yul\":9655:9658   */\n      0x00\n        /* \"#utility.yul\":9676:9743   */\n      tag_594\n        /* \"#utility.yul\":9740:9742   */\n      0x0f\n        /* \"#utility.yul\":9735:9738   */\n      dup4\n        /* \"#utility.yul\":9676:9743   */\n      tag_392\n      jump\t// in\n    tag_594:\n        /* \"#utility.yul\":9669:9743   */\n      swap2\n      pop\n        /* \"#utility.yul\":9752:9845   */\n      tag_595\n        /* \"#utility.yul\":9841:9844   */\n      dup3\n        /* \"#utility.yul\":9752:9845   */\n      tag_413\n      jump\t// in\n    tag_595:\n        /* \"#utility.yul\":9870:9872   */\n      0x20\n        /* \"#utility.yul\":9865:9868   */\n      dup3\n        /* \"#utility.yul\":9861:9873   */\n      add\n        /* \"#utility.yul\":9854:9873   */\n      swap1\n      pop\n        /* \"#utility.yul\":9513:9879   */\n      swap2\n      swap1\n      pop\n      jump\t// out\n        /* \"#utility.yul\":9885:10304   */\n    tag_86:\n        /* \"#utility.yul\":10051:10055   */\n      0x00\n        /* \"#utility.yul\":10089:10091   */\n      0x20\n        /* \"#utility.yul\":10078:10087   */\n      dup3\n        /* \"#utility.yul\":10074:10092   */\n      add\n        /* \"#utility.yul\":10066:10092   */\n      swap1\n      pop\n        /* \"#utility.yul\":10138:10147   */\n      dup2\n        /* \"#utility.yul\":10132:10136   */\n      dup2\n        /* \"#utility.yul\":10128:10148   */\n      sub\n        /* \"#utility.yul\":10124:10125   */\n      0x00\n        /* \"#utility.yul\":10113:10122   */\n      dup4\n        /* \"#utility.yul\":10109:10126   */\n      add\n        /* \"#utility.yul\":10102:10149   */\n      mstore\n        /* \"#utility.yul\":10166:10297   */\n      tag_597\n        /* \"#utility.yul\":10292:10296   */\n      dup2\n        /* \"#utility.yul\":10166:10297   */\n      tag_414\n      jump\t// in\n    tag_597:\n        /* \"#utility.yul\":10158:10297   */\n      swap1\n      pop\n        /* \"#utility.yul\":9885:10304   */\n      swap2\n      swap1\n      pop\n      jump\t// out\n        /* \"#utility.yul\":10310:10490   */\n    tag_415:\n        /* \"#utility.yul\":10358:10435   */\n      0x4e487b7100000000000000000000000000000000000000000000000000000000\n        /* \"#utility.yul\":10355:10356   */\n      0x00\n        /* \"#utility.yul\":10348:10436   */\n      mstore\n        /* \"#utility.yul\":10455:10459   */\n      0x11\n        /* \"#utility.yul\":10452:10453   */\n      0x04\n        /* \"#utility.yul\":10445:10460   */\n      mstore\n        /* \"#utility.yul\":10479:10483   */\n      0x24\n        /* \"#utility.yul\":10476:10477   */\n      0x00\n        /* \"#utility.yul\":10469:10484   */\n      revert\n        /* \"#utility.yul\":10496:10690   */\n    tag_91:\n        /* \"#utility.yul\":10536:10540   */\n      0x00\n        /* \"#utility.yul\":10556:10576   */\n      tag_600\n        /* \"#utility.yul\":10574:10575   */\n      dup3\n        /* \"#utility.yul\":10556:10576   */\n      tag_384\n      jump\t// in\n    tag_600:\n        /* \"#utility.yul\":10551:10576   */\n      swap2\n      pop\n        /* \"#utility.yul\":10590:10610   */\n      tag_601\n        /* \"#utility.yul\":10608:10609   */\n      dup4\n        /* \"#utility.yul\":10590:10610   */\n      tag_384\n      jump\t// in\n    tag_601:\n        /* \"#utility.yul\":10585:10610   */\n      swap3\n      pop\n        /* \"#utility.yul\":10634:10635   */\n      dup3\n        /* \"#utility.yul\":10631:10632   */\n      dup3\n        /* \"#utility.yul\":10627:10636   */\n      sub\n        /* \"#utility.yul\":10619:10636   */\n      swap1\n      pop\n        /* \"#utility.yul\":10658:10659   */\n      dup2\n        /* \"#utility.yul\":10652:10656   */\n      dup2\n        /* \"#utility.yul\":10649:10660   */\n      gt\n        /* \"#utility.yul\":10646:10683   */\n      iszero\n      tag_602\n      jumpi\n        /* \"#utility.yul\":10663:10681   */\n      tag_603\n      tag_415\n      jump\t// in\n    tag_603:\n        /* \"#utility.yul\":10646:10683   */\n    tag_602:\n        /* \"#utility.yul\":10496:10690   */\n      swap3\n      swap2\n      pop\n      pop\n      jump\t// out\n        /* \"#utility.yul\":10696:10876   */\n    tag_416:\n        /* \"#utility.yul\":10744:10821   */\n      0x4e487b7100000000000000000000000000000000000000000000000000000000\n        /* \"#utility.yul\":10741:10742   */\n      0x00\n        /* \"#utility.yul\":10734:10822   */\n      mstore\n        /* \"#utility.yul\":10841:10845   */\n      0x22\n        /* \"#utility.yul\":10838:10839   */\n      0x04\n        /* \"#utility.yul\":10831:10846   */\n      mstore\n        /* \"#utility.yul\":10865:10869   */\n      0x24\n        /* \"#utility.yul\":10862:10863   */\n      0x00\n        /* \"#utility.yul\":10855:10870   */\n      revert\n        /* \"#utility.yul\":10882:11202   */\n    tag_97:\n        /* \"#utility.yul\":10926:10932   */\n      0x00\n        /* \"#utility.yul\":10963:10964   */\n      0x02\n        /* \"#utility.yul\":10957:10961   */\n      dup3\n        /* \"#utility.yul\":10953:10965   */\n      div\n        /* \"#utility.yul\":10943:10965   */\n      swap1\n      pop\n        /* \"#utility.yul\":11010:11011   */\n      0x01\n        /* \"#utility.yul\":11004:11008   */\n      dup3\n        /* \"#utility.yul\":11000:11012   */\n      and\n        /* \"#utility.yul\":11031:11049   */\n      dup1\n        /* \"#utility.yul\":11021:11102   */\n      tag_606\n      jumpi\n        /* \"#utility.yul\":11087:11091   */\n      0x7f\n        /* \"#utility.yul\":11079:11085   */\n      dup3\n        /* \"#utility.yul\":11075:11092   */\n      and\n        /* \"#utility.yul\":11065:11092   */\n      swap2\n      pop\n        /* \"#utility.yul\":11021:11102   */\n    tag_606:\n        /* \"#utility.yul\":11149:11151   */\n      0x20\n        /* \"#utility.yul\":11141:11147   */\n      dup3\n        /* \"#utility.yul\":11138:11152   */\n      lt\n        /* \"#utility.yul\":11118:11136   */\n      dup2\n        /* \"#utility.yul\":11115:11153   */\n      sub\n        /* \"#utility.yul\":11112:11196   */\n      tag_607\n      jumpi\n        /* \"#utility.yul\":11168:11186   */\n      tag_608\n      tag_416\n      jump\t// in\n    tag_608:\n        /* \"#utility.yul\":11112:11196   */\n    tag_607:\n        /* \"#utility.yul\":10933:11202   */\n      pop\n        /* \"#utility.yul\":10882:11202   */\n      swap2\n      swap1\n      pop\n      jump\t// out\n        /* \"#utility.yul\":11208:11375   */\n    tag_417:\n        /* \"#utility.yul\":11348:11367   */\n      0x4e6f206163746976652064697370757465000000000000000000000000000000\n        /* \"#utility.yul\":11344:11345   */\n      0x00\n        /* \"#utility.yul\":11336:11342   */\n      dup3\n        /* \"#utility.yul\":11332:11346   */\n      add\n        /* \"#utility.yul\":11325:11368   */\n      mstore\n        /* \"#utility.yul\":11208:11375   */\n      pop\n      jump\t// out\n        /* \"#utility.yul\":11381:11747   */\n    tag_418:\n        /* \"#utility.yul\":11523:11526   */\n      0x00\n        /* \"#utility.yul\":11544:11611   */\n      tag_611\n        /* \"#utility.yul\":11608:11610   */\n      0x11\n        /* \"#utility.yul\":11603:11606   */\n      dup4\n        /* \"#utility.yul\":11544:11611   */\n      tag_392\n      jump\t// in\n    tag_611:\n        /* \"#utility.yul\":11537:11611   */\n      swap2\n      pop\n        /* \"#utility.yul\":11620:11713   */\n      tag_612\n        /* \"#utility.yul\":11709:11712   */\n      dup3\n        /* \"#utility.yul\":11620:11713   */\n      tag_417\n      jump\t// in\n    tag_612:\n        /* \"#utility.yul\":11738:11740   */\n      0x20\n        /* \"#utility.yul\":11733:11736   */\n      dup3\n        /* \"#utility.yul\":11729:11741   */\n      add\n        /* \"#utility.yul\":11722:11741   */\n      swap1\n      pop\n        /* \"#utility.yul\":11381:11747   */\n      swap2\n      swap1\n      pop\n      jump\t// out\n        /* \"#utility.yul\":11753:12172   */\n    tag_114:\n        /* \"#utility.yul\":11919:11923   */\n      0x00\n        /* \"#utility.yul\":11957:11959   */\n      0x20\n        /* \"#utility.yul\":11946:11955   */\n      dup3\n        /* \"#utility.yul\":11942:11960   */\n      add\n        /* \"#utility.yul\":11934:11960   */\n      swap1\n      pop\n        /* \"#utility.yul\":12006:12015   */\n      dup2\n        /* \"#utility.yul\":12000:12004   */\n      dup2\n        /* \"#utility.yul\":11996:12016   */\n      sub\n        /* \"#utility.yul\":11992:11993   */\n      0x00\n        /* \"#utility.yul\":11981:11990   */\n      dup4\n        /* \"#utility.yul\":11977:11994   */\n      add\n        /* \"#utility.yul\":11970:12017   */\n      mstore\n        /* \"#utility.yul\":12034:12165   */\n      tag_614\n        /* \"#utility.yul\":12160:12164   */\n      dup2\n        /* \"#utility.yul\":12034:12165   */\n      tag_418\n      jump\t// in\n    tag_614:\n        /* \"#utility.yul\":12026:12165   */\n      swap1\n      pop\n        /* \"#utility.yul\":11753:12172   */\n      swap2\n      swap1\n      pop\n      jump\t// out\n        /* \"#utility.yul\":12178:12369   */\n    tag_116:\n        /* \"#utility.yul\":12218:12221   */\n      0x00\n        /* \"#utility.yul\":12237:12257   */\n      tag_616\n        /* \"#utility.yul\":12255:12256   */\n      dup3\n        /* \"#utility.yul\":12237:12257   */\n      tag_384\n      jump\t// in\n    tag_616:\n        /* \"#utility.yul\":12232:12257   */\n      swap2\n      pop\n        /* \"#utility.yul\":12271:12291   */\n      tag_617\n        /* \"#utility.yul\":12289:12290   */\n      dup4\n        /* \"#utility.yul\":12271:12291   */\n      tag_384\n      jump\t// in\n    tag_617:\n        /* \"#utility.yul\":12266:12291   */\n      swap3\n      pop\n        /* \"#utility.yul\":12314:12315   */\n      dup3\n        /* \"#utility.yul\":12311:12312   */\n      dup3\n        /* \"#utility.yul\":12307:12316   */\n      add\n        /* \"#utility.yul\":12300:12316   */\n      swap1\n      pop\n        /* \"#utility.yul\":12335:12338   */\n      dup1\n        /* \"#utility.yul\":12332:12333   */\n      dup3\n        /* \"#utility.yul\":12329:12339   */\n      gt\n        /* \"#utility.yul\":12326:12362   */\n      iszero\n      tag_618\n      jumpi\n        /* \"#utility.yul\":12342:12360   */\n      tag_619\n      tag_415\n      jump\t// in\n    tag_619:\n        /* \"#utility.yul\":12326:12362   */\n    tag_618:\n        /* \"#utility.yul\":12178:12369   */\n      swap3\n      swap2\n      pop\n      pop\n      jump\t// out\n        /* \"#utility.yul\":12375:12544   */\n    tag_419:\n        /* \"#utility.yul\":12515:12536   */\n      0x566f74696e6720706572696f6420656e64656400000000000000000000000000\n        /* \"#utility.yul\":12511:12512   */\n      0x00\n        /* \"#utility.yul\":12503:12509   */\n      dup3\n        /* \"#utility.yul\":12499:12513   */\n      add\n        /* \"#utility.yul\":12492:12537   */\n      mstore\n        /* \"#utility.yul\":12375:12544   */\n      pop\n      jump\t// out\n        /* \"#utility.yul\":12550:12916   */\n    tag_420:\n        /* \"#utility.yul\":12692:12695   */\n      0x00\n        /* \"#utility.yul\":12713:12780   */\n      tag_622\n        /* \"#utility.yul\":12777:12779   */\n      0x13\n        /* \"#utility.yul\":12772:12775   */\n      dup4\n        /* \"#utility.yul\":12713:12780   */\n      tag_392\n      jump\t// in\n    tag_622:\n        /* \"#utility.yul\":12706:12780   */\n      swap2\n      pop\n        /* \"#utility.yul\":12789:12882   */\n      tag_623\n        /* \"#utility.yul\":12878:12881   */\n      dup3\n        /* \"#utility.yul\":12789:12882   */\n      tag_419\n      jump\t// in\n    tag_623:\n        /* \"#utility.yul\":12907:12909   */\n      0x20\n        /* \"#utility.yul\":12902:12905   */\n      dup3\n        /* \"#utility.yul\":12898:12910   */\n      add\n        /* \"#utility.yul\":12891:12910   */\n      swap1\n      pop\n        /* \"#utility.yul\":12550:12916   */\n      swap2\n      swap1\n      pop\n      jump\t// out\n        /* \"#utility.yul\":12922:13341   */\n    tag_119:\n        /* \"#utility.yul\":13088:13092   */\n      0x00\n        /* \"#utility.yul\":13126:13128   */\n      0x20\n        /* \"#utility.yul\":13115:13124   */\n      dup3\n        /* \"#utility.yul\":13111:13129   */\n      add\n        /* \"#utility.yul\":13103:13129   */\n      swap1\n      pop\n        /* \"#utility.yul\":13175:13184   */\n      dup2\n        /* \"#utility.yul\":13169:13173   */\n      dup2\n        /* \"#utility.yul\":13165:13185   */\n      sub\n        /* \"#utility.yul\":13161:13162   */\n      0x00\n        /* \"#utility.yul\":13150:13159   */\n      dup4\n        /* \"#utility.yul\":13146:13163   */\n      add\n        /* \"#utility.yul\":13139:13186   */\n      mstore\n        /* \"#utility.yul\":13203:13334   */\n      tag_625\n        /* \"#utility.yul\":13329:13333   */\n      dup2\n        /* \"#utility.yul\":13203:13334   */\n      tag_420\n      jump\t// in\n    tag_625:\n        /* \"#utility.yul\":13195:13334   */\n      swap1\n      pop\n        /* \"#utility.yul\":12922:13341   */\n      swap2\n      swap1\n      pop\n      jump\t// out\n        /* \"#utility.yul\":13347:13512   */\n    tag_421:\n        /* \"#utility.yul\":13487:13504   */\n      0x5374616b6520746f6f20736d616c6c0000000000000000000000000000000000\n        /* \"#utility.yul\":13483:13484   */\n      0x00\n        /* \"#utility.yul\":13475:13481   */\n      dup3\n        /* \"#utility.yul\":13471:13485   */\n      add\n        /* \"#utility.yul\":13464:13505   */\n      mstore\n        /* \"#utility.yul\":13347:13512   */\n      pop\n      jump\t// out\n        /* \"#utility.yul\":13518:13884   */\n    tag_422:\n        /* \"#utility.yul\":13660:13663   */\n      0x00\n        /* \"#utility.yul\":13681:13748   */\n      tag_628\n        /* \"#utility.yul\":13745:13747   */\n      0x0f\n        /* \"#utility.yul\":13740:13743   */\n      dup4\n        /* \"#utility.yul\":13681:13748   */\n      tag_392\n      jump\t// in\n    tag_628:\n        /* \"#utility.yul\":13674:13748   */\n      swap2\n      pop\n        /* \"#utility.yul\":13757:13850   */\n      tag_629\n        /* \"#utility.yul\":13846:13849   */\n      dup3\n        /* \"#utility.yul\":13757:13850   */\n      tag_421\n      jump\t// in\n    tag_629:\n        /* \"#utility.yul\":13875:13877   */\n      0x20\n        /* \"#utility.yul\":13870:13873   */\n      dup3\n        /* \"#utility.yul\":13866:13878   */\n      add\n        /* \"#utility.yul\":13859:13878   */\n      swap1\n      pop\n        /* \"#utility.yul\":13518:13884   */\n      swap2\n      swap1\n      pop\n      jump\t// out\n        /* \"#utility.yul\":13890:14309   */\n    tag_122:\n        /* \"#utility.yul\":14056:14060   */\n      0x00\n        /* \"#utility.yul\":14094:14096   */\n      0x20\n        /* \"#utility.yul\":14083:14092   */\n      dup3\n        /* \"#utility.yul\":14079:14097   */\n      add\n        /* \"#utility.yul\":14071:14097   */\n      swap1\n      pop\n        /* \"#utility.yul\":14143:14152   */\n      dup2\n        /* \"#utility.yul\":14137:14141   */\n      dup2\n        /* \"#utility.yul\":14133:14153   */\n      sub\n        /* \"#utility.yul\":14129:14130   */\n      0x00\n        /* \"#utility.yul\":14118:14127   */\n      dup4\n        /* \"#utility.yul\":14114:14131   */\n      add\n        /* \"#utility.yul\":14107:14154   */\n      mstore\n        /* \"#utility.yul\":14171:14302   */\n      tag_631\n        /* \"#utility.yul\":14297:14301   */\n      dup2\n        /* \"#utility.yul\":14171:14302   */\n      tag_422\n      jump\t// in\n    tag_631:\n        /* \"#utility.yul\":14163:14302   */\n      swap1\n      pop\n        /* \"#utility.yul\":13890:14309   */\n      swap2\n      swap1\n      pop\n      jump\t// out\n        /* \"#utility.yul\":14315:14483   */\n    tag_423:\n        /* \"#utility.yul\":14455:14475   */\n      0x416c726561647920726567697374657265640000000000000000000000000000\n        /* \"#utility.yul\":14451:14452   */\n      0x00\n        /* \"#utility.yul\":14443:14449   */\n      dup3\n        /* \"#utility.yul\":14439:14453   */\n      add\n        /* \"#utility.yul\":14432:14476   */\n      mstore\n        /* \"#utility.yul\":14315:14483   */\n      pop\n      jump\t// out\n        /* \"#utility.yul\":14489:14855   */\n    tag_424:\n        /* \"#utility.yul\":14631:14634   */\n      0x00\n        /* \"#utility.yul\":14652:14719   */\n      tag_634\n        /* \"#utility.yul\":14716:14718   */\n      0x12\n        /* \"#utility.yul\":14711:14714   */\n      dup4\n        /* \"#utility.yul\":14652:14719   */\n      tag_392\n      jump\t// in\n    tag_634:\n        /* \"#utility.yul\":14645:14719   */\n      swap2\n      pop\n        /* \"#utility.yul\":14728:14821   */\n      tag_635\n        /* \"#utility.yul\":14817:14820   */\n      dup3\n        /* \"#utility.yul\":14728:14821   */\n      tag_423\n      jump\t// in\n    tag_635:\n        /* \"#utility.yul\":14846:14848   */\n      0x20\n        /* \"#utility.yul\":14841:14844   */\n      dup3\n        /* \"#utility.yul\":14837:14849   */\n      add\n        /* \"#utility.yul\":14830:14849   */\n      swap1\n      pop\n        /* \"#utility.yul\":14489:14855   */\n      swap2\n      swap1\n      pop\n      jump\t// out\n        /* \"#utility.yul\":14861:15280   */\n    tag_125:\n        /* \"#utility.yul\":15027:15031   */\n      0x00\n        /* \"#utility.yul\":15065:15067   */\n      0x20\n        /* \"#utility.yul\":15054:15063   */\n      dup3\n        /* \"#utility.yul\":15050:15068   */\n      add\n        /* \"#utility.yul\":15042:15068   */\n      swap1\n      pop\n        /* \"#utility.yul\":15114:15123   */\n      dup2\n        /* \"#utility.yul\":15108:15112   */\n      dup2\n        /* \"#utility.yul\":15104:15124   */\n      sub\n        /* \"#utility.yul\":15100:15101   */\n      0x00\n        /* \"#utility.yul\":15089:15098   */\n      dup4\n        /* \"#utility.yul\":15085:15102   */\n      add\n        /* \"#utility.yul\":15078:15125   */\n      mstore\n        /* \"#utility.yul\":15142:15273   */\n      tag_637\n        /* \"#utility.yul\":15268:15272   */\n      dup2\n        /* \"#utility.yul\":15142:15273   */\n      tag_424\n      jump\t// in\n    tag_637:\n        /* \"#utility.yul\":15134:15273   */\n      swap1\n      pop\n        /* \"#utility.yul\":14861:15280   */\n      swap2\n      swap1\n      pop\n      jump\t// out\n        /* \"#utility.yul\":15286:15449   */\n    tag_425:\n        /* \"#utility.yul\":15426:15441   */\n      0x416c726561647920766f74656400000000000000000000000000000000000000\n        /* \"#utility.yul\":15422:15423   */\n      0x00\n        /* \"#utility.yul\":15414:15420   */\n      dup3\n        /* \"#utility.yul\":15410:15424   */\n      add\n        /* \"#utility.yul\":15403:15442   */\n      mstore\n        /* \"#utility.yul\":15286:15449   */\n      pop\n      jump\t// out\n        /* \"#utility.yul\":15455:15821   */\n    tag_426:\n        /* \"#utility.yul\":15597:15600   */\n      0x00\n        /* \"#utility.yul\":15618:15685   */\n      tag_640\n        /* \"#utility.yul\":15682:15684   */\n      0x0d\n        /* \"#utility.yul\":15677:15680   */\n      dup4\n        /* \"#utility.yul\":15618:15685   */\n      tag_392\n      jump\t// in\n    tag_640:\n        /* \"#utility.yul\":15611:15685   */\n      swap2\n      pop\n        /* \"#utility.yul\":15694:15787   */\n      tag_641\n        /* \"#utility.yul\":15783:15786   */\n      dup3\n        /* \"#utility.yul\":15694:15787   */\n      tag_425\n      jump\t// in\n    tag_641:\n        /* \"#utility.yul\":15812:15814   */\n      0x20\n        /* \"#utility.yul\":15807:15810   */\n      dup3\n        /* \"#utility.yul\":15803:15815   */\n      add\n        /* \"#utility.yul\":15796:15815   */\n      swap1\n      pop\n        /* \"#utility.yul\":15455:15821   */\n      swap2\n      swap1\n      pop\n      jump\t// out\n        /* \"#utility.yul\":15827:16246   */\n    tag_128:\n        /* \"#utility.yul\":15993:15997   */\n      0x00\n        /* \"#utility.yul\":16031:16033   */\n      0x20\n        /* \"#utility.yul\":16020:16029   */\n      dup3\n        /* \"#utility.yul\":16016:16034   */\n      add\n        /* \"#utility.yul\":16008:16034   */\n      swap1\n      pop\n        /* \"#utility.yul\":16080:16089   */\n      dup2\n        /* \"#utility.yul\":16074:16078   */\n      dup2\n        /* \"#utility.yul\":16070:16090   */\n      sub\n        /* \"#utility.yul\":16066:16067   */\n      0x00\n        /* \"#utility.yul\":16055:16064   */\n      dup4\n        /* \"#utility.yul\":16051:16068   */\n      add\n        /* \"#utility.yul\":16044:16091   */\n      mstore\n        /* \"#utility.yul\":16108:16239   */\n      tag_643\n        /* \"#utility.yul\":16234:16238   */\n      dup2\n        /* \"#utility.yul\":16108:16239   */\n      tag_426\n      jump\t// in\n    tag_643:\n        /* \"#utility.yul\":16100:16239   */\n      swap1\n      pop\n        /* \"#utility.yul\":15827:16246   */\n      swap2\n      swap1\n      pop\n      jump\t// out\n        /* \"#utility.yul\":16252:16694   */\n    tag_130:\n        /* \"#utility.yul\":16401:16405   */\n      0x00\n        /* \"#utility.yul\":16439:16441   */\n      0x60\n        /* \"#utility.yul\":16428:16437   */\n      dup3\n        /* \"#utility.yul\":16424:16442   */\n      add\n        /* \"#utility.yul\":16416:16442   */\n      swap1\n      pop\n        /* \"#utility.yul\":16452:16523   */\n      tag_645\n        /* \"#utility.yul\":16520:16521   */\n      0x00\n        /* \"#utility.yul\":16509:16518   */\n      dup4\n        /* \"#utility.yul\":16505:16522   */\n      add\n        /* \"#utility.yul\":16496:16502   */\n      dup7\n        /* \"#utility.yul\":16452:16523   */\n      tag_390\n      jump\t// in\n    tag_645:\n        /* \"#utility.yul\":16533:16605   */\n      tag_646\n        /* \"#utility.yul\":16601:16603   */\n      0x20\n        /* \"#utility.yul\":16590:16599   */\n      dup4\n        /* \"#utility.yul\":16586:16604   */\n      add\n        /* \"#utility.yul\":16577:16583   */\n      dup6\n        /* \"#utility.yul\":16533:16605   */\n      tag_390\n      jump\t// in\n    tag_646:\n        /* \"#utility.yul\":16615:16687   */\n      tag_647\n        /* \"#utility.yul\":16683:16685   */\n      0x40\n        /* \"#utility.yul\":16672:16681   */\n      dup4\n        /* \"#utility.yul\":16668:16686   */\n      add\n        /* \"#utility.yul\":16659:16665   */\n      dup5\n        /* \"#utility.yul\":16615:16687   */\n      tag_387\n      jump\t// in\n    tag_647:\n        /* \"#utility.yul\":16252:16694   */\n      swap5\n      swap4\n      pop\n      pop\n      pop\n      pop\n      jump\t// out\n        /* \"#utility.yul\":16700:16837   */\n    tag_427:\n        /* \"#utility.yul\":16754:16759   */\n      0x00\n        /* \"#utility.yul\":16785:16791   */\n      dup2\n        /* \"#utility.yul\":16779:16792   */\n      mload\n        /* \"#utility.yul\":16770:16792   */\n      swap1\n      pop\n        /* \"#utility.yul\":16801:16831   */\n      tag_649\n        /* \"#utility.yul\":16825:16830   */\n      dup2\n        /* \"#utility.yul\":16801:16831   */\n      tag_402\n      jump\t// in\n    tag_649:\n        /* \"#utility.yul\":16700:16837   */\n      swap3\n      swap2\n      pop\n      pop\n      jump\t// out\n        /* \"#utility.yul\":16843:17188   */\n    tag_134:\n        /* \"#utility.yul\":16910:16916   */\n      0x00\n        /* \"#utility.yul\":16959:16961   */\n      0x20\n        /* \"#utility.yul\":16947:16956   */\n      dup3\n        /* \"#utility.yul\":16938:16945   */\n      dup5\n        /* \"#utility.yul\":16934:16957   */\n      sub\n        /* \"#utility.yul\":16930:16962   */\n      slt\n        /* \"#utility.yul\":16927:17046   */\n      iszero\n      tag_651\n      jumpi\n        /* \"#utility.yul\":16965:17044   */\n      tag_652\n      tag_382\n      jump\t// in\n    tag_652:\n        /* \"#utility.yul\":16927:17046   */\n    tag_651:\n        /* \"#utility.yul\":17085:17086   */\n      0x00\n        /* \"#utility.yul\":17110:17171   */\n      tag_653\n        /* \"#utility.yul\":17163:17170   */\n      dup5\n        /* \"#utility.yul\":17154:17160   */\n      dup3\n        /* \"#utility.yul\":17143:17152   */\n      dup6\n        /* \"#utility.yul\":17139:17161   */\n      add\n        /* \"#utility.yul\":17110:17171   */\n      tag_427\n      jump\t// in\n    tag_653:\n        /* \"#utility.yul\":17100:17171   */\n      swap2\n      pop\n        /* \"#utility.yul\":17056:17181   */\n      pop\n        /* \"#utility.yul\":16843:17188   */\n      swap3\n      swap2\n      pop\n      pop\n      jump\t// out\n        /* \"#utility.yul\":17194:17365   */\n    tag_428:\n        /* \"#utility.yul\":17334:17357   */\n      0x546f6b656e207472616e73666572206661696c65640000000000000000000000\n        /* \"#utility.yul\":17330:17331   */\n      0x00\n        /* \"#utility.yul\":17322:17328   */\n      dup3\n        /* \"#utility.yul\":17318:17332   */\n      add\n        /* \"#utility.yul\":17311:17358   */\n      mstore\n        /* \"#utility.yul\":17194:17365   */\n      pop\n      jump\t// out\n        /* \"#utility.yul\":17371:17737   */\n    tag_429:\n        /* \"#utility.yul\":17513:17516   */\n      0x00\n        /* \"#utility.yul\":17534:17601   */\n      tag_656\n        /* \"#utility.yul\":17598:17600   */\n      0x15\n        /* \"#utility.yul\":17593:17596   */\n      dup4\n        /* \"#utility.yul\":17534:17601   */\n      tag_392\n      jump\t// in\n    tag_656:\n        /* \"#utility.yul\":17527:17601   */\n      swap2\n      pop\n        /* \"#utility.yul\":17610:17703   */\n      tag_657\n        /* \"#utility.yul\":17699:17702   */\n      dup3\n        /* \"#utility.yul\":17610:17703   */\n      tag_428\n      jump\t// in\n    tag_657:\n        /* \"#utility.yul\":17728:17730   */\n      0x20\n        /* \"#utility.yul\":17723:17726   */\n      dup3\n        /* \"#utility.yul\":17719:17731   */\n      add\n        /* \"#utility.yul\":17712:17731   */\n      swap1\n      pop\n        /* \"#utility.yul\":17371:17737   */\n      swap2\n      swap1\n      pop\n      jump\t// out\n        /* \"#utility.yul\":17743:18162   */\n    tag_137:\n        /* \"#utility.yul\":17909:17913   */\n      0x00\n        /* \"#utility.yul\":17947:17949   */\n      0x20\n        /* \"#utility.yul\":17936:17945   */\n      dup3\n        /* \"#utility.yul\":17932:17950   */\n      add\n        /* \"#utility.yul\":17924:17950   */\n      swap1\n      pop\n        /* \"#utility.yul\":17996:18005   */\n      dup2\n        /* \"#utility.yul\":17990:17994   */\n      dup2\n        /* \"#utility.yul\":17986:18006   */\n      sub\n        /* \"#utility.yul\":17982:17983   */\n      0x00\n        /* \"#utility.yul\":17971:17980   */\n      dup4\n        /* \"#utility.yul\":17967:17984   */\n      add\n        /* \"#utility.yul\":17960:18007   */\n      mstore\n        /* \"#utility.yul\":18024:18155   */\n      tag_659\n        /* \"#utility.yul\":18150:18154   */\n      dup2\n        /* \"#utility.yul\":18024:18155   */\n      tag_429\n      jump\t// in\n    tag_659:\n        /* \"#utility.yul\":18016:18155   */\n      swap1\n      pop\n        /* \"#utility.yul\":17743:18162   */\n      swap2\n      swap1\n      pop\n      jump\t// out\n        /* \"#utility.yul\":18168:18709   */\n    tag_145:\n        /* \"#utility.yul\":18339:18343   */\n      0x00\n        /* \"#utility.yul\":18377:18380   */\n      0x80\n        /* \"#utility.yul\":18366:18375   */\n      dup3\n        /* \"#utility.yul\":18362:18381   */\n      add\n        /* \"#utility.yul\":18354:18381   */\n      swap1\n      pop\n        /* \"#utility.yul\":18391:18462   */\n      tag_661\n        /* \"#utility.yul\":18459:18460   */\n      0x00\n        /* \"#utility.yul\":18448:18457   */\n      dup4\n        /* \"#utility.yul\":18444:18461   */\n      add\n        /* \"#utility.yul\":18435:18441   */\n      dup8\n        /* \"#utility.yul\":18391:18462   */\n      tag_387\n      jump\t// in\n    tag_661:\n        /* \"#utility.yul\":18472:18544   */\n      tag_662\n        /* \"#utility.yul\":18540:18542   */\n      0x20\n        /* \"#utility.yul\":18529:18538   */\n      dup4\n        /* \"#utility.yul\":18525:18543   */\n      add\n        /* \"#utility.yul\":18516:18522   */\n      dup7\n        /* \"#utility.yul\":18472:18544   */\n      tag_390\n      jump\t// in\n    tag_662:\n        /* \"#utility.yul\":18554:18620   */\n      tag_663\n        /* \"#utility.yul\":18616:18618   */\n      0x40\n        /* \"#utility.yul\":18605:18614   */\n      dup4\n        /* \"#utility.yul\":18601:18619   */\n      add\n        /* \"#utility.yul\":18592:18598   */\n      dup6\n        /* \"#utility.yul\":18554:18620   */\n      tag_397\n      jump\t// in\n    tag_663:\n        /* \"#utility.yul\":18630:18702   */\n      tag_664\n        /* \"#utility.yul\":18698:18700   */\n      0x60\n        /* \"#utility.yul\":18687:18696   */\n      dup4\n        /* \"#utility.yul\":18683:18701   */\n      add\n        /* \"#utility.yul\":18674:18680   */\n      dup5\n        /* \"#utility.yul\":18630:18702   */\n      tag_387\n      jump\t// in\n    tag_664:\n        /* \"#utility.yul\":18168:18709   */\n      swap6\n      swap5\n      pop\n      pop\n      pop\n      pop\n      pop\n      jump\t// out\n        /* \"#utility.yul\":18715:18889   */\n    tag_430:\n        /* \"#utility.yul\":18855:18881   */\n      0x5461736b206e6f7420696e207265766965772028796574290000000000000000\n        /* \"#utility.yul\":18851:18852   */\n      0x00\n        /* \"#utility.yul\":18843:18849   */\n      dup3\n        /* \"#utility.yul\":18839:18853   */\n      add\n        /* \"#utility.yul\":18832:18882   */\n      mstore\n        /* \"#utility.yul\":18715:18889   */\n      pop\n      jump\t// out\n        /* \"#utility.yul\":18895:19261   */\n    tag_431:\n        /* \"#utility.yul\":19037:19040   */\n      0x00\n        /* \"#utility.yul\":19058:19125   */\n      tag_667\n        /* \"#utility.yul\":19122:19124   */\n      0x18\n        /* \"#utility.yul\":19117:19120   */\n      dup4\n        /* \"#utility.yul\":19058:19125   */\n      tag_392\n      jump\t// in\n    tag_667:\n        /* \"#utility.yul\":19051:19125   */\n      swap2\n      pop\n        /* \"#utility.yul\":19134:19227   */\n      tag_668\n        /* \"#utility.yul\":19223:19226   */\n      dup3\n        /* \"#utility.yul\":19134:19227   */\n      tag_430\n      jump\t// in\n    tag_668:\n        /* \"#utility.yul\":19252:19254   */\n      0x20\n        /* \"#utility.yul\":19247:19250   */\n      dup3\n        /* \"#utility.yul\":19243:19255   */\n      add\n        /* \"#utility.yul\":19236:19255   */\n      swap1\n      pop\n        /* \"#utility.yul\":18895:19261   */\n      swap2\n      swap1\n      pop\n      jump\t// out\n        /* \"#utility.yul\":19267:19686   */\n    tag_157:\n        /* \"#utility.yul\":19433:19437   */\n      0x00\n        /* \"#utility.yul\":19471:19473   */\n      0x20\n        /* \"#utility.yul\":19460:19469   */\n      dup3\n        /* \"#utility.yul\":19456:19474   */\n      add\n        /* \"#utility.yul\":19448:19474   */\n      swap1\n      pop\n        /* \"#utility.yul\":19520:19529   */\n      dup2\n        /* \"#utility.yul\":19514:19518   */\n      dup2\n        /* \"#utility.yul\":19510:19530   */\n      sub\n        /* \"#utility.yul\":19506:19507   */\n      0x00\n        /* \"#utility.yul\":19495:19504   */\n      dup4\n        /* \"#utility.yul\":19491:19508   */\n      add\n        /* \"#utility.yul\":19484:19531   */\n      mstore\n        /* \"#utility.yul\":19548:19679   */\n      tag_670\n        /* \"#utility.yul\":19674:19678   */\n      dup2\n        /* \"#utility.yul\":19548:19679   */\n      tag_431\n      jump\t// in\n    tag_670:\n        /* \"#utility.yul\":19540:19679   */\n      swap1\n      pop\n        /* \"#utility.yul\":19267:19686   */\n      swap2\n      swap1\n      pop\n      jump\t// out\n        /* \"#utility.yul\":19692:19857   */\n    tag_432:\n        /* \"#utility.yul\":19832:19849   */\n      0x446561646c696e65207061737365640000000000000000000000000000000000\n        /* \"#utility.yul\":19828:19829   */\n      0x00\n        /* \"#utility.yul\":19820:19826   */\n      dup3\n        /* \"#utility.yul\":19816:19830   */\n      add\n        /* \"#utility.yul\":19809:19850   */\n      mstore\n        /* \"#utility.yul\":19692:19857   */\n      pop\n      jump\t// out\n        /* \"#utility.yul\":19863:20229   */\n    tag_433:\n        /* \"#utility.yul\":20005:20008   */\n      0x00\n        /* \"#utility.yul\":20026:20093   */\n      tag_673\n        /* \"#utility.yul\":20090:20092   */\n      0x0f\n        /* \"#utility.yul\":20085:20088   */\n      dup4\n        /* \"#utility.yul\":20026:20093   */\n      tag_392\n      jump\t// in\n    tag_673:\n        /* \"#utility.yul\":20019:20093   */\n      swap2\n      pop\n        /* \"#utility.yul\":20102:20195   */\n      tag_674\n        /* \"#utility.yul\":20191:20194   */\n      dup3\n        /* \"#utility.yul\":20102:20195   */\n      tag_432\n      jump\t// in\n    tag_674:\n        /* \"#utility.yul\":20220:20222   */\n      0x20\n        /* \"#utility.yul\":20215:20218   */\n      dup3\n        /* \"#utility.yul\":20211:20223   */\n      add\n        /* \"#utility.yul\":20204:20223   */\n      swap1\n      pop\n        /* \"#utility.yul\":19863:20229   */\n      swap2\n      swap1\n      pop\n      jump\t// out\n        /* \"#utility.yul\":20235:20654   */\n    tag_160:\n        /* \"#utility.yul\":20401:20405   */\n      0x00\n        /* \"#utility.yul\":20439:20441   */\n      0x20\n        /* \"#utility.yul\":20428:20437   */\n      dup3\n        /* \"#utility.yul\":20424:20442   */\n      add\n        /* \"#utility.yul\":20416:20442   */\n      swap1\n      pop\n        /* \"#utility.yul\":20488:20497   */\n      dup2\n        /* \"#utility.yul\":20482:20486   */\n      dup2\n        /* \"#utility.yul\":20478:20498   */\n      sub\n        /* \"#utility.yul\":20474:20475   */\n      0x00\n        /* \"#utility.yul\":20463:20472   */\n      dup4\n        /* \"#utility.yul\":20459:20476   */\n      add\n        /* \"#utility.yul\":20452:20499   */\n      mstore\n        /* \"#utility.yul\":20516:20647   */\n      tag_676\n        /* \"#utility.yul\":20642:20646   */\n      dup2\n        /* \"#utility.yul\":20516:20647   */\n      tag_433\n      jump\t// in\n    tag_676:\n        /* \"#utility.yul\":20508:20647   */\n      swap1\n      pop\n        /* \"#utility.yul\":20235:20654   */\n      swap2\n      swap1\n      pop\n      jump\t// out\n        /* \"#utility.yul\":20660:20835   */\n    tag_434:\n        /* \"#utility.yul\":20800:20827   */\n      0x496e636f72726563742064697370757465206465706f73697400000000000000\n        /* \"#utility.yul\":20796:20797   */\n      0x00\n        /* \"#utility.yul\":20788:20794   */\n      dup3\n        /* \"#utility.yul\":20784:20798   */\n      add\n        /* \"#utility.yul\":20777:20828   */\n      mstore\n        /* \"#utility.yul\":20660:20835   */\n      pop\n      jump\t// out\n        /* \"#utility.yul\":20841:21207   */\n    tag_435:\n        /* \"#utility.yul\":20983:20986   */\n      0x00\n        /* \"#utility.yul\":21004:21071   */\n      tag_679\n        /* \"#utility.yul\":21068:21070   */\n      0x19\n        /* \"#utility.yul\":21063:21066   */\n      dup4\n        /* \"#utility.yul\":21004:21071   */\n      tag_392\n      jump\t// in\n    tag_679:\n        /* \"#utility.yul\":20997:21071   */\n      swap2\n      pop\n        /* \"#utility.yul\":21080:21173   */\n      tag_680\n        /* \"#utility.yul\":21169:21172   */\n      dup3\n        /* \"#utility.yul\":21080:21173   */\n      tag_434\n      jump\t// in\n    tag_680:\n        /* \"#utility.yul\":21198:21200   */\n      0x20\n        /* \"#utility.yul\":21193:21196   */\n      dup3\n        /* \"#utility.yul\":21189:21201   */\n      add\n        /* \"#utility.yul\":21182:21201   */\n      swap1\n      pop\n        /* \"#utility.yul\":20841:21207   */\n      swap2\n      swap1\n      pop\n      jump\t// out\n        /* \"#utility.yul\":21213:21632   */\n    tag_163:\n        /* \"#utility.yul\":21379:21383   */\n      0x00\n        /* \"#utility.yul\":21417:21419   */\n      0x20\n        /* \"#utility.yul\":21406:21415   */\n      dup3\n        /* \"#utility.yul\":21402:21420   */\n      add\n        /* \"#utility.yul\":21394:21420   */\n      swap1\n      pop\n        /* \"#utility.yul\":21466:21475   */\n      dup2\n        /* \"#utility.yul\":21460:21464   */\n      dup2\n        /* \"#utility.yul\":21456:21476   */\n      sub\n        /* \"#utility.yul\":21452:21453   */\n      0x00\n        /* \"#utility.yul\":21441:21450   */\n      dup4\n        /* \"#utility.yul\":21437:21454   */\n      add\n        /* \"#utility.yul\":21430:21477   */\n      mstore\n        /* \"#utility.yul\":21494:21625   */\n      tag_682\n        /* \"#utility.yul\":21620:21624   */\n      dup2\n        /* \"#utility.yul\":21494:21625   */\n      tag_435\n      jump\t// in\n    tag_682:\n        /* \"#utility.yul\":21486:21625   */\n      swap1\n      pop\n        /* \"#utility.yul\":21213:21632   */\n      swap2\n      swap1\n      pop\n      jump\t// out\n        /* \"#utility.yul\":21638:21811   */\n    tag_436:\n        /* \"#utility.yul\":21778:21803   */\n      0x4578697374696e67206469737075746520616374697665000000000000000000\n        /* \"#utility.yul\":21774:21775   */\n      0x00\n        /* \"#utility.yul\":21766:21772   */\n      dup3\n        /* \"#utility.yul\":21762:21776   */\n      add\n        /* \"#utility.yul\":21755:21804   */\n      mstore\n        /* \"#utility.yul\":21638:21811   */\n      pop\n      jump\t// out\n        /* \"#utility.yul\":21817:22183   */\n    tag_437:\n        /* \"#utility.yul\":21959:21962   */\n      0x00\n        /* \"#utility.yul\":21980:22047   */\n      tag_685\n        /* \"#utility.yul\":22044:22046   */\n      0x17\n        /* \"#utility.yul\":22039:22042   */\n      dup4\n        /* \"#utility.yul\":21980:22047   */\n      tag_392\n      jump\t// in\n    tag_685:\n        /* \"#utility.yul\":21973:22047   */\n      swap2\n      pop\n        /* \"#utility.yul\":22056:22149   */\n      tag_686\n        /* \"#utility.yul\":22145:22148   */\n      dup3\n        /* \"#utility.yul\":22056:22149   */\n      tag_436\n      jump\t// in\n    tag_686:\n        /* \"#utility.yul\":22174:22176   */\n      0x20\n        /* \"#utility.yul\":22169:22172   */\n      dup3\n        /* \"#utility.yul\":22165:22177   */\n      add\n        /* \"#utility.yul\":22158:22177   */\n      swap1\n      pop\n        /* \"#utility.yul\":21817:22183   */\n      swap2\n      swap1\n      pop\n      jump\t// out\n        /* \"#utility.yul\":22189:22608   */\n    tag_167:\n        /* \"#utility.yul\":22355:22359   */\n      0x00\n        /* \"#utility.yul\":22393:22395   */\n      0x20\n        /* \"#utility.yul\":22382:22391   */\n      dup3\n        /* \"#utility.yul\":22378:22396   */\n      add\n        /* \"#utility.yul\":22370:22396   */\n      swap1\n      pop\n        /* \"#utility.yul\":22442:22451   */\n      dup2\n        /* \"#utility.yul\":22436:22440   */\n      dup2\n        /* \"#utility.yul\":22432:22452   */\n      sub\n        /* \"#utility.yul\":22428:22429   */\n      0x00\n        /* \"#utility.yul\":22417:22426   */\n      dup4\n        /* \"#utility.yul\":22413:22430   */\n      add\n        /* \"#utility.yul\":22406:22453   */\n      mstore\n        /* \"#utility.yul\":22470:22601   */\n      tag_688\n        /* \"#utility.yul\":22596:22600   */\n      dup2\n        /* \"#utility.yul\":22470:22601   */\n      tag_437\n      jump\t// in\n    tag_688:\n        /* \"#utility.yul\":22462:22601   */\n      swap1\n      pop\n        /* \"#utility.yul\":22189:22608   */\n      swap2\n      swap1\n      pop\n      jump\t// out\n        /* \"#utility.yul\":22614:23167   */\n    tag_171:\n        /* \"#utility.yul\":22791:22795   */\n      0x00\n        /* \"#utility.yul\":22829:22832   */\n      0x80\n        /* \"#utility.yul\":22818:22827   */\n      dup3\n        /* \"#utility.yul\":22814:22833   */\n      add\n        /* \"#utility.yul\":22806:22833   */\n      swap1\n      pop\n        /* \"#utility.yul\":22843:22914   */\n      tag_690\n        /* \"#utility.yul\":22911:22912   */\n      0x00\n        /* \"#utility.yul\":22900:22909   */\n      dup4\n        /* \"#utility.yul\":22896:22913   */\n      add\n        /* \"#utility.yul\":22887:22893   */\n      dup8\n        /* \"#utility.yul\":22843:22914   */\n      tag_387\n      jump\t// in\n    tag_690:\n        /* \"#utility.yul\":22924:22996   */\n      tag_691\n        /* \"#utility.yul\":22992:22994   */\n      0x20\n        /* \"#utility.yul\":22981:22990   */\n      dup4\n        /* \"#utility.yul\":22977:22995   */\n      add\n        /* \"#utility.yul\":22968:22974   */\n      dup7\n        /* \"#utility.yul\":22924:22996   */\n      tag_390\n      jump\t// in\n    tag_691:\n        /* \"#utility.yul\":23006:23078   */\n      tag_692\n        /* \"#utility.yul\":23074:23076   */\n      0x40\n        /* \"#utility.yul\":23063:23072   */\n      dup4\n        /* \"#utility.yul\":23059:23077   */\n      add\n        /* \"#utility.yul\":23050:23056   */\n      dup6\n        /* \"#utility.yul\":23006:23078   */\n      tag_387\n      jump\t// in\n    tag_692:\n        /* \"#utility.yul\":23088:23160   */\n      tag_693\n        /* \"#utility.yul\":23156:23158   */\n      0x60\n        /* \"#utility.yul\":23145:23154   */\n      dup4\n        /* \"#utility.yul\":23141:23159   */\n      add\n        /* \"#utility.yul\":23132:23138   */\n      dup5\n        /* \"#utility.yul\":23088:23160   */\n      tag_387\n      jump\t// in\n    tag_693:\n        /* \"#utility.yul\":22614:23167   */\n      swap6\n      swap5\n      pop\n      pop\n      pop\n      pop\n      pop\n      jump\t// out\n        /* \"#utility.yul\":23173:23333   */\n    tag_438:\n        /* \"#utility.yul\":23313:23325   */\n      0x4e6f206469737075746500000000000000000000000000000000000000000000\n        /* \"#utility.yul\":23309:23310   */\n      0x00\n        /* \"#utility.yul\":23301:23307   */\n      dup3\n        /* \"#utility.yul\":23297:23311   */\n      add\n        /* \"#utility.yul\":23290:23326   */\n      mstore\n        /* \"#utility.yul\":23173:23333   */\n      pop\n      jump\t// out\n        /* \"#utility.yul\":23339:23705   */\n    tag_439:\n        /* \"#utility.yul\":23481:23484   */\n      0x00\n        /* \"#utility.yul\":23502:23569   */\n      tag_696\n        /* \"#utility.yul\":23566:23568   */\n      0x0a\n        /* \"#utility.yul\":23561:23564   */\n      dup4\n        /* \"#utility.yul\":23502:23569   */\n      tag_392\n      jump\t// in\n    tag_696:\n        /* \"#utility.yul\":23495:23569   */\n      swap2\n      pop\n        /* \"#utility.yul\":23578:23671   */\n      tag_697\n        /* \"#utility.yul\":23667:23670   */\n      dup3\n        /* \"#utility.yul\":23578:23671   */\n      tag_438\n      jump\t// in\n    tag_697:\n        /* \"#utility.yul\":23696:23698   */\n      0x20\n        /* \"#utility.yul\":23691:23694   */\n      dup3\n        /* \"#utility.yul\":23687:23699   */\n      add\n        /* \"#utility.yul\":23680:23699   */\n      swap1\n      pop\n        /* \"#utility.yul\":23339:23705   */\n      swap2\n      swap1\n      pop\n      jump\t// out\n        /* \"#utility.yul\":23711:24130   */\n    tag_178:\n        /* \"#utility.yul\":23877:23881   */\n      0x00\n        /* \"#utility.yul\":23915:23917   */\n      0x20\n        /* \"#utility.yul\":23904:23913   */\n      dup3\n        /* \"#utility.yul\":23900:23918   */\n      add\n        /* \"#utility.yul\":23892:23918   */\n      swap1\n      pop\n        /* \"#utility.yul\":23964:23973   */\n      dup2\n        /* \"#utility.yul\":23958:23962   */\n      dup2\n        /* \"#utility.yul\":23954:23974   */\n      sub\n        /* \"#utility.yul\":23950:23951   */\n      0x00\n        /* \"#utility.yul\":23939:23948   */\n      dup4\n        /* \"#utility.yul\":23935:23952   */\n      add\n        /* \"#utility.yul\":23928:23975   */\n      mstore\n        /* \"#utility.yul\":23992:24123   */\n      tag_699\n        /* \"#utility.yul\":24118:24122   */\n      dup2\n        /* \"#utility.yul\":23992:24123   */\n      tag_439\n      jump\t// in\n    tag_699:\n        /* \"#utility.yul\":23984:24123   */\n      swap1\n      pop\n        /* \"#utility.yul\":23711:24130   */\n      swap2\n      swap1\n      pop\n      jump\t// out\n        /* \"#utility.yul\":24136:24303   */\n    tag_440:\n        /* \"#utility.yul\":24276:24295   */\n      0x416c72656164792066696e616c697a6564000000000000000000000000000000\n        /* \"#utility.yul\":24272:24273   */\n      0x00\n        /* \"#utility.yul\":24264:24270   */\n      dup3\n        /* \"#utility.yul\":24260:24274   */\n      add\n        /* \"#utility.yul\":24253:24296   */\n      mstore\n        /* \"#utility.yul\":24136:24303   */\n      pop\n      jump\t// out\n        /* \"#utility.yul\":24309:24675   */\n    tag_441:\n        /* \"#utility.yul\":24451:24454   */\n      0x00\n        /* \"#utility.yul\":24472:24539   */\n      tag_702\n        /* \"#utility.yul\":24536:24538   */\n      0x11\n        /* \"#utility.yul\":24531:24534   */\n      dup4\n        /* \"#utility.yul\":24472:24539   */\n      tag_392\n      jump\t// in\n    tag_702:\n        /* \"#utility.yul\":24465:24539   */\n      swap2\n      pop\n        /* \"#utility.yul\":24548:24641   */\n      tag_703\n        /* \"#utility.yul\":24637:24640   */\n      dup3\n        /* \"#utility.yul\":24548:24641   */\n      tag_440\n      jump\t// in\n    tag_703:\n        /* \"#utility.yul\":24666:24668   */\n      0x20\n        /* \"#utility.yul\":24661:24664   */\n      dup3\n        /* \"#utility.yul\":24657:24669   */\n      add\n        /* \"#utility.yul\":24650:24669   */\n      swap1\n      pop\n        /* \"#utility.yul\":24309:24675   */\n      swap2\n      swap1\n      pop\n      jump\t// out\n        /* \"#utility.yul\":24681:25100   */\n    tag_181:\n        /* \"#utility.yul\":24847:24851   */\n      0x00\n        /* \"#utility.yul\":24885:24887   */\n      0x20\n        /* \"#utility.yul\":24874:24883   */\n      dup3\n        /* \"#utility.yul\":24870:24888   */\n      add\n        /* \"#utility.yul\":24862:24888   */\n      swap1\n      pop\n        /* \"#utility.yul\":24934:24943   */\n      dup2\n        /* \"#utility.yul\":24928:24932   */\n      dup2\n        /* \"#utility.yul\":24924:24944   */\n      sub\n        /* \"#utility.yul\":24920:24921   */\n      0x00\n        /* \"#utility.yul\":24909:24918   */\n      dup4\n        /* \"#utility.yul\":24905:24922   */\n      add\n        /* \"#utility.yul\":24898:24945   */\n      mstore\n        /* \"#utility.yul\":24962:25093   */\n      tag_705\n        /* \"#utility.yul\":25088:25092   */\n      dup2\n        /* \"#utility.yul\":24962:25093   */\n      tag_441\n      jump\t// in\n    tag_705:\n        /* \"#utility.yul\":24954:25093   */\n      swap1\n      pop\n        /* \"#utility.yul\":24681:25100   */\n      swap2\n      swap1\n      pop\n      jump\t// out\n        /* \"#utility.yul\":25106:25280   */\n    tag_442:\n        /* \"#utility.yul\":25246:25272   */\n      0x566f74696e672077696e646f77207374696c6c206f70656e0000000000000000\n        /* \"#utility.yul\":25242:25243   */\n      0x00\n        /* \"#utility.yul\":25234:25240   */\n      dup3\n        /* \"#utility.yul\":25230:25244   */\n      add\n        /* \"#utility.yul\":25223:25273   */\n      mstore\n        /* \"#utility.yul\":25106:25280   */\n      pop\n      jump\t// out\n        /* \"#utility.yul\":25286:25652   */\n    tag_443:\n        /* \"#utility.yul\":25428:25431   */\n      0x00\n        /* \"#utility.yul\":25449:25516   */\n      tag_708\n        /* \"#utility.yul\":25513:25515   */\n      0x18\n        /* \"#utility.yul\":25508:25511   */\n      dup4\n        /* \"#utility.yul\":25449:25516   */\n      tag_392\n      jump\t// in\n    tag_708:\n        /* \"#utility.yul\":25442:25516   */\n      swap2\n      pop\n        /* \"#utility.yul\":25525:25618   */\n      tag_709\n        /* \"#utility.yul\":25614:25617   */\n      dup3\n        /* \"#utility.yul\":25525:25618   */\n      tag_442\n      jump\t// in\n    tag_709:\n        /* \"#utility.yul\":25643:25645   */\n      0x20\n        /* \"#utility.yul\":25638:25641   */\n      dup3\n        /* \"#utility.yul\":25634:25646   */\n      add\n        /* \"#utility.yul\":25627:25646   */\n      swap1\n      pop\n        /* \"#utility.yul\":25286:25652   */\n      swap2\n      swap1\n      pop\n      jump\t// out\n        /* \"#utility.yul\":25658:26077   */\n    tag_185:\n        /* \"#utility.yul\":25824:25828   */\n      0x00\n        /* \"#utility.yul\":25862:25864   */\n      0x20\n        /* \"#utility.yul\":25851:25860   */\n      dup3\n        /* \"#utility.yul\":25847:25865   */\n      add\n        /* \"#utility.yul\":25839:25865   */\n      swap1\n      pop\n        /* \"#utility.yul\":25911:25920   */\n      dup2\n        /* \"#utility.yul\":25905:25909   */\n      dup2\n        /* \"#utility.yul\":25901:25921   */\n      sub\n        /* \"#utility.yul\":25897:25898   */\n      0x00\n        /* \"#utility.yul\":25886:25895   */\n      dup4\n        /* \"#utility.yul\":25882:25899   */\n      add\n        /* \"#utility.yul\":25875:25922   */\n      mstore\n        /* \"#utility.yul\":25939:26070   */\n      tag_711\n        /* \"#utility.yul\":26065:26069   */\n      dup2\n        /* \"#utility.yul\":25939:26070   */\n      tag_443\n      jump\t// in\n    tag_711:\n        /* \"#utility.yul\":25931:26070   */\n      swap1\n      pop\n        /* \"#utility.yul\":25658:26077   */\n      swap2\n      swap1\n      pop\n      jump\t// out\n        /* \"#utility.yul\":26083:26263   */\n    tag_198:\n        /* \"#utility.yul\":26131:26208   */\n      0x4e487b7100000000000000000000000000000000000000000000000000000000\n        /* \"#utility.yul\":26128:26129   */\n      0x00\n        /* \"#utility.yul\":26121:26209   */\n      mstore\n        /* \"#utility.yul\":26228:26232   */\n      0x32\n        /* \"#utility.yul\":26225:26226   */\n      0x04\n        /* \"#utility.yul\":26218:26233   */\n      mstore\n        /* \"#utility.yul\":26252:26256   */\n      0x24\n        /* \"#utility.yul\":26249:26250   */\n      0x00\n        /* \"#utility.yul\":26242:26257   */\n      revert\n        /* \"#utility.yul\":26269:26601   */\n    tag_202:\n        /* \"#utility.yul\":26390:26394   */\n      0x00\n        /* \"#utility.yul\":26428:26430   */\n      0x40\n        /* \"#utility.yul\":26417:26426   */\n      dup3\n        /* \"#utility.yul\":26413:26431   */\n      add\n        /* \"#utility.yul\":26405:26431   */\n      swap1\n      pop\n        /* \"#utility.yul\":26441:26512   */\n      tag_714\n        /* \"#utility.yul\":26509:26510   */\n      0x00\n        /* \"#utility.yul\":26498:26507   */\n      dup4\n        /* \"#utility.yul\":26494:26511   */\n      add\n        /* \"#utility.yul\":26485:26491   */\n      dup6\n        /* \"#utility.yul\":26441:26512   */\n      tag_390\n      jump\t// in\n    tag_714:\n        /* \"#utility.yul\":26522:26594   */\n      tag_715\n        /* \"#utility.yul\":26590:26592   */\n      0x20\n        /* \"#utility.yul\":26579:26588   */\n      dup4\n        /* \"#utility.yul\":26575:26593   */\n      add\n        /* \"#utility.yul\":26566:26572   */\n      dup5\n        /* \"#utility.yul\":26522:26594   */\n      tag_387\n      jump\t// in\n    tag_715:\n        /* \"#utility.yul\":26269:26601   */\n      swap4\n      swap3\n      pop\n      pop\n      pop\n      jump\t// out\n        /* \"#utility.yul\":26607:26840   */\n    tag_210:\n        /* \"#utility.yul\":26646:26649   */\n      0x00\n        /* \"#utility.yul\":26669:26693   */\n      tag_717\n        /* \"#utility.yul\":26687:26692   */\n      dup3\n        /* \"#utility.yul\":26669:26693   */\n      tag_384\n      jump\t// in\n    tag_717:\n        /* \"#utility.yul\":26660:26693   */\n      swap2\n      pop\n        /* \"#utility.yul\":26715:26781   */\n      0xffffffffffffffffffffffffffffffffffffffffffffffffffffffffffffffff\n        /* \"#utility.yul\":26708:26713   */\n      dup3\n        /* \"#utility.yul\":26705:26782   */\n      sub\n        /* \"#utility.yul\":26702:26805   */\n      tag_718\n      jumpi\n        /* \"#utility.yul\":26785:26803   */\n      tag_719\n      tag_415\n      jump\t// in\n    tag_719:\n        /* \"#utility.yul\":26702:26805   */\n    tag_718:\n        /* \"#utility.yul\":26832:26833   */\n      0x01\n        /* \"#utility.yul\":26825:26830   */\n      dup3\n        /* \"#utility.yul\":26821:26834   */\n      add\n        /* \"#utility.yul\":26814:26834   */\n      swap1\n      pop\n        /* \"#utility.yul\":26607:26840   */\n      swap2\n      swap1\n      pop\n      jump\t// out\n        /* \"#utility.yul\":26846:26999   */\n    tag_444:\n        /* \"#utility.yul\":26899:26905   */\n      0x00\n        /* \"#utility.yul\":26933:26938   */\n      dup2\n        /* \"#utility.yul\":26927:26939   */\n      sload\n        /* \"#utility.yul\":26917:26939   */\n      swap1\n      pop\n        /* \"#utility.yul\":26959:26992   */\n      tag_721\n        /* \"#utility.yul\":26985:26991   */\n      dup2\n        /* \"#utility.yul\":26959:26992   */\n      tag_97\n      jump\t// in\n    tag_721:\n        /* \"#utility.yul\":26949:26992   */\n      swap1\n      pop\n        /* \"#utility.yul\":26846:26999   */\n      swap2\n      swap1\n      pop\n      jump\t// out\n        /* \"#utility.yul\":27005:27185   */\n    tag_445:\n        /* \"#utility.yul\":27053:27130   */\n      0x4e487b7100000000000000000000000000000000000000000000000000000000\n        /* \"#utility.yul\":27050:27051   */\n      0x00\n        /* \"#utility.yul\":27043:27131   */\n      mstore\n        /* \"#utility.yul\":27150:27154   */\n      0x41\n        /* \"#utility.yul\":27147:27148   */\n      0x04\n        /* \"#utility.yul\":27140:27155   */\n      mstore\n        /* \"#utility.yul\":27174:27178   */\n      0x24\n        /* \"#utility.yul\":27171:27172   */\n      0x00\n        /* \"#utility.yul\":27164:27179   */\n      revert\n        /* \"#utility.yul\":27191:27332   */\n    tag_446:\n        /* \"#utility.yul\":27240:27244   */\n      0x00\n        /* \"#utility.yul\":27263:27266   */\n      dup2\n        /* \"#utility.yul\":27255:27266   */\n      swap1\n      pop\n        /* \"#utility.yul\":27286:27289   */\n      dup2\n        /* \"#utility.yul\":27283:27284   */\n      0x00\n        /* \"#utility.yul\":27276:27290   */\n      mstore\n        /* \"#utility.yul\":27320:27324   */\n      0x20\n        /* \"#utility.yul\":27317:27318   */\n      0x00\n        /* \"#utility.yul\":27307:27325   */\n      keccak256\n        /* \"#utility.yul\":27299:27325   */\n      swap1\n      pop\n        /* \"#utility.yul\":27191:27332   */\n      swap2\n      swap1\n      pop\n      jump\t// out\n        /* \"#utility.yul\":27338:27483   */\n    tag_447:\n        /* \"#utility.yul\":27391:27395   */\n      0x00\n        /* \"#utility.yul\":27414:27417   */\n      dup2\n        /* \"#utility.yul\":27406:27417   */\n      swap1\n      pop\n        /* \"#utility.yul\":27437:27440   */\n      dup2\n        /* \"#utility.yul\":27434:27435   */\n      0x00\n        /* \"#utility.yul\":27427:27441   */\n      mstore\n        /* \"#utility.yul\":27471:27475   */\n      0x20\n        /* \"#utility.yul\":27468:27469   */\n      0x00\n        /* \"#utility.yul\":27458:27476   */\n      keccak256\n        /* \"#utility.yul\":27450:27476   */\n      swap1\n      pop\n        /* \"#utility.yul\":27338:27483   */\n      swap2\n      swap1\n      pop\n      jump\t// out\n        /* \"#utility.yul\":27489:27582   */\n    tag_448:\n        /* \"#utility.yul\":27526:27532   */\n      0x00\n        /* \"#utility.yul\":27573:27575   */\n      0x20\n        /* \"#utility.yul\":27568:27570   */\n      0x1f\n        /* \"#utility.yul\":27561:27566   */\n      dup4\n        /* \"#utility.yul\":27557:27571   */\n      add\n        /* \"#utility.yul\":27553:27576   */\n      div\n        /* \"#utility.yul\":27543:27576   */\n      swap1\n      pop\n        /* \"#utility.yul\":27489:27582   */\n      swap2\n      swap1\n      pop\n      jump\t// out\n        /* \"#utility.yul\":27588:27695   */\n    tag_449:\n        /* \"#utility.yul\":27632:27640   */\n      0x00\n        /* \"#utility.yul\":27682:27687   */\n      dup3\n        /* \"#utility.yul\":27676:27680   */\n      dup3\n        /* \"#utility.yul\":27672:27688   */\n      shl\n        /* \"#utility.yul\":27651:27688   */\n      swap1\n      pop\n        /* \"#utility.yul\":27588:27695   */\n      swap3\n      swap2\n      pop\n      pop\n      jump\t// out\n        /* \"#utility.yul\":27701:28094   */\n    tag_450:\n        /* \"#utility.yul\":27770:27776   */\n      0x00\n        /* \"#utility.yul\":27820:27821   */\n      0x08\n        /* \"#utility.yul\":27808:27818   */\n      dup4\n        /* \"#utility.yul\":27804:27822   */\n      mul\n        /* \"#utility.yul\":27843:27940   */\n      tag_728\n        /* \"#utility.yul\":27873:27939   */\n      0xffffffffffffffffffffffffffffffffffffffffffffffffffffffffffffffff\n        /* \"#utility.yul\":27862:27871   */\n      dup3\n        /* \"#utility.yul\":27843:27940   */\n      tag_449\n      jump\t// in\n    tag_728:\n        /* \"#utility.yul\":27961:28000   */\n      tag_729\n        /* \"#utility.yul\":27991:27999   */\n      dup7\n        /* \"#utility.yul\":27980:27989   */\n      dup4\n        /* \"#utility.yul\":27961:28000   */\n      tag_449\n      jump\t// in\n    tag_729:\n        /* \"#utility.yul\":27949:28000   */\n      swap6\n      pop\n        /* \"#utility.yul\":28033:28037   */\n      dup1\n        /* \"#utility.yul\":28029:28038   */\n      not\n        /* \"#utility.yul\":28022:28027   */\n      dup5\n        /* \"#utility.yul\":28018:28039   */\n      and\n        /* \"#utility.yul\":28009:28039   */\n      swap4\n      pop\n        /* \"#utility.yul\":28082:28086   */\n      dup1\n        /* \"#utility.yul\":28072:28080   */\n      dup7\n        /* \"#utility.yul\":28068:28087   */\n      and\n        /* \"#utility.yul\":28061:28066   */\n      dup5\n        /* \"#utility.yul\":28058:28088   */\n      or\n        /* \"#utility.yul\":28048:28088   */\n      swap3\n      pop\n        /* \"#utility.yul\":27777:28094   */\n      pop\n      pop\n        /* \"#utility.yul\":27701:28094   */\n      swap4\n      swap3\n      pop\n      pop\n      pop\n      jump\t// out\n        /* \"#utility.yul\":28100:28242   */\n    tag_451:\n        /* \"#utility.yul\":28150:28159   */\n      0x00\n        /* \"#utility.yul\":28183:28236   */\n      tag_731\n        /* \"#utility.yul\":28201:28235   */\n      tag_732\n        /* \"#utility.yul\":28210:28234   */\n      tag_733\n        /* \"#utility.yul\":28228:28233   */\n      dup5\n        /* \"#utility.yul\":28210:28234   */\n      tag_384\n      jump\t// in\n    tag_733:\n        /* \"#utility.yul\":28201:28235   */\n      tag_408\n      jump\t// in\n    tag_732:\n        /* \"#utility.yul\":28183:28236   */\n      tag_384\n      jump\t// in\n    tag_731:\n        /* \"#utility.yul\":28170:28236   */\n      swap1\n      pop\n        /* \"#utility.yul\":28100:28242   */\n      swap2\n      swap1\n      pop\n      jump\t// out\n        /* \"#utility.yul\":28248:28323   */\n    tag_452:\n        /* \"#utility.yul\":28291:28294   */\n      0x00\n        /* \"#utility.yul\":28312:28317   */\n      dup2\n        /* \"#utility.yul\":28305:28317   */\n      swap1\n      pop\n        /* \"#utility.yul\":28248:28323   */\n      swap2\n      swap1\n      pop\n      jump\t// out\n        /* \"#utility.yul\":28329:28598   */\n    tag_453:\n        /* \"#utility.yul\":28439:28478   */\n      tag_736\n        /* \"#utility.yul\":28470:28477   */\n      dup4\n        /* \"#utility.yul\":28439:28478   */\n      tag_451\n      jump\t// in\n    tag_736:\n        /* \"#utility.yul\":28500:28591   */\n      tag_737\n        /* \"#utility.yul\":28549:28590   */\n      tag_738\n        /* \"#utility.yul\":28573:28589   */\n      dup3\n        /* \"#utility.yul\":28549:28590   */\n      tag_452\n      jump\t// in\n    tag_738:\n        /* \"#utility.yul\":28541:28547   */\n      dup5\n        /* \"#utility.yul\":28534:28538   */\n      dup5\n        /* \"#utility.yul\":28528:28539   */\n      sload\n        /* \"#utility.yul\":28500:28591   */\n      tag_450\n      jump\t// in\n    tag_737:\n        /* \"#utility.yul\":28494:28498   */\n      dup3\n        /* \"#utility.yul\":28487:28592   */\n      sstore\n        /* \"#utility.yul\":28405:28598   */\n      pop\n        /* \"#utility.yul\":28329:28598   */\n      pop\n      pop\n      pop\n      jump\t// out\n        /* \"#utility.yul\":28604:28677   */\n    tag_454:\n        /* \"#utility.yul\":28649:28652   */\n      0x00\n        /* \"#utility.yul\":28670:28671   */\n      0x00\n        /* \"#utility.yul\":28663:28671   */\n      swap1\n      pop\n        /* \"#utility.yul\":28604:28677   */\n      swap1\n      jump\t// out\n        /* \"#utility.yul\":28683:28872   */\n    tag_455:\n        /* \"#utility.yul\":28760:28792   */\n      tag_741\n      tag_454\n      jump\t// in\n    tag_741:\n        /* \"#utility.yul\":28801:28866   */\n      tag_742\n        /* \"#utility.yul\":28859:28865   */\n      dup2\n        /* \"#utility.yul\":28851:28857   */\n      dup5\n        /* \"#utility.yul\":28845:28849   */\n      dup5\n        /* \"#utility.yul\":28801:28866   */\n      tag_453\n      jump\t// in\n    tag_742:\n        /* \"#utility.yul\":28736:28872   */\n      pop\n        /* \"#utility.yul\":28683:28872   */\n      pop\n      pop\n      jump\t// out\n        /* \"#utility.yul\":28878:29064   */\n    tag_456:\n        /* \"#utility.yul\":28938:29058   */\n    tag_744:\n        /* \"#utility.yul\":28955:28958   */\n      dup2\n        /* \"#utility.yul\":28948:28953   */\n      dup2\n        /* \"#utility.yul\":28945:28959   */\n      lt\n        /* \"#utility.yul\":28938:29058   */\n      iszero\n      tag_746\n      jumpi\n        /* \"#utility.yul\":29009:29048   */\n      tag_747\n        /* \"#utility.yul\":29046:29047   */\n      0x00\n        /* \"#utility.yul\":29039:29044   */\n      dup3\n        /* \"#utility.yul\":29009:29048   */\n      tag_455\n      jump\t// in\n    tag_747:\n        /* \"#utility.yul\":28982:28983   */\n      0x01\n        /* \"#utility.yul\":28975:28980   */\n      dup2\n        /* \"#utility.yul\":28971:28984   */\n      add\n        /* \"#utility.yul\":28962:28984   */\n      swap1\n      pop\n        /* \"#utility.yul\":28938:29058   */\n      jump(tag_744)\n    tag_746:\n        /* \"#utility.yul\":28878:29064   */\n      pop\n      pop\n      jump\t// out\n        /* \"#utility.yul\":29070:29613   */\n    tag_457:\n        /* \"#utility.yul\":29171:29173   */\n      0x1f\n        /* \"#utility.yul\":29166:29169   */\n      dup3\n        /* \"#utility.yul\":29163:29174   */\n      gt\n        /* \"#utility.yul\":29160:29606   */\n      iszero\n      tag_749\n      jumpi\n        /* \"#utility.yul\":29205:29243   */\n      tag_750\n        /* \"#utility.yul\":29237:29242   */\n      dup2\n        /* \"#utility.yul\":29205:29243   */\n      tag_446\n      jump\t// in\n    tag_750:\n        /* \"#utility.yul\":29289:29318   */\n      tag_751\n        /* \"#utility.yul\":29307:29317   */\n      dup5\n        /* \"#utility.yul\":29289:29318   */\n      tag_448\n      jump\t// in\n    tag_751:\n        /* \"#utility.yul\":29279:29287   */\n      dup2\n        /* \"#utility.yul\":29275:29319   */\n      add\n        /* \"#utility.yul\":29472:29474   */\n      0x20\n        /* \"#utility.yul\":29460:29470   */\n      dup6\n        /* \"#utility.yul\":29457:29475   */\n      lt\n        /* \"#utility.yul\":29454:29503   */\n      iszero\n      tag_752\n      jumpi\n        /* \"#utility.yul\":29493:29501   */\n      dup2\n        /* \"#utility.yul\":29478:29501   */\n      swap1\n      pop\n        /* \"#utility.yul\":29454:29503   */\n    tag_752:\n        /* \"#utility.yul\":29516:29596   */\n      tag_753\n        /* \"#utility.yul\":29572:29594   */\n      tag_754\n        /* \"#utility.yul\":29590:29593   */\n      dup6\n        /* \"#utility.yul\":29572:29594   */\n      tag_448\n      jump\t// in\n    tag_754:\n        /* \"#utility.yul\":29562:29570   */\n      dup4\n        /* \"#utility.yul\":29558:29595   */\n      add\n        /* \"#utility.yul\":29545:29556   */\n      dup3\n        /* \"#utility.yul\":29516:29596   */\n      tag_456\n      jump\t// in\n    tag_753:\n        /* \"#utility.yul\":29175:29606   */\n      pop\n      pop\n        /* \"#utility.yul\":29160:29606   */\n    tag_749:\n        /* \"#utility.yul\":29070:29613   */\n      pop\n      pop\n      pop\n      jump\t// out\n        /* \"#utility.yul\":29619:29736   */\n    tag_458:\n        /* \"#utility.yul\":29673:29681   */\n      0x00\n        /* \"#utility.yul\":29723:29728   */\n      dup3\n        /* \"#utility.yul\":29717:29721   */\n      dup3\n        /* \"#utility.yul\":29713:29729   */\n      shr\n        /* \"#utility.yul\":29692:29729   */\n      swap1\n      pop\n        /* \"#utility.yul\":29619:29736   */\n      swap3\n      swap2\n      pop\n      pop\n      jump\t// out\n        /* \"#utility.yul\":29742:29911   */\n    tag_459:\n        /* \"#utility.yul\":29786:29792   */\n      0x00\n        /* \"#utility.yul\":29819:29870   */\n      tag_757\n        /* \"#utility.yul\":29867:29868   */\n      0x00\n        /* \"#utility.yul\":29863:29869   */\n      not\n        /* \"#utility.yul\":29855:29860   */\n      dup5\n        /* \"#utility.yul\":29852:29853   */\n      0x08\n        /* \"#utility.yul\":29848:29861   */\n      mul\n        /* \"#utility.yul\":29819:29870   */\n      tag_458\n      jump\t// in\n    tag_757:\n        /* \"#utility.yul\":29815:29871   */\n      not\n        /* \"#utility.yul\":29900:29904   */\n      dup1\n        /* \"#utility.yul\":29894:29898   */\n      dup4\n        /* \"#utility.yul\":29890:29905   */\n      and\n        /* \"#utility.yul\":29880:29905   */\n      swap2\n      pop\n        /* \"#utility.yul\":29793:29911   */\n      pop\n        /* \"#utility.yul\":29742:29911   */\n      swap3\n      swap2\n      pop\n      pop\n      jump\t// out\n        /* \"#utility.yul\":29916:30211   */\n    tag_460:\n        /* \"#utility.yul\":29992:29996   */\n      0x00\n        /* \"#utility.yul\":30138:30167   */\n      tag_759\n        /* \"#utility.yul\":30163:30166   */\n      dup4\n        /* \"#utility.yul\":30157:30161   */\n      dup4\n        /* \"#utility.yul\":30138:30167   */\n      tag_459\n      jump\t// in\n    tag_759:\n        /* \"#utility.yul\":30130:30167   */\n      swap2\n      pop\n        /* \"#utility.yul\":30200:30203   */\n      dup3\n        /* \"#utility.yul\":30197:30198   */\n      0x02\n        /* \"#utility.yul\":30193:30204   */\n      mul\n        /* \"#utility.yul\":30187:30191   */\n      dup3\n        /* \"#utility.yul\":30184:30205   */\n      or\n        /* \"#utility.yul\":30176:30205   */\n      swap1\n      pop\n        /* \"#utility.yul\":29916:30211   */\n      swap3\n      swap2\n      pop\n      pop\n      jump\t// out\n        /* \"#utility.yul\":30216:31679   */\n    tag_212:\n        /* \"#utility.yul\":30331:30334   */\n      dup2\n        /* \"#utility.yul\":30325:30329   */\n      dup2\n        /* \"#utility.yul\":30322:30335   */\n      sub\n        /* \"#utility.yul\":30319:30345   */\n      tag_761\n      jumpi\n        /* \"#utility.yul\":30338:30343   */\n      pop\n      pop\n      jump(tag_760)\n        /* \"#utility.yul\":30319:30345   */\n    tag_761:\n        /* \"#utility.yul\":30369:30407   */\n      tag_762\n        /* \"#utility.yul\":30403:30406   */\n      dup3\n        /* \"#utility.yul\":30369:30407   */\n      tag_444\n      jump\t// in\n    tag_762:\n        /* \"#utility.yul\":30472:30490   */\n      0xffffffffffffffff\n        /* \"#utility.yul\":30464:30470   */\n      dup2\n        /* \"#utility.yul\":30461:30491   */\n      gt\n        /* \"#utility.yul\":30458:30514   */\n      iszero\n      tag_763\n      jumpi\n        /* \"#utility.yul\":30494:30512   */\n      tag_764\n      tag_445\n      jump\t// in\n    tag_764:\n        /* \"#utility.yul\":30458:30514   */\n    tag_763:\n        /* \"#utility.yul\":30538:30576   */\n      tag_765\n        /* \"#utility.yul\":30570:30574   */\n      dup3\n        /* \"#utility.yul\":30564:30575   */\n      sload\n        /* \"#utility.yul\":30538:30576   */\n      tag_97\n      jump\t// in\n    tag_765:\n        /* \"#utility.yul\":30623:30690   */\n      tag_766\n        /* \"#utility.yul\":30683:30689   */\n      dup3\n        /* \"#utility.yul\":30675:30681   */\n      dup3\n        /* \"#utility.yul\":30669:30673   */\n      dup6\n        /* \"#utility.yul\":30623:30690   */\n      tag_457\n      jump\t// in\n    tag_766:\n        /* \"#utility.yul\":30717:30718   */\n      0x00\n        /* \"#utility.yul\":30746:30748   */\n      0x1f\n        /* \"#utility.yul\":30738:30744   */\n      dup4\n        /* \"#utility.yul\":30735:30749   */\n      gt\n        /* \"#utility.yul\":30763:30764   */\n      0x01\n        /* \"#utility.yul\":30758:31434   */\n      dup2\n      eq\n      tag_768\n      jumpi\n        /* \"#utility.yul\":31478:31479   */\n      0x00\n        /* \"#utility.yul\":31495:31501   */\n      dup5\n        /* \"#utility.yul\":31492:31569   */\n      iszero\n      tag_769\n      jumpi\n        /* \"#utility.yul\":31544:31553   */\n      dup3\n        /* \"#utility.yul\":31539:31542   */\n      dup8\n        /* \"#utility.yul\":31535:31554   */\n      add\n        /* \"#utility.yul\":31529:31555   */\n      sload\n        /* \"#utility.yul\":31520:31555   */\n      swap1\n      pop\n        /* \"#utility.yul\":31492:31569   */\n    tag_769:\n        /* \"#utility.yul\":31595:31662   */\n      tag_770\n        /* \"#utility.yul\":31655:31661   */\n      dup6\n        /* \"#utility.yul\":31648:31653   */\n      dup3\n        /* \"#utility.yul\":31595:31662   */\n      tag_460\n      jump\t// in\n    tag_770:\n        /* \"#utility.yul\":31589:31593   */\n      dup7\n        /* \"#utility.yul\":31582:31663   */\n      sstore\n        /* \"#utility.yul\":31451:31673   */\n      pop\n        /* \"#utility.yul\":30728:31673   */\n      jump(tag_767)\n        /* \"#utility.yul\":30758:31434   */\n    tag_768:\n        /* \"#utility.yul\":30810:30814   */\n      0x1f\n        /* \"#utility.yul\":30806:30815   */\n      not\n        /* \"#utility.yul\":30798:30804   */\n      dup5\n        /* \"#utility.yul\":30794:30816   */\n      and\n        /* \"#utility.yul\":30836:30876   */\n      tag_771\n        /* \"#utility.yul\":30872:30875   */\n      dup8\n        /* \"#utility.yul\":30836:30876   */\n      tag_447\n      jump\t// in\n    tag_771:\n        /* \"#utility.yul\":30829:30876   */\n      swap7\n      pop\n        /* \"#utility.yul\":30903:30940   */\n      tag_772\n        /* \"#utility.yul\":30935:30939   */\n      dup7\n        /* \"#utility.yul\":30903:30940   */\n      tag_446\n      jump\t// in\n    tag_772:\n        /* \"#utility.yul\":30962:30963   */\n      0x00\n        /* \"#utility.yul\":30976:31183   */\n    tag_773:\n        /* \"#utility.yul\":30990:30997   */\n      dup3\n        /* \"#utility.yul\":30987:30988   */\n      dup2\n        /* \"#utility.yul\":30984:30998   */\n      lt\n        /* \"#utility.yul\":30976:31183   */\n      iszero\n      tag_775\n      jumpi\n        /* \"#utility.yul\":31069:31078   */\n      dup5\n        /* \"#utility.yul\":31064:31067   */\n      dup10\n        /* \"#utility.yul\":31060:31079   */\n      add\n        /* \"#utility.yul\":31054:31080   */\n      sload\n        /* \"#utility.yul\":31046:31052   */\n      dup3\n        /* \"#utility.yul\":31039:31081   */\n      sstore\n        /* \"#utility.yul\":31120:31121   */\n      0x01\n        /* \"#utility.yul\":31112:31118   */\n      dup3\n        /* \"#utility.yul\":31108:31122   */\n      add\n        /* \"#utility.yul\":31098:31122   */\n      swap2\n      pop\n        /* \"#utility.yul\":31167:31168   */\n      0x01\n        /* \"#utility.yul\":31156:31165   */\n      dup6\n        /* \"#utility.yul\":31152:31169   */\n      add\n        /* \"#utility.yul\":31139:31169   */\n      swap5\n      pop\n        /* \"#utility.yul\":31013:31017   */\n      0x20\n        /* \"#utility.yul\":31010:31011   */\n      dup2\n        /* \"#utility.yul\":31006:31018   */\n      add\n        /* \"#utility.yul\":31001:31018   */\n      swap1\n      pop\n        /* \"#utility.yul\":30976:31183   */\n      jump(tag_773)\n    tag_775:\n        /* \"#utility.yul\":31211:31217   */\n      dup7\n        /* \"#utility.yul\":31202:31209   */\n      dup4\n        /* \"#utility.yul\":31199:31218   */\n      lt\n        /* \"#utility.yul\":31196:31375   */\n      iszero\n      tag_776\n      jumpi\n        /* \"#utility.yul\":31269:31278   */\n      dup5\n        /* \"#utility.yul\":31264:31267   */\n      dup10\n        /* \"#utility.yul\":31260:31279   */\n      add\n        /* \"#utility.yul\":31254:31280   */\n      sload\n        /* \"#utility.yul\":31312:31360   */\n      tag_777\n        /* \"#utility.yul\":31354:31358   */\n      0x1f\n        /* \"#utility.yul\":31346:31352   */\n      dup10\n        /* \"#utility.yul\":31342:31359   */\n      and\n        /* \"#utility.yul\":31331:31340   */\n      dup3\n        /* \"#utility.yul\":31312:31360   */\n      tag_459\n      jump\t// in\n    tag_777:\n        /* \"#utility.yul\":31304:31310   */\n      dup4\n        /* \"#utility.yul\":31297:31361   */\n      sstore\n        /* \"#utility.yul\":31219:31375   */\n      pop\n        /* \"#utility.yul\":31196:31375   */\n    tag_776:\n        /* \"#utility.yul\":31421:31422   */\n      0x01\n        /* \"#utility.yul\":31417:31418   */\n      0x02\n        /* \"#utility.yul\":31409:31415   */\n      dup9\n        /* \"#utility.yul\":31405:31419   */\n      mul\n        /* \"#utility.yul\":31401:31423   */\n      add\n        /* \"#utility.yul\":31395:31399   */\n      dup9\n        /* \"#utility.yul\":31388:31424   */\n      sstore\n        /* \"#utility.yul\":30765:31434   */\n      pop\n      pop\n      pop\n        /* \"#utility.yul\":30728:31673   */\n    tag_767:\n      pop\n        /* \"#utility.yul\":30309:31679   */\n      pop\n      pop\n      pop\n        /* \"#utility.yul\":30216:31679   */\n      pop\n      pop\n    tag_760:\n      jump\t// out\n        /* \"#utility.yul\":31685:32005   */\n    tag_216:\n        /* \"#utility.yul\":31800:31804   */\n      0x00\n        /* \"#utility.yul\":31838:31840   */\n      0x40\n        /* \"#utility.yul\":31827:31836   */\n      dup3\n        /* \"#utility.yul\":31823:31841   */\n      add\n        /* \"#utility.yul\":31815:31841   */\n      swap1\n      pop\n        /* \"#utility.yul\":31851:31922   */\n      tag_779\n        /* \"#utility.yul\":31919:31920   */\n      0x00\n        /* \"#utility.yul\":31908:31917   */\n      dup4\n        /* \"#utility.yul\":31904:31921   */\n      add\n        /* \"#utility.yul\":31895:31901   */\n      dup6\n        /* \"#utility.yul\":31851:31922   */\n      tag_387\n      jump\t// in\n    tag_779:\n        /* \"#utility.yul\":31932:31998   */\n      tag_780\n        /* \"#utility.yul\":31994:31996   */\n      0x20\n        /* \"#utility.yul\":31983:31992   */\n      dup4\n        /* \"#utility.yul\":31979:31997   */\n      add\n        /* \"#utility.yul\":31970:31976   */\n      dup5\n        /* \"#utility.yul\":31932:31998   */\n      tag_397\n      jump\t// in\n    tag_780:\n        /* \"#utility.yul\":31685:32005   */\n      swap4\n      swap3\n      pop\n      pop\n      pop\n      jump\t// out\n        /* \"#utility.yul\":32011:32184   */\n    tag_461:\n        /* \"#utility.yul\":32151:32176   */\n      0x5461736b206e6f74207665726966696564202879657429000000000000000000\n        /* \"#utility.yul\":32147:32148   */\n      0x00\n        /* \"#utility.yul\":32139:32145   */\n      dup3\n        /* \"#utility.yul\":32135:32149   */\n      add\n        /* \"#utility.yul\":32128:32177   */\n      mstore\n        /* \"#utility.yul\":32011:32184   */\n      pop\n      jump\t// out\n        /* \"#utility.yul\":32190:32556   */\n    tag_462:\n        /* \"#utility.yul\":32332:32335   */\n      0x00\n        /* \"#utility.yul\":32353:32420   */\n      tag_783\n        /* \"#utility.yul\":32417:32419   */\n      0x17\n        /* \"#utility.yul\":32412:32415   */\n      dup4\n        /* \"#utility.yul\":32353:32420   */\n      tag_392\n      jump\t// in\n    tag_783:\n        /* \"#utility.yul\":32346:32420   */\n      swap2\n      pop\n        /* \"#utility.yul\":32429:32522   */\n      tag_784\n        /* \"#utility.yul\":32518:32521   */\n      dup3\n        /* \"#utility.yul\":32429:32522   */\n      tag_461\n      jump\t// in\n    tag_784:\n        /* \"#utility.yul\":32547:32549   */\n      0x20\n        /* \"#utility.yul\":32542:32545   */\n      dup3\n        /* \"#utility.yul\":32538:32550   */\n      add\n        /* \"#utility.yul\":32531:32550   */\n      swap1\n      pop\n        /* \"#utility.yul\":32190:32556   */\n      swap2\n      swap1\n      pop\n      jump\t// out\n        /* \"#utility.yul\":32562:32981   */\n    tag_237:\n        /* \"#utility.yul\":32728:32732   */\n      0x00\n        /* \"#utility.yul\":32766:32768   */\n      0x20\n        /* \"#utility.yul\":32755:32764   */\n      dup3\n        /* \"#utility.yul\":32751:32769   */\n      add\n        /* \"#utility.yul\":32743:32769   */\n      swap1\n      pop\n        /* \"#utility.yul\":32815:32824   */\n      dup2\n        /* \"#utility.yul\":32809:32813   */\n      dup2\n        /* \"#utility.yul\":32805:32825   */\n      sub\n        /* \"#utility.yul\":32801:32802   */\n      0x00\n        /* \"#utility.yul\":32790:32799   */\n      dup4\n        /* \"#utility.yul\":32786:32803   */\n      add\n        /* \"#utility.yul\":32779:32826   */\n      mstore\n        /* \"#utility.yul\":32843:32974   */\n      tag_786\n        /* \"#utility.yul\":32969:32973   */\n      dup2\n        /* \"#utility.yul\":32843:32974   */\n      tag_462\n      jump\t// in\n    tag_786:\n        /* \"#utility.yul\":32835:32974   */\n      swap1\n      pop\n        /* \"#utility.yul\":32562:32981   */\n      swap2\n      swap1\n      pop\n      jump\t// out\n        /* \"#utility.yul\":32987:33164   */\n    tag_463:\n        /* \"#utility.yul\":33127:33156   */\n      0x57616974696e672074696d65206e6f7420706173736564207965740000000000\n        /* \"#utility.yul\":33123:33124   */\n      0x00\n        /* \"#utility.yul\":33115:33121   */\n      dup3\n        /* \"#utility.yul\":33111:33125   */\n      add\n        /* \"#utility.yul\":33104:33157   */\n      mstore\n        /* \"#utility.yul\":32987:33164   */\n      pop\n      jump\t// out\n        /* \"#utility.yul\":33170:33536   */\n    tag_464:\n        /* \"#utility.yul\":33312:33315   */\n      0x00\n        /* \"#utility.yul\":33333:33400   */\n      tag_789\n        /* \"#utility.yul\":33397:33399   */\n      0x1b\n        /* \"#utility.yul\":33392:33395   */\n      dup4\n        /* \"#utility.yul\":33333:33400   */\n      tag_392\n      jump\t// in\n    tag_789:\n        /* \"#utility.yul\":33326:33400   */\n      swap2\n      pop\n        /* \"#utility.yul\":33409:33502   */\n      tag_790\n        /* \"#utility.yul\":33498:33501   */\n      dup3\n        /* \"#utility.yul\":33409:33502   */\n      tag_463\n      jump\t// in\n    tag_790:\n        /* \"#utility.yul\":33527:33529   */\n      0x20\n        /* \"#utility.yul\":33522:33525   */\n      dup3\n        /* \"#utility.yul\":33518:33530   */\n      add\n        /* \"#utility.yul\":33511:33530   */\n      swap1\n      pop\n        /* \"#utility.yul\":33170:33536   */\n      swap2\n      swap1\n      pop\n      jump\t// out\n        /* \"#utility.yul\":33542:33961   */\n    tag_240:\n        /* \"#utility.yul\":33708:33712   */\n      0x00\n        /* \"#utility.yul\":33746:33748   */\n      0x20\n        /* \"#utility.yul\":33735:33744   */\n      dup3\n        /* \"#utility.yul\":33731:33749   */\n      add\n        /* \"#utility.yul\":33723:33749   */\n      swap1\n      pop\n        /* \"#utility.yul\":33795:33804   */\n      dup2\n        /* \"#utility.yul\":33789:33793   */\n      dup2\n        /* \"#utility.yul\":33785:33805   */\n      sub\n        /* \"#utility.yul\":33781:33782   */\n      0x00\n        /* \"#utility.yul\":33770:33779   */\n      dup4\n        /* \"#utility.yul\":33766:33783   */\n      add\n        /* \"#utility.yul\":33759:33806   */\n      mstore\n        /* \"#utility.yul\":33823:33954   */\n      tag_792\n        /* \"#utility.yul\":33949:33953   */\n      dup2\n        /* \"#utility.yul\":33823:33954   */\n      tag_464\n      jump\t// in\n    tag_792:\n        /* \"#utility.yul\":33815:33954   */\n      swap1\n      pop\n        /* \"#utility.yul\":33542:33961   */\n      swap2\n      swap1\n      pop\n      jump\t// out\n        /* \"#utility.yul\":33967:34132   */\n    tag_465:\n        /* \"#utility.yul\":34107:34124   */\n      0x4e6f207665726966696572207965740000000000000000000000000000000000\n        /* \"#utility.yul\":34103:34104   */\n      0x00\n        /* \"#utility.yul\":34095:34101   */\n      dup3\n        /* \"#utility.yul\":34091:34105   */\n      add\n        /* \"#utility.yul\":34084:34125   */\n      mstore\n        /* \"#utility.yul\":33967:34132   */\n      pop\n      jump\t// out\n        /* \"#utility.yul\":34138:34504   */\n    tag_466:\n        /* \"#utility.yul\":34280:34283   */\n      0x00\n        /* \"#utility.yul\":34301:34368   */\n      tag_795\n        /* \"#utility.yul\":34365:34367   */\n      0x0f\n        /* \"#utility.yul\":34360:34363   */\n      dup4\n        /* \"#utility.yul\":34301:34368   */\n      tag_392\n      jump\t// in\n    tag_795:\n        /* \"#utility.yul\":34294:34368   */\n      swap2\n      pop\n        /* \"#utility.yul\":34377:34470   */\n      tag_796\n        /* \"#utility.yul\":34466:34469   */\n      dup3\n        /* \"#utility.yul\":34377:34470   */\n      tag_465\n      jump\t// in\n    tag_796:\n        /* \"#utility.yul\":34495:34497   */\n      0x20\n        /* \"#utility.yul\":34490:34493   */\n      dup3\n        /* \"#utility.yul\":34486:34498   */\n      add\n        /* \"#utility.yul\":34479:34498   */\n      swap1\n      pop\n        /* \"#utility.yul\":34138:34504   */\n      swap2\n      swap1\n      pop\n      jump\t// out\n        /* \"#utility.yul\":34510:34929   */\n    tag_243:\n        /* \"#utility.yul\":34676:34680   */\n      0x00\n        /* \"#utility.yul\":34714:34716   */\n      0x20\n        /* \"#utility.yul\":34703:34712   */\n      dup3\n        /* \"#utility.yul\":34699:34717   */\n      add\n        /* \"#utility.yul\":34691:34717   */\n      swap1\n      pop\n        /* \"#utility.yul\":34763:34772   */\n      dup2\n        /* \"#utility.yul\":34757:34761   */\n      dup2\n        /* \"#utility.yul\":34753:34773   */\n      sub\n        /* \"#utility.yul\":34749:34750   */\n      0x00\n        /* \"#utility.yul\":34738:34747   */\n      dup4\n        /* \"#utility.yul\":34734:34751   */\n      add\n        /* \"#utility.yul\":34727:34774   */\n      mstore\n        /* \"#utility.yul\":34791:34922   */\n      tag_798\n        /* \"#utility.yul\":34917:34921   */\n      dup2\n        /* \"#utility.yul\":34791:34922   */\n      tag_466\n      jump\t// in\n    tag_798:\n        /* \"#utility.yul\":34783:34922   */\n      swap1\n      pop\n        /* \"#utility.yul\":34510:34929   */\n      swap2\n      swap1\n      pop\n      jump\t// out\n        /* \"#utility.yul\":34935:35093   */\n    tag_467:\n        /* \"#utility.yul\":35075:35085   */\n      0x6469737075746564000000000000000000000000000000000000000000000000\n        /* \"#utility.yul\":35071:35072   */\n      0x00\n        /* \"#utility.yul\":35063:35069   */\n      dup3\n        /* \"#utility.yul\":35059:35073   */\n      add\n        /* \"#utility.yul\":35052:35086   */\n      mstore\n        /* \"#utility.yul\":34935:35093   */\n      pop\n      jump\t// out\n        /* \"#utility.yul\":35099:35464   */\n    tag_468:\n        /* \"#utility.yul\":35241:35244   */\n      0x00\n        /* \"#utility.yul\":35262:35328   */\n      tag_801\n        /* \"#utility.yul\":35326:35327   */\n      0x08\n        /* \"#utility.yul\":35321:35324   */\n      dup4\n        /* \"#utility.yul\":35262:35328   */\n      tag_392\n      jump\t// in\n    tag_801:\n        /* \"#utility.yul\":35255:35328   */\n      swap2\n      pop\n        /* \"#utility.yul\":35337:35430   */\n      tag_802\n        /* \"#utility.yul\":35426:35429   */\n      dup3\n        /* \"#utility.yul\":35337:35430   */\n      tag_467\n      jump\t// in\n    tag_802:\n        /* \"#utility.yul\":35455:35457   */\n      0x20\n        /* \"#utility.yul\":35450:35453   */\n      dup3\n        /* \"#utility.yul\":35446:35458   */\n      add\n        /* \"#utility.yul\":35439:35458   */\n      swap1\n      pop\n        /* \"#utility.yul\":35099:35464   */\n      swap2\n      swap1\n      pop\n      jump\t// out\n        /* \"#utility.yul\":35470:35889   */\n    tag_246:\n        /* \"#utility.yul\":35636:35640   */\n      0x00\n        /* \"#utility.yul\":35674:35676   */\n      0x20\n        /* \"#utility.yul\":35663:35672   */\n      dup3\n        /* \"#utility.yul\":35659:35677   */\n      add\n        /* \"#utility.yul\":35651:35677   */\n      swap1\n      pop\n        /* \"#utility.yul\":35723:35732   */\n      dup2\n        /* \"#utility.yul\":35717:35721   */\n      dup2\n        /* \"#utility.yul\":35713:35733   */\n      sub\n        /* \"#utility.yul\":35709:35710   */\n      0x00\n        /* \"#utility.yul\":35698:35707   */\n      dup4\n        /* \"#utility.yul\":35694:35711   */\n      add\n        /* \"#utility.yul\":35687:35734   */\n      mstore\n        /* \"#utility.yul\":35751:35882   */\n      tag_804\n        /* \"#utility.yul\":35877:35881   */\n      dup2\n        /* \"#utility.yul\":35751:35882   */\n      tag_468\n      jump\t// in\n    tag_804:\n        /* \"#utility.yul\":35743:35882   */\n      swap1\n      pop\n        /* \"#utility.yul\":35470:35889   */\n      swap2\n      swap1\n      pop\n      jump\t// out\n        /* \"#utility.yul\":35895:36305   */\n    tag_251:\n        /* \"#utility.yul\":35935:35942   */\n      0x00\n        /* \"#utility.yul\":35958:35978   */\n      tag_806\n        /* \"#utility.yul\":35976:35977   */\n      dup3\n        /* \"#utility.yul\":35958:35978   */\n      tag_384\n      jump\t// in\n    tag_806:\n        /* \"#utility.yul\":35953:35978   */\n      swap2\n      pop\n        /* \"#utility.yul\":35992:36012   */\n      tag_807\n        /* \"#utility.yul\":36010:36011   */\n      dup4\n        /* \"#utility.yul\":35992:36012   */\n      tag_384\n      jump\t// in\n    tag_807:\n        /* \"#utility.yul\":35987:36012   */\n      swap3\n      pop\n        /* \"#utility.yul\":36047:36048   */\n      dup3\n        /* \"#utility.yul\":36044:36045   */\n      dup3\n        /* \"#utility.yul\":36040:36049   */\n      mul\n        /* \"#utility.yul\":36069:36099   */\n      tag_808\n        /* \"#utility.yul\":36087:36098   */\n      dup2\n        /* \"#utility.yul\":36069:36099   */\n      tag_384\n      jump\t// in\n    tag_808:\n        /* \"#utility.yul\":36058:36099   */\n      swap2\n      pop\n        /* \"#utility.yul\":36248:36249   */\n      dup3\n        /* \"#utility.yul\":36239:36246   */\n      dup3\n        /* \"#utility.yul\":36235:36250   */\n      div\n        /* \"#utility.yul\":36232:36233   */\n      dup5\n        /* \"#utility.yul\":36229:36251   */\n      eq\n        /* \"#utility.yul\":36209:36210   */\n      dup4\n        /* \"#utility.yul\":36202:36211   */\n      iszero\n        /* \"#utility.yul\":36182:36265   */\n      or\n        /* \"#utility.yul\":36159:36298   */\n      tag_809\n      jumpi\n        /* \"#utility.yul\":36278:36296   */\n      tag_810\n      tag_415\n      jump\t// in\n    tag_810:\n        /* \"#utility.yul\":36159:36298   */\n    tag_809:\n        /* \"#utility.yul\":35943:36305   */\n      pop\n        /* \"#utility.yul\":35895:36305   */\n      swap3\n      swap2\n      pop\n      pop\n      jump\t// out\n        /* \"#utility.yul\":36311:36491   */\n    tag_469:\n        /* \"#utility.yul\":36359:36436   */\n      0x4e487b7100000000000000000000000000000000000000000000000000000000\n        /* \"#utility.yul\":36356:36357   */\n      0x00\n        /* \"#utility.yul\":36349:36437   */\n      mstore\n        /* \"#utility.yul\":36456:36460   */\n      0x12\n        /* \"#utility.yul\":36453:36454   */\n      0x04\n        /* \"#utility.yul\":36446:36461   */\n      mstore\n        /* \"#utility.yul\":36480:36484   */\n      0x24\n        /* \"#utility.yul\":36477:36478   */\n      0x00\n        /* \"#utility.yul\":36470:36485   */\n      revert\n        /* \"#utility.yul\":36497:36682   */\n    tag_253:\n        /* \"#utility.yul\":36537:36538   */\n      0x00\n        /* \"#utility.yul\":36554:36574   */\n      tag_813\n        /* \"#utility.yul\":36572:36573   */\n      dup3\n        /* \"#utility.yul\":36554:36574   */\n      tag_384\n      jump\t// in\n    tag_813:\n        /* \"#utility.yul\":36549:36574   */\n      swap2\n      pop\n        /* \"#utility.yul\":36588:36608   */\n      tag_814\n        /* \"#utility.yul\":36606:36607   */\n      dup4\n        /* \"#utility.yul\":36588:36608   */\n      tag_384\n      jump\t// in\n    tag_814:\n        /* \"#utility.yul\":36583:36608   */\n      swap3\n      pop\n        /* \"#utility.yul\":36627:36628   */\n      dup3\n        /* \"#utility.yul\":36617:36652   */\n      tag_815\n      jumpi\n        /* \"#utility.yul\":36632:36650   */\n      tag_816\n      tag_469\n      jump\t// in\n    tag_816:\n        /* \"#utility.yul\":36617:36652   */\n    tag_815:\n        /* \"#utility.yul\":36674:36675   */\n      dup3\n        /* \"#utility.yul\":36671:36672   */\n      dup3\n        /* \"#utility.yul\":36667:36676   */\n      div\n        /* \"#utility.yul\":36662:36676   */\n      swap1\n      pop\n        /* \"#utility.yul\":36497:36682   */\n      swap3\n      swap2\n      pop\n      pop\n      jump\t// out\n        /* \"#utility.yul\":36688:38083   */\n    tag_269:\n        /* \"#utility.yul\":36805:36842   */\n      tag_818\n        /* \"#utility.yul\":36838:36841   */\n      dup3\n        /* \"#utility.yul\":36805:36842   */\n      tag_391\n      jump\t// in\n    tag_818:\n        /* \"#utility.yul\":36907:36925   */\n      0xffffffffffffffff\n        /* \"#utility.yul\":36899:36905   */\n      dup2\n        /* \"#utility.yul\":36896:36926   */\n      gt\n        /* \"#utility.yul\":36893:36949   */\n      iszero\n      tag_819\n      jumpi\n        /* \"#utility.yul\":36929:36947   */\n      tag_820\n      tag_445\n      jump\t// in\n    tag_820:\n        /* \"#utility.yul\":36893:36949   */\n    tag_819:\n        /* \"#utility.yul\":36973:37011   */\n      tag_821\n        /* \"#utility.yul\":37005:37009   */\n      dup3\n        /* \"#utility.yul\":36999:37010   */\n      sload\n        /* \"#utility.yul\":36973:37011   */\n      tag_97\n      jump\t// in\n    tag_821:\n        /* \"#utility.yul\":37058:37125   */\n      tag_822\n        /* \"#utility.yul\":37118:37124   */\n      dup3\n        /* \"#utility.yul\":37110:37116   */\n      dup3\n        /* \"#utility.yul\":37104:37108   */\n      dup6\n        /* \"#utility.yul\":37058:37125   */\n      tag_457\n      jump\t// in\n    tag_822:\n        /* \"#utility.yul\":37152:37153   */\n      0x00\n        /* \"#utility.yul\":37176:37180   */\n      0x20\n        /* \"#utility.yul\":37163:37180   */\n      swap1\n      pop\n        /* \"#utility.yul\":37208:37210   */\n      0x1f\n        /* \"#utility.yul\":37200:37206   */\n      dup4\n        /* \"#utility.yul\":37197:37211   */\n      gt\n        /* \"#utility.yul\":37225:37226   */\n      0x01\n        /* \"#utility.yul\":37220:37838   */\n      dup2\n      eq\n      tag_824\n      jumpi\n        /* \"#utility.yul\":37882:37883   */\n      0x00\n        /* \"#utility.yul\":37899:37905   */\n      dup5\n        /* \"#utility.yul\":37896:37973   */\n      iszero\n      tag_825\n      jumpi\n        /* \"#utility.yul\":37948:37957   */\n      dup3\n        /* \"#utility.yul\":37943:37946   */\n      dup8\n        /* \"#utility.yul\":37939:37958   */\n      add\n        /* \"#utility.yul\":37933:37959   */\n      mload\n        /* \"#utility.yul\":37924:37959   */\n      swap1\n      pop\n        /* \"#utility.yul\":37896:37973   */\n    tag_825:\n        /* \"#utility.yul\":37999:38066   */\n      tag_826\n        /* \"#utility.yul\":38059:38065   */\n      dup6\n        /* \"#utility.yul\":38052:38057   */\n      dup3\n        /* \"#utility.yul\":37999:38066   */\n      tag_460\n      jump\t// in\n    tag_826:\n        /* \"#utility.yul\":37993:37997   */\n      dup7\n        /* \"#utility.yul\":37986:38067   */\n      sstore\n        /* \"#utility.yul\":37855:38077   */\n      pop\n        /* \"#utility.yul\":37190:38077   */\n      jump(tag_823)\n        /* \"#utility.yul\":37220:37838   */\n    tag_824:\n        /* \"#utility.yul\":37272:37276   */\n      0x1f\n        /* \"#utility.yul\":37268:37277   */\n      not\n        /* \"#utility.yul\":37260:37266   */\n      dup5\n        /* \"#utility.yul\":37256:37278   */\n      and\n        /* \"#utility.yul\":37306:37343   */\n      tag_827\n        /* \"#utility.yul\":37338:37342   */\n      dup7\n        /* \"#utility.yul\":37306:37343   */\n      tag_446\n      jump\t// in\n    tag_827:\n        /* \"#utility.yul\":37365:37366   */\n      0x00\n        /* \"#utility.yul\":37379:37587   */\n    tag_828:\n        /* \"#utility.yul\":37393:37400   */\n      dup3\n        /* \"#utility.yul\":37390:37391   */\n      dup2\n        /* \"#utility.yul\":37387:37401   */\n      lt\n        /* \"#utility.yul\":37379:37587   */\n      iszero\n      tag_830\n      jumpi\n        /* \"#utility.yul\":37472:37481   */\n      dup5\n        /* \"#utility.yul\":37467:37470   */\n      dup10\n        /* \"#utility.yul\":37463:37482   */\n      add\n        /* \"#utility.yul\":37457:37483   */\n      mload\n        /* \"#utility.yul\":37449:37455   */\n      dup3\n        /* \"#utility.yul\":37442:37484   */\n      sstore\n        /* \"#utility.yul\":37523:37524   */\n      0x01\n        /* \"#utility.yul\":37515:37521   */\n      dup3\n        /* \"#utility.yul\":37511:37525   */\n      add\n        /* \"#utility.yul\":37501:37525   */\n      swap2\n      pop\n        /* \"#utility.yul\":37570:37572   */\n      0x20\n        /* \"#utility.yul\":37559:37568   */\n      dup6\n        /* \"#utility.yul\":37555:37573   */\n      add\n        /* \"#utility.yul\":37542:37573   */\n      swap5\n      pop\n        /* \"#utility.yul\":37416:37420   */\n      0x20\n        /* \"#utility.yul\":37413:37414   */\n      dup2\n        /* \"#utility.yul\":37409:37421   */\n      add\n        /* \"#utility.yul\":37404:37421   */\n      swap1\n      pop\n        /* \"#utility.yul\":37379:37587   */\n      jump(tag_828)\n    tag_830:\n        /* \"#utility.yul\":37615:37621   */\n      dup7\n        /* \"#utility.yul\":37606:37613   */\n      dup4\n        /* \"#utility.yul\":37603:37622   */\n      lt\n        /* \"#utility.yul\":37600:37779   */\n      iszero\n      tag_831\n      jumpi\n        /* \"#utility.yul\":37673:37682   */\n      dup5\n        /* \"#utility.yul\":37668:37671   */\n      dup10\n        /* \"#utility.yul\":37664:37683   */\n      add\n        /* \"#utility.yul\":37658:37684   */\n      mload\n        /* \"#utility.yul\":37716:37764   */\n      tag_832\n        /* \"#utility.yul\":37758:37762   */\n      0x1f\n        /* \"#utility.yul\":37750:37756   */\n      dup10\n        /* \"#utility.yul\":37746:37763   */\n      and\n        /* \"#utility.yul\":37735:37744   */\n      dup3\n        /* \"#utility.yul\":37716:37764   */\n      tag_459\n      jump\t// in\n    tag_832:\n        /* \"#utility.yul\":37708:37714   */\n      dup4\n        /* \"#utility.yul\":37701:37765   */\n      sstore\n        /* \"#utility.yul\":37623:37779   */\n      pop\n        /* \"#utility.yul\":37600:37779   */\n    tag_831:\n        /* \"#utility.yul\":37825:37826   */\n      0x01\n        /* \"#utility.yul\":37821:37822   */\n      0x02\n        /* \"#utility.yul\":37813:37819   */\n      dup9\n        /* \"#utility.yul\":37809:37823   */\n      mul\n        /* \"#utility.yul\":37805:37827   */\n      add\n        /* \"#utility.yul\":37799:37803   */\n      dup9\n        /* \"#utility.yul\":37792:37828   */\n      sstore\n        /* \"#utility.yul\":37227:37838   */\n      pop\n      pop\n      pop\n        /* \"#utility.yul\":37190:38077   */\n    tag_823:\n      pop\n        /* \"#utility.yul\":36780:38083   */\n      pop\n      pop\n      pop\n        /* \"#utility.yul\":36688:38083   */\n      pop\n      pop\n      jump\t// out\n        /* \"#utility.yul\":38089:38263   */\n    tag_470:\n        /* \"#utility.yul\":38229:38255   */\n      0x5461736b206e6f74207375626d69747465642028796574290000000000000000\n        /* \"#utility.yul\":38225:38226   */\n      0x00\n        /* \"#utility.yul\":38217:38223   */\n      dup3\n        /* \"#utility.yul\":38213:38227   */\n      add\n        /* \"#utility.yul\":38206:38256   */\n      mstore\n        /* \"#utility.yul\":38089:38263   */\n      pop\n      jump\t// out\n        /* \"#utility.yul\":38269:38635   */\n    tag_471:\n        /* \"#utility.yul\":38411:38414   */\n      0x00\n        /* \"#utility.yul\":38432:38499   */\n      tag_835\n        /* \"#utility.yul\":38496:38498   */\n      0x18\n        /* \"#utility.yul\":38491:38494   */\n      dup4\n        /* \"#utility.yul\":38432:38499   */\n      tag_392\n      jump\t// in\n    tag_835:\n        /* \"#utility.yul\":38425:38499   */\n      swap2\n      pop\n        /* \"#utility.yul\":38508:38601   */\n      tag_836\n        /* \"#utility.yul\":38597:38600   */\n      dup3\n        /* \"#utility.yul\":38508:38601   */\n      tag_470\n      jump\t// in\n    tag_836:\n        /* \"#utility.yul\":38626:38628   */\n      0x20\n        /* \"#utility.yul\":38621:38624   */\n      dup3\n        /* \"#utility.yul\":38617:38629   */\n      add\n        /* \"#utility.yul\":38610:38629   */\n      swap1\n      pop\n        /* \"#utility.yul\":38269:38635   */\n      swap2\n      swap1\n      pop\n      jump\t// out\n        /* \"#utility.yul\":38641:39060   */\n    tag_281:\n        /* \"#utility.yul\":38807:38811   */\n      0x00\n        /* \"#utility.yul\":38845:38847   */\n      0x20\n        /* \"#utility.yul\":38834:38843   */\n      dup3\n        /* \"#utility.yul\":38830:38848   */\n      add\n        /* \"#utility.yul\":38822:38848   */\n      swap1\n      pop\n        /* \"#utility.yul\":38894:38903   */\n      dup2\n        /* \"#utility.yul\":38888:38892   */\n      dup2\n        /* \"#utility.yul\":38884:38904   */\n      sub\n        /* \"#utility.yul\":38880:38881   */\n      0x00\n        /* \"#utility.yul\":38869:38878   */\n      dup4\n        /* \"#utility.yul\":38865:38882   */\n      add\n        /* \"#utility.yul\":38858:38905   */\n      mstore\n        /* \"#utility.yul\":38922:39053   */\n      tag_838\n        /* \"#utility.yul\":39048:39052   */\n      dup2\n        /* \"#utility.yul\":38922:39053   */\n      tag_471\n      jump\t// in\n    tag_838:\n        /* \"#utility.yul\":38914:39053   */\n      swap1\n      pop\n        /* \"#utility.yul\":38641:39060   */\n      swap2\n      swap1\n      pop\n      jump\t// out\n        /* \"#utility.yul\":39066:39230   */\n    tag_472:\n        /* \"#utility.yul\":39206:39222   */\n      0x5374616b65207265717569726564000000000000000000000000000000000000\n        /* \"#utility.yul\":39202:39203   */\n      0x00\n        /* \"#utility.yul\":39194:39200   */\n      dup3\n        /* \"#utility.yul\":39190:39204   */\n      add\n        /* \"#utility.yul\":39183:39223   */\n      mstore\n        /* \"#utility.yul\":39066:39230   */\n      pop\n      jump\t// out\n        /* \"#utility.yul\":39236:39602   */\n    tag_473:\n        /* \"#utility.yul\":39378:39381   */\n      0x00\n        /* \"#utility.yul\":39399:39466   */\n      tag_841\n        /* \"#utility.yul\":39463:39465   */\n      0x0e\n        /* \"#utility.yul\":39458:39461   */\n      dup4\n        /* \"#utility.yul\":39399:39466   */\n      tag_392\n      jump\t// in\n    tag_841:\n        /* \"#utility.yul\":39392:39466   */\n      swap2\n      pop\n        /* \"#utility.yul\":39475:39568   */\n      tag_842\n        /* \"#utility.yul\":39564:39567   */\n      dup3\n        /* \"#utility.yul\":39475:39568   */\n      tag_472\n      jump\t// in\n    tag_842:\n        /* \"#utility.yul\":39593:39595   */\n      0x20\n        /* \"#utility.yul\":39588:39591   */\n      dup3\n        /* \"#utility.yul\":39584:39596   */\n      add\n        /* \"#utility.yul\":39577:39596   */\n      swap1\n      pop\n        /* \"#utility.yul\":39236:39602   */\n      swap2\n      swap1\n      pop\n      jump\t// out\n        /* \"#utility.yul\":39608:40027   */\n    tag_284:\n        /* \"#utility.yul\":39774:39778   */\n      0x00\n        /* \"#utility.yul\":39812:39814   */\n      0x20\n        /* \"#utility.yul\":39801:39810   */\n      dup3\n        /* \"#utility.yul\":39797:39815   */\n      add\n        /* \"#utility.yul\":39789:39815   */\n      swap1\n      pop\n        /* \"#utility.yul\":39861:39870   */\n      dup2\n        /* \"#utility.yul\":39855:39859   */\n      dup2\n        /* \"#utility.yul\":39851:39871   */\n      sub\n        /* \"#utility.yul\":39847:39848   */\n      0x00\n        /* \"#utility.yul\":39836:39845   */\n      dup4\n        /* \"#utility.yul\":39832:39849   */\n      add\n        /* \"#utility.yul\":39825:39872   */\n      mstore\n        /* \"#utility.yul\":39889:40020   */\n      tag_844\n        /* \"#utility.yul\":40015:40019   */\n      dup2\n        /* \"#utility.yul\":39889:40020   */\n      tag_473\n      jump\t// in\n    tag_844:\n        /* \"#utility.yul\":39881:40020   */\n      swap1\n      pop\n        /* \"#utility.yul\":39608:40027   */\n      swap2\n      swap1\n      pop\n      jump\t// out\n        /* \"#utility.yul\":40033:40199   */\n    tag_474:\n        /* \"#utility.yul\":40173:40191   */\n      0x416c726561647920766572696669656400000000000000000000000000000000\n        /* \"#utility.yul\":40169:40170   */\n      0x00\n        /* \"#utility.yul\":40161:40167   */\n      dup3\n        /* \"#utility.yul\":40157:40171   */\n      add\n        /* \"#utility.yul\":40150:40192   */\n      mstore\n        /* \"#utility.yul\":40033:40199   */\n      pop\n      jump\t// out\n        /* \"#utility.yul\":40205:40571   */\n    tag_475:\n        /* \"#utility.yul\":40347:40350   */\n      0x00\n        /* \"#utility.yul\":40368:40435   */\n      tag_847\n        /* \"#utility.yul\":40432:40434   */\n      0x10\n        /* \"#utility.yul\":40427:40430   */\n      dup4\n        /* \"#utility.yul\":40368:40435   */\n      tag_392\n      jump\t// in\n    tag_847:\n        /* \"#utility.yul\":40361:40435   */\n      swap2\n      pop\n        /* \"#utility.yul\":40444:40537   */\n      tag_848\n        /* \"#utility.yul\":40533:40536   */\n      dup3\n        /* \"#utility.yul\":40444:40537   */\n      tag_474\n      jump\t// in\n    tag_848:\n        /* \"#utility.yul\":40562:40564   */\n      0x20\n        /* \"#utility.yul\":40557:40560   */\n      dup3\n        /* \"#utility.yul\":40553:40565   */\n      add\n        /* \"#utility.yul\":40546:40565   */\n      swap1\n      pop\n        /* \"#utility.yul\":40205:40571   */\n      swap2\n      swap1\n      pop\n      jump\t// out\n        /* \"#utility.yul\":40577:40996   */\n    tag_287:\n        /* \"#utility.yul\":40743:40747   */\n      0x00\n        /* \"#utility.yul\":40781:40783   */\n      0x20\n        /* \"#utility.yul\":40770:40779   */\n      dup3\n        /* \"#utility.yul\":40766:40784   */\n      add\n        /* \"#utility.yul\":40758:40784   */\n      swap1\n      pop\n        /* \"#utility.yul\":40830:40839   */\n      dup2\n        /* \"#utility.yul\":40824:40828   */\n      dup2\n        /* \"#utility.yul\":40820:40840   */\n      sub\n        /* \"#utility.yul\":40816:40817   */\n      0x00\n        /* \"#utility.yul\":40805:40814   */\n      dup4\n        /* \"#utility.yul\":40801:40818   */\n      add\n        /* \"#utility.yul\":40794:40841   */\n      mstore\n        /* \"#utility.yul\":40858:40989   */\n      tag_850\n        /* \"#utility.yul\":40984:40988   */\n      dup2\n        /* \"#utility.yul\":40858:40989   */\n      tag_475\n      jump\t// in\n    tag_850:\n        /* \"#utility.yul\":40850:40989   */\n      swap1\n      pop\n        /* \"#utility.yul\":40577:40996   */\n      swap2\n      swap1\n      pop\n      jump\t// out\n        /* \"#utility.yul\":41002:41432   */\n    tag_292:\n        /* \"#utility.yul\":41145:41149   */\n      0x00\n        /* \"#utility.yul\":41183:41185   */\n      0x60\n        /* \"#utility.yul\":41172:41181   */\n      dup3\n        /* \"#utility.yul\":41168:41186   */\n      add\n        /* \"#utility.yul\":41160:41186   */\n      swap1\n      pop\n        /* \"#utility.yul\":41196:41267   */\n      tag_852\n        /* \"#utility.yul\":41264:41265   */\n      0x00\n        /* \"#utility.yul\":41253:41262   */\n      dup4\n        /* \"#utility.yul\":41249:41266   */\n      add\n        /* \"#utility.yul\":41240:41246   */\n      dup7\n        /* \"#utility.yul\":41196:41267   */\n      tag_387\n      jump\t// in\n    tag_852:\n        /* \"#utility.yul\":41277:41349   */\n      tag_853\n        /* \"#utility.yul\":41345:41347   */\n      0x20\n        /* \"#utility.yul\":41334:41343   */\n      dup4\n        /* \"#utility.yul\":41330:41348   */\n      add\n        /* \"#utility.yul\":41321:41327   */\n      dup6\n        /* \"#utility.yul\":41277:41349   */\n      tag_390\n      jump\t// in\n    tag_853:\n        /* \"#utility.yul\":41359:41425   */\n      tag_854\n        /* \"#utility.yul\":41421:41423   */\n      0x40\n        /* \"#utility.yul\":41410:41419   */\n      dup4\n        /* \"#utility.yul\":41406:41424   */\n      add\n        /* \"#utility.yul\":41397:41403   */\n      dup5\n        /* \"#utility.yul\":41359:41425   */\n      tag_397\n      jump\t// in\n    tag_854:\n        /* \"#utility.yul\":41002:41432   */\n      swap5\n      swap4\n      pop\n      pop\n      pop\n      pop\n      jump\t// out\n        /* \"#utility.yul\":41438:41604   */\n    tag_476:\n        /* \"#utility.yul\":41578:41596   */\n      0x4d7573742073656e6420626f756e747900000000000000000000000000000000\n        /* \"#utility.yul\":41574:41575   */\n      0x00\n        /* \"#utility.yul\":41566:41572   */\n      dup3\n        /* \"#utility.yul\":41562:41576   */\n      add\n        /* \"#utility.yul\":41555:41597   */\n      mstore\n        /* \"#utility.yul\":41438:41604   */\n      pop\n      jump\t// out\n        /* \"#utility.yul\":41610:41976   */\n    tag_477:\n        /* \"#utility.yul\":41752:41755   */\n      0x00\n        /* \"#utility.yul\":41773:41840   */\n      tag_857\n        /* \"#utility.yul\":41837:41839   */\n      0x10\n        /* \"#utility.yul\":41832:41835   */\n      dup4\n        /* \"#utility.yul\":41773:41840   */\n      tag_392\n      jump\t// in\n    tag_857:\n        /* \"#utility.yul\":41766:41840   */\n      swap2\n      pop\n        /* \"#utility.yul\":41849:41942   */\n      tag_858\n        /* \"#utility.yul\":41938:41941   */\n      dup3\n        /* \"#utility.yul\":41849:41942   */\n      tag_476\n      jump\t// in\n    tag_858:\n        /* \"#utility.yul\":41967:41969   */\n      0x20\n        /* \"#utility.yul\":41962:41965   */\n      dup3\n        /* \"#utility.yul\":41958:41970   */\n      add\n        /* \"#utility.yul\":41951:41970   */\n      swap1\n      pop\n        /* \"#utility.yul\":41610:41976   */\n      swap2\n      swap1\n      pop\n      jump\t// out\n        /* \"#utility.yul\":41982:42401   */\n    tag_297:\n        /* \"#utility.yul\":42148:42152   */\n      0x00\n        /* \"#utility.yul\":42186:42188   */\n      0x20\n        /* \"#utility.yul\":42175:42184   */\n      dup3\n        /* \"#utility.yul\":42171:42189   */\n      add\n        /* \"#utility.yul\":42163:42189   */\n      swap1\n      pop\n        /* \"#utility.yul\":42235:42244   */\n      dup2\n        /* \"#utility.yul\":42229:42233   */\n      dup2\n        /* \"#utility.yul\":42225:42245   */\n      sub\n        /* \"#utility.yul\":42221:42222   */\n      0x00\n        /* \"#utility.yul\":42210:42219   */\n      dup4\n        /* \"#utility.yul\":42206:42223   */\n      add\n        /* \"#utility.yul\":42199:42246   */\n      mstore\n        /* \"#utility.yul\":42263:42394   */\n      tag_860\n        /* \"#utility.yul\":42389:42393   */\n      dup2\n        /* \"#utility.yul\":42263:42394   */\n      tag_477\n      jump\t// in\n    tag_860:\n        /* \"#utility.yul\":42255:42394   */\n      swap1\n      pop\n        /* \"#utility.yul\":41982:42401   */\n      swap2\n      swap1\n      pop\n      jump\t// out\n        /* \"#utility.yul\":42407:42504   */\n    tag_478:\n        /* \"#utility.yul\":42466:42472   */\n      0x00\n        /* \"#utility.yul\":42494:42497   */\n      dup3\n        /* \"#utility.yul\":42484:42497   */\n      swap1\n      pop\n        /* \"#utility.yul\":42407:42504   */\n      swap3\n      swap2\n      pop\n      pop\n      jump\t// out\n        /* \"#utility.yul\":42510:43913   */\n    tag_300:\n        /* \"#utility.yul\":42634:42678   */\n      tag_863\n        /* \"#utility.yul\":42674:42677   */\n      dup4\n        /* \"#utility.yul\":42669:42672   */\n      dup4\n        /* \"#utility.yul\":42634:42678   */\n      tag_478\n      jump\t// in\n    tag_863:\n        /* \"#utility.yul\":42743:42761   */\n      0xffffffffffffffff\n        /* \"#utility.yul\":42735:42741   */\n      dup2\n        /* \"#utility.yul\":42732:42762   */\n      gt\n        /* \"#utility.yul\":42729:42785   */\n      iszero\n      tag_864\n      jumpi\n        /* \"#utility.yul\":42765:42783   */\n      tag_865\n      tag_445\n      jump\t// in\n    tag_865:\n        /* \"#utility.yul\":42729:42785   */\n    tag_864:\n        /* \"#utility.yul\":42809:42847   */\n      tag_866\n        /* \"#utility.yul\":42841:42845   */\n      dup3\n        /* \"#utility.yul\":42835:42846   */\n      sload\n        /* \"#utility.yul\":42809:42847   */\n      tag_97\n      jump\t// in\n    tag_866:\n        /* \"#utility.yul\":42894:42961   */\n      tag_867\n        /* \"#utility.yul\":42954:42960   */\n      dup3\n        /* \"#utility.yul\":42946:42952   */\n      dup3\n        /* \"#utility.yul\":42940:42944   */\n      dup6\n        /* \"#utility.yul\":42894:42961   */\n      tag_457\n      jump\t// in\n    tag_867:\n        /* \"#utility.yul\":42988:42989   */\n      0x00\n        /* \"#utility.yul\":43017:43019   */\n      0x1f\n        /* \"#utility.yul\":43009:43015   */\n      dup4\n        /* \"#utility.yul\":43006:43020   */\n      gt\n        /* \"#utility.yul\":43034:43035   */\n      0x01\n        /* \"#utility.yul\":43029:43661   */\n      dup2\n      eq\n      tag_869\n      jumpi\n        /* \"#utility.yul\":43705:43706   */\n      0x00\n        /* \"#utility.yul\":43722:43728   */\n      dup5\n        /* \"#utility.yul\":43719:43803   */\n      iszero\n      tag_870\n      jumpi\n        /* \"#utility.yul\":43778:43787   */\n      dup3\n        /* \"#utility.yul\":43773:43776   */\n      dup8\n        /* \"#utility.yul\":43769:43788   */\n      add\n        /* \"#utility.yul\":43756:43789   */\n      calldataload\n        /* \"#utility.yul\":43747:43789   */\n      swap1\n      pop\n        /* \"#utility.yul\":43719:43803   */\n    tag_870:\n        /* \"#utility.yul\":43829:43896   */\n      tag_871\n        /* \"#utility.yul\":43889:43895   */\n      dup6\n        /* \"#utility.yul\":43882:43887   */\n      dup3\n        /* \"#utility.yul\":43829:43896   */\n      tag_460\n      jump\t// in\n    tag_871:\n        /* \"#utility.yul\":43823:43827   */\n      dup7\n        /* \"#utility.yul\":43816:43897   */\n      sstore\n        /* \"#utility.yul\":43678:43907   */\n      pop\n        /* \"#utility.yul\":42999:43907   */\n      jump(tag_868)\n        /* \"#utility.yul\":43029:43661   */\n    tag_869:\n        /* \"#utility.yul\":43081:43085   */\n      0x1f\n        /* \"#utility.yul\":43077:43086   */\n      not\n        /* \"#utility.yul\":43069:43075   */\n      dup5\n        /* \"#utility.yul\":43065:43087   */\n      and\n        /* \"#utility.yul\":43115:43152   */\n      tag_872\n        /* \"#utility.yul\":43147:43151   */\n      dup7\n        /* \"#utility.yul\":43115:43152   */\n      tag_446\n      jump\t// in\n    tag_872:\n        /* \"#utility.yul\":43174:43175   */\n      0x00\n        /* \"#utility.yul\":43188:43403   */\n    tag_873:\n        /* \"#utility.yul\":43202:43209   */\n      dup3\n        /* \"#utility.yul\":43199:43200   */\n      dup2\n        /* \"#utility.yul\":43196:43210   */\n      lt\n        /* \"#utility.yul\":43188:43403   */\n      iszero\n      tag_875\n      jumpi\n        /* \"#utility.yul\":43288:43297   */\n      dup5\n        /* \"#utility.yul\":43283:43286   */\n      dup10\n        /* \"#utility.yul\":43279:43298   */\n      add\n        /* \"#utility.yul\":43266:43299   */\n      calldataload\n        /* \"#utility.yul\":43258:43264   */\n      dup3\n        /* \"#utility.yul\":43251:43300   */\n      sstore\n        /* \"#utility.yul\":43339:43340   */\n      0x01\n        /* \"#utility.yul\":43331:43337   */\n      dup3\n        /* \"#utility.yul\":43327:43341   */\n      add\n        /* \"#utility.yul\":43317:43341   */\n      swap2\n      pop\n        /* \"#utility.yul\":43386:43388   */\n      0x20\n        /* \"#utility.yul\":43375:43384   */\n      dup6\n        /* \"#utility.yul\":43371:43389   */\n      add\n        /* \"#utility.yul\":43358:43389   */\n      swap5\n      pop\n        /* \"#utility.yul\":43225:43229   */\n      0x20\n        /* \"#utility.yul\":43222:43223   */\n      dup2\n        /* \"#utility.yul\":43218:43230   */\n      add\n        /* \"#utility.yul\":43213:43230   */\n      swap1\n      pop\n        /* \"#utility.yul\":43188:43403   */\n      jump(tag_873)\n    tag_875:\n        /* \"#utility.yul\":43431:43437   */\n      dup7\n        /* \"#utility.yul\":43422:43429   */\n      dup4\n        /* \"#utility.yul\":43419:43438   */\n      lt\n        /* \"#utility.yul\":43416:43602   */\n      iszero\n      tag_876\n      jumpi\n        /* \"#utility.yul\":43496:43505   */\n      dup5\n        /* \"#utility.yul\":43491:43494   */\n      dup10\n        /* \"#utility.yul\":43487:43506   */\n      add\n        /* \"#utility.yul\":43474:43507   */\n      calldataload\n        /* \"#utility.yul\":43539:43587   */\n      tag_877\n        /* \"#utility.yul\":43581:43585   */\n      0x1f\n        /* \"#utility.yul\":43573:43579   */\n      dup10\n        /* \"#utility.yul\":43569:43586   */\n      and\n        /* \"#utility.yul\":43558:43567   */\n      dup3\n        /* \"#utility.yul\":43539:43587   */\n      tag_459\n      jump\t// in\n    tag_877:\n        /* \"#utility.yul\":43531:43537   */\n      dup4\n        /* \"#utility.yul\":43524:43588   */\n      sstore\n        /* \"#utility.yul\":43439:43602   */\n      pop\n        /* \"#utility.yul\":43416:43602   */\n    tag_876:\n        /* \"#utility.yul\":43648:43649   */\n      0x01\n        /* \"#utility.yul\":43644:43645   */\n      0x02\n        /* \"#utility.yul\":43636:43642   */\n      dup9\n        /* \"#utility.yul\":43632:43646   */\n      mul\n        /* \"#utility.yul\":43628:43650   */\n      add\n        /* \"#utility.yul\":43622:43626   */\n      dup9\n        /* \"#utility.yul\":43615:43651   */\n      sstore\n        /* \"#utility.yul\":43036:43661   */\n      pop\n      pop\n      pop\n        /* \"#utility.yul\":42999:43907   */\n    tag_868:\n      pop\n        /* \"#utility.yul\":42609:43913   */\n      pop\n      pop\n      pop\n        /* \"#utility.yul\":42510:43913   */\n      pop\n      pop\n      pop\n      jump\t// out\n        /* \"#utility.yul\":43919:44067   */\n    tag_479:\n        /* \"#utility.yul\":44017:44023   */\n      dup3\n        /* \"#utility.yul\":44012:44015   */\n      dup2\n        /* \"#utility.yul\":44007:44010   */\n      dup4\n        /* \"#utility.yul\":43994:44024   */\n      calldatacopy\n        /* \"#utility.yul\":44058:44059   */\n      0x00\n        /* \"#utility.yul\":44049:44055   */\n      dup4\n        /* \"#utility.yul\":44044:44047   */\n      dup4\n        /* \"#utility.yul\":44040:44056   */\n      add\n        /* \"#utility.yul\":44033:44060   */\n      mstore\n        /* \"#utility.yul\":43919:44067   */\n      pop\n      pop\n      pop\n      jump\t// out\n        /* \"#utility.yul\":44097:44414   */\n    tag_480:\n        /* \"#utility.yul\":44195:44198   */\n      0x00\n        /* \"#utility.yul\":44216:44287   */\n      tag_880\n        /* \"#utility.yul\":44280:44286   */\n      dup4\n        /* \"#utility.yul\":44275:44278   */\n      dup6\n        /* \"#utility.yul\":44216:44287   */\n      tag_392\n      jump\t// in\n    tag_880:\n        /* \"#utility.yul\":44209:44287   */\n      swap4\n      pop\n        /* \"#utility.yul\":44297:44353   */\n      tag_881\n        /* \"#utility.yul\":44346:44352   */\n      dup4\n        /* \"#utility.yul\":44341:44344   */\n      dup6\n        /* \"#utility.yul\":44334:44339   */\n      dup5\n        /* \"#utility.yul\":44297:44353   */\n      tag_479\n      jump\t// in\n    tag_881:\n        /* \"#utility.yul\":44378:44407   */\n      tag_882\n        /* \"#utility.yul\":44400:44406   */\n      dup4\n        /* \"#utility.yul\":44378:44407   */\n      tag_394\n      jump\t// in\n    tag_882:\n        /* \"#utility.yul\":44373:44376   */\n      dup5\n        /* \"#utility.yul\":44369:44408   */\n      add\n        /* \"#utility.yul\":44362:44408   */\n      swap1\n      pop\n        /* \"#utility.yul\":44097:44414   */\n      swap4\n      swap3\n      pop\n      pop\n      pop\n      jump\t// out\n        /* \"#utility.yul\":44420:45084   */\n    tag_304:\n        /* \"#utility.yul\":44627:44631   */\n      0x00\n        /* \"#utility.yul\":44665:44668   */\n      0x80\n        /* \"#utility.yul\":44654:44663   */\n      dup3\n        /* \"#utility.yul\":44650:44669   */\n      add\n        /* \"#utility.yul\":44642:44669   */\n      swap1\n      pop\n        /* \"#utility.yul\":44679:44750   */\n      tag_884\n        /* \"#utility.yul\":44747:44748   */\n      0x00\n        /* \"#utility.yul\":44736:44745   */\n      dup4\n        /* \"#utility.yul\":44732:44749   */\n      add\n        /* \"#utility.yul\":44723:44729   */\n      dup9\n        /* \"#utility.yul\":44679:44750   */\n      tag_387\n      jump\t// in\n    tag_884:\n        /* \"#utility.yul\":44760:44832   */\n      tag_885\n        /* \"#utility.yul\":44828:44830   */\n      0x20\n        /* \"#utility.yul\":44817:44826   */\n      dup4\n        /* \"#utility.yul\":44813:44831   */\n      add\n        /* \"#utility.yul\":44804:44810   */\n      dup8\n        /* \"#utility.yul\":44760:44832   */\n      tag_390\n      jump\t// in\n    tag_885:\n        /* \"#utility.yul\":44842:44914   */\n      tag_886\n        /* \"#utility.yul\":44910:44912   */\n      0x40\n        /* \"#utility.yul\":44899:44908   */\n      dup4\n        /* \"#utility.yul\":44895:44913   */\n      add\n        /* \"#utility.yul\":44886:44892   */\n      dup7\n        /* \"#utility.yul\":44842:44914   */\n      tag_387\n      jump\t// in\n    tag_886:\n        /* \"#utility.yul\":44961:44970   */\n      dup2\n        /* \"#utility.yul\":44955:44959   */\n      dup2\n        /* \"#utility.yul\":44951:44971   */\n      sub\n        /* \"#utility.yul\":44946:44948   */\n      0x60\n        /* \"#utility.yul\":44935:44944   */\n      dup4\n        /* \"#utility.yul\":44931:44949   */\n      add\n        /* \"#utility.yul\":44924:44972   */\n      mstore\n        /* \"#utility.yul\":44989:45077   */\n      tag_887\n        /* \"#utility.yul\":45072:45076   */\n      dup2\n        /* \"#utility.yul\":45063:45069   */\n      dup5\n        /* \"#utility.yul\":45055:45061   */\n      dup7\n        /* \"#utility.yul\":44989:45077   */\n      tag_480\n      jump\t// in\n    tag_887:\n        /* \"#utility.yul\":44981:45077   */\n      swap1\n      pop\n        /* \"#utility.yul\":44420:45084   */\n      swap7\n      swap6\n      pop\n      pop\n      pop\n      pop\n      pop\n      pop\n      jump\t// out\n        /* \"#utility.yul\":45090:45259   */\n    tag_481:\n        /* \"#utility.yul\":45230:45251   */\n      0x5461736b206e6f74206f70656e20287965742900000000000000000000000000\n        /* \"#utility.yul\":45226:45227   */\n      0x00\n        /* \"#utility.yul\":45218:45224   */\n      dup3\n        /* \"#utility.yul\":45214:45228   */\n      add\n        /* \"#utility.yul\":45207:45252   */\n      mstore\n        /* \"#utility.yul\":45090:45259   */\n      pop\n      jump\t// out\n        /* \"#utility.yul\":45265:45631   */\n    tag_482:\n        /* \"#utility.yul\":45407:45410   */\n      0x00\n        /* \"#utility.yul\":45428:45495   */\n      tag_890\n        /* \"#utility.yul\":45492:45494   */\n      0x13\n        /* \"#utility.yul\":45487:45490   */\n      dup4\n        /* \"#utility.yul\":45428:45495   */\n      tag_392\n      jump\t// in\n    tag_890:\n        /* \"#utility.yul\":45421:45495   */\n      swap2\n      pop\n        /* \"#utility.yul\":45504:45597   */\n      tag_891\n        /* \"#utility.yul\":45593:45596   */\n      dup3\n        /* \"#utility.yul\":45504:45597   */\n      tag_481\n      jump\t// in\n    tag_891:\n        /* \"#utility.yul\":45622:45624   */\n      0x20\n        /* \"#utility.yul\":45617:45620   */\n      dup3\n        /* \"#utility.yul\":45613:45625   */\n      add\n        /* \"#utility.yul\":45606:45625   */\n      swap1\n      pop\n        /* \"#utility.yul\":45265:45631   */\n      swap2\n      swap1\n      pop\n      jump\t// out\n        /* \"#utility.yul\":45637:46056   */\n    tag_315:\n        /* \"#utility.yul\":45803:45807   */\n      0x00\n        /* \"#utility.yul\":45841:45843   */\n      0x20\n        /* \"#utility.yul\":45830:45839   */\n      dup3\n        /* \"#utility.yul\":45826:45844   */\n      add\n        /* \"#utility.yul\":45818:45844   */\n      swap1\n      pop\n        /* \"#utility.yul\":45890:45899   */\n      dup2\n        /* \"#utility.yul\":45884:45888   */\n      dup2\n        /* \"#utility.yul\":45880:45900   */\n      sub\n        /* \"#utility.yul\":45876:45877   */\n      0x00\n        /* \"#utility.yul\":45865:45874   */\n      dup4\n        /* \"#utility.yul\":45861:45878   */\n      add\n        /* \"#utility.yul\":45854:45901   */\n      mstore\n        /* \"#utility.yul\":45918:46049   */\n      tag_893\n        /* \"#utility.yul\":46044:46048   */\n      dup2\n        /* \"#utility.yul\":45918:46049   */\n      tag_482\n      jump\t// in\n    tag_893:\n        /* \"#utility.yul\":45910:46049   */\n      swap1\n      pop\n        /* \"#utility.yul\":45637:46056   */\n      swap2\n      swap1\n      pop\n      jump\t// out\n        /* \"#utility.yul\":46062:46286   */\n    tag_483:\n        /* \"#utility.yul\":46202:46236   */\n      0x4120736f6c7574696f6e2068617320616c7265616479206265656e207375626d\n        /* \"#utility.yul\":46198:46199   */\n      0x00\n        /* \"#utility.yul\":46190:46196   */\n      dup3\n        /* \"#utility.yul\":46186:46200   */\n      add\n        /* \"#utility.yul\":46179:46237   */\n      mstore\n        /* \"#utility.yul\":46271:46278   */\n      0x6974746564000000000000000000000000000000000000000000000000000000\n        /* \"#utility.yul\":46266:46268   */\n      0x20\n        /* \"#utility.yul\":46258:46264   */\n      dup3\n        /* \"#utility.yul\":46254:46269   */\n      add\n        /* \"#utility.yul\":46247:46279   */\n      mstore\n        /* \"#utility.yul\":46062:46286   */\n      pop\n      jump\t// out\n        /* \"#utility.yul\":46292:46658   */\n    tag_484:\n        /* \"#utility.yul\":46434:46437   */\n      0x00\n        /* \"#utility.yul\":46455:46522   */\n      tag_896\n        /* \"#utility.yul\":46519:46521   */\n      0x25\n        /* \"#utility.yul\":46514:46517   */\n      dup4\n        /* \"#utility.yul\":46455:46522   */\n      tag_392\n      jump\t// in\n    tag_896:\n        /* \"#utility.yul\":46448:46522   */\n      swap2\n      pop\n        /* \"#utility.yul\":46531:46624   */\n      tag_897\n        /* \"#utility.yul\":46620:46623   */\n      dup3\n        /* \"#utility.yul\":46531:46624   */\n      tag_483\n      jump\t// in\n    tag_897:\n        /* \"#utility.yul\":46649:46651   */\n      0x40\n        /* \"#utility.yul\":46644:46647   */\n      dup3\n        /* \"#utility.yul\":46640:46652   */\n      add\n        /* \"#utility.yul\":46633:46652   */\n      swap1\n      pop\n        /* \"#utility.yul\":46292:46658   */\n      swap2\n      swap1\n      pop\n      jump\t// out\n        /* \"#utility.yul\":46664:47083   */\n    tag_320:\n        /* \"#utility.yul\":46830:46834   */\n      0x00\n        /* \"#utility.yul\":46868:46870   */\n      0x20\n        /* \"#utility.yul\":46857:46866   */\n      dup3\n        /* \"#utility.yul\":46853:46871   */\n      add\n        /* \"#utility.yul\":46845:46871   */\n      swap1\n      pop\n        /* \"#utility.yul\":46917:46926   */\n      dup2\n        /* \"#utility.yul\":46911:46915   */\n      dup2\n        /* \"#utility.yul\":46907:46927   */\n      sub\n        /* \"#utility.yul\":46903:46904   */\n      0x00\n        /* \"#utility.yul\":46892:46901   */\n      dup4\n        /* \"#utility.yul\":46888:46905   */\n      add\n        /* \"#utility.yul\":46881:46928   */\n      mstore\n        /* \"#utility.yul\":46945:47076   */\n      tag_899\n        /* \"#utility.yul\":47071:47075   */\n      dup2\n        /* \"#utility.yul\":46945:47076   */\n      tag_484\n      jump\t// in\n    tag_899:\n        /* \"#utility.yul\":46937:47076   */\n      swap1\n      pop\n        /* \"#utility.yul\":46664:47083   */\n      swap2\n      swap1\n      pop\n      jump\t// out\n        /* \"#utility.yul\":47089:47642   */\n    tag_325:\n        /* \"#utility.yul\":47268:47272   */\n      0x00\n        /* \"#utility.yul\":47306:47308   */\n      0x60\n        /* \"#utility.yul\":47295:47304   */\n      dup3\n        /* \"#utility.yul\":47291:47309   */\n      add\n        /* \"#utility.yul\":47283:47309   */\n      swap1\n      pop\n        /* \"#utility.yul\":47319:47390   */\n      tag_901\n        /* \"#utility.yul\":47387:47388   */\n      0x00\n        /* \"#utility.yul\":47376:47385   */\n      dup4\n        /* \"#utility.yul\":47372:47389   */\n      add\n        /* \"#utility.yul\":47363:47369   */\n      dup8\n        /* \"#utility.yul\":47319:47390   */\n      tag_387\n      jump\t// in\n    tag_901:\n        /* \"#utility.yul\":47400:47472   */\n      tag_902\n        /* \"#utility.yul\":47468:47470   */\n      0x20\n        /* \"#utility.yul\":47457:47466   */\n      dup4\n        /* \"#utility.yul\":47453:47471   */\n      add\n        /* \"#utility.yul\":47444:47450   */\n      dup7\n        /* \"#utility.yul\":47400:47472   */\n      tag_390\n      jump\t// in\n    tag_902:\n        /* \"#utility.yul\":47519:47528   */\n      dup2\n        /* \"#utility.yul\":47513:47517   */\n      dup2\n        /* \"#utility.yul\":47509:47529   */\n      sub\n        /* \"#utility.yul\":47504:47506   */\n      0x40\n        /* \"#utility.yul\":47493:47502   */\n      dup4\n        /* \"#utility.yul\":47489:47507   */\n      add\n        /* \"#utility.yul\":47482:47530   */\n      mstore\n        /* \"#utility.yul\":47547:47635   */\n      tag_903\n        /* \"#utility.yul\":47630:47634   */\n      dup2\n        /* \"#utility.yul\":47621:47627   */\n      dup5\n        /* \"#utility.yul\":47613:47619   */\n      dup7\n        /* \"#utility.yul\":47547:47635   */\n      tag_480\n      jump\t// in\n    tag_903:\n        /* \"#utility.yul\":47539:47635   */\n      swap1\n      pop\n        /* \"#utility.yul\":47089:47642   */\n      swap6\n      swap5\n      pop\n      pop\n      pop\n      pop\n      pop\n      jump\t// out\n\n    auxdata: 0xa2646970667358221220c53810f7aad53a80aedfb185a196201db9e03759874256396cf260a3e883dc5264736f6c634300081e0033\n}\n",
				"bytecode": {
					"linkReferences": {},
					"object": "6080604052662386f26fc10000600355662386f26fc10000600455606460055560b460065534801561002f575f5ffd5b50604051613e58380380613e58833981810160405281019061005191906100f5565b8060075f6101000a81548173ffffffffffffffffffffffffffffffffffffffff021916908373ffffffffffffffffffffffffffffffffffffffff16021790555050610120565b5f5ffd5b5f73ffffffffffffffffffffffffffffffffffffffff82169050919050565b5f6100c48261009b565b9050919050565b6100d4816100ba565b81146100de575f5ffd5b50565b5f815190506100ef816100cb565b92915050565b5f6020828403121561010a57610109610097565b5b5f610117848285016100e1565b91505092915050565b613d2b8061012d5f395ff3fe6080604052600436106100dc575f3560e01c806383b0474d1161007e578063c17a340e11610058578063c17a340e146102a0578063c4ca280d146102ca578063d3b5c016146102e6578063f96dae0a14610302576100dc565b806383b0474d1461022057806388488c331461025c5780638886083514610284576100dc565b8063276ae811116100ba578063276ae811146101885780634ac8a529146101b257806356989a83146101ce5780635bf31d4d146101f6576100dc565b8063181e0124146100e05780631d65e77e1461011c5780631df9777714610160575b5f5ffd5b3480156100eb575f5ffd5b50610106600480360381019061010191906125f9565b61032c565b6040516101139190612633565b60405180910390f35b348015610127575f5ffd5b50610142600480360381019061013d91906125f9565b6103e6565b60405161015799989796959493929190612788565b60405180910390f35b34801561016b575f5ffd5b506101866004803603810190610181919061284b565b610626565b005b348015610193575f5ffd5b5061019c610b6a565b6040516101a99190612633565b60405180910390f35b6101cc60048036038101906101c791906125f9565b610b70565b005b3480156101d9575f5ffd5b506101f460048036038101906101ef91906125f9565b610e63565b005b348015610201575f5ffd5b5061020a611325565b6040516102179190612633565b60405180910390f35b34801561022b575f5ffd5b50610246600480360381019061024191906125f9565b61132b565b6040516102539190612633565b60405180910390f35b348015610267575f5ffd5b50610282600480360381019061027d91906125f9565b611400565b005b61029e6004803603810190610299919061289b565b611939565b005b3480156102ab575f5ffd5b506102b4611bc6565b6040516102c19190612633565b60405180910390f35b6102e460048036038101906102df919061293a565b611bce565b005b61030060048036038101906102fb9190612985565b611d24565b005b34801561030d575f5ffd5b50610316611f97565b6040516103239190612a3d565b60405180910390f35b5f5f8211801561033d57505f548211155b61037c576040517f08c379a000000000000000000000000000000000000000000000000000000000815260040161037390612aa0565b60405180910390fd5b5f60015f8481526020019081526020015f206007015414806103b157504260015f8481526020019081526020015f2060070154105b156103be575f90506103e1565b4260015f8481526020019081526020015f20600701546103de9190612aeb565b90505b919050565b5f5f5f5f6060805f5f5f5f8a11801561040057505f548a11155b61043f576040517f08c379a000000000000000000000000000000000000000000000000000000000815260040161043690612aa0565b60405180910390fd5b5f60015f8c81526020019081526020015f209050805f015f9054906101000a900473ffffffffffffffffffffffffffffffffffffffff16816001015f9054906101000a900473ffffffffffffffffffffffffffffffffffffffff16826002015f9054906101000a900473ffffffffffffffffffffffffffffffffffffffff1683600301548460040185600501866006015f9054906101000a900460ff168760070154886008015f9054906101000a900460ff168480546104fe90612b4b565b80601f016020809104026020016040519081016040528092919081815260200182805461052a90612b4b565b80156105755780601f1061054c57610100808354040283529160200191610575565b820191905f5260205f20905b81548152906001019060200180831161055857829003601f168201915b5050505050945083805461058890612b4b565b80601f01602080910402602001604051908101604052809291908181526020018280546105b490612b4b565b80156105ff5780601f106105d6576101008083540402835291602001916105ff565b820191905f5260205f20905b8154815290600101906020018083116105e257829003601f168201915b50505050509350995099509950995099509950995099509950509193959799909294969850565b5f8311801561063657505f548311155b610675576040517f08c379a000000000000000000000000000000000000000000000000000000000815260040161066c90612aa0565b60405180910390fd5b5f60025f8581526020019081526020015f209050805f015f9054906101000a900460ff1680156106b35750806005015f9054906101000a900460ff16155b6106f2576040517f08c379a00000000000000000000000000000000000000000000000000000000081526004016106e990612bc5565b60405180910390fd5b60065481600101546107049190612be3565b421115610746576040517f08c379a000000000000000000000000000000000000000000000000000000000815260040161073d90612c60565b60405180910390fd5b60055483101561078b576040517f08c379a000000000000000000000000000000000000000000000000000000000815260040161078290612cc8565b60405180910390fd5b5f816007015f3373ffffffffffffffffffffffffffffffffffffffff1673ffffffffffffffffffffffffffffffffffffffff1681526020019081526020015f20541461080c576040517f08c379a000000000000000000000000000000000000000000000000000000000815260040161080390612d30565b60405180910390fd5b806006015f3373ffffffffffffffffffffffffffffffffffffffff1673ffffffffffffffffffffffffffffffffffffffff1681526020019081526020015f205f9054906101000a900460ff1615610898576040517f08c379a000000000000000000000000000000000000000000000000000000000815260040161088f90612d98565b60405180910390fd5b5f60075f9054906101000a900473ffffffffffffffffffffffffffffffffffffffff1673ffffffffffffffffffffffffffffffffffffffff166323b872dd3330876040518463ffffffff1660e01b81526004016108f793929190612db6565b6020604051808303815f875af1158015610913573d5f5f3e3d5ffd5b505050506040513d601f19601f820116820180604052508101906109379190612dff565b905080610979576040517f08c379a000000000000000000000000000000000000000000000000000000000815260040161097090612e74565b60405180910390fd5b82826008015f3373ffffffffffffffffffffffffffffffffffffffff1673ffffffffffffffffffffffffffffffffffffffff1681526020019081526020015f205f6101000a81548160ff02191690831515021790555083826007015f3373ffffffffffffffffffffffffffffffffffffffff1673ffffffffffffffffffffffffffffffffffffffff1681526020019081526020015f208190555083826004015f828254610a269190612be3565b925050819055508160090133908060018154018082558091505060019003905f5260205f20015f9091909190916101000a81548173ffffffffffffffffffffffffffffffffffffffff021916908373ffffffffffffffffffffffffffffffffffffffff1602179055506001826006015f3373ffffffffffffffffffffffffffffffffffffffff1673ffffffffffffffffffffffffffffffffffffffff1681526020019081526020015f205f6101000a81548160ff0219169083151502179055508215610b0b5783826002015f828254610aff9190612be3565b92505081905550610b26565b83826003015f828254610b1e9190612be3565b925050819055505b7f804cb3f45e5253ac34847987d4d9ae8cfa21a176f777acb99b5988a4e01f8cfd85338587604051610b5b9493929190612e92565b60405180910390a15050505050565b60055481565b5f81118015610b8057505f548111155b610bbf576040517f08c379a0000000000000000000000000000000000000000000000000000000008152600401610bb690612aa0565b60405180910390fd5b5f60015f8381526020019081526020015f20905060026005811115610be757610be6612715565b5b816008015f9054906101000a900460ff166005811115610c0a57610c09612715565b5b14610c4a576040517f08c379a0000000000000000000000000000000000000000000000000000000008152600401610c4190612f1f565b60405180910390fd5b80600701544210610c90576040517f08c379a0000000000000000000000000000000000000000000000000000000008152600401610c8790612f87565b60405180910390fd5b6004543414610cd4576040517f08c379a0000000000000000000000000000000000000000000000000000000008152600401610ccb90612fef565b60405180910390fd5b60025f8381526020019081526020015f205f015f9054906101000a900460ff161580610d1d575060025f8381526020019081526020015f206005015f9054906101000a900460ff165b610d5c576040517f08c379a0000000000000000000000000000000000000000000000000000000008152600401610d5390613057565b60405180910390fd5b6003816008015f6101000a81548160ff02191690836005811115610d8357610d82612715565b5b02179055505f60025f8481526020019081526020015f2090506001815f015f6101000a81548160ff02191690831515021790555033815f0160016101000a81548173ffffffffffffffffffffffffffffffffffffffff021916908373ffffffffffffffffffffffffffffffffffffffff1602179055504281600101819055505f816005015f6101000a81548160ff0219169083151502179055507f1d2f4ade11fcea3a321eb215e6561c2f95d30d0f1bcf7ad3d715932b61d0da9a8333348460010154604051610e569493929190613075565b60405180910390a1505050565b5f81118015610e7357505f548111155b610eb2576040517f08c379a0000000000000000000000000000000000000000000000000000000008152600401610ea990612aa0565b60405180910390fd5b5f60025f8381526020019081526020015f2090505f60015f8481526020019081526020015f209050815f015f9054906101000a900460ff16610f29576040517f08c379a0000000000000000000000000000000000000000000000000000000008152600401610f2090613102565b60405180910390fd5b816005015f9054906101000a900460ff1615610f7a576040517f08c379a0000000000000000000000000000000000000000000000000000000008152600401610f719061316a565b60405180910390fd5b6006548260010154610f8c9190612be3565b4211610fcd576040517f08c379a0000000000000000000000000000000000000000000000000000000008152600401610fc4906131d2565b60405180910390fd5b6001826005015f6101000a81548160ff0219169083151502179055505f826002015490505f836003015490508082106110195761100b856001611fbc565b61101485612371565b611024565b611023855f611fbc565b5b5f5f90505b84600901805490508110156111b5575f85600901828154811061104f5761104e6131f0565b5b905f5260205f20015f9054906101000a900473ffffffffffffffffffffffffffffffffffffffff1690505f866007015f8373ffffffffffffffffffffffffffffffffffffffff1673ffffffffffffffffffffffffffffffffffffffff1681526020019081526020015f205490505f8111156111a6575f876007015f8473ffffffffffffffffffffffffffffffffffffffff1673ffffffffffffffffffffffffffffffffffffffff1681526020019081526020015f208190555060075f9054906101000a900473ffffffffffffffffffffffffffffffffffffffff1673ffffffffffffffffffffffffffffffffffffffff1663a9059cbb83836040518363ffffffff1660e01b815260040161116492919061321d565b6020604051808303815f875af1158015611180573d5f5f3e3d5ffd5b505050506040513d601f19601f820116820180604052508101906111a49190612dff565b505b50508080600101915050611029565b50808210156112e2576005836008015f6101000a81548160ff021916908360058111156111e5576111e4612715565b5b02179055505f5f8154809291906111fb90613244565b91905055505f60015f5f5481526020019081526020015f209050835f015f9054906101000a900473ffffffffffffffffffffffffffffffffffffffff16815f015f6101000a81548173ffffffffffffffffffffffffffffffffffffffff021916908373ffffffffffffffffffffffffffffffffffffffff16021790555083600301548160030181905550836004018160040190816112999190613476565b505f816006015f6101000a81548160ff0219169083151502179055505f816008015f6101000a81548160ff021916908360058111156112db576112da612715565b5b0217905550505b7f6094caf45c2924da34dd706c33f09ec619587bac9144486d8f82b0316e47e7b3858284101560405161131692919061355b565b60405180910390a15050505050565b60065481565b5f5f8211801561133c57505f548211155b61137b576040517f08c379a000000000000000000000000000000000000000000000000000000000815260040161137290612aa0565b60405180910390fd5b5f60025f8481526020019081526020015f206001015414806113be57504260065460025f8581526020019081526020015f20600101546113bb9190612be3565b10155b156113cb575f90506113fb565b60065460025f8481526020019081526020015f20600101546113ed9190612be3565b426113f89190612aeb565b90505b919050565b5f8111801561141057505f548111155b61144f576040517f08c379a000000000000000000000000000000000000000000000000000000000815260040161144690612aa0565b60405180910390fd5b5f60015f8381526020019081526020015f2090506002600581111561147757611476612715565b5b816008015f9054906101000a900460ff16600581111561149a57611499612715565b5b146114da576040517f08c379a00000000000000000000000000000000000000000000000000000000081526004016114d1906135cc565b60405180910390fd5b80600701544211611520576040517f08c379a000000000000000000000000000000000000000000000000000000000815260040161151790613634565b60405180910390fd5b5f73ffffffffffffffffffffffffffffffffffffffff16816002015f9054906101000a900473ffffffffffffffffffffffffffffffffffffffff1673ffffffffffffffffffffffffffffffffffffffff16036115b1576040517f08c379a00000000000000000000000000000000000000000000000000000000081526004016115a89061369c565b60405180910390fd5b60025f8381526020019081526020015f205f015f9054906101000a900460ff1615611611576040517f08c379a000000000000000000000000000000000000000000000000000000000815260040161160890613704565b60405180910390fd5b806006015f9054906101000a900460ff1615611782576004816008015f6101000a81548160ff0219169083600581111561164e5761164d612715565b5b02179055505f6064605a83600301546116679190613722565b6116719190613790565b90505f6064600a84600301546116879190613722565b6116919190613790565b9050826001015f9054906101000a900473ffffffffffffffffffffffffffffffffffffffff1673ffffffffffffffffffffffffffffffffffffffff166108fc600354846116de9190612be3565b90811502906040515f60405180830381858888f19350505050158015611706573d5f5f3e3d5ffd5b50826002015f9054906101000a900473ffffffffffffffffffffffffffffffffffffffff1673ffffffffffffffffffffffffffffffffffffffff166108fc600454836117529190612be3565b90811502906040515f60405180830381858888f1935050505015801561177a573d5f5f3e3d5ffd5b5050506118ec565b806002015f9054906101000a900473ffffffffffffffffffffffffffffffffffffffff1673ffffffffffffffffffffffffffffffffffffffff166108fc6004546003546117cf9190612be3565b90811502906040515f60405180830381858888f193505050501580156117f7573d5f5f3e3d5ffd5b505f816008015f6101000a81548160ff0219169083600581111561181e5761181d612715565b5b02179055505f816001015f6101000a81548173ffffffffffffffffffffffffffffffffffffffff021916908373ffffffffffffffffffffffffffffffffffffffff1602179055505f816002015f6101000a81548173ffffffffffffffffffffffffffffffffffffffff021916908373ffffffffffffffffffffffffffffffffffffffff16021790555060405180602001604052805f8152508160050190816118c691906137c0565b505f81600701819055505f816006015f6101000a81548160ff0219169083151502179055505b7f9deada0165c5e1eac62423dbf1dd30115314b076a9d6d3868daf316f1cb285e982826006015f9054906101000a900460ff1660405161192d92919061355b565b60405180910390a15050565b5f8211801561194957505f548211155b611988576040517f08c379a000000000000000000000000000000000000000000000000000000000815260040161197f90612aa0565b60405180910390fd5b5f60015f8481526020019081526020015f209050600160058111156119b0576119af612715565b5b816008015f9054906101000a900460ff1660058111156119d3576119d2612715565b5b14611a13576040517f08c379a0000000000000000000000000000000000000000000000000000000008152600401611a0a906138d9565b60405180910390fd5b6004543414611a57576040517f08c379a0000000000000000000000000000000000000000000000000000000008152600401611a4e90613941565b60405180910390fd5b5f73ffffffffffffffffffffffffffffffffffffffff16816002015f9054906101000a900473ffffffffffffffffffffffffffffffffffffffff1673ffffffffffffffffffffffffffffffffffffffff1614611ae8576040517f08c379a0000000000000000000000000000000000000000000000000000000008152600401611adf906139a9565b60405180910390fd5b33816002015f6101000a81548173ffffffffffffffffffffffffffffffffffffffff021916908373ffffffffffffffffffffffffffffffffffffffff16021790555081816006015f6101000a81548160ff021916908315150217905550603c42611b529190612be3565b81600701819055506002816008015f6101000a81548160ff02191690836005811115611b8157611b80612715565b5b02179055507f28f0202dcb9c68cb7b1c95a88074daa5de2f0f8f6e1c69d9d509140a3228871b833384604051611bb9939291906139c7565b60405180910390a1505050565b5f5f54905090565b5f3411611c10576040517f08c379a0000000000000000000000000000000000000000000000000000000008152600401611c0790613a46565b60405180910390fd5b5f5f815480929190611c2190613244565b91905055505f60015f5f5481526020019081526020015f20905033815f015f6101000a81548173ffffffffffffffffffffffffffffffffffffffff021916908373ffffffffffffffffffffffffffffffffffffffff1602179055503481600301819055508282826004019182611c98929190613a6e565b505f816006015f6101000a81548160ff0219169083151502179055505f816008015f6101000a81548160ff02191690836005811115611cda57611cd9612715565b5b02179055507f05fddf931b4d1e3b95f2b6fb12ab475fe9555ce60fd2bfe66b84060f2dc22a2e5f5433348686604051611d17959493929190613b75565b60405180910390a1505050565b5f83118015611d3457505f548311155b611d73576040517f08c379a0000000000000000000000000000000000000000000000000000000008152600401611d6a90612aa0565b60405180910390fd5b5f60015f8581526020019081526020015f2090505f6005811115611d9a57611d99612715565b5b816008015f9054906101000a900460ff166005811115611dbd57611dbc612715565b5b14611dfd576040517f08c379a0000000000000000000000000000000000000000000000000000000008152600401611df490613c0b565b60405180910390fd5b6003543414611e41576040517f08c379a0000000000000000000000000000000000000000000000000000000008152600401611e3890613941565b60405180910390fd5b5f73ffffffffffffffffffffffffffffffffffffffff16816001015f9054906101000a900473ffffffffffffffffffffffffffffffffffffffff1673ffffffffffffffffffffffffffffffffffffffff1614611ed2576040517f08c379a0000000000000000000000000000000000000000000000000000000008152600401611ec990613c99565b60405180910390fd5b8282826005019182611ee5929190613a6e565b5033816001015f6101000a81548173ffffffffffffffffffffffffffffffffffffffff021916908373ffffffffffffffffffffffffffffffffffffffff1602179055506001816008015f6101000a81548160ff02191690836005811115611f4f57611f4e612715565b5b02179055507fa90ae9720245855cd0178118b70cc1ee497003d06d996ee5c304a19e5b25d91584338585604051611f899493929190613cb7565b60405180910390a150505050565b60075f9054906101000a900473ffffffffffffffffffffffffffffffffffffffff1681565b5f60025f8481526020019081526020015f2090505f60015f8581526020019081526020015f2090505f5f60646028600454611ff79190613722565b6120019190613790565b9050826006015f9054906101000a900460ff16151585151503612026575f91506120ab565b606460326004546120379190613722565b6120419190613790565b9150835f0160019054906101000a900473ffffffffffffffffffffffffffffffffffffffff1673ffffffffffffffffffffffffffffffffffffffff166108fc8390811502906040515f60405180830381858888f193505050501580156120a9573d5f5f3e3d5ffd5b505b5f81836004546120bb9190612aeb565b6120c59190612aeb565b90508561216257836006015f9054906101000a900460ff16156120f757600354816120f09190612be3565b9050612161565b836002015f9054906101000a900473ffffffffffffffffffffffffffffffffffffffff1673ffffffffffffffffffffffffffffffffffffffff166108fc60035490811502906040515f60405180830381858888f1935050505015801561215f573d5f5f3e3d5ffd5b505b5b5f86612172578560030154612178565b85600201545b90505f810361219a57828261218d9190612be3565b915050505050505061236d565b5f5f90505b8660090180549050811015612365575f8760090182815481106121c5576121c46131f0565b5b905f5260205f20015f9054906101000a900473ffffffffffffffffffffffffffffffffffffffff169050876006015f8273ffffffffffffffffffffffffffffffffffffffff1673ffffffffffffffffffffffffffffffffffffffff1681526020019081526020015f205f9054906101000a900460ff1615612357575f886007015f8373ffffffffffffffffffffffffffffffffffffffff1673ffffffffffffffffffffffffffffffffffffffff1681526020019081526020015f205490505f896008015f8473ffffffffffffffffffffffffffffffffffffffff1673ffffffffffffffffffffffffffffffffffffffff1681526020019081526020015f205f9054906101000a900460ff1690508a80156122dc5750805b806122ef57508a1580156122ee575080155b5b15612354575f8588846123029190613722565b61230c9190613790565b90508373ffffffffffffffffffffffffffffffffffffffff166108fc8290811502906040515f60405180830381858888f19350505050158015612351573d5f5f3e3d5ffd5b50505b50505b50808060010191505061219f565b505050505050505b5050565b5f60015f8381526020019081526020015f2090505f60025f8481526020019081526020015f2090506004826008015f6101000a81548160ff021916908360058111156123c0576123bf612715565b5b02179055505f6064605a84600301546123d99190613722565b6123e39190613790565b90505f6064600a85600301546123f99190613722565b6124039190613790565b9050836001015f9054906101000a900473ffffffffffffffffffffffffffffffffffffffff1673ffffffffffffffffffffffffffffffffffffffff166108fc600354846124509190612be3565b90811502906040515f60405180830381858888f19350505050158015612478573d5f5f3e3d5ffd5b50836006015f9054906101000a900460ff161561250857836002015f9054906101000a900473ffffffffffffffffffffffffffffffffffffffff1673ffffffffffffffffffffffffffffffffffffffff166108fc600454836124da9190612be3565b90811502906040515f60405180830381858888f19350505050158015612502573d5f5f3e3d5ffd5b5061257d565b825f0160019054906101000a900473ffffffffffffffffffffffffffffffffffffffff1673ffffffffffffffffffffffffffffffffffffffff166108fc600454836125539190612be3565b90811502906040515f60405180830381858888f1935050505015801561257b573d5f5f3e3d5ffd5b505b7f9deada0165c5e1eac62423dbf1dd30115314b076a9d6d3868daf316f1cb285e98560016040516125af92919061355b565b60405180910390a15050505050565b5f5ffd5b5f5ffd5b5f819050919050565b6125d8816125c6565b81146125e2575f5ffd5b50565b5f813590506125f3816125cf565b92915050565b5f6020828403121561260e5761260d6125be565b5b5f61261b848285016125e5565b91505092915050565b61262d816125c6565b82525050565b5f6020820190506126465f830184612624565b92915050565b5f73ffffffffffffffffffffffffffffffffffffffff82169050919050565b5f6126758261264c565b9050919050565b6126858161266b565b82525050565b5f81519050919050565b5f82825260208201905092915050565b8281835e5f83830152505050565b5f601f19601f8301169050919050565b5f6126cd8261268b565b6126d78185612695565b93506126e78185602086016126a5565b6126f0816126b3565b840191505092915050565b5f8115159050919050565b61270f816126fb565b82525050565b7f4e487b71000000000000000000000000000000000000000000000000000000005f52602160045260245ffd5b6006811061275357612752612715565b5b50565b5f81905061276382612742565b919050565b5f61277282612756565b9050919050565b61278281612768565b82525050565b5f6101208201905061279c5f83018c61267c565b6127a9602083018b61267c565b6127b6604083018a61267c565b6127c36060830189612624565b81810360808301526127d581886126c3565b905081810360a08301526127e981876126c3565b90506127f860c0830186612706565b61280560e0830185612624565b612813610100830184612779565b9a9950505050505050505050565b61282a816126fb565b8114612834575f5ffd5b50565b5f8135905061284581612821565b92915050565b5f5f5f60608486031215612862576128616125be565b5b5f61286f868287016125e5565b9350506020612880868287016125e5565b925050604061289186828701612837565b9150509250925092565b5f5f604083850312156128b1576128b06125be565b5b5f6128be858286016125e5565b92505060206128cf85828601612837565b9150509250929050565b5f5ffd5b5f5ffd5b5f5ffd5b5f5f83601f8401126128fa576128f96128d9565b5b8235905067ffffffffffffffff811115612917576129166128dd565b5b602083019150836001820283011115612933576129326128e1565b5b9250929050565b5f5f602083850312156129505761294f6125be565b5b5f83013567ffffffffffffffff81111561296d5761296c6125c2565b5b612979858286016128e5565b92509250509250929050565b5f5f5f6040848603121561299c5761299b6125be565b5b5f6129a9868287016125e5565b935050602084013567ffffffffffffffff8111156129ca576129c96125c2565b5b6129d6868287016128e5565b92509250509250925092565b5f819050919050565b5f612a05612a006129fb8461264c565b6129e2565b61264c565b9050919050565b5f612a16826129eb565b9050919050565b5f612a2782612a0c565b9050919050565b612a3781612a1d565b82525050565b5f602082019050612a505f830184612a2e565b92915050565b7f496e76616c6964207461736b20696400000000000000000000000000000000005f82015250565b5f612a8a600f83612695565b9150612a9582612a56565b602082019050919050565b5f6020820190508181035f830152612ab781612a7e565b9050919050565b7f4e487b71000000000000000000000000000000000000000000000000000000005f52601160045260245ffd5b5f612af5826125c6565b9150612b00836125c6565b9250828203905081811115612b1857612b17612abe565b5b92915050565b7f4e487b71000000000000000000000000000000000000000000000000000000005f52602260045260245ffd5b5f6002820490506001821680612b6257607f821691505b602082108103612b7557612b74612b1e565b5b50919050565b7f4e6f2061637469766520646973707574650000000000000000000000000000005f82015250565b5f612baf601183612695565b9150612bba82612b7b565b602082019050919050565b5f6020820190508181035f830152612bdc81612ba3565b9050919050565b5f612bed826125c6565b9150612bf8836125c6565b9250828201905080821115612c1057612c0f612abe565b5b92915050565b7f566f74696e6720706572696f6420656e646564000000000000000000000000005f82015250565b5f612c4a601383612695565b9150612c5582612c16565b602082019050919050565b5f6020820190508181035f830152612c7781612c3e565b9050919050565b7f5374616b6520746f6f20736d616c6c00000000000000000000000000000000005f82015250565b5f612cb2600f83612695565b9150612cbd82612c7e565b602082019050919050565b5f6020820190508181035f830152612cdf81612ca6565b9050919050565b7f416c7265616479207265676973746572656400000000000000000000000000005f82015250565b5f612d1a601283612695565b9150612d2582612ce6565b602082019050919050565b5f6020820190508181035f830152612d4781612d0e565b9050919050565b7f416c726561647920766f746564000000000000000000000000000000000000005f82015250565b5f612d82600d83612695565b9150612d8d82612d4e565b602082019050919050565b5f6020820190508181035f830152612daf81612d76565b9050919050565b5f606082019050612dc95f83018661267c565b612dd6602083018561267c565b612de36040830184612624565b949350505050565b5f81519050612df981612821565b92915050565b5f60208284031215612e1457612e136125be565b5b5f612e2184828501612deb565b91505092915050565b7f546f6b656e207472616e73666572206661696c656400000000000000000000005f82015250565b5f612e5e601583612695565b9150612e6982612e2a565b602082019050919050565b5f6020820190508181035f830152612e8b81612e52565b9050919050565b5f608082019050612ea55f830187612624565b612eb2602083018661267c565b612ebf6040830185612706565b612ecc6060830184612624565b95945050505050565b7f5461736b206e6f7420696e2072657669657720287965742900000000000000005f82015250565b5f612f09601883612695565b9150612f1482612ed5565b602082019050919050565b5f6020820190508181035f830152612f3681612efd565b9050919050565b7f446561646c696e652070617373656400000000000000000000000000000000005f82015250565b5f612f71600f83612695565b9150612f7c82612f3d565b602082019050919050565b5f6020820190508181035f830152612f9e81612f65565b9050919050565b7f496e636f72726563742064697370757465206465706f736974000000000000005f82015250565b5f612fd9601983612695565b9150612fe482612fa5565b602082019050919050565b5f6020820190508181035f83015261300681612fcd565b9050919050565b7f4578697374696e672064697370757465206163746976650000000000000000005f82015250565b5f613041601783612695565b915061304c8261300d565b602082019050919050565b5f6020820190508181035f83015261306e81613035565b9050919050565b5f6080820190506130885f830187612624565b613095602083018661267c565b6130a26040830185612624565b6130af6060830184612624565b95945050505050565b7f4e6f2064697370757465000000000000000000000000000000000000000000005f82015250565b5f6130ec600a83612695565b91506130f7826130b8565b602082019050919050565b5f6020820190508181035f830152613119816130e0565b9050919050565b7f416c72656164792066696e616c697a65640000000000000000000000000000005f82015250565b5f613154601183612695565b915061315f82613120565b602082019050919050565b5f6020820190508181035f83015261318181613148565b9050919050565b7f566f74696e672077696e646f77207374696c6c206f70656e00000000000000005f82015250565b5f6131bc601883612695565b91506131c782613188565b602082019050919050565b5f6020820190508181035f8301526131e9816131b0565b9050919050565b7f4e487b71000000000000000000000000000000000000000000000000000000005f52603260045260245ffd5b5f6040820190506132305f83018561267c565b61323d6020830184612624565b9392505050565b5f61324e826125c6565b91507fffffffffffffffffffffffffffffffffffffffffffffffffffffffffffffffff82036132805761327f612abe565b5b600182019050919050565b5f8154905061329981612b4b565b9050919050565b7f4e487b71000000000000000000000000000000000000000000000000000000005f52604160045260245ffd5b5f819050815f5260205f209050919050565b5f819050815f5260205f209050919050565b5f6020601f8301049050919050565b5f82821b905092915050565b5f6008830261333b7fffffffffffffffffffffffffffffffffffffffffffffffffffffffffffffffff82613300565b6133458683613300565b95508019841693508086168417925050509392505050565b5f61337761337261336d846125c6565b6129e2565b6125c6565b9050919050565b5f819050919050565b6133908361335d565b6133a461339c8261337e565b84845461330c565b825550505050565b5f5f905090565b6133bb6133ac565b6133c6818484613387565b505050565b5b818110156133e9576133de5f826133b3565b6001810190506133cc565b5050565b601f82111561342e576133ff816132cd565b613408846132f1565b81016020851015613417578190505b61342b613423856132f1565b8301826133cb565b50505b505050565b5f82821c905092915050565b5f61344e5f1984600802613433565b1980831691505092915050565b5f613466838361343f565b9150826002028217905092915050565b818103613484575050613559565b61348d8261328b565b67ffffffffffffffff8111156134a6576134a56132a0565b5b6134b08254612b4b565b6134bb8282856133ed565b5f601f8311600181146134e8575f84156134d6578287015490505b6134e0858261345b565b865550613552565b601f1984166134f6876132df565b9650613501866132cd565b5f5b8281101561352857848901548255600182019150600185019450602081019050613503565b868310156135455784890154613541601f89168261343f565b8355505b6001600288020188555050505b5050505050505b565b5f60408201905061356e5f830185612624565b61357b6020830184612706565b9392505050565b7f5461736b206e6f742076657269666965642028796574290000000000000000005f82015250565b5f6135b6601783612695565b91506135c182613582565b602082019050919050565b5f6020820190508181035f8301526135e3816135aa565b9050919050565b7f57616974696e672074696d65206e6f74207061737365642079657400000000005f82015250565b5f61361e601b83612695565b9150613629826135ea565b602082019050919050565b5f6020820190508181035f83015261364b81613612565b9050919050565b7f4e6f2076657269666965722079657400000000000000000000000000000000005f82015250565b5f613686600f83612695565b915061369182613652565b602082019050919050565b5f6020820190508181035f8301526136b38161367a565b9050919050565b7f64697370757465640000000000000000000000000000000000000000000000005f82015250565b5f6136ee600883612695565b91506136f9826136ba565b602082019050919050565b5f6020820190508181035f83015261371b816136e2565b9050919050565b5f61372c826125c6565b9150613737836125c6565b9250828202613745816125c6565b9150828204841483151761375c5761375b612abe565b5b5092915050565b7f4e487b71000000000000000000000000000000000000000000000000000000005f52601260045260245ffd5b5f61379a826125c6565b91506137a5836125c6565b9250826137b5576137b4613763565b5b828204905092915050565b6137c98261268b565b67ffffffffffffffff8111156137e2576137e16132a0565b5b6137ec8254612b4b565b6137f78282856133ed565b5f60209050601f831160018114613828575f8415613816578287015190505b613820858261345b565b865550613887565b601f198416613836866132cd565b5f5b8281101561385d57848901518255600182019150602085019450602081019050613838565b8683101561387a5784890151613876601f89168261343f565b8355505b6001600288020188555050505b505050505050565b7f5461736b206e6f74207375626d697474656420287965742900000000000000005f82015250565b5f6138c3601883612695565b91506138ce8261388f565b602082019050919050565b5f6020820190508181035f8301526138f0816138b7565b9050919050565b7f5374616b652072657175697265640000000000000000000000000000000000005f82015250565b5f61392b600e83612695565b9150613936826138f7565b602082019050919050565b5f6020820190508181035f8301526139588161391f565b9050919050565b7f416c7265616479207665726966696564000000000000000000000000000000005f82015250565b5f613993601083612695565b915061399e8261395f565b602082019050919050565b5f6020820190508181035f8301526139c081613987565b9050919050565b5f6060820190506139da5f830186612624565b6139e7602083018561267c565b6139f46040830184612706565b949350505050565b7f4d7573742073656e6420626f756e7479000000000000000000000000000000005f82015250565b5f613a30601083612695565b9150613a3b826139fc565b602082019050919050565b5f6020820190508181035f830152613a5d81613a24565b9050919050565b5f82905092915050565b613a788383613a64565b67ffffffffffffffff811115613a9157613a906132a0565b5b613a9b8254612b4b565b613aa68282856133ed565b5f601f831160018114613ad3575f8415613ac1578287013590505b613acb858261345b565b865550613b32565b601f198416613ae1866132cd565b5f5b82811015613b0857848901358255600182019150602085019450602081019050613ae3565b86831015613b255784890135613b21601f89168261343f565b8355505b6001600288020188555050505b50505050505050565b828183375f83830152505050565b5f613b548385612695565b9350613b61838584613b3b565b613b6a836126b3565b840190509392505050565b5f608082019050613b885f830188612624565b613b95602083018761267c565b613ba26040830186612624565b8181036060830152613bb5818486613b49565b90509695505050505050565b7f5461736b206e6f74206f70656e202879657429000000000000000000000000005f82015250565b5f613bf5601383612695565b9150613c0082613bc1565b602082019050919050565b5f6020820190508181035f830152613c2281613be9565b9050919050565b7f4120736f6c7574696f6e2068617320616c7265616479206265656e207375626d5f8201527f6974746564000000000000000000000000000000000000000000000000000000602082015250565b5f613c83602583612695565b9150613c8e82613c29565b604082019050919050565b5f6020820190508181035f830152613cb081613c77565b9050919050565b5f606082019050613cca5f830187612624565b613cd7602083018661267c565b8181036040830152613cea818486613b49565b90509594505050505056fea2646970667358221220c53810f7aad53a80aedfb185a196201db9e03759874256396cf260a3e883dc5264736f6c634300081e0033",
					"opcodes": "PUSH1 0x80 PUSH1 0x40 MSTORE PUSH7 0x2386F26FC10000 PUSH1 0x3 SSTORE PUSH7 0x2386F26FC10000 PUSH1 0x4 SSTORE PUSH1 0x64 PUSH1 0x5 SSTORE PUSH1 0xB4 PUSH1 0x6 SSTORE CALLVALUE DUP1 ISZERO PUSH2 0x2F JUMPI PUSH0 PUSH0 REVERT JUMPDEST POP PUSH1 0x40 MLOAD PUSH2 0x3E58 CODESIZE SUB DUP1 PUSH2 0x3E58 DUP4 CODECOPY DUP2 DUP2 ADD PUSH1 0x40 MSTORE DUP2 ADD SWAP1 PUSH2 0x51 SWAP2 SWAP1 PUSH2 0xF5 JUMP JUMPDEST DUP1 PUSH1 0x7 PUSH0 PUSH2 0x100 EXP DUP2 SLOAD DUP2 PUSH20 0xFFFFFFFFFFFFFFFFFFFFFFFFFFFFFFFFFFFFFFFF MUL NOT AND SWAP1 DUP4 PUSH20 0xFFFFFFFFFFFFFFFFFFFFFFFFFFFFFFFFFFFFFFFF AND MUL OR SWAP1 SSTORE POP POP PUSH2 0x120 JUMP JUMPDEST PUSH0 PUSH0 REVERT JUMPDEST PUSH0 PUSH20 0xFFFFFFFFFFFFFFFFFFFFFFFFFFFFFFFFFFFFFFFF DUP3 AND SWAP1 POP SWAP2 SWAP1 POP JUMP JUMPDEST PUSH0 PUSH2 0xC4 DUP3 PUSH2 0x9B JUMP JUMPDEST SWAP1 POP SWAP2 SWAP1 POP JUMP JUMPDEST PUSH2 0xD4 DUP2 PUSH2 0xBA JUMP JUMPDEST DUP2 EQ PUSH2 0xDE JUMPI PUSH0 PUSH0 REVERT JUMPDEST POP JUMP JUMPDEST PUSH0 DUP2 MLOAD SWAP1 POP PUSH2 0xEF DUP2 PUSH2 0xCB JUMP JUMPDEST SWAP3 SWAP2 POP POP JUMP JUMPDEST PUSH0 PUSH1 0x20 DUP3 DUP5 SUB SLT ISZERO PUSH2 0x10A JUMPI PUSH2 0x109 PUSH2 0x97 JUMP JUMPDEST JUMPDEST PUSH0 PUSH2 0x117 DUP5 DUP3 DUP6 ADD PUSH2 0xE1 JUMP JUMPDEST SWAP2 POP POP SWAP3 SWAP2 POP POP JUMP JUMPDEST PUSH2 0x3D2B DUP1 PUSH2 0x12D PUSH0 CODECOPY PUSH0 RETURN INVALID PUSH1 0x80 PUSH1 0x40 MSTORE PUSH1 0x4 CALLDATASIZE LT PUSH2 0xDC JUMPI PUSH0 CALLDATALOAD PUSH1 0xE0 SHR DUP1 PUSH4 0x83B0474D GT PUSH2 0x7E JUMPI DUP1 PUSH4 0xC17A340E GT PUSH2 0x58 JUMPI DUP1 PUSH4 0xC17A340E EQ PUSH2 0x2A0 JUMPI DUP1 PUSH4 0xC4CA280D EQ PUSH2 0x2CA JUMPI DUP1 PUSH4 0xD3B5C016 EQ PUSH2 0x2E6 JUMPI DUP1 PUSH4 0xF96DAE0A EQ PUSH2 0x302 JUMPI PUSH2 0xDC JUMP JUMPDEST DUP1 PUSH4 0x83B0474D EQ PUSH2 0x220 JUMPI DUP1 PUSH4 0x88488C33 EQ PUSH2 0x25C JUMPI DUP1 PUSH4 0x88860835 EQ PUSH2 0x284 JUMPI PUSH2 0xDC JUMP JUMPDEST DUP1 PUSH4 0x276AE811 GT PUSH2 0xBA JUMPI DUP1 PUSH4 0x276AE811 EQ PUSH2 0x188 JUMPI DUP1 PUSH4 0x4AC8A529 EQ PUSH2 0x1B2 JUMPI DUP1 PUSH4 0x56989A83 EQ PUSH2 0x1CE JUMPI DUP1 PUSH4 0x5BF31D4D EQ PUSH2 0x1F6 JUMPI PUSH2 0xDC JUMP JUMPDEST DUP1 PUSH4 0x181E0124 EQ PUSH2 0xE0 JUMPI DUP1 PUSH4 0x1D65E77E EQ PUSH2 0x11C JUMPI DUP1 PUSH4 0x1DF97777 EQ PUSH2 0x160 JUMPI JUMPDEST PUSH0 PUSH0 REVERT JUMPDEST CALLVALUE DUP1 ISZERO PUSH2 0xEB JUMPI PUSH0 PUSH0 REVERT JUMPDEST POP PUSH2 0x106 PUSH1 0x4 DUP1 CALLDATASIZE SUB DUP2 ADD SWAP1 PUSH2 0x101 SWAP2 SWAP1 PUSH2 0x25F9 JUMP JUMPDEST PUSH2 0x32C JUMP JUMPDEST PUSH1 0x40 MLOAD PUSH2 0x113 SWAP2 SWAP1 PUSH2 0x2633 JUMP JUMPDEST PUSH1 0x40 MLOAD DUP1 SWAP2 SUB SWAP1 RETURN JUMPDEST CALLVALUE DUP1 ISZERO PUSH2 0x127 JUMPI PUSH0 PUSH0 REVERT JUMPDEST POP PUSH2 0x142 PUSH1 0x4 DUP1 CALLDATASIZE SUB DUP2 ADD SWAP1 PUSH2 0x13D SWAP2 SWAP1 PUSH2 0x25F9 JUMP JUMPDEST PUSH2 0x3E6 JUMP JUMPDEST PUSH1 0x40 MLOAD PUSH2 0x157 SWAP10 SWAP9 SWAP8 SWAP7 SWAP6 SWAP5 SWAP4 SWAP3 SWAP2 SWAP1 PUSH2 0x2788 JUMP JUMPDEST PUSH1 0x40 MLOAD DUP1 SWAP2 SUB SWAP1 RETURN JUMPDEST CALLVALUE DUP1 ISZERO PUSH2 0x16B JUMPI PUSH0 PUSH0 REVERT JUMPDEST POP PUSH2 0x186 PUSH1 0x4 DUP1 CALLDATASIZE SUB DUP2 ADD SWAP1 PUSH2 0x181 SWAP2 SWAP1 PUSH2 0x284B JUMP JUMPDEST PUSH2 0x626 JUMP JUMPDEST STOP JUMPDEST CALLVALUE DUP1 ISZERO PUSH2 0x193 JUMPI PUSH0 PUSH0 REVERT JUMPDEST POP PUSH2 0x19C PUSH2 0xB6A JUMP JUMPDEST PUSH1 0x40 MLOAD PUSH2 0x1A9 SWAP2 SWAP1 PUSH2 0x2633 JUMP JUMPDEST PUSH1 0x40 MLOAD DUP1 SWAP2 SUB SWAP1 RETURN JUMPDEST PUSH2 0x1CC PUSH1 0x4 DUP1 CALLDATASIZE SUB DUP2 ADD SWAP1 PUSH2 0x1C7 SWAP2 SWAP1 PUSH2 0x25F9 JUMP JUMPDEST PUSH2 0xB70 JUMP JUMPDEST STOP JUMPDEST CALLVALUE DUP1 ISZERO PUSH2 0x1D9 JUMPI PUSH0 PUSH0 REVERT JUMPDEST POP PUSH2 0x1F4 PUSH1 0x4 DUP1 CALLDATASIZE SUB DUP2 ADD SWAP1 PUSH2 0x1EF SWAP2 SWAP1 PUSH2 0x25F9 JUMP JUMPDEST PUSH2 0xE63 JUMP JUMPDEST STOP JUMPDEST CALLVALUE DUP1 ISZERO PUSH2 0x201 JUMPI PUSH0 PUSH0 REVERT JUMPDEST POP PUSH2 0x20A PUSH2 0x1325 JUMP JUMPDEST PUSH1 0x40 MLOAD PUSH2 0x217 SWAP2 SWAP1 PUSH2 0x2633 JUMP JUMPDEST PUSH1 0x40 MLOAD DUP1 SWAP2 SUB SWAP1 RETURN JUMPDEST CALLVALUE DUP1 ISZERO PUSH2 0x22B JUMPI PUSH0 PUSH0 REVERT JUMPDEST POP PUSH2 0x246 PUSH1 0x4 DUP1 CALLDATASIZE SUB DUP2 ADD SWAP1 PUSH2 0x241 SWAP2 SWAP1 PUSH2 0x25F9 JUMP JUMPDEST PUSH2 0x132B JUMP JUMPDEST PUSH1 0x40 MLOAD PUSH2 0x253 SWAP2 SWAP1 PUSH2 0x2633 JUMP JUMPDEST PUSH1 0x40 MLOAD DUP1 SWAP2 SUB SWAP1 RETURN JUMPDEST CALLVALUE DUP1 ISZERO PUSH2 0x267 JUMPI PUSH0 PUSH0 REVERT JUMPDEST POP PUSH2 0x282 PUSH1 0x4 DUP1 CALLDATASIZE SUB DUP2 ADD SWAP1 PUSH2 0x27D SWAP2 SWAP1 PUSH2 0x25F9 JUMP JUMPDEST PUSH2 0x1400 JUMP JUMPDEST STOP JUMPDEST PUSH2 0x29E PUSH1 0x4 DUP1 CALLDATASIZE SUB DUP2 ADD SWAP1 PUSH2 0x299 SWAP2 SWAP1 PUSH2 0x289B JUMP JUMPDEST PUSH2 0x1939 JUMP JUMPDEST STOP JUMPDEST CALLVALUE DUP1 ISZERO PUSH2 0x2AB JUMPI PUSH0 PUSH0 REVERT JUMPDEST POP PUSH2 0x2B4 PUSH2 0x1BC6 JUMP JUMPDEST PUSH1 0x40 MLOAD PUSH2 0x2C1 SWAP2 SWAP1 PUSH2 0x2633 JUMP JUMPDEST PUSH1 0x40 MLOAD DUP1 SWAP2 SUB SWAP1 RETURN JUMPDEST PUSH2 0x2E4 PUSH1 0x4 DUP1 CALLDATASIZE SUB DUP2 ADD SWAP1 PUSH2 0x2DF SWAP2 SWAP1 PUSH2 0x293A JUMP JUMPDEST PUSH2 0x1BCE JUMP JUMPDEST STOP JUMPDEST PUSH2 0x300 PUSH1 0x4 DUP1 CALLDATASIZE SUB DUP2 ADD SWAP1 PUSH2 0x2FB SWAP2 SWAP1 PUSH2 0x2985 JUMP JUMPDEST PUSH2 0x1D24 JUMP JUMPDEST STOP JUMPDEST CALLVALUE DUP1 ISZERO PUSH2 0x30D JUMPI PUSH0 PUSH0 REVERT JUMPDEST POP PUSH2 0x316 PUSH2 0x1F97 JUMP JUMPDEST PUSH1 0x40 MLOAD PUSH2 0x323 SWAP2 SWAP1 PUSH2 0x2A3D JUMP JUMPDEST PUSH1 0x40 MLOAD DUP1 SWAP2 SUB SWAP1 RETURN JUMPDEST PUSH0 PUSH0 DUP3 GT DUP1 ISZERO PUSH2 0x33D JUMPI POP PUSH0 SLOAD DUP3 GT ISZERO JUMPDEST PUSH2 0x37C JUMPI PUSH1 0x40 MLOAD PUSH32 0x8C379A000000000000000000000000000000000000000000000000000000000 DUP2 MSTORE PUSH1 0x4 ADD PUSH2 0x373 SWAP1 PUSH2 0x2AA0 JUMP JUMPDEST PUSH1 0x40 MLOAD DUP1 SWAP2 SUB SWAP1 REVERT JUMPDEST PUSH0 PUSH1 0x1 PUSH0 DUP5 DUP2 MSTORE PUSH1 0x20 ADD SWAP1 DUP2 MSTORE PUSH1 0x20 ADD PUSH0 KECCAK256 PUSH1 0x7 ADD SLOAD EQ DUP1 PUSH2 0x3B1 JUMPI POP TIMESTAMP PUSH1 0x1 PUSH0 DUP5 DUP2 MSTORE PUSH1 0x20 ADD SWAP1 DUP2 MSTORE PUSH1 0x20 ADD PUSH0 KECCAK256 PUSH1 0x7 ADD SLOAD LT JUMPDEST ISZERO PUSH2 0x3BE JUMPI PUSH0 SWAP1 POP PUSH2 0x3E1 JUMP JUMPDEST TIMESTAMP PUSH1 0x1 PUSH0 DUP5 DUP2 MSTORE PUSH1 0x20 ADD SWAP1 DUP2 MSTORE PUSH1 0x20 ADD PUSH0 KECCAK256 PUSH1 0x7 ADD SLOAD PUSH2 0x3DE SWAP2 SWAP1 PUSH2 0x2AEB JUMP JUMPDEST SWAP1 POP JUMPDEST SWAP2 SWAP1 POP JUMP JUMPDEST PUSH0 PUSH0 PUSH0 PUSH0 PUSH1 0x60 DUP1 PUSH0 PUSH0 PUSH0 PUSH0 DUP11 GT DUP1 ISZERO PUSH2 0x400 JUMPI POP PUSH0 SLOAD DUP11 GT ISZERO JUMPDEST PUSH2 0x43F JUMPI PUSH1 0x40 MLOAD PUSH32 0x8C379A000000000000000000000000000000000000000000000000000000000 DUP2 MSTORE PUSH1 0x4 ADD PUSH2 0x436 SWAP1 PUSH2 0x2AA0 JUMP JUMPDEST PUSH1 0x40 MLOAD DUP1 SWAP2 SUB SWAP1 REVERT JUMPDEST PUSH0 PUSH1 0x1 PUSH0 DUP13 DUP2 MSTORE PUSH1 0x20 ADD SWAP1 DUP2 MSTORE PUSH1 0x20 ADD PUSH0 KECCAK256 SWAP1 POP DUP1 PUSH0 ADD PUSH0 SWAP1 SLOAD SWAP1 PUSH2 0x100 EXP SWAP1 DIV PUSH20 0xFFFFFFFFFFFFFFFFFFFFFFFFFFFFFFFFFFFFFFFF AND DUP2 PUSH1 0x1 ADD PUSH0 SWAP1 SLOAD SWAP1 PUSH2 0x100 EXP SWAP1 DIV PUSH20 0xFFFFFFFFFFFFFFFFFFFFFFFFFFFFFFFFFFFFFFFF AND DUP3 PUSH1 0x2 ADD PUSH0 SWAP1 SLOAD SWAP1 PUSH2 0x100 EXP SWAP1 DIV PUSH20 0xFFFFFFFFFFFFFFFFFFFFFFFFFFFFFFFFFFFFFFFF AND DUP4 PUSH1 0x3 ADD SLOAD DUP5 PUSH1 0x4 ADD DUP6 PUSH1 0x5 ADD DUP7 PUSH1 0x6 ADD PUSH0 SWAP1 SLOAD SWAP1 PUSH2 0x100 EXP SWAP1 DIV PUSH1 0xFF AND DUP8 PUSH1 0x7 ADD SLOAD DUP9 PUSH1 0x8 ADD PUSH0 SWAP1 SLOAD SWAP1 PUSH2 0x100 EXP SWAP1 DIV PUSH1 0xFF AND DUP5 DUP1 SLOAD PUSH2 0x4FE SWAP1 PUSH2 0x2B4B JUMP JUMPDEST DUP1 PUSH1 0x1F ADD PUSH1 0x20 DUP1 SWAP2 DIV MUL PUSH1 0x20 ADD PUSH1 0x40 MLOAD SWAP1 DUP2 ADD PUSH1 0x40 MSTORE DUP1 SWAP3 SWAP2 SWAP1 DUP2 DUP2 MSTORE PUSH1 0x20 ADD DUP3 DUP1 SLOAD PUSH2 0x52A SWAP1 PUSH2 0x2B4B JUMP JUMPDEST DUP1 ISZERO PUSH2 0x575 JUMPI DUP1 PUSH1 0x1F LT PUSH2 0x54C JUMPI PUSH2 0x100 DUP1 DUP4 SLOAD DIV MUL DUP4 MSTORE SWAP2 PUSH1 0x20 ADD SWAP2 PUSH2 0x575 JUMP JUMPDEST DUP3 ADD SWAP2 SWAP1 PUSH0 MSTORE PUSH1 0x20 PUSH0 KECCAK256 SWAP1 JUMPDEST DUP2 SLOAD DUP2 MSTORE SWAP1 PUSH1 0x1 ADD SWAP1 PUSH1 0x20 ADD DUP1 DUP4 GT PUSH2 0x558 JUMPI DUP3 SWAP1 SUB PUSH1 0x1F AND DUP3 ADD SWAP2 JUMPDEST POP POP POP POP POP SWAP5 POP DUP4 DUP1 SLOAD PUSH2 0x588 SWAP1 PUSH2 0x2B4B JUMP JUMPDEST DUP1 PUSH1 0x1F ADD PUSH1 0x20 DUP1 SWAP2 DIV MUL PUSH1 0x20 ADD PUSH1 0x40 MLOAD SWAP1 DUP2 ADD PUSH1 0x40 MSTORE DUP1 SWAP3 SWAP2 SWAP1 DUP2 DUP2 MSTORE PUSH1 0x20 ADD DUP3 DUP1 SLOAD PUSH2 0x5B4 SWAP1 PUSH2 0x2B4B JUMP JUMPDEST DUP1 ISZERO PUSH2 0x5FF JUMPI DUP1 PUSH1 0x1F LT PUSH2 0x5D6 JUMPI PUSH2 0x100 DUP1 DUP4 SLOAD DIV MUL DUP4 MSTORE SWAP2 PUSH1 0x20 ADD SWAP2 PUSH2 0x5FF JUMP JUMPDEST DUP3 ADD SWAP2 SWAP1 PUSH0 MSTORE PUSH1 0x20 PUSH0 KECCAK256 SWAP1 JUMPDEST DUP2 SLOAD DUP2 MSTORE SWAP1 PUSH1 0x1 ADD SWAP1 PUSH1 0x20 ADD DUP1 DUP4 GT PUSH2 0x5E2 JUMPI DUP3 SWAP1 SUB PUSH1 0x1F AND DUP3 ADD SWAP2 JUMPDEST POP POP POP POP POP SWAP4 POP SWAP10 POP SWAP10 POP SWAP10 POP SWAP10 POP SWAP10 POP SWAP10 POP SWAP10 POP SWAP10 POP SWAP10 POP POP SWAP2 SWAP4 SWAP6 SWAP8 SWAP10 SWAP1 SWAP3 SWAP5 SWAP7 SWAP9 POP JUMP JUMPDEST PUSH0 DUP4 GT DUP1 ISZERO PUSH2 0x636 JUMPI POP PUSH0 SLOAD DUP4 GT ISZERO JUMPDEST PUSH2 0x675 JUMPI PUSH1 0x40 MLOAD PUSH32 0x8C379A000000000000000000000000000000000000000000000000000000000 DUP2 MSTORE PUSH1 0x4 ADD PUSH2 0x66C SWAP1 PUSH2 0x2AA0 JUMP JUMPDEST PUSH1 0x40 MLOAD DUP1 SWAP2 SUB SWAP1 REVERT JUMPDEST PUSH0 PUSH1 0x2 PUSH0 DUP6 DUP2 MSTORE PUSH1 0x20 ADD SWAP1 DUP2 MSTORE PUSH1 0x20 ADD PUSH0 KECCAK256 SWAP1 POP DUP1 PUSH0 ADD PUSH0 SWAP1 SLOAD SWAP1 PUSH2 0x100 EXP SWAP1 DIV PUSH1 0xFF AND DUP1 ISZERO PUSH2 0x6B3 JUMPI POP DUP1 PUSH1 0x5 ADD PUSH0 SWAP1 SLOAD SWAP1 PUSH2 0x100 EXP SWAP1 DIV PUSH1 0xFF AND ISZERO JUMPDEST PUSH2 0x6F2 JUMPI PUSH1 0x40 MLOAD PUSH32 0x8C379A000000000000000000000000000000000000000000000000000000000 DUP2 MSTORE PUSH1 0x4 ADD PUSH2 0x6E9 SWAP1 PUSH2 0x2BC5 JUMP JUMPDEST PUSH1 0x40 MLOAD DUP1 SWAP2 SUB SWAP1 REVERT JUMPDEST PUSH1 0x6 SLOAD DUP2 PUSH1 0x1 ADD SLOAD PUSH2 0x704 SWAP2 SWAP1 PUSH2 0x2BE3 JUMP JUMPDEST TIMESTAMP GT ISZERO PUSH2 0x746 JUMPI PUSH1 0x40 MLOAD PUSH32 0x8C379A000000000000000000000000000000000000000000000000000000000 DUP2 MSTORE PUSH1 0x4 ADD PUSH2 0x73D SWAP1 PUSH2 0x2C60 JUMP JUMPDEST PUSH1 0x40 MLOAD DUP1 SWAP2 SUB SWAP1 REVERT JUMPDEST PUSH1 0x5 SLOAD DUP4 LT ISZERO PUSH2 0x78B JUMPI PUSH1 0x40 MLOAD PUSH32 0x8C379A000000000000000000000000000000000000000000000000000000000 DUP2 MSTORE PUSH1 0x4 ADD PUSH2 0x782 SWAP1 PUSH2 0x2CC8 JUMP JUMPDEST PUSH1 0x40 MLOAD DUP1 SWAP2 SUB SWAP1 REVERT JUMPDEST PUSH0 DUP2 PUSH1 0x7 ADD PUSH0 CALLER PUSH20 0xFFFFFFFFFFFFFFFFFFFFFFFFFFFFFFFFFFFFFFFF AND PUSH20 0xFFFFFFFFFFFFFFFFFFFFFFFFFFFFFFFFFFFFFFFF AND DUP2 MSTORE PUSH1 0x20 ADD SWAP1 DUP2 MSTORE PUSH1 0x20 ADD PUSH0 KECCAK256 SLOAD EQ PUSH2 0x80C JUMPI PUSH1 0x40 MLOAD PUSH32 0x8C379A000000000000000000000000000000000000000000000000000000000 DUP2 MSTORE PUSH1 0x4 ADD PUSH2 0x803 SWAP1 PUSH2 0x2D30 JUMP JUMPDEST PUSH1 0x40 MLOAD DUP1 SWAP2 SUB SWAP1 REVERT JUMPDEST DUP1 PUSH1 0x6 ADD PUSH0 CALLER PUSH20 0xFFFFFFFFFFFFFFFFFFFFFFFFFFFFFFFFFFFFFFFF AND PUSH20 0xFFFFFFFFFFFFFFFFFFFFFFFFFFFFFFFFFFFFFFFF AND DUP2 MSTORE PUSH1 0x20 ADD SWAP1 DUP2 MSTORE PUSH1 0x20 ADD PUSH0 KECCAK256 PUSH0 SWAP1 SLOAD SWAP1 PUSH2 0x100 EXP SWAP1 DIV PUSH1 0xFF AND ISZERO PUSH2 0x898 JUMPI PUSH1 0x40 MLOAD PUSH32 0x8C379A000000000000000000000000000000000000000000000000000000000 DUP2 MSTORE PUSH1 0x4 ADD PUSH2 0x88F SWAP1 PUSH2 0x2D98 JUMP JUMPDEST PUSH1 0x40 MLOAD DUP1 SWAP2 SUB SWAP1 REVERT JUMPDEST PUSH0 PUSH1 0x7 PUSH0 SWAP1 SLOAD SWAP1 PUSH2 0x100 EXP SWAP1 DIV PUSH20 0xFFFFFFFFFFFFFFFFFFFFFFFFFFFFFFFFFFFFFFFF AND PUSH20 0xFFFFFFFFFFFFFFFFFFFFFFFFFFFFFFFFFFFFFFFF AND PUSH4 0x23B872DD CALLER ADDRESS DUP8 PUSH1 0x40 MLOAD DUP5 PUSH4 0xFFFFFFFF AND PUSH1 0xE0 SHL DUP2 MSTORE PUSH1 0x4 ADD PUSH2 0x8F7 SWAP4 SWAP3 SWAP2 SWAP1 PUSH2 0x2DB6 JUMP JUMPDEST PUSH1 0x20 PUSH1 0x40 MLOAD DUP1 DUP4 SUB DUP2 PUSH0 DUP8 GAS CALL ISZERO DUP1 ISZERO PUSH2 0x913 JUMPI RETURNDATASIZE PUSH0 PUSH0 RETURNDATACOPY RETURNDATASIZE PUSH0 REVERT JUMPDEST POP POP POP POP PUSH1 0x40 MLOAD RETURNDATASIZE PUSH1 0x1F NOT PUSH1 0x1F DUP3 ADD AND DUP3 ADD DUP1 PUSH1 0x40 MSTORE POP DUP2 ADD SWAP1 PUSH2 0x937 SWAP2 SWAP1 PUSH2 0x2DFF JUMP JUMPDEST SWAP1 POP DUP1 PUSH2 0x979 JUMPI PUSH1 0x40 MLOAD PUSH32 0x8C379A000000000000000000000000000000000000000000000000000000000 DUP2 MSTORE PUSH1 0x4 ADD PUSH2 0x970 SWAP1 PUSH2 0x2E74 JUMP JUMPDEST PUSH1 0x40 MLOAD DUP1 SWAP2 SUB SWAP1 REVERT JUMPDEST DUP3 DUP3 PUSH1 0x8 ADD PUSH0 CALLER PUSH20 0xFFFFFFFFFFFFFFFFFFFFFFFFFFFFFFFFFFFFFFFF AND PUSH20 0xFFFFFFFFFFFFFFFFFFFFFFFFFFFFFFFFFFFFFFFF AND DUP2 MSTORE PUSH1 0x20 ADD SWAP1 DUP2 MSTORE PUSH1 0x20 ADD PUSH0 KECCAK256 PUSH0 PUSH2 0x100 EXP DUP2 SLOAD DUP2 PUSH1 0xFF MUL NOT AND SWAP1 DUP4 ISZERO ISZERO MUL OR SWAP1 SSTORE POP DUP4 DUP3 PUSH1 0x7 ADD PUSH0 CALLER PUSH20 0xFFFFFFFFFFFFFFFFFFFFFFFFFFFFFFFFFFFFFFFF AND PUSH20 0xFFFFFFFFFFFFFFFFFFFFFFFFFFFFFFFFFFFFFFFF AND DUP2 MSTORE PUSH1 0x20 ADD SWAP1 DUP2 MSTORE PUSH1 0x20 ADD PUSH0 KECCAK256 DUP2 SWAP1 SSTORE POP DUP4 DUP3 PUSH1 0x4 ADD PUSH0 DUP3 DUP3 SLOAD PUSH2 0xA26 SWAP2 SWAP1 PUSH2 0x2BE3 JUMP JUMPDEST SWAP3 POP POP DUP2 SWAP1 SSTORE POP DUP2 PUSH1 0x9 ADD CALLER SWAP1 DUP1 PUSH1 0x1 DUP2 SLOAD ADD DUP1 DUP3 SSTORE DUP1 SWAP2 POP POP PUSH1 0x1 SWAP1 SUB SWAP1 PUSH0 MSTORE PUSH1 0x20 PUSH0 KECCAK256 ADD PUSH0 SWAP1 SWAP2 SWAP1 SWAP2 SWAP1 SWAP2 PUSH2 0x100 EXP DUP2 SLOAD DUP2 PUSH20 0xFFFFFFFFFFFFFFFFFFFFFFFFFFFFFFFFFFFFFFFF MUL NOT AND SWAP1 DUP4 PUSH20 0xFFFFFFFFFFFFFFFFFFFFFFFFFFFFFFFFFFFFFFFF AND MUL OR SWAP1 SSTORE POP PUSH1 0x1 DUP3 PUSH1 0x6 ADD PUSH0 CALLER PUSH20 0xFFFFFFFFFFFFFFFFFFFFFFFFFFFFFFFFFFFFFFFF AND PUSH20 0xFFFFFFFFFFFFFFFFFFFFFFFFFFFFFFFFFFFFFFFF AND DUP2 MSTORE PUSH1 0x20 ADD SWAP1 DUP2 MSTORE PUSH1 0x20 ADD PUSH0 KECCAK256 PUSH0 PUSH2 0x100 EXP DUP2 SLOAD DUP2 PUSH1 0xFF MUL NOT AND SWAP1 DUP4 ISZERO ISZERO MUL OR SWAP1 SSTORE POP DUP3 ISZERO PUSH2 0xB0B JUMPI DUP4 DUP3 PUSH1 0x2 ADD PUSH0 DUP3 DUP3 SLOAD PUSH2 0xAFF SWAP2 SWAP1 PUSH2 0x2BE3 JUMP JUMPDEST SWAP3 POP POP DUP2 SWAP1 SSTORE POP PUSH2 0xB26 JUMP JUMPDEST DUP4 DUP3 PUSH1 0x3 ADD PUSH0 DUP3 DUP3 SLOAD PUSH2 0xB1E SWAP2 SWAP1 PUSH2 0x2BE3 JUMP JUMPDEST SWAP3 POP POP DUP2 SWAP1 SSTORE POP JUMPDEST PUSH32 0x804CB3F45E5253AC34847987D4D9AE8CFA21A176F777ACB99B5988A4E01F8CFD DUP6 CALLER DUP6 DUP8 PUSH1 0x40 MLOAD PUSH2 0xB5B SWAP5 SWAP4 SWAP3 SWAP2 SWAP1 PUSH2 0x2E92 JUMP JUMPDEST PUSH1 0x40 MLOAD DUP1 SWAP2 SUB SWAP1 LOG1 POP POP POP POP POP JUMP JUMPDEST PUSH1 0x5 SLOAD DUP2 JUMP JUMPDEST PUSH0 DUP2 GT DUP1 ISZERO PUSH2 0xB80 JUMPI POP PUSH0 SLOAD DUP2 GT ISZERO JUMPDEST PUSH2 0xBBF JUMPI PUSH1 0x40 MLOAD PUSH32 0x8C379A000000000000000000000000000000000000000000000000000000000 DUP2 MSTORE PUSH1 0x4 ADD PUSH2 0xBB6 SWAP1 PUSH2 0x2AA0 JUMP JUMPDEST PUSH1 0x40 MLOAD DUP1 SWAP2 SUB SWAP1 REVERT JUMPDEST PUSH0 PUSH1 0x1 PUSH0 DUP4 DUP2 MSTORE PUSH1 0x20 ADD SWAP1 DUP2 MSTORE PUSH1 0x20 ADD PUSH0 KECCAK256 SWAP1 POP PUSH1 0x2 PUSH1 0x5 DUP2 GT ISZERO PUSH2 0xBE7 JUMPI PUSH2 0xBE6 PUSH2 0x2715 JUMP JUMPDEST JUMPDEST DUP2 PUSH1 0x8 ADD PUSH0 SWAP1 SLOAD SWAP1 PUSH2 0x100 EXP SWAP1 DIV PUSH1 0xFF AND PUSH1 0x5 DUP2 GT ISZERO PUSH2 0xC0A JUMPI PUSH2 0xC09 PUSH2 0x2715 JUMP JUMPDEST JUMPDEST EQ PUSH2 0xC4A JUMPI PUSH1 0x40 MLOAD PUSH32 0x8C379A000000000000000000000000000000000000000000000000000000000 DUP2 MSTORE PUSH1 0x4 ADD PUSH2 0xC41 SWAP1 PUSH2 0x2F1F JUMP JUMPDEST PUSH1 0x40 MLOAD DUP1 SWAP2 SUB SWAP1 REVERT JUMPDEST DUP1 PUSH1 0x7 ADD SLOAD TIMESTAMP LT PUSH2 0xC90 JUMPI PUSH1 0x40 MLOAD PUSH32 0x8C379A000000000000000000000000000000000000000000000000000000000 DUP2 MSTORE PUSH1 0x4 ADD PUSH2 0xC87 SWAP1 PUSH2 0x2F87 JUMP JUMPDEST PUSH1 0x40 MLOAD DUP1 SWAP2 SUB SWAP1 REVERT JUMPDEST PUSH1 0x4 SLOAD CALLVALUE EQ PUSH2 0xCD4 JUMPI PUSH1 0x40 MLOAD PUSH32 0x8C379A000000000000000000000000000000000000000000000000000000000 DUP2 MSTORE PUSH1 0x4 ADD PUSH2 0xCCB SWAP1 PUSH2 0x2FEF JUMP JUMPDEST PUSH1 0x40 MLOAD DUP1 SWAP2 SUB SWAP1 REVERT JUMPDEST PUSH1 0x2 PUSH0 DUP4 DUP2 MSTORE PUSH1 0x20 ADD SWAP1 DUP2 MSTORE PUSH1 0x20 ADD PUSH0 KECCAK256 PUSH0 ADD PUSH0 SWAP1 SLOAD SWAP1 PUSH2 0x100 EXP SWAP1 DIV PUSH1 0xFF AND ISZERO DUP1 PUSH2 0xD1D JUMPI POP PUSH1 0x2 PUSH0 DUP4 DUP2 MSTORE PUSH1 0x20 ADD SWAP1 DUP2 MSTORE PUSH1 0x20 ADD PUSH0 KECCAK256 PUSH1 0x5 ADD PUSH0 SWAP1 SLOAD SWAP1 PUSH2 0x100 EXP SWAP1 DIV PUSH1 0xFF AND JUMPDEST PUSH2 0xD5C JUMPI PUSH1 0x40 MLOAD PUSH32 0x8C379A000000000000000000000000000000000000000000000000000000000 DUP2 MSTORE PUSH1 0x4 ADD PUSH2 0xD53 SWAP1 PUSH2 0x3057 JUMP JUMPDEST PUSH1 0x40 MLOAD DUP1 SWAP2 SUB SWAP1 REVERT JUMPDEST PUSH1 0x3 DUP2 PUSH1 0x8 ADD PUSH0 PUSH2 0x100 EXP DUP2 SLOAD DUP2 PUSH1 0xFF MUL NOT AND SWAP1 DUP4 PUSH1 0x5 DUP2 GT ISZERO PUSH2 0xD83 JUMPI PUSH2 0xD82 PUSH2 0x2715 JUMP JUMPDEST JUMPDEST MUL OR SWAP1 SSTORE POP PUSH0 PUSH1 0x2 PUSH0 DUP5 DUP2 MSTORE PUSH1 0x20 ADD SWAP1 DUP2 MSTORE PUSH1 0x20 ADD PUSH0 KECCAK256 SWAP1 POP PUSH1 0x1 DUP2 PUSH0 ADD PUSH0 PUSH2 0x100 EXP DUP2 SLOAD DUP2 PUSH1 0xFF MUL NOT AND SWAP1 DUP4 ISZERO ISZERO MUL OR SWAP1 SSTORE POP CALLER DUP2 PUSH0 ADD PUSH1 0x1 PUSH2 0x100 EXP DUP2 SLOAD DUP2 PUSH20 0xFFFFFFFFFFFFFFFFFFFFFFFFFFFFFFFFFFFFFFFF MUL NOT AND SWAP1 DUP4 PUSH20 0xFFFFFFFFFFFFFFFFFFFFFFFFFFFFFFFFFFFFFFFF AND MUL OR SWAP1 SSTORE POP TIMESTAMP DUP2 PUSH1 0x1 ADD DUP2 SWAP1 SSTORE POP PUSH0 DUP2 PUSH1 0x5 ADD PUSH0 PUSH2 0x100 EXP DUP2 SLOAD DUP2 PUSH1 0xFF MUL NOT AND SWAP1 DUP4 ISZERO ISZERO MUL OR SWAP1 SSTORE POP PUSH32 0x1D2F4ADE11FCEA3A321EB215E6561C2F95D30D0F1BCF7AD3D715932B61D0DA9A DUP4 CALLER CALLVALUE DUP5 PUSH1 0x1 ADD SLOAD PUSH1 0x40 MLOAD PUSH2 0xE56 SWAP5 SWAP4 SWAP3 SWAP2 SWAP1 PUSH2 0x3075 JUMP JUMPDEST PUSH1 0x40 MLOAD DUP1 SWAP2 SUB SWAP1 LOG1 POP POP POP JUMP JUMPDEST PUSH0 DUP2 GT DUP1 ISZERO PUSH2 0xE73 JUMPI POP PUSH0 SLOAD DUP2 GT ISZERO JUMPDEST PUSH2 0xEB2 JUMPI PUSH1 0x40 MLOAD PUSH32 0x8C379A000000000000000000000000000000000000000000000000000000000 DUP2 MSTORE PUSH1 0x4 ADD PUSH2 0xEA9 SWAP1 PUSH2 0x2AA0 JUMP JUMPDEST PUSH1 0x40 MLOAD DUP1 SWAP2 SUB SWAP1 REVERT JUMPDEST PUSH0 PUSH1 0x2 PUSH0 DUP4 DUP2 MSTORE PUSH1 0x20 ADD SWAP1 DUP2 MSTORE PUSH1 0x20 ADD PUSH0 KECCAK256 SWAP1 POP PUSH0 PUSH1 0x1 PUSH0 DUP5 DUP2 MSTORE PUSH1 0x20 ADD SWAP1 DUP2 MSTORE PUSH1 0x20 ADD PUSH0 KECCAK256 SWAP1 POP DUP2 PUSH0 ADD PUSH0 SWAP1 SLOAD SWAP1 PUSH2 0x100 EXP SWAP1 DIV PUSH1 0xFF AND PUSH2 0xF29 JUMPI PUSH1 0x40 MLOAD PUSH32 0x8C379A000000000000000000000000000000000000000000000000000000000 DUP2 MSTORE PUSH1 0x4 ADD PUSH2 0xF20 SWAP1 PUSH2 0x3102 JUMP JUMPDEST PUSH1 0x40 MLOAD DUP1 SWAP2 SUB SWAP1 REVERT JUMPDEST DUP2 PUSH1 0x5 ADD PUSH0 SWAP1 SLOAD SWAP1 PUSH2 0x100 EXP SWAP1 DIV PUSH1 0xFF AND ISZERO PUSH2 0xF7A JUMPI PUSH1 0x40 MLOAD PUSH32 0x8C379A000000000000000000000000000000000000000000000000000000000 DUP2 MSTORE PUSH1 0x4 ADD PUSH2 0xF71 SWAP1 PUSH2 0x316A JUMP JUMPDEST PUSH1 0x40 MLOAD DUP1 SWAP2 SUB SWAP1 REVERT JUMPDEST PUSH1 0x6 SLOAD DUP3 PUSH1 0x1 ADD SLOAD PUSH2 0xF8C SWAP2 SWAP1 PUSH2 0x2BE3 JUMP JUMPDEST TIMESTAMP GT PUSH2 0xFCD JUMPI PUSH1 0x40 MLOAD PUSH32 0x8C379A000000000000000000000000000000000000000000000000000000000 DUP2 MSTORE PUSH1 0x4 ADD PUSH2 0xFC4 SWAP1 PUSH2 0x31D2 JUMP JUMPDEST PUSH1 0x40 MLOAD DUP1 SWAP2 SUB SWAP1 REVERT JUMPDEST PUSH1 0x1 DUP3 PUSH1 0x5 ADD PUSH0 PUSH2 0x100 EXP DUP2 SLOAD DUP2 PUSH1 0xFF MUL NOT AND SWAP1 DUP4 ISZERO ISZERO MUL OR SWAP1 SSTORE POP PUSH0 DUP3 PUSH1 0x2 ADD SLOAD SWAP1 POP PUSH0 DUP4 PUSH1 0x3 ADD SLOAD SWAP1 POP DUP1 DUP3 LT PUSH2 0x1019 JUMPI PUSH2 0x100B DUP6 PUSH1 0x1 PUSH2 0x1FBC JUMP JUMPDEST PUSH2 0x1014 DUP6 PUSH2 0x2371 JUMP JUMPDEST PUSH2 0x1024 JUMP JUMPDEST PUSH2 0x1023 DUP6 PUSH0 PUSH2 0x1FBC JUMP JUMPDEST JUMPDEST PUSH0 PUSH0 SWAP1 POP JUMPDEST DUP5 PUSH1 0x9 ADD DUP1 SLOAD SWAP1 POP DUP2 LT ISZERO PUSH2 0x11B5 JUMPI PUSH0 DUP6 PUSH1 0x9 ADD DUP3 DUP2 SLOAD DUP2 LT PUSH2 0x104F JUMPI PUSH2 0x104E PUSH2 0x31F0 JUMP JUMPDEST JUMPDEST SWAP1 PUSH0 MSTORE PUSH1 0x20 PUSH0 KECCAK256 ADD PUSH0 SWAP1 SLOAD SWAP1 PUSH2 0x100 EXP SWAP1 DIV PUSH20 0xFFFFFFFFFFFFFFFFFFFFFFFFFFFFFFFFFFFFFFFF AND SWAP1 POP PUSH0 DUP7 PUSH1 0x7 ADD PUSH0 DUP4 PUSH20 0xFFFFFFFFFFFFFFFFFFFFFFFFFFFFFFFFFFFFFFFF AND PUSH20 0xFFFFFFFFFFFFFFFFFFFFFFFFFFFFFFFFFFFFFFFF AND DUP2 MSTORE PUSH1 0x20 ADD SWAP1 DUP2 MSTORE PUSH1 0x20 ADD PUSH0 KECCAK256 SLOAD SWAP1 POP PUSH0 DUP2 GT ISZERO PUSH2 0x11A6 JUMPI PUSH0 DUP8 PUSH1 0x7 ADD PUSH0 DUP5 PUSH20 0xFFFFFFFFFFFFFFFFFFFFFFFFFFFFFFFFFFFFFFFF AND PUSH20 0xFFFFFFFFFFFFFFFFFFFFFFFFFFFFFFFFFFFFFFFF AND DUP2 MSTORE PUSH1 0x20 ADD SWAP1 DUP2 MSTORE PUSH1 0x20 ADD PUSH0 KECCAK256 DUP2 SWAP1 SSTORE POP PUSH1 0x7 PUSH0 SWAP1 SLOAD SWAP1 PUSH2 0x100 EXP SWAP1 DIV PUSH20 0xFFFFFFFFFFFFFFFFFFFFFFFFFFFFFFFFFFFFFFFF AND PUSH20 0xFFFFFFFFFFFFFFFFFFFFFFFFFFFFFFFFFFFFFFFF AND PUSH4 0xA9059CBB DUP4 DUP4 PUSH1 0x40 MLOAD DUP4 PUSH4 0xFFFFFFFF AND PUSH1 0xE0 SHL DUP2 MSTORE PUSH1 0x4 ADD PUSH2 0x1164 SWAP3 SWAP2 SWAP1 PUSH2 0x321D JUMP JUMPDEST PUSH1 0x20 PUSH1 0x40 MLOAD DUP1 DUP4 SUB DUP2 PUSH0 DUP8 GAS CALL ISZERO DUP1 ISZERO PUSH2 0x1180 JUMPI RETURNDATASIZE PUSH0 PUSH0 RETURNDATACOPY RETURNDATASIZE PUSH0 REVERT JUMPDEST POP POP POP POP PUSH1 0x40 MLOAD RETURNDATASIZE PUSH1 0x1F NOT PUSH1 0x1F DUP3 ADD AND DUP3 ADD DUP1 PUSH1 0x40 MSTORE POP DUP2 ADD SWAP1 PUSH2 0x11A4 SWAP2 SWAP1 PUSH2 0x2DFF JUMP JUMPDEST POP JUMPDEST POP POP DUP1 DUP1 PUSH1 0x1 ADD SWAP2 POP POP PUSH2 0x1029 JUMP JUMPDEST POP DUP1 DUP3 LT ISZERO PUSH2 0x12E2 JUMPI PUSH1 0x5 DUP4 PUSH1 0x8 ADD PUSH0 PUSH2 0x100 EXP DUP2 SLOAD DUP2 PUSH1 0xFF MUL NOT AND SWAP1 DUP4 PUSH1 0x5 DUP2 GT ISZERO PUSH2 0x11E5 JUMPI PUSH2 0x11E4 PUSH2 0x2715 JUMP JUMPDEST JUMPDEST MUL OR SWAP1 SSTORE POP PUSH0 PUSH0 DUP2 SLOAD DUP1 SWAP3 SWAP2 SWAP1 PUSH2 0x11FB SWAP1 PUSH2 0x3244 JUMP JUMPDEST SWAP2 SWAP1 POP SSTORE POP PUSH0 PUSH1 0x1 PUSH0 PUSH0 SLOAD DUP2 MSTORE PUSH1 0x20 ADD SWAP1 DUP2 MSTORE PUSH1 0x20 ADD PUSH0 KECCAK256 SWAP1 POP DUP4 PUSH0 ADD PUSH0 SWAP1 SLOAD SWAP1 PUSH2 0x100 EXP SWAP1 DIV PUSH20 0xFFFFFFFFFFFFFFFFFFFFFFFFFFFFFFFFFFFFFFFF AND DUP2 PUSH0 ADD PUSH0 PUSH2 0x100 EXP DUP2 SLOAD DUP2 PUSH20 0xFFFFFFFFFFFFFFFFFFFFFFFFFFFFFFFFFFFFFFFF MUL NOT AND SWAP1 DUP4 PUSH20 0xFFFFFFFFFFFFFFFFFFFFFFFFFFFFFFFFFFFFFFFF AND MUL OR SWAP1 SSTORE POP DUP4 PUSH1 0x3 ADD SLOAD DUP2 PUSH1 0x3 ADD DUP2 SWAP1 SSTORE POP DUP4 PUSH1 0x4 ADD DUP2 PUSH1 0x4 ADD SWAP1 DUP2 PUSH2 0x1299 SWAP2 SWAP1 PUSH2 0x3476 JUMP JUMPDEST POP PUSH0 DUP2 PUSH1 0x6 ADD PUSH0 PUSH2 0x100 EXP DUP2 SLOAD DUP2 PUSH1 0xFF MUL NOT AND SWAP1 DUP4 ISZERO ISZERO MUL OR SWAP1 SSTORE POP PUSH0 DUP2 PUSH1 0x8 ADD PUSH0 PUSH2 0x100 EXP DUP2 SLOAD DUP2 PUSH1 0xFF MUL NOT AND SWAP1 DUP4 PUSH1 0x5 DUP2 GT ISZERO PUSH2 0x12DB JUMPI PUSH2 0x12DA PUSH2 0x2715 JUMP JUMPDEST JUMPDEST MUL OR SWAP1 SSTORE POP POP JUMPDEST PUSH32 0x6094CAF45C2924DA34DD706C33F09EC619587BAC9144486D8F82B0316E47E7B3 DUP6 DUP3 DUP5 LT ISZERO PUSH1 0x40 MLOAD PUSH2 0x1316 SWAP3 SWAP2 SWAP1 PUSH2 0x355B JUMP JUMPDEST PUSH1 0x40 MLOAD DUP1 SWAP2 SUB SWAP1 LOG1 POP POP POP POP POP JUMP JUMPDEST PUSH1 0x6 SLOAD DUP2 JUMP JUMPDEST PUSH0 PUSH0 DUP3 GT DUP1 ISZERO PUSH2 0x133C JUMPI POP PUSH0 SLOAD DUP3 GT ISZERO JUMPDEST PUSH2 0x137B JUMPI PUSH1 0x40 MLOAD PUSH32 0x8C379A000000000000000000000000000000000000000000000000000000000 DUP2 MSTORE PUSH1 0x4 ADD PUSH2 0x1372 SWAP1 PUSH2 0x2AA0 JUMP JUMPDEST PUSH1 0x40 MLOAD DUP1 SWAP2 SUB SWAP1 REVERT JUMPDEST PUSH0 PUSH1 0x2 PUSH0 DUP5 DUP2 MSTORE PUSH1 0x20 ADD SWAP1 DUP2 MSTORE PUSH1 0x20 ADD PUSH0 KECCAK256 PUSH1 0x1 ADD SLOAD EQ DUP1 PUSH2 0x13BE JUMPI POP TIMESTAMP PUSH1 0x6 SLOAD PUSH1 0x2 PUSH0 DUP6 DUP2 MSTORE PUSH1 0x20 ADD SWAP1 DUP2 MSTORE PUSH1 0x20 ADD PUSH0 KECCAK256 PUSH1 0x1 ADD SLOAD PUSH2 0x13BB SWAP2 SWAP1 PUSH2 0x2BE3 JUMP JUMPDEST LT ISZERO JUMPDEST ISZERO PUSH2 0x13CB JUMPI PUSH0 SWAP1 POP PUSH2 0x13FB JUMP JUMPDEST PUSH1 0x6 SLOAD PUSH1 0x2 PUSH0 DUP5 DUP2 MSTORE PUSH1 0x20 ADD SWAP1 DUP2 MSTORE PUSH1 0x20 ADD PUSH0 KECCAK256 PUSH1 0x1 ADD SLOAD PUSH2 0x13ED SWAP2 SWAP1 PUSH2 0x2BE3 JUMP JUMPDEST TIMESTAMP PUSH2 0x13F8 SWAP2 SWAP1 PUSH2 0x2AEB JUMP JUMPDEST SWAP1 POP JUMPDEST SWAP2 SWAP1 POP JUMP JUMPDEST PUSH0 DUP2 GT DUP1 ISZERO PUSH2 0x1410 JUMPI POP PUSH0 SLOAD DUP2 GT ISZERO JUMPDEST PUSH2 0x144F JUMPI PUSH1 0x40 MLOAD PUSH32 0x8C379A000000000000000000000000000000000000000000000000000000000 DUP2 MSTORE PUSH1 0x4 ADD PUSH2 0x1446 SWAP1 PUSH2 0x2AA0 JUMP JUMPDEST PUSH1 0x40 MLOAD DUP1 SWAP2 SUB SWAP1 REVERT JUMPDEST PUSH0 PUSH1 0x1 PUSH0 DUP4 DUP2 MSTORE PUSH1 0x20 ADD SWAP1 DUP2 MSTORE PUSH1 0x20 ADD PUSH0 KECCAK256 SWAP1 POP PUSH1 0x2 PUSH1 0x5 DUP2 GT ISZERO PUSH2 0x1477 JUMPI PUSH2 0x1476 PUSH2 0x2715 JUMP JUMPDEST JUMPDEST DUP2 PUSH1 0x8 ADD PUSH0 SWAP1 SLOAD SWAP1 PUSH2 0x100 EXP SWAP1 DIV PUSH1 0xFF AND PUSH1 0x5 DUP2 GT ISZERO PUSH2 0x149A JUMPI PUSH2 0x1499 PUSH2 0x2715 JUMP JUMPDEST JUMPDEST EQ PUSH2 0x14DA JUMPI PUSH1 0x40 MLOAD PUSH32 0x8C379A000000000000000000000000000000000000000000000000000000000 DUP2 MSTORE PUSH1 0x4 ADD PUSH2 0x14D1 SWAP1 PUSH2 0x35CC JUMP JUMPDEST PUSH1 0x40 MLOAD DUP1 SWAP2 SUB SWAP1 REVERT JUMPDEST DUP1 PUSH1 0x7 ADD SLOAD TIMESTAMP GT PUSH2 0x1520 JUMPI PUSH1 0x40 MLOAD PUSH32 0x8C379A000000000000000000000000000000000000000000000000000000000 DUP2 MSTORE PUSH1 0x4 ADD PUSH2 0x1517 SWAP1 PUSH2 0x3634 JUMP JUMPDEST PUSH1 0x40 MLOAD DUP1 SWAP2 SUB SWAP1 REVERT JUMPDEST PUSH0 PUSH20 0xFFFFFFFFFFFFFFFFFFFFFFFFFFFFFFFFFFFFFFFF AND DUP2 PUSH1 0x2 ADD PUSH0 SWAP1 SLOAD SWAP1 PUSH2 0x100 EXP SWAP1 DIV PUSH20 0xFFFFFFFFFFFFFFFFFFFFFFFFFFFFFFFFFFFFFFFF AND PUSH20 0xFFFFFFFFFFFFFFFFFFFFFFFFFFFFFFFFFFFFFFFF AND SUB PUSH2 0x15B1 JUMPI PUSH1 0x40 MLOAD PUSH32 0x8C379A000000000000000000000000000000000000000000000000000000000 DUP2 MSTORE PUSH1 0x4 ADD PUSH2 0x15A8 SWAP1 PUSH2 0x369C JUMP JUMPDEST PUSH1 0x40 MLOAD DUP1 SWAP2 SUB SWAP1 REVERT JUMPDEST PUSH1 0x2 PUSH0 DUP4 DUP2 MSTORE PUSH1 0x20 ADD SWAP1 DUP2 MSTORE PUSH1 0x20 ADD PUSH0 KECCAK256 PUSH0 ADD PUSH0 SWAP1 SLOAD SWAP1 PUSH2 0x100 EXP SWAP1 DIV PUSH1 0xFF AND ISZERO PUSH2 0x1611 JUMPI PUSH1 0x40 MLOAD PUSH32 0x8C379A000000000000000000000000000000000000000000000000000000000 DUP2 MSTORE PUSH1 0x4 ADD PUSH2 0x1608 SWAP1 PUSH2 0x3704 JUMP JUMPDEST PUSH1 0x40 MLOAD DUP1 SWAP2 SUB SWAP1 REVERT JUMPDEST DUP1 PUSH1 0x6 ADD PUSH0 SWAP1 SLOAD SWAP1 PUSH2 0x100 EXP SWAP1 DIV PUSH1 0xFF AND ISZERO PUSH2 0x1782 JUMPI PUSH1 0x4 DUP2 PUSH1 0x8 ADD PUSH0 PUSH2 0x100 EXP DUP2 SLOAD DUP2 PUSH1 0xFF MUL NOT AND SWAP1 DUP4 PUSH1 0x5 DUP2 GT ISZERO PUSH2 0x164E JUMPI PUSH2 0x164D PUSH2 0x2715 JUMP JUMPDEST JUMPDEST MUL OR SWAP1 SSTORE POP PUSH0 PUSH1 0x64 PUSH1 0x5A DUP4 PUSH1 0x3 ADD SLOAD PUSH2 0x1667 SWAP2 SWAP1 PUSH2 0x3722 JUMP JUMPDEST PUSH2 0x1671 SWAP2 SWAP1 PUSH2 0x3790 JUMP JUMPDEST SWAP1 POP PUSH0 PUSH1 0x64 PUSH1 0xA DUP5 PUSH1 0x3 ADD SLOAD PUSH2 0x1687 SWAP2 SWAP1 PUSH2 0x3722 JUMP JUMPDEST PUSH2 0x1691 SWAP2 SWAP1 PUSH2 0x3790 JUMP JUMPDEST SWAP1 POP DUP3 PUSH1 0x1 ADD PUSH0 SWAP1 SLOAD SWAP1 PUSH2 0x100 EXP SWAP1 DIV PUSH20 0xFFFFFFFFFFFFFFFFFFFFFFFFFFFFFFFFFFFFFFFF AND PUSH20 0xFFFFFFFFFFFFFFFFFFFFFFFFFFFFFFFFFFFFFFFF AND PUSH2 0x8FC PUSH1 0x3 SLOAD DUP5 PUSH2 0x16DE SWAP2 SWAP1 PUSH2 0x2BE3 JUMP JUMPDEST SWAP1 DUP2 ISZERO MUL SWAP1 PUSH1 0x40 MLOAD PUSH0 PUSH1 0x40 MLOAD DUP1 DUP4 SUB DUP2 DUP6 DUP9 DUP9 CALL SWAP4 POP POP POP POP ISZERO DUP1 ISZERO PUSH2 0x1706 JUMPI RETURNDATASIZE PUSH0 PUSH0 RETURNDATACOPY RETURNDATASIZE PUSH0 REVERT JUMPDEST POP DUP3 PUSH1 0x2 ADD PUSH0 SWAP1 SLOAD SWAP1 PUSH2 0x100 EXP SWAP1 DIV PUSH20 0xFFFFFFFFFFFFFFFFFFFFFFFFFFFFFFFFFFFFFFFF AND PUSH20 0xFFFFFFFFFFFFFFFFFFFFFFFFFFFFFFFFFFFFFFFF AND PUSH2 0x8FC PUSH1 0x4 SLOAD DUP4 PUSH2 0x1752 SWAP2 SWAP1 PUSH2 0x2BE3 JUMP JUMPDEST SWAP1 DUP2 ISZERO MUL SWAP1 PUSH1 0x40 MLOAD PUSH0 PUSH1 0x40 MLOAD DUP1 DUP4 SUB DUP2 DUP6 DUP9 DUP9 CALL SWAP4 POP POP POP POP ISZERO DUP1 ISZERO PUSH2 0x177A JUMPI RETURNDATASIZE PUSH0 PUSH0 RETURNDATACOPY RETURNDATASIZE PUSH0 REVERT JUMPDEST POP POP POP PUSH2 0x18EC JUMP JUMPDEST DUP1 PUSH1 0x2 ADD PUSH0 SWAP1 SLOAD SWAP1 PUSH2 0x100 EXP SWAP1 DIV PUSH20 0xFFFFFFFFFFFFFFFFFFFFFFFFFFFFFFFFFFFFFFFF AND PUSH20 0xFFFFFFFFFFFFFFFFFFFFFFFFFFFFFFFFFFFFFFFF AND PUSH2 0x8FC PUSH1 0x4 SLOAD PUSH1 0x3 SLOAD PUSH2 0x17CF SWAP2 SWAP1 PUSH2 0x2BE3 JUMP JUMPDEST SWAP1 DUP2 ISZERO MUL SWAP1 PUSH1 0x40 MLOAD PUSH0 PUSH1 0x40 MLOAD DUP1 DUP4 SUB DUP2 DUP6 DUP9 DUP9 CALL SWAP4 POP POP POP POP ISZERO DUP1 ISZERO PUSH2 0x17F7 JUMPI RETURNDATASIZE PUSH0 PUSH0 RETURNDATACOPY RETURNDATASIZE PUSH0 REVERT JUMPDEST POP PUSH0 DUP2 PUSH1 0x8 ADD PUSH0 PUSH2 0x100 EXP DUP2 SLOAD DUP2 PUSH1 0xFF MUL NOT AND SWAP1 DUP4 PUSH1 0x5 DUP2 GT ISZERO PUSH2 0x181E JUMPI PUSH2 0x181D PUSH2 0x2715 JUMP JUMPDEST JUMPDEST MUL OR SWAP1 SSTORE POP PUSH0 DUP2 PUSH1 0x1 ADD PUSH0 PUSH2 0x100 EXP DUP2 SLOAD DUP2 PUSH20 0xFFFFFFFFFFFFFFFFFFFFFFFFFFFFFFFFFFFFFFFF MUL NOT AND SWAP1 DUP4 PUSH20 0xFFFFFFFFFFFFFFFFFFFFFFFFFFFFFFFFFFFFFFFF AND MUL OR SWAP1 SSTORE POP PUSH0 DUP2 PUSH1 0x2 ADD PUSH0 PUSH2 0x100 EXP DUP2 SLOAD DUP2 PUSH20 0xFFFFFFFFFFFFFFFFFFFFFFFFFFFFFFFFFFFFFFFF MUL NOT AND SWAP1 DUP4 PUSH20 0xFFFFFFFFFFFFFFFFFFFFFFFFFFFFFFFFFFFFFFFF AND MUL OR SWAP1 SSTORE POP PUSH1 0x40 MLOAD DUP1 PUSH1 0x20 ADD PUSH1 0x40 MSTORE DUP1 PUSH0 DUP2 MSTORE POP DUP2 PUSH1 0x5 ADD SWAP1 DUP2 PUSH2 0x18C6 SWAP2 SWAP1 PUSH2 0x37C0 JUMP JUMPDEST POP PUSH0 DUP2 PUSH1 0x7 ADD DUP2 SWAP1 SSTORE POP PUSH0 DUP2 PUSH1 0x6 ADD PUSH0 PUSH2 0x100 EXP DUP2 SLOAD DUP2 PUSH1 0xFF MUL NOT AND SWAP1 DUP4 ISZERO ISZERO MUL OR SWAP1 SSTORE POP JUMPDEST PUSH32 0x9DEADA0165C5E1EAC62423DBF1DD30115314B076A9D6D3868DAF316F1CB285E9 DUP3 DUP3 PUSH1 0x6 ADD PUSH0 SWAP1 SLOAD SWAP1 PUSH2 0x100 EXP SWAP1 DIV PUSH1 0xFF AND PUSH1 0x40 MLOAD PUSH2 0x192D SWAP3 SWAP2 SWAP1 PUSH2 0x355B JUMP JUMPDEST PUSH1 0x40 MLOAD DUP1 SWAP2 SUB SWAP1 LOG1 POP POP JUMP JUMPDEST PUSH0 DUP3 GT DUP1 ISZERO PUSH2 0x1949 JUMPI POP PUSH0 SLOAD DUP3 GT ISZERO JUMPDEST PUSH2 0x1988 JUMPI PUSH1 0x40 MLOAD PUSH32 0x8C379A000000000000000000000000000000000000000000000000000000000 DUP2 MSTORE PUSH1 0x4 ADD PUSH2 0x197F SWAP1 PUSH2 0x2AA0 JUMP JUMPDEST PUSH1 0x40 MLOAD DUP1 SWAP2 SUB SWAP1 REVERT JUMPDEST PUSH0 PUSH1 0x1 PUSH0 DUP5 DUP2 MSTORE PUSH1 0x20 ADD SWAP1 DUP2 MSTORE PUSH1 0x20 ADD PUSH0 KECCAK256 SWAP1 POP PUSH1 0x1 PUSH1 0x5 DUP2 GT ISZERO PUSH2 0x19B0 JUMPI PUSH2 0x19AF PUSH2 0x2715 JUMP JUMPDEST JUMPDEST DUP2 PUSH1 0x8 ADD PUSH0 SWAP1 SLOAD SWAP1 PUSH2 0x100 EXP SWAP1 DIV PUSH1 0xFF AND PUSH1 0x5 DUP2 GT ISZERO PUSH2 0x19D3 JUMPI PUSH2 0x19D2 PUSH2 0x2715 JUMP JUMPDEST JUMPDEST EQ PUSH2 0x1A13 JUMPI PUSH1 0x40 MLOAD PUSH32 0x8C379A000000000000000000000000000000000000000000000000000000000 DUP2 MSTORE PUSH1 0x4 ADD PUSH2 0x1A0A SWAP1 PUSH2 0x38D9 JUMP JUMPDEST PUSH1 0x40 MLOAD DUP1 SWAP2 SUB SWAP1 REVERT JUMPDEST PUSH1 0x4 SLOAD CALLVALUE EQ PUSH2 0x1A57 JUMPI PUSH1 0x40 MLOAD PUSH32 0x8C379A000000000000000000000000000000000000000000000000000000000 DUP2 MSTORE PUSH1 0x4 ADD PUSH2 0x1A4E SWAP1 PUSH2 0x3941 JUMP JUMPDEST PUSH1 0x40 MLOAD DUP1 SWAP2 SUB SWAP1 REVERT JUMPDEST PUSH0 PUSH20 0xFFFFFFFFFFFFFFFFFFFFFFFFFFFFFFFFFFFFFFFF AND DUP2 PUSH1 0x2 ADD PUSH0 SWAP1 SLOAD SWAP1 PUSH2 0x100 EXP SWAP1 DIV PUSH20 0xFFFFFFFFFFFFFFFFFFFFFFFFFFFFFFFFFFFFFFFF AND PUSH20 0xFFFFFFFFFFFFFFFFFFFFFFFFFFFFFFFFFFFFFFFF AND EQ PUSH2 0x1AE8 JUMPI PUSH1 0x40 MLOAD PUSH32 0x8C379A000000000000000000000000000000000000000000000000000000000 DUP2 MSTORE PUSH1 0x4 ADD PUSH2 0x1ADF SWAP1 PUSH2 0x39A9 JUMP JUMPDEST PUSH1 0x40 MLOAD DUP1 SWAP2 SUB SWAP1 REVERT JUMPDEST CALLER DUP2 PUSH1 0x2 ADD PUSH0 PUSH2 0x100 EXP DUP2 SLOAD DUP2 PUSH20 0xFFFFFFFFFFFFFFFFFFFFFFFFFFFFFFFFFFFFFFFF MUL NOT AND SWAP1 DUP4 PUSH20 0xFFFFFFFFFFFFFFFFFFFFFFFFFFFFFFFFFFFFFFFF AND MUL OR SWAP1 SSTORE POP DUP2 DUP2 PUSH1 0x6 ADD PUSH0 PUSH2 0x100 EXP DUP2 SLOAD DUP2 PUSH1 0xFF MUL NOT AND SWAP1 DUP4 ISZERO ISZERO MUL OR SWAP1 SSTORE POP PUSH1 0x3C TIMESTAMP PUSH2 0x1B52 SWAP2 SWAP1 PUSH2 0x2BE3 JUMP JUMPDEST DUP2 PUSH1 0x7 ADD DUP2 SWAP1 SSTORE POP PUSH1 0x2 DUP2 PUSH1 0x8 ADD PUSH0 PUSH2 0x100 EXP DUP2 SLOAD DUP2 PUSH1 0xFF MUL NOT AND SWAP1 DUP4 PUSH1 0x5 DUP2 GT ISZERO PUSH2 0x1B81 JUMPI PUSH2 0x1B80 PUSH2 0x2715 JUMP JUMPDEST JUMPDEST MUL OR SWAP1 SSTORE POP PUSH32 0x28F0202DCB9C68CB7B1C95A88074DAA5DE2F0F8F6E1C69D9D509140A3228871B DUP4 CALLER DUP5 PUSH1 0x40 MLOAD PUSH2 0x1BB9 SWAP4 SWAP3 SWAP2 SWAP1 PUSH2 0x39C7 JUMP JUMPDEST PUSH1 0x40 MLOAD DUP1 SWAP2 SUB SWAP1 LOG1 POP POP POP JUMP JUMPDEST PUSH0 PUSH0 SLOAD SWAP1 POP SWAP1 JUMP JUMPDEST PUSH0 CALLVALUE GT PUSH2 0x1C10 JUMPI PUSH1 0x40 MLOAD PUSH32 0x8C379A000000000000000000000000000000000000000000000000000000000 DUP2 MSTORE PUSH1 0x4 ADD PUSH2 0x1C07 SWAP1 PUSH2 0x3A46 JUMP JUMPDEST PUSH1 0x40 MLOAD DUP1 SWAP2 SUB SWAP1 REVERT JUMPDEST PUSH0 PUSH0 DUP2 SLOAD DUP1 SWAP3 SWAP2 SWAP1 PUSH2 0x1C21 SWAP1 PUSH2 0x3244 JUMP JUMPDEST SWAP2 SWAP1 POP SSTORE POP PUSH0 PUSH1 0x1 PUSH0 PUSH0 SLOAD DUP2 MSTORE PUSH1 0x20 ADD SWAP1 DUP2 MSTORE PUSH1 0x20 ADD PUSH0 KECCAK256 SWAP1 POP CALLER DUP2 PUSH0 ADD PUSH0 PUSH2 0x100 EXP DUP2 SLOAD DUP2 PUSH20 0xFFFFFFFFFFFFFFFFFFFFFFFFFFFFFFFFFFFFFFFF MUL NOT AND SWAP1 DUP4 PUSH20 0xFFFFFFFFFFFFFFFFFFFFFFFFFFFFFFFFFFFFFFFF AND MUL OR SWAP1 SSTORE POP CALLVALUE DUP2 PUSH1 0x3 ADD DUP2 SWAP1 SSTORE POP DUP3 DUP3 DUP3 PUSH1 0x4 ADD SWAP2 DUP3 PUSH2 0x1C98 SWAP3 SWAP2 SWAP1 PUSH2 0x3A6E JUMP JUMPDEST POP PUSH0 DUP2 PUSH1 0x6 ADD PUSH0 PUSH2 0x100 EXP DUP2 SLOAD DUP2 PUSH1 0xFF MUL NOT AND SWAP1 DUP4 ISZERO ISZERO MUL OR SWAP1 SSTORE POP PUSH0 DUP2 PUSH1 0x8 ADD PUSH0 PUSH2 0x100 EXP DUP2 SLOAD DUP2 PUSH1 0xFF MUL NOT AND SWAP1 DUP4 PUSH1 0x5 DUP2 GT ISZERO PUSH2 0x1CDA JUMPI PUSH2 0x1CD9 PUSH2 0x2715 JUMP JUMPDEST JUMPDEST MUL OR SWAP1 SSTORE POP PUSH32 0x5FDDF931B4D1E3B95F2B6FB12AB475FE9555CE60FD2BFE66B84060F2DC22A2E PUSH0 SLOAD CALLER CALLVALUE DUP7 DUP7 PUSH1 0x40 MLOAD PUSH2 0x1D17 SWAP6 SWAP5 SWAP4 SWAP3 SWAP2 SWAP1 PUSH2 0x3B75 JUMP JUMPDEST PUSH1 0x40 MLOAD DUP1 SWAP2 SUB SWAP1 LOG1 POP POP POP JUMP JUMPDEST PUSH0 DUP4 GT DUP1 ISZERO PUSH2 0x1D34 JUMPI POP PUSH0 SLOAD DUP4 GT ISZERO JUMPDEST PUSH2 0x1D73 JUMPI PUSH1 0x40 MLOAD PUSH32 0x8C379A000000000000000000000000000000000000000000000000000000000 DUP2 MSTORE PUSH1 0x4 ADD PUSH2 0x1D6A SWAP1 PUSH2 0x2AA0 JUMP JUMPDEST PUSH1 0x40 MLOAD DUP1 SWAP2 SUB SWAP1 REVERT JUMPDEST PUSH0 PUSH1 0x1 PUSH0 DUP6 DUP2 MSTORE PUSH1 0x20 ADD SWAP1 DUP2 MSTORE PUSH1 0x20 ADD PUSH0 KECCAK256 SWAP1 POP PUSH0 PUSH1 0x5 DUP2 GT ISZERO PUSH2 0x1D9A JUMPI PUSH2 0x1D99 PUSH2 0x2715 JUMP JUMPDEST JUMPDEST DUP2 PUSH1 0x8 ADD PUSH0 SWAP1 SLOAD SWAP1 PUSH2 0x100 EXP SWAP1 DIV PUSH1 0xFF AND PUSH1 0x5 DUP2 GT ISZERO PUSH2 0x1DBD JUMPI PUSH2 0x1DBC PUSH2 0x2715 JUMP JUMPDEST JUMPDEST EQ PUSH2 0x1DFD JUMPI PUSH1 0x40 MLOAD PUSH32 0x8C379A000000000000000000000000000000000000000000000000000000000 DUP2 MSTORE PUSH1 0x4 ADD PUSH2 0x1DF4 SWAP1 PUSH2 0x3C0B JUMP JUMPDEST PUSH1 0x40 MLOAD DUP1 SWAP2 SUB SWAP1 REVERT JUMPDEST PUSH1 0x3 SLOAD CALLVALUE EQ PUSH2 0x1E41 JUMPI PUSH1 0x40 MLOAD PUSH32 0x8C379A000000000000000000000000000000000000000000000000000000000 DUP2 MSTORE PUSH1 0x4 ADD PUSH2 0x1E38 SWAP1 PUSH2 0x3941 JUMP JUMPDEST PUSH1 0x40 MLOAD DUP1 SWAP2 SUB SWAP1 REVERT JUMPDEST PUSH0 PUSH20 0xFFFFFFFFFFFFFFFFFFFFFFFFFFFFFFFFFFFFFFFF AND DUP2 PUSH1 0x1 ADD PUSH0 SWAP1 SLOAD SWAP1 PUSH2 0x100 EXP SWAP1 DIV PUSH20 0xFFFFFFFFFFFFFFFFFFFFFFFFFFFFFFFFFFFFFFFF AND PUSH20 0xFFFFFFFFFFFFFFFFFFFFFFFFFFFFFFFFFFFFFFFF AND EQ PUSH2 0x1ED2 JUMPI PUSH1 0x40 MLOAD PUSH32 0x8C379A000000000000000000000000000000000000000000000000000000000 DUP2 MSTORE PUSH1 0x4 ADD PUSH2 0x1EC9 SWAP1 PUSH2 0x3C99 JUMP JUMPDEST PUSH1 0x40 MLOAD DUP1 SWAP2 SUB SWAP1 REVERT JUMPDEST DUP3 DUP3 DUP3 PUSH1 0x5 ADD SWAP2 DUP3 PUSH2 0x1EE5 SWAP3 SWAP2 SWAP1 PUSH2 0x3A6E JUMP JUMPDEST POP CALLER DUP2 PUSH1 0x1 ADD PUSH0 PUSH2 0x100 EXP DUP2 SLOAD DUP2 PUSH20 0xFFFFFFFFFFFFFFFFFFFFFFFFFFFFFFFFFFFFFFFF MUL NOT AND SWAP1 DUP4 PUSH20 0xFFFFFFFFFFFFFFFFFFFFFFFFFFFFFFFFFFFFFFFF AND MUL OR SWAP1 SSTORE POP PUSH1 0x1 DUP2 PUSH1 0x8 ADD PUSH0 PUSH2 0x100 EXP DUP2 SLOAD DUP2 PUSH1 0xFF MUL NOT AND SWAP1 DUP4 PUSH1 0x5 DUP2 GT ISZERO PUSH2 0x1F4F JUMPI PUSH2 0x1F4E PUSH2 0x2715 JUMP JUMPDEST JUMPDEST MUL OR SWAP1 SSTORE POP PUSH32 0xA90AE9720245855CD0178118B70CC1EE497003D06D996EE5C304A19E5B25D915 DUP5 CALLER DUP6 DUP6 PUSH1 0x40 MLOAD PUSH2 0x1F89 SWAP5 SWAP4 SWAP3 SWAP2 SWAP1 PUSH2 0x3CB7 JUMP JUMPDEST PUSH1 0x40 MLOAD DUP1 SWAP2 SUB SWAP1 LOG1 POP POP POP POP JUMP JUMPDEST PUSH1 0x7 PUSH0 SWAP1 SLOAD SWAP1 PUSH2 0x100 EXP SWAP1 DIV PUSH20 0xFFFFFFFFFFFFFFFFFFFFFFFFFFFFFFFFFFFFFFFF AND DUP2 JUMP JUMPDEST PUSH0 PUSH1 0x2 PUSH0 DUP5 DUP2 MSTORE PUSH1 0x20 ADD SWAP1 DUP2 MSTORE PUSH1 0x20 ADD PUSH0 KECCAK256 SWAP1 POP PUSH0 PUSH1 0x1 PUSH0 DUP6 DUP2 MSTORE PUSH1 0x20 ADD SWAP1 DUP2 MSTORE PUSH1 0x20 ADD PUSH0 KECCAK256 SWAP1 POP PUSH0 PUSH0 PUSH1 0x64 PUSH1 0x28 PUSH1 0x4 SLOAD PUSH2 0x1FF7 SWAP2 SWAP1 PUSH2 0x3722 JUMP JUMPDEST PUSH2 0x2001 SWAP2 SWAP1 PUSH2 0x3790 JUMP JUMPDEST SWAP1 POP DUP3 PUSH1 0x6 ADD PUSH0 SWAP1 SLOAD SWAP1 PUSH2 0x100 EXP SWAP1 DIV PUSH1 0xFF AND ISZERO ISZERO DUP6 ISZERO ISZERO SUB PUSH2 0x2026 JUMPI PUSH0 SWAP2 POP PUSH2 0x20AB JUMP JUMPDEST PUSH1 0x64 PUSH1 0x32 PUSH1 0x4 SLOAD PUSH2 0x2037 SWAP2 SWAP1 PUSH2 0x3722 JUMP JUMPDEST PUSH2 0x2041 SWAP2 SWAP1 PUSH2 0x3790 JUMP JUMPDEST SWAP2 POP DUP4 PUSH0 ADD PUSH1 0x1 SWAP1 SLOAD SWAP1 PUSH2 0x100 EXP SWAP1 DIV PUSH20 0xFFFFFFFFFFFFFFFFFFFFFFFFFFFFFFFFFFFFFFFF AND PUSH20 0xFFFFFFFFFFFFFFFFFFFFFFFFFFFFFFFFFFFFFFFF AND PUSH2 0x8FC DUP4 SWAP1 DUP2 ISZERO MUL SWAP1 PUSH1 0x40 MLOAD PUSH0 PUSH1 0x40 MLOAD DUP1 DUP4 SUB DUP2 DUP6 DUP9 DUP9 CALL SWAP4 POP POP POP POP ISZERO DUP1 ISZERO PUSH2 0x20A9 JUMPI RETURNDATASIZE PUSH0 PUSH0 RETURNDATACOPY RETURNDATASIZE PUSH0 REVERT JUMPDEST POP JUMPDEST PUSH0 DUP2 DUP4 PUSH1 0x4 SLOAD PUSH2 0x20BB SWAP2 SWAP1 PUSH2 0x2AEB JUMP JUMPDEST PUSH2 0x20C5 SWAP2 SWAP1 PUSH2 0x2AEB JUMP JUMPDEST SWAP1 POP DUP6 PUSH2 0x2162 JUMPI DUP4 PUSH1 0x6 ADD PUSH0 SWAP1 SLOAD SWAP1 PUSH2 0x100 EXP SWAP1 DIV PUSH1 0xFF AND ISZERO PUSH2 0x20F7 JUMPI PUSH1 0x3 SLOAD DUP2 PUSH2 0x20F0 SWAP2 SWAP1 PUSH2 0x2BE3 JUMP JUMPDEST SWAP1 POP PUSH2 0x2161 JUMP JUMPDEST DUP4 PUSH1 0x2 ADD PUSH0 SWAP1 SLOAD SWAP1 PUSH2 0x100 EXP SWAP1 DIV PUSH20 0xFFFFFFFFFFFFFFFFFFFFFFFFFFFFFFFFFFFFFFFF AND PUSH20 0xFFFFFFFFFFFFFFFFFFFFFFFFFFFFFFFFFFFFFFFF AND PUSH2 0x8FC PUSH1 0x3 SLOAD SWAP1 DUP2 ISZERO MUL SWAP1 PUSH1 0x40 MLOAD PUSH0 PUSH1 0x40 MLOAD DUP1 DUP4 SUB DUP2 DUP6 DUP9 DUP9 CALL SWAP4 POP POP POP POP ISZERO DUP1 ISZERO PUSH2 0x215F JUMPI RETURNDATASIZE PUSH0 PUSH0 RETURNDATACOPY RETURNDATASIZE PUSH0 REVERT JUMPDEST POP JUMPDEST JUMPDEST PUSH0 DUP7 PUSH2 0x2172 JUMPI DUP6 PUSH1 0x3 ADD SLOAD PUSH2 0x2178 JUMP JUMPDEST DUP6 PUSH1 0x2 ADD SLOAD JUMPDEST SWAP1 POP PUSH0 DUP2 SUB PUSH2 0x219A JUMPI DUP3 DUP3 PUSH2 0x218D SWAP2 SWAP1 PUSH2 0x2BE3 JUMP JUMPDEST SWAP2 POP POP POP POP POP POP POP PUSH2 0x236D JUMP JUMPDEST PUSH0 PUSH0 SWAP1 POP JUMPDEST DUP7 PUSH1 0x9 ADD DUP1 SLOAD SWAP1 POP DUP2 LT ISZERO PUSH2 0x2365 JUMPI PUSH0 DUP8 PUSH1 0x9 ADD DUP3 DUP2 SLOAD DUP2 LT PUSH2 0x21C5 JUMPI PUSH2 0x21C4 PUSH2 0x31F0 JUMP JUMPDEST JUMPDEST SWAP1 PUSH0 MSTORE PUSH1 0x20 PUSH0 KECCAK256 ADD PUSH0 SWAP1 SLOAD SWAP1 PUSH2 0x100 EXP SWAP1 DIV PUSH20 0xFFFFFFFFFFFFFFFFFFFFFFFFFFFFFFFFFFFFFFFF AND SWAP1 POP DUP8 PUSH1 0x6 ADD PUSH0 DUP3 PUSH20 0xFFFFFFFFFFFFFFFFFFFFFFFFFFFFFFFFFFFFFFFF AND PUSH20 0xFFFFFFFFFFFFFFFFFFFFFFFFFFFFFFFFFFFFFFFF AND DUP2 MSTORE PUSH1 0x20 ADD SWAP1 DUP2 MSTORE PUSH1 0x20 ADD PUSH0 KECCAK256 PUSH0 SWAP1 SLOAD SWAP1 PUSH2 0x100 EXP SWAP1 DIV PUSH1 0xFF AND ISZERO PUSH2 0x2357 JUMPI PUSH0 DUP9 PUSH1 0x7 ADD PUSH0 DUP4 PUSH20 0xFFFFFFFFFFFFFFFFFFFFFFFFFFFFFFFFFFFFFFFF AND PUSH20 0xFFFFFFFFFFFFFFFFFFFFFFFFFFFFFFFFFFFFFFFF AND DUP2 MSTORE PUSH1 0x20 ADD SWAP1 DUP2 MSTORE PUSH1 0x20 ADD PUSH0 KECCAK256 SLOAD SWAP1 POP PUSH0 DUP10 PUSH1 0x8 ADD PUSH0 DUP5 PUSH20 0xFFFFFFFFFFFFFFFFFFFFFFFFFFFFFFFFFFFFFFFF AND PUSH20 0xFFFFFFFFFFFFFFFFFFFFFFFFFFFFFFFFFFFFFFFF AND DUP2 MSTORE PUSH1 0x20 ADD SWAP1 DUP2 MSTORE PUSH1 0x20 ADD PUSH0 KECCAK256 PUSH0 SWAP1 SLOAD SWAP1 PUSH2 0x100 EXP SWAP1 DIV PUSH1 0xFF AND SWAP1 POP DUP11 DUP1 ISZERO PUSH2 0x22DC JUMPI POP DUP1 JUMPDEST DUP1 PUSH2 0x22EF JUMPI POP DUP11 ISZERO DUP1 ISZERO PUSH2 0x22EE JUMPI POP DUP1 ISZERO JUMPDEST JUMPDEST ISZERO PUSH2 0x2354 JUMPI PUSH0 DUP6 DUP9 DUP5 PUSH2 0x2302 SWAP2 SWAP1 PUSH2 0x3722 JUMP JUMPDEST PUSH2 0x230C SWAP2 SWAP1 PUSH2 0x3790 JUMP JUMPDEST SWAP1 POP DUP4 PUSH20 0xFFFFFFFFFFFFFFFFFFFFFFFFFFFFFFFFFFFFFFFF AND PUSH2 0x8FC DUP3 SWAP1 DUP2 ISZERO MUL SWAP1 PUSH1 0x40 MLOAD PUSH0 PUSH1 0x40 MLOAD DUP1 DUP4 SUB DUP2 DUP6 DUP9 DUP9 CALL SWAP4 POP POP POP POP ISZERO DUP1 ISZERO PUSH2 0x2351 JUMPI RETURNDATASIZE PUSH0 PUSH0 RETURNDATACOPY RETURNDATASIZE PUSH0 REVERT JUMPDEST POP POP JUMPDEST POP POP JUMPDEST POP DUP1 DUP1 PUSH1 0x1 ADD SWAP2 POP POP PUSH2 0x219F JUMP JUMPDEST POP POP POP POP POP POP POP JUMPDEST POP POP JUMP JUMPDEST PUSH0 PUSH1 0x1 PUSH0 DUP4 DUP2 MSTORE PUSH1 0x20 ADD SWAP1 DUP2 MSTORE PUSH1 0x20 ADD PUSH0 KECCAK256 SWAP1 POP PUSH0 PUSH1 0x2 PUSH0 DUP5 DUP2 MSTORE PUSH1 0x20 ADD SWAP1 DUP2 MSTORE PUSH1 0x20 ADD PUSH0 KECCAK256 SWAP1 POP PUSH1 0x4 DUP3 PUSH1 0x8 ADD PUSH0 PUSH2 0x100 EXP DUP2 SLOAD DUP2 PUSH1 0xFF MUL NOT AND SWAP1 DUP4 PUSH1 0x5 DUP2 GT ISZERO PUSH2 0x23C0 JUMPI PUSH2 0x23BF PUSH2 0x2715 JUMP JUMPDEST JUMPDEST MUL OR SWAP1 SSTORE POP PUSH0 PUSH1 0x64 PUSH1 0x5A DUP5 PUSH1 0x3 ADD SLOAD PUSH2 0x23D9 SWAP2 SWAP1 PUSH2 0x3722 JUMP JUMPDEST PUSH2 0x23E3 SWAP2 SWAP1 PUSH2 0x3790 JUMP JUMPDEST SWAP1 POP PUSH0 PUSH1 0x64 PUSH1 0xA DUP6 PUSH1 0x3 ADD SLOAD PUSH2 0x23F9 SWAP2 SWAP1 PUSH2 0x3722 JUMP JUMPDEST PUSH2 0x2403 SWAP2 SWAP1 PUSH2 0x3790 JUMP JUMPDEST SWAP1 POP DUP4 PUSH1 0x1 ADD PUSH0 SWAP1 SLOAD SWAP1 PUSH2 0x100 EXP SWAP1 DIV PUSH20 0xFFFFFFFFFFFFFFFFFFFFFFFFFFFFFFFFFFFFFFFF AND PUSH20 0xFFFFFFFFFFFFFFFFFFFFFFFFFFFFFFFFFFFFFFFF AND PUSH2 0x8FC PUSH1 0x3 SLOAD DUP5 PUSH2 0x2450 SWAP2 SWAP1 PUSH2 0x2BE3 JUMP JUMPDEST SWAP1 DUP2 ISZERO MUL SWAP1 PUSH1 0x40 MLOAD PUSH0 PUSH1 0x40 MLOAD DUP1 DUP4 SUB DUP2 DUP6 DUP9 DUP9 CALL SWAP4 POP POP POP POP ISZERO DUP1 ISZERO PUSH2 0x2478 JUMPI RETURNDATASIZE PUSH0 PUSH0 RETURNDATACOPY RETURNDATASIZE PUSH0 REVERT JUMPDEST POP DUP4 PUSH1 0x6 ADD PUSH0 SWAP1 SLOAD SWAP1 PUSH2 0x100 EXP SWAP1 DIV PUSH1 0xFF AND ISZERO PUSH2 0x2508 JUMPI DUP4 PUSH1 0x2 ADD PUSH0 SWAP1 SLOAD SWAP1 PUSH2 0x100 EXP SWAP1 DIV PUSH20 0xFFFFFFFFFFFFFFFFFFFFFFFFFFFFFFFFFFFFFFFF AND PUSH20 0xFFFFFFFFFFFFFFFFFFFFFFFFFFFFFFFFFFFFFFFF AND PUSH2 0x8FC PUSH1 0x4 SLOAD DUP4 PUSH2 0x24DA SWAP2 SWAP1 PUSH2 0x2BE3 JUMP JUMPDEST SWAP1 DUP2 ISZERO MUL SWAP1 PUSH1 0x40 MLOAD PUSH0 PUSH1 0x40 MLOAD DUP1 DUP4 SUB DUP2 DUP6 DUP9 DUP9 CALL SWAP4 POP POP POP POP ISZERO DUP1 ISZERO PUSH2 0x2502 JUMPI RETURNDATASIZE PUSH0 PUSH0 RETURNDATACOPY RETURNDATASIZE PUSH0 REVERT JUMPDEST POP PUSH2 0x257D JUMP JUMPDEST DUP3 PUSH0 ADD PUSH1 0x1 SWAP1 SLOAD SWAP1 PUSH2 0x100 EXP SWAP1 DIV PUSH20 0xFFFFFFFFFFFFFFFFFFFFFFFFFFFFFFFFFFFFFFFF AND PUSH20 0xFFFFFFFFFFFFFFFFFFFFFFFFFFFFFFFFFFFFFFFF AND PUSH2 0x8FC PUSH1 0x4 SLOAD DUP4 PUSH2 0x2553 SWAP2 SWAP1 PUSH2 0x2BE3 JUMP JUMPDEST SWAP1 DUP2 ISZERO MUL SWAP1 PUSH1 0x40 MLOAD PUSH0 PUSH1 0x40 MLOAD DUP1 DUP4 SUB DUP2 DUP6 DUP9 DUP9 CALL SWAP4 POP POP POP POP ISZERO DUP1 ISZERO PUSH2 0x257B JUMPI RETURNDATASIZE PUSH0 PUSH0 RETURNDATACOPY RETURNDATASIZE PUSH0 REVERT JUMPDEST POP JUMPDEST PUSH32 0x9DEADA0165C5E1EAC62423DBF1DD30115314B076A9D6D3868DAF316F1CB285E9 DUP6 PUSH1 0x1 PUSH1 0x40 MLOAD PUSH2 0x25AF SWAP3 SWAP2 SWAP1 PUSH2 0x355B JUMP JUMPDEST PUSH1 0x40 MLOAD DUP1 SWAP2 SUB SWAP1 LOG1 POP POP POP POP POP JUMP JUMPDEST PUSH0 PUSH0 REVERT JUMPDEST PUSH0 PUSH0 REVERT JUMPDEST PUSH0 DUP2 SWAP1 POP SWAP2 SWAP1 POP JUMP JUMPDEST PUSH2 0x25D8 DUP2 PUSH2 0x25C6 JUMP JUMPDEST DUP2 EQ PUSH2 0x25E2 JUMPI PUSH0 PUSH0 REVERT JUMPDEST POP JUMP JUMPDEST PUSH0 DUP2 CALLDATALOAD SWAP1 POP PUSH2 0x25F3 DUP2 PUSH2 0x25CF JUMP JUMPDEST SWAP3 SWAP2 POP POP JUMP JUMPDEST PUSH0 PUSH1 0x20 DUP3 DUP5 SUB SLT ISZERO PUSH2 0x260E JUMPI PUSH2 0x260D PUSH2 0x25BE JUMP JUMPDEST JUMPDEST PUSH0 PUSH2 0x261B DUP5 DUP3 DUP6 ADD PUSH2 0x25E5 JUMP JUMPDEST SWAP2 POP POP SWAP3 SWAP2 POP POP JUMP JUMPDEST PUSH2 0x262D DUP2 PUSH2 0x25C6 JUMP JUMPDEST DUP3 MSTORE POP POP JUMP JUMPDEST PUSH0 PUSH1 0x20 DUP3 ADD SWAP1 POP PUSH2 0x2646 PUSH0 DUP4 ADD DUP5 PUSH2 0x2624 JUMP JUMPDEST SWAP3 SWAP2 POP POP JUMP JUMPDEST PUSH0 PUSH20 0xFFFFFFFFFFFFFFFFFFFFFFFFFFFFFFFFFFFFFFFF DUP3 AND SWAP1 POP SWAP2 SWAP1 POP JUMP JUMPDEST PUSH0 PUSH2 0x2675 DUP3 PUSH2 0x264C JUMP JUMPDEST SWAP1 POP SWAP2 SWAP1 POP JUMP JUMPDEST PUSH2 0x2685 DUP2 PUSH2 0x266B JUMP JUMPDEST DUP3 MSTORE POP POP JUMP JUMPDEST PUSH0 DUP2 MLOAD SWAP1 POP SWAP2 SWAP1 POP JUMP JUMPDEST PUSH0 DUP3 DUP3 MSTORE PUSH1 0x20 DUP3 ADD SWAP1 POP SWAP3 SWAP2 POP POP JUMP JUMPDEST DUP3 DUP2 DUP4 MCOPY PUSH0 DUP4 DUP4 ADD MSTORE POP POP POP JUMP JUMPDEST PUSH0 PUSH1 0x1F NOT PUSH1 0x1F DUP4 ADD AND SWAP1 POP SWAP2 SWAP1 POP JUMP JUMPDEST PUSH0 PUSH2 0x26CD DUP3 PUSH2 0x268B JUMP JUMPDEST PUSH2 0x26D7 DUP2 DUP6 PUSH2 0x2695 JUMP JUMPDEST SWAP4 POP PUSH2 0x26E7 DUP2 DUP6 PUSH1 0x20 DUP7 ADD PUSH2 0x26A5 JUMP JUMPDEST PUSH2 0x26F0 DUP2 PUSH2 0x26B3 JUMP JUMPDEST DUP5 ADD SWAP2 POP POP SWAP3 SWAP2 POP POP JUMP JUMPDEST PUSH0 DUP2 ISZERO ISZERO SWAP1 POP SWAP2 SWAP1 POP JUMP JUMPDEST PUSH2 0x270F DUP2 PUSH2 0x26FB JUMP JUMPDEST DUP3 MSTORE POP POP JUMP JUMPDEST PUSH32 0x4E487B7100000000000000000000000000000000000000000000000000000000 PUSH0 MSTORE PUSH1 0x21 PUSH1 0x4 MSTORE PUSH1 0x24 PUSH0 REVERT JUMPDEST PUSH1 0x6 DUP2 LT PUSH2 0x2753 JUMPI PUSH2 0x2752 PUSH2 0x2715 JUMP JUMPDEST JUMPDEST POP JUMP JUMPDEST PUSH0 DUP2 SWAP1 POP PUSH2 0x2763 DUP3 PUSH2 0x2742 JUMP JUMPDEST SWAP2 SWAP1 POP JUMP JUMPDEST PUSH0 PUSH2 0x2772 DUP3 PUSH2 0x2756 JUMP JUMPDEST SWAP1 POP SWAP2 SWAP1 POP JUMP JUMPDEST PUSH2 0x2782 DUP2 PUSH2 0x2768 JUMP JUMPDEST DUP3 MSTORE POP POP JUMP JUMPDEST PUSH0 PUSH2 0x120 DUP3 ADD SWAP1 POP PUSH2 0x279C PUSH0 DUP4 ADD DUP13 PUSH2 0x267C JUMP JUMPDEST PUSH2 0x27A9 PUSH1 0x20 DUP4 ADD DUP12 PUSH2 0x267C JUMP JUMPDEST PUSH2 0x27B6 PUSH1 0x40 DUP4 ADD DUP11 PUSH2 0x267C JUMP JUMPDEST PUSH2 0x27C3 PUSH1 0x60 DUP4 ADD DUP10 PUSH2 0x2624 JUMP JUMPDEST DUP2 DUP2 SUB PUSH1 0x80 DUP4 ADD MSTORE PUSH2 0x27D5 DUP2 DUP9 PUSH2 0x26C3 JUMP JUMPDEST SWAP1 POP DUP2 DUP2 SUB PUSH1 0xA0 DUP4 ADD MSTORE PUSH2 0x27E9 DUP2 DUP8 PUSH2 0x26C3 JUMP JUMPDEST SWAP1 POP PUSH2 0x27F8 PUSH1 0xC0 DUP4 ADD DUP7 PUSH2 0x2706 JUMP JUMPDEST PUSH2 0x2805 PUSH1 0xE0 DUP4 ADD DUP6 PUSH2 0x2624 JUMP JUMPDEST PUSH2 0x2813 PUSH2 0x100 DUP4 ADD DUP5 PUSH2 0x2779 JUMP JUMPDEST SWAP11 SWAP10 POP POP POP POP POP POP POP POP POP POP JUMP JUMPDEST PUSH2 0x282A DUP2 PUSH2 0x26FB JUMP JUMPDEST DUP2 EQ PUSH2 0x2834 JUMPI PUSH0 PUSH0 REVERT JUMPDEST POP JUMP JUMPDEST PUSH0 DUP2 CALLDATALOAD SWAP1 POP PUSH2 0x2845 DUP2 PUSH2 0x2821 JUMP JUMPDEST SWAP3 SWAP2 POP POP JUMP JUMPDEST PUSH0 PUSH0 PUSH0 PUSH1 0x60 DUP5 DUP7 SUB SLT ISZERO PUSH2 0x2862 JUMPI PUSH2 0x2861 PUSH2 0x25BE JUMP JUMPDEST JUMPDEST PUSH0 PUSH2 0x286F DUP7 DUP3 DUP8 ADD PUSH2 0x25E5 JUMP JUMPDEST SWAP4 POP POP PUSH1 0x20 PUSH2 0x2880 DUP7 DUP3 DUP8 ADD PUSH2 0x25E5 JUMP JUMPDEST SWAP3 POP POP PUSH1 0x40 PUSH2 0x2891 DUP7 DUP3 DUP8 ADD PUSH2 0x2837 JUMP JUMPDEST SWAP2 POP POP SWAP3 POP SWAP3 POP SWAP3 JUMP JUMPDEST PUSH0 PUSH0 PUSH1 0x40 DUP4 DUP6 SUB SLT ISZERO PUSH2 0x28B1 JUMPI PUSH2 0x28B0 PUSH2 0x25BE JUMP JUMPDEST JUMPDEST PUSH0 PUSH2 0x28BE DUP6 DUP3 DUP7 ADD PUSH2 0x25E5 JUMP JUMPDEST SWAP3 POP POP PUSH1 0x20 PUSH2 0x28CF DUP6 DUP3 DUP7 ADD PUSH2 0x2837 JUMP JUMPDEST SWAP2 POP POP SWAP3 POP SWAP3 SWAP1 POP JUMP JUMPDEST PUSH0 PUSH0 REVERT JUMPDEST PUSH0 PUSH0 REVERT JUMPDEST PUSH0 PUSH0 REVERT JUMPDEST PUSH0 PUSH0 DUP4 PUSH1 0x1F DUP5 ADD SLT PUSH2 0x28FA JUMPI PUSH2 0x28F9 PUSH2 0x28D9 JUMP JUMPDEST JUMPDEST DUP3 CALLDATALOAD SWAP1 POP PUSH8 0xFFFFFFFFFFFFFFFF DUP2 GT ISZERO PUSH2 0x2917 JUMPI PUSH2 0x2916 PUSH2 0x28DD JUMP JUMPDEST JUMPDEST PUSH1 0x20 DUP4 ADD SWAP2 POP DUP4 PUSH1 0x1 DUP3 MUL DUP4 ADD GT ISZERO PUSH2 0x2933 JUMPI PUSH2 0x2932 PUSH2 0x28E1 JUMP JUMPDEST JUMPDEST SWAP3 POP SWAP3 SWAP1 POP JUMP JUMPDEST PUSH0 PUSH0 PUSH1 0x20 DUP4 DUP6 SUB SLT ISZERO PUSH2 0x2950 JUMPI PUSH2 0x294F PUSH2 0x25BE JUMP JUMPDEST JUMPDEST PUSH0 DUP4 ADD CALLDATALOAD PUSH8 0xFFFFFFFFFFFFFFFF DUP2 GT ISZERO PUSH2 0x296D JUMPI PUSH2 0x296C PUSH2 0x25C2 JUMP JUMPDEST JUMPDEST PUSH2 0x2979 DUP6 DUP3 DUP7 ADD PUSH2 0x28E5 JUMP JUMPDEST SWAP3 POP SWAP3 POP POP SWAP3 POP SWAP3 SWAP1 POP JUMP JUMPDEST PUSH0 PUSH0 PUSH0 PUSH1 0x40 DUP5 DUP7 SUB SLT ISZERO PUSH2 0x299C JUMPI PUSH2 0x299B PUSH2 0x25BE JUMP JUMPDEST JUMPDEST PUSH0 PUSH2 0x29A9 DUP7 DUP3 DUP8 ADD PUSH2 0x25E5 JUMP JUMPDEST SWAP4 POP POP PUSH1 0x20 DUP5 ADD CALLDATALOAD PUSH8 0xFFFFFFFFFFFFFFFF DUP2 GT ISZERO PUSH2 0x29CA JUMPI PUSH2 0x29C9 PUSH2 0x25C2 JUMP JUMPDEST JUMPDEST PUSH2 0x29D6 DUP7 DUP3 DUP8 ADD PUSH2 0x28E5 JUMP JUMPDEST SWAP3 POP SWAP3 POP POP SWAP3 POP SWAP3 POP SWAP3 JUMP JUMPDEST PUSH0 DUP2 SWAP1 POP SWAP2 SWAP1 POP JUMP JUMPDEST PUSH0 PUSH2 0x2A05 PUSH2 0x2A00 PUSH2 0x29FB DUP5 PUSH2 0x264C JUMP JUMPDEST PUSH2 0x29E2 JUMP JUMPDEST PUSH2 0x264C JUMP JUMPDEST SWAP1 POP SWAP2 SWAP1 POP JUMP JUMPDEST PUSH0 PUSH2 0x2A16 DUP3 PUSH2 0x29EB JUMP JUMPDEST SWAP1 POP SWAP2 SWAP1 POP JUMP JUMPDEST PUSH0 PUSH2 0x2A27 DUP3 PUSH2 0x2A0C JUMP JUMPDEST SWAP1 POP SWAP2 SWAP1 POP JUMP JUMPDEST PUSH2 0x2A37 DUP2 PUSH2 0x2A1D JUMP JUMPDEST DUP3 MSTORE POP POP JUMP JUMPDEST PUSH0 PUSH1 0x20 DUP3 ADD SWAP1 POP PUSH2 0x2A50 PUSH0 DUP4 ADD DUP5 PUSH2 0x2A2E JUMP JUMPDEST SWAP3 SWAP2 POP POP JUMP JUMPDEST PUSH32 0x496E76616C6964207461736B2069640000000000000000000000000000000000 PUSH0 DUP3 ADD MSTORE POP JUMP JUMPDEST PUSH0 PUSH2 0x2A8A PUSH1 0xF DUP4 PUSH2 0x2695 JUMP JUMPDEST SWAP2 POP PUSH2 0x2A95 DUP3 PUSH2 0x2A56 JUMP JUMPDEST PUSH1 0x20 DUP3 ADD SWAP1 POP SWAP2 SWAP1 POP JUMP JUMPDEST PUSH0 PUSH1 0x20 DUP3 ADD SWAP1 POP DUP2 DUP2 SUB PUSH0 DUP4 ADD MSTORE PUSH2 0x2AB7 DUP2 PUSH2 0x2A7E JUMP JUMPDEST SWAP1 POP SWAP2 SWAP1 POP JUMP JUMPDEST PUSH32 0x4E487B7100000000000000000000000000000000000000000000000000000000 PUSH0 MSTORE PUSH1 0x11 PUSH1 0x4 MSTORE PUSH1 0x24 PUSH0 REVERT JUMPDEST PUSH0 PUSH2 0x2AF5 DUP3 PUSH2 0x25C6 JUMP JUMPDEST SWAP2 POP PUSH2 0x2B00 DUP4 PUSH2 0x25C6 JUMP JUMPDEST SWAP3 POP DUP3 DUP3 SUB SWAP1 POP DUP2 DUP2 GT ISZERO PUSH2 0x2B18 JUMPI PUSH2 0x2B17 PUSH2 0x2ABE JUMP JUMPDEST JUMPDEST SWAP3 SWAP2 POP POP JUMP JUMPDEST PUSH32 0x4E487B7100000000000000000000000000000000000000000000000000000000 PUSH0 MSTORE PUSH1 0x22 PUSH1 0x4 MSTORE PUSH1 0x24 PUSH0 REVERT JUMPDEST PUSH0 PUSH1 0x2 DUP3 DIV SWAP1 POP PUSH1 0x1 DUP3 AND DUP1 PUSH2 0x2B62 JUMPI PUSH1 0x7F DUP3 AND SWAP2 POP JUMPDEST PUSH1 0x20 DUP3 LT DUP2 SUB PUSH2 0x2B75 JUMPI PUSH2 0x2B74 PUSH2 0x2B1E JUMP JUMPDEST JUMPDEST POP SWAP2 SWAP1 POP JUMP JUMPDEST PUSH32 0x4E6F206163746976652064697370757465000000000000000000000000000000 PUSH0 DUP3 ADD MSTORE POP JUMP JUMPDEST PUSH0 PUSH2 0x2BAF PUSH1 0x11 DUP4 PUSH2 0x2695 JUMP JUMPDEST SWAP2 POP PUSH2 0x2BBA DUP3 PUSH2 0x2B7B JUMP JUMPDEST PUSH1 0x20 DUP3 ADD SWAP1 POP SWAP2 SWAP1 POP JUMP JUMPDEST PUSH0 PUSH1 0x20 DUP3 ADD SWAP1 POP DUP2 DUP2 SUB PUSH0 DUP4 ADD MSTORE PUSH2 0x2BDC DUP2 PUSH2 0x2BA3 JUMP JUMPDEST SWAP1 POP SWAP2 SWAP1 POP JUMP JUMPDEST PUSH0 PUSH2 0x2BED DUP3 PUSH2 0x25C6 JUMP JUMPDEST SWAP2 POP PUSH2 0x2BF8 DUP4 PUSH2 0x25C6 JUMP JUMPDEST SWAP3 POP DUP3 DUP3 ADD SWAP1 POP DUP1 DUP3 GT ISZERO PUSH2 0x2C10 JUMPI PUSH2 0x2C0F PUSH2 0x2ABE JUMP JUMPDEST JUMPDEST SWAP3 SWAP2 POP POP JUMP JUMPDEST PUSH32 0x566F74696E6720706572696F6420656E64656400000000000000000000000000 PUSH0 DUP3 ADD MSTORE POP JUMP JUMPDEST PUSH0 PUSH2 0x2C4A PUSH1 0x13 DUP4 PUSH2 0x2695 JUMP JUMPDEST SWAP2 POP PUSH2 0x2C55 DUP3 PUSH2 0x2C16 JUMP JUMPDEST PUSH1 0x20 DUP3 ADD SWAP1 POP SWAP2 SWAP1 POP JUMP JUMPDEST PUSH0 PUSH1 0x20 DUP3 ADD SWAP1 POP DUP2 DUP2 SUB PUSH0 DUP4 ADD MSTORE PUSH2 0x2C77 DUP2 PUSH2 0x2C3E JUMP JUMPDEST SWAP1 POP SWAP2 SWAP1 POP JUMP JUMPDEST PUSH32 0x5374616B6520746F6F20736D616C6C0000000000000000000000000000000000 PUSH0 DUP3 ADD MSTORE POP JUMP JUMPDEST PUSH0 PUSH2 0x2CB2 PUSH1 0xF DUP4 PUSH2 0x2695 JUMP JUMPDEST SWAP2 POP PUSH2 0x2CBD DUP3 PUSH2 0x2C7E JUMP JUMPDEST PUSH1 0x20 DUP3 ADD SWAP1 POP SWAP2 SWAP1 POP JUMP JUMPDEST PUSH0 PUSH1 0x20 DUP3 ADD SWAP1 POP DUP2 DUP2 SUB PUSH0 DUP4 ADD MSTORE PUSH2 0x2CDF DUP2 PUSH2 0x2CA6 JUMP JUMPDEST SWAP1 POP SWAP2 SWAP1 POP JUMP JUMPDEST PUSH32 0x416C726561647920726567697374657265640000000000000000000000000000 PUSH0 DUP3 ADD MSTORE POP JUMP JUMPDEST PUSH0 PUSH2 0x2D1A PUSH1 0x12 DUP4 PUSH2 0x2695 JUMP JUMPDEST SWAP2 POP PUSH2 0x2D25 DUP3 PUSH2 0x2CE6 JUMP JUMPDEST PUSH1 0x20 DUP3 ADD SWAP1 POP SWAP2 SWAP1 POP JUMP JUMPDEST PUSH0 PUSH1 0x20 DUP3 ADD SWAP1 POP DUP2 DUP2 SUB PUSH0 DUP4 ADD MSTORE PUSH2 0x2D47 DUP2 PUSH2 0x2D0E JUMP JUMPDEST SWAP1 POP SWAP2 SWAP1 POP JUMP JUMPDEST PUSH32 0x416C726561647920766F74656400000000000000000000000000000000000000 PUSH0 DUP3 ADD MSTORE POP JUMP JUMPDEST PUSH0 PUSH2 0x2D82 PUSH1 0xD DUP4 PUSH2 0x2695 JUMP JUMPDEST SWAP2 POP PUSH2 0x2D8D DUP3 PUSH2 0x2D4E JUMP JUMPDEST PUSH1 0x20 DUP3 ADD SWAP1 POP SWAP2 SWAP1 POP JUMP JUMPDEST PUSH0 PUSH1 0x20 DUP3 ADD SWAP1 POP DUP2 DUP2 SUB PUSH0 DUP4 ADD MSTORE PUSH2 0x2DAF DUP2 PUSH2 0x2D76 JUMP JUMPDEST SWAP1 POP SWAP2 SWAP1 POP JUMP JUMPDEST PUSH0 PUSH1 0x60 DUP3 ADD SWAP1 POP PUSH2 0x2DC9 PUSH0 DUP4 ADD DUP7 PUSH2 0x267C JUMP JUMPDEST PUSH2 0x2DD6 PUSH1 0x20 DUP4 ADD DUP6 PUSH2 0x267C JUMP JUMPDEST PUSH2 0x2DE3 PUSH1 0x40 DUP4 ADD DUP5 PUSH2 0x2624 JUMP JUMPDEST SWAP5 SWAP4 POP POP POP POP JUMP JUMPDEST PUSH0 DUP2 MLOAD SWAP1 POP PUSH2 0x2DF9 DUP2 PUSH2 0x2821 JUMP JUMPDEST SWAP3 SWAP2 POP POP JUMP JUMPDEST PUSH0 PUSH1 0x20 DUP3 DUP5 SUB SLT ISZERO PUSH2 0x2E14 JUMPI PUSH2 0x2E13 PUSH2 0x25BE JUMP JUMPDEST JUMPDEST PUSH0 PUSH2 0x2E21 DUP5 DUP3 DUP6 ADD PUSH2 0x2DEB JUMP JUMPDEST SWAP2 POP POP SWAP3 SWAP2 POP POP JUMP JUMPDEST PUSH32 0x546F6B656E207472616E73666572206661696C65640000000000000000000000 PUSH0 DUP3 ADD MSTORE POP JUMP JUMPDEST PUSH0 PUSH2 0x2E5E PUSH1 0x15 DUP4 PUSH2 0x2695 JUMP JUMPDEST SWAP2 POP PUSH2 0x2E69 DUP3 PUSH2 0x2E2A JUMP JUMPDEST PUSH1 0x20 DUP3 ADD SWAP1 POP SWAP2 SWAP1 POP JUMP JUMPDEST PUSH0 PUSH1 0x20 DUP3 ADD SWAP1 POP DUP2 DUP2 SUB PUSH0 DUP4 ADD MSTORE PUSH2 0x2E8B DUP2 PUSH2 0x2E52 JUMP JUMPDEST SWAP1 POP SWAP2 SWAP1 POP JUMP JUMPDEST PUSH0 PUSH1 0x80 DUP3 ADD SWAP1 POP PUSH2 0x2EA5 PUSH0 DUP4 ADD DUP8 PUSH2 0x2624 JUMP JUMPDEST PUSH2 0x2EB2 PUSH1 0x20 DUP4 ADD DUP7 PUSH2 0x267C JUMP JUMPDEST PUSH2 0x2EBF PUSH1 0x40 DUP4 ADD DUP6 PUSH2 0x2706 JUMP JUMPDEST PUSH2 0x2ECC PUSH1 0x60 DUP4 ADD DUP5 PUSH2 0x2624 JUMP JUMPDEST SWAP6 SWAP5 POP POP POP POP POP JUMP JUMPDEST PUSH32 0x5461736B206E6F7420696E207265766965772028796574290000000000000000 PUSH0 DUP3 ADD MSTORE POP JUMP JUMPDEST PUSH0 PUSH2 0x2F09 PUSH1 0x18 DUP4 PUSH2 0x2695 JUMP JUMPDEST SWAP2 POP PUSH2 0x2F14 DUP3 PUSH2 0x2ED5 JUMP JUMPDEST PUSH1 0x20 DUP3 ADD SWAP1 POP SWAP2 SWAP1 POP JUMP JUMPDEST PUSH0 PUSH1 0x20 DUP3 ADD SWAP1 POP DUP2 DUP2 SUB PUSH0 DUP4 ADD MSTORE PUSH2 0x2F36 DUP2 PUSH2 0x2EFD JUMP JUMPDEST SWAP1 POP SWAP2 SWAP1 POP JUMP JUMPDEST PUSH32 0x446561646C696E65207061737365640000000000000000000000000000000000 PUSH0 DUP3 ADD MSTORE POP JUMP JUMPDEST PUSH0 PUSH2 0x2F71 PUSH1 0xF DUP4 PUSH2 0x2695 JUMP JUMPDEST SWAP2 POP PUSH2 0x2F7C DUP3 PUSH2 0x2F3D JUMP JUMPDEST PUSH1 0x20 DUP3 ADD SWAP1 POP SWAP2 SWAP1 POP JUMP JUMPDEST PUSH0 PUSH1 0x20 DUP3 ADD SWAP1 POP DUP2 DUP2 SUB PUSH0 DUP4 ADD MSTORE PUSH2 0x2F9E DUP2 PUSH2 0x2F65 JUMP JUMPDEST SWAP1 POP SWAP2 SWAP1 POP JUMP JUMPDEST PUSH32 0x496E636F72726563742064697370757465206465706F73697400000000000000 PUSH0 DUP3 ADD MSTORE POP JUMP JUMPDEST PUSH0 PUSH2 0x2FD9 PUSH1 0x19 DUP4 PUSH2 0x2695 JUMP JUMPDEST SWAP2 POP PUSH2 0x2FE4 DUP3 PUSH2 0x2FA5 JUMP JUMPDEST PUSH1 0x20 DUP3 ADD SWAP1 POP SWAP2 SWAP1 POP JUMP JUMPDEST PUSH0 PUSH1 0x20 DUP3 ADD SWAP1 POP DUP2 DUP2 SUB PUSH0 DUP4 ADD MSTORE PUSH2 0x3006 DUP2 PUSH2 0x2FCD JUMP JUMPDEST SWAP1 POP SWAP2 SWAP1 POP JUMP JUMPDEST PUSH32 0x4578697374696E67206469737075746520616374697665000000000000000000 PUSH0 DUP3 ADD MSTORE POP JUMP JUMPDEST PUSH0 PUSH2 0x3041 PUSH1 0x17 DUP4 PUSH2 0x2695 JUMP JUMPDEST SWAP2 POP PUSH2 0x304C DUP3 PUSH2 0x300D JUMP JUMPDEST PUSH1 0x20 DUP3 ADD SWAP1 POP SWAP2 SWAP1 POP JUMP JUMPDEST PUSH0 PUSH1 0x20 DUP3 ADD SWAP1 POP DUP2 DUP2 SUB PUSH0 DUP4 ADD MSTORE PUSH2 0x306E DUP2 PUSH2 0x3035 JUMP JUMPDEST SWAP1 POP SWAP2 SWAP1 POP JUMP JUMPDEST PUSH0 PUSH1 0x80 DUP3 ADD SWAP1 POP PUSH2 0x3088 PUSH0 DUP4 ADD DUP8 PUSH2 0x2624 JUMP JUMPDEST PUSH2 0x3095 PUSH1 0x20 DUP4 ADD DUP7 PUSH2 0x267C JUMP JUMPDEST PUSH2 0x30A2 PUSH1 0x40 DUP4 ADD DUP6 PUSH2 0x2624 JUMP JUMPDEST PUSH2 0x30AF PUSH1 0x60 DUP4 ADD DUP5 PUSH2 0x2624 JUMP JUMPDEST SWAP6 SWAP5 POP POP POP POP POP JUMP JUMPDEST PUSH32 0x4E6F206469737075746500000000000000000000000000000000000000000000 PUSH0 DUP3 ADD MSTORE POP JUMP JUMPDEST PUSH0 PUSH2 0x30EC PUSH1 0xA DUP4 PUSH2 0x2695 JUMP JUMPDEST SWAP2 POP PUSH2 0x30F7 DUP3 PUSH2 0x30B8 JUMP JUMPDEST PUSH1 0x20 DUP3 ADD SWAP1 POP SWAP2 SWAP1 POP JUMP JUMPDEST PUSH0 PUSH1 0x20 DUP3 ADD SWAP1 POP DUP2 DUP2 SUB PUSH0 DUP4 ADD MSTORE PUSH2 0x3119 DUP2 PUSH2 0x30E0 JUMP JUMPDEST SWAP1 POP SWAP2 SWAP1 POP JUMP JUMPDEST PUSH32 0x416C72656164792066696E616C697A6564000000000000000000000000000000 PUSH0 DUP3 ADD MSTORE POP JUMP JUMPDEST PUSH0 PUSH2 0x3154 PUSH1 0x11 DUP4 PUSH2 0x2695 JUMP JUMPDEST SWAP2 POP PUSH2 0x315F DUP3 PUSH2 0x3120 JUMP JUMPDEST PUSH1 0x20 DUP3 ADD SWAP1 POP SWAP2 SWAP1 POP JUMP JUMPDEST PUSH0 PUSH1 0x20 DUP3 ADD SWAP1 POP DUP2 DUP2 SUB PUSH0 DUP4 ADD MSTORE PUSH2 0x3181 DUP2 PUSH2 0x3148 JUMP JUMPDEST SWAP1 POP SWAP2 SWAP1 POP JUMP JUMPDEST PUSH32 0x566F74696E672077696E646F77207374696C6C206F70656E0000000000000000 PUSH0 DUP3 ADD MSTORE POP JUMP JUMPDEST PUSH0 PUSH2 0x31BC PUSH1 0x18 DUP4 PUSH2 0x2695 JUMP JUMPDEST SWAP2 POP PUSH2 0x31C7 DUP3 PUSH2 0x3188 JUMP JUMPDEST PUSH1 0x20 DUP3 ADD SWAP1 POP SWAP2 SWAP1 POP JUMP JUMPDEST PUSH0 PUSH1 0x20 DUP3 ADD SWAP1 POP DUP2 DUP2 SUB PUSH0 DUP4 ADD MSTORE PUSH2 0x31E9 DUP2 PUSH2 0x31B0 JUMP JUMPDEST SWAP1 POP SWAP2 SWAP1 POP JUMP JUMPDEST PUSH32 0x4E487B7100000000000000000000000000000000000000000000000000000000 PUSH0 MSTORE PUSH1 0x32 PUSH1 0x4 MSTORE PUSH1 0x24 PUSH0 REVERT JUMPDEST PUSH0 PUSH1 0x40 DUP3 ADD SWAP1 POP PUSH2 0x3230 PUSH0 DUP4 ADD DUP6 PUSH2 0x267C JUMP JUMPDEST PUSH2 0x323D PUSH1 0x20 DUP4 ADD DUP5 PUSH2 0x2624 JUMP JUMPDEST SWAP4 SWAP3 POP POP POP JUMP JUMPDEST PUSH0 PUSH2 0x324E DUP3 PUSH2 0x25C6 JUMP JUMPDEST SWAP2 POP PUSH32 0xFFFFFFFFFFFFFFFFFFFFFFFFFFFFFFFFFFFFFFFFFFFFFFFFFFFFFFFFFFFFFFFF DUP3 SUB PUSH2 0x3280 JUMPI PUSH2 0x327F PUSH2 0x2ABE JUMP JUMPDEST JUMPDEST PUSH1 0x1 DUP3 ADD SWAP1 POP SWAP2 SWAP1 POP JUMP JUMPDEST PUSH0 DUP2 SLOAD SWAP1 POP PUSH2 0x3299 DUP2 PUSH2 0x2B4B JUMP JUMPDEST SWAP1 POP SWAP2 SWAP1 POP JUMP JUMPDEST PUSH32 0x4E487B7100000000000000000000000000000000000000000000000000000000 PUSH0 MSTORE PUSH1 0x41 PUSH1 0x4 MSTORE PUSH1 0x24 PUSH0 REVERT JUMPDEST PUSH0 DUP2 SWAP1 POP DUP2 PUSH0 MSTORE PUSH1 0x20 PUSH0 KECCAK256 SWAP1 POP SWAP2 SWAP1 POP JUMP JUMPDEST PUSH0 DUP2 SWAP1 POP DUP2 PUSH0 MSTORE PUSH1 0x20 PUSH0 KECCAK256 SWAP1 POP SWAP2 SWAP1 POP JUMP JUMPDEST PUSH0 PUSH1 0x20 PUSH1 0x1F DUP4 ADD DIV SWAP1 POP SWAP2 SWAP1 POP JUMP JUMPDEST PUSH0 DUP3 DUP3 SHL SWAP1 POP SWAP3 SWAP2 POP POP JUMP JUMPDEST PUSH0 PUSH1 0x8 DUP4 MUL PUSH2 0x333B PUSH32 0xFFFFFFFFFFFFFFFFFFFFFFFFFFFFFFFFFFFFFFFFFFFFFFFFFFFFFFFFFFFFFFFF DUP3 PUSH2 0x3300 JUMP JUMPDEST PUSH2 0x3345 DUP7 DUP4 PUSH2 0x3300 JUMP JUMPDEST SWAP6 POP DUP1 NOT DUP5 AND SWAP4 POP DUP1 DUP7 AND DUP5 OR SWAP3 POP POP POP SWAP4 SWAP3 POP POP POP JUMP JUMPDEST PUSH0 PUSH2 0x3377 PUSH2 0x3372 PUSH2 0x336D DUP5 PUSH2 0x25C6 JUMP JUMPDEST PUSH2 0x29E2 JUMP JUMPDEST PUSH2 0x25C6 JUMP JUMPDEST SWAP1 POP SWAP2 SWAP1 POP JUMP JUMPDEST PUSH0 DUP2 SWAP1 POP SWAP2 SWAP1 POP JUMP JUMPDEST PUSH2 0x3390 DUP4 PUSH2 0x335D JUMP JUMPDEST PUSH2 0x33A4 PUSH2 0x339C DUP3 PUSH2 0x337E JUMP JUMPDEST DUP5 DUP5 SLOAD PUSH2 0x330C JUMP JUMPDEST DUP3 SSTORE POP POP POP POP JUMP JUMPDEST PUSH0 PUSH0 SWAP1 POP SWAP1 JUMP JUMPDEST PUSH2 0x33BB PUSH2 0x33AC JUMP JUMPDEST PUSH2 0x33C6 DUP2 DUP5 DUP5 PUSH2 0x3387 JUMP JUMPDEST POP POP POP JUMP JUMPDEST JUMPDEST DUP2 DUP2 LT ISZERO PUSH2 0x33E9 JUMPI PUSH2 0x33DE PUSH0 DUP3 PUSH2 0x33B3 JUMP JUMPDEST PUSH1 0x1 DUP2 ADD SWAP1 POP PUSH2 0x33CC JUMP JUMPDEST POP POP JUMP JUMPDEST PUSH1 0x1F DUP3 GT ISZERO PUSH2 0x342E JUMPI PUSH2 0x33FF DUP2 PUSH2 0x32CD JUMP JUMPDEST PUSH2 0x3408 DUP5 PUSH2 0x32F1 JUMP JUMPDEST DUP2 ADD PUSH1 0x20 DUP6 LT ISZERO PUSH2 0x3417 JUMPI DUP2 SWAP1 POP JUMPDEST PUSH2 0x342B PUSH2 0x3423 DUP6 PUSH2 0x32F1 JUMP JUMPDEST DUP4 ADD DUP3 PUSH2 0x33CB JUMP JUMPDEST POP POP JUMPDEST POP POP POP JUMP JUMPDEST PUSH0 DUP3 DUP3 SHR SWAP1 POP SWAP3 SWAP2 POP POP JUMP JUMPDEST PUSH0 PUSH2 0x344E PUSH0 NOT DUP5 PUSH1 0x8 MUL PUSH2 0x3433 JUMP JUMPDEST NOT DUP1 DUP4 AND SWAP2 POP POP SWAP3 SWAP2 POP POP JUMP JUMPDEST PUSH0 PUSH2 0x3466 DUP4 DUP4 PUSH2 0x343F JUMP JUMPDEST SWAP2 POP DUP3 PUSH1 0x2 MUL DUP3 OR SWAP1 POP SWAP3 SWAP2 POP POP JUMP JUMPDEST DUP2 DUP2 SUB PUSH2 0x3484 JUMPI POP POP PUSH2 0x3559 JUMP JUMPDEST PUSH2 0x348D DUP3 PUSH2 0x328B JUMP JUMPDEST PUSH8 0xFFFFFFFFFFFFFFFF DUP2 GT ISZERO PUSH2 0x34A6 JUMPI PUSH2 0x34A5 PUSH2 0x32A0 JUMP JUMPDEST JUMPDEST PUSH2 0x34B0 DUP3 SLOAD PUSH2 0x2B4B JUMP JUMPDEST PUSH2 0x34BB DUP3 DUP3 DUP6 PUSH2 0x33ED JUMP JUMPDEST PUSH0 PUSH1 0x1F DUP4 GT PUSH1 0x1 DUP2 EQ PUSH2 0x34E8 JUMPI PUSH0 DUP5 ISZERO PUSH2 0x34D6 JUMPI DUP3 DUP8 ADD SLOAD SWAP1 POP JUMPDEST PUSH2 0x34E0 DUP6 DUP3 PUSH2 0x345B JUMP JUMPDEST DUP7 SSTORE POP PUSH2 0x3552 JUMP JUMPDEST PUSH1 0x1F NOT DUP5 AND PUSH2 0x34F6 DUP8 PUSH2 0x32DF JUMP JUMPDEST SWAP7 POP PUSH2 0x3501 DUP7 PUSH2 0x32CD JUMP JUMPDEST PUSH0 JUMPDEST DUP3 DUP2 LT ISZERO PUSH2 0x3528 JUMPI DUP5 DUP10 ADD SLOAD DUP3 SSTORE PUSH1 0x1 DUP3 ADD SWAP2 POP PUSH1 0x1 DUP6 ADD SWAP5 POP PUSH1 0x20 DUP2 ADD SWAP1 POP PUSH2 0x3503 JUMP JUMPDEST DUP7 DUP4 LT ISZERO PUSH2 0x3545 JUMPI DUP5 DUP10 ADD SLOAD PUSH2 0x3541 PUSH1 0x1F DUP10 AND DUP3 PUSH2 0x343F JUMP JUMPDEST DUP4 SSTORE POP JUMPDEST PUSH1 0x1 PUSH1 0x2 DUP9 MUL ADD DUP9 SSTORE POP POP POP JUMPDEST POP POP POP POP POP POP JUMPDEST JUMP JUMPDEST PUSH0 PUSH1 0x40 DUP3 ADD SWAP1 POP PUSH2 0x356E PUSH0 DUP4 ADD DUP6 PUSH2 0x2624 JUMP JUMPDEST PUSH2 0x357B PUSH1 0x20 DUP4 ADD DUP5 PUSH2 0x2706 JUMP JUMPDEST SWAP4 SWAP3 POP POP POP JUMP JUMPDEST PUSH32 0x5461736B206E6F74207665726966696564202879657429000000000000000000 PUSH0 DUP3 ADD MSTORE POP JUMP JUMPDEST PUSH0 PUSH2 0x35B6 PUSH1 0x17 DUP4 PUSH2 0x2695 JUMP JUMPDEST SWAP2 POP PUSH2 0x35C1 DUP3 PUSH2 0x3582 JUMP JUMPDEST PUSH1 0x20 DUP3 ADD SWAP1 POP SWAP2 SWAP1 POP JUMP JUMPDEST PUSH0 PUSH1 0x20 DUP3 ADD SWAP1 POP DUP2 DUP2 SUB PUSH0 DUP4 ADD MSTORE PUSH2 0x35E3 DUP2 PUSH2 0x35AA JUMP JUMPDEST SWAP1 POP SWAP2 SWAP1 POP JUMP JUMPDEST PUSH32 0x57616974696E672074696D65206E6F7420706173736564207965740000000000 PUSH0 DUP3 ADD MSTORE POP JUMP JUMPDEST PUSH0 PUSH2 0x361E PUSH1 0x1B DUP4 PUSH2 0x2695 JUMP JUMPDEST SWAP2 POP PUSH2 0x3629 DUP3 PUSH2 0x35EA JUMP JUMPDEST PUSH1 0x20 DUP3 ADD SWAP1 POP SWAP2 SWAP1 POP JUMP JUMPDEST PUSH0 PUSH1 0x20 DUP3 ADD SWAP1 POP DUP2 DUP2 SUB PUSH0 DUP4 ADD MSTORE PUSH2 0x364B DUP2 PUSH2 0x3612 JUMP JUMPDEST SWAP1 POP SWAP2 SWAP1 POP JUMP JUMPDEST PUSH32 0x4E6F207665726966696572207965740000000000000000000000000000000000 PUSH0 DUP3 ADD MSTORE POP JUMP JUMPDEST PUSH0 PUSH2 0x3686 PUSH1 0xF DUP4 PUSH2 0x2695 JUMP JUMPDEST SWAP2 POP PUSH2 0x3691 DUP3 PUSH2 0x3652 JUMP JUMPDEST PUSH1 0x20 DUP3 ADD SWAP1 POP SWAP2 SWAP1 POP JUMP JUMPDEST PUSH0 PUSH1 0x20 DUP3 ADD SWAP1 POP DUP2 DUP2 SUB PUSH0 DUP4 ADD MSTORE PUSH2 0x36B3 DUP2 PUSH2 0x367A JUMP JUMPDEST SWAP1 POP SWAP2 SWAP1 POP JUMP JUMPDEST PUSH32 0x6469737075746564000000000000000000000000000000000000000000000000 PUSH0 DUP3 ADD MSTORE POP JUMP JUMPDEST PUSH0 PUSH2 0x36EE PUSH1 0x8 DUP4 PUSH2 0x2695 JUMP JUMPDEST SWAP2 POP PUSH2 0x36F9 DUP3 PUSH2 0x36BA JUMP JUMPDEST PUSH1 0x20 DUP3 ADD SWAP1 POP SWAP2 SWAP1 POP JUMP JUMPDEST PUSH0 PUSH1 0x20 DUP3 ADD SWAP1 POP DUP2 DUP2 SUB PUSH0 DUP4 ADD MSTORE PUSH2 0x371B DUP2 PUSH2 0x36E2 JUMP JUMPDEST SWAP1 POP SWAP2 SWAP1 POP JUMP JUMPDEST PUSH0 PUSH2 0x372C DUP3 PUSH2 0x25C6 JUMP JUMPDEST SWAP2 POP PUSH2 0x3737 DUP4 PUSH2 0x25C6 JUMP JUMPDEST SWAP3 POP DUP3 DUP3 MUL PUSH2 0x3745 DUP2 PUSH2 0x25C6 JUMP JUMPDEST SWAP2 POP DUP3 DUP3 DIV DUP5 EQ DUP4 ISZERO OR PUSH2 0x375C JUMPI PUSH2 0x375B PUSH2 0x2ABE JUMP JUMPDEST JUMPDEST POP SWAP3 SWAP2 POP POP JUMP JUMPDEST PUSH32 0x4E487B7100000000000000000000000000000000000000000000000000000000 PUSH0 MSTORE PUSH1 0x12 PUSH1 0x4 MSTORE PUSH1 0x24 PUSH0 REVERT JUMPDEST PUSH0 PUSH2 0x379A DUP3 PUSH2 0x25C6 JUMP JUMPDEST SWAP2 POP PUSH2 0x37A5 DUP4 PUSH2 0x25C6 JUMP JUMPDEST SWAP3 POP DUP3 PUSH2 0x37B5 JUMPI PUSH2 0x37B4 PUSH2 0x3763 JUMP JUMPDEST JUMPDEST DUP3 DUP3 DIV SWAP1 POP SWAP3 SWAP2 POP POP JUMP JUMPDEST PUSH2 0x37C9 DUP3 PUSH2 0x268B JUMP JUMPDEST PUSH8 0xFFFFFFFFFFFFFFFF DUP2 GT ISZERO PUSH2 0x37E2 JUMPI PUSH2 0x37E1 PUSH2 0x32A0 JUMP JUMPDEST JUMPDEST PUSH2 0x37EC DUP3 SLOAD PUSH2 0x2B4B JUMP JUMPDEST PUSH2 0x37F7 DUP3 DUP3 DUP6 PUSH2 0x33ED JUMP JUMPDEST PUSH0 PUSH1 0x20 SWAP1 POP PUSH1 0x1F DUP4 GT PUSH1 0x1 DUP2 EQ PUSH2 0x3828 JUMPI PUSH0 DUP5 ISZERO PUSH2 0x3816 JUMPI DUP3 DUP8 ADD MLOAD SWAP1 POP JUMPDEST PUSH2 0x3820 DUP6 DUP3 PUSH2 0x345B JUMP JUMPDEST DUP7 SSTORE POP PUSH2 0x3887 JUMP JUMPDEST PUSH1 0x1F NOT DUP5 AND PUSH2 0x3836 DUP7 PUSH2 0x32CD JUMP JUMPDEST PUSH0 JUMPDEST DUP3 DUP2 LT ISZERO PUSH2 0x385D JUMPI DUP5 DUP10 ADD MLOAD DUP3 SSTORE PUSH1 0x1 DUP3 ADD SWAP2 POP PUSH1 0x20 DUP6 ADD SWAP5 POP PUSH1 0x20 DUP2 ADD SWAP1 POP PUSH2 0x3838 JUMP JUMPDEST DUP7 DUP4 LT ISZERO PUSH2 0x387A JUMPI DUP5 DUP10 ADD MLOAD PUSH2 0x3876 PUSH1 0x1F DUP10 AND DUP3 PUSH2 0x343F JUMP JUMPDEST DUP4 SSTORE POP JUMPDEST PUSH1 0x1 PUSH1 0x2 DUP9 MUL ADD DUP9 SSTORE POP POP POP JUMPDEST POP POP POP POP POP POP JUMP JUMPDEST PUSH32 0x5461736B206E6F74207375626D69747465642028796574290000000000000000 PUSH0 DUP3 ADD MSTORE POP JUMP JUMPDEST PUSH0 PUSH2 0x38C3 PUSH1 0x18 DUP4 PUSH2 0x2695 JUMP JUMPDEST SWAP2 POP PUSH2 0x38CE DUP3 PUSH2 0x388F JUMP JUMPDEST PUSH1 0x20 DUP3 ADD SWAP1 POP SWAP2 SWAP1 POP JUMP JUMPDEST PUSH0 PUSH1 0x20 DUP3 ADD SWAP1 POP DUP2 DUP2 SUB PUSH0 DUP4 ADD MSTORE PUSH2 0x38F0 DUP2 PUSH2 0x38B7 JUMP JUMPDEST SWAP1 POP SWAP2 SWAP1 POP JUMP JUMPDEST PUSH32 0x5374616B65207265717569726564000000000000000000000000000000000000 PUSH0 DUP3 ADD MSTORE POP JUMP JUMPDEST PUSH0 PUSH2 0x392B PUSH1 0xE DUP4 PUSH2 0x2695 JUMP JUMPDEST SWAP2 POP PUSH2 0x3936 DUP3 PUSH2 0x38F7 JUMP JUMPDEST PUSH1 0x20 DUP3 ADD SWAP1 POP SWAP2 SWAP1 POP JUMP JUMPDEST PUSH0 PUSH1 0x20 DUP3 ADD SWAP1 POP DUP2 DUP2 SUB PUSH0 DUP4 ADD MSTORE PUSH2 0x3958 DUP2 PUSH2 0x391F JUMP JUMPDEST SWAP1 POP SWAP2 SWAP1 POP JUMP JUMPDEST PUSH32 0x416C726561647920766572696669656400000000000000000000000000000000 PUSH0 DUP3 ADD MSTORE POP JUMP JUMPDEST PUSH0 PUSH2 0x3993 PUSH1 0x10 DUP4 PUSH2 0x2695 JUMP JUMPDEST SWAP2 POP PUSH2 0x399E DUP3 PUSH2 0x395F JUMP JUMPDEST PUSH1 0x20 DUP3 ADD SWAP1 POP SWAP2 SWAP1 POP JUMP JUMPDEST PUSH0 PUSH1 0x20 DUP3 ADD SWAP1 POP DUP2 DUP2 SUB PUSH0 DUP4 ADD MSTORE PUSH2 0x39C0 DUP2 PUSH2 0x3987 JUMP JUMPDEST SWAP1 POP SWAP2 SWAP1 POP JUMP JUMPDEST PUSH0 PUSH1 0x60 DUP3 ADD SWAP1 POP PUSH2 0x39DA PUSH0 DUP4 ADD DUP7 PUSH2 0x2624 JUMP JUMPDEST PUSH2 0x39E7 PUSH1 0x20 DUP4 ADD DUP6 PUSH2 0x267C JUMP JUMPDEST PUSH2 0x39F4 PUSH1 0x40 DUP4 ADD DUP5 PUSH2 0x2706 JUMP JUMPDEST SWAP5 SWAP4 POP POP POP POP JUMP JUMPDEST PUSH32 0x4D7573742073656E6420626F756E747900000000000000000000000000000000 PUSH0 DUP3 ADD MSTORE POP JUMP JUMPDEST PUSH0 PUSH2 0x3A30 PUSH1 0x10 DUP4 PUSH2 0x2695 JUMP JUMPDEST SWAP2 POP PUSH2 0x3A3B DUP3 PUSH2 0x39FC JUMP JUMPDEST PUSH1 0x20 DUP3 ADD SWAP1 POP SWAP2 SWAP1 POP JUMP JUMPDEST PUSH0 PUSH1 0x20 DUP3 ADD SWAP1 POP DUP2 DUP2 SUB PUSH0 DUP4 ADD MSTORE PUSH2 0x3A5D DUP2 PUSH2 0x3A24 JUMP JUMPDEST SWAP1 POP SWAP2 SWAP1 POP JUMP JUMPDEST PUSH0 DUP3 SWAP1 POP SWAP3 SWAP2 POP POP JUMP JUMPDEST PUSH2 0x3A78 DUP4 DUP4 PUSH2 0x3A64 JUMP JUMPDEST PUSH8 0xFFFFFFFFFFFFFFFF DUP2 GT ISZERO PUSH2 0x3A91 JUMPI PUSH2 0x3A90 PUSH2 0x32A0 JUMP JUMPDEST JUMPDEST PUSH2 0x3A9B DUP3 SLOAD PUSH2 0x2B4B JUMP JUMPDEST PUSH2 0x3AA6 DUP3 DUP3 DUP6 PUSH2 0x33ED JUMP JUMPDEST PUSH0 PUSH1 0x1F DUP4 GT PUSH1 0x1 DUP2 EQ PUSH2 0x3AD3 JUMPI PUSH0 DUP5 ISZERO PUSH2 0x3AC1 JUMPI DUP3 DUP8 ADD CALLDATALOAD SWAP1 POP JUMPDEST PUSH2 0x3ACB DUP6 DUP3 PUSH2 0x345B JUMP JUMPDEST DUP7 SSTORE POP PUSH2 0x3B32 JUMP JUMPDEST PUSH1 0x1F NOT DUP5 AND PUSH2 0x3AE1 DUP7 PUSH2 0x32CD JUMP JUMPDEST PUSH0 JUMPDEST DUP3 DUP2 LT ISZERO PUSH2 0x3B08 JUMPI DUP5 DUP10 ADD CALLDATALOAD DUP3 SSTORE PUSH1 0x1 DUP3 ADD SWAP2 POP PUSH1 0x20 DUP6 ADD SWAP5 POP PUSH1 0x20 DUP2 ADD SWAP1 POP PUSH2 0x3AE3 JUMP JUMPDEST DUP7 DUP4 LT ISZERO PUSH2 0x3B25 JUMPI DUP5 DUP10 ADD CALLDATALOAD PUSH2 0x3B21 PUSH1 0x1F DUP10 AND DUP3 PUSH2 0x343F JUMP JUMPDEST DUP4 SSTORE POP JUMPDEST PUSH1 0x1 PUSH1 0x2 DUP9 MUL ADD DUP9 SSTORE POP POP POP JUMPDEST POP POP POP POP POP POP POP JUMP JUMPDEST DUP3 DUP2 DUP4 CALLDATACOPY PUSH0 DUP4 DUP4 ADD MSTORE POP POP POP JUMP JUMPDEST PUSH0 PUSH2 0x3B54 DUP4 DUP6 PUSH2 0x2695 JUMP JUMPDEST SWAP4 POP PUSH2 0x3B61 DUP4 DUP6 DUP5 PUSH2 0x3B3B JUMP JUMPDEST PUSH2 0x3B6A DUP4 PUSH2 0x26B3 JUMP JUMPDEST DUP5 ADD SWAP1 POP SWAP4 SWAP3 POP POP POP JUMP JUMPDEST PUSH0 PUSH1 0x80 DUP3 ADD SWAP1 POP PUSH2 0x3B88 PUSH0 DUP4 ADD DUP9 PUSH2 0x2624 JUMP JUMPDEST PUSH2 0x3B95 PUSH1 0x20 DUP4 ADD DUP8 PUSH2 0x267C JUMP JUMPDEST PUSH2 0x3BA2 PUSH1 0x40 DUP4 ADD DUP7 PUSH2 0x2624 JUMP JUMPDEST DUP2 DUP2 SUB PUSH1 0x60 DUP4 ADD MSTORE PUSH2 0x3BB5 DUP2 DUP5 DUP7 PUSH2 0x3B49 JUMP JUMPDEST SWAP1 POP SWAP7 SWAP6 POP POP POP POP POP POP JUMP JUMPDEST PUSH32 0x5461736B206E6F74206F70656E20287965742900000000000000000000000000 PUSH0 DUP3 ADD MSTORE POP JUMP JUMPDEST PUSH0 PUSH2 0x3BF5 PUSH1 0x13 DUP4 PUSH2 0x2695 JUMP JUMPDEST SWAP2 POP PUSH2 0x3C00 DUP3 PUSH2 0x3BC1 JUMP JUMPDEST PUSH1 0x20 DUP3 ADD SWAP1 POP SWAP2 SWAP1 POP JUMP JUMPDEST PUSH0 PUSH1 0x20 DUP3 ADD SWAP1 POP DUP2 DUP2 SUB PUSH0 DUP4 ADD MSTORE PUSH2 0x3C22 DUP2 PUSH2 0x3BE9 JUMP JUMPDEST SWAP1 POP SWAP2 SWAP1 POP JUMP JUMPDEST PUSH32 0x4120736F6C7574696F6E2068617320616C7265616479206265656E207375626D PUSH0 DUP3 ADD MSTORE PUSH32 0x6974746564000000000000000000000000000000000000000000000000000000 PUSH1 0x20 DUP3 ADD MSTORE POP JUMP JUMPDEST PUSH0 PUSH2 0x3C83 PUSH1 0x25 DUP4 PUSH2 0x2695 JUMP JUMPDEST SWAP2 POP PUSH2 0x3C8E DUP3 PUSH2 0x3C29 JUMP JUMPDEST PUSH1 0x40 DUP3 ADD SWAP1 POP SWAP2 SWAP1 POP JUMP JUMPDEST PUSH0 PUSH1 0x20 DUP3 ADD SWAP1 POP DUP2 DUP2 SUB PUSH0 DUP4 ADD MSTORE PUSH2 0x3CB0 DUP2 PUSH2 0x3C77 JUMP JUMPDEST SWAP1 POP SWAP2 SWAP1 POP JUMP JUMPDEST PUSH0 PUSH1 0x60 DUP3 ADD SWAP1 POP PUSH2 0x3CCA PUSH0 DUP4 ADD DUP8 PUSH2 0x2624 JUMP JUMPDEST PUSH2 0x3CD7 PUSH1 0x20 DUP4 ADD DUP7 PUSH2 0x267C JUMP JUMPDEST DUP2 DUP2 SUB PUSH1 0x40 DUP4 ADD MSTORE PUSH2 0x3CEA DUP2 DUP5 DUP7 PUSH2 0x3B49 JUMP JUMPDEST SWAP1 POP SWAP6 SWAP5 POP POP POP POP POP JUMP INVALID LOG2 PUSH5 0x6970667358 0x22 SLT KECCAK256 0xC5 CODESIZE LT 0xF7 0xAA 0xD5 GASPRICE DUP1 0xAE 0xDF 0xB1 DUP6 LOG1 SWAP7 KECCAK256 SAR 0xB9 RJUMP 0x3759 DUP8 TIMESTAMP JUMP CODECOPY PUSH13 0xF260A3E883DC5264736F6C6343 STOP ADDMOD 0x1E STOP CALLER "
				},
				"gasEstimates": {
					"creation": {
						"codeDepositCost": "3131800",
						"executionCost": "infinite",
						"totalCost": "infinite"
					},
					"external": {
						"createDispute(uint256)": "infinite",
						"disputePeriod()": "2514",
						"finalizeDispute(uint256)": "infinite",
						"finalizeTask(uint256)": "infinite",
						"getRemainingDisputeTime(uint256)": "infinite",
						"getRemainingTime(uint256)": "infinite",
						"getTask(uint256)": "infinite",
						"getTaskCount()": "2453",
						"governanceToken()": "infinite",
						"jurorVote(uint256,uint256,bool)": "infinite",
						"minJurorStake()": "2448",
						"postTask(string)": "infinite",
						"submitSolution(uint256,string)": "infinite",
						"verifySolution(uint256,bool)": "infinite"
					},
					"internal": {
						"_distributeRewards(uint256,bool)": "infinite",
						"_payoutAccepted(uint256)": "infinite"
					}
				},
				"methodIdentifiers": {
					"createDispute(uint256)": "4ac8a529",
					"disputePeriod()": "5bf31d4d",
					"finalizeDispute(uint256)": "56989a83",
					"finalizeTask(uint256)": "88488c33",
					"getRemainingDisputeTime(uint256)": "83b0474d",
					"getRemainingTime(uint256)": "181e0124",
					"getTask(uint256)": "1d65e77e",
					"getTaskCount()": "c17a340e",
					"governanceToken()": "f96dae0a",
					"jurorVote(uint256,uint256,bool)": "1df97777",
					"minJurorStake()": "276ae811",
					"postTask(string)": "c4ca280d",
					"submitSolution(uint256,string)": "d3b5c016",
					"verifySolution(uint256,bool)": "88860835"
				}
			},
			"storageLayout": {
				"storage": [
					{
						"astId": 81,
						"contract": "contracts/marketplace.sol:TaskMarketplace",
						"label": "taskCount",
						"offset": 0,
						"slot": "0",
						"type": "t_uint256"
					},
					{
						"astId": 86,
						"contract": "contracts/marketplace.sol:TaskMarketplace",
						"label": "tasks",
						"offset": 0,
						"slot": "1",
						"type": "t_mapping(t_uint256,t_struct(Task)49_storage)"
					},
					{
						"astId": 91,
						"contract": "contracts/marketplace.sol:TaskMarketplace",
						"label": "disputes",
						"offset": 0,
						"slot": "2",
						"type": "t_mapping(t_uint256,t_struct(Dispute)79_storage)"
					},
					{
						"astId": 94,
						"contract": "contracts/marketplace.sol:TaskMarketplace",
						"label": "submitCost",
						"offset": 0,
						"slot": "3",
						"type": "t_uint256"
					},
					{
						"astId": 97,
						"contract": "contracts/marketplace.sol:TaskMarketplace",
						"label": "verifyCost",
						"offset": 0,
						"slot": "4",
						"type": "t_uint256"
					},
					{
						"astId": 100,
						"contract": "contracts/marketplace.sol:TaskMarketplace",
						"label": "minJurorStake",
						"offset": 0,
						"slot": "5",
						"type": "t_uint256"
					},
					{
						"astId": 103,
						"contract": "contracts/marketplace.sol:TaskMarketplace",
						"label": "disputePeriod",
						"offset": 0,
						"slot": "6",
						"type": "t_uint256"
					},
					{
						"astId": 106,
						"contract": "contracts/marketplace.sol:TaskMarketplace",
						"label": "governanceToken",
						"offset": 0,
						"slot": "7",
						"type": "t_contract(IERC20)22"
					}
				],
				"types": {
					"t_address": {
						"encoding": "inplace",
						"label": "address",
						"numberOfBytes": "20"
					},
					"t_array(t_address)dyn_storage": {
						"base": "t_address",
						"encoding": "dynamic_array",
						"label": "address[]",
						"numberOfBytes": "32"
					},
					"t_bool": {
						"encoding": "inplace",
						"label": "bool",
						"numberOfBytes": "1"
					},
					"t_contract(IERC20)22": {
						"encoding": "inplace",
						"label": "contract IERC20",
						"numberOfBytes": "20"
					},
					"t_enum(TaskStatus)29": {
						"encoding": "inplace",
						"label": "enum TaskMarketplace.TaskStatus",
						"numberOfBytes": "1"
					},
					"t_mapping(t_address,t_bool)": {
						"encoding": "mapping",
						"key": "t_address",
						"label": "mapping(address => bool)",
						"numberOfBytes": "32",
						"value": "t_bool"
					},
					"t_mapping(t_address,t_uint256)": {
						"encoding": "mapping",
						"key": "t_address",
						"label": "mapping(address => uint256)",
						"numberOfBytes": "32",
						"value": "t_uint256"
					},
					"t_mapping(t_uint256,t_struct(Dispute)79_storage)": {
						"encoding": "mapping",
						"key": "t_uint256",
						"label": "mapping(uint256 => struct TaskMarketplace.Dispute)",
						"numberOfBytes": "32",
						"value": "t_struct(Dispute)79_storage"
					},
					"t_mapping(t_uint256,t_struct(Task)49_storage)": {
						"encoding": "mapping",
						"key": "t_uint256",
						"label": "mapping(uint256 => struct TaskMarketplace.Task)",
						"numberOfBytes": "32",
						"value": "t_struct(Task)49_storage"
					},
					"t_string_storage": {
						"encoding": "bytes",
						"label": "string",
						"numberOfBytes": "32"
					},
					"t_struct(Dispute)79_storage": {
						"encoding": "inplace",
						"label": "struct TaskMarketplace.Dispute",
						"members": [
							{
								"astId": 51,
								"contract": "contracts/marketplace.sol:TaskMarketplace",
								"label": "exists",
								"offset": 0,
								"slot": "0",
								"type": "t_bool"
							},
							{
								"astId": 53,
								"contract": "contracts/marketplace.sol:TaskMarketplace",
								"label": "objector",
								"offset": 1,
								"slot": "0",
								"type": "t_address"
							},
							{
								"astId": 55,
								"contract": "contracts/marketplace.sol:TaskMarketplace",
								"label": "startTime",
								"offset": 0,
								"slot": "1",
								"type": "t_uint256"
							},
							{
								"astId": 57,
								"contract": "contracts/marketplace.sol:TaskMarketplace",
								"label": "totalYesWeight",
								"offset": 0,
								"slot": "2",
								"type": "t_uint256"
							},
							{
								"astId": 59,
								"contract": "contracts/marketplace.sol:TaskMarketplace",
								"label": "totalNoWeight",
								"offset": 0,
								"slot": "3",
								"type": "t_uint256"
							},
							{
								"astId": 61,
								"contract": "contracts/marketplace.sol:TaskMarketplace",
								"label": "totalJurorWeight",
								"offset": 0,
								"slot": "4",
								"type": "t_uint256"
							},
							{
								"astId": 63,
								"contract": "contracts/marketplace.sol:TaskMarketplace",
								"label": "finalized",
								"offset": 0,
								"slot": "5",
								"type": "t_bool"
							},
							{
								"astId": 67,
								"contract": "contracts/marketplace.sol:TaskMarketplace",
								"label": "voted",
								"offset": 0,
								"slot": "6",
								"type": "t_mapping(t_address,t_bool)"
							},
							{
								"astId": 71,
								"contract": "contracts/marketplace.sol:TaskMarketplace",
								"label": "jurorStake",
								"offset": 0,
								"slot": "7",
								"type": "t_mapping(t_address,t_uint256)"
							},
							{
								"astId": 75,
								"contract": "contracts/marketplace.sol:TaskMarketplace",
								"label": "choice",
								"offset": 0,
								"slot": "8",
								"type": "t_mapping(t_address,t_bool)"
							},
							{
								"astId": 78,
								"contract": "contracts/marketplace.sol:TaskMarketplace",
								"label": "jurors",
								"offset": 0,
								"slot": "9",
								"type": "t_array(t_address)dyn_storage"
							}
						],
						"numberOfBytes": "320"
					},
					"t_struct(Task)49_storage": {
						"encoding": "inplace",
						"label": "struct TaskMarketplace.Task",
						"members": [
							{
								"astId": 31,
								"contract": "contracts/marketplace.sol:TaskMarketplace",
								"label": "creator",
								"offset": 0,
								"slot": "0",
								"type": "t_address"
							},
							{
								"astId": 33,
								"contract": "contracts/marketplace.sol:TaskMarketplace",
								"label": "solver",
								"offset": 0,
								"slot": "1",
								"type": "t_address"
							},
							{
								"astId": 35,
								"contract": "contracts/marketplace.sol:TaskMarketplace",
								"label": "verifier",
								"offset": 0,
								"slot": "2",
								"type": "t_address"
							},
							{
								"astId": 37,
								"contract": "contracts/marketplace.sol:TaskMarketplace",
								"label": "bounty",
								"offset": 0,
								"slot": "3",
								"type": "t_uint256"
							},
							{
								"astId": 39,
								"contract": "contracts/marketplace.sol:TaskMarketplace",
								"label": "descriptionHash",
								"offset": 0,
								"slot": "4",
								"type": "t_string_storage"
							},
							{
								"astId": 41,
								"contract": "contracts/marketplace.sol:TaskMarketplace",
								"label": "solutionHash",
								"offset": 0,
								"slot": "5",
								"type": "t_string_storage"
							},
							{
								"astId": 43,
								"contract": "contracts/marketplace.sol:TaskMarketplace",
								"label": "approved",
								"offset": 0,
								"slot": "6",
								"type": "t_bool"
							},
							{
								"astId": 45,
								"contract": "contracts/marketplace.sol:TaskMarketplace",
								"label": "deadline",
								"offset": 0,
								"slot": "7",
								"type": "t_uint256"
							},
							{
								"astId": 48,
								"contract": "contracts/marketplace.sol:TaskMarketplace",
								"label": "status",
								"offset": 0,
								"slot": "8",
								"type": "t_enum(TaskStatus)29"
							}
						],
						"numberOfBytes": "288"
					},
					"t_uint256": {
						"encoding": "inplace",
						"label": "uint256",
						"numberOfBytes": "32"
					}
				}
			},
			"userdoc": {
				"kind": "user",
				"methods": {},
				"version": 1
			}
		}
	}
}