{
	"data": {
		"bytecode": {
			"linkReferences": {},
			"object": "6080604052662386f26fc10000600355662386f26fc10000600455606460055560b460065534801561002f575f5ffd5b50604051613e58380380613e58833981810160405281019061005191906100f5565b8060075f6101000a81548173ffffffffffffffffffffffffffffffffffffffff021916908373ffffffffffffffffffffffffffffffffffffffff16021790555050610120565b5f5ffd5b5f73ffffffffffffffffffffffffffffffffffffffff82169050919050565b5f6100c48261009b565b9050919050565b6100d4816100ba565b81146100de575f5ffd5b50565b5f815190506100ef816100cb565b92915050565b5f6020828403121561010a57610109610097565b5b5f610117848285016100e1565b91505092915050565b613d2b8061012d5f395ff3fe6080604052600436106100dc575f3560e01c806383b0474d1161007e578063c17a340e11610058578063c17a340e146102a0578063c4ca280d146102ca578063d3b5c016146102e6578063f96dae0a14610302576100dc565b806383b0474d1461022057806388488c331461025c5780638886083514610284576100dc565b8063276ae811116100ba578063276ae811146101885780634ac8a529146101b257806356989a83146101ce5780635bf31d4d146101f6576100dc565b8063181e0124146100e05780631d65e77e1461011c5780631df9777714610160575b5f5ffd5b3480156100eb575f5ffd5b50610106600480360381019061010191906125f9565b61032c565b6040516101139190612633565b60405180910390f35b348015610127575f5ffd5b50610142600480360381019061013d91906125f9565b6103e6565b60405161015799989796959493929190612788565b60405180910390f35b34801561016b575f5ffd5b506101866004803603810190610181919061284b565b610626565b005b348015610193575f5ffd5b5061019c610b6a565b6040516101a99190612633565b60405180910390f35b6101cc60048036038101906101c791906125f9565b610b70565b005b3480156101d9575f5ffd5b506101f460048036038101906101ef91906125f9565b610e63565b005b348015610201575f5ffd5b5061020a611325565b6040516102179190612633565b60405180910390f35b34801561022b575f5ffd5b50610246600480360381019061024191906125f9565b61132b565b6040516102539190612633565b60405180910390f35b348015610267575f5ffd5b50610282600480360381019061027d91906125f9565b611400565b005b61029e6004803603810190610299919061289b565b611939565b005b3480156102ab575f5ffd5b506102b4611bc6565b6040516102c19190612633565b60405180910390f35b6102e460048036038101906102df919061293a565b611bce565b005b61030060048036038101906102fb9190612985565b611d24565b005b34801561030d575f5ffd5b50610316611f97565b6040516103239190612a3d565b60405180910390f35b5f5f8211801561033d57505f548211155b61037c576040517f08c379a000000000000000000000000000000000000000000000000000000000815260040161037390612aa0565b60405180910390fd5b5f60015f8481526020019081526020015f206007015414806103b157504260015f8481526020019081526020015f2060070154105b156103be575f90506103e1565b4260015f8481526020019081526020015f20600701546103de9190612aeb565b90505b919050565b5f5f5f5f6060805f5f5f5f8a11801561040057505f548a11155b61043f576040517f08c379a000000000000000000000000000000000000000000000000000000000815260040161043690612aa0565b60405180910390fd5b5f60015f8c81526020019081526020015f209050805f015f9054906101000a900473ffffffffffffffffffffffffffffffffffffffff16816001015f9054906101000a900473ffffffffffffffffffffffffffffffffffffffff16826002015f9054906101000a900473ffffffffffffffffffffffffffffffffffffffff1683600301548460040185600501866006015f9054906101000a900460ff168760070154886008015f9054906101000a900460ff168480546104fe90612b4b565b80601f016020809104026020016040519081016040528092919081815260200182805461052a90612b4b565b80156105755780601f1061054c57610100808354040283529160200191610575565b820191905f5260205f20905b81548152906001019060200180831161055857829003601f168201915b5050505050945083805461058890612b4b565b80601f01602080910402602001604051908101604052809291908181526020018280546105b490612b4b565b80156105ff5780601f106105d6576101008083540402835291602001916105ff565b820191905f5260205f20905b8154815290600101906020018083116105e257829003601f168201915b50505050509350995099509950995099509950995099509950509193959799909294969850565b5f8311801561063657505f548311155b610675576040517f08c379a000000000000000000000000000000000000000000000000000000000815260040161066c90612aa0565b60405180910390fd5b5f60025f8581526020019081526020015f209050805f015f9054906101000a900460ff1680156106b35750806005015f9054906101000a900460ff16155b6106f2576040517f08c379a00000000000000000000000000000000000000000000000000000000081526004016106e990612bc5565b60405180910390fd5b60065481600101546107049190612be3565b421115610746576040517f08c379a000000000000000000000000000000000000000000000000000000000815260040161073d90612c60565b60405180910390fd5b60055483101561078b576040517f08c379a000000000000000000000000000000000000000000000000000000000815260040161078290612cc8565b60405180910390fd5b5f816007015f3373ffffffffffffffffffffffffffffffffffffffff1673ffffffffffffffffffffffffffffffffffffffff1681526020019081526020015f20541461080c576040517f08c379a000000000000000000000000000000000000000000000000000000000815260040161080390612d30565b60405180910390fd5b806006015f3373ffffffffffffffffffffffffffffffffffffffff1673ffffffffffffffffffffffffffffffffffffffff1681526020019081526020015f205f9054906101000a900460ff1615610898576040517f08c379a000000000000000000000000000000000000000000000000000000000815260040161088f90612d98565b60405180910390fd5b5f60075f9054906101000a900473ffffffffffffffffffffffffffffffffffffffff1673ffffffffffffffffffffffffffffffffffffffff166323b872dd3330876040518463ffffffff1660e01b81526004016108f793929190612db6565b6020604051808303815f875af1158015610913573d5f5f3e3d5ffd5b505050506040513d601f19601f820116820180604052508101906109379190612dff565b905080610979576040517f08c379a000000000000000000000000000000000000000000000000000000000815260040161097090612e74565b60405180910390fd5b82826008015f3373ffffffffffffffffffffffffffffffffffffffff1673ffffffffffffffffffffffffffffffffffffffff1681526020019081526020015f205f6101000a81548160ff02191690831515021790555083826007015f3373ffffffffffffffffffffffffffffffffffffffff1673ffffffffffffffffffffffffffffffffffffffff1681526020019081526020015f208190555083826004015f828254610a269190612be3565b925050819055508160090133908060018154018082558091505060019003905f5260205f20015f9091909190916101000a81548173ffffffffffffffffffffffffffffffffffffffff021916908373ffffffffffffffffffffffffffffffffffffffff1602179055506001826006015f3373ffffffffffffffffffffffffffffffffffffffff1673ffffffffffffffffffffffffffffffffffffffff1681526020019081526020015f205f6101000a81548160ff0219169083151502179055508215610b0b5783826002015f828254610aff9190612be3565b92505081905550610b26565b83826003015f828254610b1e9190612be3565b925050819055505b7f804cb3f45e5253ac34847987d4d9ae8cfa21a176f777acb99b5988a4e01f8cfd85338587604051610b5b9493929190612e92565b60405180910390a15050505050565b60055481565b5f81118015610b8057505f548111155b610bbf576040517f08c379a0000000000000000000000000000000000000000000000000000000008152600401610bb690612aa0565b60405180910390fd5b5f60015f8381526020019081526020015f20905060026005811115610be757610be6612715565b5b816008015f9054906101000a900460ff166005811115610c0a57610c09612715565b5b14610c4a576040517f08c379a0000000000000000000000000000000000000000000000000000000008152600401610c4190612f1f565b60405180910390fd5b80600701544210610c90576040517f08c379a0000000000000000000000000000000000000000000000000000000008152600401610c8790612f87565b60405180910390fd5b6004543414610cd4576040517f08c379a0000000000000000000000000000000000000000000000000000000008152600401610ccb90612fef565b60405180910390fd5b60025f8381526020019081526020015f205f015f9054906101000a900460ff161580610d1d575060025f8381526020019081526020015f206005015f9054906101000a900460ff165b610d5c576040517f08c379a0000000000000000000000000000000000000000000000000000000008152600401610d5390613057565b60405180910390fd5b6003816008015f6101000a81548160ff02191690836005811115610d8357610d82612715565b5b02179055505f60025f8481526020019081526020015f2090506001815f015f6101000a81548160ff02191690831515021790555033815f0160016101000a81548173ffffffffffffffffffffffffffffffffffffffff021916908373ffffffffffffffffffffffffffffffffffffffff1602179055504281600101819055505f816005015f6101000a81548160ff0219169083151502179055507f1d2f4ade11fcea3a321eb215e6561c2f95d30d0f1bcf7ad3d715932b61d0da9a8333348460010154604051610e569493929190613075565b60405180910390a1505050565b5f81118015610e7357505f548111155b610eb2576040517f08c379a0000000000000000000000000000000000000000000000000000000008152600401610ea990612aa0565b60405180910390fd5b5f60025f8381526020019081526020015f2090505f60015f8481526020019081526020015f209050815f015f9054906101000a900460ff16610f29576040517f08c379a0000000000000000000000000000000000000000000000000000000008152600401610f2090613102565b60405180910390fd5b816005015f9054906101000a900460ff1615610f7a576040517f08c379a0000000000000000000000000000000000000000000000000000000008152600401610f719061316a565b60405180910390fd5b6006548260010154610f8c9190612be3565b4211610fcd576040517f08c379a0000000000000000000000000000000000000000000000000000000008152600401610fc4906131d2565b60405180910390fd5b6001826005015f6101000a81548160ff0219169083151502179055505f826002015490505f836003015490508082106110195761100b856001611fbc565b61101485612371565b611024565b611023855f611fbc565b5b5f5f90505b84600901805490508110156111b5575f85600901828154811061104f5761104e6131f0565b5b905f5260205f20015f9054906101000a900473ffffffffffffffffffffffffffffffffffffffff1690505f866007015f8373ffffffffffffffffffffffffffffffffffffffff1673ffffffffffffffffffffffffffffffffffffffff1681526020019081526020015f205490505f8111156111a6575f876007015f8473ffffffffffffffffffffffffffffffffffffffff1673ffffffffffffffffffffffffffffffffffffffff1681526020019081526020015f208190555060075f9054906101000a900473ffffffffffffffffffffffffffffffffffffffff1673ffffffffffffffffffffffffffffffffffffffff1663a9059cbb83836040518363ffffffff1660e01b815260040161116492919061321d565b6020604051808303815f875af1158015611180573d5f5f3e3d5ffd5b505050506040513d601f19601f820116820180604052508101906111a49190612dff565b505b50508080600101915050611029565b50808210156112e2576005836008015f6101000a81548160ff021916908360058111156111e5576111e4612715565b5b02179055505f5f8154809291906111fb90613244565b91905055505f60015f5f5481526020019081526020015f209050835f015f9054906101000a900473ffffffffffffffffffffffffffffffffffffffff16815f015f6101000a81548173ffffffffffffffffffffffffffffffffffffffff021916908373ffffffffffffffffffffffffffffffffffffffff16021790555083600301548160030181905550836004018160040190816112999190613476565b505f816006015f6101000a81548160ff0219169083151502179055505f816008015f6101000a81548160ff021916908360058111156112db576112da612715565b5b0217905550505b7f6094caf45c2924da34dd706c33f09ec619587bac9144486d8f82b0316e47e7b3858284101560405161131692919061355b565b60405180910390a15050505050565b60065481565b5f5f8211801561133c57505f548211155b61137b576040517f08c379a000000000000000000000000000000000000000000000000000000000815260040161137290612aa0565b60405180910390fd5b5f60025f8481526020019081526020015f206001015414806113be57504260065460025f8581526020019081526020015f20600101546113bb9190612be3565b10155b156113cb575f90506113fb565b60065460025f8481526020019081526020015f20600101546113ed9190612be3565b426113f89190612aeb565b90505b919050565b5f8111801561141057505f548111155b61144f576040517f08c379a000000000000000000000000000000000000000000000000000000000815260040161144690612aa0565b60405180910390fd5b5f60015f8381526020019081526020015f2090506002600581111561147757611476612715565b5b816008015f9054906101000a900460ff16600581111561149a57611499612715565b5b146114da576040517f08c379a00000000000000000000000000000000000000000000000000000000081526004016114d1906135cc565b60405180910390fd5b80600701544211611520576040517f08c379a000000000000000000000000000000000000000000000000000000000815260040161151790613634565b60405180910390fd5b5f73ffffffffffffffffffffffffffffffffffffffff16816002015f9054906101000a900473ffffffffffffffffffffffffffffffffffffffff1673ffffffffffffffffffffffffffffffffffffffff16036115b1576040517f08c379a00000000000000000000000000000000000000000000000000000000081526004016115a89061369c565b60405180910390fd5b60025f8381526020019081526020015f205f015f9054906101000a900460ff1615611611576040517f08c379a000000000000000000000000000000000000000000000000000000000815260040161160890613704565b60405180910390fd5b806006015f9054906101000a900460ff1615611782576004816008015f6101000a81548160ff0219169083600581111561164e5761164d612715565b5b02179055505f6064605a83600301546116679190613722565b6116719190613790565b90505f6064600a84600301546116879190613722565b6116919190613790565b9050826001015f9054906101000a900473ffffffffffffffffffffffffffffffffffffffff1673ffffffffffffffffffffffffffffffffffffffff166108fc600354846116de9190612be3565b90811502906040515f60405180830381858888f19350505050158015611706573d5f5f3e3d5ffd5b50826002015f9054906101000a900473ffffffffffffffffffffffffffffffffffffffff1673ffffffffffffffffffffffffffffffffffffffff166108fc600454836117529190612be3565b90811502906040515f60405180830381858888f1935050505015801561177a573d5f5f3e3d5ffd5b5050506118ec565b806002015f9054906101000a900473ffffffffffffffffffffffffffffffffffffffff1673ffffffffffffffffffffffffffffffffffffffff166108fc6004546003546117cf9190612be3565b90811502906040515f60405180830381858888f193505050501580156117f7573d5f5f3e3d5ffd5b505f816008015f6101000a81548160ff0219169083600581111561181e5761181d612715565b5b02179055505f816001015f6101000a81548173ffffffffffffffffffffffffffffffffffffffff021916908373ffffffffffffffffffffffffffffffffffffffff1602179055505f816002015f6101000a81548173ffffffffffffffffffffffffffffffffffffffff021916908373ffffffffffffffffffffffffffffffffffffffff16021790555060405180602001604052805f8152508160050190816118c691906137c0565b505f81600701819055505f816006015f6101000a81548160ff0219169083151502179055505b7f9deada0165c5e1eac62423dbf1dd30115314b076a9d6d3868daf316f1cb285e982826006015f9054906101000a900460ff1660405161192d92919061355b565b60405180910390a15050565b5f8211801561194957505f548211155b611988576040517f08c379a000000000000000000000000000000000000000000000000000000000815260040161197f90612aa0565b60405180910390fd5b5f60015f8481526020019081526020015f209050600160058111156119b0576119af612715565b5b816008015f9054906101000a900460ff1660058111156119d3576119d2612715565b5b14611a13576040517f08c379a0000000000000000000000000000000000000000000000000000000008152600401611a0a906138d9565b60405180910390fd5b6004543414611a57576040517f08c379a0000000000000000000000000000000000000000000000000000000008152600401611a4e90613941565b60405180910390fd5b5f73ffffffffffffffffffffffffffffffffffffffff16816002015f9054906101000a900473ffffffffffffffffffffffffffffffffffffffff1673ffffffffffffffffffffffffffffffffffffffff1614611ae8576040517f08c379a0000000000000000000000000000000000000000000000000000000008152600401611adf906139a9565b60405180910390fd5b33816002015f6101000a81548173ffffffffffffffffffffffffffffffffffffffff021916908373ffffffffffffffffffffffffffffffffffffffff16021790555081816006015f6101000a81548160ff021916908315150217905550603c42611b529190612be3565b81600701819055506002816008015f6101000a81548160ff02191690836005811115611b8157611b80612715565b5b02179055507f28f0202dcb9c68cb7b1c95a88074daa5de2f0f8f6e1c69d9d509140a3228871b833384604051611bb9939291906139c7565b60405180910390a1505050565b5f5f54905090565b5f3411611c10576040517f08c379a0000000000000000000000000000000000000000000000000000000008152600401611c0790613a46565b60405180910390fd5b5f5f815480929190611c2190613244565b91905055505f60015f5f5481526020019081526020015f20905033815f015f6101000a81548173ffffffffffffffffffffffffffffffffffffffff021916908373ffffffffffffffffffffffffffffffffffffffff1602179055503481600301819055508282826004019182611c98929190613a6e565b505f816006015f6101000a81548160ff0219169083151502179055505f816008015f6101000a81548160ff02191690836005811115611cda57611cd9612715565b5b02179055507f05fddf931b4d1e3b95f2b6fb12ab475fe9555ce60fd2bfe66b84060f2dc22a2e5f5433348686604051611d17959493929190613b75565b60405180910390a1505050565b5f83118015611d3457505f548311155b611d73576040517f08c379a0000000000000000000000000000000000000000000000000000000008152600401611d6a90612aa0565b60405180910390fd5b5f60015f8581526020019081526020015f2090505f6005811115611d9a57611d99612715565b5b816008015f9054906101000a900460ff166005811115611dbd57611dbc612715565b5b14611dfd576040517f08c379a0000000000000000000000000000000000000000000000000000000008152600401611df490613c0b565b60405180910390fd5b6003543414611e41576040517f08c379a0000000000000000000000000000000000000000000000000000000008152600401611e3890613941565b60405180910390fd5b5f73ffffffffffffffffffffffffffffffffffffffff16816001015f9054906101000a900473ffffffffffffffffffffffffffffffffffffffff1673ffffffffffffffffffffffffffffffffffffffff1614611ed2576040517f08c379a0000000000000000000000000000000000000000000000000000000008152600401611ec990613c99565b60405180910390fd5b8282826005019182611ee5929190613a6e565b5033816001015f6101000a81548173ffffffffffffffffffffffffffffffffffffffff021916908373ffffffffffffffffffffffffffffffffffffffff1602179055506001816008015f6101000a81548160ff02191690836005811115611f4f57611f4e612715565b5b02179055507fa90ae9720245855cd0178118b70cc1ee497003d06d996ee5c304a19e5b25d91584338585604051611f899493929190613cb7565b60405180910390a150505050565b60075f9054906101000a900473ffffffffffffffffffffffffffffffffffffffff1681565b5f60025f8481526020019081526020015f2090505f60015f8581526020019081526020015f2090505f5f60646028600454611ff79190613722565b6120019190613790565b9050826006015f9054906101000a900460ff16151585151503612026575f91506120ab565b606460326004546120379190613722565b6120419190613790565b9150835f0160019054906101000a900473ffffffffffffffffffffffffffffffffffffffff1673ffffffffffffffffffffffffffffffffffffffff166108fc8390811502906040515f60405180830381858888f193505050501580156120a9573d5f5f3e3d5ffd5b505b5f81836004546120bb9190612aeb565b6120c59190612aeb565b90508561216257836006015f9054906101000a900460ff16156120f757600354816120f09190612be3565b9050612161565b836002015f9054906101000a900473ffffffffffffffffffffffffffffffffffffffff1673ffffffffffffffffffffffffffffffffffffffff166108fc60035490811502906040515f60405180830381858888f1935050505015801561215f573d5f5f3e3d5ffd5b505b5b5f86612172578560030154612178565b85600201545b90505f810361219a57828261218d9190612be3565b915050505050505061236d565b5f5f90505b8660090180549050811015612365575f8760090182815481106121c5576121c46131f0565b5b905f5260205f20015f9054906101000a900473ffffffffffffffffffffffffffffffffffffffff169050876006015f8273ffffffffffffffffffffffffffffffffffffffff1673ffffffffffffffffffffffffffffffffffffffff1681526020019081526020015f205f9054906101000a900460ff1615612357575f886007015f8373ffffffffffffffffffffffffffffffffffffffff1673ffffffffffffffffffffffffffffffffffffffff1681526020019081526020015f205490505f896008015f8473ffffffffffffffffffffffffffffffffffffffff1673ffffffffffffffffffffffffffffffffffffffff1681526020019081526020015f205f9054906101000a900460ff1690508a80156122dc5750805b806122ef57508a1580156122ee575080155b5b15612354575f8588846123029190613722565b61230c9190613790565b90508373ffffffffffffffffffffffffffffffffffffffff166108fc8290811502906040515f60405180830381858888f19350505050158015612351573d5f5f3e3d5ffd5b50505b50505b50808060010191505061219f565b505050505050505b5050565b5f60015f8381526020019081526020015f2090505f60025f8481526020019081526020015f2090506004826008015f6101000a81548160ff021916908360058111156123c0576123bf612715565b5b02179055505f6064605a84600301546123d99190613722565b6123e39190613790565b90505f6064600a85600301546123f99190613722565b6124039190613790565b9050836001015f9054906101000a900473ffffffffffffffffffffffffffffffffffffffff1673ffffffffffffffffffffffffffffffffffffffff166108fc600354846124509190612be3565b90811502906040515f60405180830381858888f19350505050158015612478573d5f5f3e3d5ffd5b50836006015f9054906101000a900460ff161561250857836002015f9054906101000a900473ffffffffffffffffffffffffffffffffffffffff1673ffffffffffffffffffffffffffffffffffffffff166108fc600454836124da9190612be3565b90811502906040515f60405180830381858888f19350505050158015612502573d5f5f3e3d5ffd5b5061257d565b825f0160019054906101000a900473ffffffffffffffffffffffffffffffffffffffff1673ffffffffffffffffffffffffffffffffffffffff166108fc600454836125539190612be3565b90811502906040515f60405180830381858888f1935050505015801561257b573d5f5f3e3d5ffd5b505b7f9deada0165c5e1eac62423dbf1dd30115314b076a9d6d3868daf316f1cb285e98560016040516125af92919061355b565b60405180910390a15050505050565b5f5ffd5b5f5ffd5b5f819050919050565b6125d8816125c6565b81146125e2575f5ffd5b50565b5f813590506125f3816125cf565b92915050565b5f6020828403121561260e5761260d6125be565b5b5f61261b848285016125e5565b91505092915050565b61262d816125c6565b82525050565b5f6020820190506126465f830184612624565b92915050565b5f73ffffffffffffffffffffffffffffffffffffffff82169050919050565b5f6126758261264c565b9050919050565b6126858161266b565b82525050565b5f81519050919050565b5f82825260208201905092915050565b8281835e5f83830152505050565b5f601f19601f8301169050919050565b5f6126cd8261268b565b6126d78185612695565b93506126e78185602086016126a5565b6126f0816126b3565b840191505092915050565b5f8115159050919050565b61270f816126fb565b82525050565b7f4e487b71000000000000000000000000000000000000000000000000000000005f52602160045260245ffd5b6006811061275357612752612715565b5b50565b5f81905061276382612742565b919050565b5f61277282612756565b9050919050565b61278281612768565b82525050565b5f6101208201905061279c5f83018c61267c565b6127a9602083018b61267c565b6127b6604083018a61267c565b6127c36060830189612624565b81810360808301526127d581886126c3565b905081810360a08301526127e981876126c3565b90506127f860c0830186612706565b61280560e0830185612624565b612813610100830184612779565b9a9950505050505050505050565b61282a816126fb565b8114612834575f5ffd5b50565b5f8135905061284581612821565b92915050565b5f5f5f60608486031215612862576128616125be565b5b5f61286f868287016125e5565b9350506020612880868287016125e5565b925050604061289186828701612837565b9150509250925092565b5f5f604083850312156128b1576128b06125be565b5b5f6128be858286016125e5565b92505060206128cf85828601612837565b9150509250929050565b5f5ffd5b5f5ffd5b5f5ffd5b5f5f83601f8401126128fa576128f96128d9565b5b8235905067ffffffffffffffff811115612917576129166128dd565b5b602083019150836001820283011115612933576129326128e1565b5b9250929050565b5f5f602083850312156129505761294f6125be565b5b5f83013567ffffffffffffffff81111561296d5761296c6125c2565b5b612979858286016128e5565b92509250509250929050565b5f5f5f6040848603121561299c5761299b6125be565b5b5f6129a9868287016125e5565b935050602084013567ffffffffffffffff8111156129ca576129c96125c2565b5b6129d6868287016128e5565b92509250509250925092565b5f819050919050565b5f612a05612a006129fb8461264c565b6129e2565b61264c565b9050919050565b5f612a16826129eb565b9050919050565b5f612a2782612a0c565b9050919050565b612a3781612a1d565b82525050565b5f602082019050612a505f830184612a2e565b92915050565b7f496e76616c6964207461736b20696400000000000000000000000000000000005f82015250565b5f612a8a600f83612695565b9150612a9582612a56565b602082019050919050565b5f6020820190508181035f830152612ab781612a7e565b9050919050565b7f4e487b71000000000000000000000000000000000000000000000000000000005f52601160045260245ffd5b5f612af5826125c6565b9150612b00836125c6565b9250828203905081811115612b1857612b17612abe565b5b92915050565b7f4e487b71000000000000000000000000000000000000000000000000000000005f52602260045260245ffd5b5f6002820490506001821680612b6257607f821691505b602082108103612b7557612b74612b1e565b5b50919050565b7f4e6f2061637469766520646973707574650000000000000000000000000000005f82015250565b5f612baf601183612695565b9150612bba82612b7b565b602082019050919050565b5f6020820190508181035f830152612bdc81612ba3565b9050919050565b5f612bed826125c6565b9150612bf8836125c6565b9250828201905080821115612c1057612c0f612abe565b5b92915050565b7f566f74696e6720706572696f6420656e646564000000000000000000000000005f82015250565b5f612c4a601383612695565b9150612c5582612c16565b602082019050919050565b5f6020820190508181035f830152612c7781612c3e565b9050919050565b7f5374616b6520746f6f20736d616c6c00000000000000000000000000000000005f82015250565b5f612cb2600f83612695565b9150612cbd82612c7e565b602082019050919050565b5f6020820190508181035f830152612cdf81612ca6565b9050919050565b7f416c7265616479207265676973746572656400000000000000000000000000005f82015250565b5f612d1a601283612695565b9150612d2582612ce6565b602082019050919050565b5f6020820190508181035f830152612d4781612d0e565b9050919050565b7f416c726561647920766f746564000000000000000000000000000000000000005f82015250565b5f612d82600d83612695565b9150612d8d82612d4e565b602082019050919050565b5f6020820190508181035f830152612daf81612d76565b9050919050565b5f606082019050612dc95f83018661267c565b612dd6602083018561267c565b612de36040830184612624565b949350505050565b5f81519050612df981612821565b92915050565b5f60208284031215612e1457612e136125be565b5b5f612e2184828501612deb565b91505092915050565b7f546f6b656e207472616e73666572206661696c656400000000000000000000005f82015250565b5f612e5e601583612695565b9150612e6982612e2a565b602082019050919050565b5f6020820190508181035f830152612e8b81612e52565b9050919050565b5f608082019050612ea55f830187612624565b612eb2602083018661267c565b612ebf6040830185612706565b612ecc6060830184612624565b95945050505050565b7f5461736b206e6f7420696e2072657669657720287965742900000000000000005f82015250565b5f612f09601883612695565b9150612f1482612ed5565b602082019050919050565b5f6020820190508181035f830152612f3681612efd565b9050919050565b7f446561646c696e652070617373656400000000000000000000000000000000005f82015250565b5f612f71600f83612695565b9150612f7c82612f3d565b602082019050919050565b5f6020820190508181035f830152612f9e81612f65565b9050919050565b7f496e636f72726563742064697370757465206465706f736974000000000000005f82015250565b5f612fd9601983612695565b9150612fe482612fa5565b602082019050919050565b5f6020820190508181035f83015261300681612fcd565b9050919050565b7f4578697374696e672064697370757465206163746976650000000000000000005f82015250565b5f613041601783612695565b915061304c8261300d565b602082019050919050565b5f6020820190508181035f83015261306e81613035565b9050919050565b5f6080820190506130885f830187612624565b613095602083018661267c565b6130a26040830185612624565b6130af6060830184612624565b95945050505050565b7f4e6f2064697370757465000000000000000000000000000000000000000000005f82015250565b5f6130ec600a83612695565b91506130f7826130b8565b602082019050919050565b5f6020820190508181035f830152613119816130e0565b9050919050565b7f416c72656164792066696e616c697a65640000000000000000000000000000005f82015250565b5f613154601183612695565b915061315f82613120565b602082019050919050565b5f6020820190508181035f83015261318181613148565b9050919050565b7f566f74696e672077696e646f77207374696c6c206f70656e00000000000000005f82015250565b5f6131bc601883612695565b91506131c782613188565b602082019050919050565b5f6020820190508181035f8301526131e9816131b0565b9050919050565b7f4e487b71000000000000000000000000000000000000000000000000000000005f52603260045260245ffd5b5f6040820190506132305f83018561267c565b61323d6020830184612624565b9392505050565b5f61324e826125c6565b91507fffffffffffffffffffffffffffffffffffffffffffffffffffffffffffffffff82036132805761327f612abe565b5b600182019050919050565b5f8154905061329981612b4b565b9050919050565b7f4e487b71000000000000000000000000000000000000000000000000000000005f52604160045260245ffd5b5f819050815f5260205f209050919050565b5f819050815f5260205f209050919050565b5f6020601f8301049050919050565b5f82821b905092915050565b5f6008830261333b7fffffffffffffffffffffffffffffffffffffffffffffffffffffffffffffffff82613300565b6133458683613300565b95508019841693508086168417925050509392505050565b5f61337761337261336d846125c6565b6129e2565b6125c6565b9050919050565b5f819050919050565b6133908361335d565b6133a461339c8261337e565b84845461330c565b825550505050565b5f5f905090565b6133bb6133ac565b6133c6818484613387565b505050565b5b818110156133e9576133de5f826133b3565b6001810190506133cc565b5050565b601f82111561342e576133ff816132cd565b613408846132f1565b81016020851015613417578190505b61342b613423856132f1565b8301826133cb565b50505b505050565b5f82821c905092915050565b5f61344e5f1984600802613433565b1980831691505092915050565b5f613466838361343f565b9150826002028217905092915050565b818103613484575050613559565b61348d8261328b565b67ffffffffffffffff8111156134a6576134a56132a0565b5b6134b08254612b4b565b6134bb8282856133ed565b5f601f8311600181146134e8575f84156134d6578287015490505b6134e0858261345b565b865550613552565b601f1984166134f6876132df565b9650613501866132cd565b5f5b8281101561352857848901548255600182019150600185019450602081019050613503565b868310156135455784890154613541601f89168261343f565b8355505b6001600288020188555050505b5050505050505b565b5f60408201905061356e5f830185612624565b61357b6020830184612706565b9392505050565b7f5461736b206e6f742076657269666965642028796574290000000000000000005f82015250565b5f6135b6601783612695565b91506135c182613582565b602082019050919050565b5f6020820190508181035f8301526135e3816135aa565b9050919050565b7f57616974696e672074696d65206e6f74207061737365642079657400000000005f82015250565b5f61361e601b83612695565b9150613629826135ea565b602082019050919050565b5f6020820190508181035f83015261364b81613612565b9050919050565b7f4e6f2076657269666965722079657400000000000000000000000000000000005f82015250565b5f613686600f83612695565b915061369182613652565b602082019050919050565b5f6020820190508181035f8301526136b38161367a565b9050919050565b7f64697370757465640000000000000000000000000000000000000000000000005f82015250565b5f6136ee600883612695565b91506136f9826136ba565b602082019050919050565b5f6020820190508181035f83015261371b816136e2565b9050919050565b5f61372c826125c6565b9150613737836125c6565b9250828202613745816125c6565b9150828204841483151761375c5761375b612abe565b5b5092915050565b7f4e487b71000000000000000000000000000000000000000000000000000000005f52601260045260245ffd5b5f61379a826125c6565b91506137a5836125c6565b9250826137b5576137b4613763565b5b828204905092915050565b6137c98261268b565b67ffffffffffffffff8111156137e2576137e16132a0565b5b6137ec8254612b4b565b6137f78282856133ed565b5f60209050601f831160018114613828575f8415613816578287015190505b613820858261345b565b865550613887565b601f198416613836866132cd565b5f5b8281101561385d57848901518255600182019150602085019450602081019050613838565b8683101561387a5784890151613876601f89168261343f565b8355505b6001600288020188555050505b505050505050565b7f5461736b206e6f74207375626d697474656420287965742900000000000000005f82015250565b5f6138c3601883612695565b91506138ce8261388f565b602082019050919050565b5f6020820190508181035f8301526138f0816138b7565b9050919050565b7f5374616b652072657175697265640000000000000000000000000000000000005f82015250565b5f61392b600e83612695565b9150613936826138f7565b602082019050919050565b5f6020820190508181035f8301526139588161391f565b9050919050565b7f416c7265616479207665726966696564000000000000000000000000000000005f82015250565b5f613993601083612695565b915061399e8261395f565b602082019050919050565b5f6020820190508181035f8301526139c081613987565b9050919050565b5f6060820190506139da5f830186612624565b6139e7602083018561267c565b6139f46040830184612706565b949350505050565b7f4d7573742073656e6420626f756e7479000000000000000000000000000000005f82015250565b5f613a30601083612695565b9150613a3b826139fc565b602082019050919050565b5f6020820190508181035f830152613a5d81613a24565b9050919050565b5f82905092915050565b613a788383613a64565b67ffffffffffffffff811115613a9157613a906132a0565b5b613a9b8254612b4b565b613aa68282856133ed565b5f601f831160018114613ad3575f8415613ac1578287013590505b613acb858261345b565b865550613b32565b601f198416613ae1866132cd565b5f5b82811015613b0857848901358255600182019150602085019450602081019050613ae3565b86831015613b255784890135613b21601f89168261343f565b8355505b6001600288020188555050505b50505050505050565b828183375f83830152505050565b5f613b548385612695565b9350613b61838584613b3b565b613b6a836126b3565b840190509392505050565b5f608082019050613b885f830188612624565b613b95602083018761267c565b613ba26040830186612624565b8181036060830152613bb5818486613b49565b90509695505050505050565b7f5461736b206e6f74206f70656e202879657429000000000000000000000000005f82015250565b5f613bf5601383612695565b9150613c0082613bc1565b602082019050919050565b5f6020820190508181035f830152613c2281613be9565b9050919050565b7f4120736f6c7574696f6e2068617320616c7265616479206265656e207375626d5f8201527f6974746564000000000000000000000000000000000000000000000000000000602082015250565b5f613c83602583612695565b9150613c8e82613c29565b604082019050919050565b5f6020820190508181035f830152613cb081613c77565b9050919050565b5f606082019050613cca5f830187612624565b613cd7602083018661267c565b8181036040830152613cea818486613b49565b90509594505050505056fea2646970667358221220c53810f7aad53a80aedfb185a196201db9e03759874256396cf260a3e883dc5264736f6c634300081e0033",
			"opcodes": "PUSH1 0x80 PUSH1 0x40 MSTORE PUSH7 0x2386F26FC10000 PUSH1 0x3 SSTORE PUSH7 0x2386F26FC10000 PUSH1 0x4 SSTORE PUSH1 0x64 PUSH1 0x5 SSTORE PUSH1 0xB4 PUSH1 0x6 SSTORE CALLVALUE DUP1 ISZERO PUSH2 0x2F JUMPI PUSH0 PUSH0 REVERT JUMPDEST POP PUSH1 0x40 MLOAD PUSH2 0x3E58 CODESIZE SUB DUP1 PUSH2 0x3E58 DUP4 CODECOPY DUP2 DUP2 ADD PUSH1 0x40 MSTORE DUP2 ADD SWAP1 PUSH2 0x51 SWAP2 SWAP1 PUSH2 0xF5 JUMP JUMPDEST DUP1 PUSH1 0x7 PUSH0 PUSH2 0x100 EXP DUP2 SLOAD DUP2 PUSH20 0xFFFFFFFFFFFFFFFFFFFFFFFFFFFFFFFFFFFFFFFF MUL NOT AND SWAP1 DUP4 PUSH20 0xFFFFFFFFFFFFFFFFFFFFFFFFFFFFFFFFFFFFFFFF AND MUL OR SWAP1 SSTORE POP POP PUSH2 0x120 JUMP JUMPDEST PUSH0 PUSH0 REVERT JUMPDEST PUSH0 PUSH20 0xFFFFFFFFFFFFFFFFFFFFFFFFFFFFFFFFFFFFFFFF DUP3 AND SWAP1 POP SWAP2 SWAP1 POP JUMP JUMPDEST PUSH0 PUSH2 0xC4 DUP3 PUSH2 0x9B JUMP JUMPDEST SWAP1 POP SWAP2 SWAP1 POP JUMP JUMPDEST PUSH2 0xD4 DUP2 PUSH2 0xBA JUMP JUMPDEST DUP2 EQ PUSH2 0xDE JUMPI PUSH0 PUSH0 REVERT JUMPDEST POP JUMP JUMPDEST PUSH0 DUP2 MLOAD SWAP1 POP PUSH2 0xEF DUP2 PUSH2 0xCB JUMP JUMPDEST SWAP3 SWAP2 POP POP JUMP JUMPDEST PUSH0 PUSH1 0x20 DUP3 DUP5 SUB SLT ISZERO PUSH2 0x10A JUMPI PUSH2 0x109 PUSH2 0x97 JUMP JUMPDEST JUMPDEST PUSH0 PUSH2 0x117 DUP5 DUP3 DUP6 ADD PUSH2 0xE1 JUMP JUMPDEST SWAP2 POP POP SWAP3 SWAP2 POP POP JUMP JUMPDEST PUSH2 0x3D2B DUP1 PUSH2 0x12D PUSH0 CODECOPY PUSH0 RETURN INVALID PUSH1 0x80 PUSH1 0x40 MSTORE PUSH1 0x4 CALLDATASIZE LT PUSH2 0xDC JUMPI PUSH0 CALLDATALOAD PUSH1 0xE0 SHR DUP1 PUSH4 0x83B0474D GT PUSH2 0x7E JUMPI DUP1 PUSH4 0xC17A340E GT PUSH2 0x58 JUMPI DUP1 PUSH4 0xC17A340E EQ PUSH2 0x2A0 JUMPI DUP1 PUSH4 0xC4CA280D EQ PUSH2 0x2CA JUMPI DUP1 PUSH4 0xD3B5C016 EQ PUSH2 0x2E6 JUMPI DUP1 PUSH4 0xF96DAE0A EQ PUSH2 0x302 JUMPI PUSH2 0xDC JUMP JUMPDEST DUP1 PUSH4 0x83B0474D EQ PUSH2 0x220 JUMPI DUP1 PUSH4 0x88488C33 EQ PUSH2 0x25C JUMPI DUP1 PUSH4 0x88860835 EQ PUSH2 0x284 JUMPI PUSH2 0xDC JUMP JUMPDEST DUP1 PUSH4 0x276AE811 GT PUSH2 0xBA JUMPI DUP1 PUSH4 0x276AE811 EQ PUSH2 0x188 JUMPI DUP1 PUSH4 0x4AC8A529 EQ PUSH2 0x1B2 JUMPI DUP1 PUSH4 0x56989A83 EQ PUSH2 0x1CE JUMPI DUP1 PUSH4 0x5BF31D4D EQ PUSH2 0x1F6 JUMPI PUSH2 0xDC JUMP JUMPDEST DUP1 PUSH4 0x181E0124 EQ PUSH2 0xE0 JUMPI DUP1 PUSH4 0x1D65E77E EQ PUSH2 0x11C JUMPI DUP1 PUSH4 0x1DF97777 EQ PUSH2 0x160 JUMPI JUMPDEST PUSH0 PUSH0 REVERT JUMPDEST CALLVALUE DUP1 ISZERO PUSH2 0xEB JUMPI PUSH0 PUSH0 REVERT JUMPDEST POP PUSH2 0x106 PUSH1 0x4 DUP1 CALLDATASIZE SUB DUP2 ADD SWAP1 PUSH2 0x101 SWAP2 SWAP1 PUSH2 0x25F9 JUMP JUMPDEST PUSH2 0x32C JUMP JUMPDEST PUSH1 0x40 MLOAD PUSH2 0x113 SWAP2 SWAP1 PUSH2 0x2633 JUMP JUMPDEST PUSH1 0x40 MLOAD DUP1 SWAP2 SUB SWAP1 RETURN JUMPDEST CALLVALUE DUP1 ISZERO PUSH2 0x127 JUMPI PUSH0 PUSH0 REVERT JUMPDEST POP PUSH2 0x142 PUSH1 0x4 DUP1 CALLDATASIZE SUB DUP2 ADD SWAP1 PUSH2 0x13D SWAP2 SWAP1 PUSH2 0x25F9 JUMP JUMPDEST PUSH2 0x3E6 JUMP JUMPDEST PUSH1 0x40 MLOAD PUSH2 0x157 SWAP10 SWAP9 SWAP8 SWAP7 SWAP6 SWAP5 SWAP4 SWAP3 SWAP2 SWAP1 PUSH2 0x2788 JUMP JUMPDEST PUSH1 0x40 MLOAD DUP1 SWAP2 SUB SWAP1 RETURN JUMPDEST CALLVALUE DUP1 ISZERO PUSH2 0x16B JUMPI PUSH0 PUSH0 REVERT JUMPDEST POP PUSH2 0x186 PUSH1 0x4 DUP1 CALLDATASIZE SUB DUP2 ADD SWAP1 PUSH2 0x181 SWAP2 SWAP1 PUSH2 0x284B JUMP JUMPDEST PUSH2 0x626 JUMP JUMPDEST STOP JUMPDEST CALLVALUE DUP1 ISZERO PUSH2 0x193 JUMPI PUSH0 PUSH0 REVERT JUMPDEST POP PUSH2 0x19C PUSH2 0xB6A JUMP JUMPDEST PUSH1 0x40 MLOAD PUSH2 0x1A9 SWAP2 SWAP1 PUSH2 0x2633 JUMP JUMPDEST PUSH1 0x40 MLOAD DUP1 SWAP2 SUB SWAP1 RETURN JUMPDEST PUSH2 0x1CC PUSH1 0x4 DUP1 CALLDATASIZE SUB DUP2 ADD SWAP1 PUSH2 0x1C7 SWAP2 SWAP1 PUSH2 0x25F9 JUMP JUMPDEST PUSH2 0xB70 JUMP JUMPDEST STOP JUMPDEST CALLVALUE DUP1 ISZERO PUSH2 0x1D9 JUMPI PUSH0 PUSH0 REVERT JUMPDEST POP PUSH2 0x1F4 PUSH1 0x4 DUP1 CALLDATASIZE SUB DUP2 ADD SWAP1 PUSH2 0x1EF SWAP2 SWAP1 PUSH2 0x25F9 JUMP JUMPDEST PUSH2 0xE63 JUMP JUMPDEST STOP JUMPDEST CALLVALUE DUP1 ISZERO PUSH2 0x201 JUMPI PUSH0 PUSH0 REVERT JUMPDEST POP PUSH2 0x20A PUSH2 0x1325 JUMP JUMPDEST PUSH1 0x40 MLOAD PUSH2 0x217 SWAP2 SWAP1 PUSH2 0x2633 JUMP JUMPDEST PUSH1 0x40 MLOAD DUP1 SWAP2 SUB SWAP1 RETURN JUMPDEST CALLVALUE DUP1 ISZERO PUSH2 0x22B JUMPI PUSH0 PUSH0 REVERT JUMPDEST POP PUSH2 0x246 PUSH1 0x4 DUP1 CALLDATASIZE SUB DUP2 ADD SWAP1 PUSH2 0x241 SWAP2 SWAP1 PUSH2 0x25F9 JUMP JUMPDEST PUSH2 0x132B JUMP JUMPDEST PUSH1 0x40 MLOAD PUSH2 0x253 SWAP2 SWAP1 PUSH2 0x2633 JUMP JUMPDEST PUSH1 0x40 MLOAD DUP1 SWAP2 SUB SWAP1 RETURN JUMPDEST CALLVALUE DUP1 ISZERO PUSH2 0x267 JUMPI PUSH0 PUSH0 REVERT JUMPDEST POP PUSH2 0x282 PUSH1 0x4 DUP1 CALLDATASIZE SUB DUP2 ADD SWAP1 PUSH2 0x27D SWAP2 SWAP1 PUSH2 0x25F9 JUMP JUMPDEST PUSH2 0x1400 JUMP JUMPDEST STOP JUMPDEST PUSH2 0x29E PUSH1 0x4 DUP1 CALLDATASIZE SUB DUP2 ADD SWAP1 PUSH2 0x299 SWAP2 SWAP1 PUSH2 0x289B JUMP JUMPDEST PUSH2 0x1939 JUMP JUMPDEST STOP JUMPDEST CALLVALUE DUP1 ISZERO PUSH2 0x2AB JUMPI PUSH0 PUSH0 REVERT JUMPDEST POP PUSH2 0x2B4 PUSH2 0x1BC6 JUMP JUMPDEST PUSH1 0x40 MLOAD PUSH2 0x2C1 SWAP2 SWAP1 PUSH2 0x2633 JUMP JUMPDEST PUSH1 0x40 MLOAD DUP1 SWAP2 SUB SWAP1 RETURN JUMPDEST PUSH2 0x2E4 PUSH1 0x4 DUP1 CALLDATASIZE SUB DUP2 ADD SWAP1 PUSH2 0x2DF SWAP2 SWAP1 PUSH2 0x293A JUMP JUMPDEST PUSH2 0x1BCE JUMP JUMPDEST STOP JUMPDEST PUSH2 0x300 PUSH1 0x4 DUP1 CALLDATASIZE SUB DUP2 ADD SWAP1 PUSH2 0x2FB SWAP2 SWAP1 PUSH2 0x2985 JUMP JUMPDEST PUSH2 0x1D24 JUMP JUMPDEST STOP JUMPDEST CALLVALUE DUP1 ISZERO PUSH2 0x30D JUMPI PUSH0 PUSH0 REVERT JUMPDEST POP PUSH2 0x316 PUSH2 0x1F97 JUMP JUMPDEST PUSH1 0x40 MLOAD PUSH2 0x323 SWAP2 SWAP1 PUSH2 0x2A3D JUMP JUMPDEST PUSH1 0x40 MLOAD DUP1 SWAP2 SUB SWAP1 RETURN JUMPDEST PUSH0 PUSH0 DUP3 GT DUP1 ISZERO PUSH2 0x33D JUMPI POP PUSH0 SLOAD DUP3 GT ISZERO JUMPDEST PUSH2 0x37C JUMPI PUSH1 0x40 MLOAD PUSH32 0x8C379A000000000000000000000000000000000000000000000000000000000 DUP2 MSTORE PUSH1 0x4 ADD PUSH2 0x373 SWAP1 PUSH2 0x2AA0 JUMP JUMPDEST PUSH1 0x40 MLOAD DUP1 SWAP2 SUB SWAP1 REVERT JUMPDEST PUSH0 PUSH1 0x1 PUSH0 DUP5 DUP2 MSTORE PUSH1 0x20 ADD SWAP1 DUP2 MSTORE PUSH1 0x20 ADD PUSH0 KECCAK256 PUSH1 0x7 ADD SLOAD EQ DUP1 PUSH2 0x3B1 JUMPI POP TIMESTAMP PUSH1 0x1 PUSH0 DUP5 DUP2 MSTORE PUSH1 0x20 ADD SWAP1 DUP2 MSTORE PUSH1 0x20 ADD PUSH0 KECCAK256 PUSH1 0x7 ADD SLOAD LT JUMPDEST ISZERO PUSH2 0x3BE JUMPI PUSH0 SWAP1 POP PUSH2 0x3E1 JUMP JUMPDEST TIMESTAMP PUSH1 0x1 PUSH0 DUP5 DUP2 MSTORE PUSH1 0x20 ADD SWAP1 DUP2 MSTORE PUSH1 0x20 ADD PUSH0 KECCAK256 PUSH1 0x7 ADD SLOAD PUSH2 0x3DE SWAP2 SWAP1 PUSH2 0x2AEB JUMP JUMPDEST SWAP1 POP JUMPDEST SWAP2 SWAP1 POP JUMP JUMPDEST PUSH0 PUSH0 PUSH0 PUSH0 PUSH1 0x60 DUP1 PUSH0 PUSH0 PUSH0 PUSH0 DUP11 GT DUP1 ISZERO PUSH2 0x400 JUMPI POP PUSH0 SLOAD DUP11 GT ISZERO JUMPDEST PUSH2 0x43F JUMPI PUSH1 0x40 MLOAD PUSH32 0x8C379A000000000000000000000000000000000000000000000000000000000 DUP2 MSTORE PUSH1 0x4 ADD PUSH2 0x436 SWAP1 PUSH2 0x2AA0 JUMP JUMPDEST PUSH1 0x40 MLOAD DUP1 SWAP2 SUB SWAP1 REVERT JUMPDEST PUSH0 PUSH1 0x1 PUSH0 DUP13 DUP2 MSTORE PUSH1 0x20 ADD SWAP1 DUP2 MSTORE PUSH1 0x20 ADD PUSH0 KECCAK256 SWAP1 POP DUP1 PUSH0 ADD PUSH0 SWAP1 SLOAD SWAP1 PUSH2 0x100 EXP SWAP1 DIV PUSH20 0xFFFFFFFFFFFFFFFFFFFFFFFFFFFFFFFFFFFFFFFF AND DUP2 PUSH1 0x1 ADD PUSH0 SWAP1 SLOAD SWAP1 PUSH2 0x100 EXP SWAP1 DIV PUSH20 0xFFFFFFFFFFFFFFFFFFFFFFFFFFFFFFFFFFFFFFFF AND DUP3 PUSH1 0x2 ADD PUSH0 SWAP1 SLOAD SWAP1 PUSH2 0x100 EXP SWAP1 DIV PUSH20 0xFFFFFFFFFFFFFFFFFFFFFFFFFFFFFFFFFFFFFFFF AND DUP4 PUSH1 0x3 ADD SLOAD DUP5 PUSH1 0x4 ADD DUP6 PUSH1 0x5 ADD DUP7 PUSH1 0x6 ADD PUSH0 SWAP1 SLOAD SWAP1 PUSH2 0x100 EXP SWAP1 DIV PUSH1 0xFF AND DUP8 PUSH1 0x7 ADD SLOAD DUP9 PUSH1 0x8 ADD PUSH0 SWAP1 SLOAD SWAP1 PUSH2 0x100 EXP SWAP1 DIV PUSH1 0xFF AND DUP5 DUP1 SLOAD PUSH2 0x4FE SWAP1 PUSH2 0x2B4B JUMP JUMPDEST DUP1 PUSH1 0x1F ADD PUSH1 0x20 DUP1 SWAP2 DIV MUL PUSH1 0x20 ADD PUSH1 0x40 MLOAD SWAP1 DUP2 ADD PUSH1 0x40 MSTORE DUP1 SWAP3 SWAP2 SWAP1 DUP2 DUP2 MSTORE PUSH1 0x20 ADD DUP3 DUP1 SLOAD PUSH2 0x52A SWAP1 PUSH2 0x2B4B JUMP JUMPDEST DUP1 ISZERO PUSH2 0x575 JUMPI DUP1 PUSH1 0x1F LT PUSH2 0x54C JUMPI PUSH2 0x100 DUP1 DUP4 SLOAD DIV MUL DUP4 MSTORE SWAP2 PUSH1 0x20 ADD SWAP2 PUSH2 0x575 JUMP JUMPDEST DUP3 ADD SWAP2 SWAP1 PUSH0 MSTORE PUSH1 0x20 PUSH0 KECCAK256 SWAP1 JUMPDEST DUP2 SLOAD DUP2 MSTORE SWAP1 PUSH1 0x1 ADD SWAP1 PUSH1 0x20 ADD DUP1 DUP4 GT PUSH2 0x558 JUMPI DUP3 SWAP1 SUB PUSH1 0x1F AND DUP3 ADD SWAP2 JUMPDEST POP POP POP POP POP SWAP5 POP DUP4 DUP1 SLOAD PUSH2 0x588 SWAP1 PUSH2 0x2B4B JUMP JUMPDEST DUP1 PUSH1 0x1F ADD PUSH1 0x20 DUP1 SWAP2 DIV MUL PUSH1 0x20 ADD PUSH1 0x40 MLOAD SWAP1 DUP2 ADD PUSH1 0x40 MSTORE DUP1 SWAP3 SWAP2 SWAP1 DUP2 DUP2 MSTORE PUSH1 0x20 ADD DUP3 DUP1 SLOAD PUSH2 0x5B4 SWAP1 PUSH2 0x2B4B JUMP JUMPDEST DUP1 ISZERO PUSH2 0x5FF JUMPI DUP1 PUSH1 0x1F LT PUSH2 0x5D6 JUMPI PUSH2 0x100 DUP1 DUP4 SLOAD DIV MUL DUP4 MSTORE SWAP2 PUSH1 0x20 ADD SWAP2 PUSH2 0x5FF JUMP JUMPDEST DUP3 ADD SWAP2 SWAP1 PUSH0 MSTORE PUSH1 0x20 PUSH0 KECCAK256 SWAP1 JUMPDEST DUP2 SLOAD DUP2 MSTORE SWAP1 PUSH1 0x1 ADD SWAP1 PUSH1 0x20 ADD DUP1 DUP4 GT PUSH2 0x5E2 JUMPI DUP3 SWAP1 SUB PUSH1 0x1F AND DUP3 ADD SWAP2 JUMPDEST POP POP POP POP POP SWAP4 POP SWAP10 POP SWAP10 POP SWAP10 POP SWAP10 POP SWAP10 POP SWAP10 POP SWAP10 POP SWAP10 POP SWAP10 POP POP SWAP2 SWAP4 SWAP6 SWAP8 SWAP10 SWAP1 SWAP3 SWAP5 SWAP7 SWAP9 POP JUMP JUMPDEST PUSH0 DUP4 GT DUP1 ISZERO PUSH2 0x636 JUMPI POP PUSH0 SLOAD DUP4 GT ISZERO JUMPDEST PUSH2 0x675 JUMPI PUSH1 0x40 MLOAD PUSH32 0x8C379A000000000000000000000000000000000000000000000000000000000 DUP2 MSTORE PUSH1 0x4 ADD PUSH2 0x66C SWAP1 PUSH2 0x2AA0 JUMP JUMPDEST PUSH1 0x40 MLOAD DUP1 SWAP2 SUB SWAP1 REVERT JUMPDEST PUSH0 PUSH1 0x2 PUSH0 DUP6 DUP2 MSTORE PUSH1 0x20 ADD SWAP1 DUP2 MSTORE PUSH1 0x20 ADD PUSH0 KECCAK256 SWAP1 POP DUP1 PUSH0 ADD PUSH0 SWAP1 SLOAD SWAP1 PUSH2 0x100 EXP SWAP1 DIV PUSH1 0xFF AND DUP1 ISZERO PUSH2 0x6B3 JUMPI POP DUP1 PUSH1 0x5 ADD PUSH0 SWAP1 SLOAD SWAP1 PUSH2 0x100 EXP SWAP1 DIV PUSH1 0xFF AND ISZERO JUMPDEST PUSH2 0x6F2 JUMPI PUSH1 0x40 MLOAD PUSH32 0x8C379A000000000000000000000000000000000000000000000000000000000 DUP2 MSTORE PUSH1 0x4 ADD PUSH2 0x6E9 SWAP1 PUSH2 0x2BC5 JUMP JUMPDEST PUSH1 0x40 MLOAD DUP1 SWAP2 SUB SWAP1 REVERT JUMPDEST PUSH1 0x6 SLOAD DUP2 PUSH1 0x1 ADD SLOAD PUSH2 0x704 SWAP2 SWAP1 PUSH2 0x2BE3 JUMP JUMPDEST TIMESTAMP GT ISZERO PUSH2 0x746 JUMPI PUSH1 0x40 MLOAD PUSH32 0x8C379A000000000000000000000000000000000000000000000000000000000 DUP2 MSTORE PUSH1 0x4 ADD PUSH2 0x73D SWAP1 PUSH2 0x2C60 JUMP JUMPDEST PUSH1 0x40 MLOAD DUP1 SWAP2 SUB SWAP1 REVERT JUMPDEST PUSH1 0x5 SLOAD DUP4 LT ISZERO PUSH2 0x78B JUMPI PUSH1 0x40 MLOAD PUSH32 0x8C379A000000000000000000000000000000000000000000000000000000000 DUP2 MSTORE PUSH1 0x4 ADD PUSH2 0x782 SWAP1 PUSH2 0x2CC8 JUMP JUMPDEST PUSH1 0x40 MLOAD DUP1 SWAP2 SUB SWAP1 REVERT JUMPDEST PUSH0 DUP2 PUSH1 0x7 ADD PUSH0 CALLER PUSH20 0xFFFFFFFFFFFFFFFFFFFFFFFFFFFFFFFFFFFFFFFF AND PUSH20 0xFFFFFFFFFFFFFFFFFFFFFFFFFFFFFFFFFFFFFFFF AND DUP2 MSTORE PUSH1 0x20 ADD SWAP1 DUP2 MSTORE PUSH1 0x20 ADD PUSH0 KECCAK256 SLOAD EQ PUSH2 0x80C JUMPI PUSH1 0x40 MLOAD PUSH32 0x8C379A000000000000000000000000000000000000000000000000000000000 DUP2 MSTORE PUSH1 0x4 ADD PUSH2 0x803 SWAP1 PUSH2 0x2D30 JUMP JUMPDEST PUSH1 0x40 MLOAD DUP1 SWAP2 SUB SWAP1 REVERT JUMPDEST DUP1 PUSH1 0x6 ADD PUSH0 CALLER PUSH20 0xFFFFFFFFFFFFFFFFFFFFFFFFFFFFFFFFFFFFFFFF AND PUSH20 0xFFFFFFFFFFFFFFFFFFFFFFFFFFFFFFFFFFFFFFFF AND DUP2 MSTORE PUSH1 0x20 ADD SWAP1 DUP2 MSTORE PUSH1 0x20 ADD PUSH0 KECCAK256 PUSH0 SWAP1 SLOAD SWAP1 PUSH2 0x100 EXP SWAP1 DIV PUSH1 0xFF AND ISZERO PUSH2 0x898 JUMPI PUSH1 0x40 MLOAD PUSH32 0x8C379A000000000000000000000000000000000000000000000000000000000 DUP2 MSTORE PUSH1 0x4 ADD PUSH2 0x88F SWAP1 PUSH2 0x2D98 JUMP JUMPDEST PUSH1 0x40 MLOAD DUP1 SWAP2 SUB SWAP1 REVERT JUMPDEST PUSH0 PUSH1 0x7 PUSH0 SWAP1 SLOAD SWAP1 PUSH2 0x100 EXP SWAP1 DIV PUSH20 0xFFFFFFFFFFFFFFFFFFFFFFFFFFFFFFFFFFFFFFFF AND PUSH20 0xFFFFFFFFFFFFFFFFFFFFFFFFFFFFFFFFFFFFFFFF AND PUSH4 0x23B872DD CALLER ADDRESS DUP8 PUSH1 0x40 MLOAD DUP5 PUSH4 0xFFFFFFFF AND PUSH1 0xE0 SHL DUP2 MSTORE PUSH1 0x4 ADD PUSH2 0x8F7 SWAP4 SWAP3 SWAP2 SWAP1 PUSH2 0x2DB6 JUMP JUMPDEST PUSH1 0x20 PUSH1 0x40 MLOAD DUP1 DUP4 SUB DUP2 PUSH0 DUP8 GAS CALL ISZERO DUP1 ISZERO PUSH2 0x913 JUMPI RETURNDATASIZE PUSH0 PUSH0 RETURNDATACOPY RETURNDATASIZE PUSH0 REVERT JUMPDEST POP POP POP POP PUSH1 0x40 MLOAD RETURNDATASIZE PUSH1 0x1F NOT PUSH1 0x1F DUP3 ADD AND DUP3 ADD DUP1 PUSH1 0x40 MSTORE POP DUP2 ADD SWAP1 PUSH2 0x937 SWAP2 SWAP1 PUSH2 0x2DFF JUMP JUMPDEST SWAP1 POP DUP1 PUSH2 0x979 JUMPI PUSH1 0x40 MLOAD PUSH32 0x8C379A000000000000000000000000000000000000000000000000000000000 DUP2 MSTORE PUSH1 0x4 ADD PUSH2 0x970 SWAP1 PUSH2 0x2E74 JUMP JUMPDEST PUSH1 0x40 MLOAD DUP1 SWAP2 SUB SWAP1 REVERT JUMPDEST DUP3 DUP3 PUSH1 0x8 ADD PUSH0 CALLER PUSH20 0xFFFFFFFFFFFFFFFFFFFFFFFFFFFFFFFFFFFFFFFF AND PUSH20 0xFFFFFFFFFFFFFFFFFFFFFFFFFFFFFFFFFFFFFFFF AND DUP2 MSTORE PUSH1 0x20 ADD SWAP1 DUP2 MSTORE PUSH1 0x20 ADD PUSH0 KECCAK256 PUSH0 PUSH2 0x100 EXP DUP2 SLOAD DUP2 PUSH1 0xFF MUL NOT AND SWAP1 DUP4 ISZERO ISZERO MUL OR SWAP1 SSTORE POP DUP4 DUP3 PUSH1 0x7 ADD PUSH0 CALLER PUSH20 0xFFFFFFFFFFFFFFFFFFFFFFFFFFFFFFFFFFFFFFFF AND PUSH20 0xFFFFFFFFFFFFFFFFFFFFFFFFFFFFFFFFFFFFFFFF AND DUP2 MSTORE PUSH1 0x20 ADD SWAP1 DUP2 MSTORE PUSH1 0x20 ADD PUSH0 KECCAK256 DUP2 SWAP1 SSTORE POP DUP4 DUP3 PUSH1 0x4 ADD PUSH0 DUP3 DUP3 SLOAD PUSH2 0xA26 SWAP2 SWAP1 PUSH2 0x2BE3 JUMP JUMPDEST SWAP3 POP POP DUP2 SWAP1 SSTORE POP DUP2 PUSH1 0x9 ADD CALLER SWAP1 DUP1 PUSH1 0x1 DUP2 SLOAD ADD DUP1 DUP3 SSTORE DUP1 SWAP2 POP POP PUSH1 0x1 SWAP1 SUB SWAP1 PUSH0 MSTORE PUSH1 0x20 PUSH0 KECCAK256 ADD PUSH0 SWAP1 SWAP2 SWAP1 SWAP2 SWAP1 SWAP2 PUSH2 0x100 EXP DUP2 SLOAD DUP2 PUSH20 0xFFFFFFFFFFFFFFFFFFFFFFFFFFFFFFFFFFFFFFFF MUL NOT AND SWAP1 DUP4 PUSH20 0xFFFFFFFFFFFFFFFFFFFFFFFFFFFFFFFFFFFFFFFF AND MUL OR SWAP1 SSTORE POP PUSH1 0x1 DUP3 PUSH1 0x6 ADD PUSH0 CALLER PUSH20 0xFFFFFFFFFFFFFFFFFFFFFFFFFFFFFFFFFFFFFFFF AND PUSH20 0xFFFFFFFFFFFFFFFFFFFFFFFFFFFFFFFFFFFFFFFF AND DUP2 MSTORE PUSH1 0x20 ADD SWAP1 DUP2 MSTORE PUSH1 0x20 ADD PUSH0 KECCAK256 PUSH0 PUSH2 0x100 EXP DUP2 SLOAD DUP2 PUSH1 0xFF MUL NOT AND SWAP1 DUP4 ISZERO ISZERO MUL OR SWAP1 SSTORE POP DUP3 ISZERO PUSH2 0xB0B JUMPI DUP4 DUP3 PUSH1 0x2 ADD PUSH0 DUP3 DUP3 SLOAD PUSH2 0xAFF SWAP2 SWAP1 PUSH2 0x2BE3 JUMP JUMPDEST SWAP3 POP POP DUP2 SWAP1 SSTORE POP PUSH2 0xB26 JUMP JUMPDEST DUP4 DUP3 PUSH1 0x3 ADD PUSH0 DUP3 DUP3 SLOAD PUSH2 0xB1E SWAP2 SWAP1 PUSH2 0x2BE3 JUMP JUMPDEST SWAP3 POP POP DUP2 SWAP1 SSTORE POP JUMPDEST PUSH32 0x804CB3F45E5253AC34847987D4D9AE8CFA21A176F777ACB99B5988A4E01F8CFD DUP6 CALLER DUP6 DUP8 PUSH1 0x40 MLOAD PUSH2 0xB5B SWAP5 SWAP4 SWAP3 SWAP2 SWAP1 PUSH2 0x2E92 JUMP JUMPDEST PUSH1 0x40 MLOAD DUP1 SWAP2 SUB SWAP1 LOG1 POP POP POP POP POP JUMP JUMPDEST PUSH1 0x5 SLOAD DUP2 JUMP JUMPDEST PUSH0 DUP2 GT DUP1 ISZERO PUSH2 0xB80 JUMPI POP PUSH0 SLOAD DUP2 GT ISZERO JUMPDEST PUSH2 0xBBF JUMPI PUSH1 0x40 MLOAD PUSH32 0x8C379A000000000000000000000000000000000000000000000000000000000 DUP2 MSTORE PUSH1 0x4 ADD PUSH2 0xBB6 SWAP1 PUSH2 0x2AA0 JUMP JUMPDEST PUSH1 0x40 MLOAD DUP1 SWAP2 SUB SWAP1 REVERT JUMPDEST PUSH0 PUSH1 0x1 PUSH0 DUP4 DUP2 MSTORE PUSH1 0x20 ADD SWAP1 DUP2 MSTORE PUSH1 0x20 ADD PUSH0 KECCAK256 SWAP1 POP PUSH1 0x2 PUSH1 0x5 DUP2 GT ISZERO PUSH2 0xBE7 JUMPI PUSH2 0xBE6 PUSH2 0x2715 JUMP JUMPDEST JUMPDEST DUP2 PUSH1 0x8 ADD PUSH0 SWAP1 SLOAD SWAP1 PUSH2 0x100 EXP SWAP1 DIV PUSH1 0xFF AND PUSH1 0x5 DUP2 GT ISZERO PUSH2 0xC0A JUMPI PUSH2 0xC09 PUSH2 0x2715 JUMP JUMPDEST JUMPDEST EQ PUSH2 0xC4A JUMPI PUSH1 0x40 MLOAD PUSH32 0x8C379A000000000000000000000000000000000000000000000000000000000 DUP2 MSTORE PUSH1 0x4 ADD PUSH2 0xC41 SWAP1 PUSH2 0x2F1F JUMP JUMPDEST PUSH1 0x40 MLOAD DUP1 SWAP2 SUB SWAP1 REVERT JUMPDEST DUP1 PUSH1 0x7 ADD SLOAD TIMESTAMP LT PUSH2 0xC90 JUMPI PUSH1 0x40 MLOAD PUSH32 0x8C379A000000000000000000000000000000000000000000000000000000000 DUP2 MSTORE PUSH1 0x4 ADD PUSH2 0xC87 SWAP1 PUSH2 0x2F87 JUMP JUMPDEST PUSH1 0x40 MLOAD DUP1 SWAP2 SUB SWAP1 REVERT JUMPDEST PUSH1 0x4 SLOAD CALLVALUE EQ PUSH2 0xCD4 JUMPI PUSH1 0x40 MLOAD PUSH32 0x8C379A000000000000000000000000000000000000000000000000000000000 DUP2 MSTORE PUSH1 0x4 ADD PUSH2 0xCCB SWAP1 PUSH2 0x2FEF JUMP JUMPDEST PUSH1 0x40 MLOAD DUP1 SWAP2 SUB SWAP1 REVERT JUMPDEST PUSH1 0x2 PUSH0 DUP4 DUP2 MSTORE PUSH1 0x20 ADD SWAP1 DUP2 MSTORE PUSH1 0x20 ADD PUSH0 KECCAK256 PUSH0 ADD PUSH0 SWAP1 SLOAD SWAP1 PUSH2 0x100 EXP SWAP1 DIV PUSH1 0xFF AND ISZERO DUP1 PUSH2 0xD1D JUMPI POP PUSH1 0x2 PUSH0 DUP4 DUP2 MSTORE PUSH1 0x20 ADD SWAP1 DUP2 MSTORE PUSH1 0x20 ADD PUSH0 KECCAK256 PUSH1 0x5 ADD PUSH0 SWAP1 SLOAD SWAP1 PUSH2 0x100 EXP SWAP1 DIV PUSH1 0xFF AND JUMPDEST PUSH2 0xD5C JUMPI PUSH1 0x40 MLOAD PUSH32 0x8C379A000000000000000000000000000000000000000000000000000000000 DUP2 MSTORE PUSH1 0x4 ADD PUSH2 0xD53 SWAP1 PUSH2 0x3057 JUMP JUMPDEST PUSH1 0x40 MLOAD DUP1 SWAP2 SUB SWAP1 REVERT JUMPDEST PUSH1 0x3 DUP2 PUSH1 0x8 ADD PUSH0 PUSH2 0x100 EXP DUP2 SLOAD DUP2 PUSH1 0xFF MUL NOT AND SWAP1 DUP4 PUSH1 0x5 DUP2 GT ISZERO PUSH2 0xD83 JUMPI PUSH2 0xD82 PUSH2 0x2715 JUMP JUMPDEST JUMPDEST MUL OR SWAP1 SSTORE POP PUSH0 PUSH1 0x2 PUSH0 DUP5 DUP2 MSTORE PUSH1 0x20 ADD SWAP1 DUP2 MSTORE PUSH1 0x20 ADD PUSH0 KECCAK256 SWAP1 POP PUSH1 0x1 DUP2 PUSH0 ADD PUSH0 PUSH2 0x100 EXP DUP2 SLOAD DUP2 PUSH1 0xFF MUL NOT AND SWAP1 DUP4 ISZERO ISZERO MUL OR SWAP1 SSTORE POP CALLER DUP2 PUSH0 ADD PUSH1 0x1 PUSH2 0x100 EXP DUP2 SLOAD DUP2 PUSH20 0xFFFFFFFFFFFFFFFFFFFFFFFFFFFFFFFFFFFFFFFF MUL NOT AND SWAP1 DUP4 PUSH20 0xFFFFFFFFFFFFFFFFFFFFFFFFFFFFFFFFFFFFFFFF AND MUL OR SWAP1 SSTORE POP TIMESTAMP DUP2 PUSH1 0x1 ADD DUP2 SWAP1 SSTORE POP PUSH0 DUP2 PUSH1 0x5 ADD PUSH0 PUSH2 0x100 EXP DUP2 SLOAD DUP2 PUSH1 0xFF MUL NOT AND SWAP1 DUP4 ISZERO ISZERO MUL OR SWAP1 SSTORE POP PUSH32 0x1D2F4ADE11FCEA3A321EB215E6561C2F95D30D0F1BCF7AD3D715932B61D0DA9A DUP4 CALLER CALLVALUE DUP5 PUSH1 0x1 ADD SLOAD PUSH1 0x40 MLOAD PUSH2 0xE56 SWAP5 SWAP4 SWAP3 SWAP2 SWAP1 PUSH2 0x3075 JUMP JUMPDEST PUSH1 0x40 MLOAD DUP1 SWAP2 SUB SWAP1 LOG1 POP POP POP JUMP JUMPDEST PUSH0 DUP2 GT DUP1 ISZERO PUSH2 0xE73 JUMPI POP PUSH0 SLOAD DUP2 GT ISZERO JUMPDEST PUSH2 0xEB2 JUMPI PUSH1 0x40 MLOAD PUSH32 0x8C379A000000000000000000000000000000000000000000000000000000000 DUP2 MSTORE PUSH1 0x4 ADD PUSH2 0xEA9 SWAP1 PUSH2 0x2AA0 JUMP JUMPDEST PUSH1 0x40 MLOAD DUP1 SWAP2 SUB SWAP1 REVERT JUMPDEST PUSH0 PUSH1 0x2 PUSH0 DUP4 DUP2 MSTORE PUSH1 0x20 ADD SWAP1 DUP2 MSTORE PUSH1 0x20 ADD PUSH0 KECCAK256 SWAP1 POP PUSH0 PUSH1 0x1 PUSH0 DUP5 DUP2 MSTORE PUSH1 0x20 ADD SWAP1 DUP2 MSTORE PUSH1 0x20 ADD PUSH0 KECCAK256 SWAP1 POP DUP2 PUSH0 ADD PUSH0 SWAP1 SLOAD SWAP1 PUSH2 0x100 EXP SWAP1 DIV PUSH1 0xFF AND PUSH2 0xF29 JUMPI PUSH1 0x40 MLOAD PUSH32 0x8C379A000000000000000000000000000000000000000000000000000000000 DUP2 MSTORE PUSH1 0x4 ADD PUSH2 0xF20 SWAP1 PUSH2 0x3102 JUMP JUMPDEST PUSH1 0x40 MLOAD DUP1 SWAP2 SUB SWAP1 REVERT JUMPDEST DUP2 PUSH1 0x5 ADD PUSH0 SWAP1 SLOAD SWAP1 PUSH2 0x100 EXP SWAP1 DIV PUSH1 0xFF AND ISZERO PUSH2 0xF7A JUMPI PUSH1 0x40 MLOAD PUSH32 0x8C379A000000000000000000000000000000000000000000000000000000000 DUP2 MSTORE PUSH1 0x4 ADD PUSH2 0xF71 SWAP1 PUSH2 0x316A JUMP JUMPDEST PUSH1 0x40 MLOAD DUP1 SWAP2 SUB SWAP1 REVERT JUMPDEST PUSH1 0x6 SLOAD DUP3 PUSH1 0x1 ADD SLOAD PUSH2 0xF8C SWAP2 SWAP1 PUSH2 0x2BE3 JUMP JUMPDEST TIMESTAMP GT PUSH2 0xFCD JUMPI PUSH1 0x40 MLOAD PUSH32 0x8C379A000000000000000000000000000000000000000000000000000000000 DUP2 MSTORE PUSH1 0x4 ADD PUSH2 0xFC4 SWAP1 PUSH2 0x31D2 JUMP JUMPDEST PUSH1 0x40 MLOAD DUP1 SWAP2 SUB SWAP1 REVERT JUMPDEST PUSH1 0x1 DUP3 PUSH1 0x5 ADD PUSH0 PUSH2 0x100 EXP DUP2 SLOAD DUP2 PUSH1 0xFF MUL NOT AND SWAP1 DUP4 ISZERO ISZERO MUL OR SWAP1 SSTORE POP PUSH0 DUP3 PUSH1 0x2 ADD SLOAD SWAP1 POP PUSH0 DUP4 PUSH1 0x3 ADD SLOAD SWAP1 POP DUP1 DUP3 LT PUSH2 0x1019 JUMPI PUSH2 0x100B DUP6 PUSH1 0x1 PUSH2 0x1FBC JUMP JUMPDEST PUSH2 0x1014 DUP6 PUSH2 0x2371 JUMP JUMPDEST PUSH2 0x1024 JUMP JUMPDEST PUSH2 0x1023 DUP6 PUSH0 PUSH2 0x1FBC JUMP JUMPDEST JUMPDEST PUSH0 PUSH0 SWAP1 POP JUMPDEST DUP5 PUSH1 0x9 ADD DUP1 SLOAD SWAP1 POP DUP2 LT ISZERO PUSH2 0x11B5 JUMPI PUSH0 DUP6 PUSH1 0x9 ADD DUP3 DUP2 SLOAD DUP2 LT PUSH2 0x104F JUMPI PUSH2 0x104E PUSH2 0x31F0 JUMP JUMPDEST JUMPDEST SWAP1 PUSH0 MSTORE PUSH1 0x20 PUSH0 KECCAK256 ADD PUSH0 SWAP1 SLOAD SWAP1 PUSH2 0x100 EXP SWAP1 DIV PUSH20 0xFFFFFFFFFFFFFFFFFFFFFFFFFFFFFFFFFFFFFFFF AND SWAP1 POP PUSH0 DUP7 PUSH1 0x7 ADD PUSH0 DUP4 PUSH20 0xFFFFFFFFFFFFFFFFFFFFFFFFFFFFFFFFFFFFFFFF AND PUSH20 0xFFFFFFFFFFFFFFFFFFFFFFFFFFFFFFFFFFFFFFFF AND DUP2 MSTORE PUSH1 0x20 ADD SWAP1 DUP2 MSTORE PUSH1 0x20 ADD PUSH0 KECCAK256 SLOAD SWAP1 POP PUSH0 DUP2 GT ISZERO PUSH2 0x11A6 JUMPI PUSH0 DUP8 PUSH1 0x7 ADD PUSH0 DUP5 PUSH20 0xFFFFFFFFFFFFFFFFFFFFFFFFFFFFFFFFFFFFFFFF AND PUSH20 0xFFFFFFFFFFFFFFFFFFFFFFFFFFFFFFFFFFFFFFFF AND DUP2 MSTORE PUSH1 0x20 ADD SWAP1 DUP2 MSTORE PUSH1 0x20 ADD PUSH0 KECCAK256 DUP2 SWAP1 SSTORE POP PUSH1 0x7 PUSH0 SWAP1 SLOAD SWAP1 PUSH2 0x100 EXP SWAP1 DIV PUSH20 0xFFFFFFFFFFFFFFFFFFFFFFFFFFFFFFFFFFFFFFFF AND PUSH20 0xFFFFFFFFFFFFFFFFFFFFFFFFFFFFFFFFFFFFFFFF AND PUSH4 0xA9059CBB DUP4 DUP4 PUSH1 0x40 MLOAD DUP4 PUSH4 0xFFFFFFFF AND PUSH1 0xE0 SHL DUP2 MSTORE PUSH1 0x4 ADD PUSH2 0x1164 SWAP3 SWAP2 SWAP1 PUSH2 0x321D JUMP JUMPDEST PUSH1 0x20 PUSH1 0x40 MLOAD DUP1 DUP4 SUB DUP2 PUSH0 DUP8 GAS CALL ISZERO DUP1 ISZERO PUSH2 0x1180 JUMPI RETURNDATASIZE PUSH0 PUSH0 RETURNDATACOPY RETURNDATASIZE PUSH0 REVERT JUMPDEST POP POP POP POP PUSH1 0x40 MLOAD RETURNDATASIZE PUSH1 0x1F NOT PUSH1 0x1F DUP3 ADD AND DUP3 ADD DUP1 PUSH1 0x40 MSTORE POP DUP2 ADD SWAP1 PUSH2 0x11A4 SWAP2 SWAP1 PUSH2 0x2DFF JUMP JUMPDEST POP JUMPDEST POP POP DUP1 DUP1 PUSH1 0x1 ADD SWAP2 POP POP PUSH2 0x1029 JUMP JUMPDEST POP DUP1 DUP3 LT ISZERO PUSH2 0x12E2 JUMPI PUSH1 0x5 DUP4 PUSH1 0x8 ADD PUSH0 PUSH2 0x100 EXP DUP2 SLOAD DUP2 PUSH1 0xFF MUL NOT AND SWAP1 DUP4 PUSH1 0x5 DUP2 GT ISZERO PUSH2 0x11E5 JUMPI PUSH2 0x11E4 PUSH2 0x2715 JUMP JUMPDEST JUMPDEST MUL OR SWAP1 SSTORE POP PUSH0 PUSH0 DUP2 SLOAD DUP1 SWAP3 SWAP2 SWAP1 PUSH2 0x11FB SWAP1 PUSH2 0x3244 JUMP JUMPDEST SWAP2 SWAP1 POP SSTORE POP PUSH0 PUSH1 0x1 PUSH0 PUSH0 SLOAD DUP2 MSTORE PUSH1 0x20 ADD SWAP1 DUP2 MSTORE PUSH1 0x20 ADD PUSH0 KECCAK256 SWAP1 POP DUP4 PUSH0 ADD PUSH0 SWAP1 SLOAD SWAP1 PUSH2 0x100 EXP SWAP1 DIV PUSH20 0xFFFFFFFFFFFFFFFFFFFFFFFFFFFFFFFFFFFFFFFF AND DUP2 PUSH0 ADD PUSH0 PUSH2 0x100 EXP DUP2 SLOAD DUP2 PUSH20 0xFFFFFFFFFFFFFFFFFFFFFFFFFFFFFFFFFFFFFFFF MUL NOT AND SWAP1 DUP4 PUSH20 0xFFFFFFFFFFFFFFFFFFFFFFFFFFFFFFFFFFFFFFFF AND MUL OR SWAP1 SSTORE POP DUP4 PUSH1 0x3 ADD SLOAD DUP2 PUSH1 0x3 ADD DUP2 SWAP1 SSTORE POP DUP4 PUSH1 0x4 ADD DUP2 PUSH1 0x4 ADD SWAP1 DUP2 PUSH2 0x1299 SWAP2 SWAP1 PUSH2 0x3476 JUMP JUMPDEST POP PUSH0 DUP2 PUSH1 0x6 ADD PUSH0 PUSH2 0x100 EXP DUP2 SLOAD DUP2 PUSH1 0xFF MUL NOT AND SWAP1 DUP4 ISZERO ISZERO MUL OR SWAP1 SSTORE POP PUSH0 DUP2 PUSH1 0x8 ADD PUSH0 PUSH2 0x100 EXP DUP2 SLOAD DUP2 PUSH1 0xFF MUL NOT AND SWAP1 DUP4 PUSH1 0x5 DUP2 GT ISZERO PUSH2 0x12DB JUMPI PUSH2 0x12DA PUSH2 0x2715 JUMP JUMPDEST JUMPDEST MUL OR SWAP1 SSTORE POP POP JUMPDEST PUSH32 0x6094CAF45C2924DA34DD706C33F09EC619587BAC9144486D8F82B0316E47E7B3 DUP6 DUP3 DUP5 LT ISZERO PUSH1 0x40 MLOAD PUSH2 0x1316 SWAP3 SWAP2 SWAP1 PUSH2 0x355B JUMP JUMPDEST PUSH1 0x40 MLOAD DUP1 SWAP2 SUB SWAP1 LOG1 POP POP POP POP POP JUMP JUMPDEST PUSH1 0x6 SLOAD DUP2 JUMP JUMPDEST PUSH0 PUSH0 DUP3 GT DUP1 ISZERO PUSH2 0x133C JUMPI POP PUSH0 SLOAD DUP3 GT ISZERO JUMPDEST PUSH2 0x137B JUMPI PUSH1 0x40 MLOAD PUSH32 0x8C379A000000000000000000000000000000000000000000000000000000000 DUP2 MSTORE PUSH1 0x4 ADD PUSH2 0x1372 SWAP1 PUSH2 0x2AA0 JUMP JUMPDEST PUSH1 0x40 MLOAD DUP1 SWAP2 SUB SWAP1 REVERT JUMPDEST PUSH0 PUSH1 0x2 PUSH0 DUP5 DUP2 MSTORE PUSH1 0x20 ADD SWAP1 DUP2 MSTORE PUSH1 0x20 ADD PUSH0 KECCAK256 PUSH1 0x1 ADD SLOAD EQ DUP1 PUSH2 0x13BE JUMPI POP TIMESTAMP PUSH1 0x6 SLOAD PUSH1 0x2 PUSH0 DUP6 DUP2 MSTORE PUSH1 0x20 ADD SWAP1 DUP2 MSTORE PUSH1 0x20 ADD PUSH0 KECCAK256 PUSH1 0x1 ADD SLOAD PUSH2 0x13BB SWAP2 SWAP1 PUSH2 0x2BE3 JUMP JUMPDEST LT ISZERO JUMPDEST ISZERO PUSH2 0x13CB JUMPI PUSH0 SWAP1 POP PUSH2 0x13FB JUMP JUMPDEST PUSH1 0x6 SLOAD PUSH1 0x2 PUSH0 DUP5 DUP2 MSTORE PUSH1 0x20 ADD SWAP1 DUP2 MSTORE PUSH1 0x20 ADD PUSH0 KECCAK256 PUSH1 0x1 ADD SLOAD PUSH2 0x13ED SWAP2 SWAP1 PUSH2 0x2BE3 JUMP JUMPDEST TIMESTAMP PUSH2 0x13F8 SWAP2 SWAP1 PUSH2 0x2AEB JUMP JUMPDEST SWAP1 POP JUMPDEST SWAP2 SWAP1 POP JUMP JUMPDEST PUSH0 DUP2 GT DUP1 ISZERO PUSH2 0x1410 JUMPI POP PUSH0 SLOAD DUP2 GT ISZERO JUMPDEST PUSH2 0x144F JUMPI PUSH1 0x40 MLOAD PUSH32 0x8C379A000000000000000000000000000000000000000000000000000000000 DUP2 MSTORE PUSH1 0x4 ADD PUSH2 0x1446 SWAP1 PUSH2 0x2AA0 JUMP JUMPDEST PUSH1 0x40 MLOAD DUP1 SWAP2 SUB SWAP1 REVERT JUMPDEST PUSH0 PUSH1 0x1 PUSH0 DUP4 DUP2 MSTORE PUSH1 0x20 ADD SWAP1 DUP2 MSTORE PUSH1 0x20 ADD PUSH0 KECCAK256 SWAP1 POP PUSH1 0x2 PUSH1 0x5 DUP2 GT ISZERO PUSH2 0x1477 JUMPI PUSH2 0x1476 PUSH2 0x2715 JUMP JUMPDEST JUMPDEST DUP2 PUSH1 0x8 ADD PUSH0 SWAP1 SLOAD SWAP1 PUSH2 0x100 EXP SWAP1 DIV PUSH1 0xFF AND PUSH1 0x5 DUP2 GT ISZERO PUSH2 0x149A JUMPI PUSH2 0x1499 PUSH2 0x2715 JUMP JUMPDEST JUMPDEST EQ PUSH2 0x14DA JUMPI PUSH1 0x40 MLOAD PUSH32 0x8C379A000000000000000000000000000000000000000000000000000000000 DUP2 MSTORE PUSH1 0x4 ADD PUSH2 0x14D1 SWAP1 PUSH2 0x35CC JUMP JUMPDEST PUSH1 0x40 MLOAD DUP1 SWAP2 SUB SWAP1 REVERT JUMPDEST DUP1 PUSH1 0x7 ADD SLOAD TIMESTAMP GT PUSH2 0x1520 JUMPI PUSH1 0x40 MLOAD PUSH32 0x8C379A000000000000000000000000000000000000000000000000000000000 DUP2 MSTORE PUSH1 0x4 ADD PUSH2 0x1517 SWAP1 PUSH2 0x3634 JUMP JUMPDEST PUSH1 0x40 MLOAD DUP1 SWAP2 SUB SWAP1 REVERT JUMPDEST PUSH0 PUSH20 0xFFFFFFFFFFFFFFFFFFFFFFFFFFFFFFFFFFFFFFFF AND DUP2 PUSH1 0x2 ADD PUSH0 SWAP1 SLOAD SWAP1 PUSH2 0x100 EXP SWAP1 DIV PUSH20 0xFFFFFFFFFFFFFFFFFFFFFFFFFFFFFFFFFFFFFFFF AND PUSH20 0xFFFFFFFFFFFFFFFFFFFFFFFFFFFFFFFFFFFFFFFF AND SUB PUSH2 0x15B1 JUMPI PUSH1 0x40 MLOAD PUSH32 0x8C379A000000000000000000000000000000000000000000000000000000000 DUP2 MSTORE PUSH1 0x4 ADD PUSH2 0x15A8 SWAP1 PUSH2 0x369C JUMP JUMPDEST PUSH1 0x40 MLOAD DUP1 SWAP2 SUB SWAP1 REVERT JUMPDEST PUSH1 0x2 PUSH0 DUP4 DUP2 MSTORE PUSH1 0x20 ADD SWAP1 DUP2 MSTORE PUSH1 0x20 ADD PUSH0 KECCAK256 PUSH0 ADD PUSH0 SWAP1 SLOAD SWAP1 PUSH2 0x100 EXP SWAP1 DIV PUSH1 0xFF AND ISZERO PUSH2 0x1611 JUMPI PUSH1 0x40 MLOAD PUSH32 0x8C379A000000000000000000000000000000000000000000000000000000000 DUP2 MSTORE PUSH1 0x4 ADD PUSH2 0x1608 SWAP1 PUSH2 0x3704 JUMP JUMPDEST PUSH1 0x40 MLOAD DUP1 SWAP2 SUB SWAP1 REVERT JUMPDEST DUP1 PUSH1 0x6 ADD PUSH0 SWAP1 SLOAD SWAP1 PUSH2 0x100 EXP SWAP1 DIV PUSH1 0xFF AND ISZERO PUSH2 0x1782 JUMPI PUSH1 0x4 DUP2 PUSH1 0x8 ADD PUSH0 PUSH2 0x100 EXP DUP2 SLOAD DUP2 PUSH1 0xFF MUL NOT AND SWAP1 DUP4 PUSH1 0x5 DUP2 GT ISZERO PUSH2 0x164E JUMPI PUSH2 0x164D PUSH2 0x2715 JUMP JUMPDEST JUMPDEST MUL OR SWAP1 SSTORE POP PUSH0 PUSH1 0x64 PUSH1 0x5A DUP4 PUSH1 0x3 ADD SLOAD PUSH2 0x1667 SWAP2 SWAP1 PUSH2 0x3722 JUMP JUMPDEST PUSH2 0x1671 SWAP2 SWAP1 PUSH2 0x3790 JUMP JUMPDEST SWAP1 POP PUSH0 PUSH1 0x64 PUSH1 0xA DUP5 PUSH1 0x3 ADD SLOAD PUSH2 0x1687 SWAP2 SWAP1 PUSH2 0x3722 JUMP JUMPDEST PUSH2 0x1691 SWAP2 SWAP1 PUSH2 0x3790 JUMP JUMPDEST SWAP1 POP DUP3 PUSH1 0x1 ADD PUSH0 SWAP1 SLOAD SWAP1 PUSH2 0x100 EXP SWAP1 DIV PUSH20 0xFFFFFFFFFFFFFFFFFFFFFFFFFFFFFFFFFFFFFFFF AND PUSH20 0xFFFFFFFFFFFFFFFFFFFFFFFFFFFFFFFFFFFFFFFF AND PUSH2 0x8FC PUSH1 0x3 SLOAD DUP5 PUSH2 0x16DE SWAP2 SWAP1 PUSH2 0x2BE3 JUMP JUMPDEST SWAP1 DUP2 ISZERO MUL SWAP1 PUSH1 0x40 MLOAD PUSH0 PUSH1 0x40 MLOAD DUP1 DUP4 SUB DUP2 DUP6 DUP9 DUP9 CALL SWAP4 POP POP POP POP ISZERO DUP1 ISZERO PUSH2 0x1706 JUMPI RETURNDATASIZE PUSH0 PUSH0 RETURNDATACOPY RETURNDATASIZE PUSH0 REVERT JUMPDEST POP DUP3 PUSH1 0x2 ADD PUSH0 SWAP1 SLOAD SWAP1 PUSH2 0x100 EXP SWAP1 DIV PUSH20 0xFFFFFFFFFFFFFFFFFFFFFFFFFFFFFFFFFFFFFFFF AND PUSH20 0xFFFFFFFFFFFFFFFFFFFFFFFFFFFFFFFFFFFFFFFF AND PUSH2 0x8FC PUSH1 0x4 SLOAD DUP4 PUSH2 0x1752 SWAP2 SWAP1 PUSH2 0x2BE3 JUMP JUMPDEST SWAP1 DUP2 ISZERO MUL SWAP1 PUSH1 0x40 MLOAD PUSH0 PUSH1 0x40 MLOAD DUP1 DUP4 SUB DUP2 DUP6 DUP9 DUP9 CALL SWAP4 POP POP POP POP ISZERO DUP1 ISZERO PUSH2 0x177A JUMPI RETURNDATASIZE PUSH0 PUSH0 RETURNDATACOPY RETURNDATASIZE PUSH0 REVERT JUMPDEST POP POP POP PUSH2 0x18EC JUMP JUMPDEST DUP1 PUSH1 0x2 ADD PUSH0 SWAP1 SLOAD SWAP1 PUSH2 0x100 EXP SWAP1 DIV PUSH20 0xFFFFFFFFFFFFFFFFFFFFFFFFFFFFFFFFFFFFFFFF AND PUSH20 0xFFFFFFFFFFFFFFFFFFFFFFFFFFFFFFFFFFFFFFFF AND PUSH2 0x8FC PUSH1 0x4 SLOAD PUSH1 0x3 SLOAD PUSH2 0x17CF SWAP2 SWAP1 PUSH2 0x2BE3 JUMP JUMPDEST SWAP1 DUP2 ISZERO MUL SWAP1 PUSH1 0x40 MLOAD PUSH0 PUSH1 0x40 MLOAD DUP1 DUP4 SUB DUP2 DUP6 DUP9 DUP9 CALL SWAP4 POP POP POP POP ISZERO DUP1 ISZERO PUSH2 0x17F7 JUMPI RETURNDATASIZE PUSH0 PUSH0 RETURNDATACOPY RETURNDATASIZE PUSH0 REVERT JUMPDEST POP PUSH0 DUP2 PUSH1 0x8 ADD PUSH0 PUSH2 0x100 EXP DUP2 SLOAD DUP2 PUSH1 0xFF MUL NOT AND SWAP1 DUP4 PUSH1 0x5 DUP2 GT ISZERO PUSH2 0x181E JUMPI PUSH2 0x181D PUSH2 0x2715 JUMP JUMPDEST JUMPDEST MUL OR SWAP1 SSTORE POP PUSH0 DUP2 PUSH1 0x1 ADD PUSH0 PUSH2 0x100 EXP DUP2 SLOAD DUP2 PUSH20 0xFFFFFFFFFFFFFFFFFFFFFFFFFFFFFFFFFFFFFFFF MUL NOT AND SWAP1 DUP4 PUSH20 0xFFFFFFFFFFFFFFFFFFFFFFFFFFFFFFFFFFFFFFFF AND MUL OR SWAP1 SSTORE POP PUSH0 DUP2 PUSH1 0x2 ADD PUSH0 PUSH2 0x100 EXP DUP2 SLOAD DUP2 PUSH20 0xFFFFFFFFFFFFFFFFFFFFFFFFFFFFFFFFFFFFFFFF MUL NOT AND SWAP1 DUP4 PUSH20 0xFFFFFFFFFFFFFFFFFFFFFFFFFFFFFFFFFFFFFFFF AND MUL OR SWAP1 SSTORE POP PUSH1 0x40 MLOAD DUP1 PUSH1 0x20 ADD PUSH1 0x40 MSTORE DUP1 PUSH0 DUP2 MSTORE POP DUP2 PUSH1 0x5 ADD SWAP1 DUP2 PUSH2 0x18C6 SWAP2 SWAP1 PUSH2 0x37C0 JUMP JUMPDEST POP PUSH0 DUP2 PUSH1 0x7 ADD DUP2 SWAP1 SSTORE POP PUSH0 DUP2 PUSH1 0x6 ADD PUSH0 PUSH2 0x100 EXP DUP2 SLOAD DUP2 PUSH1 0xFF MUL NOT AND SWAP1 DUP4 ISZERO ISZERO MUL OR SWAP1 SSTORE POP JUMPDEST PUSH32 0x9DEADA0165C5E1EAC62423DBF1DD30115314B076A9D6D3868DAF316F1CB285E9 DUP3 DUP3 PUSH1 0x6 ADD PUSH0 SWAP1 SLOAD SWAP1 PUSH2 0x100 EXP SWAP1 DIV PUSH1 0xFF AND PUSH1 0x40 MLOAD PUSH2 0x192D SWAP3 SWAP2 SWAP1 PUSH2 0x355B JUMP JUMPDEST PUSH1 0x40 MLOAD DUP1 SWAP2 SUB SWAP1 LOG1 POP POP JUMP JUMPDEST PUSH0 DUP3 GT DUP1 ISZERO PUSH2 0x1949 JUMPI POP PUSH0 SLOAD DUP3 GT ISZERO JUMPDEST PUSH2 0x1988 JUMPI PUSH1 0x40 MLOAD PUSH32 0x8C379A000000000000000000000000000000000000000000000000000000000 DUP2 MSTORE PUSH1 0x4 ADD PUSH2 0x197F SWAP1 PUSH2 0x2AA0 JUMP JUMPDEST PUSH1 0x40 MLOAD DUP1 SWAP2 SUB SWAP1 REVERT JUMPDEST PUSH0 PUSH1 0x1 PUSH0 DUP5 DUP2 MSTORE PUSH1 0x20 ADD SWAP1 DUP2 MSTORE PUSH1 0x20 ADD PUSH0 KECCAK256 SWAP1 POP PUSH1 0x1 PUSH1 0x5 DUP2 GT ISZERO PUSH2 0x19B0 JUMPI PUSH2 0x19AF PUSH2 0x2715 JUMP JUMPDEST JUMPDEST DUP2 PUSH1 0x8 ADD PUSH0 SWAP1 SLOAD SWAP1 PUSH2 0x100 EXP SWAP1 DIV PUSH1 0xFF AND PUSH1 0x5 DUP2 GT ISZERO PUSH2 0x19D3 JUMPI PUSH2 0x19D2 PUSH2 0x2715 JUMP JUMPDEST JUMPDEST EQ PUSH2 0x1A13 JUMPI PUSH1 0x40 MLOAD PUSH32 0x8C379A000000000000000000000000000000000000000000000000000000000 DUP2 MSTORE PUSH1 0x4 ADD PUSH2 0x1A0A SWAP1 PUSH2 0x38D9 JUMP JUMPDEST PUSH1 0x40 MLOAD DUP1 SWAP2 SUB SWAP1 REVERT JUMPDEST PUSH1 0x4 SLOAD CALLVALUE EQ PUSH2 0x1A57 JUMPI PUSH1 0x40 MLOAD PUSH32 0x8C379A000000000000000000000000000000000000000000000000000000000 DUP2 MSTORE PUSH1 0x4 ADD PUSH2 0x1A4E SWAP1 PUSH2 0x3941 JUMP JUMPDEST PUSH1 0x40 MLOAD DUP1 SWAP2 SUB SWAP1 REVERT JUMPDEST PUSH0 PUSH20 0xFFFFFFFFFFFFFFFFFFFFFFFFFFFFFFFFFFFFFFFF AND DUP2 PUSH1 0x2 ADD PUSH0 SWAP1 SLOAD SWAP1 PUSH2 0x100 EXP SWAP1 DIV PUSH20 0xFFFFFFFFFFFFFFFFFFFFFFFFFFFFFFFFFFFFFFFF AND PUSH20 0xFFFFFFFFFFFFFFFFFFFFFFFFFFFFFFFFFFFFFFFF AND EQ PUSH2 0x1AE8 JUMPI PUSH1 0x40 MLOAD PUSH32 0x8C379A000000000000000000000000000000000000000000000000000000000 DUP2 MSTORE PUSH1 0x4 ADD PUSH2 0x1ADF SWAP1 PUSH2 0x39A9 JUMP JUMPDEST PUSH1 0x40 MLOAD DUP1 SWAP2 SUB SWAP1 REVERT JUMPDEST CALLER DUP2 PUSH1 0x2 ADD PUSH0 PUSH2 0x100 EXP DUP2 SLOAD DUP2 PUSH20 0xFFFFFFFFFFFFFFFFFFFFFFFFFFFFFFFFFFFFFFFF MUL NOT AND SWAP1 DUP4 PUSH20 0xFFFFFFFFFFFFFFFFFFFFFFFFFFFFFFFFFFFFFFFF AND MUL OR SWAP1 SSTORE POP DUP2 DUP2 PUSH1 0x6 ADD PUSH0 PUSH2 0x100 EXP DUP2 SLOAD DUP2 PUSH1 0xFF MUL NOT AND SWAP1 DUP4 ISZERO ISZERO MUL OR SWAP1 SSTORE POP PUSH1 0x3C TIMESTAMP PUSH2 0x1B52 SWAP2 SWAP1 PUSH2 0x2BE3 JUMP JUMPDEST DUP2 PUSH1 0x7 ADD DUP2 SWAP1 SSTORE POP PUSH1 0x2 DUP2 PUSH1 0x8 ADD PUSH0 PUSH2 0x100 EXP DUP2 SLOAD DUP2 PUSH1 0xFF MUL NOT AND SWAP1 DUP4 PUSH1 0x5 DUP2 GT ISZERO PUSH2 0x1B81 JUMPI PUSH2 0x1B80 PUSH2 0x2715 JUMP JUMPDEST JUMPDEST MUL OR SWAP1 SSTORE POP PUSH32 0x28F0202DCB9C68CB7B1C95A88074DAA5DE2F0F8F6E1C69D9D509140A3228871B DUP4 CALLER DUP5 PUSH1 0x40 MLOAD PUSH2 0x1BB9 SWAP4 SWAP3 SWAP2 SWAP1 PUSH2 0x39C7 JUMP JUMPDEST PUSH1 0x40 MLOAD DUP1 SWAP2 SUB SWAP1 LOG1 POP POP POP JUMP JUMPDEST PUSH0 PUSH0 SLOAD SWAP1 POP SWAP1 JUMP JUMPDEST PUSH0 CALLVALUE GT PUSH2 0x1C10 JUMPI PUSH1 0x40 MLOAD PUSH32 0x8C379A000000000000000000000000000000000000000000000000000000000 DUP2 MSTORE PUSH1 0x4 ADD PUSH2 0x1C07 SWAP1 PUSH2 0x3A46 JUMP JUMPDEST PUSH1 0x40 MLOAD DUP1 SWAP2 SUB SWAP1 REVERT JUMPDEST PUSH0 PUSH0 DUP2 SLOAD DUP1 SWAP3 SWAP2 SWAP1 PUSH2 0x1C21 SWAP1 PUSH2 0x3244 JUMP JUMPDEST SWAP2 SWAP1 POP SSTORE POP PUSH0 PUSH1 0x1 PUSH0 PUSH0 SLOAD DUP2 MSTORE PUSH1 0x20 ADD SWAP1 DUP2 MSTORE PUSH1 0x20 ADD PUSH0 KECCAK256 SWAP1 POP CALLER DUP2 PUSH0 ADD PUSH0 PUSH2 0x100 EXP DUP2 SLOAD DUP2 PUSH20 0xFFFFFFFFFFFFFFFFFFFFFFFFFFFFFFFFFFFFFFFF MUL NOT AND SWAP1 DUP4 PUSH20 0xFFFFFFFFFFFFFFFFFFFFFFFFFFFFFFFFFFFFFFFF AND MUL OR SWAP1 SSTORE POP CALLVALUE DUP2 PUSH1 0x3 ADD DUP2 SWAP1 SSTORE POP DUP3 DUP3 DUP3 PUSH1 0x4 ADD SWAP2 DUP3 PUSH2 0x1C98 SWAP3 SWAP2 SWAP1 PUSH2 0x3A6E JUMP JUMPDEST POP PUSH0 DUP2 PUSH1 0x6 ADD PUSH0 PUSH2 0x100 EXP DUP2 SLOAD DUP2 PUSH1 0xFF MUL NOT AND SWAP1 DUP4 ISZERO ISZERO MUL OR SWAP1 SSTORE POP PUSH0 DUP2 PUSH1 0x8 ADD PUSH0 PUSH2 0x100 EXP DUP2 SLOAD DUP2 PUSH1 0xFF MUL NOT AND SWAP1 DUP4 PUSH1 0x5 DUP2 GT ISZERO PUSH2 0x1CDA JUMPI PUSH2 0x1CD9 PUSH2 0x2715 JUMP JUMPDEST JUMPDEST MUL OR SWAP1 SSTORE POP PUSH32 0x5FDDF931B4D1E3B95F2B6FB12AB475FE9555CE60FD2BFE66B84060F2DC22A2E PUSH0 SLOAD CALLER CALLVALUE DUP7 DUP7 PUSH1 0x40 MLOAD PUSH2 0x1D17 SWAP6 SWAP5 SWAP4 SWAP3 SWAP2 SWAP1 PUSH2 0x3B75 JUMP JUMPDEST PUSH1 0x40 MLOAD DUP1 SWAP2 SUB SWAP1 LOG1 POP POP POP JUMP JUMPDEST PUSH0 DUP4 GT DUP1 ISZERO PUSH2 0x1D34 JUMPI POP PUSH0 SLOAD DUP4 GT ISZERO JUMPDEST PUSH2 0x1D73 JUMPI PUSH1 0x40 MLOAD PUSH32 0x8C379A000000000000000000000000000000000000000000000000000000000 DUP2 MSTORE PUSH1 0x4 ADD PUSH2 0x1D6A SWAP1 PUSH2 0x2AA0 JUMP JUMPDEST PUSH1 0x40 MLOAD DUP1 SWAP2 SUB SWAP1 REVERT JUMPDEST PUSH0 PUSH1 0x1 PUSH0 DUP6 DUP2 MSTORE PUSH1 0x20 ADD SWAP1 DUP2 MSTORE PUSH1 0x20 ADD PUSH0 KECCAK256 SWAP1 POP PUSH0 PUSH1 0x5 DUP2 GT ISZERO PUSH2 0x1D9A JUMPI PUSH2 0x1D99 PUSH2 0x2715 JUMP JUMPDEST JUMPDEST DUP2 PUSH1 0x8 ADD PUSH0 SWAP1 SLOAD SWAP1 PUSH2 0x100 EXP SWAP1 DIV PUSH1 0xFF AND PUSH1 0x5 DUP2 GT ISZERO PUSH2 0x1DBD JUMPI PUSH2 0x1DBC PUSH2 0x2715 JUMP JUMPDEST JUMPDEST EQ PUSH2 0x1DFD JUMPI PUSH1 0x40 MLOAD PUSH32 0x8C379A000000000000000000000000000000000000000000000000000000000 DUP2 MSTORE PUSH1 0x4 ADD PUSH2 0x1DF4 SWAP1 PUSH2 0x3C0B JUMP JUMPDEST PUSH1 0x40 MLOAD DUP1 SWAP2 SUB SWAP1 REVERT JUMPDEST PUSH1 0x3 SLOAD CALLVALUE EQ PUSH2 0x1E41 JUMPI PUSH1 0x40 MLOAD PUSH32 0x8C379A000000000000000000000000000000000000000000000000000000000 DUP2 MSTORE PUSH1 0x4 ADD PUSH2 0x1E38 SWAP1 PUSH2 0x3941 JUMP JUMPDEST PUSH1 0x40 MLOAD DUP1 SWAP2 SUB SWAP1 REVERT JUMPDEST PUSH0 PUSH20 0xFFFFFFFFFFFFFFFFFFFFFFFFFFFFFFFFFFFFFFFF AND DUP2 PUSH1 0x1 ADD PUSH0 SWAP1 SLOAD SWAP1 PUSH2 0x100 EXP SWAP1 DIV PUSH20 0xFFFFFFFFFFFFFFFFFFFFFFFFFFFFFFFFFFFFFFFF AND PUSH20 0xFFFFFFFFFFFFFFFFFFFFFFFFFFFFFFFFFFFFFFFF AND EQ PUSH2 0x1ED2 JUMPI PUSH1 0x40 MLOAD PUSH32 0x8C379A000000000000000000000000000000000000000000000000000000000 DUP2 MSTORE PUSH1 0x4 ADD PUSH2 0x1EC9 SWAP1 PUSH2 0x3C99 JUMP JUMPDEST PUSH1 0x40 MLOAD DUP1 SWAP2 SUB SWAP1 REVERT JUMPDEST DUP3 DUP3 DUP3 PUSH1 0x5 ADD SWAP2 DUP3 PUSH2 0x1EE5 SWAP3 SWAP2 SWAP1 PUSH2 0x3A6E JUMP JUMPDEST POP CALLER DUP2 PUSH1 0x1 ADD PUSH0 PUSH2 0x100 EXP DUP2 SLOAD DUP2 PUSH20 0xFFFFFFFFFFFFFFFFFFFFFFFFFFFFFFFFFFFFFFFF MUL NOT AND SWAP1 DUP4 PUSH20 0xFFFFFFFFFFFFFFFFFFFFFFFFFFFFFFFFFFFFFFFF AND MUL OR SWAP1 SSTORE POP PUSH1 0x1 DUP2 PUSH1 0x8 ADD PUSH0 PUSH2 0x100 EXP DUP2 SLOAD DUP2 PUSH1 0xFF MUL NOT AND SWAP1 DUP4 PUSH1 0x5 DUP2 GT ISZERO PUSH2 0x1F4F JUMPI PUSH2 0x1F4E PUSH2 0x2715 JUMP JUMPDEST JUMPDEST MUL OR SWAP1 SSTORE POP PUSH32 0xA90AE9720245855CD0178118B70CC1EE497003D06D996EE5C304A19E5B25D915 DUP5 CALLER DUP6 DUP6 PUSH1 0x40 MLOAD PUSH2 0x1F89 SWAP5 SWAP4 SWAP3 SWAP2 SWAP1 PUSH2 0x3CB7 JUMP JUMPDEST PUSH1 0x40 MLOAD DUP1 SWAP2 SUB SWAP1 LOG1 POP POP POP POP JUMP JUMPDEST PUSH1 0x7 PUSH0 SWAP1 SLOAD SWAP1 PUSH2 0x100 EXP SWAP1 DIV PUSH20 0xFFFFFFFFFFFFFFFFFFFFFFFFFFFFFFFFFFFFFFFF AND DUP2 JUMP JUMPDEST PUSH0 PUSH1 0x2 PUSH0 DUP5 DUP2 MSTORE PUSH1 0x20 ADD SWAP1 DUP2 MSTORE PUSH1 0x20 ADD PUSH0 KECCAK256 SWAP1 POP PUSH0 PUSH1 0x1 PUSH0 DUP6 DUP2 MSTORE PUSH1 0x20 ADD SWAP1 DUP2 MSTORE PUSH1 0x20 ADD PUSH0 KECCAK256 SWAP1 POP PUSH0 PUSH0 PUSH1 0x64 PUSH1 0x28 PUSH1 0x4 SLOAD PUSH2 0x1FF7 SWAP2 SWAP1 PUSH2 0x3722 JUMP JUMPDEST PUSH2 0x2001 SWAP2 SWAP1 PUSH2 0x3790 JUMP JUMPDEST SWAP1 POP DUP3 PUSH1 0x6 ADD PUSH0 SWAP1 SLOAD SWAP1 PUSH2 0x100 EXP SWAP1 DIV PUSH1 0xFF AND ISZERO ISZERO DUP6 ISZERO ISZERO SUB PUSH2 0x2026 JUMPI PUSH0 SWAP2 POP PUSH2 0x20AB JUMP JUMPDEST PUSH1 0x64 PUSH1 0x32 PUSH1 0x4 SLOAD PUSH2 0x2037 SWAP2 SWAP1 PUSH2 0x3722 JUMP JUMPDEST PUSH2 0x2041 SWAP2 SWAP1 PUSH2 0x3790 JUMP JUMPDEST SWAP2 POP DUP4 PUSH0 ADD PUSH1 0x1 SWAP1 SLOAD SWAP1 PUSH2 0x100 EXP SWAP1 DIV PUSH20 0xFFFFFFFFFFFFFFFFFFFFFFFFFFFFFFFFFFFFFFFF AND PUSH20 0xFFFFFFFFFFFFFFFFFFFFFFFFFFFFFFFFFFFFFFFF AND PUSH2 0x8FC DUP4 SWAP1 DUP2 ISZERO MUL SWAP1 PUSH1 0x40 MLOAD PUSH0 PUSH1 0x40 MLOAD DUP1 DUP4 SUB DUP2 DUP6 DUP9 DUP9 CALL SWAP4 POP POP POP POP ISZERO DUP1 ISZERO PUSH2 0x20A9 JUMPI RETURNDATASIZE PUSH0 PUSH0 RETURNDATACOPY RETURNDATASIZE PUSH0 REVERT JUMPDEST POP JUMPDEST PUSH0 DUP2 DUP4 PUSH1 0x4 SLOAD PUSH2 0x20BB SWAP2 SWAP1 PUSH2 0x2AEB JUMP JUMPDEST PUSH2 0x20C5 SWAP2 SWAP1 PUSH2 0x2AEB JUMP JUMPDEST SWAP1 POP DUP6 PUSH2 0x2162 JUMPI DUP4 PUSH1 0x6 ADD PUSH0 SWAP1 SLOAD SWAP1 PUSH2 0x100 EXP SWAP1 DIV PUSH1 0xFF AND ISZERO PUSH2 0x20F7 JUMPI PUSH1 0x3 SLOAD DUP2 PUSH2 0x20F0 SWAP2 SWAP1 PUSH2 0x2BE3 JUMP JUMPDEST SWAP1 POP PUSH2 0x2161 JUMP JUMPDEST DUP4 PUSH1 0x2 ADD PUSH0 SWAP1 SLOAD SWAP1 PUSH2 0x100 EXP SWAP1 DIV PUSH20 0xFFFFFFFFFFFFFFFFFFFFFFFFFFFFFFFFFFFFFFFF AND PUSH20 0xFFFFFFFFFFFFFFFFFFFFFFFFFFFFFFFFFFFFFFFF AND PUSH2 0x8FC PUSH1 0x3 SLOAD SWAP1 DUP2 ISZERO MUL SWAP1 PUSH1 0x40 MLOAD PUSH0 PUSH1 0x40 MLOAD DUP1 DUP4 SUB DUP2 DUP6 DUP9 DUP9 CALL SWAP4 POP POP POP POP ISZERO DUP1 ISZERO PUSH2 0x215F JUMPI RETURNDATASIZE PUSH0 PUSH0 RETURNDATACOPY RETURNDATASIZE PUSH0 REVERT JUMPDEST POP JUMPDEST JUMPDEST PUSH0 DUP7 PUSH2 0x2172 JUMPI DUP6 PUSH1 0x3 ADD SLOAD PUSH2 0x2178 JUMP JUMPDEST DUP6 PUSH1 0x2 ADD SLOAD JUMPDEST SWAP1 POP PUSH0 DUP2 SUB PUSH2 0x219A JUMPI DUP3 DUP3 PUSH2 0x218D SWAP2 SWAP1 PUSH2 0x2BE3 JUMP JUMPDEST SWAP2 POP POP POP POP POP POP POP PUSH2 0x236D JUMP JUMPDEST PUSH0 PUSH0 SWAP1 POP JUMPDEST DUP7 PUSH1 0x9 ADD DUP1 SLOAD SWAP1 POP DUP2 LT ISZERO PUSH2 0x2365 JUMPI PUSH0 DUP8 PUSH1 0x9 ADD DUP3 DUP2 SLOAD DUP2 LT PUSH2 0x21C5 JUMPI PUSH2 0x21C4 PUSH2 0x31F0 JUMP JUMPDEST JUMPDEST SWAP1 PUSH0 MSTORE PUSH1 0x20 PUSH0 KECCAK256 ADD PUSH0 SWAP1 SLOAD SWAP1 PUSH2 0x100 EXP SWAP1 DIV PUSH20 0xFFFFFFFFFFFFFFFFFFFFFFFFFFFFFFFFFFFFFFFF AND SWAP1 POP DUP8 PUSH1 0x6 ADD PUSH0 DUP3 PUSH20 0xFFFFFFFFFFFFFFFFFFFFFFFFFFFFFFFFFFFFFFFF AND PUSH20 0xFFFFFFFFFFFFFFFFFFFFFFFFFFFFFFFFFFFFFFFF AND DUP2 MSTORE PUSH1 0x20 ADD SWAP1 DUP2 MSTORE PUSH1 0x20 ADD PUSH0 KECCAK256 PUSH0 SWAP1 SLOAD SWAP1 PUSH2 0x100 EXP SWAP1 DIV PUSH1 0xFF AND ISZERO PUSH2 0x2357 JUMPI PUSH0 DUP9 PUSH1 0x7 ADD PUSH0 DUP4 PUSH20 0xFFFFFFFFFFFFFFFFFFFFFFFFFFFFFFFFFFFFFFFF AND PUSH20 0xFFFFFFFFFFFFFFFFFFFFFFFFFFFFFFFFFFFFFFFF AND DUP2 MSTORE PUSH1 0x20 ADD SWAP1 DUP2 MSTORE PUSH1 0x20 ADD PUSH0 KECCAK256 SLOAD SWAP1 POP PUSH0 DUP10 PUSH1 0x8 ADD PUSH0 DUP5 PUSH20 0xFFFFFFFFFFFFFFFFFFFFFFFFFFFFFFFFFFFFFFFF AND PUSH20 0xFFFFFFFFFFFFFFFFFFFFFFFFFFFFFFFFFFFFFFFF AND DUP2 MSTORE PUSH1 0x20 ADD SWAP1 DUP2 MSTORE PUSH1 0x20 ADD PUSH0 KECCAK256 PUSH0 SWAP1 SLOAD SWAP1 PUSH2 0x100 EXP SWAP1 DIV PUSH1 0xFF AND SWAP1 POP DUP11 DUP1 ISZERO PUSH2 0x22DC JUMPI POP DUP1 JUMPDEST DUP1 PUSH2 0x22EF JUMPI POP DUP11 ISZERO DUP1 ISZERO PUSH2 0x22EE JUMPI POP DUP1 ISZERO JUMPDEST JUMPDEST ISZERO PUSH2 0x2354 JUMPI PUSH0 DUP6 DUP9 DUP5 PUSH2 0x2302 SWAP2 SWAP1 PUSH2 0x3722 JUMP JUMPDEST PUSH2 0x230C SWAP2 SWAP1 PUSH2 0x3790 JUMP JUMPDEST SWAP1 POP DUP4 PUSH20 0xFFFFFFFFFFFFFFFFFFFFFFFFFFFFFFFFFFFFFFFF AND PUSH2 0x8FC DUP3 SWAP1 DUP2 ISZERO MUL SWAP1 PUSH1 0x40 MLOAD PUSH0 PUSH1 0x40 MLOAD DUP1 DUP4 SUB DUP2 DUP6 DUP9 DUP9 CALL SWAP4 POP POP POP POP ISZERO DUP1 ISZERO PUSH2 0x2351 JUMPI RETURNDATASIZE PUSH0 PUSH0 RETURNDATACOPY RETURNDATASIZE PUSH0 REVERT JUMPDEST POP POP JUMPDEST POP POP JUMPDEST POP DUP1 DUP1 PUSH1 0x1 ADD SWAP2 POP POP PUSH2 0x219F JUMP JUMPDEST POP POP POP POP POP POP POP JUMPDEST POP POP JUMP JUMPDEST PUSH0 PUSH1 0x1 PUSH0 DUP4 DUP2 MSTORE PUSH1 0x20 ADD SWAP1 DUP2 MSTORE PUSH1 0x20 ADD PUSH0 KECCAK256 SWAP1 POP PUSH0 PUSH1 0x2 PUSH0 DUP5 DUP2 MSTORE PUSH1 0x20 ADD SWAP1 DUP2 MSTORE PUSH1 0x20 ADD PUSH0 KECCAK256 SWAP1 POP PUSH1 0x4 DUP3 PUSH1 0x8 ADD PUSH0 PUSH2 0x100 EXP DUP2 SLOAD DUP2 PUSH1 0xFF MUL NOT AND SWAP1 DUP4 PUSH1 0x5 DUP2 GT ISZERO PUSH2 0x23C0 JUMPI PUSH2 0x23BF PUSH2 0x2715 JUMP JUMPDEST JUMPDEST MUL OR SWAP1 SSTORE POP PUSH0 PUSH1 0x64 PUSH1 0x5A DUP5 PUSH1 0x3 ADD SLOAD PUSH2 0x23D9 SWAP2 SWAP1 PUSH2 0x3722 JUMP JUMPDEST PUSH2 0x23E3 SWAP2 SWAP1 PUSH2 0x3790 JUMP JUMPDEST SWAP1 POP PUSH0 PUSH1 0x64 PUSH1 0xA DUP6 PUSH1 0x3 ADD SLOAD PUSH2 0x23F9 SWAP2 SWAP1 PUSH2 0x3722 JUMP JUMPDEST PUSH2 0x2403 SWAP2 SWAP1 PUSH2 0x3790 JUMP JUMPDEST SWAP1 POP DUP4 PUSH1 0x1 ADD PUSH0 SWAP1 SLOAD SWAP1 PUSH2 0x100 EXP SWAP1 DIV PUSH20 0xFFFFFFFFFFFFFFFFFFFFFFFFFFFFFFFFFFFFFFFF AND PUSH20 0xFFFFFFFFFFFFFFFFFFFFFFFFFFFFFFFFFFFFFFFF AND PUSH2 0x8FC PUSH1 0x3 SLOAD DUP5 PUSH2 0x2450 SWAP2 SWAP1 PUSH2 0x2BE3 JUMP JUMPDEST SWAP1 DUP2 ISZERO MUL SWAP1 PUSH1 0x40 MLOAD PUSH0 PUSH1 0x40 MLOAD DUP1 DUP4 SUB DUP2 DUP6 DUP9 DUP9 CALL SWAP4 POP POP POP POP ISZERO DUP1 ISZERO PUSH2 0x2478 JUMPI RETURNDATASIZE PUSH0 PUSH0 RETURNDATACOPY RETURNDATASIZE PUSH0 REVERT JUMPDEST POP DUP4 PUSH1 0x6 ADD PUSH0 SWAP1 SLOAD SWAP1 PUSH2 0x100 EXP SWAP1 DIV PUSH1 0xFF AND ISZERO PUSH2 0x2508 JUMPI DUP4 PUSH1 0x2 ADD PUSH0 SWAP1 SLOAD SWAP1 PUSH2 0x100 EXP SWAP1 DIV PUSH20 0xFFFFFFFFFFFFFFFFFFFFFFFFFFFFFFFFFFFFFFFF AND PUSH20 0xFFFFFFFFFFFFFFFFFFFFFFFFFFFFFFFFFFFFFFFF AND PUSH2 0x8FC PUSH1 0x4 SLOAD DUP4 PUSH2 0x24DA SWAP2 SWAP1 PUSH2 0x2BE3 JUMP JUMPDEST SWAP1 DUP2 ISZERO MUL SWAP1 PUSH1 0x40 MLOAD PUSH0 PUSH1 0x40 MLOAD DUP1 DUP4 SUB DUP2 DUP6 DUP9 DUP9 CALL SWAP4 POP POP POP POP ISZERO DUP1 ISZERO PUSH2 0x2502 JUMPI RETURNDATASIZE PUSH0 PUSH0 RETURNDATACOPY RETURNDATASIZE PUSH0 REVERT JUMPDEST POP PUSH2 0x257D JUMP JUMPDEST DUP3 PUSH0 ADD PUSH1 0x1 SWAP1 SLOAD SWAP1 PUSH2 0x100 EXP SWAP1 DIV PUSH20 0xFFFFFFFFFFFFFFFFFFFFFFFFFFFFFFFFFFFFFFFF AND PUSH20 0xFFFFFFFFFFFFFFFFFFFFFFFFFFFFFFFFFFFFFFFF AND PUSH2 0x8FC PUSH1 0x4 SLOAD DUP4 PUSH2 0x2553 SWAP2 SWAP1 PUSH2 0x2BE3 JUMP JUMPDEST SWAP1 DUP2 ISZERO MUL SWAP1 PUSH1 0x40 MLOAD PUSH0 PUSH1 0x40 MLOAD DUP1 DUP4 SUB DUP2 DUP6 DUP9 DUP9 CALL SWAP4 POP POP POP POP ISZERO DUP1 ISZERO PUSH2 0x257B JUMPI RETURNDATASIZE PUSH0 PUSH0 RETURNDATACOPY RETURNDATASIZE PUSH0 REVERT JUMPDEST POP JUMPDEST PUSH32 0x9DEADA0165C5E1EAC62423DBF1DD30115314B076A9D6D3868DAF316F1CB285E9 DUP6 PUSH1 0x1 PUSH1 0x40 MLOAD PUSH2 0x25AF SWAP3 SWAP2 SWAP1 PUSH2 0x355B JUMP JUMPDEST PUSH1 0x40 MLOAD DUP1 SWAP2 SUB SWAP1 LOG1 POP POP POP POP POP JUMP JUMPDEST PUSH0 PUSH0 REVERT JUMPDEST PUSH0 PUSH0 REVERT JUMPDEST PUSH0 DUP2 SWAP1 POP SWAP2 SWAP1 POP JUMP JUMPDEST PUSH2 0x25D8 DUP2 PUSH2 0x25C6 JUMP JUMPDEST DUP2 EQ PUSH2 0x25E2 JUMPI PUSH0 PUSH0 REVERT JUMPDEST POP JUMP JUMPDEST PUSH0 DUP2 CALLDATALOAD SWAP1 POP PUSH2 0x25F3 DUP2 PUSH2 0x25CF JUMP JUMPDEST SWAP3 SWAP2 POP POP JUMP JUMPDEST PUSH0 PUSH1 0x20 DUP3 DUP5 SUB SLT ISZERO PUSH2 0x260E JUMPI PUSH2 0x260D PUSH2 0x25BE JUMP JUMPDEST JUMPDEST PUSH0 PUSH2 0x261B DUP5 DUP3 DUP6 ADD PUSH2 0x25E5 JUMP JUMPDEST SWAP2 POP POP SWAP3 SWAP2 POP POP JUMP JUMPDEST PUSH2 0x262D DUP2 PUSH2 0x25C6 JUMP JUMPDEST DUP3 MSTORE POP POP JUMP JUMPDEST PUSH0 PUSH1 0x20 DUP3 ADD SWAP1 POP PUSH2 0x2646 PUSH0 DUP4 ADD DUP5 PUSH2 0x2624 JUMP JUMPDEST SWAP3 SWAP2 POP POP JUMP JUMPDEST PUSH0 PUSH20 0xFFFFFFFFFFFFFFFFFFFFFFFFFFFFFFFFFFFFFFFF DUP3 AND SWAP1 POP SWAP2 SWAP1 POP JUMP JUMPDEST PUSH0 PUSH2 0x2675 DUP3 PUSH2 0x264C JUMP JUMPDEST SWAP1 POP SWAP2 SWAP1 POP JUMP JUMPDEST PUSH2 0x2685 DUP2 PUSH2 0x266B JUMP JUMPDEST DUP3 MSTORE POP POP JUMP JUMPDEST PUSH0 DUP2 MLOAD SWAP1 POP SWAP2 SWAP1 POP JUMP JUMPDEST PUSH0 DUP3 DUP3 MSTORE PUSH1 0x20 DUP3 ADD SWAP1 POP SWAP3 SWAP2 POP POP JUMP JUMPDEST DUP3 DUP2 DUP4 MCOPY PUSH0 DUP4 DUP4 ADD MSTORE POP POP POP JUMP JUMPDEST PUSH0 PUSH1 0x1F NOT PUSH1 0x1F DUP4 ADD AND SWAP1 POP SWAP2 SWAP1 POP JUMP JUMPDEST PUSH0 PUSH2 0x26CD DUP3 PUSH2 0x268B JUMP JUMPDEST PUSH2 0x26D7 DUP2 DUP6 PUSH2 0x2695 JUMP JUMPDEST SWAP4 POP PUSH2 0x26E7 DUP2 DUP6 PUSH1 0x20 DUP7 ADD PUSH2 0x26A5 JUMP JUMPDEST PUSH2 0x26F0 DUP2 PUSH2 0x26B3 JUMP JUMPDEST DUP5 ADD SWAP2 POP POP SWAP3 SWAP2 POP POP JUMP JUMPDEST PUSH0 DUP2 ISZERO ISZERO SWAP1 POP SWAP2 SWAP1 POP JUMP JUMPDEST PUSH2 0x270F DUP2 PUSH2 0x26FB JUMP JUMPDEST DUP3 MSTORE POP POP JUMP JUMPDEST PUSH32 0x4E487B7100000000000000000000000000000000000000000000000000000000 PUSH0 MSTORE PUSH1 0x21 PUSH1 0x4 MSTORE PUSH1 0x24 PUSH0 REVERT JUMPDEST PUSH1 0x6 DUP2 LT PUSH2 0x2753 JUMPI PUSH2 0x2752 PUSH2 0x2715 JUMP JUMPDEST JUMPDEST POP JUMP JUMPDEST PUSH0 DUP2 SWAP1 POP PUSH2 0x2763 DUP3 PUSH2 0x2742 JUMP JUMPDEST SWAP2 SWAP1 POP JUMP JUMPDEST PUSH0 PUSH2 0x2772 DUP3 PUSH2 0x2756 JUMP JUMPDEST SWAP1 POP SWAP2 SWAP1 POP JUMP JUMPDEST PUSH2 0x2782 DUP2 PUSH2 0x2768 JUMP JUMPDEST DUP3 MSTORE POP POP JUMP JUMPDEST PUSH0 PUSH2 0x120 DUP3 ADD SWAP1 POP PUSH2 0x279C PUSH0 DUP4 ADD DUP13 PUSH2 0x267C JUMP JUMPDEST PUSH2 0x27A9 PUSH1 0x20 DUP4 ADD DUP12 PUSH2 0x267C JUMP JUMPDEST PUSH2 0x27B6 PUSH1 0x40 DUP4 ADD DUP11 PUSH2 0x267C JUMP JUMPDEST PUSH2 0x27C3 PUSH1 0x60 DUP4 ADD DUP10 PUSH2 0x2624 JUMP JUMPDEST DUP2 DUP2 SUB PUSH1 0x80 DUP4 ADD MSTORE PUSH2 0x27D5 DUP2 DUP9 PUSH2 0x26C3 JUMP JUMPDEST SWAP1 POP DUP2 DUP2 SUB PUSH1 0xA0 DUP4 ADD MSTORE PUSH2 0x27E9 DUP2 DUP8 PUSH2 0x26C3 JUMP JUMPDEST SWAP1 POP PUSH2 0x27F8 PUSH1 0xC0 DUP4 ADD DUP7 PUSH2 0x2706 JUMP JUMPDEST PUSH2 0x2805 PUSH1 0xE0 DUP4 ADD DUP6 PUSH2 0x2624 JUMP JUMPDEST PUSH2 0x2813 PUSH2 0x100 DUP4 ADD DUP5 PUSH2 0x2779 JUMP JUMPDEST SWAP11 SWAP10 POP POP POP POP POP POP POP POP POP POP JUMP JUMPDEST PUSH2 0x282A DUP2 PUSH2 0x26FB JUMP JUMPDEST DUP2 EQ PUSH2 0x2834 JUMPI PUSH0 PUSH0 REVERT JUMPDEST POP JUMP JUMPDEST PUSH0 DUP2 CALLDATALOAD SWAP1 POP PUSH2 0x2845 DUP2 PUSH2 0x2821 JUMP JUMPDEST SWAP3 SWAP2 POP POP JUMP JUMPDEST PUSH0 PUSH0 PUSH0 PUSH1 0x60 DUP5 DUP7 SUB SLT ISZERO PUSH2 0x2862 JUMPI PUSH2 0x2861 PUSH2 0x25BE JUMP JUMPDEST JUMPDEST PUSH0 PUSH2 0x286F DUP7 DUP3 DUP8 ADD PUSH2 0x25E5 JUMP JUMPDEST SWAP4 POP POP PUSH1 0x20 PUSH2 0x2880 DUP7 DUP3 DUP8 ADD PUSH2 0x25E5 JUMP JUMPDEST SWAP3 POP POP PUSH1 0x40 PUSH2 0x2891 DUP7 DUP3 DUP8 ADD PUSH2 0x2837 JUMP JUMPDEST SWAP2 POP POP SWAP3 POP SWAP3 POP SWAP3 JUMP JUMPDEST PUSH0 PUSH0 PUSH1 0x40 DUP4 DUP6 SUB SLT ISZERO PUSH2 0x28B1 JUMPI PUSH2 0x28B0 PUSH2 0x25BE JUMP JUMPDEST JUMPDEST PUSH0 PUSH2 0x28BE DUP6 DUP3 DUP7 ADD PUSH2 0x25E5 JUMP JUMPDEST SWAP3 POP POP PUSH1 0x20 PUSH2 0x28CF DUP6 DUP3 DUP7 ADD PUSH2 0x2837 JUMP JUMPDEST SWAP2 POP POP SWAP3 POP SWAP3 SWAP1 POP JUMP JUMPDEST PUSH0 PUSH0 REVERT JUMPDEST PUSH0 PUSH0 REVERT JUMPDEST PUSH0 PUSH0 REVERT JUMPDEST PUSH0 PUSH0 DUP4 PUSH1 0x1F DUP5 ADD SLT PUSH2 0x28FA JUMPI PUSH2 0x28F9 PUSH2 0x28D9 JUMP JUMPDEST JUMPDEST DUP3 CALLDATALOAD SWAP1 POP PUSH8 0xFFFFFFFFFFFFFFFF DUP2 GT ISZERO PUSH2 0x2917 JUMPI PUSH2 0x2916 PUSH2 0x28DD JUMP JUMPDEST JUMPDEST PUSH1 0x20 DUP4 ADD SWAP2 POP DUP4 PUSH1 0x1 DUP3 MUL DUP4 ADD GT ISZERO PUSH2 0x2933 JUMPI PUSH2 0x2932 PUSH2 0x28E1 JUMP JUMPDEST JUMPDEST SWAP3 POP SWAP3 SWAP1 POP JUMP JUMPDEST PUSH0 PUSH0 PUSH1 0x20 DUP4 DUP6 SUB SLT ISZERO PUSH2 0x2950 JUMPI PUSH2 0x294F PUSH2 0x25BE JUMP JUMPDEST JUMPDEST PUSH0 DUP4 ADD CALLDATALOAD PUSH8 0xFFFFFFFFFFFFFFFF DUP2 GT ISZERO PUSH2 0x296D JUMPI PUSH2 0x296C PUSH2 0x25C2 JUMP JUMPDEST JUMPDEST PUSH2 0x2979 DUP6 DUP3 DUP7 ADD PUSH2 0x28E5 JUMP JUMPDEST SWAP3 POP SWAP3 POP POP SWAP3 POP SWAP3 SWAP1 POP JUMP JUMPDEST PUSH0 PUSH0 PUSH0 PUSH1 0x40 DUP5 DUP7 SUB SLT ISZERO PUSH2 0x299C JUMPI PUSH2 0x299B PUSH2 0x25BE JUMP JUMPDEST JUMPDEST PUSH0 PUSH2 0x29A9 DUP7 DUP3 DUP8 ADD PUSH2 0x25E5 JUMP JUMPDEST SWAP4 POP POP PUSH1 0x20 DUP5 ADD CALLDATALOAD PUSH8 0xFFFFFFFFFFFFFFFF DUP2 GT ISZERO PUSH2 0x29CA JUMPI PUSH2 0x29C9 PUSH2 0x25C2 JUMP JUMPDEST JUMPDEST PUSH2 0x29D6 DUP7 DUP3 DUP8 ADD PUSH2 0x28E5 JUMP JUMPDEST SWAP3 POP SWAP3 POP POP SWAP3 POP SWAP3 POP SWAP3 JUMP JUMPDEST PUSH0 DUP2 SWAP1 POP SWAP2 SWAP1 POP JUMP JUMPDEST PUSH0 PUSH2 0x2A05 PUSH2 0x2A00 PUSH2 0x29FB DUP5 PUSH2 0x264C JUMP JUMPDEST PUSH2 0x29E2 JUMP JUMPDEST PUSH2 0x264C JUMP JUMPDEST SWAP1 POP SWAP2 SWAP1 POP JUMP JUMPDEST PUSH0 PUSH2 0x2A16 DUP3 PUSH2 0x29EB JUMP JUMPDEST SWAP1 POP SWAP2 SWAP1 POP JUMP JUMPDEST PUSH0 PUSH2 0x2A27 DUP3 PUSH2 0x2A0C JUMP JUMPDEST SWAP1 POP SWAP2 SWAP1 POP JUMP JUMPDEST PUSH2 0x2A37 DUP2 PUSH2 0x2A1D JUMP JUMPDEST DUP3 MSTORE POP POP JUMP JUMPDEST PUSH0 PUSH1 0x20 DUP3 ADD SWAP1 POP PUSH2 0x2A50 PUSH0 DUP4 ADD DUP5 PUSH2 0x2A2E JUMP JUMPDEST SWAP3 SWAP2 POP POP JUMP JUMPDEST PUSH32 0x496E76616C6964207461736B2069640000000000000000000000000000000000 PUSH0 DUP3 ADD MSTORE POP JUMP JUMPDEST PUSH0 PUSH2 0x2A8A PUSH1 0xF DUP4 PUSH2 0x2695 JUMP JUMPDEST SWAP2 POP PUSH2 0x2A95 DUP3 PUSH2 0x2A56 JUMP JUMPDEST PUSH1 0x20 DUP3 ADD SWAP1 POP SWAP2 SWAP1 POP JUMP JUMPDEST PUSH0 PUSH1 0x20 DUP3 ADD SWAP1 POP DUP2 DUP2 SUB PUSH0 DUP4 ADD MSTORE PUSH2 0x2AB7 DUP2 PUSH2 0x2A7E JUMP JUMPDEST SWAP1 POP SWAP2 SWAP1 POP JUMP JUMPDEST PUSH32 0x4E487B7100000000000000000000000000000000000000000000000000000000 PUSH0 MSTORE PUSH1 0x11 PUSH1 0x4 MSTORE PUSH1 0x24 PUSH0 REVERT JUMPDEST PUSH0 PUSH2 0x2AF5 DUP3 PUSH2 0x25C6 JUMP JUMPDEST SWAP2 POP PUSH2 0x2B00 DUP4 PUSH2 0x25C6 JUMP JUMPDEST SWAP3 POP DUP3 DUP3 SUB SWAP1 POP DUP2 DUP2 GT ISZERO PUSH2 0x2B18 JUMPI PUSH2 0x2B17 PUSH2 0x2ABE JUMP JUMPDEST JUMPDEST SWAP3 SWAP2 POP POP JUMP JUMPDEST PUSH32 0x4E487B7100000000000000000000000000000000000000000000000000000000 PUSH0 MSTORE PUSH1 0x22 PUSH1 0x4 MSTORE PUSH1 0x24 PUSH0 REVERT JUMPDEST PUSH0 PUSH1 0x2 DUP3 DIV SWAP1 POP PUSH1 0x1 DUP3 AND DUP1 PUSH2 0x2B62 JUMPI PUSH1 0x7F DUP3 AND SWAP2 POP JUMPDEST PUSH1 0x20 DUP3 LT DUP2 SUB PUSH2 0x2B75 JUMPI PUSH2 0x2B74 PUSH2 0x2B1E JUMP JUMPDEST JUMPDEST POP SWAP2 SWAP1 POP JUMP JUMPDEST PUSH32 0x4E6F206163746976652064697370757465000000000000000000000000000000 PUSH0 DUP3 ADD MSTORE POP JUMP JUMPDEST PUSH0 PUSH2 0x2BAF PUSH1 0x11 DUP4 PUSH2 0x2695 JUMP JUMPDEST SWAP2 POP PUSH2 0x2BBA DUP3 PUSH2 0x2B7B JUMP JUMPDEST PUSH1 0x20 DUP3 ADD SWAP1 POP SWAP2 SWAP1 POP JUMP JUMPDEST PUSH0 PUSH1 0x20 DUP3 ADD SWAP1 POP DUP2 DUP2 SUB PUSH0 DUP4 ADD MSTORE PUSH2 0x2BDC DUP2 PUSH2 0x2BA3 JUMP JUMPDEST SWAP1 POP SWAP2 SWAP1 POP JUMP JUMPDEST PUSH0 PUSH2 0x2BED DUP3 PUSH2 0x25C6 JUMP JUMPDEST SWAP2 POP PUSH2 0x2BF8 DUP4 PUSH2 0x25C6 JUMP JUMPDEST SWAP3 POP DUP3 DUP3 ADD SWAP1 POP DUP1 DUP3 GT ISZERO PUSH2 0x2C10 JUMPI PUSH2 0x2C0F PUSH2 0x2ABE JUMP JUMPDEST JUMPDEST SWAP3 SWAP2 POP POP JUMP JUMPDEST PUSH32 0x566F74696E6720706572696F6420656E64656400000000000000000000000000 PUSH0 DUP3 ADD MSTORE POP JUMP JUMPDEST PUSH0 PUSH2 0x2C4A PUSH1 0x13 DUP4 PUSH2 0x2695 JUMP JUMPDEST SWAP2 POP PUSH2 0x2C55 DUP3 PUSH2 0x2C16 JUMP JUMPDEST PUSH1 0x20 DUP3 ADD SWAP1 POP SWAP2 SWAP1 POP JUMP JUMPDEST PUSH0 PUSH1 0x20 DUP3 ADD SWAP1 POP DUP2 DUP2 SUB PUSH0 DUP4 ADD MSTORE PUSH2 0x2C77 DUP2 PUSH2 0x2C3E JUMP JUMPDEST SWAP1 POP SWAP2 SWAP1 POP JUMP JUMPDEST PUSH32 0x5374616B6520746F6F20736D616C6C0000000000000000000000000000000000 PUSH0 DUP3 ADD MSTORE POP JUMP JUMPDEST PUSH0 PUSH2 0x2CB2 PUSH1 0xF DUP4 PUSH2 0x2695 JUMP JUMPDEST SWAP2 POP PUSH2 0x2CBD DUP3 PUSH2 0x2C7E JUMP JUMPDEST PUSH1 0x20 DUP3 ADD SWAP1 POP SWAP2 SWAP1 POP JUMP JUMPDEST PUSH0 PUSH1 0x20 DUP3 ADD SWAP1 POP DUP2 DUP2 SUB PUSH0 DUP4 ADD MSTORE PUSH2 0x2CDF DUP2 PUSH2 0x2CA6 JUMP JUMPDEST SWAP1 POP SWAP2 SWAP1 POP JUMP JUMPDEST PUSH32 0x416C726561647920726567697374657265640000000000000000000000000000 PUSH0 DUP3 ADD MSTORE POP JUMP JUMPDEST PUSH0 PUSH2 0x2D1A PUSH1 0x12 DUP4 PUSH2 0x2695 JUMP JUMPDEST SWAP2 POP PUSH2 0x2D25 DUP3 PUSH2 0x2CE6 JUMP JUMPDEST PUSH1 0x20 DUP3 ADD SWAP1 POP SWAP2 SWAP1 POP JUMP JUMPDEST PUSH0 PUSH1 0x20 DUP3 ADD SWAP1 POP DUP2 DUP2 SUB PUSH0 DUP4 ADD MSTORE PUSH2 0x2D47 DUP2 PUSH2 0x2D0E JUMP JUMPDEST SWAP1 POP SWAP2 SWAP1 POP JUMP JUMPDEST PUSH32 0x416C726561647920766F74656400000000000000000000000000000000000000 PUSH0 DUP3 ADD MSTORE POP JUMP JUMPDEST PUSH0 PUSH2 0x2D82 PUSH1 0xD DUP4 PUSH2 0x2695 JUMP JUMPDEST SWAP2 POP PUSH2 0x2D8D DUP3 PUSH2 0x2D4E JUMP JUMPDEST PUSH1 0x20 DUP3 ADD SWAP1 POP SWAP2 SWAP1 POP JUMP JUMPDEST PUSH0 PUSH1 0x20 DUP3 ADD SWAP1 POP DUP2 DUP2 SUB PUSH0 DUP4 ADD MSTORE PUSH2 0x2DAF DUP2 PUSH2 0x2D76 JUMP JUMPDEST SWAP1 POP SWAP2 SWAP1 POP JUMP JUMPDEST PUSH0 PUSH1 0x60 DUP3 ADD SWAP1 POP PUSH2 0x2DC9 PUSH0 DUP4 ADD DUP7 PUSH2 0x267C JUMP JUMPDEST PUSH2 0x2DD6 PUSH1 0x20 DUP4 ADD DUP6 PUSH2 0x267C JUMP JUMPDEST PUSH2 0x2DE3 PUSH1 0x40 DUP4 ADD DUP5 PUSH2 0x2624 JUMP JUMPDEST SWAP5 SWAP4 POP POP POP POP JUMP JUMPDEST PUSH0 DUP2 MLOAD SWAP1 POP PUSH2 0x2DF9 DUP2 PUSH2 0x2821 JUMP JUMPDEST SWAP3 SWAP2 POP POP JUMP JUMPDEST PUSH0 PUSH1 0x20 DUP3 DUP5 SUB SLT ISZERO PUSH2 0x2E14 JUMPI PUSH2 0x2E13 PUSH2 0x25BE JUMP JUMPDEST JUMPDEST PUSH0 PUSH2 0x2E21 DUP5 DUP3 DUP6 ADD PUSH2 0x2DEB JUMP JUMPDEST SWAP2 POP POP SWAP3 SWAP2 POP POP JUMP JUMPDEST PUSH32 0x546F6B656E207472616E73666572206661696C65640000000000000000000000 PUSH0 DUP3 ADD MSTORE POP JUMP JUMPDEST PUSH0 PUSH2 0x2E5E PUSH1 0x15 DUP4 PUSH2 0x2695 JUMP JUMPDEST SWAP2 POP PUSH2 0x2E69 DUP3 PUSH2 0x2E2A JUMP JUMPDEST PUSH1 0x20 DUP3 ADD SWAP1 POP SWAP2 SWAP1 POP JUMP JUMPDEST PUSH0 PUSH1 0x20 DUP3 ADD SWAP1 POP DUP2 DUP2 SUB PUSH0 DUP4 ADD MSTORE PUSH2 0x2E8B DUP2 PUSH2 0x2E52 JUMP JUMPDEST SWAP1 POP SWAP2 SWAP1 POP JUMP JUMPDEST PUSH0 PUSH1 0x80 DUP3 ADD SWAP1 POP PUSH2 0x2EA5 PUSH0 DUP4 ADD DUP8 PUSH2 0x2624 JUMP JUMPDEST PUSH2 0x2EB2 PUSH1 0x20 DUP4 ADD DUP7 PUSH2 0x267C JUMP JUMPDEST PUSH2 0x2EBF PUSH1 0x40 DUP4 ADD DUP6 PUSH2 0x2706 JUMP JUMPDEST PUSH2 0x2ECC PUSH1 0x60 DUP4 ADD DUP5 PUSH2 0x2624 JUMP JUMPDEST SWAP6 SWAP5 POP POP POP POP POP JUMP JUMPDEST PUSH32 0x5461736B206E6F7420696E207265766965772028796574290000000000000000 PUSH0 DUP3 ADD MSTORE POP JUMP JUMPDEST PUSH0 PUSH2 0x2F09 PUSH1 0x18 DUP4 PUSH2 0x2695 JUMP JUMPDEST SWAP2 POP PUSH2 0x2F14 DUP3 PUSH2 0x2ED5 JUMP JUMPDEST PUSH1 0x20 DUP3 ADD SWAP1 POP SWAP2 SWAP1 POP JUMP JUMPDEST PUSH0 PUSH1 0x20 DUP3 ADD SWAP1 POP DUP2 DUP2 SUB PUSH0 DUP4 ADD MSTORE PUSH2 0x2F36 DUP2 PUSH2 0x2EFD JUMP JUMPDEST SWAP1 POP SWAP2 SWAP1 POP JUMP JUMPDEST PUSH32 0x446561646C696E65207061737365640000000000000000000000000000000000 PUSH0 DUP3 ADD MSTORE POP JUMP JUMPDEST PUSH0 PUSH2 0x2F71 PUSH1 0xF DUP4 PUSH2 0x2695 JUMP JUMPDEST SWAP2 POP PUSH2 0x2F7C DUP3 PUSH2 0x2F3D JUMP JUMPDEST PUSH1 0x20 DUP3 ADD SWAP1 POP SWAP2 SWAP1 POP JUMP JUMPDEST PUSH0 PUSH1 0x20 DUP3 ADD SWAP1 POP DUP2 DUP2 SUB PUSH0 DUP4 ADD MSTORE PUSH2 0x2F9E DUP2 PUSH2 0x2F65 JUMP JUMPDEST SWAP1 POP SWAP2 SWAP1 POP JUMP JUMPDEST PUSH32 0x496E636F72726563742064697370757465206465706F73697400000000000000 PUSH0 DUP3 ADD MSTORE POP JUMP JUMPDEST PUSH0 PUSH2 0x2FD9 PUSH1 0x19 DUP4 PUSH2 0x2695 JUMP JUMPDEST SWAP2 POP PUSH2 0x2FE4 DUP3 PUSH2 0x2FA5 JUMP JUMPDEST PUSH1 0x20 DUP3 ADD SWAP1 POP SWAP2 SWAP1 POP JUMP JUMPDEST PUSH0 PUSH1 0x20 DUP3 ADD SWAP1 POP DUP2 DUP2 SUB PUSH0 DUP4 ADD MSTORE PUSH2 0x3006 DUP2 PUSH2 0x2FCD JUMP JUMPDEST SWAP1 POP SWAP2 SWAP1 POP JUMP JUMPDEST PUSH32 0x4578697374696E67206469737075746520616374697665000000000000000000 PUSH0 DUP3 ADD MSTORE POP JUMP JUMPDEST PUSH0 PUSH2 0x3041 PUSH1 0x17 DUP4 PUSH2 0x2695 JUMP JUMPDEST SWAP2 POP PUSH2 0x304C DUP3 PUSH2 0x300D JUMP JUMPDEST PUSH1 0x20 DUP3 ADD SWAP1 POP SWAP2 SWAP1 POP JUMP JUMPDEST PUSH0 PUSH1 0x20 DUP3 ADD SWAP1 POP DUP2 DUP2 SUB PUSH0 DUP4 ADD MSTORE PUSH2 0x306E DUP2 PUSH2 0x3035 JUMP JUMPDEST SWAP1 POP SWAP2 SWAP1 POP JUMP JUMPDEST PUSH0 PUSH1 0x80 DUP3 ADD SWAP1 POP PUSH2 0x3088 PUSH0 DUP4 ADD DUP8 PUSH2 0x2624 JUMP JUMPDEST PUSH2 0x3095 PUSH1 0x20 DUP4 ADD DUP7 PUSH2 0x267C JUMP JUMPDEST PUSH2 0x30A2 PUSH1 0x40 DUP4 ADD DUP6 PUSH2 0x2624 JUMP JUMPDEST PUSH2 0x30AF PUSH1 0x60 DUP4 ADD DUP5 PUSH2 0x2624 JUMP JUMPDEST SWAP6 SWAP5 POP POP POP POP POP JUMP JUMPDEST PUSH32 0x4E6F206469737075746500000000000000000000000000000000000000000000 PUSH0 DUP3 ADD MSTORE POP JUMP JUMPDEST PUSH0 PUSH2 0x30EC PUSH1 0xA DUP4 PUSH2 0x2695 JUMP JUMPDEST SWAP2 POP PUSH2 0x30F7 DUP3 PUSH2 0x30B8 JUMP JUMPDEST PUSH1 0x20 DUP3 ADD SWAP1 POP SWAP2 SWAP1 POP JUMP JUMPDEST PUSH0 PUSH1 0x20 DUP3 ADD SWAP1 POP DUP2 DUP2 SUB PUSH0 DUP4 ADD MSTORE PUSH2 0x3119 DUP2 PUSH2 0x30E0 JUMP JUMPDEST SWAP1 POP SWAP2 SWAP1 POP JUMP JUMPDEST PUSH32 0x416C72656164792066696E616C697A6564000000000000000000000000000000 PUSH0 DUP3 ADD MSTORE POP JUMP JUMPDEST PUSH0 PUSH2 0x3154 PUSH1 0x11 DUP4 PUSH2 0x2695 JUMP JUMPDEST SWAP2 POP PUSH2 0x315F DUP3 PUSH2 0x3120 JUMP JUMPDEST PUSH1 0x20 DUP3 ADD SWAP1 POP SWAP2 SWAP1 POP JUMP JUMPDEST PUSH0 PUSH1 0x20 DUP3 ADD SWAP1 POP DUP2 DUP2 SUB PUSH0 DUP4 ADD MSTORE PUSH2 0x3181 DUP2 PUSH2 0x3148 JUMP JUMPDEST SWAP1 POP SWAP2 SWAP1 POP JUMP JUMPDEST PUSH32 0x566F74696E672077696E646F77207374696C6C206F70656E0000000000000000 PUSH0 DUP3 ADD MSTORE POP JUMP JUMPDEST PUSH0 PUSH2 0x31BC PUSH1 0x18 DUP4 PUSH2 0x2695 JUMP JUMPDEST SWAP2 POP PUSH2 0x31C7 DUP3 PUSH2 0x3188 JUMP JUMPDEST PUSH1 0x20 DUP3 ADD SWAP1 POP SWAP2 SWAP1 POP JUMP JUMPDEST PUSH0 PUSH1 0x20 DUP3 ADD SWAP1 POP DUP2 DUP2 SUB PUSH0 DUP4 ADD MSTORE PUSH2 0x31E9 DUP2 PUSH2 0x31B0 JUMP JUMPDEST SWAP1 POP SWAP2 SWAP1 POP JUMP JUMPDEST PUSH32 0x4E487B7100000000000000000000000000000000000000000000000000000000 PUSH0 MSTORE PUSH1 0x32 PUSH1 0x4 MSTORE PUSH1 0x24 PUSH0 REVERT JUMPDEST PUSH0 PUSH1 0x40 DUP3 ADD SWAP1 POP PUSH2 0x3230 PUSH0 DUP4 ADD DUP6 PUSH2 0x267C JUMP JUMPDEST PUSH2 0x323D PUSH1 0x20 DUP4 ADD DUP5 PUSH2 0x2624 JUMP JUMPDEST SWAP4 SWAP3 POP POP POP JUMP JUMPDEST PUSH0 PUSH2 0x324E DUP3 PUSH2 0x25C6 JUMP JUMPDEST SWAP2 POP PUSH32 0xFFFFFFFFFFFFFFFFFFFFFFFFFFFFFFFFFFFFFFFFFFFFFFFFFFFFFFFFFFFFFFFF DUP3 SUB PUSH2 0x3280 JUMPI PUSH2 0x327F PUSH2 0x2ABE JUMP JUMPDEST JUMPDEST PUSH1 0x1 DUP3 ADD SWAP1 POP SWAP2 SWAP1 POP JUMP JUMPDEST PUSH0 DUP2 SLOAD SWAP1 POP PUSH2 0x3299 DUP2 PUSH2 0x2B4B JUMP JUMPDEST SWAP1 POP SWAP2 SWAP1 POP JUMP JUMPDEST PUSH32 0x4E487B7100000000000000000000000000000000000000000000000000000000 PUSH0 MSTORE PUSH1 0x41 PUSH1 0x4 MSTORE PUSH1 0x24 PUSH0 REVERT JUMPDEST PUSH0 DUP2 SWAP1 POP DUP2 PUSH0 MSTORE PUSH1 0x20 PUSH0 KECCAK256 SWAP1 POP SWAP2 SWAP1 POP JUMP JUMPDEST PUSH0 DUP2 SWAP1 POP DUP2 PUSH0 MSTORE PUSH1 0x20 PUSH0 KECCAK256 SWAP1 POP SWAP2 SWAP1 POP JUMP JUMPDEST PUSH0 PUSH1 0x20 PUSH1 0x1F DUP4 ADD DIV SWAP1 POP SWAP2 SWAP1 POP JUMP JUMPDEST PUSH0 DUP3 DUP3 SHL SWAP1 POP SWAP3 SWAP2 POP POP JUMP JUMPDEST PUSH0 PUSH1 0x8 DUP4 MUL PUSH2 0x333B PUSH32 0xFFFFFFFFFFFFFFFFFFFFFFFFFFFFFFFFFFFFFFFFFFFFFFFFFFFFFFFFFFFFFFFF DUP3 PUSH2 0x3300 JUMP JUMPDEST PUSH2 0x3345 DUP7 DUP4 PUSH2 0x3300 JUMP JUMPDEST SWAP6 POP DUP1 NOT DUP5 AND SWAP4 POP DUP1 DUP7 AND DUP5 OR SWAP3 POP POP POP SWAP4 SWAP3 POP POP POP JUMP JUMPDEST PUSH0 PUSH2 0x3377 PUSH2 0x3372 PUSH2 0x336D DUP5 PUSH2 0x25C6 JUMP JUMPDEST PUSH2 0x29E2 JUMP JUMPDEST PUSH2 0x25C6 JUMP JUMPDEST SWAP1 POP SWAP2 SWAP1 POP JUMP JUMPDEST PUSH0 DUP2 SWAP1 POP SWAP2 SWAP1 POP JUMP JUMPDEST PUSH2 0x3390 DUP4 PUSH2 0x335D JUMP JUMPDEST PUSH2 0x33A4 PUSH2 0x339C DUP3 PUSH2 0x337E JUMP JUMPDEST DUP5 DUP5 SLOAD PUSH2 0x330C JUMP JUMPDEST DUP3 SSTORE POP POP POP POP JUMP JUMPDEST PUSH0 PUSH0 SWAP1 POP SWAP1 JUMP JUMPDEST PUSH2 0x33BB PUSH2 0x33AC JUMP JUMPDEST PUSH2 0x33C6 DUP2 DUP5 DUP5 PUSH2 0x3387 JUMP JUMPDEST POP POP POP JUMP JUMPDEST JUMPDEST DUP2 DUP2 LT ISZERO PUSH2 0x33E9 JUMPI PUSH2 0x33DE PUSH0 DUP3 PUSH2 0x33B3 JUMP JUMPDEST PUSH1 0x1 DUP2 ADD SWAP1 POP PUSH2 0x33CC JUMP JUMPDEST POP POP JUMP JUMPDEST PUSH1 0x1F DUP3 GT ISZERO PUSH2 0x342E JUMPI PUSH2 0x33FF DUP2 PUSH2 0x32CD JUMP JUMPDEST PUSH2 0x3408 DUP5 PUSH2 0x32F1 JUMP JUMPDEST DUP2 ADD PUSH1 0x20 DUP6 LT ISZERO PUSH2 0x3417 JUMPI DUP2 SWAP1 POP JUMPDEST PUSH2 0x342B PUSH2 0x3423 DUP6 PUSH2 0x32F1 JUMP JUMPDEST DUP4 ADD DUP3 PUSH2 0x33CB JUMP JUMPDEST POP POP JUMPDEST POP POP POP JUMP JUMPDEST PUSH0 DUP3 DUP3 SHR SWAP1 POP SWAP3 SWAP2 POP POP JUMP JUMPDEST PUSH0 PUSH2 0x344E PUSH0 NOT DUP5 PUSH1 0x8 MUL PUSH2 0x3433 JUMP JUMPDEST NOT DUP1 DUP4 AND SWAP2 POP POP SWAP3 SWAP2 POP POP JUMP JUMPDEST PUSH0 PUSH2 0x3466 DUP4 DUP4 PUSH2 0x343F JUMP JUMPDEST SWAP2 POP DUP3 PUSH1 0x2 MUL DUP3 OR SWAP1 POP SWAP3 SWAP2 POP POP JUMP JUMPDEST DUP2 DUP2 SUB PUSH2 0x3484 JUMPI POP POP PUSH2 0x3559 JUMP JUMPDEST PUSH2 0x348D DUP3 PUSH2 0x328B JUMP JUMPDEST PUSH8 0xFFFFFFFFFFFFFFFF DUP2 GT ISZERO PUSH2 0x34A6 JUMPI PUSH2 0x34A5 PUSH2 0x32A0 JUMP JUMPDEST JUMPDEST PUSH2 0x34B0 DUP3 SLOAD PUSH2 0x2B4B JUMP JUMPDEST PUSH2 0x34BB DUP3 DUP3 DUP6 PUSH2 0x33ED JUMP JUMPDEST PUSH0 PUSH1 0x1F DUP4 GT PUSH1 0x1 DUP2 EQ PUSH2 0x34E8 JUMPI PUSH0 DUP5 ISZERO PUSH2 0x34D6 JUMPI DUP3 DUP8 ADD SLOAD SWAP1 POP JUMPDEST PUSH2 0x34E0 DUP6 DUP3 PUSH2 0x345B JUMP JUMPDEST DUP7 SSTORE POP PUSH2 0x3552 JUMP JUMPDEST PUSH1 0x1F NOT DUP5 AND PUSH2 0x34F6 DUP8 PUSH2 0x32DF JUMP JUMPDEST SWAP7 POP PUSH2 0x3501 DUP7 PUSH2 0x32CD JUMP JUMPDEST PUSH0 JUMPDEST DUP3 DUP2 LT ISZERO PUSH2 0x3528 JUMPI DUP5 DUP10 ADD SLOAD DUP3 SSTORE PUSH1 0x1 DUP3 ADD SWAP2 POP PUSH1 0x1 DUP6 ADD SWAP5 POP PUSH1 0x20 DUP2 ADD SWAP1 POP PUSH2 0x3503 JUMP JUMPDEST DUP7 DUP4 LT ISZERO PUSH2 0x3545 JUMPI DUP5 DUP10 ADD SLOAD PUSH2 0x3541 PUSH1 0x1F DUP10 AND DUP3 PUSH2 0x343F JUMP JUMPDEST DUP4 SSTORE POP JUMPDEST PUSH1 0x1 PUSH1 0x2 DUP9 MUL ADD DUP9 SSTORE POP POP POP JUMPDEST POP POP POP POP POP POP JUMPDEST JUMP JUMPDEST PUSH0 PUSH1 0x40 DUP3 ADD SWAP1 POP PUSH2 0x356E PUSH0 DUP4 ADD DUP6 PUSH2 0x2624 JUMP JUMPDEST PUSH2 0x357B PUSH1 0x20 DUP4 ADD DUP5 PUSH2 0x2706 JUMP JUMPDEST SWAP4 SWAP3 POP POP POP JUMP JUMPDEST PUSH32 0x5461736B206E6F74207665726966696564202879657429000000000000000000 PUSH0 DUP3 ADD MSTORE POP JUMP JUMPDEST PUSH0 PUSH2 0x35B6 PUSH1 0x17 DUP4 PUSH2 0x2695 JUMP JUMPDEST SWAP2 POP PUSH2 0x35C1 DUP3 PUSH2 0x3582 JUMP JUMPDEST PUSH1 0x20 DUP3 ADD SWAP1 POP SWAP2 SWAP1 POP JUMP JUMPDEST PUSH0 PUSH1 0x20 DUP3 ADD SWAP1 POP DUP2 DUP2 SUB PUSH0 DUP4 ADD MSTORE PUSH2 0x35E3 DUP2 PUSH2 0x35AA JUMP JUMPDEST SWAP1 POP SWAP2 SWAP1 POP JUMP JUMPDEST PUSH32 0x57616974696E672074696D65206E6F7420706173736564207965740000000000 PUSH0 DUP3 ADD MSTORE POP JUMP JUMPDEST PUSH0 PUSH2 0x361E PUSH1 0x1B DUP4 PUSH2 0x2695 JUMP JUMPDEST SWAP2 POP PUSH2 0x3629 DUP3 PUSH2 0x35EA JUMP JUMPDEST PUSH1 0x20 DUP3 ADD SWAP1 POP SWAP2 SWAP1 POP JUMP JUMPDEST PUSH0 PUSH1 0x20 DUP3 ADD SWAP1 POP DUP2 DUP2 SUB PUSH0 DUP4 ADD MSTORE PUSH2 0x364B DUP2 PUSH2 0x3612 JUMP JUMPDEST SWAP1 POP SWAP2 SWAP1 POP JUMP JUMPDEST PUSH32 0x4E6F207665726966696572207965740000000000000000000000000000000000 PUSH0 DUP3 ADD MSTORE POP JUMP JUMPDEST PUSH0 PUSH2 0x3686 PUSH1 0xF DUP4 PUSH2 0x2695 JUMP JUMPDEST SWAP2 POP PUSH2 0x3691 DUP3 PUSH2 0x3652 JUMP JUMPDEST PUSH1 0x20 DUP3 ADD SWAP1 POP SWAP2 SWAP1 POP JUMP JUMPDEST PUSH0 PUSH1 0x20 DUP3 ADD SWAP1 POP DUP2 DUP2 SUB PUSH0 DUP4 ADD MSTORE PUSH2 0x36B3 DUP2 PUSH2 0x367A JUMP JUMPDEST SWAP1 POP SWAP2 SWAP1 POP JUMP JUMPDEST PUSH32 0x6469737075746564000000000000000000000000000000000000000000000000 PUSH0 DUP3 ADD MSTORE POP JUMP JUMPDEST PUSH0 PUSH2 0x36EE PUSH1 0x8 DUP4 PUSH2 0x2695 JUMP JUMPDEST SWAP2 POP PUSH2 0x36F9 DUP3 PUSH2 0x36BA JUMP JUMPDEST PUSH1 0x20 DUP3 ADD SWAP1 POP SWAP2 SWAP1 POP JUMP JUMPDEST PUSH0 PUSH1 0x20 DUP3 ADD SWAP1 POP DUP2 DUP2 SUB PUSH0 DUP4 ADD MSTORE PUSH2 0x371B DUP2 PUSH2 0x36E2 JUMP JUMPDEST SWAP1 POP SWAP2 SWAP1 POP JUMP JUMPDEST PUSH0 PUSH2 0x372C DUP3 PUSH2 0x25C6 JUMP JUMPDEST SWAP2 POP PUSH2 0x3737 DUP4 PUSH2 0x25C6 JUMP JUMPDEST SWAP3 POP DUP3 DUP3 MUL PUSH2 0x3745 DUP2 PUSH2 0x25C6 JUMP JUMPDEST SWAP2 POP DUP3 DUP3 DIV DUP5 EQ DUP4 ISZERO OR PUSH2 0x375C JUMPI PUSH2 0x375B PUSH2 0x2ABE JUMP JUMPDEST JUMPDEST POP SWAP3 SWAP2 POP POP JUMP JUMPDEST PUSH32 0x4E487B7100000000000000000000000000000000000000000000000000000000 PUSH0 MSTORE PUSH1 0x12 PUSH1 0x4 MSTORE PUSH1 0x24 PUSH0 REVERT JUMPDEST PUSH0 PUSH2 0x379A DUP3 PUSH2 0x25C6 JUMP JUMPDEST SWAP2 POP PUSH2 0x37A5 DUP4 PUSH2 0x25C6 JUMP JUMPDEST SWAP3 POP DUP3 PUSH2 0x37B5 JUMPI PUSH2 0x37B4 PUSH2 0x3763 JUMP JUMPDEST JUMPDEST DUP3 DUP3 DIV SWAP1 POP SWAP3 SWAP2 POP POP JUMP JUMPDEST PUSH2 0x37C9 DUP3 PUSH2 0x268B JUMP JUMPDEST PUSH8 0xFFFFFFFFFFFFFFFF DUP2 GT ISZERO PUSH2 0x37E2 JUMPI PUSH2 0x37E1 PUSH2 0x32A0 JUMP JUMPDEST JUMPDEST PUSH2 0x37EC DUP3 SLOAD PUSH2 0x2B4B JUMP JUMPDEST PUSH2 0x37F7 DUP3 DUP3 DUP6 PUSH2 0x33ED JUMP JUMPDEST PUSH0 PUSH1 0x20 SWAP1 POP PUSH1 0x1F DUP4 GT PUSH1 0x1 DUP2 EQ PUSH2 0x3828 JUMPI PUSH0 DUP5 ISZERO PUSH2 0x3816 JUMPI DUP3 DUP8 ADD MLOAD SWAP1 POP JUMPDEST PUSH2 0x3820 DUP6 DUP3 PUSH2 0x345B JUMP JUMPDEST DUP7 SSTORE POP PUSH2 0x3887 JUMP JUMPDEST PUSH1 0x1F NOT DUP5 AND PUSH2 0x3836 DUP7 PUSH2 0x32CD JUMP JUMPDEST PUSH0 JUMPDEST DUP3 DUP2 LT ISZERO PUSH2 0x385D JUMPI DUP5 DUP10 ADD MLOAD DUP3 SSTORE PUSH1 0x1 DUP3 ADD SWAP2 POP PUSH1 0x20 DUP6 ADD SWAP5 POP PUSH1 0x20 DUP2 ADD SWAP1 POP PUSH2 0x3838 JUMP JUMPDEST DUP7 DUP4 LT ISZERO PUSH2 0x387A JUMPI DUP5 DUP10 ADD MLOAD PUSH2 0x3876 PUSH1 0x1F DUP10 AND DUP3 PUSH2 0x343F JUMP JUMPDEST DUP4 SSTORE POP JUMPDEST PUSH1 0x1 PUSH1 0x2 DUP9 MUL ADD DUP9 SSTORE POP POP POP JUMPDEST POP POP POP POP POP POP JUMP JUMPDEST PUSH32 0x5461736B206E6F74207375626D69747465642028796574290000000000000000 PUSH0 DUP3 ADD MSTORE POP JUMP JUMPDEST PUSH0 PUSH2 0x38C3 PUSH1 0x18 DUP4 PUSH2 0x2695 JUMP JUMPDEST SWAP2 POP PUSH2 0x38CE DUP3 PUSH2 0x388F JUMP JUMPDEST PUSH1 0x20 DUP3 ADD SWAP1 POP SWAP2 SWAP1 POP JUMP JUMPDEST PUSH0 PUSH1 0x20 DUP3 ADD SWAP1 POP DUP2 DUP2 SUB PUSH0 DUP4 ADD MSTORE PUSH2 0x38F0 DUP2 PUSH2 0x38B7 JUMP JUMPDEST SWAP1 POP SWAP2 SWAP1 POP JUMP JUMPDEST PUSH32 0x5374616B65207265717569726564000000000000000000000000000000000000 PUSH0 DUP3 ADD MSTORE POP JUMP JUMPDEST PUSH0 PUSH2 0x392B PUSH1 0xE DUP4 PUSH2 0x2695 JUMP JUMPDEST SWAP2 POP PUSH2 0x3936 DUP3 PUSH2 0x38F7 JUMP JUMPDEST PUSH1 0x20 DUP3 ADD SWAP1 POP SWAP2 SWAP1 POP JUMP JUMPDEST PUSH0 PUSH1 0x20 DUP3 ADD SWAP1 POP DUP2 DUP2 SUB PUSH0 DUP4 ADD MSTORE PUSH2 0x3958 DUP2 PUSH2 0x391F JUMP JUMPDEST SWAP1 POP SWAP2 SWAP1 POP JUMP JUMPDEST PUSH32 0x416C726561647920766572696669656400000000000000000000000000000000 PUSH0 DUP3 ADD MSTORE POP JUMP JUMPDEST PUSH0 PUSH2 0x3993 PUSH1 0x10 DUP4 PUSH2 0x2695 JUMP JUMPDEST SWAP2 POP PUSH2 0x399E DUP3 PUSH2 0x395F JUMP JUMPDEST PUSH1 0x20 DUP3 ADD SWAP1 POP SWAP2 SWAP1 POP JUMP JUMPDEST PUSH0 PUSH1 0x20 DUP3 ADD SWAP1 POP DUP2 DUP2 SUB PUSH0 DUP4 ADD MSTORE PUSH2 0x39C0 DUP2 PUSH2 0x3987 JUMP JUMPDEST SWAP1 POP SWAP2 SWAP1 POP JUMP JUMPDEST PUSH0 PUSH1 0x60 DUP3 ADD SWAP1 POP PUSH2 0x39DA PUSH0 DUP4 ADD DUP7 PUSH2 0x2624 JUMP JUMPDEST PUSH2 0x39E7 PUSH1 0x20 DUP4 ADD DUP6 PUSH2 0x267C JUMP JUMPDEST PUSH2 0x39F4 PUSH1 0x40 DUP4 ADD DUP5 PUSH2 0x2706 JUMP JUMPDEST SWAP5 SWAP4 POP POP POP POP JUMP JUMPDEST PUSH32 0x4D7573742073656E6420626F756E747900000000000000000000000000000000 PUSH0 DUP3 ADD MSTORE POP JUMP JUMPDEST PUSH0 PUSH2 0x3A30 PUSH1 0x10 DUP4 PUSH2 0x2695 JUMP JUMPDEST SWAP2 POP PUSH2 0x3A3B DUP3 PUSH2 0x39FC JUMP JUMPDEST PUSH1 0x20 DUP3 ADD SWAP1 POP SWAP2 SWAP1 POP JUMP JUMPDEST PUSH0 PUSH1 0x20 DUP3 ADD SWAP1 POP DUP2 DUP2 SUB PUSH0 DUP4 ADD MSTORE PUSH2 0x3A5D DUP2 PUSH2 0x3A24 JUMP JUMPDEST SWAP1 POP SWAP2 SWAP1 POP JUMP JUMPDEST PUSH0 DUP3 SWAP1 POP SWAP3 SWAP2 POP POP JUMP JUMPDEST PUSH2 0x3A78 DUP4 DUP4 PUSH2 0x3A64 JUMP JUMPDEST PUSH8 0xFFFFFFFFFFFFFFFF DUP2 GT ISZERO PUSH2 0x3A91 JUMPI PUSH2 0x3A90 PUSH2 0x32A0 JUMP JUMPDEST JUMPDEST PUSH2 0x3A9B DUP3 SLOAD PUSH2 0x2B4B JUMP JUMPDEST PUSH2 0x3AA6 DUP3 DUP3 DUP6 PUSH2 0x33ED JUMP JUMPDEST PUSH0 PUSH1 0x1F DUP4 GT PUSH1 0x1 DUP2 EQ PUSH2 0x3AD3 JUMPI PUSH0 DUP5 ISZERO PUSH2 0x3AC1 JUMPI DUP3 DUP8 ADD CALLDATALOAD SWAP1 POP JUMPDEST PUSH2 0x3ACB DUP6 DUP3 PUSH2 0x345B JUMP JUMPDEST DUP7 SSTORE POP PUSH2 0x3B32 JUMP JUMPDEST PUSH1 0x1F NOT DUP5 AND PUSH2 0x3AE1 DUP7 PUSH2 0x32CD JUMP JUMPDEST PUSH0 JUMPDEST DUP3 DUP2 LT ISZERO PUSH2 0x3B08 JUMPI DUP5 DUP10 ADD CALLDATALOAD DUP3 SSTORE PUSH1 0x1 DUP3 ADD SWAP2 POP PUSH1 0x20 DUP6 ADD SWAP5 POP PUSH1 0x20 DUP2 ADD SWAP1 POP PUSH2 0x3AE3 JUMP JUMPDEST DUP7 DUP4 LT ISZERO PUSH2 0x3B25 JUMPI DUP5 DUP10 ADD CALLDATALOAD PUSH2 0x3B21 PUSH1 0x1F DUP10 AND DUP3 PUSH2 0x343F JUMP JUMPDEST DUP4 SSTORE POP JUMPDEST PUSH1 0x1 PUSH1 0x2 DUP9 MUL ADD DUP9 SSTORE POP POP POP JUMPDEST POP POP POP POP POP POP POP JUMP JUMPDEST DUP3 DUP2 DUP4 CALLDATACOPY PUSH0 DUP4 DUP4 ADD MSTORE POP POP POP JUMP JUMPDEST PUSH0 PUSH2 0x3B54 DUP4 DUP6 PUSH2 0x2695 JUMP JUMPDEST SWAP4 POP PUSH2 0x3B61 DUP4 DUP6 DUP5 PUSH2 0x3B3B JUMP JUMPDEST PUSH2 0x3B6A DUP4 PUSH2 0x26B3 JUMP JUMPDEST DUP5 ADD SWAP1 POP SWAP4 SWAP3 POP POP POP JUMP JUMPDEST PUSH0 PUSH1 0x80 DUP3 ADD SWAP1 POP PUSH2 0x3B88 PUSH0 DUP4 ADD DUP9 PUSH2 0x2624 JUMP JUMPDEST PUSH2 0x3B95 PUSH1 0x20 DUP4 ADD DUP8 PUSH2 0x267C JUMP JUMPDEST PUSH2 0x3BA2 PUSH1 0x40 DUP4 ADD DUP7 PUSH2 0x2624 JUMP JUMPDEST DUP2 DUP2 SUB PUSH1 0x60 DUP4 ADD MSTORE PUSH2 0x3BB5 DUP2 DUP5 DUP7 PUSH2 0x3B49 JUMP JUMPDEST SWAP1 POP SWAP7 SWAP6 POP POP POP POP POP POP JUMP JUMPDEST PUSH32 0x5461736B206E6F74206F70656E20287965742900000000000000000000000000 PUSH0 DUP3 ADD MSTORE POP JUMP JUMPDEST PUSH0 PUSH2 0x3BF5 PUSH1 0x13 DUP4 PUSH2 0x2695 JUMP JUMPDEST SWAP2 POP PUSH2 0x3C00 DUP3 PUSH2 0x3BC1 JUMP JUMPDEST PUSH1 0x20 DUP3 ADD SWAP1 POP SWAP2 SWAP1 POP JUMP JUMPDEST PUSH0 PUSH1 0x20 DUP3 ADD SWAP1 POP DUP2 DUP2 SUB PUSH0 DUP4 ADD MSTORE PUSH2 0x3C22 DUP2 PUSH2 0x3BE9 JUMP JUMPDEST SWAP1 POP SWAP2 SWAP1 POP JUMP JUMPDEST PUSH32 0x4120736F6C7574696F6E2068617320616C7265616479206265656E207375626D PUSH0 DUP3 ADD MSTORE PUSH32 0x6974746564000000000000000000000000000000000000000000000000000000 PUSH1 0x20 DUP3 ADD MSTORE POP JUMP JUMPDEST PUSH0 PUSH2 0x3C83 PUSH1 0x25 DUP4 PUSH2 0x2695 JUMP JUMPDEST SWAP2 POP PUSH2 0x3C8E DUP3 PUSH2 0x3C29 JUMP JUMPDEST PUSH1 0x40 DUP3 ADD SWAP1 POP SWAP2 SWAP1 POP JUMP JUMPDEST PUSH0 PUSH1 0x20 DUP3 ADD SWAP1 POP DUP2 DUP2 SUB PUSH0 DUP4 ADD MSTORE PUSH2 0x3CB0 DUP2 PUSH2 0x3C77 JUMP JUMPDEST SWAP1 POP SWAP2 SWAP1 POP JUMP JUMPDEST PUSH0 PUSH1 0x60 DUP3 ADD SWAP1 POP PUSH2 0x3CCA PUSH0 DUP4 ADD DUP8 PUSH2 0x2624 JUMP JUMPDEST PUSH2 0x3CD7 PUSH1 0x20 DUP4 ADD DUP7 PUSH2 0x267C JUMP JUMPDEST DUP2 DUP2 SUB PUSH1 0x40 DUP4 ADD MSTORE PUSH2 0x3CEA DUP2 DUP5 DUP7 PUSH2 0x3B49 JUMP JUMPDEST SWAP1 POP SWAP6 SWAP5 POP POP POP POP POP JUMP INVALID LOG2 PUSH5 0x6970667358 0x22 SLT KECCAK256 0xC5 CODESIZE LT 0xF7 0xAA 0xD5 GASPRICE DUP1 0xAE 0xDF 0xB1 DUP6 LOG1 SWAP7 KECCAK256 SAR 0xB9 RJUMP 0x3759 DUP8 TIMESTAMP JUMP CODECOPY PUSH13 0xF260A3E883DC5264736F6C6343 STOP ADDMOD 0x1E STOP CALLER "
		},
		"gasEstimates": {
			"creation": {
				"codeDepositCost": "3131800",
				"executionCost": "infinite",
				"totalCost": "infinite"
			},
			"external": {
				"createDispute(uint256)": "infinite",
				"disputePeriod()": "2514",
				"finalizeDispute(uint256)": "infinite",
				"finalizeTask(uint256)": "infinite",
				"getRemainingDisputeTime(uint256)": "infinite",
				"getRemainingTime(uint256)": "infinite",
				"getTask(uint256)": "infinite",
				"getTaskCount()": "2453",
				"governanceToken()": "infinite",
				"jurorVote(uint256,uint256,bool)": "infinite",
				"minJurorStake()": "2448",
				"postTask(string)": "infinite",
				"submitSolution(uint256,string)": "infinite",
				"verifySolution(uint256,bool)": "infinite"
			},
			"internal": {
				"_distributeRewards(uint256,bool)": "infinite",
				"_payoutAccepted(uint256)": "infinite"
			}
		},
		"methodIdentifiers": {
			"createDispute(uint256)": "4ac8a529",
			"disputePeriod()": "5bf31d4d",
			"finalizeDispute(uint256)": "56989a83",
			"finalizeTask(uint256)": "88488c33",
			"getRemainingDisputeTime(uint256)": "83b0474d",
			"getRemainingTime(uint256)": "181e0124",
			"getTask(uint256)": "1d65e77e",
			"getTaskCount()": "c17a340e",
			"governanceToken()": "f96dae0a",
			"jurorVote(uint256,uint256,bool)": "1df97777",
			"minJurorStake()": "276ae811",
			"postTask(string)": "c4ca280d",
			"submitSolution(uint256,string)": "d3b5c016",
			"verifySolution(uint256,bool)": "88860835"
		}
	},
	"abi": [
		{
			"inputs": [
				{
					"internalType": "address",
					"name": "_governanceToken",
					"type": "address"
				}
			],
			"stateMutability": "nonpayable",
			"type": "constructor"
		},
		{
			"anonymous": false,
			"inputs": [
				{
					"indexed": false,
					"internalType": "uint256",
					"name": "taskId",
					"type": "uint256"
				},
				{
					"indexed": false,
					"internalType": "address",
					"name": "objector",
					"type": "address"
				},
				{
					"indexed": false,
					"internalType": "uint256",
					"name": "deposit",
					"type": "uint256"
				},
				{
					"indexed": false,
					"internalType": "uint256",
					"name": "startTime",
					"type": "uint256"
				}
			],
			"name": "DisputeCreated",
			"type": "event"
		},
		{
			"anonymous": false,
			"inputs": [
				{
					"indexed": false,
					"internalType": "uint256",
					"name": "taskId",
					"type": "uint256"
				},
				{
					"indexed": false,
					"internalType": "bool",
					"name": "finalDecision",
					"type": "bool"
				}
			],
			"name": "DisputeFinalized",
			"type": "event"
		},
		{
			"anonymous": false,
			"inputs": [
				{
					"indexed": false,
					"internalType": "uint256",
					"name": "taskId",
					"type": "uint256"
				},
				{
					"indexed": false,
					"internalType": "address",
					"name": "juror",
					"type": "address"
				},
				{
					"indexed": false,
					"internalType": "bool",
					"name": "supportsSolution",
					"type": "bool"
				},
				{
					"indexed": false,
					"internalType": "uint256",
					"name": "weight",
					"type": "uint256"
				}
			],
			"name": "JurorVoted",
			"type": "event"
		},
		{
			"anonymous": false,
			"inputs": [
				{
					"indexed": false,
					"internalType": "uint256",
					"name": "taskId",
					"type": "uint256"
				},
				{
					"indexed": false,
					"internalType": "address",
					"name": "solver",
					"type": "address"
				},
				{
					"indexed": false,
					"internalType": "string",
					"name": "solutionHash",
					"type": "string"
				}
			],
			"name": "SolutionSubmitted",
			"type": "event"
		},
		{
			"anonymous": false,
			"inputs": [
				{
					"indexed": false,
					"internalType": "uint256",
					"name": "taskId",
					"type": "uint256"
				},
				{
					"indexed": false,
					"internalType": "address",
					"name": "verifier",
					"type": "address"
				},
				{
					"indexed": false,
					"internalType": "bool",
					"name": "approved",
					"type": "bool"
				}
			],
			"name": "SolutionVerified",
			"type": "event"
		},
		{
			"anonymous": false,
			"inputs": [
				{
					"indexed": false,
					"internalType": "uint256",
					"name": "taskId",
					"type": "uint256"
				},
				{
					"indexed": false,
					"internalType": "bool",
					"name": "success",
					"type": "bool"
				}
			],
			"name": "TaskFinalized",
			"type": "event"
		},
		{
			"anonymous": false,
			"inputs": [
				{
					"indexed": false,
					"internalType": "uint256",
					"name": "taskId",
					"type": "uint256"
				},
				{
					"indexed": false,
					"internalType": "address",
					"name": "creator",
					"type": "address"
				},
				{
					"indexed": false,
					"internalType": "uint256",
					"name": "bounty",
					"type": "uint256"
				},
				{
					"indexed": false,
					"internalType": "string",
					"name": "descriptionHash",
					"type": "string"
				}
			],
			"name": "TaskPosted",
			"type": "event"
		},
		{
			"inputs": [
				{
					"internalType": "uint256",
					"name": "_taskId",
					"type": "uint256"
				}
			],
			"name": "createDispute",
			"outputs": [],
			"stateMutability": "payable",
			"type": "function"
		},
		{
			"inputs": [],
			"name": "disputePeriod",
			"outputs": [
				{
					"internalType": "uint256",
					"name": "",
					"type": "uint256"
				}
			],
			"stateMutability": "view",
			"type": "function"
		},
		{
			"inputs": [
				{
					"internalType": "uint256",
					"name": "_taskId",
					"type": "uint256"
				}
			],
			"name": "finalizeDispute",
			"outputs": [],
			"stateMutability": "nonpayable",
			"type": "function"
		},
		{
			"inputs": [
				{
					"internalType": "uint256",
					"name": "_taskId",
					"type": "uint256"
				}
			],
			"name": "finalizeTask",
			"outputs": [],
			"stateMutability": "nonpayable",
			"type": "function"
		},
		{
			"inputs": [
				{
					"internalType": "uint256",
					"name": "_taskId",
					"type": "uint256"
				}
			],
			"name": "getRemainingDisputeTime",
			"outputs": [
				{
					"internalType": "uint256",
					"name": "Seconds",
					"type": "uint256"
				}
			],
			"stateMutability": "view",
			"type": "function"
		},
		{
			"inputs": [
				{
					"internalType": "uint256",
					"name": "_taskId",
					"type": "uint256"
				}
			],
			"name": "getRemainingTime",
			"outputs": [
				{
					"internalType": "uint256",
					"name": "Seconds",
					"type": "uint256"
				}
			],
			"stateMutability": "view",
			"type": "function"
		},
		{
			"inputs": [
				{
					"internalType": "uint256",
					"name": "_taskId",
					"type": "uint256"
				}
			],
			"name": "getTask",
			"outputs": [
				{
					"internalType": "address",
					"name": "creator",
					"type": "address"
				},
				{
					"internalType": "address",
					"name": "solver",
					"type": "address"
				},
				{
					"internalType": "address",
					"name": "verifier",
					"type": "address"
				},
				{
					"internalType": "uint256",
					"name": "bounty",
					"type": "uint256"
				},
				{
					"internalType": "string",
					"name": "descriptionHash",
					"type": "string"
				},
				{
					"internalType": "string",
					"name": "solutionHash",
					"type": "string"
				},
				{
					"internalType": "bool",
					"name": "approved",
					"type": "bool"
				},
				{
					"internalType": "uint256",
					"name": "deadline",
					"type": "uint256"
				},
				{
					"internalType": "enum TaskMarketplace.TaskStatus",
					"name": "status",
					"type": "uint8"
				}
			],
			"stateMutability": "view",
			"type": "function"
		},
		{
			"inputs": [],
			"name": "getTaskCount",
			"outputs": [
				{
					"internalType": "uint256",
					"name": "",
					"type": "uint256"
				}
			],
			"stateMutability": "view",
			"type": "function"
		},
		{
			"inputs": [],
			"name": "governanceToken",
			"outputs": [
				{
					"internalType": "contract IERC20",
					"name": "",
					"type": "address"
				}
			],
			"stateMutability": "view",
			"type": "function"
		},
		{
			"inputs": [
				{
					"internalType": "uint256",
					"name": "_taskId",
					"type": "uint256"
				},
				{
					"internalType": "uint256",
					"name": "_tokenAmount",
					"type": "uint256"
				},
				{
					"internalType": "bool",
					"name": "supportsSolution",
					"type": "bool"
				}
			],
			"name": "jurorVote",
			"outputs": [],
			"stateMutability": "nonpayable",
			"type": "function"
		},
		{
			"inputs": [],
			"name": "minJurorStake",
			"outputs": [
				{
					"internalType": "uint256",
					"name": "",
					"type": "uint256"
				}
			],
			"stateMutability": "view",
			"type": "function"
		},
		{
			"inputs": [
				{
					"internalType": "string",
					"name": "_descriptionHash",
					"type": "string"
				}
			],
			"name": "postTask",
			"outputs": [],
			"stateMutability": "payable",
			"type": "function"
		},
		{
			"inputs": [
				{
					"internalType": "uint256",
					"name": "_taskId",
					"type": "uint256"
				},
				{
					"internalType": "string",
					"name": "_solutionHash",
					"type": "string"
				}
			],
			"name": "submitSolution",
			"outputs": [],
			"stateMutability": "payable",
			"type": "function"
		},
		{
			"inputs": [
				{
					"internalType": "uint256",
					"name": "_taskId",
					"type": "uint256"
				},
				{
					"internalType": "bool",
					"name": "_approved",
					"type": "bool"
				}
			],
			"name": "verifySolution",
			"outputs": [],
			"stateMutability": "payable",
			"type": "function"
		}
	]
}