{
	"data": {
		"bytecode": {
			"linkReferences": {},
			"object": "6080604052662386f26fc10000600355662386f26fc1000060045568056bc75e2d6310000060055560b4600655348015610037575f5ffd5b50604051613d34380380613d34833981810160405281019061005991906100fd565b8060075f6101000a81548173ffffffffffffffffffffffffffffffffffffffff021916908373ffffffffffffffffffffffffffffffffffffffff16021790555050610128565b5f5ffd5b5f73ffffffffffffffffffffffffffffffffffffffff82169050919050565b5f6100cc826100a3565b9050919050565b6100dc816100c2565b81146100e6575f5ffd5b50565b5f815190506100f7816100d3565b92915050565b5f602082840312156101125761011161009f565b5b5f61011f848285016100e9565b91505092915050565b613bff806101355f395ff3fe6080604052600436106100c1575f3560e01c80635bf31d4d1161007e578063c17a340e11610058578063c17a340e14610249578063c4ca280d14610273578063d3b5c0161461028f578063f96dae0a146102ab576100c1565b80635bf31d4d146101db57806388488c3314610205578063888608351461022d576100c1565b8063181e0124146100c55780631d65e77e146101015780631df9777714610145578063276ae8111461016d5780634ac8a5291461019757806356989a83146101b3575b5f5ffd5b3480156100d0575f5ffd5b506100eb60048036038101906100e691906124cd565b6102d5565b6040516100f89190612507565b60405180910390f35b34801561010c575f5ffd5b50610127600480360381019061012291906124cd565b61038f565b60405161013c9998979695949392919061265c565b60405180910390f35b348015610150575f5ffd5b5061016b6004803603810190610166919061271f565b6105cf565b005b348015610178575f5ffd5b50610181610b13565b60405161018e9190612507565b60405180910390f35b6101b160048036038101906101ac91906124cd565b610b19565b005b3480156101be575f5ffd5b506101d960048036038101906101d491906124cd565b610e0c565b005b3480156101e6575f5ffd5b506101ef6112ce565b6040516101fc9190612507565b60405180910390f35b348015610210575f5ffd5b5061022b600480360381019061022691906124cd565b6112d4565b005b6102476004803603810190610242919061276f565b61180d565b005b348015610254575f5ffd5b5061025d611a9a565b60405161026a9190612507565b60405180910390f35b61028d6004803603810190610288919061280e565b611aa2565b005b6102a960048036038101906102a49190612859565b611bf8565b005b3480156102b6575f5ffd5b506102bf611e6b565b6040516102cc9190612911565b60405180910390f35b5f5f821180156102e657505f548211155b610325576040517f08c379a000000000000000000000000000000000000000000000000000000000815260040161031c90612974565b60405180910390fd5b5f60015f8481526020019081526020015f2060070154148061035a57504260015f8481526020019081526020015f2060070154105b15610367575f905061038a565b4260015f8481526020019081526020015f206007015461038791906129bf565b90505b919050565b5f5f5f5f6060805f5f5f5f8a1180156103a957505f548a11155b6103e8576040517f08c379a00000000000000000000000000000000000000000000000000000000081526004016103df90612974565b60405180910390fd5b5f60015f8c81526020019081526020015f209050805f015f9054906101000a900473ffffffffffffffffffffffffffffffffffffffff16816001015f9054906101000a900473ffffffffffffffffffffffffffffffffffffffff16826002015f9054906101000a900473ffffffffffffffffffffffffffffffffffffffff1683600301548460040185600501866006015f9054906101000a900460ff168760070154886008015f9054906101000a900460ff168480546104a790612a1f565b80601f01602080910402602001604051908101604052809291908181526020018280546104d390612a1f565b801561051e5780601f106104f55761010080835404028352916020019161051e565b820191905f5260205f20905b81548152906001019060200180831161050157829003601f168201915b5050505050945083805461053190612a1f565b80601f016020809104026020016040519081016040528092919081815260200182805461055d90612a1f565b80156105a85780601f1061057f576101008083540402835291602001916105a8565b820191905f5260205f20905b81548152906001019060200180831161058b57829003601f168201915b50505050509350995099509950995099509950995099509950509193959799909294969850565b5f831180156105df57505f548311155b61061e576040517f08c379a000000000000000000000000000000000000000000000000000000000815260040161061590612974565b60405180910390fd5b5f60025f8581526020019081526020015f209050805f015f9054906101000a900460ff16801561065c5750806005015f9054906101000a900460ff16155b61069b576040517f08c379a000000000000000000000000000000000000000000000000000000000815260040161069290612a99565b60405180910390fd5b60065481600101546106ad9190612ab7565b4211156106ef576040517f08c379a00000000000000000000000000000000000000000000000000000000081526004016106e690612b34565b60405180910390fd5b600554831015610734576040517f08c379a000000000000000000000000000000000000000000000000000000000815260040161072b90612b9c565b60405180910390fd5b5f816007015f3373ffffffffffffffffffffffffffffffffffffffff1673ffffffffffffffffffffffffffffffffffffffff1681526020019081526020015f2054146107b5576040517f08c379a00000000000000000000000000000000000000000000000000000000081526004016107ac90612c04565b60405180910390fd5b806006015f3373ffffffffffffffffffffffffffffffffffffffff1673ffffffffffffffffffffffffffffffffffffffff1681526020019081526020015f205f9054906101000a900460ff1615610841576040517f08c379a000000000000000000000000000000000000000000000000000000000815260040161083890612c6c565b60405180910390fd5b5f60075f9054906101000a900473ffffffffffffffffffffffffffffffffffffffff1673ffffffffffffffffffffffffffffffffffffffff166323b872dd3330876040518463ffffffff1660e01b81526004016108a093929190612c8a565b6020604051808303815f875af11580156108bc573d5f5f3e3d5ffd5b505050506040513d601f19601f820116820180604052508101906108e09190612cd3565b905080610922576040517f08c379a000000000000000000000000000000000000000000000000000000000815260040161091990612d48565b60405180910390fd5b82826008015f3373ffffffffffffffffffffffffffffffffffffffff1673ffffffffffffffffffffffffffffffffffffffff1681526020019081526020015f205f6101000a81548160ff02191690831515021790555083826007015f3373ffffffffffffffffffffffffffffffffffffffff1673ffffffffffffffffffffffffffffffffffffffff1681526020019081526020015f208190555083826004015f8282546109cf9190612ab7565b925050819055508160090133908060018154018082558091505060019003905f5260205f20015f9091909190916101000a81548173ffffffffffffffffffffffffffffffffffffffff021916908373ffffffffffffffffffffffffffffffffffffffff1602179055506001826006015f3373ffffffffffffffffffffffffffffffffffffffff1673ffffffffffffffffffffffffffffffffffffffff1681526020019081526020015f205f6101000a81548160ff0219169083151502179055508215610ab45783826002015f828254610aa89190612ab7565b92505081905550610acf565b83826003015f828254610ac79190612ab7565b925050819055505b7f804cb3f45e5253ac34847987d4d9ae8cfa21a176f777acb99b5988a4e01f8cfd85338587604051610b049493929190612d66565b60405180910390a15050505050565b60055481565b5f81118015610b2957505f548111155b610b68576040517f08c379a0000000000000000000000000000000000000000000000000000000008152600401610b5f90612974565b60405180910390fd5b5f60015f8381526020019081526020015f20905060026005811115610b9057610b8f6125e9565b5b816008015f9054906101000a900460ff166005811115610bb357610bb26125e9565b5b14610bf3576040517f08c379a0000000000000000000000000000000000000000000000000000000008152600401610bea90612df3565b60405180910390fd5b80600701544210610c39576040517f08c379a0000000000000000000000000000000000000000000000000000000008152600401610c3090612e5b565b60405180910390fd5b6004543414610c7d576040517f08c379a0000000000000000000000000000000000000000000000000000000008152600401610c7490612ec3565b60405180910390fd5b60025f8381526020019081526020015f205f015f9054906101000a900460ff161580610cc6575060025f8381526020019081526020015f206005015f9054906101000a900460ff165b610d05576040517f08c379a0000000000000000000000000000000000000000000000000000000008152600401610cfc90612f2b565b60405180910390fd5b6003816008015f6101000a81548160ff02191690836005811115610d2c57610d2b6125e9565b5b02179055505f60025f8481526020019081526020015f2090506001815f015f6101000a81548160ff02191690831515021790555033815f0160016101000a81548173ffffffffffffffffffffffffffffffffffffffff021916908373ffffffffffffffffffffffffffffffffffffffff1602179055504281600101819055505f816005015f6101000a81548160ff0219169083151502179055507f1d2f4ade11fcea3a321eb215e6561c2f95d30d0f1bcf7ad3d715932b61d0da9a8333348460010154604051610dff9493929190612f49565b60405180910390a1505050565b5f81118015610e1c57505f548111155b610e5b576040517f08c379a0000000000000000000000000000000000000000000000000000000008152600401610e5290612974565b60405180910390fd5b5f60025f8381526020019081526020015f2090505f60015f8481526020019081526020015f209050815f015f9054906101000a900460ff16610ed2576040517f08c379a0000000000000000000000000000000000000000000000000000000008152600401610ec990612fd6565b60405180910390fd5b816005015f9054906101000a900460ff1615610f23576040517f08c379a0000000000000000000000000000000000000000000000000000000008152600401610f1a9061303e565b60405180910390fd5b6006548260010154610f359190612ab7565b4211610f76576040517f08c379a0000000000000000000000000000000000000000000000000000000008152600401610f6d906130a6565b60405180910390fd5b6001826005015f6101000a81548160ff0219169083151502179055505f826002015490505f83600301549050808210610fc257610fb4856001611e90565b610fbd85612245565b610fcd565b610fcc855f611e90565b5b5f5f90505b846009018054905081101561115e575f856009018281548110610ff857610ff76130c4565b5b905f5260205f20015f9054906101000a900473ffffffffffffffffffffffffffffffffffffffff1690505f866007015f8373ffffffffffffffffffffffffffffffffffffffff1673ffffffffffffffffffffffffffffffffffffffff1681526020019081526020015f205490505f81111561114f575f876007015f8473ffffffffffffffffffffffffffffffffffffffff1673ffffffffffffffffffffffffffffffffffffffff1681526020019081526020015f208190555060075f9054906101000a900473ffffffffffffffffffffffffffffffffffffffff1673ffffffffffffffffffffffffffffffffffffffff1663a9059cbb83836040518363ffffffff1660e01b815260040161110d9291906130f1565b6020604051808303815f875af1158015611129573d5f5f3e3d5ffd5b505050506040513d601f19601f8201168201806040525081019061114d9190612cd3565b505b50508080600101915050610fd2565b508082101561128b576005836008015f6101000a81548160ff0219169083600581111561118e5761118d6125e9565b5b02179055505f5f8154809291906111a490613118565b91905055505f60015f5f5481526020019081526020015f209050835f015f9054906101000a900473ffffffffffffffffffffffffffffffffffffffff16815f015f6101000a81548173ffffffffffffffffffffffffffffffffffffffff021916908373ffffffffffffffffffffffffffffffffffffffff1602179055508360030154816003018190555083600401816004019081611242919061334a565b505f816006015f6101000a81548160ff0219169083151502179055505f816008015f6101000a81548160ff02191690836005811115611284576112836125e9565b5b0217905550505b7f6094caf45c2924da34dd706c33f09ec619587bac9144486d8f82b0316e47e7b385828410156040516112bf92919061342f565b60405180910390a15050505050565b60065481565b5f811180156112e457505f548111155b611323576040517f08c379a000000000000000000000000000000000000000000000000000000000815260040161131a90612974565b60405180910390fd5b5f60015f8381526020019081526020015f2090506002600581111561134b5761134a6125e9565b5b816008015f9054906101000a900460ff16600581111561136e5761136d6125e9565b5b146113ae576040517f08c379a00000000000000000000000000000000000000000000000000000000081526004016113a5906134a0565b60405180910390fd5b806007015442116113f4576040517f08c379a00000000000000000000000000000000000000000000000000000000081526004016113eb90613508565b60405180910390fd5b5f73ffffffffffffffffffffffffffffffffffffffff16816002015f9054906101000a900473ffffffffffffffffffffffffffffffffffffffff1673ffffffffffffffffffffffffffffffffffffffff1603611485576040517f08c379a000000000000000000000000000000000000000000000000000000000815260040161147c90613570565b60405180910390fd5b60025f8381526020019081526020015f205f015f9054906101000a900460ff16156114e5576040517f08c379a00000000000000000000000000000000000000000000000000000000081526004016114dc906135d8565b60405180910390fd5b806006015f9054906101000a900460ff1615611656576004816008015f6101000a81548160ff02191690836005811115611522576115216125e9565b5b02179055505f6064605a836003015461153b91906135f6565b6115459190613664565b90505f6064600a846003015461155b91906135f6565b6115659190613664565b9050826001015f9054906101000a900473ffffffffffffffffffffffffffffffffffffffff1673ffffffffffffffffffffffffffffffffffffffff166108fc600354846115b29190612ab7565b90811502906040515f60405180830381858888f193505050501580156115da573d5f5f3e3d5ffd5b50826002015f9054906101000a900473ffffffffffffffffffffffffffffffffffffffff1673ffffffffffffffffffffffffffffffffffffffff166108fc600454836116269190612ab7565b90811502906040515f60405180830381858888f1935050505015801561164e573d5f5f3e3d5ffd5b5050506117c0565b806002015f9054906101000a900473ffffffffffffffffffffffffffffffffffffffff1673ffffffffffffffffffffffffffffffffffffffff166108fc6004546003546116a39190612ab7565b90811502906040515f60405180830381858888f193505050501580156116cb573d5f5f3e3d5ffd5b505f816008015f6101000a81548160ff021916908360058111156116f2576116f16125e9565b5b02179055505f816001015f6101000a81548173ffffffffffffffffffffffffffffffffffffffff021916908373ffffffffffffffffffffffffffffffffffffffff1602179055505f816002015f6101000a81548173ffffffffffffffffffffffffffffffffffffffff021916908373ffffffffffffffffffffffffffffffffffffffff16021790555060405180602001604052805f81525081600501908161179a9190613694565b505f81600701819055505f816006015f6101000a81548160ff0219169083151502179055505b7f9deada0165c5e1eac62423dbf1dd30115314b076a9d6d3868daf316f1cb285e982826006015f9054906101000a900460ff1660405161180192919061342f565b60405180910390a15050565b5f8211801561181d57505f548211155b61185c576040517f08c379a000000000000000000000000000000000000000000000000000000000815260040161185390612974565b60405180910390fd5b5f60015f8481526020019081526020015f20905060016005811115611884576118836125e9565b5b816008015f9054906101000a900460ff1660058111156118a7576118a66125e9565b5b146118e7576040517f08c379a00000000000000000000000000000000000000000000000000000000081526004016118de906137ad565b60405180910390fd5b600454341461192b576040517f08c379a000000000000000000000000000000000000000000000000000000000815260040161192290613815565b60405180910390fd5b5f73ffffffffffffffffffffffffffffffffffffffff16816002015f9054906101000a900473ffffffffffffffffffffffffffffffffffffffff1673ffffffffffffffffffffffffffffffffffffffff16146119bc576040517f08c379a00000000000000000000000000000000000000000000000000000000081526004016119b39061387d565b60405180910390fd5b33816002015f6101000a81548173ffffffffffffffffffffffffffffffffffffffff021916908373ffffffffffffffffffffffffffffffffffffffff16021790555081816006015f6101000a81548160ff021916908315150217905550603c42611a269190612ab7565b81600701819055506002816008015f6101000a81548160ff02191690836005811115611a5557611a546125e9565b5b02179055507f28f0202dcb9c68cb7b1c95a88074daa5de2f0f8f6e1c69d9d509140a3228871b833384604051611a8d9392919061389b565b60405180910390a1505050565b5f5f54905090565b5f3411611ae4576040517f08c379a0000000000000000000000000000000000000000000000000000000008152600401611adb9061391a565b60405180910390fd5b5f5f815480929190611af590613118565b91905055505f60015f5f5481526020019081526020015f20905033815f015f6101000a81548173ffffffffffffffffffffffffffffffffffffffff021916908373ffffffffffffffffffffffffffffffffffffffff1602179055503481600301819055508282826004019182611b6c929190613942565b505f816006015f6101000a81548160ff0219169083151502179055505f816008015f6101000a81548160ff02191690836005811115611bae57611bad6125e9565b5b02179055507f05fddf931b4d1e3b95f2b6fb12ab475fe9555ce60fd2bfe66b84060f2dc22a2e5f5433348686604051611beb959493929190613a49565b60405180910390a1505050565b5f83118015611c0857505f548311155b611c47576040517f08c379a0000000000000000000000000000000000000000000000000000000008152600401611c3e90612974565b60405180910390fd5b5f60015f8581526020019081526020015f2090505f6005811115611c6e57611c6d6125e9565b5b816008015f9054906101000a900460ff166005811115611c9157611c906125e9565b5b14611cd1576040517f08c379a0000000000000000000000000000000000000000000000000000000008152600401611cc890613adf565b60405180910390fd5b6003543414611d15576040517f08c379a0000000000000000000000000000000000000000000000000000000008152600401611d0c90613815565b60405180910390fd5b5f73ffffffffffffffffffffffffffffffffffffffff16816001015f9054906101000a900473ffffffffffffffffffffffffffffffffffffffff1673ffffffffffffffffffffffffffffffffffffffff1614611da6576040517f08c379a0000000000000000000000000000000000000000000000000000000008152600401611d9d90613b6d565b60405180910390fd5b8282826005019182611db9929190613942565b5033816001015f6101000a81548173ffffffffffffffffffffffffffffffffffffffff021916908373ffffffffffffffffffffffffffffffffffffffff1602179055506001816008015f6101000a81548160ff02191690836005811115611e2357611e226125e9565b5b02179055507fa90ae9720245855cd0178118b70cc1ee497003d06d996ee5c304a19e5b25d91584338585604051611e5d9493929190613b8b565b60405180910390a150505050565b60075f9054906101000a900473ffffffffffffffffffffffffffffffffffffffff1681565b5f60025f8481526020019081526020015f2090505f60015f8581526020019081526020015f2090505f5f60646028600454611ecb91906135f6565b611ed59190613664565b9050826006015f9054906101000a900460ff16151585151503611efa575f9150611f7f565b60646032600454611f0b91906135f6565b611f159190613664565b9150835f0160019054906101000a900473ffffffffffffffffffffffffffffffffffffffff1673ffffffffffffffffffffffffffffffffffffffff166108fc8390811502906040515f60405180830381858888f19350505050158015611f7d573d5f5f3e3d5ffd5b505b5f8183600454611f8f91906129bf565b611f9991906129bf565b90508561203657836006015f9054906101000a900460ff1615611fcb5760035481611fc49190612ab7565b9050612035565b836002015f9054906101000a900473ffffffffffffffffffffffffffffffffffffffff1673ffffffffffffffffffffffffffffffffffffffff166108fc60035490811502906040515f60405180830381858888f19350505050158015612033573d5f5f3e3d5ffd5b505b5b5f8661204657856003015461204c565b85600201545b90505f810361206e5782826120619190612ab7565b9150505050505050612241565b5f5f90505b8660090180549050811015612239575f876009018281548110612099576120986130c4565b5b905f5260205f20015f9054906101000a900473ffffffffffffffffffffffffffffffffffffffff169050876006015f8273ffffffffffffffffffffffffffffffffffffffff1673ffffffffffffffffffffffffffffffffffffffff1681526020019081526020015f205f9054906101000a900460ff161561222b575f886007015f8373ffffffffffffffffffffffffffffffffffffffff1673ffffffffffffffffffffffffffffffffffffffff1681526020019081526020015f205490505f896008015f8473ffffffffffffffffffffffffffffffffffffffff1673ffffffffffffffffffffffffffffffffffffffff1681526020019081526020015f205f9054906101000a900460ff1690508a80156121b05750805b806121c357508a1580156121c2575080155b5b15612228575f8588846121d691906135f6565b6121e09190613664565b90508373ffffffffffffffffffffffffffffffffffffffff166108fc8290811502906040515f60405180830381858888f19350505050158015612225573d5f5f3e3d5ffd5b50505b50505b508080600101915050612073565b505050505050505b5050565b5f60015f8381526020019081526020015f2090505f60025f8481526020019081526020015f2090506004826008015f6101000a81548160ff02191690836005811115612294576122936125e9565b5b02179055505f6064605a84600301546122ad91906135f6565b6122b79190613664565b90505f6064600a85600301546122cd91906135f6565b6122d79190613664565b9050836001015f9054906101000a900473ffffffffffffffffffffffffffffffffffffffff1673ffffffffffffffffffffffffffffffffffffffff166108fc600354846123249190612ab7565b90811502906040515f60405180830381858888f1935050505015801561234c573d5f5f3e3d5ffd5b50836006015f9054906101000a900460ff16156123dc57836002015f9054906101000a900473ffffffffffffffffffffffffffffffffffffffff1673ffffffffffffffffffffffffffffffffffffffff166108fc600454836123ae9190612ab7565b90811502906040515f60405180830381858888f193505050501580156123d6573d5f5f3e3d5ffd5b50612451565b825f0160019054906101000a900473ffffffffffffffffffffffffffffffffffffffff1673ffffffffffffffffffffffffffffffffffffffff166108fc600454836124279190612ab7565b90811502906040515f60405180830381858888f1935050505015801561244f573d5f5f3e3d5ffd5b505b7f9deada0165c5e1eac62423dbf1dd30115314b076a9d6d3868daf316f1cb285e985600160405161248392919061342f565b60405180910390a15050505050565b5f5ffd5b5f5ffd5b5f819050919050565b6124ac8161249a565b81146124b6575f5ffd5b50565b5f813590506124c7816124a3565b92915050565b5f602082840312156124e2576124e1612492565b5b5f6124ef848285016124b9565b91505092915050565b6125018161249a565b82525050565b5f60208201905061251a5f8301846124f8565b92915050565b5f73ffffffffffffffffffffffffffffffffffffffff82169050919050565b5f61254982612520565b9050919050565b6125598161253f565b82525050565b5f81519050919050565b5f82825260208201905092915050565b8281835e5f83830152505050565b5f601f19601f8301169050919050565b5f6125a18261255f565b6125ab8185612569565b93506125bb818560208601612579565b6125c481612587565b840191505092915050565b5f8115159050919050565b6125e3816125cf565b82525050565b7f4e487b71000000000000000000000000000000000000000000000000000000005f52602160045260245ffd5b60068110612627576126266125e9565b5b50565b5f81905061263782612616565b919050565b5f6126468261262a565b9050919050565b6126568161263c565b82525050565b5f610120820190506126705f83018c612550565b61267d602083018b612550565b61268a604083018a612550565b61269760608301896124f8565b81810360808301526126a98188612597565b905081810360a08301526126bd8187612597565b90506126cc60c08301866125da565b6126d960e08301856124f8565b6126e761010083018461264d565b9a9950505050505050505050565b6126fe816125cf565b8114612708575f5ffd5b50565b5f81359050612719816126f5565b92915050565b5f5f5f6060848603121561273657612735612492565b5b5f612743868287016124b9565b9350506020612754868287016124b9565b92505060406127658682870161270b565b9150509250925092565b5f5f6040838503121561278557612784612492565b5b5f612792858286016124b9565b92505060206127a38582860161270b565b9150509250929050565b5f5ffd5b5f5ffd5b5f5ffd5b5f5f83601f8401126127ce576127cd6127ad565b5b8235905067ffffffffffffffff8111156127eb576127ea6127b1565b5b602083019150836001820283011115612807576128066127b5565b5b9250929050565b5f5f6020838503121561282457612823612492565b5b5f83013567ffffffffffffffff81111561284157612840612496565b5b61284d858286016127b9565b92509250509250929050565b5f5f5f604084860312156128705761286f612492565b5b5f61287d868287016124b9565b935050602084013567ffffffffffffffff81111561289e5761289d612496565b5b6128aa868287016127b9565b92509250509250925092565b5f819050919050565b5f6128d96128d46128cf84612520565b6128b6565b612520565b9050919050565b5f6128ea826128bf565b9050919050565b5f6128fb826128e0565b9050919050565b61290b816128f1565b82525050565b5f6020820190506129245f830184612902565b92915050565b7f496e76616c6964207461736b20696400000000000000000000000000000000005f82015250565b5f61295e600f83612569565b91506129698261292a565b602082019050919050565b5f6020820190508181035f83015261298b81612952565b9050919050565b7f4e487b71000000000000000000000000000000000000000000000000000000005f52601160045260245ffd5b5f6129c98261249a565b91506129d48361249a565b92508282039050818111156129ec576129eb612992565b5b92915050565b7f4e487b71000000000000000000000000000000000000000000000000000000005f52602260045260245ffd5b5f6002820490506001821680612a3657607f821691505b602082108103612a4957612a486129f2565b5b50919050565b7f4e6f2061637469766520646973707574650000000000000000000000000000005f82015250565b5f612a83601183612569565b9150612a8e82612a4f565b602082019050919050565b5f6020820190508181035f830152612ab081612a77565b9050919050565b5f612ac18261249a565b9150612acc8361249a565b9250828201905080821115612ae457612ae3612992565b5b92915050565b7f566f74696e6720706572696f6420656e646564000000000000000000000000005f82015250565b5f612b1e601383612569565b9150612b2982612aea565b602082019050919050565b5f6020820190508181035f830152612b4b81612b12565b9050919050565b7f5374616b6520746f6f20736d616c6c00000000000000000000000000000000005f82015250565b5f612b86600f83612569565b9150612b9182612b52565b602082019050919050565b5f6020820190508181035f830152612bb381612b7a565b9050919050565b7f416c7265616479207265676973746572656400000000000000000000000000005f82015250565b5f612bee601283612569565b9150612bf982612bba565b602082019050919050565b5f6020820190508181035f830152612c1b81612be2565b9050919050565b7f416c726561647920766f746564000000000000000000000000000000000000005f82015250565b5f612c56600d83612569565b9150612c6182612c22565b602082019050919050565b5f6020820190508181035f830152612c8381612c4a565b9050919050565b5f606082019050612c9d5f830186612550565b612caa6020830185612550565b612cb760408301846124f8565b949350505050565b5f81519050612ccd816126f5565b92915050565b5f60208284031215612ce857612ce7612492565b5b5f612cf584828501612cbf565b91505092915050565b7f546f6b656e207472616e73666572206661696c656400000000000000000000005f82015250565b5f612d32601583612569565b9150612d3d82612cfe565b602082019050919050565b5f6020820190508181035f830152612d5f81612d26565b9050919050565b5f608082019050612d795f8301876124f8565b612d866020830186612550565b612d9360408301856125da565b612da060608301846124f8565b95945050505050565b7f5461736b206e6f7420696e2072657669657720287965742900000000000000005f82015250565b5f612ddd601883612569565b9150612de882612da9565b602082019050919050565b5f6020820190508181035f830152612e0a81612dd1565b9050919050565b7f446561646c696e652070617373656400000000000000000000000000000000005f82015250565b5f612e45600f83612569565b9150612e5082612e11565b602082019050919050565b5f6020820190508181035f830152612e7281612e39565b9050919050565b7f496e636f72726563742064697370757465206465706f736974000000000000005f82015250565b5f612ead601983612569565b9150612eb882612e79565b602082019050919050565b5f6020820190508181035f830152612eda81612ea1565b9050919050565b7f4578697374696e672064697370757465206163746976650000000000000000005f82015250565b5f612f15601783612569565b9150612f2082612ee1565b602082019050919050565b5f6020820190508181035f830152612f4281612f09565b9050919050565b5f608082019050612f5c5f8301876124f8565b612f696020830186612550565b612f7660408301856124f8565b612f8360608301846124f8565b95945050505050565b7f4e6f2064697370757465000000000000000000000000000000000000000000005f82015250565b5f612fc0600a83612569565b9150612fcb82612f8c565b602082019050919050565b5f6020820190508181035f830152612fed81612fb4565b9050919050565b7f416c72656164792066696e616c697a65640000000000000000000000000000005f82015250565b5f613028601183612569565b915061303382612ff4565b602082019050919050565b5f6020820190508181035f8301526130558161301c565b9050919050565b7f566f74696e672077696e646f77207374696c6c206f70656e00000000000000005f82015250565b5f613090601883612569565b915061309b8261305c565b602082019050919050565b5f6020820190508181035f8301526130bd81613084565b9050919050565b7f4e487b71000000000000000000000000000000000000000000000000000000005f52603260045260245ffd5b5f6040820190506131045f830185612550565b61311160208301846124f8565b9392505050565b5f6131228261249a565b91507fffffffffffffffffffffffffffffffffffffffffffffffffffffffffffffffff820361315457613153612992565b5b600182019050919050565b5f8154905061316d81612a1f565b9050919050565b7f4e487b71000000000000000000000000000000000000000000000000000000005f52604160045260245ffd5b5f819050815f5260205f209050919050565b5f819050815f5260205f209050919050565b5f6020601f8301049050919050565b5f82821b905092915050565b5f6008830261320f7fffffffffffffffffffffffffffffffffffffffffffffffffffffffffffffffff826131d4565b61321986836131d4565b95508019841693508086168417925050509392505050565b5f61324b6132466132418461249a565b6128b6565b61249a565b9050919050565b5f819050919050565b61326483613231565b61327861327082613252565b8484546131e0565b825550505050565b5f5f905090565b61328f613280565b61329a81848461325b565b505050565b5b818110156132bd576132b25f82613287565b6001810190506132a0565b5050565b601f821115613302576132d3816131a1565b6132dc846131c5565b810160208510156132eb578190505b6132ff6132f7856131c5565b83018261329f565b50505b505050565b5f82821c905092915050565b5f6133225f1984600802613307565b1980831691505092915050565b5f61333a8383613313565b9150826002028217905092915050565b81810361335857505061342d565b6133618261315f565b67ffffffffffffffff81111561337a57613379613174565b5b6133848254612a1f565b61338f8282856132c1565b5f601f8311600181146133bc575f84156133aa578287015490505b6133b4858261332f565b865550613426565b601f1984166133ca876131b3565b96506133d5866131a1565b5f5b828110156133fc578489015482556001820191506001850194506020810190506133d7565b868310156134195784890154613415601f891682613313565b8355505b6001600288020188555050505b5050505050505b565b5f6040820190506134425f8301856124f8565b61344f60208301846125da565b9392505050565b7f5461736b206e6f742076657269666965642028796574290000000000000000005f82015250565b5f61348a601783612569565b915061349582613456565b602082019050919050565b5f6020820190508181035f8301526134b78161347e565b9050919050565b7f57616974696e672074696d65206e6f74207061737365642079657400000000005f82015250565b5f6134f2601b83612569565b91506134fd826134be565b602082019050919050565b5f6020820190508181035f83015261351f816134e6565b9050919050565b7f4e6f2076657269666965722079657400000000000000000000000000000000005f82015250565b5f61355a600f83612569565b915061356582613526565b602082019050919050565b5f6020820190508181035f8301526135878161354e565b9050919050565b7f64697370757465640000000000000000000000000000000000000000000000005f82015250565b5f6135c2600883612569565b91506135cd8261358e565b602082019050919050565b5f6020820190508181035f8301526135ef816135b6565b9050919050565b5f6136008261249a565b915061360b8361249a565b92508282026136198161249a565b915082820484148315176136305761362f612992565b5b5092915050565b7f4e487b71000000000000000000000000000000000000000000000000000000005f52601260045260245ffd5b5f61366e8261249a565b91506136798361249a565b92508261368957613688613637565b5b828204905092915050565b61369d8261255f565b67ffffffffffffffff8111156136b6576136b5613174565b5b6136c08254612a1f565b6136cb8282856132c1565b5f60209050601f8311600181146136fc575f84156136ea578287015190505b6136f4858261332f565b86555061375b565b601f19841661370a866131a1565b5f5b828110156137315784890151825560018201915060208501945060208101905061370c565b8683101561374e578489015161374a601f891682613313565b8355505b6001600288020188555050505b505050505050565b7f5461736b206e6f74207375626d697474656420287965742900000000000000005f82015250565b5f613797601883612569565b91506137a282613763565b602082019050919050565b5f6020820190508181035f8301526137c48161378b565b9050919050565b7f5374616b652072657175697265640000000000000000000000000000000000005f82015250565b5f6137ff600e83612569565b915061380a826137cb565b602082019050919050565b5f6020820190508181035f83015261382c816137f3565b9050919050565b7f416c7265616479207665726966696564000000000000000000000000000000005f82015250565b5f613867601083612569565b915061387282613833565b602082019050919050565b5f6020820190508181035f8301526138948161385b565b9050919050565b5f6060820190506138ae5f8301866124f8565b6138bb6020830185612550565b6138c860408301846125da565b949350505050565b7f4d7573742073656e6420626f756e7479000000000000000000000000000000005f82015250565b5f613904601083612569565b915061390f826138d0565b602082019050919050565b5f6020820190508181035f830152613931816138f8565b9050919050565b5f82905092915050565b61394c8383613938565b67ffffffffffffffff81111561396557613964613174565b5b61396f8254612a1f565b61397a8282856132c1565b5f601f8311600181146139a7575f8415613995578287013590505b61399f858261332f565b865550613a06565b601f1984166139b5866131a1565b5f5b828110156139dc578489013582556001820191506020850194506020810190506139b7565b868310156139f957848901356139f5601f891682613313565b8355505b6001600288020188555050505b50505050505050565b828183375f83830152505050565b5f613a288385612569565b9350613a35838584613a0f565b613a3e83612587565b840190509392505050565b5f608082019050613a5c5f8301886124f8565b613a696020830187612550565b613a7660408301866124f8565b8181036060830152613a89818486613a1d565b90509695505050505050565b7f5461736b206e6f74206f70656e202879657429000000000000000000000000005f82015250565b5f613ac9601383612569565b9150613ad482613a95565b602082019050919050565b5f6020820190508181035f830152613af681613abd565b9050919050565b7f4120736f6c7574696f6e2068617320616c7265616479206265656e207375626d5f8201527f6974746564000000000000000000000000000000000000000000000000000000602082015250565b5f613b57602583612569565b9150613b6282613afd565b604082019050919050565b5f6020820190508181035f830152613b8481613b4b565b9050919050565b5f606082019050613b9e5f8301876124f8565b613bab6020830186612550565b8181036040830152613bbe818486613a1d565b90509594505050505056fea2646970667358221220835f26c44fc23e055a6802326158e9b88e2d961942e85bea869888ab440a88da64736f6c634300081e0033",
			"opcodes": "PUSH1 0x80 PUSH1 0x40 MSTORE PUSH7 0x2386F26FC10000 PUSH1 0x3 SSTORE PUSH7 0x2386F26FC10000 PUSH1 0x4 SSTORE PUSH9 0x56BC75E2D63100000 PUSH1 0x5 SSTORE PUSH1 0xB4 PUSH1 0x6 SSTORE CALLVALUE DUP1 ISZERO PUSH2 0x37 JUMPI PUSH0 PUSH0 REVERT JUMPDEST POP PUSH1 0x40 MLOAD PUSH2 0x3D34 CODESIZE SUB DUP1 PUSH2 0x3D34 DUP4 CODECOPY DUP2 DUP2 ADD PUSH1 0x40 MSTORE DUP2 ADD SWAP1 PUSH2 0x59 SWAP2 SWAP1 PUSH2 0xFD JUMP JUMPDEST DUP1 PUSH1 0x7 PUSH0 PUSH2 0x100 EXP DUP2 SLOAD DUP2 PUSH20 0xFFFFFFFFFFFFFFFFFFFFFFFFFFFFFFFFFFFFFFFF MUL NOT AND SWAP1 DUP4 PUSH20 0xFFFFFFFFFFFFFFFFFFFFFFFFFFFFFFFFFFFFFFFF AND MUL OR SWAP1 SSTORE POP POP PUSH2 0x128 JUMP JUMPDEST PUSH0 PUSH0 REVERT JUMPDEST PUSH0 PUSH20 0xFFFFFFFFFFFFFFFFFFFFFFFFFFFFFFFFFFFFFFFF DUP3 AND SWAP1 POP SWAP2 SWAP1 POP JUMP JUMPDEST PUSH0 PUSH2 0xCC DUP3 PUSH2 0xA3 JUMP JUMPDEST SWAP1 POP SWAP2 SWAP1 POP JUMP JUMPDEST PUSH2 0xDC DUP2 PUSH2 0xC2 JUMP JUMPDEST DUP2 EQ PUSH2 0xE6 JUMPI PUSH0 PUSH0 REVERT JUMPDEST POP JUMP JUMPDEST PUSH0 DUP2 MLOAD SWAP1 POP PUSH2 0xF7 DUP2 PUSH2 0xD3 JUMP JUMPDEST SWAP3 SWAP2 POP POP JUMP JUMPDEST PUSH0 PUSH1 0x20 DUP3 DUP5 SUB SLT ISZERO PUSH2 0x112 JUMPI PUSH2 0x111 PUSH2 0x9F JUMP JUMPDEST JUMPDEST PUSH0 PUSH2 0x11F DUP5 DUP3 DUP6 ADD PUSH2 0xE9 JUMP JUMPDEST SWAP2 POP POP SWAP3 SWAP2 POP POP JUMP JUMPDEST PUSH2 0x3BFF DUP1 PUSH2 0x135 PUSH0 CODECOPY PUSH0 RETURN INVALID PUSH1 0x80 PUSH1 0x40 MSTORE PUSH1 0x4 CALLDATASIZE LT PUSH2 0xC1 JUMPI PUSH0 CALLDATALOAD PUSH1 0xE0 SHR DUP1 PUSH4 0x5BF31D4D GT PUSH2 0x7E JUMPI DUP1 PUSH4 0xC17A340E GT PUSH2 0x58 JUMPI DUP1 PUSH4 0xC17A340E EQ PUSH2 0x249 JUMPI DUP1 PUSH4 0xC4CA280D EQ PUSH2 0x273 JUMPI DUP1 PUSH4 0xD3B5C016 EQ PUSH2 0x28F JUMPI DUP1 PUSH4 0xF96DAE0A EQ PUSH2 0x2AB JUMPI PUSH2 0xC1 JUMP JUMPDEST DUP1 PUSH4 0x5BF31D4D EQ PUSH2 0x1DB JUMPI DUP1 PUSH4 0x88488C33 EQ PUSH2 0x205 JUMPI DUP1 PUSH4 0x88860835 EQ PUSH2 0x22D JUMPI PUSH2 0xC1 JUMP JUMPDEST DUP1 PUSH4 0x181E0124 EQ PUSH2 0xC5 JUMPI DUP1 PUSH4 0x1D65E77E EQ PUSH2 0x101 JUMPI DUP1 PUSH4 0x1DF97777 EQ PUSH2 0x145 JUMPI DUP1 PUSH4 0x276AE811 EQ PUSH2 0x16D JUMPI DUP1 PUSH4 0x4AC8A529 EQ PUSH2 0x197 JUMPI DUP1 PUSH4 0x56989A83 EQ PUSH2 0x1B3 JUMPI JUMPDEST PUSH0 PUSH0 REVERT JUMPDEST CALLVALUE DUP1 ISZERO PUSH2 0xD0 JUMPI PUSH0 PUSH0 REVERT JUMPDEST POP PUSH2 0xEB PUSH1 0x4 DUP1 CALLDATASIZE SUB DUP2 ADD SWAP1 PUSH2 0xE6 SWAP2 SWAP1 PUSH2 0x24CD JUMP JUMPDEST PUSH2 0x2D5 JUMP JUMPDEST PUSH1 0x40 MLOAD PUSH2 0xF8 SWAP2 SWAP1 PUSH2 0x2507 JUMP JUMPDEST PUSH1 0x40 MLOAD DUP1 SWAP2 SUB SWAP1 RETURN JUMPDEST CALLVALUE DUP1 ISZERO PUSH2 0x10C JUMPI PUSH0 PUSH0 REVERT JUMPDEST POP PUSH2 0x127 PUSH1 0x4 DUP1 CALLDATASIZE SUB DUP2 ADD SWAP1 PUSH2 0x122 SWAP2 SWAP1 PUSH2 0x24CD JUMP JUMPDEST PUSH2 0x38F JUMP JUMPDEST PUSH1 0x40 MLOAD PUSH2 0x13C SWAP10 SWAP9 SWAP8 SWAP7 SWAP6 SWAP5 SWAP4 SWAP3 SWAP2 SWAP1 PUSH2 0x265C JUMP JUMPDEST PUSH1 0x40 MLOAD DUP1 SWAP2 SUB SWAP1 RETURN JUMPDEST CALLVALUE DUP1 ISZERO PUSH2 0x150 JUMPI PUSH0 PUSH0 REVERT JUMPDEST POP PUSH2 0x16B PUSH1 0x4 DUP1 CALLDATASIZE SUB DUP2 ADD SWAP1 PUSH2 0x166 SWAP2 SWAP1 PUSH2 0x271F JUMP JUMPDEST PUSH2 0x5CF JUMP JUMPDEST STOP JUMPDEST CALLVALUE DUP1 ISZERO PUSH2 0x178 JUMPI PUSH0 PUSH0 REVERT JUMPDEST POP PUSH2 0x181 PUSH2 0xB13 JUMP JUMPDEST PUSH1 0x40 MLOAD PUSH2 0x18E SWAP2 SWAP1 PUSH2 0x2507 JUMP JUMPDEST PUSH1 0x40 MLOAD DUP1 SWAP2 SUB SWAP1 RETURN JUMPDEST PUSH2 0x1B1 PUSH1 0x4 DUP1 CALLDATASIZE SUB DUP2 ADD SWAP1 PUSH2 0x1AC SWAP2 SWAP1 PUSH2 0x24CD JUMP JUMPDEST PUSH2 0xB19 JUMP JUMPDEST STOP JUMPDEST CALLVALUE DUP1 ISZERO PUSH2 0x1BE JUMPI PUSH0 PUSH0 REVERT JUMPDEST POP PUSH2 0x1D9 PUSH1 0x4 DUP1 CALLDATASIZE SUB DUP2 ADD SWAP1 PUSH2 0x1D4 SWAP2 SWAP1 PUSH2 0x24CD JUMP JUMPDEST PUSH2 0xE0C JUMP JUMPDEST STOP JUMPDEST CALLVALUE DUP1 ISZERO PUSH2 0x1E6 JUMPI PUSH0 PUSH0 REVERT JUMPDEST POP PUSH2 0x1EF PUSH2 0x12CE JUMP JUMPDEST PUSH1 0x40 MLOAD PUSH2 0x1FC SWAP2 SWAP1 PUSH2 0x2507 JUMP JUMPDEST PUSH1 0x40 MLOAD DUP1 SWAP2 SUB SWAP1 RETURN JUMPDEST CALLVALUE DUP1 ISZERO PUSH2 0x210 JUMPI PUSH0 PUSH0 REVERT JUMPDEST POP PUSH2 0x22B PUSH1 0x4 DUP1 CALLDATASIZE SUB DUP2 ADD SWAP1 PUSH2 0x226 SWAP2 SWAP1 PUSH2 0x24CD JUMP JUMPDEST PUSH2 0x12D4 JUMP JUMPDEST STOP JUMPDEST PUSH2 0x247 PUSH1 0x4 DUP1 CALLDATASIZE SUB DUP2 ADD SWAP1 PUSH2 0x242 SWAP2 SWAP1 PUSH2 0x276F JUMP JUMPDEST PUSH2 0x180D JUMP JUMPDEST STOP JUMPDEST CALLVALUE DUP1 ISZERO PUSH2 0x254 JUMPI PUSH0 PUSH0 REVERT JUMPDEST POP PUSH2 0x25D PUSH2 0x1A9A JUMP JUMPDEST PUSH1 0x40 MLOAD PUSH2 0x26A SWAP2 SWAP1 PUSH2 0x2507 JUMP JUMPDEST PUSH1 0x40 MLOAD DUP1 SWAP2 SUB SWAP1 RETURN JUMPDEST PUSH2 0x28D PUSH1 0x4 DUP1 CALLDATASIZE SUB DUP2 ADD SWAP1 PUSH2 0x288 SWAP2 SWAP1 PUSH2 0x280E JUMP JUMPDEST PUSH2 0x1AA2 JUMP JUMPDEST STOP JUMPDEST PUSH2 0x2A9 PUSH1 0x4 DUP1 CALLDATASIZE SUB DUP2 ADD SWAP1 PUSH2 0x2A4 SWAP2 SWAP1 PUSH2 0x2859 JUMP JUMPDEST PUSH2 0x1BF8 JUMP JUMPDEST STOP JUMPDEST CALLVALUE DUP1 ISZERO PUSH2 0x2B6 JUMPI PUSH0 PUSH0 REVERT JUMPDEST POP PUSH2 0x2BF PUSH2 0x1E6B JUMP JUMPDEST PUSH1 0x40 MLOAD PUSH2 0x2CC SWAP2 SWAP1 PUSH2 0x2911 JUMP JUMPDEST PUSH1 0x40 MLOAD DUP1 SWAP2 SUB SWAP1 RETURN JUMPDEST PUSH0 PUSH0 DUP3 GT DUP1 ISZERO PUSH2 0x2E6 JUMPI POP PUSH0 SLOAD DUP3 GT ISZERO JUMPDEST PUSH2 0x325 JUMPI PUSH1 0x40 MLOAD PUSH32 0x8C379A000000000000000000000000000000000000000000000000000000000 DUP2 MSTORE PUSH1 0x4 ADD PUSH2 0x31C SWAP1 PUSH2 0x2974 JUMP JUMPDEST PUSH1 0x40 MLOAD DUP1 SWAP2 SUB SWAP1 REVERT JUMPDEST PUSH0 PUSH1 0x1 PUSH0 DUP5 DUP2 MSTORE PUSH1 0x20 ADD SWAP1 DUP2 MSTORE PUSH1 0x20 ADD PUSH0 KECCAK256 PUSH1 0x7 ADD SLOAD EQ DUP1 PUSH2 0x35A JUMPI POP TIMESTAMP PUSH1 0x1 PUSH0 DUP5 DUP2 MSTORE PUSH1 0x20 ADD SWAP1 DUP2 MSTORE PUSH1 0x20 ADD PUSH0 KECCAK256 PUSH1 0x7 ADD SLOAD LT JUMPDEST ISZERO PUSH2 0x367 JUMPI PUSH0 SWAP1 POP PUSH2 0x38A JUMP JUMPDEST TIMESTAMP PUSH1 0x1 PUSH0 DUP5 DUP2 MSTORE PUSH1 0x20 ADD SWAP1 DUP2 MSTORE PUSH1 0x20 ADD PUSH0 KECCAK256 PUSH1 0x7 ADD SLOAD PUSH2 0x387 SWAP2 SWAP1 PUSH2 0x29BF JUMP JUMPDEST SWAP1 POP JUMPDEST SWAP2 SWAP1 POP JUMP JUMPDEST PUSH0 PUSH0 PUSH0 PUSH0 PUSH1 0x60 DUP1 PUSH0 PUSH0 PUSH0 PUSH0 DUP11 GT DUP1 ISZERO PUSH2 0x3A9 JUMPI POP PUSH0 SLOAD DUP11 GT ISZERO JUMPDEST PUSH2 0x3E8 JUMPI PUSH1 0x40 MLOAD PUSH32 0x8C379A000000000000000000000000000000000000000000000000000000000 DUP2 MSTORE PUSH1 0x4 ADD PUSH2 0x3DF SWAP1 PUSH2 0x2974 JUMP JUMPDEST PUSH1 0x40 MLOAD DUP1 SWAP2 SUB SWAP1 REVERT JUMPDEST PUSH0 PUSH1 0x1 PUSH0 DUP13 DUP2 MSTORE PUSH1 0x20 ADD SWAP1 DUP2 MSTORE PUSH1 0x20 ADD PUSH0 KECCAK256 SWAP1 POP DUP1 PUSH0 ADD PUSH0 SWAP1 SLOAD SWAP1 PUSH2 0x100 EXP SWAP1 DIV PUSH20 0xFFFFFFFFFFFFFFFFFFFFFFFFFFFFFFFFFFFFFFFF AND DUP2 PUSH1 0x1 ADD PUSH0 SWAP1 SLOAD SWAP1 PUSH2 0x100 EXP SWAP1 DIV PUSH20 0xFFFFFFFFFFFFFFFFFFFFFFFFFFFFFFFFFFFFFFFF AND DUP3 PUSH1 0x2 ADD PUSH0 SWAP1 SLOAD SWAP1 PUSH2 0x100 EXP SWAP1 DIV PUSH20 0xFFFFFFFFFFFFFFFFFFFFFFFFFFFFFFFFFFFFFFFF AND DUP4 PUSH1 0x3 ADD SLOAD DUP5 PUSH1 0x4 ADD DUP6 PUSH1 0x5 ADD DUP7 PUSH1 0x6 ADD PUSH0 SWAP1 SLOAD SWAP1 PUSH2 0x100 EXP SWAP1 DIV PUSH1 0xFF AND DUP8 PUSH1 0x7 ADD SLOAD DUP9 PUSH1 0x8 ADD PUSH0 SWAP1 SLOAD SWAP1 PUSH2 0x100 EXP SWAP1 DIV PUSH1 0xFF AND DUP5 DUP1 SLOAD PUSH2 0x4A7 SWAP1 PUSH2 0x2A1F JUMP JUMPDEST DUP1 PUSH1 0x1F ADD PUSH1 0x20 DUP1 SWAP2 DIV MUL PUSH1 0x20 ADD PUSH1 0x40 MLOAD SWAP1 DUP2 ADD PUSH1 0x40 MSTORE DUP1 SWAP3 SWAP2 SWAP1 DUP2 DUP2 MSTORE PUSH1 0x20 ADD DUP3 DUP1 SLOAD PUSH2 0x4D3 SWAP1 PUSH2 0x2A1F JUMP JUMPDEST DUP1 ISZERO PUSH2 0x51E JUMPI DUP1 PUSH1 0x1F LT PUSH2 0x4F5 JUMPI PUSH2 0x100 DUP1 DUP4 SLOAD DIV MUL DUP4 MSTORE SWAP2 PUSH1 0x20 ADD SWAP2 PUSH2 0x51E JUMP JUMPDEST DUP3 ADD SWAP2 SWAP1 PUSH0 MSTORE PUSH1 0x20 PUSH0 KECCAK256 SWAP1 JUMPDEST DUP2 SLOAD DUP2 MSTORE SWAP1 PUSH1 0x1 ADD SWAP1 PUSH1 0x20 ADD DUP1 DUP4 GT PUSH2 0x501 JUMPI DUP3 SWAP1 SUB PUSH1 0x1F AND DUP3 ADD SWAP2 JUMPDEST POP POP POP POP POP SWAP5 POP DUP4 DUP1 SLOAD PUSH2 0x531 SWAP1 PUSH2 0x2A1F JUMP JUMPDEST DUP1 PUSH1 0x1F ADD PUSH1 0x20 DUP1 SWAP2 DIV MUL PUSH1 0x20 ADD PUSH1 0x40 MLOAD SWAP1 DUP2 ADD PUSH1 0x40 MSTORE DUP1 SWAP3 SWAP2 SWAP1 DUP2 DUP2 MSTORE PUSH1 0x20 ADD DUP3 DUP1 SLOAD PUSH2 0x55D SWAP1 PUSH2 0x2A1F JUMP JUMPDEST DUP1 ISZERO PUSH2 0x5A8 JUMPI DUP1 PUSH1 0x1F LT PUSH2 0x57F JUMPI PUSH2 0x100 DUP1 DUP4 SLOAD DIV MUL DUP4 MSTORE SWAP2 PUSH1 0x20 ADD SWAP2 PUSH2 0x5A8 JUMP JUMPDEST DUP3 ADD SWAP2 SWAP1 PUSH0 MSTORE PUSH1 0x20 PUSH0 KECCAK256 SWAP1 JUMPDEST DUP2 SLOAD DUP2 MSTORE SWAP1 PUSH1 0x1 ADD SWAP1 PUSH1 0x20 ADD DUP1 DUP4 GT PUSH2 0x58B JUMPI DUP3 SWAP1 SUB PUSH1 0x1F AND DUP3 ADD SWAP2 JUMPDEST POP POP POP POP POP SWAP4 POP SWAP10 POP SWAP10 POP SWAP10 POP SWAP10 POP SWAP10 POP SWAP10 POP SWAP10 POP SWAP10 POP SWAP10 POP POP SWAP2 SWAP4 SWAP6 SWAP8 SWAP10 SWAP1 SWAP3 SWAP5 SWAP7 SWAP9 POP JUMP JUMPDEST PUSH0 DUP4 GT DUP1 ISZERO PUSH2 0x5DF JUMPI POP PUSH0 SLOAD DUP4 GT ISZERO JUMPDEST PUSH2 0x61E JUMPI PUSH1 0x40 MLOAD PUSH32 0x8C379A000000000000000000000000000000000000000000000000000000000 DUP2 MSTORE PUSH1 0x4 ADD PUSH2 0x615 SWAP1 PUSH2 0x2974 JUMP JUMPDEST PUSH1 0x40 MLOAD DUP1 SWAP2 SUB SWAP1 REVERT JUMPDEST PUSH0 PUSH1 0x2 PUSH0 DUP6 DUP2 MSTORE PUSH1 0x20 ADD SWAP1 DUP2 MSTORE PUSH1 0x20 ADD PUSH0 KECCAK256 SWAP1 POP DUP1 PUSH0 ADD PUSH0 SWAP1 SLOAD SWAP1 PUSH2 0x100 EXP SWAP1 DIV PUSH1 0xFF AND DUP1 ISZERO PUSH2 0x65C JUMPI POP DUP1 PUSH1 0x5 ADD PUSH0 SWAP1 SLOAD SWAP1 PUSH2 0x100 EXP SWAP1 DIV PUSH1 0xFF AND ISZERO JUMPDEST PUSH2 0x69B JUMPI PUSH1 0x40 MLOAD PUSH32 0x8C379A000000000000000000000000000000000000000000000000000000000 DUP2 MSTORE PUSH1 0x4 ADD PUSH2 0x692 SWAP1 PUSH2 0x2A99 JUMP JUMPDEST PUSH1 0x40 MLOAD DUP1 SWAP2 SUB SWAP1 REVERT JUMPDEST PUSH1 0x6 SLOAD DUP2 PUSH1 0x1 ADD SLOAD PUSH2 0x6AD SWAP2 SWAP1 PUSH2 0x2AB7 JUMP JUMPDEST TIMESTAMP GT ISZERO PUSH2 0x6EF JUMPI PUSH1 0x40 MLOAD PUSH32 0x8C379A000000000000000000000000000000000000000000000000000000000 DUP2 MSTORE PUSH1 0x4 ADD PUSH2 0x6E6 SWAP1 PUSH2 0x2B34 JUMP JUMPDEST PUSH1 0x40 MLOAD DUP1 SWAP2 SUB SWAP1 REVERT JUMPDEST PUSH1 0x5 SLOAD DUP4 LT ISZERO PUSH2 0x734 JUMPI PUSH1 0x40 MLOAD PUSH32 0x8C379A000000000000000000000000000000000000000000000000000000000 DUP2 MSTORE PUSH1 0x4 ADD PUSH2 0x72B SWAP1 PUSH2 0x2B9C JUMP JUMPDEST PUSH1 0x40 MLOAD DUP1 SWAP2 SUB SWAP1 REVERT JUMPDEST PUSH0 DUP2 PUSH1 0x7 ADD PUSH0 CALLER PUSH20 0xFFFFFFFFFFFFFFFFFFFFFFFFFFFFFFFFFFFFFFFF AND PUSH20 0xFFFFFFFFFFFFFFFFFFFFFFFFFFFFFFFFFFFFFFFF AND DUP2 MSTORE PUSH1 0x20 ADD SWAP1 DUP2 MSTORE PUSH1 0x20 ADD PUSH0 KECCAK256 SLOAD EQ PUSH2 0x7B5 JUMPI PUSH1 0x40 MLOAD PUSH32 0x8C379A000000000000000000000000000000000000000000000000000000000 DUP2 MSTORE PUSH1 0x4 ADD PUSH2 0x7AC SWAP1 PUSH2 0x2C04 JUMP JUMPDEST PUSH1 0x40 MLOAD DUP1 SWAP2 SUB SWAP1 REVERT JUMPDEST DUP1 PUSH1 0x6 ADD PUSH0 CALLER PUSH20 0xFFFFFFFFFFFFFFFFFFFFFFFFFFFFFFFFFFFFFFFF AND PUSH20 0xFFFFFFFFFFFFFFFFFFFFFFFFFFFFFFFFFFFFFFFF AND DUP2 MSTORE PUSH1 0x20 ADD SWAP1 DUP2 MSTORE PUSH1 0x20 ADD PUSH0 KECCAK256 PUSH0 SWAP1 SLOAD SWAP1 PUSH2 0x100 EXP SWAP1 DIV PUSH1 0xFF AND ISZERO PUSH2 0x841 JUMPI PUSH1 0x40 MLOAD PUSH32 0x8C379A000000000000000000000000000000000000000000000000000000000 DUP2 MSTORE PUSH1 0x4 ADD PUSH2 0x838 SWAP1 PUSH2 0x2C6C JUMP JUMPDEST PUSH1 0x40 MLOAD DUP1 SWAP2 SUB SWAP1 REVERT JUMPDEST PUSH0 PUSH1 0x7 PUSH0 SWAP1 SLOAD SWAP1 PUSH2 0x100 EXP SWAP1 DIV PUSH20 0xFFFFFFFFFFFFFFFFFFFFFFFFFFFFFFFFFFFFFFFF AND PUSH20 0xFFFFFFFFFFFFFFFFFFFFFFFFFFFFFFFFFFFFFFFF AND PUSH4 0x23B872DD CALLER ADDRESS DUP8 PUSH1 0x40 MLOAD DUP5 PUSH4 0xFFFFFFFF AND PUSH1 0xE0 SHL DUP2 MSTORE PUSH1 0x4 ADD PUSH2 0x8A0 SWAP4 SWAP3 SWAP2 SWAP1 PUSH2 0x2C8A JUMP JUMPDEST PUSH1 0x20 PUSH1 0x40 MLOAD DUP1 DUP4 SUB DUP2 PUSH0 DUP8 GAS CALL ISZERO DUP1 ISZERO PUSH2 0x8BC JUMPI RETURNDATASIZE PUSH0 PUSH0 RETURNDATACOPY RETURNDATASIZE PUSH0 REVERT JUMPDEST POP POP POP POP PUSH1 0x40 MLOAD RETURNDATASIZE PUSH1 0x1F NOT PUSH1 0x1F DUP3 ADD AND DUP3 ADD DUP1 PUSH1 0x40 MSTORE POP DUP2 ADD SWAP1 PUSH2 0x8E0 SWAP2 SWAP1 PUSH2 0x2CD3 JUMP JUMPDEST SWAP1 POP DUP1 PUSH2 0x922 JUMPI PUSH1 0x40 MLOAD PUSH32 0x8C379A000000000000000000000000000000000000000000000000000000000 DUP2 MSTORE PUSH1 0x4 ADD PUSH2 0x919 SWAP1 PUSH2 0x2D48 JUMP JUMPDEST PUSH1 0x40 MLOAD DUP1 SWAP2 SUB SWAP1 REVERT JUMPDEST DUP3 DUP3 PUSH1 0x8 ADD PUSH0 CALLER PUSH20 0xFFFFFFFFFFFFFFFFFFFFFFFFFFFFFFFFFFFFFFFF AND PUSH20 0xFFFFFFFFFFFFFFFFFFFFFFFFFFFFFFFFFFFFFFFF AND DUP2 MSTORE PUSH1 0x20 ADD SWAP1 DUP2 MSTORE PUSH1 0x20 ADD PUSH0 KECCAK256 PUSH0 PUSH2 0x100 EXP DUP2 SLOAD DUP2 PUSH1 0xFF MUL NOT AND SWAP1 DUP4 ISZERO ISZERO MUL OR SWAP1 SSTORE POP DUP4 DUP3 PUSH1 0x7 ADD PUSH0 CALLER PUSH20 0xFFFFFFFFFFFFFFFFFFFFFFFFFFFFFFFFFFFFFFFF AND PUSH20 0xFFFFFFFFFFFFFFFFFFFFFFFFFFFFFFFFFFFFFFFF AND DUP2 MSTORE PUSH1 0x20 ADD SWAP1 DUP2 MSTORE PUSH1 0x20 ADD PUSH0 KECCAK256 DUP2 SWAP1 SSTORE POP DUP4 DUP3 PUSH1 0x4 ADD PUSH0 DUP3 DUP3 SLOAD PUSH2 0x9CF SWAP2 SWAP1 PUSH2 0x2AB7 JUMP JUMPDEST SWAP3 POP POP DUP2 SWAP1 SSTORE POP DUP2 PUSH1 0x9 ADD CALLER SWAP1 DUP1 PUSH1 0x1 DUP2 SLOAD ADD DUP1 DUP3 SSTORE DUP1 SWAP2 POP POP PUSH1 0x1 SWAP1 SUB SWAP1 PUSH0 MSTORE PUSH1 0x20 PUSH0 KECCAK256 ADD PUSH0 SWAP1 SWAP2 SWAP1 SWAP2 SWAP1 SWAP2 PUSH2 0x100 EXP DUP2 SLOAD DUP2 PUSH20 0xFFFFFFFFFFFFFFFFFFFFFFFFFFFFFFFFFFFFFFFF MUL NOT AND SWAP1 DUP4 PUSH20 0xFFFFFFFFFFFFFFFFFFFFFFFFFFFFFFFFFFFFFFFF AND MUL OR SWAP1 SSTORE POP PUSH1 0x1 DUP3 PUSH1 0x6 ADD PUSH0 CALLER PUSH20 0xFFFFFFFFFFFFFFFFFFFFFFFFFFFFFFFFFFFFFFFF AND PUSH20 0xFFFFFFFFFFFFFFFFFFFFFFFFFFFFFFFFFFFFFFFF AND DUP2 MSTORE PUSH1 0x20 ADD SWAP1 DUP2 MSTORE PUSH1 0x20 ADD PUSH0 KECCAK256 PUSH0 PUSH2 0x100 EXP DUP2 SLOAD DUP2 PUSH1 0xFF MUL NOT AND SWAP1 DUP4 ISZERO ISZERO MUL OR SWAP1 SSTORE POP DUP3 ISZERO PUSH2 0xAB4 JUMPI DUP4 DUP3 PUSH1 0x2 ADD PUSH0 DUP3 DUP3 SLOAD PUSH2 0xAA8 SWAP2 SWAP1 PUSH2 0x2AB7 JUMP JUMPDEST SWAP3 POP POP DUP2 SWAP1 SSTORE POP PUSH2 0xACF JUMP JUMPDEST DUP4 DUP3 PUSH1 0x3 ADD PUSH0 DUP3 DUP3 SLOAD PUSH2 0xAC7 SWAP2 SWAP1 PUSH2 0x2AB7 JUMP JUMPDEST SWAP3 POP POP DUP2 SWAP1 SSTORE POP JUMPDEST PUSH32 0x804CB3F45E5253AC34847987D4D9AE8CFA21A176F777ACB99B5988A4E01F8CFD DUP6 CALLER DUP6 DUP8 PUSH1 0x40 MLOAD PUSH2 0xB04 SWAP5 SWAP4 SWAP3 SWAP2 SWAP1 PUSH2 0x2D66 JUMP JUMPDEST PUSH1 0x40 MLOAD DUP1 SWAP2 SUB SWAP1 LOG1 POP POP POP POP POP JUMP JUMPDEST PUSH1 0x5 SLOAD DUP2 JUMP JUMPDEST PUSH0 DUP2 GT DUP1 ISZERO PUSH2 0xB29 JUMPI POP PUSH0 SLOAD DUP2 GT ISZERO JUMPDEST PUSH2 0xB68 JUMPI PUSH1 0x40 MLOAD PUSH32 0x8C379A000000000000000000000000000000000000000000000000000000000 DUP2 MSTORE PUSH1 0x4 ADD PUSH2 0xB5F SWAP1 PUSH2 0x2974 JUMP JUMPDEST PUSH1 0x40 MLOAD DUP1 SWAP2 SUB SWAP1 REVERT JUMPDEST PUSH0 PUSH1 0x1 PUSH0 DUP4 DUP2 MSTORE PUSH1 0x20 ADD SWAP1 DUP2 MSTORE PUSH1 0x20 ADD PUSH0 KECCAK256 SWAP1 POP PUSH1 0x2 PUSH1 0x5 DUP2 GT ISZERO PUSH2 0xB90 JUMPI PUSH2 0xB8F PUSH2 0x25E9 JUMP JUMPDEST JUMPDEST DUP2 PUSH1 0x8 ADD PUSH0 SWAP1 SLOAD SWAP1 PUSH2 0x100 EXP SWAP1 DIV PUSH1 0xFF AND PUSH1 0x5 DUP2 GT ISZERO PUSH2 0xBB3 JUMPI PUSH2 0xBB2 PUSH2 0x25E9 JUMP JUMPDEST JUMPDEST EQ PUSH2 0xBF3 JUMPI PUSH1 0x40 MLOAD PUSH32 0x8C379A000000000000000000000000000000000000000000000000000000000 DUP2 MSTORE PUSH1 0x4 ADD PUSH2 0xBEA SWAP1 PUSH2 0x2DF3 JUMP JUMPDEST PUSH1 0x40 MLOAD DUP1 SWAP2 SUB SWAP1 REVERT JUMPDEST DUP1 PUSH1 0x7 ADD SLOAD TIMESTAMP LT PUSH2 0xC39 JUMPI PUSH1 0x40 MLOAD PUSH32 0x8C379A000000000000000000000000000000000000000000000000000000000 DUP2 MSTORE PUSH1 0x4 ADD PUSH2 0xC30 SWAP1 PUSH2 0x2E5B JUMP JUMPDEST PUSH1 0x40 MLOAD DUP1 SWAP2 SUB SWAP1 REVERT JUMPDEST PUSH1 0x4 SLOAD CALLVALUE EQ PUSH2 0xC7D JUMPI PUSH1 0x40 MLOAD PUSH32 0x8C379A000000000000000000000000000000000000000000000000000000000 DUP2 MSTORE PUSH1 0x4 ADD PUSH2 0xC74 SWAP1 PUSH2 0x2EC3 JUMP JUMPDEST PUSH1 0x40 MLOAD DUP1 SWAP2 SUB SWAP1 REVERT JUMPDEST PUSH1 0x2 PUSH0 DUP4 DUP2 MSTORE PUSH1 0x20 ADD SWAP1 DUP2 MSTORE PUSH1 0x20 ADD PUSH0 KECCAK256 PUSH0 ADD PUSH0 SWAP1 SLOAD SWAP1 PUSH2 0x100 EXP SWAP1 DIV PUSH1 0xFF AND ISZERO DUP1 PUSH2 0xCC6 JUMPI POP PUSH1 0x2 PUSH0 DUP4 DUP2 MSTORE PUSH1 0x20 ADD SWAP1 DUP2 MSTORE PUSH1 0x20 ADD PUSH0 KECCAK256 PUSH1 0x5 ADD PUSH0 SWAP1 SLOAD SWAP1 PUSH2 0x100 EXP SWAP1 DIV PUSH1 0xFF AND JUMPDEST PUSH2 0xD05 JUMPI PUSH1 0x40 MLOAD PUSH32 0x8C379A000000000000000000000000000000000000000000000000000000000 DUP2 MSTORE PUSH1 0x4 ADD PUSH2 0xCFC SWAP1 PUSH2 0x2F2B JUMP JUMPDEST PUSH1 0x40 MLOAD DUP1 SWAP2 SUB SWAP1 REVERT JUMPDEST PUSH1 0x3 DUP2 PUSH1 0x8 ADD PUSH0 PUSH2 0x100 EXP DUP2 SLOAD DUP2 PUSH1 0xFF MUL NOT AND SWAP1 DUP4 PUSH1 0x5 DUP2 GT ISZERO PUSH2 0xD2C JUMPI PUSH2 0xD2B PUSH2 0x25E9 JUMP JUMPDEST JUMPDEST MUL OR SWAP1 SSTORE POP PUSH0 PUSH1 0x2 PUSH0 DUP5 DUP2 MSTORE PUSH1 0x20 ADD SWAP1 DUP2 MSTORE PUSH1 0x20 ADD PUSH0 KECCAK256 SWAP1 POP PUSH1 0x1 DUP2 PUSH0 ADD PUSH0 PUSH2 0x100 EXP DUP2 SLOAD DUP2 PUSH1 0xFF MUL NOT AND SWAP1 DUP4 ISZERO ISZERO MUL OR SWAP1 SSTORE POP CALLER DUP2 PUSH0 ADD PUSH1 0x1 PUSH2 0x100 EXP DUP2 SLOAD DUP2 PUSH20 0xFFFFFFFFFFFFFFFFFFFFFFFFFFFFFFFFFFFFFFFF MUL NOT AND SWAP1 DUP4 PUSH20 0xFFFFFFFFFFFFFFFFFFFFFFFFFFFFFFFFFFFFFFFF AND MUL OR SWAP1 SSTORE POP TIMESTAMP DUP2 PUSH1 0x1 ADD DUP2 SWAP1 SSTORE POP PUSH0 DUP2 PUSH1 0x5 ADD PUSH0 PUSH2 0x100 EXP DUP2 SLOAD DUP2 PUSH1 0xFF MUL NOT AND SWAP1 DUP4 ISZERO ISZERO MUL OR SWAP1 SSTORE POP PUSH32 0x1D2F4ADE11FCEA3A321EB215E6561C2F95D30D0F1BCF7AD3D715932B61D0DA9A DUP4 CALLER CALLVALUE DUP5 PUSH1 0x1 ADD SLOAD PUSH1 0x40 MLOAD PUSH2 0xDFF SWAP5 SWAP4 SWAP3 SWAP2 SWAP1 PUSH2 0x2F49 JUMP JUMPDEST PUSH1 0x40 MLOAD DUP1 SWAP2 SUB SWAP1 LOG1 POP POP POP JUMP JUMPDEST PUSH0 DUP2 GT DUP1 ISZERO PUSH2 0xE1C JUMPI POP PUSH0 SLOAD DUP2 GT ISZERO JUMPDEST PUSH2 0xE5B JUMPI PUSH1 0x40 MLOAD PUSH32 0x8C379A000000000000000000000000000000000000000000000000000000000 DUP2 MSTORE PUSH1 0x4 ADD PUSH2 0xE52 SWAP1 PUSH2 0x2974 JUMP JUMPDEST PUSH1 0x40 MLOAD DUP1 SWAP2 SUB SWAP1 REVERT JUMPDEST PUSH0 PUSH1 0x2 PUSH0 DUP4 DUP2 MSTORE PUSH1 0x20 ADD SWAP1 DUP2 MSTORE PUSH1 0x20 ADD PUSH0 KECCAK256 SWAP1 POP PUSH0 PUSH1 0x1 PUSH0 DUP5 DUP2 MSTORE PUSH1 0x20 ADD SWAP1 DUP2 MSTORE PUSH1 0x20 ADD PUSH0 KECCAK256 SWAP1 POP DUP2 PUSH0 ADD PUSH0 SWAP1 SLOAD SWAP1 PUSH2 0x100 EXP SWAP1 DIV PUSH1 0xFF AND PUSH2 0xED2 JUMPI PUSH1 0x40 MLOAD PUSH32 0x8C379A000000000000000000000000000000000000000000000000000000000 DUP2 MSTORE PUSH1 0x4 ADD PUSH2 0xEC9 SWAP1 PUSH2 0x2FD6 JUMP JUMPDEST PUSH1 0x40 MLOAD DUP1 SWAP2 SUB SWAP1 REVERT JUMPDEST DUP2 PUSH1 0x5 ADD PUSH0 SWAP1 SLOAD SWAP1 PUSH2 0x100 EXP SWAP1 DIV PUSH1 0xFF AND ISZERO PUSH2 0xF23 JUMPI PUSH1 0x40 MLOAD PUSH32 0x8C379A000000000000000000000000000000000000000000000000000000000 DUP2 MSTORE PUSH1 0x4 ADD PUSH2 0xF1A SWAP1 PUSH2 0x303E JUMP JUMPDEST PUSH1 0x40 MLOAD DUP1 SWAP2 SUB SWAP1 REVERT JUMPDEST PUSH1 0x6 SLOAD DUP3 PUSH1 0x1 ADD SLOAD PUSH2 0xF35 SWAP2 SWAP1 PUSH2 0x2AB7 JUMP JUMPDEST TIMESTAMP GT PUSH2 0xF76 JUMPI PUSH1 0x40 MLOAD PUSH32 0x8C379A000000000000000000000000000000000000000000000000000000000 DUP2 MSTORE PUSH1 0x4 ADD PUSH2 0xF6D SWAP1 PUSH2 0x30A6 JUMP JUMPDEST PUSH1 0x40 MLOAD DUP1 SWAP2 SUB SWAP1 REVERT JUMPDEST PUSH1 0x1 DUP3 PUSH1 0x5 ADD PUSH0 PUSH2 0x100 EXP DUP2 SLOAD DUP2 PUSH1 0xFF MUL NOT AND SWAP1 DUP4 ISZERO ISZERO MUL OR SWAP1 SSTORE POP PUSH0 DUP3 PUSH1 0x2 ADD SLOAD SWAP1 POP PUSH0 DUP4 PUSH1 0x3 ADD SLOAD SWAP1 POP DUP1 DUP3 LT PUSH2 0xFC2 JUMPI PUSH2 0xFB4 DUP6 PUSH1 0x1 PUSH2 0x1E90 JUMP JUMPDEST PUSH2 0xFBD DUP6 PUSH2 0x2245 JUMP JUMPDEST PUSH2 0xFCD JUMP JUMPDEST PUSH2 0xFCC DUP6 PUSH0 PUSH2 0x1E90 JUMP JUMPDEST JUMPDEST PUSH0 PUSH0 SWAP1 POP JUMPDEST DUP5 PUSH1 0x9 ADD DUP1 SLOAD SWAP1 POP DUP2 LT ISZERO PUSH2 0x115E JUMPI PUSH0 DUP6 PUSH1 0x9 ADD DUP3 DUP2 SLOAD DUP2 LT PUSH2 0xFF8 JUMPI PUSH2 0xFF7 PUSH2 0x30C4 JUMP JUMPDEST JUMPDEST SWAP1 PUSH0 MSTORE PUSH1 0x20 PUSH0 KECCAK256 ADD PUSH0 SWAP1 SLOAD SWAP1 PUSH2 0x100 EXP SWAP1 DIV PUSH20 0xFFFFFFFFFFFFFFFFFFFFFFFFFFFFFFFFFFFFFFFF AND SWAP1 POP PUSH0 DUP7 PUSH1 0x7 ADD PUSH0 DUP4 PUSH20 0xFFFFFFFFFFFFFFFFFFFFFFFFFFFFFFFFFFFFFFFF AND PUSH20 0xFFFFFFFFFFFFFFFFFFFFFFFFFFFFFFFFFFFFFFFF AND DUP2 MSTORE PUSH1 0x20 ADD SWAP1 DUP2 MSTORE PUSH1 0x20 ADD PUSH0 KECCAK256 SLOAD SWAP1 POP PUSH0 DUP2 GT ISZERO PUSH2 0x114F JUMPI PUSH0 DUP8 PUSH1 0x7 ADD PUSH0 DUP5 PUSH20 0xFFFFFFFFFFFFFFFFFFFFFFFFFFFFFFFFFFFFFFFF AND PUSH20 0xFFFFFFFFFFFFFFFFFFFFFFFFFFFFFFFFFFFFFFFF AND DUP2 MSTORE PUSH1 0x20 ADD SWAP1 DUP2 MSTORE PUSH1 0x20 ADD PUSH0 KECCAK256 DUP2 SWAP1 SSTORE POP PUSH1 0x7 PUSH0 SWAP1 SLOAD SWAP1 PUSH2 0x100 EXP SWAP1 DIV PUSH20 0xFFFFFFFFFFFFFFFFFFFFFFFFFFFFFFFFFFFFFFFF AND PUSH20 0xFFFFFFFFFFFFFFFFFFFFFFFFFFFFFFFFFFFFFFFF AND PUSH4 0xA9059CBB DUP4 DUP4 PUSH1 0x40 MLOAD DUP4 PUSH4 0xFFFFFFFF AND PUSH1 0xE0 SHL DUP2 MSTORE PUSH1 0x4 ADD PUSH2 0x110D SWAP3 SWAP2 SWAP1 PUSH2 0x30F1 JUMP JUMPDEST PUSH1 0x20 PUSH1 0x40 MLOAD DUP1 DUP4 SUB DUP2 PUSH0 DUP8 GAS CALL ISZERO DUP1 ISZERO PUSH2 0x1129 JUMPI RETURNDATASIZE PUSH0 PUSH0 RETURNDATACOPY RETURNDATASIZE PUSH0 REVERT JUMPDEST POP POP POP POP PUSH1 0x40 MLOAD RETURNDATASIZE PUSH1 0x1F NOT PUSH1 0x1F DUP3 ADD AND DUP3 ADD DUP1 PUSH1 0x40 MSTORE POP DUP2 ADD SWAP1 PUSH2 0x114D SWAP2 SWAP1 PUSH2 0x2CD3 JUMP JUMPDEST POP JUMPDEST POP POP DUP1 DUP1 PUSH1 0x1 ADD SWAP2 POP POP PUSH2 0xFD2 JUMP JUMPDEST POP DUP1 DUP3 LT ISZERO PUSH2 0x128B JUMPI PUSH1 0x5 DUP4 PUSH1 0x8 ADD PUSH0 PUSH2 0x100 EXP DUP2 SLOAD DUP2 PUSH1 0xFF MUL NOT AND SWAP1 DUP4 PUSH1 0x5 DUP2 GT ISZERO PUSH2 0x118E JUMPI PUSH2 0x118D PUSH2 0x25E9 JUMP JUMPDEST JUMPDEST MUL OR SWAP1 SSTORE POP PUSH0 PUSH0 DUP2 SLOAD DUP1 SWAP3 SWAP2 SWAP1 PUSH2 0x11A4 SWAP1 PUSH2 0x3118 JUMP JUMPDEST SWAP2 SWAP1 POP SSTORE POP PUSH0 PUSH1 0x1 PUSH0 PUSH0 SLOAD DUP2 MSTORE PUSH1 0x20 ADD SWAP1 DUP2 MSTORE PUSH1 0x20 ADD PUSH0 KECCAK256 SWAP1 POP DUP4 PUSH0 ADD PUSH0 SWAP1 SLOAD SWAP1 PUSH2 0x100 EXP SWAP1 DIV PUSH20 0xFFFFFFFFFFFFFFFFFFFFFFFFFFFFFFFFFFFFFFFF AND DUP2 PUSH0 ADD PUSH0 PUSH2 0x100 EXP DUP2 SLOAD DUP2 PUSH20 0xFFFFFFFFFFFFFFFFFFFFFFFFFFFFFFFFFFFFFFFF MUL NOT AND SWAP1 DUP4 PUSH20 0xFFFFFFFFFFFFFFFFFFFFFFFFFFFFFFFFFFFFFFFF AND MUL OR SWAP1 SSTORE POP DUP4 PUSH1 0x3 ADD SLOAD DUP2 PUSH1 0x3 ADD DUP2 SWAP1 SSTORE POP DUP4 PUSH1 0x4 ADD DUP2 PUSH1 0x4 ADD SWAP1 DUP2 PUSH2 0x1242 SWAP2 SWAP1 PUSH2 0x334A JUMP JUMPDEST POP PUSH0 DUP2 PUSH1 0x6 ADD PUSH0 PUSH2 0x100 EXP DUP2 SLOAD DUP2 PUSH1 0xFF MUL NOT AND SWAP1 DUP4 ISZERO ISZERO MUL OR SWAP1 SSTORE POP PUSH0 DUP2 PUSH1 0x8 ADD PUSH0 PUSH2 0x100 EXP DUP2 SLOAD DUP2 PUSH1 0xFF MUL NOT AND SWAP1 DUP4 PUSH1 0x5 DUP2 GT ISZERO PUSH2 0x1284 JUMPI PUSH2 0x1283 PUSH2 0x25E9 JUMP JUMPDEST JUMPDEST MUL OR SWAP1 SSTORE POP POP JUMPDEST PUSH32 0x6094CAF45C2924DA34DD706C33F09EC619587BAC9144486D8F82B0316E47E7B3 DUP6 DUP3 DUP5 LT ISZERO PUSH1 0x40 MLOAD PUSH2 0x12BF SWAP3 SWAP2 SWAP1 PUSH2 0x342F JUMP JUMPDEST PUSH1 0x40 MLOAD DUP1 SWAP2 SUB SWAP1 LOG1 POP POP POP POP POP JUMP JUMPDEST PUSH1 0x6 SLOAD DUP2 JUMP JUMPDEST PUSH0 DUP2 GT DUP1 ISZERO PUSH2 0x12E4 JUMPI POP PUSH0 SLOAD DUP2 GT ISZERO JUMPDEST PUSH2 0x1323 JUMPI PUSH1 0x40 MLOAD PUSH32 0x8C379A000000000000000000000000000000000000000000000000000000000 DUP2 MSTORE PUSH1 0x4 ADD PUSH2 0x131A SWAP1 PUSH2 0x2974 JUMP JUMPDEST PUSH1 0x40 MLOAD DUP1 SWAP2 SUB SWAP1 REVERT JUMPDEST PUSH0 PUSH1 0x1 PUSH0 DUP4 DUP2 MSTORE PUSH1 0x20 ADD SWAP1 DUP2 MSTORE PUSH1 0x20 ADD PUSH0 KECCAK256 SWAP1 POP PUSH1 0x2 PUSH1 0x5 DUP2 GT ISZERO PUSH2 0x134B JUMPI PUSH2 0x134A PUSH2 0x25E9 JUMP JUMPDEST JUMPDEST DUP2 PUSH1 0x8 ADD PUSH0 SWAP1 SLOAD SWAP1 PUSH2 0x100 EXP SWAP1 DIV PUSH1 0xFF AND PUSH1 0x5 DUP2 GT ISZERO PUSH2 0x136E JUMPI PUSH2 0x136D PUSH2 0x25E9 JUMP JUMPDEST JUMPDEST EQ PUSH2 0x13AE JUMPI PUSH1 0x40 MLOAD PUSH32 0x8C379A000000000000000000000000000000000000000000000000000000000 DUP2 MSTORE PUSH1 0x4 ADD PUSH2 0x13A5 SWAP1 PUSH2 0x34A0 JUMP JUMPDEST PUSH1 0x40 MLOAD DUP1 SWAP2 SUB SWAP1 REVERT JUMPDEST DUP1 PUSH1 0x7 ADD SLOAD TIMESTAMP GT PUSH2 0x13F4 JUMPI PUSH1 0x40 MLOAD PUSH32 0x8C379A000000000000000000000000000000000000000000000000000000000 DUP2 MSTORE PUSH1 0x4 ADD PUSH2 0x13EB SWAP1 PUSH2 0x3508 JUMP JUMPDEST PUSH1 0x40 MLOAD DUP1 SWAP2 SUB SWAP1 REVERT JUMPDEST PUSH0 PUSH20 0xFFFFFFFFFFFFFFFFFFFFFFFFFFFFFFFFFFFFFFFF AND DUP2 PUSH1 0x2 ADD PUSH0 SWAP1 SLOAD SWAP1 PUSH2 0x100 EXP SWAP1 DIV PUSH20 0xFFFFFFFFFFFFFFFFFFFFFFFFFFFFFFFFFFFFFFFF AND PUSH20 0xFFFFFFFFFFFFFFFFFFFFFFFFFFFFFFFFFFFFFFFF AND SUB PUSH2 0x1485 JUMPI PUSH1 0x40 MLOAD PUSH32 0x8C379A000000000000000000000000000000000000000000000000000000000 DUP2 MSTORE PUSH1 0x4 ADD PUSH2 0x147C SWAP1 PUSH2 0x3570 JUMP JUMPDEST PUSH1 0x40 MLOAD DUP1 SWAP2 SUB SWAP1 REVERT JUMPDEST PUSH1 0x2 PUSH0 DUP4 DUP2 MSTORE PUSH1 0x20 ADD SWAP1 DUP2 MSTORE PUSH1 0x20 ADD PUSH0 KECCAK256 PUSH0 ADD PUSH0 SWAP1 SLOAD SWAP1 PUSH2 0x100 EXP SWAP1 DIV PUSH1 0xFF AND ISZERO PUSH2 0x14E5 JUMPI PUSH1 0x40 MLOAD PUSH32 0x8C379A000000000000000000000000000000000000000000000000000000000 DUP2 MSTORE PUSH1 0x4 ADD PUSH2 0x14DC SWAP1 PUSH2 0x35D8 JUMP JUMPDEST PUSH1 0x40 MLOAD DUP1 SWAP2 SUB SWAP1 REVERT JUMPDEST DUP1 PUSH1 0x6 ADD PUSH0 SWAP1 SLOAD SWAP1 PUSH2 0x100 EXP SWAP1 DIV PUSH1 0xFF AND ISZERO PUSH2 0x1656 JUMPI PUSH1 0x4 DUP2 PUSH1 0x8 ADD PUSH0 PUSH2 0x100 EXP DUP2 SLOAD DUP2 PUSH1 0xFF MUL NOT AND SWAP1 DUP4 PUSH1 0x5 DUP2 GT ISZERO PUSH2 0x1522 JUMPI PUSH2 0x1521 PUSH2 0x25E9 JUMP JUMPDEST JUMPDEST MUL OR SWAP1 SSTORE POP PUSH0 PUSH1 0x64 PUSH1 0x5A DUP4 PUSH1 0x3 ADD SLOAD PUSH2 0x153B SWAP2 SWAP1 PUSH2 0x35F6 JUMP JUMPDEST PUSH2 0x1545 SWAP2 SWAP1 PUSH2 0x3664 JUMP JUMPDEST SWAP1 POP PUSH0 PUSH1 0x64 PUSH1 0xA DUP5 PUSH1 0x3 ADD SLOAD PUSH2 0x155B SWAP2 SWAP1 PUSH2 0x35F6 JUMP JUMPDEST PUSH2 0x1565 SWAP2 SWAP1 PUSH2 0x3664 JUMP JUMPDEST SWAP1 POP DUP3 PUSH1 0x1 ADD PUSH0 SWAP1 SLOAD SWAP1 PUSH2 0x100 EXP SWAP1 DIV PUSH20 0xFFFFFFFFFFFFFFFFFFFFFFFFFFFFFFFFFFFFFFFF AND PUSH20 0xFFFFFFFFFFFFFFFFFFFFFFFFFFFFFFFFFFFFFFFF AND PUSH2 0x8FC PUSH1 0x3 SLOAD DUP5 PUSH2 0x15B2 SWAP2 SWAP1 PUSH2 0x2AB7 JUMP JUMPDEST SWAP1 DUP2 ISZERO MUL SWAP1 PUSH1 0x40 MLOAD PUSH0 PUSH1 0x40 MLOAD DUP1 DUP4 SUB DUP2 DUP6 DUP9 DUP9 CALL SWAP4 POP POP POP POP ISZERO DUP1 ISZERO PUSH2 0x15DA JUMPI RETURNDATASIZE PUSH0 PUSH0 RETURNDATACOPY RETURNDATASIZE PUSH0 REVERT JUMPDEST POP DUP3 PUSH1 0x2 ADD PUSH0 SWAP1 SLOAD SWAP1 PUSH2 0x100 EXP SWAP1 DIV PUSH20 0xFFFFFFFFFFFFFFFFFFFFFFFFFFFFFFFFFFFFFFFF AND PUSH20 0xFFFFFFFFFFFFFFFFFFFFFFFFFFFFFFFFFFFFFFFF AND PUSH2 0x8FC PUSH1 0x4 SLOAD DUP4 PUSH2 0x1626 SWAP2 SWAP1 PUSH2 0x2AB7 JUMP JUMPDEST SWAP1 DUP2 ISZERO MUL SWAP1 PUSH1 0x40 MLOAD PUSH0 PUSH1 0x40 MLOAD DUP1 DUP4 SUB DUP2 DUP6 DUP9 DUP9 CALL SWAP4 POP POP POP POP ISZERO DUP1 ISZERO PUSH2 0x164E JUMPI RETURNDATASIZE PUSH0 PUSH0 RETURNDATACOPY RETURNDATASIZE PUSH0 REVERT JUMPDEST POP POP POP PUSH2 0x17C0 JUMP JUMPDEST DUP1 PUSH1 0x2 ADD PUSH0 SWAP1 SLOAD SWAP1 PUSH2 0x100 EXP SWAP1 DIV PUSH20 0xFFFFFFFFFFFFFFFFFFFFFFFFFFFFFFFFFFFFFFFF AND PUSH20 0xFFFFFFFFFFFFFFFFFFFFFFFFFFFFFFFFFFFFFFFF AND PUSH2 0x8FC PUSH1 0x4 SLOAD PUSH1 0x3 SLOAD PUSH2 0x16A3 SWAP2 SWAP1 PUSH2 0x2AB7 JUMP JUMPDEST SWAP1 DUP2 ISZERO MUL SWAP1 PUSH1 0x40 MLOAD PUSH0 PUSH1 0x40 MLOAD DUP1 DUP4 SUB DUP2 DUP6 DUP9 DUP9 CALL SWAP4 POP POP POP POP ISZERO DUP1 ISZERO PUSH2 0x16CB JUMPI RETURNDATASIZE PUSH0 PUSH0 RETURNDATACOPY RETURNDATASIZE PUSH0 REVERT JUMPDEST POP PUSH0 DUP2 PUSH1 0x8 ADD PUSH0 PUSH2 0x100 EXP DUP2 SLOAD DUP2 PUSH1 0xFF MUL NOT AND SWAP1 DUP4 PUSH1 0x5 DUP2 GT ISZERO PUSH2 0x16F2 JUMPI PUSH2 0x16F1 PUSH2 0x25E9 JUMP JUMPDEST JUMPDEST MUL OR SWAP1 SSTORE POP PUSH0 DUP2 PUSH1 0x1 ADD PUSH0 PUSH2 0x100 EXP DUP2 SLOAD DUP2 PUSH20 0xFFFFFFFFFFFFFFFFFFFFFFFFFFFFFFFFFFFFFFFF MUL NOT AND SWAP1 DUP4 PUSH20 0xFFFFFFFFFFFFFFFFFFFFFFFFFFFFFFFFFFFFFFFF AND MUL OR SWAP1 SSTORE POP PUSH0 DUP2 PUSH1 0x2 ADD PUSH0 PUSH2 0x100 EXP DUP2 SLOAD DUP2 PUSH20 0xFFFFFFFFFFFFFFFFFFFFFFFFFFFFFFFFFFFFFFFF MUL NOT AND SWAP1 DUP4 PUSH20 0xFFFFFFFFFFFFFFFFFFFFFFFFFFFFFFFFFFFFFFFF AND MUL OR SWAP1 SSTORE POP PUSH1 0x40 MLOAD DUP1 PUSH1 0x20 ADD PUSH1 0x40 MSTORE DUP1 PUSH0 DUP2 MSTORE POP DUP2 PUSH1 0x5 ADD SWAP1 DUP2 PUSH2 0x179A SWAP2 SWAP1 PUSH2 0x3694 JUMP JUMPDEST POP PUSH0 DUP2 PUSH1 0x7 ADD DUP2 SWAP1 SSTORE POP PUSH0 DUP2 PUSH1 0x6 ADD PUSH0 PUSH2 0x100 EXP DUP2 SLOAD DUP2 PUSH1 0xFF MUL NOT AND SWAP1 DUP4 ISZERO ISZERO MUL OR SWAP1 SSTORE POP JUMPDEST PUSH32 0x9DEADA0165C5E1EAC62423DBF1DD30115314B076A9D6D3868DAF316F1CB285E9 DUP3 DUP3 PUSH1 0x6 ADD PUSH0 SWAP1 SLOAD SWAP1 PUSH2 0x100 EXP SWAP1 DIV PUSH1 0xFF AND PUSH1 0x40 MLOAD PUSH2 0x1801 SWAP3 SWAP2 SWAP1 PUSH2 0x342F JUMP JUMPDEST PUSH1 0x40 MLOAD DUP1 SWAP2 SUB SWAP1 LOG1 POP POP JUMP JUMPDEST PUSH0 DUP3 GT DUP1 ISZERO PUSH2 0x181D JUMPI POP PUSH0 SLOAD DUP3 GT ISZERO JUMPDEST PUSH2 0x185C JUMPI PUSH1 0x40 MLOAD PUSH32 0x8C379A000000000000000000000000000000000000000000000000000000000 DUP2 MSTORE PUSH1 0x4 ADD PUSH2 0x1853 SWAP1 PUSH2 0x2974 JUMP JUMPDEST PUSH1 0x40 MLOAD DUP1 SWAP2 SUB SWAP1 REVERT JUMPDEST PUSH0 PUSH1 0x1 PUSH0 DUP5 DUP2 MSTORE PUSH1 0x20 ADD SWAP1 DUP2 MSTORE PUSH1 0x20 ADD PUSH0 KECCAK256 SWAP1 POP PUSH1 0x1 PUSH1 0x5 DUP2 GT ISZERO PUSH2 0x1884 JUMPI PUSH2 0x1883 PUSH2 0x25E9 JUMP JUMPDEST JUMPDEST DUP2 PUSH1 0x8 ADD PUSH0 SWAP1 SLOAD SWAP1 PUSH2 0x100 EXP SWAP1 DIV PUSH1 0xFF AND PUSH1 0x5 DUP2 GT ISZERO PUSH2 0x18A7 JUMPI PUSH2 0x18A6 PUSH2 0x25E9 JUMP JUMPDEST JUMPDEST EQ PUSH2 0x18E7 JUMPI PUSH1 0x40 MLOAD PUSH32 0x8C379A000000000000000000000000000000000000000000000000000000000 DUP2 MSTORE PUSH1 0x4 ADD PUSH2 0x18DE SWAP1 PUSH2 0x37AD JUMP JUMPDEST PUSH1 0x40 MLOAD DUP1 SWAP2 SUB SWAP1 REVERT JUMPDEST PUSH1 0x4 SLOAD CALLVALUE EQ PUSH2 0x192B JUMPI PUSH1 0x40 MLOAD PUSH32 0x8C379A000000000000000000000000000000000000000000000000000000000 DUP2 MSTORE PUSH1 0x4 ADD PUSH2 0x1922 SWAP1 PUSH2 0x3815 JUMP JUMPDEST PUSH1 0x40 MLOAD DUP1 SWAP2 SUB SWAP1 REVERT JUMPDEST PUSH0 PUSH20 0xFFFFFFFFFFFFFFFFFFFFFFFFFFFFFFFFFFFFFFFF AND DUP2 PUSH1 0x2 ADD PUSH0 SWAP1 SLOAD SWAP1 PUSH2 0x100 EXP SWAP1 DIV PUSH20 0xFFFFFFFFFFFFFFFFFFFFFFFFFFFFFFFFFFFFFFFF AND PUSH20 0xFFFFFFFFFFFFFFFFFFFFFFFFFFFFFFFFFFFFFFFF AND EQ PUSH2 0x19BC JUMPI PUSH1 0x40 MLOAD PUSH32 0x8C379A000000000000000000000000000000000000000000000000000000000 DUP2 MSTORE PUSH1 0x4 ADD PUSH2 0x19B3 SWAP1 PUSH2 0x387D JUMP JUMPDEST PUSH1 0x40 MLOAD DUP1 SWAP2 SUB SWAP1 REVERT JUMPDEST CALLER DUP2 PUSH1 0x2 ADD PUSH0 PUSH2 0x100 EXP DUP2 SLOAD DUP2 PUSH20 0xFFFFFFFFFFFFFFFFFFFFFFFFFFFFFFFFFFFFFFFF MUL NOT AND SWAP1 DUP4 PUSH20 0xFFFFFFFFFFFFFFFFFFFFFFFFFFFFFFFFFFFFFFFF AND MUL OR SWAP1 SSTORE POP DUP2 DUP2 PUSH1 0x6 ADD PUSH0 PUSH2 0x100 EXP DUP2 SLOAD DUP2 PUSH1 0xFF MUL NOT AND SWAP1 DUP4 ISZERO ISZERO MUL OR SWAP1 SSTORE POP PUSH1 0x3C TIMESTAMP PUSH2 0x1A26 SWAP2 SWAP1 PUSH2 0x2AB7 JUMP JUMPDEST DUP2 PUSH1 0x7 ADD DUP2 SWAP1 SSTORE POP PUSH1 0x2 DUP2 PUSH1 0x8 ADD PUSH0 PUSH2 0x100 EXP DUP2 SLOAD DUP2 PUSH1 0xFF MUL NOT AND SWAP1 DUP4 PUSH1 0x5 DUP2 GT ISZERO PUSH2 0x1A55 JUMPI PUSH2 0x1A54 PUSH2 0x25E9 JUMP JUMPDEST JUMPDEST MUL OR SWAP1 SSTORE POP PUSH32 0x28F0202DCB9C68CB7B1C95A88074DAA5DE2F0F8F6E1C69D9D509140A3228871B DUP4 CALLER DUP5 PUSH1 0x40 MLOAD PUSH2 0x1A8D SWAP4 SWAP3 SWAP2 SWAP1 PUSH2 0x389B JUMP JUMPDEST PUSH1 0x40 MLOAD DUP1 SWAP2 SUB SWAP1 LOG1 POP POP POP JUMP JUMPDEST PUSH0 PUSH0 SLOAD SWAP1 POP SWAP1 JUMP JUMPDEST PUSH0 CALLVALUE GT PUSH2 0x1AE4 JUMPI PUSH1 0x40 MLOAD PUSH32 0x8C379A000000000000000000000000000000000000000000000000000000000 DUP2 MSTORE PUSH1 0x4 ADD PUSH2 0x1ADB SWAP1 PUSH2 0x391A JUMP JUMPDEST PUSH1 0x40 MLOAD DUP1 SWAP2 SUB SWAP1 REVERT JUMPDEST PUSH0 PUSH0 DUP2 SLOAD DUP1 SWAP3 SWAP2 SWAP1 PUSH2 0x1AF5 SWAP1 PUSH2 0x3118 JUMP JUMPDEST SWAP2 SWAP1 POP SSTORE POP PUSH0 PUSH1 0x1 PUSH0 PUSH0 SLOAD DUP2 MSTORE PUSH1 0x20 ADD SWAP1 DUP2 MSTORE PUSH1 0x20 ADD PUSH0 KECCAK256 SWAP1 POP CALLER DUP2 PUSH0 ADD PUSH0 PUSH2 0x100 EXP DUP2 SLOAD DUP2 PUSH20 0xFFFFFFFFFFFFFFFFFFFFFFFFFFFFFFFFFFFFFFFF MUL NOT AND SWAP1 DUP4 PUSH20 0xFFFFFFFFFFFFFFFFFFFFFFFFFFFFFFFFFFFFFFFF AND MUL OR SWAP1 SSTORE POP CALLVALUE DUP2 PUSH1 0x3 ADD DUP2 SWAP1 SSTORE POP DUP3 DUP3 DUP3 PUSH1 0x4 ADD SWAP2 DUP3 PUSH2 0x1B6C SWAP3 SWAP2 SWAP1 PUSH2 0x3942 JUMP JUMPDEST POP PUSH0 DUP2 PUSH1 0x6 ADD PUSH0 PUSH2 0x100 EXP DUP2 SLOAD DUP2 PUSH1 0xFF MUL NOT AND SWAP1 DUP4 ISZERO ISZERO MUL OR SWAP1 SSTORE POP PUSH0 DUP2 PUSH1 0x8 ADD PUSH0 PUSH2 0x100 EXP DUP2 SLOAD DUP2 PUSH1 0xFF MUL NOT AND SWAP1 DUP4 PUSH1 0x5 DUP2 GT ISZERO PUSH2 0x1BAE JUMPI PUSH2 0x1BAD PUSH2 0x25E9 JUMP JUMPDEST JUMPDEST MUL OR SWAP1 SSTORE POP PUSH32 0x5FDDF931B4D1E3B95F2B6FB12AB475FE9555CE60FD2BFE66B84060F2DC22A2E PUSH0 SLOAD CALLER CALLVALUE DUP7 DUP7 PUSH1 0x40 MLOAD PUSH2 0x1BEB SWAP6 SWAP5 SWAP4 SWAP3 SWAP2 SWAP1 PUSH2 0x3A49 JUMP JUMPDEST PUSH1 0x40 MLOAD DUP1 SWAP2 SUB SWAP1 LOG1 POP POP POP JUMP JUMPDEST PUSH0 DUP4 GT DUP1 ISZERO PUSH2 0x1C08 JUMPI POP PUSH0 SLOAD DUP4 GT ISZERO JUMPDEST PUSH2 0x1C47 JUMPI PUSH1 0x40 MLOAD PUSH32 0x8C379A000000000000000000000000000000000000000000000000000000000 DUP2 MSTORE PUSH1 0x4 ADD PUSH2 0x1C3E SWAP1 PUSH2 0x2974 JUMP JUMPDEST PUSH1 0x40 MLOAD DUP1 SWAP2 SUB SWAP1 REVERT JUMPDEST PUSH0 PUSH1 0x1 PUSH0 DUP6 DUP2 MSTORE PUSH1 0x20 ADD SWAP1 DUP2 MSTORE PUSH1 0x20 ADD PUSH0 KECCAK256 SWAP1 POP PUSH0 PUSH1 0x5 DUP2 GT ISZERO PUSH2 0x1C6E JUMPI PUSH2 0x1C6D PUSH2 0x25E9 JUMP JUMPDEST JUMPDEST DUP2 PUSH1 0x8 ADD PUSH0 SWAP1 SLOAD SWAP1 PUSH2 0x100 EXP SWAP1 DIV PUSH1 0xFF AND PUSH1 0x5 DUP2 GT ISZERO PUSH2 0x1C91 JUMPI PUSH2 0x1C90 PUSH2 0x25E9 JUMP JUMPDEST JUMPDEST EQ PUSH2 0x1CD1 JUMPI PUSH1 0x40 MLOAD PUSH32 0x8C379A000000000000000000000000000000000000000000000000000000000 DUP2 MSTORE PUSH1 0x4 ADD PUSH2 0x1CC8 SWAP1 PUSH2 0x3ADF JUMP JUMPDEST PUSH1 0x40 MLOAD DUP1 SWAP2 SUB SWAP1 REVERT JUMPDEST PUSH1 0x3 SLOAD CALLVALUE EQ PUSH2 0x1D15 JUMPI PUSH1 0x40 MLOAD PUSH32 0x8C379A000000000000000000000000000000000000000000000000000000000 DUP2 MSTORE PUSH1 0x4 ADD PUSH2 0x1D0C SWAP1 PUSH2 0x3815 JUMP JUMPDEST PUSH1 0x40 MLOAD DUP1 SWAP2 SUB SWAP1 REVERT JUMPDEST PUSH0 PUSH20 0xFFFFFFFFFFFFFFFFFFFFFFFFFFFFFFFFFFFFFFFF AND DUP2 PUSH1 0x1 ADD PUSH0 SWAP1 SLOAD SWAP1 PUSH2 0x100 EXP SWAP1 DIV PUSH20 0xFFFFFFFFFFFFFFFFFFFFFFFFFFFFFFFFFFFFFFFF AND PUSH20 0xFFFFFFFFFFFFFFFFFFFFFFFFFFFFFFFFFFFFFFFF AND EQ PUSH2 0x1DA6 JUMPI PUSH1 0x40 MLOAD PUSH32 0x8C379A000000000000000000000000000000000000000000000000000000000 DUP2 MSTORE PUSH1 0x4 ADD PUSH2 0x1D9D SWAP1 PUSH2 0x3B6D JUMP JUMPDEST PUSH1 0x40 MLOAD DUP1 SWAP2 SUB SWAP1 REVERT JUMPDEST DUP3 DUP3 DUP3 PUSH1 0x5 ADD SWAP2 DUP3 PUSH2 0x1DB9 SWAP3 SWAP2 SWAP1 PUSH2 0x3942 JUMP JUMPDEST POP CALLER DUP2 PUSH1 0x1 ADD PUSH0 PUSH2 0x100 EXP DUP2 SLOAD DUP2 PUSH20 0xFFFFFFFFFFFFFFFFFFFFFFFFFFFFFFFFFFFFFFFF MUL NOT AND SWAP1 DUP4 PUSH20 0xFFFFFFFFFFFFFFFFFFFFFFFFFFFFFFFFFFFFFFFF AND MUL OR SWAP1 SSTORE POP PUSH1 0x1 DUP2 PUSH1 0x8 ADD PUSH0 PUSH2 0x100 EXP DUP2 SLOAD DUP2 PUSH1 0xFF MUL NOT AND SWAP1 DUP4 PUSH1 0x5 DUP2 GT ISZERO PUSH2 0x1E23 JUMPI PUSH2 0x1E22 PUSH2 0x25E9 JUMP JUMPDEST JUMPDEST MUL OR SWAP1 SSTORE POP PUSH32 0xA90AE9720245855CD0178118B70CC1EE497003D06D996EE5C304A19E5B25D915 DUP5 CALLER DUP6 DUP6 PUSH1 0x40 MLOAD PUSH2 0x1E5D SWAP5 SWAP4 SWAP3 SWAP2 SWAP1 PUSH2 0x3B8B JUMP JUMPDEST PUSH1 0x40 MLOAD DUP1 SWAP2 SUB SWAP1 LOG1 POP POP POP POP JUMP JUMPDEST PUSH1 0x7 PUSH0 SWAP1 SLOAD SWAP1 PUSH2 0x100 EXP SWAP1 DIV PUSH20 0xFFFFFFFFFFFFFFFFFFFFFFFFFFFFFFFFFFFFFFFF AND DUP2 JUMP JUMPDEST PUSH0 PUSH1 0x2 PUSH0 DUP5 DUP2 MSTORE PUSH1 0x20 ADD SWAP1 DUP2 MSTORE PUSH1 0x20 ADD PUSH0 KECCAK256 SWAP1 POP PUSH0 PUSH1 0x1 PUSH0 DUP6 DUP2 MSTORE PUSH1 0x20 ADD SWAP1 DUP2 MSTORE PUSH1 0x20 ADD PUSH0 KECCAK256 SWAP1 POP PUSH0 PUSH0 PUSH1 0x64 PUSH1 0x28 PUSH1 0x4 SLOAD PUSH2 0x1ECB SWAP2 SWAP1 PUSH2 0x35F6 JUMP JUMPDEST PUSH2 0x1ED5 SWAP2 SWAP1 PUSH2 0x3664 JUMP JUMPDEST SWAP1 POP DUP3 PUSH1 0x6 ADD PUSH0 SWAP1 SLOAD SWAP1 PUSH2 0x100 EXP SWAP1 DIV PUSH1 0xFF AND ISZERO ISZERO DUP6 ISZERO ISZERO SUB PUSH2 0x1EFA JUMPI PUSH0 SWAP2 POP PUSH2 0x1F7F JUMP JUMPDEST PUSH1 0x64 PUSH1 0x32 PUSH1 0x4 SLOAD PUSH2 0x1F0B SWAP2 SWAP1 PUSH2 0x35F6 JUMP JUMPDEST PUSH2 0x1F15 SWAP2 SWAP1 PUSH2 0x3664 JUMP JUMPDEST SWAP2 POP DUP4 PUSH0 ADD PUSH1 0x1 SWAP1 SLOAD SWAP1 PUSH2 0x100 EXP SWAP1 DIV PUSH20 0xFFFFFFFFFFFFFFFFFFFFFFFFFFFFFFFFFFFFFFFF AND PUSH20 0xFFFFFFFFFFFFFFFFFFFFFFFFFFFFFFFFFFFFFFFF AND PUSH2 0x8FC DUP4 SWAP1 DUP2 ISZERO MUL SWAP1 PUSH1 0x40 MLOAD PUSH0 PUSH1 0x40 MLOAD DUP1 DUP4 SUB DUP2 DUP6 DUP9 DUP9 CALL SWAP4 POP POP POP POP ISZERO DUP1 ISZERO PUSH2 0x1F7D JUMPI RETURNDATASIZE PUSH0 PUSH0 RETURNDATACOPY RETURNDATASIZE PUSH0 REVERT JUMPDEST POP JUMPDEST PUSH0 DUP2 DUP4 PUSH1 0x4 SLOAD PUSH2 0x1F8F SWAP2 SWAP1 PUSH2 0x29BF JUMP JUMPDEST PUSH2 0x1F99 SWAP2 SWAP1 PUSH2 0x29BF JUMP JUMPDEST SWAP1 POP DUP6 PUSH2 0x2036 JUMPI DUP4 PUSH1 0x6 ADD PUSH0 SWAP1 SLOAD SWAP1 PUSH2 0x100 EXP SWAP1 DIV PUSH1 0xFF AND ISZERO PUSH2 0x1FCB JUMPI PUSH1 0x3 SLOAD DUP2 PUSH2 0x1FC4 SWAP2 SWAP1 PUSH2 0x2AB7 JUMP JUMPDEST SWAP1 POP PUSH2 0x2035 JUMP JUMPDEST DUP4 PUSH1 0x2 ADD PUSH0 SWAP1 SLOAD SWAP1 PUSH2 0x100 EXP SWAP1 DIV PUSH20 0xFFFFFFFFFFFFFFFFFFFFFFFFFFFFFFFFFFFFFFFF AND PUSH20 0xFFFFFFFFFFFFFFFFFFFFFFFFFFFFFFFFFFFFFFFF AND PUSH2 0x8FC PUSH1 0x3 SLOAD SWAP1 DUP2 ISZERO MUL SWAP1 PUSH1 0x40 MLOAD PUSH0 PUSH1 0x40 MLOAD DUP1 DUP4 SUB DUP2 DUP6 DUP9 DUP9 CALL SWAP4 POP POP POP POP ISZERO DUP1 ISZERO PUSH2 0x2033 JUMPI RETURNDATASIZE PUSH0 PUSH0 RETURNDATACOPY RETURNDATASIZE PUSH0 REVERT JUMPDEST POP JUMPDEST JUMPDEST PUSH0 DUP7 PUSH2 0x2046 JUMPI DUP6 PUSH1 0x3 ADD SLOAD PUSH2 0x204C JUMP JUMPDEST DUP6 PUSH1 0x2 ADD SLOAD JUMPDEST SWAP1 POP PUSH0 DUP2 SUB PUSH2 0x206E JUMPI DUP3 DUP3 PUSH2 0x2061 SWAP2 SWAP1 PUSH2 0x2AB7 JUMP JUMPDEST SWAP2 POP POP POP POP POP POP POP PUSH2 0x2241 JUMP JUMPDEST PUSH0 PUSH0 SWAP1 POP JUMPDEST DUP7 PUSH1 0x9 ADD DUP1 SLOAD SWAP1 POP DUP2 LT ISZERO PUSH2 0x2239 JUMPI PUSH0 DUP8 PUSH1 0x9 ADD DUP3 DUP2 SLOAD DUP2 LT PUSH2 0x2099 JUMPI PUSH2 0x2098 PUSH2 0x30C4 JUMP JUMPDEST JUMPDEST SWAP1 PUSH0 MSTORE PUSH1 0x20 PUSH0 KECCAK256 ADD PUSH0 SWAP1 SLOAD SWAP1 PUSH2 0x100 EXP SWAP1 DIV PUSH20 0xFFFFFFFFFFFFFFFFFFFFFFFFFFFFFFFFFFFFFFFF AND SWAP1 POP DUP8 PUSH1 0x6 ADD PUSH0 DUP3 PUSH20 0xFFFFFFFFFFFFFFFFFFFFFFFFFFFFFFFFFFFFFFFF AND PUSH20 0xFFFFFFFFFFFFFFFFFFFFFFFFFFFFFFFFFFFFFFFF AND DUP2 MSTORE PUSH1 0x20 ADD SWAP1 DUP2 MSTORE PUSH1 0x20 ADD PUSH0 KECCAK256 PUSH0 SWAP1 SLOAD SWAP1 PUSH2 0x100 EXP SWAP1 DIV PUSH1 0xFF AND ISZERO PUSH2 0x222B JUMPI PUSH0 DUP9 PUSH1 0x7 ADD PUSH0 DUP4 PUSH20 0xFFFFFFFFFFFFFFFFFFFFFFFFFFFFFFFFFFFFFFFF AND PUSH20 0xFFFFFFFFFFFFFFFFFFFFFFFFFFFFFFFFFFFFFFFF AND DUP2 MSTORE PUSH1 0x20 ADD SWAP1 DUP2 MSTORE PUSH1 0x20 ADD PUSH0 KECCAK256 SLOAD SWAP1 POP PUSH0 DUP10 PUSH1 0x8 ADD PUSH0 DUP5 PUSH20 0xFFFFFFFFFFFFFFFFFFFFFFFFFFFFFFFFFFFFFFFF AND PUSH20 0xFFFFFFFFFFFFFFFFFFFFFFFFFFFFFFFFFFFFFFFF AND DUP2 MSTORE PUSH1 0x20 ADD SWAP1 DUP2 MSTORE PUSH1 0x20 ADD PUSH0 KECCAK256 PUSH0 SWAP1 SLOAD SWAP1 PUSH2 0x100 EXP SWAP1 DIV PUSH1 0xFF AND SWAP1 POP DUP11 DUP1 ISZERO PUSH2 0x21B0 JUMPI POP DUP1 JUMPDEST DUP1 PUSH2 0x21C3 JUMPI POP DUP11 ISZERO DUP1 ISZERO PUSH2 0x21C2 JUMPI POP DUP1 ISZERO JUMPDEST JUMPDEST ISZERO PUSH2 0x2228 JUMPI PUSH0 DUP6 DUP9 DUP5 PUSH2 0x21D6 SWAP2 SWAP1 PUSH2 0x35F6 JUMP JUMPDEST PUSH2 0x21E0 SWAP2 SWAP1 PUSH2 0x3664 JUMP JUMPDEST SWAP1 POP DUP4 PUSH20 0xFFFFFFFFFFFFFFFFFFFFFFFFFFFFFFFFFFFFFFFF AND PUSH2 0x8FC DUP3 SWAP1 DUP2 ISZERO MUL SWAP1 PUSH1 0x40 MLOAD PUSH0 PUSH1 0x40 MLOAD DUP1 DUP4 SUB DUP2 DUP6 DUP9 DUP9 CALL SWAP4 POP POP POP POP ISZERO DUP1 ISZERO PUSH2 0x2225 JUMPI RETURNDATASIZE PUSH0 PUSH0 RETURNDATACOPY RETURNDATASIZE PUSH0 REVERT JUMPDEST POP POP JUMPDEST POP POP JUMPDEST POP DUP1 DUP1 PUSH1 0x1 ADD SWAP2 POP POP PUSH2 0x2073 JUMP JUMPDEST POP POP POP POP POP POP POP JUMPDEST POP POP JUMP JUMPDEST PUSH0 PUSH1 0x1 PUSH0 DUP4 DUP2 MSTORE PUSH1 0x20 ADD SWAP1 DUP2 MSTORE PUSH1 0x20 ADD PUSH0 KECCAK256 SWAP1 POP PUSH0 PUSH1 0x2 PUSH0 DUP5 DUP2 MSTORE PUSH1 0x20 ADD SWAP1 DUP2 MSTORE PUSH1 0x20 ADD PUSH0 KECCAK256 SWAP1 POP PUSH1 0x4 DUP3 PUSH1 0x8 ADD PUSH0 PUSH2 0x100 EXP DUP2 SLOAD DUP2 PUSH1 0xFF MUL NOT AND SWAP1 DUP4 PUSH1 0x5 DUP2 GT ISZERO PUSH2 0x2294 JUMPI PUSH2 0x2293 PUSH2 0x25E9 JUMP JUMPDEST JUMPDEST MUL OR SWAP1 SSTORE POP PUSH0 PUSH1 0x64 PUSH1 0x5A DUP5 PUSH1 0x3 ADD SLOAD PUSH2 0x22AD SWAP2 SWAP1 PUSH2 0x35F6 JUMP JUMPDEST PUSH2 0x22B7 SWAP2 SWAP1 PUSH2 0x3664 JUMP JUMPDEST SWAP1 POP PUSH0 PUSH1 0x64 PUSH1 0xA DUP6 PUSH1 0x3 ADD SLOAD PUSH2 0x22CD SWAP2 SWAP1 PUSH2 0x35F6 JUMP JUMPDEST PUSH2 0x22D7 SWAP2 SWAP1 PUSH2 0x3664 JUMP JUMPDEST SWAP1 POP DUP4 PUSH1 0x1 ADD PUSH0 SWAP1 SLOAD SWAP1 PUSH2 0x100 EXP SWAP1 DIV PUSH20 0xFFFFFFFFFFFFFFFFFFFFFFFFFFFFFFFFFFFFFFFF AND PUSH20 0xFFFFFFFFFFFFFFFFFFFFFFFFFFFFFFFFFFFFFFFF AND PUSH2 0x8FC PUSH1 0x3 SLOAD DUP5 PUSH2 0x2324 SWAP2 SWAP1 PUSH2 0x2AB7 JUMP JUMPDEST SWAP1 DUP2 ISZERO MUL SWAP1 PUSH1 0x40 MLOAD PUSH0 PUSH1 0x40 MLOAD DUP1 DUP4 SUB DUP2 DUP6 DUP9 DUP9 CALL SWAP4 POP POP POP POP ISZERO DUP1 ISZERO PUSH2 0x234C JUMPI RETURNDATASIZE PUSH0 PUSH0 RETURNDATACOPY RETURNDATASIZE PUSH0 REVERT JUMPDEST POP DUP4 PUSH1 0x6 ADD PUSH0 SWAP1 SLOAD SWAP1 PUSH2 0x100 EXP SWAP1 DIV PUSH1 0xFF AND ISZERO PUSH2 0x23DC JUMPI DUP4 PUSH1 0x2 ADD PUSH0 SWAP1 SLOAD SWAP1 PUSH2 0x100 EXP SWAP1 DIV PUSH20 0xFFFFFFFFFFFFFFFFFFFFFFFFFFFFFFFFFFFFFFFF AND PUSH20 0xFFFFFFFFFFFFFFFFFFFFFFFFFFFFFFFFFFFFFFFF AND PUSH2 0x8FC PUSH1 0x4 SLOAD DUP4 PUSH2 0x23AE SWAP2 SWAP1 PUSH2 0x2AB7 JUMP JUMPDEST SWAP1 DUP2 ISZERO MUL SWAP1 PUSH1 0x40 MLOAD PUSH0 PUSH1 0x40 MLOAD DUP1 DUP4 SUB DUP2 DUP6 DUP9 DUP9 CALL SWAP4 POP POP POP POP ISZERO DUP1 ISZERO PUSH2 0x23D6 JUMPI RETURNDATASIZE PUSH0 PUSH0 RETURNDATACOPY RETURNDATASIZE PUSH0 REVERT JUMPDEST POP PUSH2 0x2451 JUMP JUMPDEST DUP3 PUSH0 ADD PUSH1 0x1 SWAP1 SLOAD SWAP1 PUSH2 0x100 EXP SWAP1 DIV PUSH20 0xFFFFFFFFFFFFFFFFFFFFFFFFFFFFFFFFFFFFFFFF AND PUSH20 0xFFFFFFFFFFFFFFFFFFFFFFFFFFFFFFFFFFFFFFFF AND PUSH2 0x8FC PUSH1 0x4 SLOAD DUP4 PUSH2 0x2427 SWAP2 SWAP1 PUSH2 0x2AB7 JUMP JUMPDEST SWAP1 DUP2 ISZERO MUL SWAP1 PUSH1 0x40 MLOAD PUSH0 PUSH1 0x40 MLOAD DUP1 DUP4 SUB DUP2 DUP6 DUP9 DUP9 CALL SWAP4 POP POP POP POP ISZERO DUP1 ISZERO PUSH2 0x244F JUMPI RETURNDATASIZE PUSH0 PUSH0 RETURNDATACOPY RETURNDATASIZE PUSH0 REVERT JUMPDEST POP JUMPDEST PUSH32 0x9DEADA0165C5E1EAC62423DBF1DD30115314B076A9D6D3868DAF316F1CB285E9 DUP6 PUSH1 0x1 PUSH1 0x40 MLOAD PUSH2 0x2483 SWAP3 SWAP2 SWAP1 PUSH2 0x342F JUMP JUMPDEST PUSH1 0x40 MLOAD DUP1 SWAP2 SUB SWAP1 LOG1 POP POP POP POP POP JUMP JUMPDEST PUSH0 PUSH0 REVERT JUMPDEST PUSH0 PUSH0 REVERT JUMPDEST PUSH0 DUP2 SWAP1 POP SWAP2 SWAP1 POP JUMP JUMPDEST PUSH2 0x24AC DUP2 PUSH2 0x249A JUMP JUMPDEST DUP2 EQ PUSH2 0x24B6 JUMPI PUSH0 PUSH0 REVERT JUMPDEST POP JUMP JUMPDEST PUSH0 DUP2 CALLDATALOAD SWAP1 POP PUSH2 0x24C7 DUP2 PUSH2 0x24A3 JUMP JUMPDEST SWAP3 SWAP2 POP POP JUMP JUMPDEST PUSH0 PUSH1 0x20 DUP3 DUP5 SUB SLT ISZERO PUSH2 0x24E2 JUMPI PUSH2 0x24E1 PUSH2 0x2492 JUMP JUMPDEST JUMPDEST PUSH0 PUSH2 0x24EF DUP5 DUP3 DUP6 ADD PUSH2 0x24B9 JUMP JUMPDEST SWAP2 POP POP SWAP3 SWAP2 POP POP JUMP JUMPDEST PUSH2 0x2501 DUP2 PUSH2 0x249A JUMP JUMPDEST DUP3 MSTORE POP POP JUMP JUMPDEST PUSH0 PUSH1 0x20 DUP3 ADD SWAP1 POP PUSH2 0x251A PUSH0 DUP4 ADD DUP5 PUSH2 0x24F8 JUMP JUMPDEST SWAP3 SWAP2 POP POP JUMP JUMPDEST PUSH0 PUSH20 0xFFFFFFFFFFFFFFFFFFFFFFFFFFFFFFFFFFFFFFFF DUP3 AND SWAP1 POP SWAP2 SWAP1 POP JUMP JUMPDEST PUSH0 PUSH2 0x2549 DUP3 PUSH2 0x2520 JUMP JUMPDEST SWAP1 POP SWAP2 SWAP1 POP JUMP JUMPDEST PUSH2 0x2559 DUP2 PUSH2 0x253F JUMP JUMPDEST DUP3 MSTORE POP POP JUMP JUMPDEST PUSH0 DUP2 MLOAD SWAP1 POP SWAP2 SWAP1 POP JUMP JUMPDEST PUSH0 DUP3 DUP3 MSTORE PUSH1 0x20 DUP3 ADD SWAP1 POP SWAP3 SWAP2 POP POP JUMP JUMPDEST DUP3 DUP2 DUP4 MCOPY PUSH0 DUP4 DUP4 ADD MSTORE POP POP POP JUMP JUMPDEST PUSH0 PUSH1 0x1F NOT PUSH1 0x1F DUP4 ADD AND SWAP1 POP SWAP2 SWAP1 POP JUMP JUMPDEST PUSH0 PUSH2 0x25A1 DUP3 PUSH2 0x255F JUMP JUMPDEST PUSH2 0x25AB DUP2 DUP6 PUSH2 0x2569 JUMP JUMPDEST SWAP4 POP PUSH2 0x25BB DUP2 DUP6 PUSH1 0x20 DUP7 ADD PUSH2 0x2579 JUMP JUMPDEST PUSH2 0x25C4 DUP2 PUSH2 0x2587 JUMP JUMPDEST DUP5 ADD SWAP2 POP POP SWAP3 SWAP2 POP POP JUMP JUMPDEST PUSH0 DUP2 ISZERO ISZERO SWAP1 POP SWAP2 SWAP1 POP JUMP JUMPDEST PUSH2 0x25E3 DUP2 PUSH2 0x25CF JUMP JUMPDEST DUP3 MSTORE POP POP JUMP JUMPDEST PUSH32 0x4E487B7100000000000000000000000000000000000000000000000000000000 PUSH0 MSTORE PUSH1 0x21 PUSH1 0x4 MSTORE PUSH1 0x24 PUSH0 REVERT JUMPDEST PUSH1 0x6 DUP2 LT PUSH2 0x2627 JUMPI PUSH2 0x2626 PUSH2 0x25E9 JUMP JUMPDEST JUMPDEST POP JUMP JUMPDEST PUSH0 DUP2 SWAP1 POP PUSH2 0x2637 DUP3 PUSH2 0x2616 JUMP JUMPDEST SWAP2 SWAP1 POP JUMP JUMPDEST PUSH0 PUSH2 0x2646 DUP3 PUSH2 0x262A JUMP JUMPDEST SWAP1 POP SWAP2 SWAP1 POP JUMP JUMPDEST PUSH2 0x2656 DUP2 PUSH2 0x263C JUMP JUMPDEST DUP3 MSTORE POP POP JUMP JUMPDEST PUSH0 PUSH2 0x120 DUP3 ADD SWAP1 POP PUSH2 0x2670 PUSH0 DUP4 ADD DUP13 PUSH2 0x2550 JUMP JUMPDEST PUSH2 0x267D PUSH1 0x20 DUP4 ADD DUP12 PUSH2 0x2550 JUMP JUMPDEST PUSH2 0x268A PUSH1 0x40 DUP4 ADD DUP11 PUSH2 0x2550 JUMP JUMPDEST PUSH2 0x2697 PUSH1 0x60 DUP4 ADD DUP10 PUSH2 0x24F8 JUMP JUMPDEST DUP2 DUP2 SUB PUSH1 0x80 DUP4 ADD MSTORE PUSH2 0x26A9 DUP2 DUP9 PUSH2 0x2597 JUMP JUMPDEST SWAP1 POP DUP2 DUP2 SUB PUSH1 0xA0 DUP4 ADD MSTORE PUSH2 0x26BD DUP2 DUP8 PUSH2 0x2597 JUMP JUMPDEST SWAP1 POP PUSH2 0x26CC PUSH1 0xC0 DUP4 ADD DUP7 PUSH2 0x25DA JUMP JUMPDEST PUSH2 0x26D9 PUSH1 0xE0 DUP4 ADD DUP6 PUSH2 0x24F8 JUMP JUMPDEST PUSH2 0x26E7 PUSH2 0x100 DUP4 ADD DUP5 PUSH2 0x264D JUMP JUMPDEST SWAP11 SWAP10 POP POP POP POP POP POP POP POP POP POP JUMP JUMPDEST PUSH2 0x26FE DUP2 PUSH2 0x25CF JUMP JUMPDEST DUP2 EQ PUSH2 0x2708 JUMPI PUSH0 PUSH0 REVERT JUMPDEST POP JUMP JUMPDEST PUSH0 DUP2 CALLDATALOAD SWAP1 POP PUSH2 0x2719 DUP2 PUSH2 0x26F5 JUMP JUMPDEST SWAP3 SWAP2 POP POP JUMP JUMPDEST PUSH0 PUSH0 PUSH0 PUSH1 0x60 DUP5 DUP7 SUB SLT ISZERO PUSH2 0x2736 JUMPI PUSH2 0x2735 PUSH2 0x2492 JUMP JUMPDEST JUMPDEST PUSH0 PUSH2 0x2743 DUP7 DUP3 DUP8 ADD PUSH2 0x24B9 JUMP JUMPDEST SWAP4 POP POP PUSH1 0x20 PUSH2 0x2754 DUP7 DUP3 DUP8 ADD PUSH2 0x24B9 JUMP JUMPDEST SWAP3 POP POP PUSH1 0x40 PUSH2 0x2765 DUP7 DUP3 DUP8 ADD PUSH2 0x270B JUMP JUMPDEST SWAP2 POP POP SWAP3 POP SWAP3 POP SWAP3 JUMP JUMPDEST PUSH0 PUSH0 PUSH1 0x40 DUP4 DUP6 SUB SLT ISZERO PUSH2 0x2785 JUMPI PUSH2 0x2784 PUSH2 0x2492 JUMP JUMPDEST JUMPDEST PUSH0 PUSH2 0x2792 DUP6 DUP3 DUP7 ADD PUSH2 0x24B9 JUMP JUMPDEST SWAP3 POP POP PUSH1 0x20 PUSH2 0x27A3 DUP6 DUP3 DUP7 ADD PUSH2 0x270B JUMP JUMPDEST SWAP2 POP POP SWAP3 POP SWAP3 SWAP1 POP JUMP JUMPDEST PUSH0 PUSH0 REVERT JUMPDEST PUSH0 PUSH0 REVERT JUMPDEST PUSH0 PUSH0 REVERT JUMPDEST PUSH0 PUSH0 DUP4 PUSH1 0x1F DUP5 ADD SLT PUSH2 0x27CE JUMPI PUSH2 0x27CD PUSH2 0x27AD JUMP JUMPDEST JUMPDEST DUP3 CALLDATALOAD SWAP1 POP PUSH8 0xFFFFFFFFFFFFFFFF DUP2 GT ISZERO PUSH2 0x27EB JUMPI PUSH2 0x27EA PUSH2 0x27B1 JUMP JUMPDEST JUMPDEST PUSH1 0x20 DUP4 ADD SWAP2 POP DUP4 PUSH1 0x1 DUP3 MUL DUP4 ADD GT ISZERO PUSH2 0x2807 JUMPI PUSH2 0x2806 PUSH2 0x27B5 JUMP JUMPDEST JUMPDEST SWAP3 POP SWAP3 SWAP1 POP JUMP JUMPDEST PUSH0 PUSH0 PUSH1 0x20 DUP4 DUP6 SUB SLT ISZERO PUSH2 0x2824 JUMPI PUSH2 0x2823 PUSH2 0x2492 JUMP JUMPDEST JUMPDEST PUSH0 DUP4 ADD CALLDATALOAD PUSH8 0xFFFFFFFFFFFFFFFF DUP2 GT ISZERO PUSH2 0x2841 JUMPI PUSH2 0x2840 PUSH2 0x2496 JUMP JUMPDEST JUMPDEST PUSH2 0x284D DUP6 DUP3 DUP7 ADD PUSH2 0x27B9 JUMP JUMPDEST SWAP3 POP SWAP3 POP POP SWAP3 POP SWAP3 SWAP1 POP JUMP JUMPDEST PUSH0 PUSH0 PUSH0 PUSH1 0x40 DUP5 DUP7 SUB SLT ISZERO PUSH2 0x2870 JUMPI PUSH2 0x286F PUSH2 0x2492 JUMP JUMPDEST JUMPDEST PUSH0 PUSH2 0x287D DUP7 DUP3 DUP8 ADD PUSH2 0x24B9 JUMP JUMPDEST SWAP4 POP POP PUSH1 0x20 DUP5 ADD CALLDATALOAD PUSH8 0xFFFFFFFFFFFFFFFF DUP2 GT ISZERO PUSH2 0x289E JUMPI PUSH2 0x289D PUSH2 0x2496 JUMP JUMPDEST JUMPDEST PUSH2 0x28AA DUP7 DUP3 DUP8 ADD PUSH2 0x27B9 JUMP JUMPDEST SWAP3 POP SWAP3 POP POP SWAP3 POP SWAP3 POP SWAP3 JUMP JUMPDEST PUSH0 DUP2 SWAP1 POP SWAP2 SWAP1 POP JUMP JUMPDEST PUSH0 PUSH2 0x28D9 PUSH2 0x28D4 PUSH2 0x28CF DUP5 PUSH2 0x2520 JUMP JUMPDEST PUSH2 0x28B6 JUMP JUMPDEST PUSH2 0x2520 JUMP JUMPDEST SWAP1 POP SWAP2 SWAP1 POP JUMP JUMPDEST PUSH0 PUSH2 0x28EA DUP3 PUSH2 0x28BF JUMP JUMPDEST SWAP1 POP SWAP2 SWAP1 POP JUMP JUMPDEST PUSH0 PUSH2 0x28FB DUP3 PUSH2 0x28E0 JUMP JUMPDEST SWAP1 POP SWAP2 SWAP1 POP JUMP JUMPDEST PUSH2 0x290B DUP2 PUSH2 0x28F1 JUMP JUMPDEST DUP3 MSTORE POP POP JUMP JUMPDEST PUSH0 PUSH1 0x20 DUP3 ADD SWAP1 POP PUSH2 0x2924 PUSH0 DUP4 ADD DUP5 PUSH2 0x2902 JUMP JUMPDEST SWAP3 SWAP2 POP POP JUMP JUMPDEST PUSH32 0x496E76616C6964207461736B2069640000000000000000000000000000000000 PUSH0 DUP3 ADD MSTORE POP JUMP JUMPDEST PUSH0 PUSH2 0x295E PUSH1 0xF DUP4 PUSH2 0x2569 JUMP JUMPDEST SWAP2 POP PUSH2 0x2969 DUP3 PUSH2 0x292A JUMP JUMPDEST PUSH1 0x20 DUP3 ADD SWAP1 POP SWAP2 SWAP1 POP JUMP JUMPDEST PUSH0 PUSH1 0x20 DUP3 ADD SWAP1 POP DUP2 DUP2 SUB PUSH0 DUP4 ADD MSTORE PUSH2 0x298B DUP2 PUSH2 0x2952 JUMP JUMPDEST SWAP1 POP SWAP2 SWAP1 POP JUMP JUMPDEST PUSH32 0x4E487B7100000000000000000000000000000000000000000000000000000000 PUSH0 MSTORE PUSH1 0x11 PUSH1 0x4 MSTORE PUSH1 0x24 PUSH0 REVERT JUMPDEST PUSH0 PUSH2 0x29C9 DUP3 PUSH2 0x249A JUMP JUMPDEST SWAP2 POP PUSH2 0x29D4 DUP4 PUSH2 0x249A JUMP JUMPDEST SWAP3 POP DUP3 DUP3 SUB SWAP1 POP DUP2 DUP2 GT ISZERO PUSH2 0x29EC JUMPI PUSH2 0x29EB PUSH2 0x2992 JUMP JUMPDEST JUMPDEST SWAP3 SWAP2 POP POP JUMP JUMPDEST PUSH32 0x4E487B7100000000000000000000000000000000000000000000000000000000 PUSH0 MSTORE PUSH1 0x22 PUSH1 0x4 MSTORE PUSH1 0x24 PUSH0 REVERT JUMPDEST PUSH0 PUSH1 0x2 DUP3 DIV SWAP1 POP PUSH1 0x1 DUP3 AND DUP1 PUSH2 0x2A36 JUMPI PUSH1 0x7F DUP3 AND SWAP2 POP JUMPDEST PUSH1 0x20 DUP3 LT DUP2 SUB PUSH2 0x2A49 JUMPI PUSH2 0x2A48 PUSH2 0x29F2 JUMP JUMPDEST JUMPDEST POP SWAP2 SWAP1 POP JUMP JUMPDEST PUSH32 0x4E6F206163746976652064697370757465000000000000000000000000000000 PUSH0 DUP3 ADD MSTORE POP JUMP JUMPDEST PUSH0 PUSH2 0x2A83 PUSH1 0x11 DUP4 PUSH2 0x2569 JUMP JUMPDEST SWAP2 POP PUSH2 0x2A8E DUP3 PUSH2 0x2A4F JUMP JUMPDEST PUSH1 0x20 DUP3 ADD SWAP1 POP SWAP2 SWAP1 POP JUMP JUMPDEST PUSH0 PUSH1 0x20 DUP3 ADD SWAP1 POP DUP2 DUP2 SUB PUSH0 DUP4 ADD MSTORE PUSH2 0x2AB0 DUP2 PUSH2 0x2A77 JUMP JUMPDEST SWAP1 POP SWAP2 SWAP1 POP JUMP JUMPDEST PUSH0 PUSH2 0x2AC1 DUP3 PUSH2 0x249A JUMP JUMPDEST SWAP2 POP PUSH2 0x2ACC DUP4 PUSH2 0x249A JUMP JUMPDEST SWAP3 POP DUP3 DUP3 ADD SWAP1 POP DUP1 DUP3 GT ISZERO PUSH2 0x2AE4 JUMPI PUSH2 0x2AE3 PUSH2 0x2992 JUMP JUMPDEST JUMPDEST SWAP3 SWAP2 POP POP JUMP JUMPDEST PUSH32 0x566F74696E6720706572696F6420656E64656400000000000000000000000000 PUSH0 DUP3 ADD MSTORE POP JUMP JUMPDEST PUSH0 PUSH2 0x2B1E PUSH1 0x13 DUP4 PUSH2 0x2569 JUMP JUMPDEST SWAP2 POP PUSH2 0x2B29 DUP3 PUSH2 0x2AEA JUMP JUMPDEST PUSH1 0x20 DUP3 ADD SWAP1 POP SWAP2 SWAP1 POP JUMP JUMPDEST PUSH0 PUSH1 0x20 DUP3 ADD SWAP1 POP DUP2 DUP2 SUB PUSH0 DUP4 ADD MSTORE PUSH2 0x2B4B DUP2 PUSH2 0x2B12 JUMP JUMPDEST SWAP1 POP SWAP2 SWAP1 POP JUMP JUMPDEST PUSH32 0x5374616B6520746F6F20736D616C6C0000000000000000000000000000000000 PUSH0 DUP3 ADD MSTORE POP JUMP JUMPDEST PUSH0 PUSH2 0x2B86 PUSH1 0xF DUP4 PUSH2 0x2569 JUMP JUMPDEST SWAP2 POP PUSH2 0x2B91 DUP3 PUSH2 0x2B52 JUMP JUMPDEST PUSH1 0x20 DUP3 ADD SWAP1 POP SWAP2 SWAP1 POP JUMP JUMPDEST PUSH0 PUSH1 0x20 DUP3 ADD SWAP1 POP DUP2 DUP2 SUB PUSH0 DUP4 ADD MSTORE PUSH2 0x2BB3 DUP2 PUSH2 0x2B7A JUMP JUMPDEST SWAP1 POP SWAP2 SWAP1 POP JUMP JUMPDEST PUSH32 0x416C726561647920726567697374657265640000000000000000000000000000 PUSH0 DUP3 ADD MSTORE POP JUMP JUMPDEST PUSH0 PUSH2 0x2BEE PUSH1 0x12 DUP4 PUSH2 0x2569 JUMP JUMPDEST SWAP2 POP PUSH2 0x2BF9 DUP3 PUSH2 0x2BBA JUMP JUMPDEST PUSH1 0x20 DUP3 ADD SWAP1 POP SWAP2 SWAP1 POP JUMP JUMPDEST PUSH0 PUSH1 0x20 DUP3 ADD SWAP1 POP DUP2 DUP2 SUB PUSH0 DUP4 ADD MSTORE PUSH2 0x2C1B DUP2 PUSH2 0x2BE2 JUMP JUMPDEST SWAP1 POP SWAP2 SWAP1 POP JUMP JUMPDEST PUSH32 0x416C726561647920766F74656400000000000000000000000000000000000000 PUSH0 DUP3 ADD MSTORE POP JUMP JUMPDEST PUSH0 PUSH2 0x2C56 PUSH1 0xD DUP4 PUSH2 0x2569 JUMP JUMPDEST SWAP2 POP PUSH2 0x2C61 DUP3 PUSH2 0x2C22 JUMP JUMPDEST PUSH1 0x20 DUP3 ADD SWAP1 POP SWAP2 SWAP1 POP JUMP JUMPDEST PUSH0 PUSH1 0x20 DUP3 ADD SWAP1 POP DUP2 DUP2 SUB PUSH0 DUP4 ADD MSTORE PUSH2 0x2C83 DUP2 PUSH2 0x2C4A JUMP JUMPDEST SWAP1 POP SWAP2 SWAP1 POP JUMP JUMPDEST PUSH0 PUSH1 0x60 DUP3 ADD SWAP1 POP PUSH2 0x2C9D PUSH0 DUP4 ADD DUP7 PUSH2 0x2550 JUMP JUMPDEST PUSH2 0x2CAA PUSH1 0x20 DUP4 ADD DUP6 PUSH2 0x2550 JUMP JUMPDEST PUSH2 0x2CB7 PUSH1 0x40 DUP4 ADD DUP5 PUSH2 0x24F8 JUMP JUMPDEST SWAP5 SWAP4 POP POP POP POP JUMP JUMPDEST PUSH0 DUP2 MLOAD SWAP1 POP PUSH2 0x2CCD DUP2 PUSH2 0x26F5 JUMP JUMPDEST SWAP3 SWAP2 POP POP JUMP JUMPDEST PUSH0 PUSH1 0x20 DUP3 DUP5 SUB SLT ISZERO PUSH2 0x2CE8 JUMPI PUSH2 0x2CE7 PUSH2 0x2492 JUMP JUMPDEST JUMPDEST PUSH0 PUSH2 0x2CF5 DUP5 DUP3 DUP6 ADD PUSH2 0x2CBF JUMP JUMPDEST SWAP2 POP POP SWAP3 SWAP2 POP POP JUMP JUMPDEST PUSH32 0x546F6B656E207472616E73666572206661696C65640000000000000000000000 PUSH0 DUP3 ADD MSTORE POP JUMP JUMPDEST PUSH0 PUSH2 0x2D32 PUSH1 0x15 DUP4 PUSH2 0x2569 JUMP JUMPDEST SWAP2 POP PUSH2 0x2D3D DUP3 PUSH2 0x2CFE JUMP JUMPDEST PUSH1 0x20 DUP3 ADD SWAP1 POP SWAP2 SWAP1 POP JUMP JUMPDEST PUSH0 PUSH1 0x20 DUP3 ADD SWAP1 POP DUP2 DUP2 SUB PUSH0 DUP4 ADD MSTORE PUSH2 0x2D5F DUP2 PUSH2 0x2D26 JUMP JUMPDEST SWAP1 POP SWAP2 SWAP1 POP JUMP JUMPDEST PUSH0 PUSH1 0x80 DUP3 ADD SWAP1 POP PUSH2 0x2D79 PUSH0 DUP4 ADD DUP8 PUSH2 0x24F8 JUMP JUMPDEST PUSH2 0x2D86 PUSH1 0x20 DUP4 ADD DUP7 PUSH2 0x2550 JUMP JUMPDEST PUSH2 0x2D93 PUSH1 0x40 DUP4 ADD DUP6 PUSH2 0x25DA JUMP JUMPDEST PUSH2 0x2DA0 PUSH1 0x60 DUP4 ADD DUP5 PUSH2 0x24F8 JUMP JUMPDEST SWAP6 SWAP5 POP POP POP POP POP JUMP JUMPDEST PUSH32 0x5461736B206E6F7420696E207265766965772028796574290000000000000000 PUSH0 DUP3 ADD MSTORE POP JUMP JUMPDEST PUSH0 PUSH2 0x2DDD PUSH1 0x18 DUP4 PUSH2 0x2569 JUMP JUMPDEST SWAP2 POP PUSH2 0x2DE8 DUP3 PUSH2 0x2DA9 JUMP JUMPDEST PUSH1 0x20 DUP3 ADD SWAP1 POP SWAP2 SWAP1 POP JUMP JUMPDEST PUSH0 PUSH1 0x20 DUP3 ADD SWAP1 POP DUP2 DUP2 SUB PUSH0 DUP4 ADD MSTORE PUSH2 0x2E0A DUP2 PUSH2 0x2DD1 JUMP JUMPDEST SWAP1 POP SWAP2 SWAP1 POP JUMP JUMPDEST PUSH32 0x446561646C696E65207061737365640000000000000000000000000000000000 PUSH0 DUP3 ADD MSTORE POP JUMP JUMPDEST PUSH0 PUSH2 0x2E45 PUSH1 0xF DUP4 PUSH2 0x2569 JUMP JUMPDEST SWAP2 POP PUSH2 0x2E50 DUP3 PUSH2 0x2E11 JUMP JUMPDEST PUSH1 0x20 DUP3 ADD SWAP1 POP SWAP2 SWAP1 POP JUMP JUMPDEST PUSH0 PUSH1 0x20 DUP3 ADD SWAP1 POP DUP2 DUP2 SUB PUSH0 DUP4 ADD MSTORE PUSH2 0x2E72 DUP2 PUSH2 0x2E39 JUMP JUMPDEST SWAP1 POP SWAP2 SWAP1 POP JUMP JUMPDEST PUSH32 0x496E636F72726563742064697370757465206465706F73697400000000000000 PUSH0 DUP3 ADD MSTORE POP JUMP JUMPDEST PUSH0 PUSH2 0x2EAD PUSH1 0x19 DUP4 PUSH2 0x2569 JUMP JUMPDEST SWAP2 POP PUSH2 0x2EB8 DUP3 PUSH2 0x2E79 JUMP JUMPDEST PUSH1 0x20 DUP3 ADD SWAP1 POP SWAP2 SWAP1 POP JUMP JUMPDEST PUSH0 PUSH1 0x20 DUP3 ADD SWAP1 POP DUP2 DUP2 SUB PUSH0 DUP4 ADD MSTORE PUSH2 0x2EDA DUP2 PUSH2 0x2EA1 JUMP JUMPDEST SWAP1 POP SWAP2 SWAP1 POP JUMP JUMPDEST PUSH32 0x4578697374696E67206469737075746520616374697665000000000000000000 PUSH0 DUP3 ADD MSTORE POP JUMP JUMPDEST PUSH0 PUSH2 0x2F15 PUSH1 0x17 DUP4 PUSH2 0x2569 JUMP JUMPDEST SWAP2 POP PUSH2 0x2F20 DUP3 PUSH2 0x2EE1 JUMP JUMPDEST PUSH1 0x20 DUP3 ADD SWAP1 POP SWAP2 SWAP1 POP JUMP JUMPDEST PUSH0 PUSH1 0x20 DUP3 ADD SWAP1 POP DUP2 DUP2 SUB PUSH0 DUP4 ADD MSTORE PUSH2 0x2F42 DUP2 PUSH2 0x2F09 JUMP JUMPDEST SWAP1 POP SWAP2 SWAP1 POP JUMP JUMPDEST PUSH0 PUSH1 0x80 DUP3 ADD SWAP1 POP PUSH2 0x2F5C PUSH0 DUP4 ADD DUP8 PUSH2 0x24F8 JUMP JUMPDEST PUSH2 0x2F69 PUSH1 0x20 DUP4 ADD DUP7 PUSH2 0x2550 JUMP JUMPDEST PUSH2 0x2F76 PUSH1 0x40 DUP4 ADD DUP6 PUSH2 0x24F8 JUMP JUMPDEST PUSH2 0x2F83 PUSH1 0x60 DUP4 ADD DUP5 PUSH2 0x24F8 JUMP JUMPDEST SWAP6 SWAP5 POP POP POP POP POP JUMP JUMPDEST PUSH32 0x4E6F206469737075746500000000000000000000000000000000000000000000 PUSH0 DUP3 ADD MSTORE POP JUMP JUMPDEST PUSH0 PUSH2 0x2FC0 PUSH1 0xA DUP4 PUSH2 0x2569 JUMP JUMPDEST SWAP2 POP PUSH2 0x2FCB DUP3 PUSH2 0x2F8C JUMP JUMPDEST PUSH1 0x20 DUP3 ADD SWAP1 POP SWAP2 SWAP1 POP JUMP JUMPDEST PUSH0 PUSH1 0x20 DUP3 ADD SWAP1 POP DUP2 DUP2 SUB PUSH0 DUP4 ADD MSTORE PUSH2 0x2FED DUP2 PUSH2 0x2FB4 JUMP JUMPDEST SWAP1 POP SWAP2 SWAP1 POP JUMP JUMPDEST PUSH32 0x416C72656164792066696E616C697A6564000000000000000000000000000000 PUSH0 DUP3 ADD MSTORE POP JUMP JUMPDEST PUSH0 PUSH2 0x3028 PUSH1 0x11 DUP4 PUSH2 0x2569 JUMP JUMPDEST SWAP2 POP PUSH2 0x3033 DUP3 PUSH2 0x2FF4 JUMP JUMPDEST PUSH1 0x20 DUP3 ADD SWAP1 POP SWAP2 SWAP1 POP JUMP JUMPDEST PUSH0 PUSH1 0x20 DUP3 ADD SWAP1 POP DUP2 DUP2 SUB PUSH0 DUP4 ADD MSTORE PUSH2 0x3055 DUP2 PUSH2 0x301C JUMP JUMPDEST SWAP1 POP SWAP2 SWAP1 POP JUMP JUMPDEST PUSH32 0x566F74696E672077696E646F77207374696C6C206F70656E0000000000000000 PUSH0 DUP3 ADD MSTORE POP JUMP JUMPDEST PUSH0 PUSH2 0x3090 PUSH1 0x18 DUP4 PUSH2 0x2569 JUMP JUMPDEST SWAP2 POP PUSH2 0x309B DUP3 PUSH2 0x305C JUMP JUMPDEST PUSH1 0x20 DUP3 ADD SWAP1 POP SWAP2 SWAP1 POP JUMP JUMPDEST PUSH0 PUSH1 0x20 DUP3 ADD SWAP1 POP DUP2 DUP2 SUB PUSH0 DUP4 ADD MSTORE PUSH2 0x30BD DUP2 PUSH2 0x3084 JUMP JUMPDEST SWAP1 POP SWAP2 SWAP1 POP JUMP JUMPDEST PUSH32 0x4E487B7100000000000000000000000000000000000000000000000000000000 PUSH0 MSTORE PUSH1 0x32 PUSH1 0x4 MSTORE PUSH1 0x24 PUSH0 REVERT JUMPDEST PUSH0 PUSH1 0x40 DUP3 ADD SWAP1 POP PUSH2 0x3104 PUSH0 DUP4 ADD DUP6 PUSH2 0x2550 JUMP JUMPDEST PUSH2 0x3111 PUSH1 0x20 DUP4 ADD DUP5 PUSH2 0x24F8 JUMP JUMPDEST SWAP4 SWAP3 POP POP POP JUMP JUMPDEST PUSH0 PUSH2 0x3122 DUP3 PUSH2 0x249A JUMP JUMPDEST SWAP2 POP PUSH32 0xFFFFFFFFFFFFFFFFFFFFFFFFFFFFFFFFFFFFFFFFFFFFFFFFFFFFFFFFFFFFFFFF DUP3 SUB PUSH2 0x3154 JUMPI PUSH2 0x3153 PUSH2 0x2992 JUMP JUMPDEST JUMPDEST PUSH1 0x1 DUP3 ADD SWAP1 POP SWAP2 SWAP1 POP JUMP JUMPDEST PUSH0 DUP2 SLOAD SWAP1 POP PUSH2 0x316D DUP2 PUSH2 0x2A1F JUMP JUMPDEST SWAP1 POP SWAP2 SWAP1 POP JUMP JUMPDEST PUSH32 0x4E487B7100000000000000000000000000000000000000000000000000000000 PUSH0 MSTORE PUSH1 0x41 PUSH1 0x4 MSTORE PUSH1 0x24 PUSH0 REVERT JUMPDEST PUSH0 DUP2 SWAP1 POP DUP2 PUSH0 MSTORE PUSH1 0x20 PUSH0 KECCAK256 SWAP1 POP SWAP2 SWAP1 POP JUMP JUMPDEST PUSH0 DUP2 SWAP1 POP DUP2 PUSH0 MSTORE PUSH1 0x20 PUSH0 KECCAK256 SWAP1 POP SWAP2 SWAP1 POP JUMP JUMPDEST PUSH0 PUSH1 0x20 PUSH1 0x1F DUP4 ADD DIV SWAP1 POP SWAP2 SWAP1 POP JUMP JUMPDEST PUSH0 DUP3 DUP3 SHL SWAP1 POP SWAP3 SWAP2 POP POP JUMP JUMPDEST PUSH0 PUSH1 0x8 DUP4 MUL PUSH2 0x320F PUSH32 0xFFFFFFFFFFFFFFFFFFFFFFFFFFFFFFFFFFFFFFFFFFFFFFFFFFFFFFFFFFFFFFFF DUP3 PUSH2 0x31D4 JUMP JUMPDEST PUSH2 0x3219 DUP7 DUP4 PUSH2 0x31D4 JUMP JUMPDEST SWAP6 POP DUP1 NOT DUP5 AND SWAP4 POP DUP1 DUP7 AND DUP5 OR SWAP3 POP POP POP SWAP4 SWAP3 POP POP POP JUMP JUMPDEST PUSH0 PUSH2 0x324B PUSH2 0x3246 PUSH2 0x3241 DUP5 PUSH2 0x249A JUMP JUMPDEST PUSH2 0x28B6 JUMP JUMPDEST PUSH2 0x249A JUMP JUMPDEST SWAP1 POP SWAP2 SWAP1 POP JUMP JUMPDEST PUSH0 DUP2 SWAP1 POP SWAP2 SWAP1 POP JUMP JUMPDEST PUSH2 0x3264 DUP4 PUSH2 0x3231 JUMP JUMPDEST PUSH2 0x3278 PUSH2 0x3270 DUP3 PUSH2 0x3252 JUMP JUMPDEST DUP5 DUP5 SLOAD PUSH2 0x31E0 JUMP JUMPDEST DUP3 SSTORE POP POP POP POP JUMP JUMPDEST PUSH0 PUSH0 SWAP1 POP SWAP1 JUMP JUMPDEST PUSH2 0x328F PUSH2 0x3280 JUMP JUMPDEST PUSH2 0x329A DUP2 DUP5 DUP5 PUSH2 0x325B JUMP JUMPDEST POP POP POP JUMP JUMPDEST JUMPDEST DUP2 DUP2 LT ISZERO PUSH2 0x32BD JUMPI PUSH2 0x32B2 PUSH0 DUP3 PUSH2 0x3287 JUMP JUMPDEST PUSH1 0x1 DUP2 ADD SWAP1 POP PUSH2 0x32A0 JUMP JUMPDEST POP POP JUMP JUMPDEST PUSH1 0x1F DUP3 GT ISZERO PUSH2 0x3302 JUMPI PUSH2 0x32D3 DUP2 PUSH2 0x31A1 JUMP JUMPDEST PUSH2 0x32DC DUP5 PUSH2 0x31C5 JUMP JUMPDEST DUP2 ADD PUSH1 0x20 DUP6 LT ISZERO PUSH2 0x32EB JUMPI DUP2 SWAP1 POP JUMPDEST PUSH2 0x32FF PUSH2 0x32F7 DUP6 PUSH2 0x31C5 JUMP JUMPDEST DUP4 ADD DUP3 PUSH2 0x329F JUMP JUMPDEST POP POP JUMPDEST POP POP POP JUMP JUMPDEST PUSH0 DUP3 DUP3 SHR SWAP1 POP SWAP3 SWAP2 POP POP JUMP JUMPDEST PUSH0 PUSH2 0x3322 PUSH0 NOT DUP5 PUSH1 0x8 MUL PUSH2 0x3307 JUMP JUMPDEST NOT DUP1 DUP4 AND SWAP2 POP POP SWAP3 SWAP2 POP POP JUMP JUMPDEST PUSH0 PUSH2 0x333A DUP4 DUP4 PUSH2 0x3313 JUMP JUMPDEST SWAP2 POP DUP3 PUSH1 0x2 MUL DUP3 OR SWAP1 POP SWAP3 SWAP2 POP POP JUMP JUMPDEST DUP2 DUP2 SUB PUSH2 0x3358 JUMPI POP POP PUSH2 0x342D JUMP JUMPDEST PUSH2 0x3361 DUP3 PUSH2 0x315F JUMP JUMPDEST PUSH8 0xFFFFFFFFFFFFFFFF DUP2 GT ISZERO PUSH2 0x337A JUMPI PUSH2 0x3379 PUSH2 0x3174 JUMP JUMPDEST JUMPDEST PUSH2 0x3384 DUP3 SLOAD PUSH2 0x2A1F JUMP JUMPDEST PUSH2 0x338F DUP3 DUP3 DUP6 PUSH2 0x32C1 JUMP JUMPDEST PUSH0 PUSH1 0x1F DUP4 GT PUSH1 0x1 DUP2 EQ PUSH2 0x33BC JUMPI PUSH0 DUP5 ISZERO PUSH2 0x33AA JUMPI DUP3 DUP8 ADD SLOAD SWAP1 POP JUMPDEST PUSH2 0x33B4 DUP6 DUP3 PUSH2 0x332F JUMP JUMPDEST DUP7 SSTORE POP PUSH2 0x3426 JUMP JUMPDEST PUSH1 0x1F NOT DUP5 AND PUSH2 0x33CA DUP8 PUSH2 0x31B3 JUMP JUMPDEST SWAP7 POP PUSH2 0x33D5 DUP7 PUSH2 0x31A1 JUMP JUMPDEST PUSH0 JUMPDEST DUP3 DUP2 LT ISZERO PUSH2 0x33FC JUMPI DUP5 DUP10 ADD SLOAD DUP3 SSTORE PUSH1 0x1 DUP3 ADD SWAP2 POP PUSH1 0x1 DUP6 ADD SWAP5 POP PUSH1 0x20 DUP2 ADD SWAP1 POP PUSH2 0x33D7 JUMP JUMPDEST DUP7 DUP4 LT ISZERO PUSH2 0x3419 JUMPI DUP5 DUP10 ADD SLOAD PUSH2 0x3415 PUSH1 0x1F DUP10 AND DUP3 PUSH2 0x3313 JUMP JUMPDEST DUP4 SSTORE POP JUMPDEST PUSH1 0x1 PUSH1 0x2 DUP9 MUL ADD DUP9 SSTORE POP POP POP JUMPDEST POP POP POP POP POP POP JUMPDEST JUMP JUMPDEST PUSH0 PUSH1 0x40 DUP3 ADD SWAP1 POP PUSH2 0x3442 PUSH0 DUP4 ADD DUP6 PUSH2 0x24F8 JUMP JUMPDEST PUSH2 0x344F PUSH1 0x20 DUP4 ADD DUP5 PUSH2 0x25DA JUMP JUMPDEST SWAP4 SWAP3 POP POP POP JUMP JUMPDEST PUSH32 0x5461736B206E6F74207665726966696564202879657429000000000000000000 PUSH0 DUP3 ADD MSTORE POP JUMP JUMPDEST PUSH0 PUSH2 0x348A PUSH1 0x17 DUP4 PUSH2 0x2569 JUMP JUMPDEST SWAP2 POP PUSH2 0x3495 DUP3 PUSH2 0x3456 JUMP JUMPDEST PUSH1 0x20 DUP3 ADD SWAP1 POP SWAP2 SWAP1 POP JUMP JUMPDEST PUSH0 PUSH1 0x20 DUP3 ADD SWAP1 POP DUP2 DUP2 SUB PUSH0 DUP4 ADD MSTORE PUSH2 0x34B7 DUP2 PUSH2 0x347E JUMP JUMPDEST SWAP1 POP SWAP2 SWAP1 POP JUMP JUMPDEST PUSH32 0x57616974696E672074696D65206E6F7420706173736564207965740000000000 PUSH0 DUP3 ADD MSTORE POP JUMP JUMPDEST PUSH0 PUSH2 0x34F2 PUSH1 0x1B DUP4 PUSH2 0x2569 JUMP JUMPDEST SWAP2 POP PUSH2 0x34FD DUP3 PUSH2 0x34BE JUMP JUMPDEST PUSH1 0x20 DUP3 ADD SWAP1 POP SWAP2 SWAP1 POP JUMP JUMPDEST PUSH0 PUSH1 0x20 DUP3 ADD SWAP1 POP DUP2 DUP2 SUB PUSH0 DUP4 ADD MSTORE PUSH2 0x351F DUP2 PUSH2 0x34E6 JUMP JUMPDEST SWAP1 POP SWAP2 SWAP1 POP JUMP JUMPDEST PUSH32 0x4E6F207665726966696572207965740000000000000000000000000000000000 PUSH0 DUP3 ADD MSTORE POP JUMP JUMPDEST PUSH0 PUSH2 0x355A PUSH1 0xF DUP4 PUSH2 0x2569 JUMP JUMPDEST SWAP2 POP PUSH2 0x3565 DUP3 PUSH2 0x3526 JUMP JUMPDEST PUSH1 0x20 DUP3 ADD SWAP1 POP SWAP2 SWAP1 POP JUMP JUMPDEST PUSH0 PUSH1 0x20 DUP3 ADD SWAP1 POP DUP2 DUP2 SUB PUSH0 DUP4 ADD MSTORE PUSH2 0x3587 DUP2 PUSH2 0x354E JUMP JUMPDEST SWAP1 POP SWAP2 SWAP1 POP JUMP JUMPDEST PUSH32 0x6469737075746564000000000000000000000000000000000000000000000000 PUSH0 DUP3 ADD MSTORE POP JUMP JUMPDEST PUSH0 PUSH2 0x35C2 PUSH1 0x8 DUP4 PUSH2 0x2569 JUMP JUMPDEST SWAP2 POP PUSH2 0x35CD DUP3 PUSH2 0x358E JUMP JUMPDEST PUSH1 0x20 DUP3 ADD SWAP1 POP SWAP2 SWAP1 POP JUMP JUMPDEST PUSH0 PUSH1 0x20 DUP3 ADD SWAP1 POP DUP2 DUP2 SUB PUSH0 DUP4 ADD MSTORE PUSH2 0x35EF DUP2 PUSH2 0x35B6 JUMP JUMPDEST SWAP1 POP SWAP2 SWAP1 POP JUMP JUMPDEST PUSH0 PUSH2 0x3600 DUP3 PUSH2 0x249A JUMP JUMPDEST SWAP2 POP PUSH2 0x360B DUP4 PUSH2 0x249A JUMP JUMPDEST SWAP3 POP DUP3 DUP3 MUL PUSH2 0x3619 DUP2 PUSH2 0x249A JUMP JUMPDEST SWAP2 POP DUP3 DUP3 DIV DUP5 EQ DUP4 ISZERO OR PUSH2 0x3630 JUMPI PUSH2 0x362F PUSH2 0x2992 JUMP JUMPDEST JUMPDEST POP SWAP3 SWAP2 POP POP JUMP JUMPDEST PUSH32 0x4E487B7100000000000000000000000000000000000000000000000000000000 PUSH0 MSTORE PUSH1 0x12 PUSH1 0x4 MSTORE PUSH1 0x24 PUSH0 REVERT JUMPDEST PUSH0 PUSH2 0x366E DUP3 PUSH2 0x249A JUMP JUMPDEST SWAP2 POP PUSH2 0x3679 DUP4 PUSH2 0x249A JUMP JUMPDEST SWAP3 POP DUP3 PUSH2 0x3689 JUMPI PUSH2 0x3688 PUSH2 0x3637 JUMP JUMPDEST JUMPDEST DUP3 DUP3 DIV SWAP1 POP SWAP3 SWAP2 POP POP JUMP JUMPDEST PUSH2 0x369D DUP3 PUSH2 0x255F JUMP JUMPDEST PUSH8 0xFFFFFFFFFFFFFFFF DUP2 GT ISZERO PUSH2 0x36B6 JUMPI PUSH2 0x36B5 PUSH2 0x3174 JUMP JUMPDEST JUMPDEST PUSH2 0x36C0 DUP3 SLOAD PUSH2 0x2A1F JUMP JUMPDEST PUSH2 0x36CB DUP3 DUP3 DUP6 PUSH2 0x32C1 JUMP JUMPDEST PUSH0 PUSH1 0x20 SWAP1 POP PUSH1 0x1F DUP4 GT PUSH1 0x1 DUP2 EQ PUSH2 0x36FC JUMPI PUSH0 DUP5 ISZERO PUSH2 0x36EA JUMPI DUP3 DUP8 ADD MLOAD SWAP1 POP JUMPDEST PUSH2 0x36F4 DUP6 DUP3 PUSH2 0x332F JUMP JUMPDEST DUP7 SSTORE POP PUSH2 0x375B JUMP JUMPDEST PUSH1 0x1F NOT DUP5 AND PUSH2 0x370A DUP7 PUSH2 0x31A1 JUMP JUMPDEST PUSH0 JUMPDEST DUP3 DUP2 LT ISZERO PUSH2 0x3731 JUMPI DUP5 DUP10 ADD MLOAD DUP3 SSTORE PUSH1 0x1 DUP3 ADD SWAP2 POP PUSH1 0x20 DUP6 ADD SWAP5 POP PUSH1 0x20 DUP2 ADD SWAP1 POP PUSH2 0x370C JUMP JUMPDEST DUP7 DUP4 LT ISZERO PUSH2 0x374E JUMPI DUP5 DUP10 ADD MLOAD PUSH2 0x374A PUSH1 0x1F DUP10 AND DUP3 PUSH2 0x3313 JUMP JUMPDEST DUP4 SSTORE POP JUMPDEST PUSH1 0x1 PUSH1 0x2 DUP9 MUL ADD DUP9 SSTORE POP POP POP JUMPDEST POP POP POP POP POP POP JUMP JUMPDEST PUSH32 0x5461736B206E6F74207375626D69747465642028796574290000000000000000 PUSH0 DUP3 ADD MSTORE POP JUMP JUMPDEST PUSH0 PUSH2 0x3797 PUSH1 0x18 DUP4 PUSH2 0x2569 JUMP JUMPDEST SWAP2 POP PUSH2 0x37A2 DUP3 PUSH2 0x3763 JUMP JUMPDEST PUSH1 0x20 DUP3 ADD SWAP1 POP SWAP2 SWAP1 POP JUMP JUMPDEST PUSH0 PUSH1 0x20 DUP3 ADD SWAP1 POP DUP2 DUP2 SUB PUSH0 DUP4 ADD MSTORE PUSH2 0x37C4 DUP2 PUSH2 0x378B JUMP JUMPDEST SWAP1 POP SWAP2 SWAP1 POP JUMP JUMPDEST PUSH32 0x5374616B65207265717569726564000000000000000000000000000000000000 PUSH0 DUP3 ADD MSTORE POP JUMP JUMPDEST PUSH0 PUSH2 0x37FF PUSH1 0xE DUP4 PUSH2 0x2569 JUMP JUMPDEST SWAP2 POP PUSH2 0x380A DUP3 PUSH2 0x37CB JUMP JUMPDEST PUSH1 0x20 DUP3 ADD SWAP1 POP SWAP2 SWAP1 POP JUMP JUMPDEST PUSH0 PUSH1 0x20 DUP3 ADD SWAP1 POP DUP2 DUP2 SUB PUSH0 DUP4 ADD MSTORE PUSH2 0x382C DUP2 PUSH2 0x37F3 JUMP JUMPDEST SWAP1 POP SWAP2 SWAP1 POP JUMP JUMPDEST PUSH32 0x416C726561647920766572696669656400000000000000000000000000000000 PUSH0 DUP3 ADD MSTORE POP JUMP JUMPDEST PUSH0 PUSH2 0x3867 PUSH1 0x10 DUP4 PUSH2 0x2569 JUMP JUMPDEST SWAP2 POP PUSH2 0x3872 DUP3 PUSH2 0x3833 JUMP JUMPDEST PUSH1 0x20 DUP3 ADD SWAP1 POP SWAP2 SWAP1 POP JUMP JUMPDEST PUSH0 PUSH1 0x20 DUP3 ADD SWAP1 POP DUP2 DUP2 SUB PUSH0 DUP4 ADD MSTORE PUSH2 0x3894 DUP2 PUSH2 0x385B JUMP JUMPDEST SWAP1 POP SWAP2 SWAP1 POP JUMP JUMPDEST PUSH0 PUSH1 0x60 DUP3 ADD SWAP1 POP PUSH2 0x38AE PUSH0 DUP4 ADD DUP7 PUSH2 0x24F8 JUMP JUMPDEST PUSH2 0x38BB PUSH1 0x20 DUP4 ADD DUP6 PUSH2 0x2550 JUMP JUMPDEST PUSH2 0x38C8 PUSH1 0x40 DUP4 ADD DUP5 PUSH2 0x25DA JUMP JUMPDEST SWAP5 SWAP4 POP POP POP POP JUMP JUMPDEST PUSH32 0x4D7573742073656E6420626F756E747900000000000000000000000000000000 PUSH0 DUP3 ADD MSTORE POP JUMP JUMPDEST PUSH0 PUSH2 0x3904 PUSH1 0x10 DUP4 PUSH2 0x2569 JUMP JUMPDEST SWAP2 POP PUSH2 0x390F DUP3 PUSH2 0x38D0 JUMP JUMPDEST PUSH1 0x20 DUP3 ADD SWAP1 POP SWAP2 SWAP1 POP JUMP JUMPDEST PUSH0 PUSH1 0x20 DUP3 ADD SWAP1 POP DUP2 DUP2 SUB PUSH0 DUP4 ADD MSTORE PUSH2 0x3931 DUP2 PUSH2 0x38F8 JUMP JUMPDEST SWAP1 POP SWAP2 SWAP1 POP JUMP JUMPDEST PUSH0 DUP3 SWAP1 POP SWAP3 SWAP2 POP POP JUMP JUMPDEST PUSH2 0x394C DUP4 DUP4 PUSH2 0x3938 JUMP JUMPDEST PUSH8 0xFFFFFFFFFFFFFFFF DUP2 GT ISZERO PUSH2 0x3965 JUMPI PUSH2 0x3964 PUSH2 0x3174 JUMP JUMPDEST JUMPDEST PUSH2 0x396F DUP3 SLOAD PUSH2 0x2A1F JUMP JUMPDEST PUSH2 0x397A DUP3 DUP3 DUP6 PUSH2 0x32C1 JUMP JUMPDEST PUSH0 PUSH1 0x1F DUP4 GT PUSH1 0x1 DUP2 EQ PUSH2 0x39A7 JUMPI PUSH0 DUP5 ISZERO PUSH2 0x3995 JUMPI DUP3 DUP8 ADD CALLDATALOAD SWAP1 POP JUMPDEST PUSH2 0x399F DUP6 DUP3 PUSH2 0x332F JUMP JUMPDEST DUP7 SSTORE POP PUSH2 0x3A06 JUMP JUMPDEST PUSH1 0x1F NOT DUP5 AND PUSH2 0x39B5 DUP7 PUSH2 0x31A1 JUMP JUMPDEST PUSH0 JUMPDEST DUP3 DUP2 LT ISZERO PUSH2 0x39DC JUMPI DUP5 DUP10 ADD CALLDATALOAD DUP3 SSTORE PUSH1 0x1 DUP3 ADD SWAP2 POP PUSH1 0x20 DUP6 ADD SWAP5 POP PUSH1 0x20 DUP2 ADD SWAP1 POP PUSH2 0x39B7 JUMP JUMPDEST DUP7 DUP4 LT ISZERO PUSH2 0x39F9 JUMPI DUP5 DUP10 ADD CALLDATALOAD PUSH2 0x39F5 PUSH1 0x1F DUP10 AND DUP3 PUSH2 0x3313 JUMP JUMPDEST DUP4 SSTORE POP JUMPDEST PUSH1 0x1 PUSH1 0x2 DUP9 MUL ADD DUP9 SSTORE POP POP POP JUMPDEST POP POP POP POP POP POP POP JUMP JUMPDEST DUP3 DUP2 DUP4 CALLDATACOPY PUSH0 DUP4 DUP4 ADD MSTORE POP POP POP JUMP JUMPDEST PUSH0 PUSH2 0x3A28 DUP4 DUP6 PUSH2 0x2569 JUMP JUMPDEST SWAP4 POP PUSH2 0x3A35 DUP4 DUP6 DUP5 PUSH2 0x3A0F JUMP JUMPDEST PUSH2 0x3A3E DUP4 PUSH2 0x2587 JUMP JUMPDEST DUP5 ADD SWAP1 POP SWAP4 SWAP3 POP POP POP JUMP JUMPDEST PUSH0 PUSH1 0x80 DUP3 ADD SWAP1 POP PUSH2 0x3A5C PUSH0 DUP4 ADD DUP9 PUSH2 0x24F8 JUMP JUMPDEST PUSH2 0x3A69 PUSH1 0x20 DUP4 ADD DUP8 PUSH2 0x2550 JUMP JUMPDEST PUSH2 0x3A76 PUSH1 0x40 DUP4 ADD DUP7 PUSH2 0x24F8 JUMP JUMPDEST DUP2 DUP2 SUB PUSH1 0x60 DUP4 ADD MSTORE PUSH2 0x3A89 DUP2 DUP5 DUP7 PUSH2 0x3A1D JUMP JUMPDEST SWAP1 POP SWAP7 SWAP6 POP POP POP POP POP POP JUMP JUMPDEST PUSH32 0x5461736B206E6F74206F70656E20287965742900000000000000000000000000 PUSH0 DUP3 ADD MSTORE POP JUMP JUMPDEST PUSH0 PUSH2 0x3AC9 PUSH1 0x13 DUP4 PUSH2 0x2569 JUMP JUMPDEST SWAP2 POP PUSH2 0x3AD4 DUP3 PUSH2 0x3A95 JUMP JUMPDEST PUSH1 0x20 DUP3 ADD SWAP1 POP SWAP2 SWAP1 POP JUMP JUMPDEST PUSH0 PUSH1 0x20 DUP3 ADD SWAP1 POP DUP2 DUP2 SUB PUSH0 DUP4 ADD MSTORE PUSH2 0x3AF6 DUP2 PUSH2 0x3ABD JUMP JUMPDEST SWAP1 POP SWAP2 SWAP1 POP JUMP JUMPDEST PUSH32 0x4120736F6C7574696F6E2068617320616C7265616479206265656E207375626D PUSH0 DUP3 ADD MSTORE PUSH32 0x6974746564000000000000000000000000000000000000000000000000000000 PUSH1 0x20 DUP3 ADD MSTORE POP JUMP JUMPDEST PUSH0 PUSH2 0x3B57 PUSH1 0x25 DUP4 PUSH2 0x2569 JUMP JUMPDEST SWAP2 POP PUSH2 0x3B62 DUP3 PUSH2 0x3AFD JUMP JUMPDEST PUSH1 0x40 DUP3 ADD SWAP1 POP SWAP2 SWAP1 POP JUMP JUMPDEST PUSH0 PUSH1 0x20 DUP3 ADD SWAP1 POP DUP2 DUP2 SUB PUSH0 DUP4 ADD MSTORE PUSH2 0x3B84 DUP2 PUSH2 0x3B4B JUMP JUMPDEST SWAP1 POP SWAP2 SWAP1 POP JUMP JUMPDEST PUSH0 PUSH1 0x60 DUP3 ADD SWAP1 POP PUSH2 0x3B9E PUSH0 DUP4 ADD DUP8 PUSH2 0x24F8 JUMP JUMPDEST PUSH2 0x3BAB PUSH1 0x20 DUP4 ADD DUP7 PUSH2 0x2550 JUMP JUMPDEST DUP2 DUP2 SUB PUSH1 0x40 DUP4 ADD MSTORE PUSH2 0x3BBE DUP2 DUP5 DUP7 PUSH2 0x3A1D JUMP JUMPDEST SWAP1 POP SWAP6 SWAP5 POP POP POP POP POP JUMP INVALID LOG2 PUSH5 0x6970667358 0x22 SLT KECCAK256 DUP4 PUSH0 0x26 0xC4 0x4F 0xC2 RETURNDATACOPY SDIV GAS PUSH9 0x2326158E9B88E2D96 NOT TIMESTAMP 0xE8 JUMPDEST 0xEA DUP7 SWAP9 DUP9 0xAB PREVRANDAO EXP DUP9 0xDA PUSH5 0x736F6C6343 STOP ADDMOD 0x1E STOP CALLER "
		},
		"gasEstimates": {
			"creation": {
				"codeDepositCost": "3071800",
				"executionCost": "infinite",
				"totalCost": "infinite"
			},
			"external": {
				"createDispute(uint256)": "infinite",
				"disputePeriod()": "2448",
				"finalizeDispute(uint256)": "infinite",
				"finalizeTask(uint256)": "infinite",
				"getRemainingTime(uint256)": "infinite",
				"getTask(uint256)": "infinite",
				"getTaskCount()": "2453",
				"governanceToken()": "infinite",
				"jurorVote(uint256,uint256,bool)": "infinite",
				"minJurorStake()": "2492",
				"postTask(string)": "infinite",
				"submitSolution(uint256,string)": "infinite",
				"verifySolution(uint256,bool)": "infinite"
			},
			"internal": {
				"_distributeRewards(uint256,bool)": "infinite",
				"_payoutAccepted(uint256)": "infinite"
			}
		},
		"methodIdentifiers": {
			"createDispute(uint256)": "4ac8a529",
			"disputePeriod()": "5bf31d4d",
			"finalizeDispute(uint256)": "56989a83",
			"finalizeTask(uint256)": "88488c33",
			"getRemainingTime(uint256)": "181e0124",
			"getTask(uint256)": "1d65e77e",
			"getTaskCount()": "c17a340e",
			"governanceToken()": "f96dae0a",
			"jurorVote(uint256,uint256,bool)": "1df97777",
			"minJurorStake()": "276ae811",
			"postTask(string)": "c4ca280d",
			"submitSolution(uint256,string)": "d3b5c016",
			"verifySolution(uint256,bool)": "88860835"
		}
	},
	"abi": [
		{
			"inputs": [
				{
					"internalType": "address",
					"name": "_governanceToken",
					"type": "address"
				}
			],
			"stateMutability": "nonpayable",
			"type": "constructor"
		},
		{
			"anonymous": false,
			"inputs": [
				{
					"indexed": false,
					"internalType": "uint256",
					"name": "taskId",
					"type": "uint256"
				},
				{
					"indexed": false,
					"internalType": "address",
					"name": "objector",
					"type": "address"
				},
				{
					"indexed": false,
					"internalType": "uint256",
					"name": "deposit",
					"type": "uint256"
				},
				{
					"indexed": false,
					"internalType": "uint256",
					"name": "startTime",
					"type": "uint256"
				}
			],
			"name": "DisputeCreated",
			"type": "event"
		},
		{
			"anonymous": false,
			"inputs": [
				{
					"indexed": false,
					"internalType": "uint256",
					"name": "taskId",
					"type": "uint256"
				},
				{
					"indexed": false,
					"internalType": "bool",
					"name": "finalDecision",
					"type": "bool"
				}
			],
			"name": "DisputeFinalized",
			"type": "event"
		},
		{
			"anonymous": false,
			"inputs": [
				{
					"indexed": false,
					"internalType": "uint256",
					"name": "taskId",
					"type": "uint256"
				},
				{
					"indexed": false,
					"internalType": "address",
					"name": "juror",
					"type": "address"
				},
				{
					"indexed": false,
					"internalType": "bool",
					"name": "supportsSolution",
					"type": "bool"
				},
				{
					"indexed": false,
					"internalType": "uint256",
					"name": "weight",
					"type": "uint256"
				}
			],
			"name": "JurorVoted",
			"type": "event"
		},
		{
			"anonymous": false,
			"inputs": [
				{
					"indexed": false,
					"internalType": "uint256",
					"name": "taskId",
					"type": "uint256"
				},
				{
					"indexed": false,
					"internalType": "address",
					"name": "solver",
					"type": "address"
				},
				{
					"indexed": false,
					"internalType": "string",
					"name": "solutionHash",
					"type": "string"
				}
			],
			"name": "SolutionSubmitted",
			"type": "event"
		},
		{
			"anonymous": false,
			"inputs": [
				{
					"indexed": false,
					"internalType": "uint256",
					"name": "taskId",
					"type": "uint256"
				},
				{
					"indexed": false,
					"internalType": "address",
					"name": "verifier",
					"type": "address"
				},
				{
					"indexed": false,
					"internalType": "bool",
					"name": "approved",
					"type": "bool"
				}
			],
			"name": "SolutionVerified",
			"type": "event"
		},
		{
			"anonymous": false,
			"inputs": [
				{
					"indexed": false,
					"internalType": "uint256",
					"name": "taskId",
					"type": "uint256"
				},
				{
					"indexed": false,
					"internalType": "bool",
					"name": "success",
					"type": "bool"
				}
			],
			"name": "TaskFinalized",
			"type": "event"
		},
		{
			"anonymous": false,
			"inputs": [
				{
					"indexed": false,
					"internalType": "uint256",
					"name": "taskId",
					"type": "uint256"
				},
				{
					"indexed": false,
					"internalType": "address",
					"name": "creator",
					"type": "address"
				},
				{
					"indexed": false,
					"internalType": "uint256",
					"name": "bounty",
					"type": "uint256"
				},
				{
					"indexed": false,
					"internalType": "string",
					"name": "descriptionHash",
					"type": "string"
				}
			],
			"name": "TaskPosted",
			"type": "event"
		},
		{
			"inputs": [
				{
					"internalType": "uint256",
					"name": "_taskId",
					"type": "uint256"
				}
			],
			"name": "createDispute",
			"outputs": [],
			"stateMutability": "payable",
			"type": "function"
		},
		{
			"inputs": [],
			"name": "disputePeriod",
			"outputs": [
				{
					"internalType": "uint256",
					"name": "",
					"type": "uint256"
				}
			],
			"stateMutability": "view",
			"type": "function"
		},
		{
			"inputs": [
				{
					"internalType": "uint256",
					"name": "_taskId",
					"type": "uint256"
				}
			],
			"name": "finalizeDispute",
			"outputs": [],
			"stateMutability": "nonpayable",
			"type": "function"
		},
		{
			"inputs": [
				{
					"internalType": "uint256",
					"name": "_taskId",
					"type": "uint256"
				}
			],
			"name": "finalizeTask",
			"outputs": [],
			"stateMutability": "nonpayable",
			"type": "function"
		},
		{
			"inputs": [
				{
					"internalType": "uint256",
					"name": "_taskId",
					"type": "uint256"
				}
			],
			"name": "getRemainingTime",
			"outputs": [
				{
					"internalType": "uint256",
					"name": "Seconds",
					"type": "uint256"
				}
			],
			"stateMutability": "view",
			"type": "function"
		},
		{
			"inputs": [
				{
					"internalType": "uint256",
					"name": "_taskId",
					"type": "uint256"
				}
			],
			"name": "getTask",
			"outputs": [
				{
					"internalType": "address",
					"name": "creator",
					"type": "address"
				},
				{
					"internalType": "address",
					"name": "solver",
					"type": "address"
				},
				{
					"internalType": "address",
					"name": "verifier",
					"type": "address"
				},
				{
					"internalType": "uint256",
					"name": "bounty",
					"type": "uint256"
				},
				{
					"internalType": "string",
					"name": "descriptionHash",
					"type": "string"
				},
				{
					"internalType": "string",
					"name": "solutionHash",
					"type": "string"
				},
				{
					"internalType": "bool",
					"name": "approved",
					"type": "bool"
				},
				{
					"internalType": "uint256",
					"name": "deadline",
					"type": "uint256"
				},
				{
					"internalType": "enum TaskMarketplace.TaskStatus",
					"name": "status",
					"type": "uint8"
				}
			],
			"stateMutability": "view",
			"type": "function"
		},
		{
			"inputs": [],
			"name": "getTaskCount",
			"outputs": [
				{
					"internalType": "uint256",
					"name": "",
					"type": "uint256"
				}
			],
			"stateMutability": "view",
			"type": "function"
		},
		{
			"inputs": [],
			"name": "governanceToken",
			"outputs": [
				{
					"internalType": "contract IERC20",
					"name": "",
					"type": "address"
				}
			],
			"stateMutability": "view",
			"type": "function"
		},
		{
			"inputs": [
				{
					"internalType": "uint256",
					"name": "_taskId",
					"type": "uint256"
				},
				{
					"internalType": "uint256",
					"name": "_tokenAmount",
					"type": "uint256"
				},
				{
					"internalType": "bool",
					"name": "supportsSolution",
					"type": "bool"
				}
			],
			"name": "jurorVote",
			"outputs": [],
			"stateMutability": "nonpayable",
			"type": "function"
		},
		{
			"inputs": [],
			"name": "minJurorStake",
			"outputs": [
				{
					"internalType": "uint256",
					"name": "",
					"type": "uint256"
				}
			],
			"stateMutability": "view",
			"type": "function"
		},
		{
			"inputs": [
				{
					"internalType": "string",
					"name": "_descriptionHash",
					"type": "string"
				}
			],
			"name": "postTask",
			"outputs": [],
			"stateMutability": "payable",
			"type": "function"
		},
		{
			"inputs": [
				{
					"internalType": "uint256",
					"name": "_taskId",
					"type": "uint256"
				},
				{
					"internalType": "string",
					"name": "_solutionHash",
					"type": "string"
				}
			],
			"name": "submitSolution",
			"outputs": [],
			"stateMutability": "payable",
			"type": "function"
		},
		{
			"inputs": [
				{
					"internalType": "uint256",
					"name": "_taskId",
					"type": "uint256"
				},
				{
					"internalType": "bool",
					"name": "_approved",
					"type": "bool"
				}
			],
			"name": "verifySolution",
			"outputs": [],
			"stateMutability": "payable",
			"type": "function"
		}
	]
}